{
  "contractName": "PebbleLoot",
  "abi": [
    {
      "inputs": [],
      "stateMutability": "nonpayable",
      "type": "constructor"
    },
    {
      "anonymous": false,
      "inputs": [
        {
          "indexed": true,
          "internalType": "address",
          "name": "owner",
          "type": "address"
        },
        {
          "indexed": true,
          "internalType": "address",
          "name": "approved",
          "type": "address"
        },
        {
          "indexed": true,
          "internalType": "uint256",
          "name": "tokenId",
          "type": "uint256"
        }
      ],
      "name": "Approval",
      "type": "event"
    },
    {
      "anonymous": false,
      "inputs": [
        {
          "indexed": true,
          "internalType": "address",
          "name": "owner",
          "type": "address"
        },
        {
          "indexed": true,
          "internalType": "address",
          "name": "operator",
          "type": "address"
        },
        {
          "indexed": false,
          "internalType": "bool",
          "name": "approved",
          "type": "bool"
        }
      ],
      "name": "ApprovalForAll",
      "type": "event"
    },
    {
      "anonymous": false,
      "inputs": [
        {
          "indexed": true,
          "internalType": "address",
          "name": "previousOwner",
          "type": "address"
        },
        {
          "indexed": true,
          "internalType": "address",
          "name": "newOwner",
          "type": "address"
        }
      ],
      "name": "OwnershipTransferred",
      "type": "event"
    },
    {
      "anonymous": false,
      "inputs": [
        {
          "indexed": true,
          "internalType": "address",
          "name": "from",
          "type": "address"
        },
        {
          "indexed": true,
          "internalType": "address",
          "name": "to",
          "type": "address"
        },
        {
          "indexed": true,
          "internalType": "uint256",
          "name": "tokenId",
          "type": "uint256"
        }
      ],
      "name": "Transfer",
      "type": "event"
    },
    {
      "inputs": [
        {
          "internalType": "address",
          "name": "to",
          "type": "address"
        },
        {
          "internalType": "uint256",
          "name": "tokenId",
          "type": "uint256"
        }
      ],
      "name": "approve",
      "outputs": [],
      "stateMutability": "nonpayable",
      "type": "function"
    },
    {
      "inputs": [
        {
          "internalType": "address",
          "name": "owner",
          "type": "address"
        }
      ],
      "name": "balanceOf",
      "outputs": [
        {
          "internalType": "uint256",
          "name": "",
          "type": "uint256"
        }
      ],
      "stateMutability": "view",
      "type": "function",
      "constant": true
    },
    {
      "inputs": [],
      "name": "baseURI",
      "outputs": [
        {
          "internalType": "string",
          "name": "",
          "type": "string"
        }
      ],
      "stateMutability": "view",
      "type": "function",
      "constant": true
    },
    {
      "inputs": [
        {
          "internalType": "uint256",
          "name": "tokenId",
          "type": "uint256"
        }
      ],
      "name": "getApproved",
      "outputs": [
        {
          "internalType": "address",
          "name": "",
          "type": "address"
        }
      ],
      "stateMutability": "view",
      "type": "function",
      "constant": true
    },
    {
      "inputs": [
        {
          "internalType": "address",
          "name": "owner",
          "type": "address"
        },
        {
          "internalType": "address",
          "name": "operator",
          "type": "address"
        }
      ],
      "name": "isApprovedForAll",
      "outputs": [
        {
          "internalType": "bool",
          "name": "",
          "type": "bool"
        }
      ],
      "stateMutability": "view",
      "type": "function",
      "constant": true
    },
    {
      "inputs": [],
      "name": "name",
      "outputs": [
        {
          "internalType": "string",
          "name": "",
          "type": "string"
        }
      ],
      "stateMutability": "view",
      "type": "function",
      "constant": true
    },
    {
      "inputs": [],
      "name": "owner",
      "outputs": [
        {
          "internalType": "address",
          "name": "",
          "type": "address"
        }
      ],
      "stateMutability": "view",
      "type": "function",
      "constant": true
    },
    {
      "inputs": [
        {
          "internalType": "uint256",
          "name": "tokenId",
          "type": "uint256"
        }
      ],
      "name": "ownerOf",
      "outputs": [
        {
          "internalType": "address",
          "name": "",
          "type": "address"
        }
      ],
      "stateMutability": "view",
      "type": "function",
      "constant": true
    },
    {
      "inputs": [],
      "name": "registration",
      "outputs": [
        {
          "internalType": "contract IRegistration",
          "name": "",
          "type": "address"
        }
      ],
      "stateMutability": "view",
      "type": "function",
      "constant": true
    },
    {
      "inputs": [],
      "name": "renounceOwnership",
      "outputs": [],
      "stateMutability": "nonpayable",
      "type": "function"
    },
    {
      "inputs": [
        {
          "internalType": "address",
          "name": "from",
          "type": "address"
        },
        {
          "internalType": "address",
          "name": "to",
          "type": "address"
        },
        {
          "internalType": "uint256",
          "name": "tokenId",
          "type": "uint256"
        }
      ],
      "name": "safeTransferFrom",
      "outputs": [],
      "stateMutability": "nonpayable",
      "type": "function"
    },
    {
      "inputs": [
        {
          "internalType": "address",
          "name": "from",
          "type": "address"
        },
        {
          "internalType": "address",
          "name": "to",
          "type": "address"
        },
        {
          "internalType": "uint256",
          "name": "tokenId",
          "type": "uint256"
        },
        {
          "internalType": "bytes",
          "name": "_data",
          "type": "bytes"
        }
      ],
      "name": "safeTransferFrom",
      "outputs": [],
      "stateMutability": "nonpayable",
      "type": "function"
    },
    {
      "inputs": [
        {
          "internalType": "address",
          "name": "operator",
          "type": "address"
        },
        {
          "internalType": "bool",
          "name": "approved",
          "type": "bool"
        }
      ],
      "name": "setApprovalForAll",
      "outputs": [],
      "stateMutability": "nonpayable",
      "type": "function"
    },
    {
      "inputs": [
        {
          "internalType": "bytes4",
          "name": "interfaceId",
          "type": "bytes4"
        }
      ],
      "name": "supportsInterface",
      "outputs": [
        {
          "internalType": "bool",
          "name": "",
          "type": "bool"
        }
      ],
      "stateMutability": "view",
      "type": "function",
      "constant": true
    },
    {
      "inputs": [],
      "name": "symbol",
      "outputs": [
        {
          "internalType": "string",
          "name": "",
          "type": "string"
        }
      ],
      "stateMutability": "view",
      "type": "function",
      "constant": true
    },
    {
      "inputs": [
        {
          "internalType": "uint256",
          "name": "index",
          "type": "uint256"
        }
      ],
      "name": "tokenByIndex",
      "outputs": [
        {
          "internalType": "uint256",
          "name": "",
          "type": "uint256"
        }
      ],
      "stateMutability": "view",
      "type": "function",
      "constant": true
    },
    {
      "inputs": [
        {
          "internalType": "address",
          "name": "owner",
          "type": "address"
        },
        {
          "internalType": "uint256",
          "name": "index",
          "type": "uint256"
        }
      ],
      "name": "tokenOfOwnerByIndex",
      "outputs": [
        {
          "internalType": "uint256",
          "name": "",
          "type": "uint256"
        }
      ],
      "stateMutability": "view",
      "type": "function",
      "constant": true
    },
    {
      "inputs": [],
      "name": "totalSupply",
      "outputs": [
        {
          "internalType": "uint256",
          "name": "",
          "type": "uint256"
        }
      ],
      "stateMutability": "view",
      "type": "function",
      "constant": true
    },
    {
      "inputs": [
        {
          "internalType": "address",
          "name": "from",
          "type": "address"
        },
        {
          "internalType": "address",
          "name": "to",
          "type": "address"
        },
        {
          "internalType": "uint256",
          "name": "tokenId",
          "type": "uint256"
        }
      ],
      "name": "transferFrom",
      "outputs": [],
      "stateMutability": "nonpayable",
      "type": "function"
    },
    {
      "inputs": [
        {
          "internalType": "address",
          "name": "newOwner",
          "type": "address"
        }
      ],
      "name": "transferOwnership",
      "outputs": [],
      "stateMutability": "nonpayable",
      "type": "function"
    },
    {
      "inputs": [
        {
          "internalType": "address",
          "name": "_registration",
          "type": "address"
        }
      ],
      "name": "setRegistrationAddress",
      "outputs": [],
      "stateMutability": "nonpayable",
      "type": "function"
    },
    {
      "inputs": [
        {
          "internalType": "uint256",
          "name": "tokenId",
          "type": "uint256"
        }
      ],
      "name": "tokenURI",
      "outputs": [
        {
          "internalType": "string",
          "name": "",
          "type": "string"
        }
      ],
      "stateMutability": "pure",
      "type": "function",
      "constant": true
    },
    {
      "inputs": [
        {
          "internalType": "uint256",
          "name": "tokenId",
          "type": "uint256"
        }
      ],
      "name": "claim",
      "outputs": [],
      "stateMutability": "nonpayable",
      "type": "function"
    }
  ],
  "bytecode": "0x6080604052738ece0f6a5df03a61d8b072cc241595ba44f3fe53600c60006101000a81548173ffffffffffffffffffffffffffffffffffffffff021916908373ffffffffffffffffffffffffffffffffffffffff160217905550600c60009054906101000a900473ffffffffffffffffffffffffffffffffffffffff16600d60006101000a81548173ffffffffffffffffffffffffffffffffffffffff021916908373ffffffffffffffffffffffffffffffffffffffff160217905550348015620000c957600080fd5b506040518060400160405280600b81526020017f506562626c65204c6f6f740000000000000000000000000000000000000000008152506040518060400160405280600581526020017f504c4f4f540000000000000000000000000000000000000000000000000000008152506200014e6301ffc9a760e01b6200028960201b60201c565b8160069080519060200190620001669291906200039a565b5080600790805190602001906200017f9291906200039a565b50620001986380ac58cd60e01b6200028960201b60201c565b620001b0635b5e139f60e01b6200028960201b60201c565b620001c863780e9d6360e01b6200028960201b60201c565b50506001600a819055506000620001e46200039260201b60201c565b905080600b60006101000a81548173ffffffffffffffffffffffffffffffffffffffff021916908373ffffffffffffffffffffffffffffffffffffffff1602179055508073ffffffffffffffffffffffffffffffffffffffff16600073ffffffffffffffffffffffffffffffffffffffff167f8be0079c531659141344cd1fd0a4f28419497f9722a3daafe3b4186f6b6457e060405160405180910390a35062000440565b63ffffffff60e01b817bffffffffffffffffffffffffffffffffffffffffffffffffffffffff1916141562000326576040517f08c379a000000000000000000000000000000000000000000000000000000000815260040180806020018281038252601c8152602001807f4552433136353a20696e76616c696420696e746572666163652069640000000081525060200191505060405180910390fd5b6001600080837bffffffffffffffffffffffffffffffffffffffffffffffffffffffff19167bffffffffffffffffffffffffffffffffffffffffffffffffffffffff1916815260200190815260200160002060006101000a81548160ff02191690831515021790555050565b600033905090565b828054600181600116156101000203166002900490600052602060002090601f016020900481019282601f10620003dd57805160ff19168380011785556200040e565b828001600101855582156200040e579182015b828111156200040d578251825591602001919060010190620003f0565b5b5090506200041d919062000421565b5090565b5b808211156200043c57600081600090555060010162000422565b5090565b61378180620004506000396000f3fe608060405234801561001057600080fd5b506004361061014d5760003560e01c80636352211e116100c357806395d89b411161007c57806395d89b4114610693578063a22cb46514610716578063b88d4fde14610766578063c87b56dd1461086b578063e985e9c514610912578063f2fde38b1461098c5761014d565b80636352211e146104de5780636c0360eb146105365780636f27cf76146105b957806370a08231146105fd578063715018a6146106555780638da5cb5b1461065f5761014d565b806323b872dd1161011557806323b872dd146102fc5780632f745c591461036a578063379607f5146103cc57806342842e0e146103fa578063443bd1d0146104685780634f6ccce71461049c5761014d565b806301ffc9a71461015257806306fdde03146101b5578063081812fc14610238578063095ea7b31461029057806318160ddd146102de575b600080fd5b61019d6004803603602081101561016857600080fd5b8101908080357bffffffffffffffffffffffffffffffffffffffffffffffffffffffff191690602001909291905050506109d0565b60405180821515815260200191505060405180910390f35b6101bd610a37565b6040518080602001828103825283818151815260200191508051906020019080838360005b838110156101fd5780820151818401526020810190506101e2565b50505050905090810190601f16801561022a5780820380516001836020036101000a031916815260200191505b509250505060405180910390f35b6102646004803603602081101561024e57600080fd5b8101908080359060200190929190505050610ad9565b604051808273ffffffffffffffffffffffffffffffffffffffff16815260200191505060405180910390f35b6102dc600480360360408110156102a657600080fd5b81019080803573ffffffffffffffffffffffffffffffffffffffff16906020019092919080359060200190929190505050610b74565b005b6102e6610cb8565b6040518082815260200191505060405180910390f35b6103686004803603606081101561031257600080fd5b81019080803573ffffffffffffffffffffffffffffffffffffffff169060200190929190803573ffffffffffffffffffffffffffffffffffffffff16906020019092919080359060200190929190505050610cc9565b005b6103b66004803603604081101561038057600080fd5b81019080803573ffffffffffffffffffffffffffffffffffffffff16906020019092919080359060200190929190505050610d3f565b6040518082815260200191505060405180910390f35b6103f8600480360360208110156103e257600080fd5b8101908080359060200190929190505050610d9a565b005b6104666004803603606081101561041057600080fd5b81019080803573ffffffffffffffffffffffffffffffffffffffff169060200190929190803573ffffffffffffffffffffffffffffffffffffffff16906020019092919080359060200190929190505050610ec4565b005b610470610ee4565b604051808273ffffffffffffffffffffffffffffffffffffffff16815260200191505060405180910390f35b6104c8600480360360208110156104b257600080fd5b8101908080359060200190929190505050610f0a565b6040518082815260200191505060405180910390f35b61050a600480360360208110156104f457600080fd5b8101908080359060200190929190505050610f2d565b604051808273ffffffffffffffffffffffffffffffffffffffff16815260200191505060405180910390f35b61053e610f64565b6040518080602001828103825283818151815260200191508051906020019080838360005b8381101561057e578082015181840152602081019050610563565b50505050905090810190601f1680156105ab5780820380516001836020036101000a031916815260200191505b509250505060405180910390f35b6105fb600480360360208110156105cf57600080fd5b81019080803573ffffffffffffffffffffffffffffffffffffffff169060200190929190505050611006565b005b61063f6004803603602081101561061357600080fd5b81019080803573ffffffffffffffffffffffffffffffffffffffff1690602001909291905050506110f9565b6040518082815260200191505060405180910390f35b61065d6111ce565b005b61066761133e565b604051808273ffffffffffffffffffffffffffffffffffffffff16815260200191505060405180910390f35b61069b611368565b6040518080602001828103825283818151815260200191508051906020019080838360005b838110156106db5780820151818401526020810190506106c0565b50505050905090810190601f1680156107085780820380516001836020036101000a031916815260200191505b509250505060405180910390f35b6107646004803603604081101561072c57600080fd5b81019080803573ffffffffffffffffffffffffffffffffffffffff16906020019092919080351515906020019092919050505061140a565b005b6108696004803603608081101561077c57600080fd5b81019080803573ffffffffffffffffffffffffffffffffffffffff169060200190929190803573ffffffffffffffffffffffffffffffffffffffff16906020019092919080359060200190929190803590602001906401000000008111156107e357600080fd5b8201836020820111156107f557600080fd5b8035906020019184600183028401116401000000008311171561081757600080fd5b91908080601f016020809104026020016040519081016040528093929190818152602001838380828437600081840152601f19601f8201169050808301925050505050505091929192905050506115c0565b005b6108976004803603602081101561088157600080fd5b8101908080359060200190929190505050611638565b6040518080602001828103825283818151815260200191508051906020019080838360005b838110156108d75780820151818401526020810190506108bc565b50505050905090810190601f1680156109045780820380516001836020036101000a031916815260200191505b509250505060405180910390f35b6109746004803603604081101561092857600080fd5b81019080803573ffffffffffffffffffffffffffffffffffffffff169060200190929190803573ffffffffffffffffffffffffffffffffffffffff169060200190929190505050611bec565b60405180821515815260200191505060405180910390f35b6109ce600480360360208110156109a257600080fd5b81019080803573ffffffffffffffffffffffffffffffffffffffff169060200190929190505050611c80565b005b6000806000837bffffffffffffffffffffffffffffffffffffffffffffffffffffffff19167bffffffffffffffffffffffffffffffffffffffffffffffffffffffff1916815260200190815260200160002060009054906101000a900460ff169050919050565b606060068054600181600116156101000203166002900480601f016020809104026020016040519081016040528092919081815260200182805460018160011615610100020316600290048015610acf5780601f10610aa457610100808354040283529160200191610acf565b820191906000526020600020905b815481529060010190602001808311610ab257829003601f168201915b5050505050905090565b6000610ae482611e75565b610b39576040517f08c379a000000000000000000000000000000000000000000000000000000000815260040180806020018281038252602c8152602001806136a5602c913960400191505060405180910390fd5b6004600083815260200190815260200160002060009054906101000a900473ffffffffffffffffffffffffffffffffffffffff169050919050565b6000610b7f82610f2d565b90508073ffffffffffffffffffffffffffffffffffffffff168373ffffffffffffffffffffffffffffffffffffffff161415610c06576040517f08c379a00000000000000000000000000000000000000000000000000000000081526004018080602001828103825260218152602001806136fa6021913960400191505060405180910390fd5b8073ffffffffffffffffffffffffffffffffffffffff16610c25611e92565b73ffffffffffffffffffffffffffffffffffffffff161480610c545750610c5381610c4e611e92565b611bec565b5b610ca9576040517f08c379a00000000000000000000000000000000000000000000000000000000081526004018080602001828103825260388152602001806134bb6038913960400191505060405180910390fd5b610cb38383611e9a565b505050565b6000610cc46002611f53565b905090565b610cda610cd4611e92565b82611f68565b610d2f576040517f08c379a000000000000000000000000000000000000000000000000000000000815260040180806020018281038252603181526020018061371b6031913960400191505060405180910390fd5b610d3a83838361205c565b505050565b6000610d9282600160008673ffffffffffffffffffffffffffffffffffffffff1673ffffffffffffffffffffffffffffffffffffffff16815260200190815260200160002061229f90919063ffffffff16565b905092915050565b6002600a541415610e13576040517f08c379a000000000000000000000000000000000000000000000000000000000815260040180806020018281038252601f8152602001807f5265656e7472616e637947756172643a207265656e7472616e742063616c6c0081525060200191505060405180910390fd5b6002600a81905550655af3107a3fff81118015610e36575066038d7ea4c6800081105b610ea8576040517f08c379a00000000000000000000000000000000000000000000000000000000081526004018080602001828103825260108152602001807f546f6b656e20494420696e76616c69640000000000000000000000000000000081525060200191505060405180910390fd5b610eb9610eb3611e92565b826122b9565b6001600a8190555050565b610edf838383604051806020016040528060008152506115c0565b505050565b600d60009054906101000a900473ffffffffffffffffffffffffffffffffffffffff1681565b600080610f218360026122d790919063ffffffff16565b50905080915050919050565b6000610f5d8260405180606001604052806029815260200161361a6029913960026123039092919063ffffffff16565b9050919050565b606060098054600181600116156101000203166002900480601f016020809104026020016040519081016040528092919081815260200182805460018160011615610100020316600290048015610ffc5780601f10610fd157610100808354040283529160200191610ffc565b820191906000526020600020905b815481529060010190602001808311610fdf57829003601f168201915b5050505050905090565b61100e611e92565b73ffffffffffffffffffffffffffffffffffffffff1661102c61133e565b73ffffffffffffffffffffffffffffffffffffffff16146110b5576040517f08c379a00000000000000000000000000000000000000000000000000000000081526004018080602001828103825260208152602001807f4f776e61626c653a2063616c6c6572206973206e6f7420746865206f776e657281525060200191505060405180910390fd5b80600d60006101000a81548173ffffffffffffffffffffffffffffffffffffffff021916908373ffffffffffffffffffffffffffffffffffffffff16021790555050565b60008073ffffffffffffffffffffffffffffffffffffffff168273ffffffffffffffffffffffffffffffffffffffff161415611180576040517f08c379a000000000000000000000000000000000000000000000000000000000815260040180806020018281038252602a8152602001806135f0602a913960400191505060405180910390fd5b6111c7600160008473ffffffffffffffffffffffffffffffffffffffff1673ffffffffffffffffffffffffffffffffffffffff168152602001908152602001600020612322565b9050919050565b6111d6611e92565b73ffffffffffffffffffffffffffffffffffffffff166111f461133e565b73ffffffffffffffffffffffffffffffffffffffff161461127d576040517f08c379a00000000000000000000000000000000000000000000000000000000081526004018080602001828103825260208152602001807f4f776e61626c653a2063616c6c6572206973206e6f7420746865206f776e657281525060200191505060405180910390fd5b600073ffffffffffffffffffffffffffffffffffffffff16600b60009054906101000a900473ffffffffffffffffffffffffffffffffffffffff1673ffffffffffffffffffffffffffffffffffffffff167f8be0079c531659141344cd1fd0a4f28419497f9722a3daafe3b4186f6b6457e060405160405180910390a36000600b60006101000a81548173ffffffffffffffffffffffffffffffffffffffff021916908373ffffffffffffffffffffffffffffffffffffffff160217905550565b6000600b60009054906101000a900473ffffffffffffffffffffffffffffffffffffffff16905090565b606060078054600181600116156101000203166002900480601f0160208091040260200160405190810160405280929190818152602001828054600181600116156101000203166002900480156114005780601f106113d557610100808354040283529160200191611400565b820191906000526020600020905b8154815290600101906020018083116113e357829003601f168201915b5050505050905090565b611412611e92565b73ffffffffffffffffffffffffffffffffffffffff168273ffffffffffffffffffffffffffffffffffffffff1614156114b3576040517f08c379a00000000000000000000000000000000000000000000000000000000081526004018080602001828103825260198152602001807f4552433732313a20617070726f766520746f2063616c6c65720000000000000081525060200191505060405180910390fd5b80600560006114c0611e92565b73ffffffffffffffffffffffffffffffffffffffff1673ffffffffffffffffffffffffffffffffffffffff16815260200190815260200160002060008473ffffffffffffffffffffffffffffffffffffffff1673ffffffffffffffffffffffffffffffffffffffff16815260200190815260200160002060006101000a81548160ff0219169083151502179055508173ffffffffffffffffffffffffffffffffffffffff1661156d611e92565b73ffffffffffffffffffffffffffffffffffffffff167f17307eab39ab6107e8899845ad3d59bd9653f200f220920489ca2b5937696c318360405180821515815260200191505060405180910390a35050565b6115d16115cb611e92565b83611f68565b611626576040517f08c379a000000000000000000000000000000000000000000000000000000000815260040180806020018281038252603181526020018061371b6031913960400191505060405180910390fd5b61163284848484612337565b50505050565b60606116426132b0565b60405180610120016040528060fd81526020016134f360fd91398160006003811061166957fe5b602002018190525061167a836123a9565b60405160200180807f506562626c6520696d65693a2000000000000000000000000000000000000000815250600d0182805190602001908083835b602083106116d857805182526020820191506020810190506020830392506116b5565b6001836020036101000a0380198251168184511680821785525050505050509050019150506040516020818303038152906040528160016003811061171957fe5b60200201819052506040518060400160405280600d81526020017f3c2f746578743e3c2f7376673e000000000000000000000000000000000000008152508160026003811061176457fe5b602002018190525060608160006003811061177b57fe5b60200201518260016003811061178d57fe5b60200201518360026003811061179f57fe5b60200201516040516020018084805190602001908083835b602083106117da57805182526020820191506020810190506020830392506117b7565b6001836020036101000a03801982511681845116808217855250505050505090500183805190602001908083835b6020831061182b5780518252602082019150602081019050602083039250611808565b6001836020036101000a03801982511681845116808217855250505050505090500182805190602001908083835b6020831061187c5780518252602082019150602081019050602083039250611859565b6001836020036101000a0380198251168184511680821785525050505050509050019350505050604051602081830303815290604052905060606118bf856123a9565b60405160200180807f226e616d65223a2022506562626c65202300000000000000000000000000000081525060110182805190602001908083835b6020831061191d57805182526020820191506020810190506020830392506118fa565b6001836020036101000a038019825116818451168082178552505050505050905001807f220000000000000000000000000000000000000000000000000000000000000081525060010191505060405160208183030381529060405290506060604051602001808061337760ce913960ce01905060405160208183030381529060405290506060611b4883836119b2876124e3565b60405160200180807f7b0000000000000000000000000000000000000000000000000000000000000081525060010184805190602001908083835b60208310611a1057805182526020820191506020810190506020830392506119ed565b6001836020036101000a038019825116818451168082178552505050505050905001807f2c0000000000000000000000000000000000000000000000000000000000000081525060010183805190602001908083835b60208310611a895780518252602082019150602081019050602083039250611a66565b6001836020036101000a038019825116818451168082178552505050505050905001806133526025913960250182805190602001908083835b60208310611ae55780518252602082019150602081019050602083039250611ac2565b6001836020036101000a038019825116818451168082178552505050505050905001807f227d00000000000000000000000000000000000000000000000000000000000081525060020193505050506040516020818303038152906040526124e3565b90508060405160200180807f646174613a6170706c69636174696f6e2f6a736f6e3b6261736536342c000000815250601d0182805190602001908083835b60208310611ba95780518252602082019150602081019050602083039250611b86565b6001836020036101000a03801982511681845116808217855250505050505090500191505060405160208183030381529060405293508395505050505050919050565b6000600560008473ffffffffffffffffffffffffffffffffffffffff1673ffffffffffffffffffffffffffffffffffffffff16815260200190815260200160002060008373ffffffffffffffffffffffffffffffffffffffff1673ffffffffffffffffffffffffffffffffffffffff16815260200190815260200160002060009054906101000a900460ff16905092915050565b611c88611e92565b73ffffffffffffffffffffffffffffffffffffffff16611ca661133e565b73ffffffffffffffffffffffffffffffffffffffff1614611d2f576040517f08c379a00000000000000000000000000000000000000000000000000000000081526004018080602001828103825260208152602001807f4f776e61626c653a2063616c6c6572206973206e6f7420746865206f776e657281525060200191505060405180910390fd5b600073ffffffffffffffffffffffffffffffffffffffff168173ffffffffffffffffffffffffffffffffffffffff161415611db5576040517f08c379a000000000000000000000000000000000000000000000000000000000815260040180806020018281038252602681526020018061332c6026913960400191505060405180910390fd5b8073ffffffffffffffffffffffffffffffffffffffff16600b60009054906101000a900473ffffffffffffffffffffffffffffffffffffffff1673ffffffffffffffffffffffffffffffffffffffff167f8be0079c531659141344cd1fd0a4f28419497f9722a3daafe3b4186f6b6457e060405160405180910390a380600b60006101000a81548173ffffffffffffffffffffffffffffffffffffffff021916908373ffffffffffffffffffffffffffffffffffffffff16021790555050565b6000611e8b82600261265c90919063ffffffff16565b9050919050565b600033905090565b816004600083815260200190815260200160002060006101000a81548173ffffffffffffffffffffffffffffffffffffffff021916908373ffffffffffffffffffffffffffffffffffffffff160217905550808273ffffffffffffffffffffffffffffffffffffffff16611f0d83610f2d565b73ffffffffffffffffffffffffffffffffffffffff167f8c5be1e5ebec7d5bd14f71427d1e84f3dd0314c0f7b2291e5b200ac8c7c3b92560405160405180910390a45050565b6000611f6182600001612676565b9050919050565b6000611f7382611e75565b611fc8576040517f08c379a000000000000000000000000000000000000000000000000000000000815260040180806020018281038252602c81526020018061348f602c913960400191505060405180910390fd5b6000611fd383610f2d565b90508073ffffffffffffffffffffffffffffffffffffffff168473ffffffffffffffffffffffffffffffffffffffff16148061204257508373ffffffffffffffffffffffffffffffffffffffff1661202a84610ad9565b73ffffffffffffffffffffffffffffffffffffffff16145b8061205357506120528185611bec565b5b91505092915050565b8273ffffffffffffffffffffffffffffffffffffffff1661207c82610f2d565b73ffffffffffffffffffffffffffffffffffffffff16146120e8576040517f08c379a00000000000000000000000000000000000000000000000000000000081526004018080602001828103825260298152602001806136d16029913960400191505060405180910390fd5b600073ffffffffffffffffffffffffffffffffffffffff168273ffffffffffffffffffffffffffffffffffffffff16141561216e576040517f08c379a00000000000000000000000000000000000000000000000000000000081526004018080602001828103825260248152602001806134456024913960400191505060405180910390fd5b612179838383612687565b612184600082611e9a565b6121d581600160008673ffffffffffffffffffffffffffffffffffffffff1673ffffffffffffffffffffffffffffffffffffffff16815260200190815260200160002061268c90919063ffffffff16565b5061222781600160008573ffffffffffffffffffffffffffffffffffffffff1673ffffffffffffffffffffffffffffffffffffffff1681526020019081526020016000206126a690919063ffffffff16565b5061223e818360026126c09092919063ffffffff16565b50808273ffffffffffffffffffffffffffffffffffffffff168473ffffffffffffffffffffffffffffffffffffffff167fddf252ad1be2c89b69c2b068fc378daa952ba7f163c4a11628f55a4df523b3ef60405160405180910390a4505050565b60006122ae83600001836126f5565b60001c905092915050565b6122d3828260405180602001604052806000815250612778565b5050565b6000806000806122ea86600001866127e9565b915091508160001c8160001c9350935050509250929050565b6000612316846000018460001b84612882565b60001c90509392505050565b600061233082600001612978565b9050919050565b61234284848461205c565b61234e84848484612989565b6123a3576040517f08c379a00000000000000000000000000000000000000000000000000000000081526004018080602001828103825260328152602001806132fa6032913960400191505060405180910390fd5b50505050565b606060008214156123f1576040518060400160405280600181526020017f300000000000000000000000000000000000000000000000000000000000000081525090506124de565b600082905060005b6000821461241b578080600101915050600a828161241357fe5b0491506123f9565b60608167ffffffffffffffff8111801561243457600080fd5b506040519080825280601f01601f1916602001820160405280156124675781602001600182028036833780820191505090505b5090505b600085146124d757600182039150600a858161248357fe5b0660300160f81b81838151811061249657fe5b60200101907effffffffffffffffffffffffffffffffffffffffffffffffffffffffffffff1916908160001a905350600a85816124cf57fe5b04945061246b565b8093505050505b919050565b6060600082519050600081141561250c5760405180602001604052806000815250915050612657565b60006003600283018161251b57fe5b04600402905060606020820167ffffffffffffffff8111801561253d57600080fd5b506040519080825280601f01601f1916602001820160405280156125705781602001600182028036833780820191505090505b5090506060604051806060016040528060408152602001613643604091399050600181016020830160005b868110156126145760038101905062ffffff818a015116603f8160121c168401518060081b905060ff603f83600c1c1686015116810190508060081b905060ff603f8360061c1686015116810190508060081b905060ff603f831686015116810190508060e01b9050808452600484019350505061259b565b50600386066001811461262e576002811461263e57612649565b613d3d60f01b6002830352612649565b603d60f81b60018303525b508484525050819450505050505b919050565b600061266e836000018360001b612ba2565b905092915050565b600081600001805490509050919050565b505050565b600061269e836000018360001b612bc5565b905092915050565b60006126b8836000018360001b612cad565b905092915050565b60006126ec846000018460001b8473ffffffffffffffffffffffffffffffffffffffff1660001b612d1d565b90509392505050565b600081836000018054905011612756576040517f08c379a00000000000000000000000000000000000000000000000000000000081526004018080602001828103825260228152602001806132d86022913960400191505060405180910390fd5b82600001828154811061276557fe5b9060005260206000200154905092915050565b6127828383612df9565b61278f6000848484612989565b6127e4576040517f08c379a00000000000000000000000000000000000000000000000000000000081526004018080602001828103825260328152602001806132fa6032913960400191505060405180910390fd5b505050565b6000808284600001805490501161284b576040517f08c379a00000000000000000000000000000000000000000000000000000000081526004018080602001828103825260228152602001806136836022913960400191505060405180910390fd5b600084600001848154811061285c57fe5b906000526020600020906002020190508060000154816001015492509250509250929050565b60008084600101600085815260200190815260200160002054905060008114158390612949576040517f08c379a00000000000000000000000000000000000000000000000000000000081526004018080602001828103825283818151815260200191508051906020019080838360005b8381101561290e5780820151818401526020810190506128f3565b50505050905090810190601f16801561293b5780820380516001836020036101000a031916815260200191505b509250505060405180910390fd5b5084600001600182038154811061295c57fe5b9060005260206000209060020201600101549150509392505050565b600081600001805490509050919050565b60006129aa8473ffffffffffffffffffffffffffffffffffffffff16612fed565b6129b75760019050612b9a565b6060612b2163150b7a0260e01b6129cc611e92565b888787604051602401808573ffffffffffffffffffffffffffffffffffffffff1681526020018473ffffffffffffffffffffffffffffffffffffffff16815260200183815260200180602001828103825283818151815260200191508051906020019080838360005b83811015612a50578082015181840152602081019050612a35565b50505050905090810190601f168015612a7d5780820380516001836020036101000a031916815260200191505b5095505050505050604051602081830303815290604052907bffffffffffffffffffffffffffffffffffffffffffffffffffffffff19166020820180517bffffffffffffffffffffffffffffffffffffffffffffffffffffffff83818316178352505050506040518060600160405280603281526020016132fa603291398773ffffffffffffffffffffffffffffffffffffffff166130009092919063ffffffff16565b90506000818060200190516020811015612b3a57600080fd5b8101908080519060200190929190505050905063150b7a0260e01b7bffffffffffffffffffffffffffffffffffffffffffffffffffffffff1916817bffffffffffffffffffffffffffffffffffffffffffffffffffffffff191614925050505b949350505050565b600080836001016000848152602001908152602001600020541415905092915050565b60008083600101600084815260200190815260200160002054905060008114612ca15760006001820390506000600186600001805490500390506000866000018281548110612c1057fe5b9060005260206000200154905080876000018481548110612c2d57fe5b9060005260206000200181905550600183018760010160008381526020019081526020016000208190555086600001805480612c6557fe5b60019003818190600052602060002001600090559055866001016000878152602001908152602001600020600090556001945050505050612ca7565b60009150505b92915050565b6000612cb98383613018565b612d12578260000182908060018154018082558091505060019003906000526020600020016000909190919091505582600001805490508360010160008481526020019081526020016000208190555060019050612d17565b600090505b92915050565b6000808460010160008581526020019081526020016000205490506000811415612dc457846000016040518060400160405280868152602001858152509080600181540180825580915050600190039060005260206000209060020201600090919091909150600082015181600001556020820151816001015550508460000180549050856001016000868152602001908152602001600020819055506001915050612df2565b82856000016001830381548110612dd757fe5b90600052602060002090600202016001018190555060009150505b9392505050565b600073ffffffffffffffffffffffffffffffffffffffff168273ffffffffffffffffffffffffffffffffffffffff161415612e9c576040517f08c379a00000000000000000000000000000000000000000000000000000000081526004018080602001828103825260208152602001807f4552433732313a206d696e7420746f20746865207a65726f206164647265737381525060200191505060405180910390fd5b612ea581611e75565b15612f18576040517f08c379a000000000000000000000000000000000000000000000000000000000815260040180806020018281038252601c8152602001807f4552433732313a20746f6b656e20616c7265616479206d696e7465640000000081525060200191505060405180910390fd5b612f2460008383612687565b612f7581600160008573ffffffffffffffffffffffffffffffffffffffff1673ffffffffffffffffffffffffffffffffffffffff1681526020019081526020016000206126a690919063ffffffff16565b50612f8c818360026126c09092919063ffffffff16565b50808273ffffffffffffffffffffffffffffffffffffffff16600073ffffffffffffffffffffffffffffffffffffffff167fddf252ad1be2c89b69c2b068fc378daa952ba7f163c4a11628f55a4df523b3ef60405160405180910390a45050565b600080823b905060008111915050919050565b606061300f848460008561303b565b90509392505050565b600080836001016000848152602001908152602001600020541415905092915050565b606082471015613096576040517f08c379a00000000000000000000000000000000000000000000000000000000081526004018080602001828103825260268152602001806134696026913960400191505060405180910390fd5b61309f85612fed565b613111576040517f08c379a000000000000000000000000000000000000000000000000000000000815260040180806020018281038252601d8152602001807f416464726573733a2063616c6c20746f206e6f6e2d636f6e747261637400000081525060200191505060405180910390fd5b600060608673ffffffffffffffffffffffffffffffffffffffff1685876040518082805190602001908083835b60208310613161578051825260208201915060208101905060208303925061313e565b6001836020036101000a03801982511681845116808217855250505050505090500191505060006040518083038185875af1925050503d80600081146131c3576040519150601f19603f3d011682016040523d82523d6000602084013e6131c8565b606091505b50915091506131d88282866131e4565b92505050949350505050565b606083156131f4578290506132a9565b6000835111156132075782518084602001fd5b816040517f08c379a00000000000000000000000000000000000000000000000000000000081526004018080602001828103825283818151815260200191508051906020019080838360005b8381101561326e578082015181840152602081019050613253565b50505050905090810190601f16801561329b5780820380516001836020036101000a031916815260200191505b509250505060405180910390fd5b9392505050565b60405180606001604052806003905b60608152602001906001900390816132bf579050509056fe456e756d657261626c655365743a20696e646578206f7574206f6620626f756e64734552433732313a207472616e7366657220746f206e6f6e20455243373231526563656976657220696d706c656d656e7465724f776e61626c653a206e6577206f776e657220697320746865207a65726f20616464726573732c22696d616765223a2022646174613a696d6167652f7376672b786d6c3b6261736536342c226465736372697074696f6e223a2022506562626c65204c6f6f742069732061207265616c20776f726c6420646174612073746f726564206f6e20636861696e2e2053746174732c20696d616765732c20616e64206f746865722066756e6374696f6e616c6974792061726520696e74656e74696f6e616c6c79206f6d697474656420666f72206f746865727320746f20696e746572707265742e204665656c206672656520746f2075736520506562626c65204c6f6f7420696e20616e792077617920796f752077616e742e224552433732313a207472616e7366657220746f20746865207a65726f2061646472657373416464726573733a20696e73756666696369656e742062616c616e636520666f722063616c6c4552433732313a206f70657261746f7220717565727920666f72206e6f6e6578697374656e7420746f6b656e4552433732313a20617070726f76652063616c6c6572206973206e6f74206f776e6572206e6f7220617070726f76656420666f7220616c6c3c73766720786d6c6e733d22687474703a2f2f7777772e77332e6f72672f323030302f73766722207072657365727665417370656374526174696f3d22784d696e594d696e206d656574222076696577426f783d223020302033353020333530223e3c7374796c653e2e62617365207b2066696c6c3a2077686974653b20666f6e742d66616d696c793a2073657269663b20666f6e742d73697a653a20313470783b207d3c2f7374796c653e3c726563742077696474683d223130302522206865696768743d2231303025222066696c6c3d22626c61636b22202f3e3c7465787420783d2231302220793d2232302220636c6173733d2262617365223e4552433732313a2062616c616e636520717565727920666f7220746865207a65726f20616464726573734552433732313a206f776e657220717565727920666f72206e6f6e6578697374656e7420746f6b656e4142434445464748494a4b4c4d4e4f505152535455565758595a6162636465666768696a6b6c6d6e6f707172737475767778797a303132333435363738392b2f456e756d657261626c654d61703a20696e646578206f7574206f6620626f756e64734552433732313a20617070726f76656420717565727920666f72206e6f6e6578697374656e7420746f6b656e4552433732313a207472616e73666572206f6620746f6b656e2074686174206973206e6f74206f776e4552433732313a20617070726f76616c20746f2063757272656e74206f776e65724552433732313a207472616e736665722063616c6c6572206973206e6f74206f776e6572206e6f7220617070726f766564a264697066735822122095b6d4f3cba5f8cbc252e5586211c1d0c8d1efd78b2b4c2b2e1aaebce76fc0a164736f6c63430007030033",
  "immutableReferences": {},
  "source": "// SPDX-License-Identifier: MIT\npragma solidity 0.7.3;\n\nimport \"@openzeppelin/contracts/access/Ownable.sol\";\nimport \"@openzeppelin/contracts/utils/ReentrancyGuard.sol\";\nimport \"@openzeppelin/contracts/token/ERC721/ERC721.sol\";\nimport \"./TrueStream/interfaces/IRegistration.sol\";\nimport \"./Base64.sol\";\n\ncontract PebbleLoot is ERC721, ReentrancyGuard, Ownable {\n\n  address regAddress = 0x8EcE0F6a5DF03A61D8b072Cc241595Ba44f3FE53;\n\n  IRegistration public registration = IRegistration(regAddress);\n\n  function setRegistrationAddress(address _registration) public onlyOwner {\n    registration = IRegistration(_registration);\n  }\n\n  function tokenURI(uint256 tokenId) public override pure returns (string memory) {\n    string[3] memory parts;\n\n    parts[0] = '<svg xmlns=\"http://www.w3.org/2000/svg\" preserveAspectRatio=\"xMinYMin meet\" viewBox=\"0 0 350 350\"><style>.base { fill: white; font-family: serif; font-size: 14px; }</style><rect width=\"100%\" height=\"100%\" fill=\"black\" /><text x=\"10\" y=\"20\" class=\"base\">';\n\n    parts[1] = string(abi.encodePacked(\"Pebble imei: \", toString(tokenId)));\n\n    parts[2] = '</text></svg>';\n\n    string memory output = string(abi.encodePacked(parts[0], parts[1], parts[2]));\n\n    string memory name = string(abi.encodePacked('\"name\": \"Pebble #', toString(tokenId), '\"'));\n    string memory description = string(abi.encodePacked('\"description\": \"Pebble Loot is a real world data stored on chain. Stats, images, and other functionality are intentionally omitted for others to interpret. Feel free to use Pebble Loot in any way you want.\"'));\n\n    string memory json = Base64.encode(bytes(string(abi.encodePacked('{', name, ',', description, ',\"image\": \"data:image/svg+xml;base64,', Base64.encode(bytes(output)), '\"}'))));\n    output = string(abi.encodePacked('data:application/json;base64,', json));\n\n    return output;\n  }\n\n  function claim(uint256 tokenId) public nonReentrant {\n    require(tokenId > (10 ** 14 - 1) && tokenId < 10 ** 15, \"Token ID invalid\");\n//    NOTE: disable ownership check during tests\n//    address deviceOwner;\n//    (,deviceOwner) = registration.find(toString(tokenId));\n//    require(_msgSender() == deviceOwner, \"You should own the device to mint this loot\");\n    _safeMint(_msgSender(), tokenId);\n  }\n\n  function toString(uint256 value) internal pure returns (string memory) {\n    // Inspired by OraclizeAPI's implementation - MIT license\n    // https://github.com/oraclize/ethereum-api/blob/b42146b063c7d6ee1358846c198246239e9360e8/oraclizeAPI_0.4.25.sol\n\n    if (value == 0) {\n      return \"0\";\n    }\n    uint256 temp = value;\n    uint256 digits;\n    while (temp != 0) {\n      digits++;\n      temp /= 10;\n    }\n    bytes memory buffer = new bytes(digits);\n    while (value != 0) {\n      digits -= 1;\n      buffer[digits] = bytes1(uint8(48 + uint256(value % 10)));\n      value /= 10;\n    }\n    return string(buffer);\n  }\n\n  constructor() ERC721(\"Pebble Loot\", \"PLOOT\") Ownable() {}\n}\n",
  "sourcePath": "/Users/nikitushka/ZhouDev/gitcoin/iotex/pebble-loots/contracts/PebbleLoot.sol",
  "compiler": {
    "name": "solc",
    "version": "0.7.3+commit.9bfce1f6.Emscripten.clang"
  },
  "schemaVersion": "3.4.3",
  "updatedAt": "2021-09-30T07:26:51.936Z",
  "networkType": "ethereum",
  "devdoc": {
    "kind": "dev",
    "methods": {
      "approve(address,uint256)": {
        "details": "See {IERC721-approve}."
      },
      "balanceOf(address)": {
        "details": "See {IERC721-balanceOf}."
      },
      "baseURI()": {
        "details": "Returns the base URI set via {_setBaseURI}. This will be automatically added as a prefix in {tokenURI} to each token's URI, or to the token ID if no specific URI is set for that token ID."
      },
      "getApproved(uint256)": {
        "details": "See {IERC721-getApproved}."
      },
      "isApprovedForAll(address,address)": {
        "details": "See {IERC721-isApprovedForAll}."
      },
      "name()": {
        "details": "See {IERC721Metadata-name}."
      },
      "owner()": {
        "details": "Returns the address of the current owner."
      },
      "ownerOf(uint256)": {
        "details": "See {IERC721-ownerOf}."
      },
      "renounceOwnership()": {
        "details": "Leaves the contract without owner. It will not be possible to call `onlyOwner` functions anymore. Can only be called by the current owner. NOTE: Renouncing ownership will leave the contract without an owner, thereby removing any functionality that is only available to the owner."
      },
      "safeTransferFrom(address,address,uint256)": {
        "details": "See {IERC721-safeTransferFrom}."
      },
      "safeTransferFrom(address,address,uint256,bytes)": {
        "details": "See {IERC721-safeTransferFrom}."
      },
      "setApprovalForAll(address,bool)": {
        "details": "See {IERC721-setApprovalForAll}."
      },
      "supportsInterface(bytes4)": {
        "details": "See {IERC165-supportsInterface}. Time complexity O(1), guaranteed to always use less than 30 000 gas."
      },
      "symbol()": {
        "details": "See {IERC721Metadata-symbol}."
      },
      "tokenByIndex(uint256)": {
        "details": "See {IERC721Enumerable-tokenByIndex}."
      },
      "tokenOfOwnerByIndex(address,uint256)": {
        "details": "See {IERC721Enumerable-tokenOfOwnerByIndex}."
      },
      "tokenURI(uint256)": {
        "details": "See {IERC721Metadata-tokenURI}."
      },
      "totalSupply()": {
        "details": "See {IERC721Enumerable-totalSupply}."
      },
      "transferFrom(address,address,uint256)": {
        "details": "See {IERC721-transferFrom}."
      },
      "transferOwnership(address)": {
        "details": "Transfers ownership of the contract to a new account (`newOwner`). Can only be called by the current owner."
      }
    },
    "version": 1
  },
  "userdoc": {
    "kind": "user",
    "methods": {},
    "version": 1
  }
}