{
  "contractName": "TrustedVbat",
  "abi": [
    {
      "inputs": [
        {
          "internalType": "string",
          "name": "name",
          "type": "string"
        },
        {
          "internalType": "string",
          "name": "symbol",
          "type": "string"
        }
      ],
      "payable": false,
      "stateMutability": "nonpayable",
      "type": "constructor"
    },
    {
      "anonymous": false,
      "inputs": [
        {
          "indexed": true,
          "internalType": "address",
          "name": "owner",
          "type": "address"
        },
        {
          "indexed": true,
          "internalType": "address",
          "name": "approved",
          "type": "address"
        },
        {
          "indexed": true,
          "internalType": "uint256",
          "name": "tokenId",
          "type": "uint256"
        }
      ],
      "name": "Approval",
      "type": "event"
    },
    {
      "anonymous": false,
      "inputs": [
        {
          "indexed": true,
          "internalType": "address",
          "name": "owner",
          "type": "address"
        },
        {
          "indexed": true,
          "internalType": "address",
          "name": "operator",
          "type": "address"
        },
        {
          "indexed": false,
          "internalType": "bool",
          "name": "approved",
          "type": "bool"
        }
      ],
      "name": "ApprovalForAll",
      "type": "event"
    },
    {
      "anonymous": false,
      "inputs": [
        {
          "indexed": true,
          "internalType": "address",
          "name": "previousOwner",
          "type": "address"
        },
        {
          "indexed": true,
          "internalType": "address",
          "name": "newOwner",
          "type": "address"
        }
      ],
      "name": "OwnershipTransferred",
      "type": "event"
    },
    {
      "anonymous": false,
      "inputs": [
        {
          "indexed": true,
          "internalType": "address",
          "name": "from",
          "type": "address"
        },
        {
          "indexed": true,
          "internalType": "address",
          "name": "to",
          "type": "address"
        },
        {
          "indexed": true,
          "internalType": "uint256",
          "name": "tokenId",
          "type": "uint256"
        }
      ],
      "name": "Transfer",
      "type": "event"
    },
    {
      "constant": false,
      "inputs": [
        {
          "internalType": "address",
          "name": "to",
          "type": "address"
        },
        {
          "internalType": "uint256",
          "name": "tokenId",
          "type": "uint256"
        }
      ],
      "name": "approve",
      "outputs": [],
      "payable": false,
      "stateMutability": "nonpayable",
      "type": "function"
    },
    {
      "constant": true,
      "inputs": [
        {
          "internalType": "address",
          "name": "owner",
          "type": "address"
        }
      ],
      "name": "balanceOf",
      "outputs": [
        {
          "internalType": "uint256",
          "name": "",
          "type": "uint256"
        }
      ],
      "payable": false,
      "stateMutability": "view",
      "type": "function"
    },
    {
      "constant": true,
      "inputs": [],
      "name": "baseURI",
      "outputs": [
        {
          "internalType": "string",
          "name": "",
          "type": "string"
        }
      ],
      "payable": false,
      "stateMutability": "view",
      "type": "function"
    },
    {
      "constant": false,
      "inputs": [],
      "name": "claim",
      "outputs": [],
      "payable": false,
      "stateMutability": "nonpayable",
      "type": "function"
    },
    {
      "constant": true,
      "inputs": [
        {
          "internalType": "uint256",
          "name": "tokenId",
          "type": "uint256"
        }
      ],
      "name": "getApproved",
      "outputs": [
        {
          "internalType": "address",
          "name": "",
          "type": "address"
        }
      ],
      "payable": false,
      "stateMutability": "view",
      "type": "function"
    },
    {
      "constant": true,
      "inputs": [
        {
          "internalType": "uint256",
          "name": "tokenId",
          "type": "uint256"
        }
      ],
      "name": "getClimate",
      "outputs": [
        {
          "internalType": "uint256",
          "name": "pressure",
          "type": "uint256"
        },
        {
          "internalType": "uint256",
          "name": "humidity",
          "type": "uint256"
        },
        {
          "internalType": "uint256",
          "name": "temperature2",
          "type": "uint256"
        },
        {
          "internalType": "uint256",
          "name": "temperature",
          "type": "uint256"
        },
        {
          "internalType": "uint256",
          "name": "gasResistance",
          "type": "uint256"
        }
      ],
      "payable": false,
      "stateMutability": "view",
      "type": "function"
    },
    {
      "constant": true,
      "inputs": [
        {
          "internalType": "uint256",
          "name": "tokenId",
          "type": "uint256"
        }
      ],
      "name": "getDataHash",
      "outputs": [
        {
          "internalType": "string",
          "name": "",
          "type": "string"
        }
      ],
      "payable": false,
      "stateMutability": "view",
      "type": "function"
    },
    {
      "constant": true,
      "inputs": [
        {
          "internalType": "uint256",
          "name": "tokenId",
          "type": "uint256"
        }
      ],
      "name": "getLight",
      "outputs": [
        {
          "internalType": "uint256",
          "name": "light",
          "type": "uint256"
        }
      ],
      "payable": false,
      "stateMutability": "view",
      "type": "function"
    },
    {
      "constant": true,
      "inputs": [
        {
          "internalType": "uint256",
          "name": "tokenId",
          "type": "uint256"
        }
      ],
      "name": "getLocation",
      "outputs": [
        {
          "internalType": "uint256",
          "name": "latitude",
          "type": "uint256"
        },
        {
          "internalType": "uint256",
          "name": "longitude",
          "type": "uint256"
        }
      ],
      "payable": false,
      "stateMutability": "view",
      "type": "function"
    },
    {
      "constant": true,
      "inputs": [
        {
          "internalType": "uint256",
          "name": "tokenId",
          "type": "uint256"
        }
      ],
      "name": "getMotion",
      "outputs": [
        {
          "internalType": "int256[3]",
          "name": "gyroscope",
          "type": "int256[3]"
        },
        {
          "internalType": "uint256[3]",
          "name": "accelerometer",
          "type": "uint256[3]"
        }
      ],
      "payable": false,
      "stateMutability": "view",
      "type": "function"
    },
    {
      "constant": true,
      "inputs": [
        {
          "internalType": "uint256",
          "name": "tokenId",
          "type": "uint256"
        }
      ],
      "name": "getRandom",
      "outputs": [
        {
          "internalType": "string",
          "name": "random",
          "type": "string"
        }
      ],
      "payable": false,
      "stateMutability": "view",
      "type": "function"
    },
    {
      "constant": true,
      "inputs": [
        {
          "internalType": "uint256",
          "name": "tokenId",
          "type": "uint256"
        }
      ],
      "name": "getSnr",
      "outputs": [
        {
          "internalType": "uint256",
          "name": "snr",
          "type": "uint256"
        }
      ],
      "payable": false,
      "stateMutability": "view",
      "type": "function"
    },
    {
      "constant": true,
      "inputs": [
        {
          "internalType": "address",
          "name": "owner",
          "type": "address"
        },
        {
          "internalType": "address",
          "name": "operator",
          "type": "address"
        }
      ],
      "name": "isApprovedForAll",
      "outputs": [
        {
          "internalType": "bool",
          "name": "",
          "type": "bool"
        }
      ],
      "payable": false,
      "stateMutability": "view",
      "type": "function"
    },
    {
      "constant": true,
      "inputs": [],
      "name": "isOwner",
      "outputs": [
        {
          "internalType": "bool",
          "name": "",
          "type": "bool"
        }
      ],
      "payable": false,
      "stateMutability": "view",
      "type": "function"
    },
    {
      "constant": true,
      "inputs": [],
      "name": "name",
      "outputs": [
        {
          "internalType": "string",
          "name": "",
          "type": "string"
        }
      ],
      "payable": false,
      "stateMutability": "view",
      "type": "function"
    },
    {
      "constant": true,
      "inputs": [],
      "name": "owner",
      "outputs": [
        {
          "internalType": "address",
          "name": "",
          "type": "address"
        }
      ],
      "payable": false,
      "stateMutability": "view",
      "type": "function"
    },
    {
      "constant": true,
      "inputs": [
        {
          "internalType": "uint256",
          "name": "tokenId",
          "type": "uint256"
        }
      ],
      "name": "ownerOf",
      "outputs": [
        {
          "internalType": "address",
          "name": "",
          "type": "address"
        }
      ],
      "payable": false,
      "stateMutability": "view",
      "type": "function"
    },
    {
      "constant": false,
      "inputs": [],
      "name": "renounceOwnership",
      "outputs": [],
      "payable": false,
      "stateMutability": "nonpayable",
      "type": "function"
    },
    {
      "constant": false,
      "inputs": [
        {
          "internalType": "address",
          "name": "from",
          "type": "address"
        },
        {
          "internalType": "address",
          "name": "to",
          "type": "address"
        },
        {
          "internalType": "uint256",
          "name": "tokenId",
          "type": "uint256"
        }
      ],
      "name": "safeTransferFrom",
      "outputs": [],
      "payable": false,
      "stateMutability": "nonpayable",
      "type": "function"
    },
    {
      "constant": false,
      "inputs": [
        {
          "internalType": "address",
          "name": "from",
          "type": "address"
        },
        {
          "internalType": "address",
          "name": "to",
          "type": "address"
        },
        {
          "internalType": "uint256",
          "name": "tokenId",
          "type": "uint256"
        },
        {
          "internalType": "bytes",
          "name": "_data",
          "type": "bytes"
        }
      ],
      "name": "safeTransferFrom",
      "outputs": [],
      "payable": false,
      "stateMutability": "nonpayable",
      "type": "function"
    },
    {
      "constant": false,
      "inputs": [
        {
          "internalType": "address",
          "name": "to",
          "type": "address"
        },
        {
          "internalType": "bool",
          "name": "approved",
          "type": "bool"
        }
      ],
      "name": "setApprovalForAll",
      "outputs": [],
      "payable": false,
      "stateMutability": "nonpayable",
      "type": "function"
    },
    {
      "constant": false,
      "inputs": [
        {
          "internalType": "uint256",
          "name": "tokenId",
          "type": "uint256"
        },
        {
          "internalType": "uint256",
          "name": "pressure",
          "type": "uint256"
        },
        {
          "internalType": "uint256",
          "name": "humidity",
          "type": "uint256"
        },
        {
          "internalType": "uint256",
          "name": "temperature2",
          "type": "uint256"
        },
        {
          "internalType": "uint256",
          "name": "temperature",
          "type": "uint256"
        },
        {
          "internalType": "uint256",
          "name": "gasResistance",
          "type": "uint256"
        }
      ],
      "name": "setTokenClimate",
      "outputs": [],
      "payable": false,
      "stateMutability": "nonpayable",
      "type": "function"
    },
    {
      "constant": false,
      "inputs": [
        {
          "internalType": "uint256",
          "name": "tokenId",
          "type": "uint256"
        },
        {
          "internalType": "uint32",
          "name": "_type",
          "type": "uint32"
        },
        {
          "internalType": "bytes",
          "name": "data",
          "type": "bytes"
        },
        {
          "internalType": "uint32",
          "name": "timestamp",
          "type": "uint32"
        }
      ],
      "name": "setTokenHash",
      "outputs": [],
      "payable": false,
      "stateMutability": "nonpayable",
      "type": "function"
    },
    {
      "constant": false,
      "inputs": [
        {
          "internalType": "uint256",
          "name": "tokenId",
          "type": "uint256"
        },
        {
          "internalType": "uint256",
          "name": "light",
          "type": "uint256"
        }
      ],
      "name": "setTokenLight",
      "outputs": [],
      "payable": false,
      "stateMutability": "nonpayable",
      "type": "function"
    },
    {
      "constant": false,
      "inputs": [
        {
          "internalType": "uint256",
          "name": "tokenId",
          "type": "uint256"
        },
        {
          "internalType": "uint256",
          "name": "latitude",
          "type": "uint256"
        },
        {
          "internalType": "uint256",
          "name": "longitude",
          "type": "uint256"
        }
      ],
      "name": "setTokenLocation",
      "outputs": [],
      "payable": false,
      "stateMutability": "nonpayable",
      "type": "function"
    },
    {
      "constant": false,
      "inputs": [
        {
          "internalType": "uint256",
          "name": "tokenId",
          "type": "uint256"
        },
        {
          "internalType": "int256[3]",
          "name": "gyroscope",
          "type": "int256[3]"
        },
        {
          "internalType": "uint256[3]",
          "name": "accelerometer",
          "type": "uint256[3]"
        }
      ],
      "name": "setTokenMotion",
      "outputs": [],
      "payable": false,
      "stateMutability": "nonpayable",
      "type": "function"
    },
    {
      "constant": false,
      "inputs": [
        {
          "internalType": "uint256",
          "name": "tokenId",
          "type": "uint256"
        },
        {
          "internalType": "string",
          "name": "random",
          "type": "string"
        }
      ],
      "name": "setTokenRandom",
      "outputs": [],
      "payable": false,
      "stateMutability": "nonpayable",
      "type": "function"
    },
    {
      "constant": false,
      "inputs": [
        {
          "internalType": "uint256",
          "name": "tokenId",
          "type": "uint256"
        },
        {
          "internalType": "uint256",
          "name": "snr",
          "type": "uint256"
        }
      ],
      "name": "setTokenSNR",
      "outputs": [],
      "payable": false,
      "stateMutability": "nonpayable",
      "type": "function"
    },
    {
      "constant": true,
      "inputs": [
        {
          "internalType": "bytes4",
          "name": "interfaceId",
          "type": "bytes4"
        }
      ],
      "name": "supportsInterface",
      "outputs": [
        {
          "internalType": "bool",
          "name": "",
          "type": "bool"
        }
      ],
      "payable": false,
      "stateMutability": "view",
      "type": "function"
    },
    {
      "constant": true,
      "inputs": [],
      "name": "symbol",
      "outputs": [
        {
          "internalType": "string",
          "name": "",
          "type": "string"
        }
      ],
      "payable": false,
      "stateMutability": "view",
      "type": "function"
    },
    {
      "constant": true,
      "inputs": [
        {
          "internalType": "uint8",
          "name": "_uint8",
          "type": "uint8"
        }
      ],
      "name": "toByte",
      "outputs": [
        {
          "internalType": "bytes1",
          "name": "",
          "type": "bytes1"
        }
      ],
      "payable": false,
      "stateMutability": "pure",
      "type": "function"
    },
    {
      "constant": true,
      "inputs": [
        {
          "internalType": "uint256",
          "name": "index",
          "type": "uint256"
        }
      ],
      "name": "tokenByIndex",
      "outputs": [
        {
          "internalType": "uint256",
          "name": "",
          "type": "uint256"
        }
      ],
      "payable": false,
      "stateMutability": "view",
      "type": "function"
    },
    {
      "constant": true,
      "inputs": [
        {
          "internalType": "address",
          "name": "owner",
          "type": "address"
        },
        {
          "internalType": "uint256",
          "name": "index",
          "type": "uint256"
        }
      ],
      "name": "tokenOfOwnerByIndex",
      "outputs": [
        {
          "internalType": "uint256",
          "name": "",
          "type": "uint256"
        }
      ],
      "payable": false,
      "stateMutability": "view",
      "type": "function"
    },
    {
      "constant": true,
      "inputs": [],
      "name": "totalSupply",
      "outputs": [
        {
          "internalType": "uint256",
          "name": "",
          "type": "uint256"
        }
      ],
      "payable": false,
      "stateMutability": "view",
      "type": "function"
    },
    {
      "constant": false,
      "inputs": [
        {
          "internalType": "address",
          "name": "from",
          "type": "address"
        },
        {
          "internalType": "address",
          "name": "to",
          "type": "address"
        },
        {
          "internalType": "uint256",
          "name": "tokenId",
          "type": "uint256"
        }
      ],
      "name": "transferFrom",
      "outputs": [],
      "payable": false,
      "stateMutability": "nonpayable",
      "type": "function"
    },
    {
      "constant": false,
      "inputs": [
        {
          "internalType": "address",
          "name": "newOwner",
          "type": "address"
        }
      ],
      "name": "transferOwnership",
      "outputs": [],
      "payable": false,
      "stateMutability": "nonpayable",
      "type": "function"
    },
    {
      "constant": false,
      "inputs": [
        {
          "internalType": "uint256",
          "name": "tokenId",
          "type": "uint256"
        },
        {
          "internalType": "uint256",
          "name": "vbat",
          "type": "uint256"
        }
      ],
      "name": "setTokenVBAT",
      "outputs": [],
      "payable": false,
      "stateMutability": "nonpayable",
      "type": "function"
    },
    {
      "constant": true,
      "inputs": [
        {
          "internalType": "uint256",
          "name": "tokenId",
          "type": "uint256"
        }
      ],
      "name": "getVbat",
      "outputs": [
        {
          "internalType": "uint256",
          "name": "vbat",
          "type": "uint256"
        }
      ],
      "payable": false,
      "stateMutability": "view",
      "type": "function"
    },
    {
      "constant": true,
      "inputs": [
        {
          "internalType": "uint256",
          "name": "tokenId",
          "type": "uint256"
        }
      ],
      "name": "tokenURI",
      "outputs": [
        {
          "internalType": "string",
          "name": "",
          "type": "string"
        }
      ],
      "payable": false,
      "stateMutability": "view",
      "type": "function"
    }
  ],
  "bytecode": "0x60806040526000600e553480156200001657600080fd5b506040516200585d3803806200585d833981810160405260408110156200003c57600080fd5b81019080805160405193929190846401000000008211156200005d57600080fd5b838201915060208201858111156200007457600080fd5b82518660018202830111640100000000821117156200009257600080fd5b8083526020830192505050908051906020019080838360005b83811015620000c8578082015181840152602081019050620000ab565b50505050905090810190601f168015620000f65780820380516001836020036101000a031916815260200191505b50604052602001805160405193929190846401000000008211156200011a57600080fd5b838201915060208201858111156200013157600080fd5b82518660018202830111640100000000821117156200014f57600080fd5b8083526020830192505050908051906020019080838360005b838110156200018557808201518184015260208101905062000168565b50505050905090810190601f168015620001b35780820380516001836020036101000a031916815260200191505b5060405250505081818181620001d66301ffc9a760e01b6200032860201b60201c565b620001ee6380ac58cd60e01b6200032860201b60201c565b6200020663780e9d6360e01b6200032860201b60201c565b6001600960006101000a81548160ff0219169083151502179055506000620002336200043160201b60201c565b905080600960016101000a81548173ffffffffffffffffffffffffffffffffffffffff021916908373ffffffffffffffffffffffffffffffffffffffff1602179055508073ffffffffffffffffffffffffffffffffffffffff16600073ffffffffffffffffffffffffffffffffffffffff167f8be0079c531659141344cd1fd0a4f28419497f9722a3daafe3b4186f6b6457e060405160405180910390a35081600a9080519060200190620002ea92919062000439565b5080600b90805190602001906200030392919062000439565b506200031c635b5e139f60e01b6200032860201b60201c565b505050505050620004e8565b63ffffffff60e01b817bffffffffffffffffffffffffffffffffffffffffffffffffffffffff19161415620003c5576040517f08c379a000000000000000000000000000000000000000000000000000000000815260040180806020018281038252601c8152602001807f4552433136353a20696e76616c696420696e746572666163652069640000000081525060200191505060405180910390fd5b6001600080837bffffffffffffffffffffffffffffffffffffffffffffffffffffffff19167bffffffffffffffffffffffffffffffffffffffffffffffffffffffff1916815260200190815260200160002060006101000a81548160ff02191690831515021790555050565b600033905090565b828054600181600116156101000203166002900490600052602060002090601f016020900481019282601f106200047c57805160ff1916838001178555620004ad565b82800160010185558215620004ad579182015b82811115620004ac5782518255916020019190600101906200048f565b5b509050620004bc9190620004c0565b5090565b620004e591905b80821115620004e1576000816000905550600101620004c7565b5090565b90565b61536580620004f86000396000f3fe608060405234801561001057600080fd5b506004361061023d5760003560e01c80638a569abd1161013b578063a9a1a384116100b8578063cd4b69141161007c578063cd4b691414610fa9578063da2b4d2314611050578063e985e9c514611088578063f2fde38b14611104578063ffe9f6eb146111485761023d565b8063a9a1a38414610ce0578063ad15aad214610d22578063b88d4fde14610dbb578063bd4b7e6d14610ec0578063c87b56dd14610f025761023d565b806398c1e825116100ff57806398c1e82514610a6e578063994e239014610ab0578063a22cb46514610b60578063a595d8fc14610bb0578063a86b73f014610c575761023d565b80638a569abd146108e95780638da5cb5b146109215780638f32d59b1461096b5780639480494e1461098d57806395d89b41146109eb5761023d565b8063480312d3116101c957806370a082311161018d57806370a0823114610721578063715018a614610779578063741a6ee6146107835780637f7b13931461086857806381d294f7146108b15761023d565b8063480312d3146105845780634e71d92d146105e45780634f6ccce7146105ee5780636352211e146106305780636c0360eb1461069e5761023d565b806318160ddd1161021057806318160ddd146103e657806323b872dd146104045780632f745c591461047257806342842e0e146104d4578063433e6aca146105425761023d565b806301ffc9a71461024257806306fdde03146102a7578063081812fc1461032a578063095ea7b314610398575b600080fd5b61028d6004803603602081101561025857600080fd5b8101908080357bffffffffffffffffffffffffffffffffffffffffffffffffffffffff1916906020019092919050505061120d565b604051808215151515815260200191505060405180910390f35b6102af611274565b6040518080602001828103825283818151815260200191508051906020019080838360005b838110156102ef5780820151818401526020810190506102d4565b50505050905090810190601f16801561031c5780820380516001836020036101000a031916815260200191505b509250505060405180910390f35b6103566004803603602081101561034057600080fd5b8101908080359060200190929190505050611316565b604051808273ffffffffffffffffffffffffffffffffffffffff1673ffffffffffffffffffffffffffffffffffffffff16815260200191505060405180910390f35b6103e4600480360360408110156103ae57600080fd5b81019080803573ffffffffffffffffffffffffffffffffffffffff169060200190929190803590602001909291905050506113b1565b005b6103ee611598565b6040518082815260200191505060405180910390f35b6104706004803603606081101561041a57600080fd5b81019080803573ffffffffffffffffffffffffffffffffffffffff169060200190929190803573ffffffffffffffffffffffffffffffffffffffff169060200190929190803590602001909291905050506115a5565b005b6104be6004803603604081101561048857600080fd5b81019080803573ffffffffffffffffffffffffffffffffffffffff1690602001909291908035906020019092919050505061161b565b6040518082815260200191505060405180910390f35b610540600480360360608110156104ea57600080fd5b81019080803573ffffffffffffffffffffffffffffffffffffffff169060200190929190803573ffffffffffffffffffffffffffffffffffffffff169060200190929190803590602001909291905050506116da565b005b61056e6004803603602081101561055857600080fd5b81019080803590602001909291905050506116fa565b6040518082815260200191505060405180910390f35b6105e2600480360360c081101561059a57600080fd5b8101908080359060200190929190803590602001909291908035906020019092919080359060200190929190803590602001909291908035906020019092919050505061171a565b005b6105ec6118bc565b005b61061a6004803603602081101561060457600080fd5b81019080803590602001909291905050506119a5565b6040518082815260200191505060405180910390f35b61065c6004803603602081101561064657600080fd5b8101908080359060200190929190505050611a25565b604051808273ffffffffffffffffffffffffffffffffffffffff1673ffffffffffffffffffffffffffffffffffffffff16815260200191505060405180910390f35b6106a6611aed565b6040518080602001828103825283818151815260200191508051906020019080838360005b838110156106e65780820151818401526020810190506106cb565b50505050905090810190601f1680156107135780820380516001836020036101000a031916815260200191505b509250505060405180910390f35b6107636004803603602081101561073757600080fd5b81019080803573ffffffffffffffffffffffffffffffffffffffff169060200190929190505050611b8f565b6040518082815260200191505060405180910390f35b610781611c64565b005b6108666004803603608081101561079957600080fd5b8101908080359060200190929190803563ffffffff169060200190929190803590602001906401000000008111156107d057600080fd5b8201836020820111156107e257600080fd5b8035906020019184600183028401116401000000008311171561080457600080fd5b91908080601f016020809104026020016040519081016040528093929190818152602001838380828437600081840152601f19601f820116905080830192505050505050509192919290803563ffffffff169060200190929190505050611d9f565b005b6108946004803603602081101561087e57600080fd5b81019080803590602001909291905050506120b1565b604051808381526020018281526020019250505060405180910390f35b6108e7600480360360408110156108c757600080fd5b8101908080359060200190929190803590602001909291905050506120eb565b005b61091f600480360360408110156108ff57600080fd5b81019080803590602001909291908035906020019092919050505061221d565b005b61092961234f565b604051808273ffffffffffffffffffffffffffffffffffffffff1673ffffffffffffffffffffffffffffffffffffffff16815260200191505060405180910390f35b610973612379565b604051808215151515815260200191505060405180910390f35b6109b9600480360360208110156109a357600080fd5b81019080803590602001909291905050506123d8565b604051808681526020018581526020018481526020018381526020018281526020019550505050505060405180910390f35b6109f3612466565b6040518080602001828103825283818151815260200191508051906020019080838360005b83811015610a33578082015181840152602081019050610a18565b50505050905090810190601f168015610a605780820380516001836020036101000a031916815260200191505b509250505060405180910390f35b610a9a60048036036020811015610a8457600080fd5b8101908080359060200190929190505050612508565b6040518082815260200191505060405180910390f35b610b5e600480360360e0811015610ac657600080fd5b810190808035906020019092919080606001906003806020026040519081016040528092919082600360200280828437600081840152601f19601f820116905080830192505050505050919291929080606001906003806020026040519081016040528092919082600360200280828437600081840152601f19601f8201169050808301925050505050509192919290505050612528565b005b610bae60048036036040811015610b7657600080fd5b81019080803573ffffffffffffffffffffffffffffffffffffffff16906020019092919080351515906020019092919050505061268c565b005b610bdc60048036036020811015610bc657600080fd5b8101908080359060200190929190505050612844565b6040518080602001828103825283818151815260200191508051906020019080838360005b83811015610c1c578082015181840152602081019050610c01565b50505050905090810190601f168015610c495780820380516001836020036101000a031916815260200191505b509250505060405180910390f35b610c8660048036036020811015610c6d57600080fd5b81019080803560ff1690602001909291905050506129d7565b60405180827effffffffffffffffffffffffffffffffffffffffffffffffffffffffffffff19167effffffffffffffffffffffffffffffffffffffffffffffffffffffffffffff1916815260200191505060405180910390f35b610d0c60048036036020811015610cf657600080fd5b8101908080359060200190929190505050612a02565b6040518082815260200191505060405180910390f35b610d4e60048036036020811015610d3857600080fd5b8101908080359060200190929190505050612a22565b6040518083600360200280838360005b83811015610d79578082015181840152602081019050610d5e565b5050505090500182600360200280838360005b83811015610da7578082015181840152602081019050610d8c565b505050509050019250505060405180910390f35b610ebe60048036036080811015610dd157600080fd5b81019080803573ffffffffffffffffffffffffffffffffffffffff169060200190929190803573ffffffffffffffffffffffffffffffffffffffff1690602001909291908035906020019092919080359060200190640100000000811115610e3857600080fd5b820183602082011115610e4a57600080fd5b80359060200191846001830284011164010000000083111715610e6c57600080fd5b91908080601f016020809104026020016040519081016040528093929190818152602001838380828437600081840152601f19601f820116905080830192505050505050509192919290505050612adf565b005b610f0060048036036060811015610ed657600080fd5b81019080803590602001909291908035906020019092919080359060200190929190505050612b57565b005b610f2e60048036036020811015610f1857600080fd5b8101908080359060200190929190505050612ca5565b6040518080602001828103825283818151815260200191508051906020019080838360005b83811015610f6e578082015181840152602081019050610f53565b50505050905090810190601f168015610f9b5780820380516001836020036101000a031916815260200191505b509250505060405180910390f35b610fd560048036036020811015610fbf57600080fd5b8101908080359060200190929190505050613467565b6040518080602001828103825283818151815260200191508051906020019080838360005b83811015611015578082015181840152602081019050610ffa565b50505050905090810190601f1680156110425780820380516001836020036101000a031916815260200191505b509250505060405180910390f35b6110866004803603604081101561106657600080fd5b81019080803590602001909291908035906020019092919050505061351f565b005b6110ea6004803603604081101561109e57600080fd5b81019080803573ffffffffffffffffffffffffffffffffffffffff169060200190929190803573ffffffffffffffffffffffffffffffffffffffff169060200190929190505050613651565b604051808215151515815260200191505060405180910390f35b6111466004803603602081101561111a57600080fd5b81019080803573ffffffffffffffffffffffffffffffffffffffff1690602001909291905050506136e5565b005b61120b6004803603604081101561115e57600080fd5b81019080803590602001909291908035906020019064010000000081111561118557600080fd5b82018360208201111561119757600080fd5b803590602001918460018302840111640100000000831117156111b957600080fd5b91908080601f016020809104026020016040519081016040528093929190818152602001838380828437600081840152601f19601f82011690508083019250505050505050919291929050505061376b565b005b6000806000837bffffffffffffffffffffffffffffffffffffffffffffffffffffffff19167bffffffffffffffffffffffffffffffffffffffffffffffffffffffff1916815260200190815260200160002060009054906101000a900460ff169050919050565b6060600a8054600181600116156101000203166002900480601f01602080910402602001604051908101604052809291908181526020018280546001816001161561010002031660029004801561130c5780601f106112e15761010080835404028352916020019161130c565b820191906000526020600020905b8154815290600101906020018083116112ef57829003601f168201915b5050505050905090565b6000611321826138ad565b611376576040517f08c379a000000000000000000000000000000000000000000000000000000000815260040180806020018281038252602c815260200180615210602c913960400191505060405180910390fd5b6002600083815260200190815260200160002060009054906101000a900473ffffffffffffffffffffffffffffffffffffffff169050919050565b60006113bc82611a25565b90508073ffffffffffffffffffffffffffffffffffffffff168373ffffffffffffffffffffffffffffffffffffffff161415611443576040517f08c379a000000000000000000000000000000000000000000000000000000000815260040180806020018281038252602181526020018061528b6021913960400191505060405180910390fd5b8073ffffffffffffffffffffffffffffffffffffffff1661146261391f565b73ffffffffffffffffffffffffffffffffffffffff16148061149157506114908161148b61391f565b613651565b5b6114e6576040517f08c379a00000000000000000000000000000000000000000000000000000000081526004018080602001828103825260388152602001806151456038913960400191505060405180910390fd5b826002600084815260200190815260200160002060006101000a81548173ffffffffffffffffffffffffffffffffffffffff021916908373ffffffffffffffffffffffffffffffffffffffff160217905550818373ffffffffffffffffffffffffffffffffffffffff168273ffffffffffffffffffffffffffffffffffffffff167f8c5be1e5ebec7d5bd14f71427d1e84f3dd0314c0f7b2291e5b200ac8c7c3b92560405160405180910390a4505050565b6000600780549050905090565b6115b66115b061391f565b82613927565b61160b576040517f08c379a00000000000000000000000000000000000000000000000000000000081526004018080602001828103825260318152602001806152ac6031913960400191505060405180910390fd5b611616838383613a1b565b505050565b600061162683611b8f565b821061167d576040517f08c379a000000000000000000000000000000000000000000000000000000000815260040180806020018281038252602b815260200180614f4d602b913960400191505060405180910390fd5b600560008473ffffffffffffffffffffffffffffffffffffffff1673ffffffffffffffffffffffffffffffffffffffff16815260200190815260200160002082815481106116c757fe5b9060005260206000200154905092915050565b6116f583838360405180602001604052806000815250612adf565b505050565b6000600f6000838152602001908152602001600020600901549050919050565b85611724816138ad565b611779576040517f08c379a000000000000000000000000000000000000000000000000000000000815260040180806020018281038252602c8152602001806150ed602c913960400191505060405180910390fd5b86600061178582611a25565b90508073ffffffffffffffffffffffffffffffffffffffff166117a661391f565b73ffffffffffffffffffffffffffffffffffffffff1614806117d557506117d4816117cf61391f565b613651565b5b61182a576040517f08c379a00000000000000000000000000000000000000000000000000000000081526004018080602001828103825260388152602001806151456038913960400191505060405180910390fd5b83600f60008b81526020019081526020016000206005018190555084600f60008b81526020019081526020016000206006018190555087600f60008b81526020019081526020016000206007018190555086600f60008b81526020019081526020016000206008018190555085600f60008b8152602001908152602001600020600a0181905550505050505050505050565b600960009054906101000a900460ff1661193e576040517f08c379a000000000000000000000000000000000000000000000000000000000815260040180806020018281038252601f8152602001807f5265656e7472616e637947756172643a207265656e7472616e742063616c6c0081525060200191505060405180910390fd5b6000600960006101000a81548160ff02191690831515021790555061196f6001600e54613a3f90919063ffffffff16565b600e8190555061198861198061391f565b600e54613ac7565b6001600960006101000a81548160ff021916908315150217905550565b60006119af611598565b8210611a06576040517f08c379a000000000000000000000000000000000000000000000000000000000815260040180806020018281038252602c8152602001806152dd602c913960400191505060405180910390fd5b60078281548110611a1357fe5b90600052602060002001549050919050565b6000806001600084815260200190815260200160002060009054906101000a900473ffffffffffffffffffffffffffffffffffffffff169050600073ffffffffffffffffffffffffffffffffffffffff168173ffffffffffffffffffffffffffffffffffffffff161415611ae4576040517f08c379a00000000000000000000000000000000000000000000000000000000081526004018080602001828103825260298152602001806151a76029913960400191505060405180910390fd5b80915050919050565b6060600c8054600181600116156101000203166002900480601f016020809104026020016040519081016040528092919081815260200182805460018160011615610100020316600290048015611b855780601f10611b5a57610100808354040283529160200191611b85565b820191906000526020600020905b815481529060010190602001808311611b6857829003601f168201915b5050505050905090565b60008073ffffffffffffffffffffffffffffffffffffffff168273ffffffffffffffffffffffffffffffffffffffff161415611c16576040517f08c379a000000000000000000000000000000000000000000000000000000000815260040180806020018281038252602a81526020018061517d602a913960400191505060405180910390fd5b611c5d600360008473ffffffffffffffffffffffffffffffffffffffff1673ffffffffffffffffffffffffffffffffffffffff168152602001908152602001600020613ae5565b9050919050565b611c6c612379565b611cde576040517f08c379a00000000000000000000000000000000000000000000000000000000081526004018080602001828103825260208152602001807f4f776e61626c653a2063616c6c6572206973206e6f7420746865206f776e657281525060200191505060405180910390fd5b600073ffffffffffffffffffffffffffffffffffffffff16600960019054906101000a900473ffffffffffffffffffffffffffffffffffffffff1673ffffffffffffffffffffffffffffffffffffffff167f8be0079c531659141344cd1fd0a4f28419497f9722a3daafe3b4186f6b6457e060405160405180910390a36000600960016101000a81548173ffffffffffffffffffffffffffffffffffffffff021916908373ffffffffffffffffffffffffffffffffffffffff160217905550565b83611da9816138ad565b611dfe576040517f08c379a000000000000000000000000000000000000000000000000000000000815260040180806020018281038252602c8152602001806150ed602c913960400191505060405180910390fd5b846000611e0a82611a25565b90508073ffffffffffffffffffffffffffffffffffffffff16611e2b61391f565b73ffffffffffffffffffffffffffffffffffffffff161480611e5a5750611e5981611e5461391f565b613651565b5b611eaf576040517f08c379a00000000000000000000000000000000000000000000000000000000081526004018080602001828103825260388152602001806151456038913960400191505060405180910390fd5b60006002878787604051602001808463ffffffff1663ffffffff1660e01b815260040183805190602001908083835b60208310611f015780518252602082019150602081019050602083039250611ede565b6001836020036101000a0380198251168184511680821785525050505050509050018263ffffffff1663ffffffff1660e01b815260040193505050506040516020818303038152906040526040518082805190602001908083835b60208310611f7f5780518252602082019150602081019050602083039250611f5c565b6001836020036101000a038019825116818451168082178552505050505050905001915050602060405180830381855afa158015611fc1573d6000803e3d6000fd5b5050506040513d6020811015611fd657600080fd5b810190808051906020019092919050505090506010600082815260200190815260200160002060009054906101000a900460ff1615612060576040517f08c379a00000000000000000000000000000000000000000000000000000000081526004018080602001828103825260268152602001806152656026913960400191505060405180910390fd5b60016010600083815260200190815260200160002060006101000a81548160ff02191690831515021790555080600f60008a8152602001908152602001600020600001819055505050505050505050565b600080600f6000848152602001908152602001600020600301549150600f6000848152602001908152602001600020600401549050915091565b816120f5816138ad565b61214a576040517f08c379a000000000000000000000000000000000000000000000000000000000815260040180806020018281038252602c8152602001806150ed602c913960400191505060405180910390fd5b82600061215682611a25565b90508073ffffffffffffffffffffffffffffffffffffffff1661217761391f565b73ffffffffffffffffffffffffffffffffffffffff1614806121a657506121a5816121a061391f565b613651565b5b6121fb576040517f08c379a00000000000000000000000000000000000000000000000000000000081526004018080602001828103825260388152602001806151456038913960400191505060405180910390fd5b83600f6000878152602001908152602001600020600201819055505050505050565b81612227816138ad565b61227c576040517f08c379a000000000000000000000000000000000000000000000000000000000815260040180806020018281038252602c8152602001806150ed602c913960400191505060405180910390fd5b82600061228882611a25565b90508073ffffffffffffffffffffffffffffffffffffffff166122a961391f565b73ffffffffffffffffffffffffffffffffffffffff1614806122d857506122d7816122d261391f565b613651565b5b61232d576040517f08c379a00000000000000000000000000000000000000000000000000000000081526004018080602001828103825260388152602001806151456038913960400191505060405180910390fd5b83600f6000878152602001908152602001600020600101819055505050505050565b6000600960019054906101000a900473ffffffffffffffffffffffffffffffffffffffff16905090565b6000600960019054906101000a900473ffffffffffffffffffffffffffffffffffffffff1673ffffffffffffffffffffffffffffffffffffffff166123bc61391f565b73ffffffffffffffffffffffffffffffffffffffff1614905090565b6000806000806000600f6000878152602001908152602001600020600501549050600f6000878152602001908152602001600020600601549150600f6000878152602001908152602001600020600701549450600f6000878152602001908152602001600020600801549350600f6000878152602001908152602001600020600a0154925091939590929450565b6060600b8054600181600116156101000203166002900480601f0160208091040260200160405190810160405280929190818152602001828054600181600116156101000203166002900480156124fe5780601f106124d3576101008083540402835291602001916124fe565b820191906000526020600020905b8154815290600101906020018083116124e157829003601f168201915b5050505050905090565b6000600f6000838152602001908152602001600020600101549050919050565b82612532816138ad565b612587576040517f08c379a000000000000000000000000000000000000000000000000000000000815260040180806020018281038252602c8152602001806150ed602c913960400191505060405180910390fd5b83600061259382611a25565b90508073ffffffffffffffffffffffffffffffffffffffff166125b461391f565b73ffffffffffffffffffffffffffffffffffffffff1614806125e357506125e2816125dd61391f565b613651565b5b612638576040517f08c379a00000000000000000000000000000000000000000000000000000000081526004018080602001828103825260388152602001806151456038913960400191505060405180910390fd5b84600f6000888152602001908152602001600020600b0190600361265d929190614c6e565b5083600f6000888152602001908152602001600020600e01906003612683929190614cae565b50505050505050565b61269461391f565b73ffffffffffffffffffffffffffffffffffffffff168273ffffffffffffffffffffffffffffffffffffffff161415612735576040517f08c379a00000000000000000000000000000000000000000000000000000000081526004018080602001828103825260198152602001807f4552433732313a20617070726f766520746f2063616c6c65720000000000000081525060200191505060405180910390fd5b806004600061274261391f565b73ffffffffffffffffffffffffffffffffffffffff1673ffffffffffffffffffffffffffffffffffffffff16815260200190815260200160002060008473ffffffffffffffffffffffffffffffffffffffff1673ffffffffffffffffffffffffffffffffffffffff16815260200190815260200160002060006101000a81548160ff0219169083151502179055508173ffffffffffffffffffffffffffffffffffffffff166127ef61391f565b73ffffffffffffffffffffffffffffffffffffffff167f17307eab39ab6107e8899845ad3d59bd9653f200f220920489ca2b5937696c3183604051808215151515815260200191505060405180910390a35050565b60606000600f600084815260200190815260200160002060000154905060008090506060604080519080825280601f01601f19166020018201604052801561289b5781602001600182028038833980820191505090505b509050600091505b80518260ff1610156129cc576000600f60f81b8460028560ff16816128c457fe5b0460ff16602081106128d257fe5b1a60f81b1660f81c9050600060048560028660ff16816128ee57fe5b0460ff16602081106128fc57fe5b1a60f81b7effffffffffffffffffffffffffffffffffffffffffffffffffffffffffffff1916901c60f81c9050612932826129d7565b838560ff168151811061294157fe5b60200101907effffffffffffffffffffffffffffffffffffffffffffffffffffffffffffff1916908160001a90535060018401935061297f816129d7565b838560ff168151811061298e57fe5b60200101907effffffffffffffffffffffffffffffffffffffffffffffffffffffffffffff1916908160001a905350505081806001019250506128a3565b809350505050919050565b6000600a8260ff1610156129f3576030820160f81b90506129fd565b6057820160f81b90505b919050565b6000600f6000838152602001908152602001600020600201549050919050565b612a2a614cee565b612a32614d10565b600f6000848152602001908152602001600020600b01600380602002604051908101604052809291908260038015612a7f576020028201915b815481526020019060010190808311612a6b575b50505050509150600f6000848152602001908152602001600020600e01600380602002604051908101604052809291908260038015612ad3576020028201915b815481526020019060010190808311612abf575b50505050509050915091565b612af0612aea61391f565b83613927565b612b45576040517f08c379a00000000000000000000000000000000000000000000000000000000081526004018080602001828103825260318152602001806152ac6031913960400191505060405180910390fd5b612b5184848484613af3565b50505050565b82612b61816138ad565b612bb6576040517f08c379a000000000000000000000000000000000000000000000000000000000815260040180806020018281038252602c8152602001806150ed602c913960400191505060405180910390fd5b836000612bc282611a25565b90508073ffffffffffffffffffffffffffffffffffffffff16612be361391f565b73ffffffffffffffffffffffffffffffffffffffff161480612c125750612c1181612c0c61391f565b613651565b5b612c67576040517f08c379a00000000000000000000000000000000000000000000000000000000081526004018080602001828103825260388152602001806151456038913960400191505060405180910390fd5b84600f60008881526020019081526020016000206003018190555083600f600088815260200190815260200160002060040181905550505050505050565b606081612cb1816138ad565b612d06576040517f08c379a000000000000000000000000000000000000000000000000000000000815260040180806020018281038252602c8152602001806150ed602c913960400191505060405180910390fd5b612d0e614d32565b60405180610120016040528060fd8152602001614e5060fd913981600060058110612d3557fe5b6020020181905250612d4684612844565b60405160200180807f307800000000000000000000000000000000000000000000000000000000000081525060020182805190602001908083835b60208310612da45780518252602082019150602081019050602083039250612d81565b6001836020036101000a03801982511681845116808217855250505050505090500191505060405160208183030381529060405281600160058110612de557fe5b60200201819052506040518060600160405280602881526020016153096028913981600260058110612e1357fe5b6020020181905250612e2c612e2785612a02565b613b65565b60405160200180807f766261743a20000000000000000000000000000000000000000000000000000081525060060182805190602001908083835b60208310612e8a5780518252602082019150602081019050602083039250612e67565b6001836020036101000a03801982511681845116808217855250505050505090500191505060405160208183030381529060405281600360058110612ecb57fe5b60200201819052506040518060400160405280600d81526020017f3c2f746578743e3c2f7376673e0000000000000000000000000000000000000081525081600460058110612f1657fe5b6020020181905250606081600060058110612f2d57fe5b602002015182600160058110612f3f57fe5b602002015183600260058110612f5157fe5b602002015184600360058110612f6357fe5b602002015185600460058110612f7557fe5b60200201516040516020018086805190602001908083835b60208310612fb05780518252602082019150602081019050602083039250612f8d565b6001836020036101000a03801982511681845116808217855250505050505090500185805190602001908083835b602083106130015780518252602082019150602081019050602083039250612fde565b6001836020036101000a03801982511681845116808217855250505050505090500184805190602001908083835b60208310613052578051825260208201915060208101905060208303925061302f565b6001836020036101000a03801982511681845116808217855250505050505090500183805190602001908083835b602083106130a35780518252602082019150602081019050602083039250613080565b6001836020036101000a03801982511681845116808217855250505050505090500182805190602001908083835b602083106130f457805182526020820191506020810190506020830392506130d1565b6001836020036101000a038019825116818451168082178552505050505050905001955050505050506040516020818303038152906040529050606061313986613b65565b60405160200180807f226e616d65223a2022547275737465642056424154204c6f6f74202300000000815250601c0182805190602001908083835b602083106131975780518252602082019150602081019050602083039250613174565b6001836020036101000a038019825116818451168082178552505050505050905001807f2200000000000000000000000000000000000000000000000000000000000000815250600101915050604051602081830303815290604052905060606040516020018080614ff560d4913960d4019050604051602081830303815290604052905060606133c2838361322c87613c88565b60405160200180807f7b0000000000000000000000000000000000000000000000000000000000000081525060010184805190602001908083835b6020831061328a5780518252602082019150602081019050602083039250613267565b6001836020036101000a038019825116818451168082178552505050505050905001807f2c0000000000000000000000000000000000000000000000000000000000000081525060010183805190602001908083835b6020831061330357805182526020820191506020810190506020830392506132e0565b6001836020036101000a03801982511681845116808217855250505050505090500180614fd06025913960250182805190602001908083835b6020831061335f578051825260208201915060208101905060208303925061333c565b6001836020036101000a038019825116818451168082178552505050505050905001807f227d0000000000000000000000000000000000000000000000000000000000008152506002019350505050604051602081830303815290604052613c88565b90508060405160200180807f646174613a6170706c69636174696f6e2f6a736f6e3b6261736536342c000000815250601d0182805190602001908083835b602083106134235780518252602082019150602081019050602083039250613400565b6001836020036101000a0380198251168184511680821785525050505050509050019150506040516020818303038152906040529350839650505050505050919050565b6060600f60008381526020019081526020016000206011018054600181600116156101000203166002900480601f0160208091040260200160405190810160405280929190818152602001828054600181600116156101000203166002900480156135135780601f106134e857610100808354040283529160200191613513565b820191906000526020600020905b8154815290600101906020018083116134f657829003601f168201915b50505050509050919050565b81613529816138ad565b61357e576040517f08c379a000000000000000000000000000000000000000000000000000000000815260040180806020018281038252602c8152602001806150ed602c913960400191505060405180910390fd5b82600061358a82611a25565b90508073ffffffffffffffffffffffffffffffffffffffff166135ab61391f565b73ffffffffffffffffffffffffffffffffffffffff1614806135da57506135d9816135d461391f565b613651565b5b61362f576040517f08c379a00000000000000000000000000000000000000000000000000000000081526004018080602001828103825260388152602001806151456038913960400191505060405180910390fd5b83600f6000878152602001908152602001600020600901819055505050505050565b6000600460008473ffffffffffffffffffffffffffffffffffffffff1673ffffffffffffffffffffffffffffffffffffffff16815260200190815260200160002060008373ffffffffffffffffffffffffffffffffffffffff1673ffffffffffffffffffffffffffffffffffffffff16815260200190815260200160002060009054906101000a900460ff16905092915050565b6136ed612379565b61375f576040517f08c379a00000000000000000000000000000000000000000000000000000000081526004018080602001828103825260208152602001807f4f776e61626c653a2063616c6c6572206973206e6f7420746865206f776e657281525060200191505060405180910390fd5b61376881613dea565b50565b81613775816138ad565b6137ca576040517f08c379a000000000000000000000000000000000000000000000000000000000815260040180806020018281038252602c8152602001806150ed602c913960400191505060405180910390fd5b8260006137d682611a25565b90508073ffffffffffffffffffffffffffffffffffffffff166137f761391f565b73ffffffffffffffffffffffffffffffffffffffff16148061382657506138258161382061391f565b613651565b5b61387b576040517f08c379a00000000000000000000000000000000000000000000000000000000081526004018080602001828103825260388152602001806151456038913960400191505060405180910390fd5b83600f600087815260200190815260200160002060110190805190602001906138a5929190614d59565b505050505050565b6000806001600084815260200190815260200160002060009054906101000a900473ffffffffffffffffffffffffffffffffffffffff169050600073ffffffffffffffffffffffffffffffffffffffff168173ffffffffffffffffffffffffffffffffffffffff161415915050919050565b600033905090565b6000613932826138ad565b613987576040517f08c379a000000000000000000000000000000000000000000000000000000000815260040180806020018281038252602c815260200180615119602c913960400191505060405180910390fd5b600061399283611a25565b90508073ffffffffffffffffffffffffffffffffffffffff168473ffffffffffffffffffffffffffffffffffffffff161480613a0157508373ffffffffffffffffffffffffffffffffffffffff166139e984611316565b73ffffffffffffffffffffffffffffffffffffffff16145b80613a125750613a118185613651565b5b91505092915050565b613a26838383613f30565b613a30838261418b565b613a3a8282614329565b505050565b600080828401905083811015613abd576040517f08c379a000000000000000000000000000000000000000000000000000000000815260040180806020018281038252601b8152602001807f536166654d6174683a206164646974696f6e206f766572666c6f77000000000081525060200191505060405180910390fd5b8091505092915050565b613ae18282604051806020016040528060008152506143f0565b5050565b600081600001549050919050565b613afe848484613a1b565b613b0a84848484614461565b613b5f576040517f08c379a0000000000000000000000000000000000000000000000000000000008152600401808060200182810382526032815260200180614f786032913960400191505060405180910390fd5b50505050565b60606000821415613bad576040518060400160405280600181526020017f30000000000000000000000000000000000000000000000000000000000000008152509050613c83565b600082905060005b60008214613bd7578080600101915050600a8281613bcf57fe5b049150613bb5565b6060816040519080825280601f01601f191660200182016040528015613c0c5781602001600182028038833980820191505090505b5090505b60008514613c7c57600182039150600a8581613c2857fe5b0660300160f81b818381518110613c3b57fe5b60200101907effffffffffffffffffffffffffffffffffffffffffffffffffffffffffffff1916908160001a905350600a8581613c7457fe5b049450613c10565b8093505050505b919050565b60606000825190506000811415613cb15760405180602001604052806000815250915050613de5565b600060036002830181613cc057fe5b0460040290506060602082016040519080825280601f01601f191660200182016040528015613cfe5781602001600182028038833980820191505090505b50905060606040518060600160405280604081526020016151d0604091399050600181016020830160005b86811015613da25760038101905062ffffff818a015116603f8160121c168401518060081b905060ff603f83600c1c1686015116810190508060081b905060ff603f8360061c1686015116810190508060081b905060ff603f831686015116810190508060e01b90508084526004840193505050613d29565b506003860660018114613dbc5760028114613dcc57613dd7565b613d3d60f01b6002830352613dd7565b603d60f81b60018303525b508484525050819450505050505b919050565b600073ffffffffffffffffffffffffffffffffffffffff168173ffffffffffffffffffffffffffffffffffffffff161415613e70576040517f08c379a0000000000000000000000000000000000000000000000000000000008152600401808060200182810382526026815260200180614faa6026913960400191505060405180910390fd5b8073ffffffffffffffffffffffffffffffffffffffff16600960019054906101000a900473ffffffffffffffffffffffffffffffffffffffff1673ffffffffffffffffffffffffffffffffffffffff167f8be0079c531659141344cd1fd0a4f28419497f9722a3daafe3b4186f6b6457e060405160405180910390a380600960016101000a81548173ffffffffffffffffffffffffffffffffffffffff021916908373ffffffffffffffffffffffffffffffffffffffff16021790555050565b8273ffffffffffffffffffffffffffffffffffffffff16613f5082611a25565b73ffffffffffffffffffffffffffffffffffffffff1614613fbc576040517f08c379a000000000000000000000000000000000000000000000000000000000815260040180806020018281038252602981526020018061523c6029913960400191505060405180910390fd5b600073ffffffffffffffffffffffffffffffffffffffff168273ffffffffffffffffffffffffffffffffffffffff161415614042576040517f08c379a00000000000000000000000000000000000000000000000000000000081526004018080602001828103825260248152602001806150c96024913960400191505060405180910390fd5b61404b8161479d565b614092600360008573ffffffffffffffffffffffffffffffffffffffff1673ffffffffffffffffffffffffffffffffffffffff16815260200190815260200160002061485b565b6140d9600360008473ffffffffffffffffffffffffffffffffffffffff1673ffffffffffffffffffffffffffffffffffffffff16815260200190815260200160002061487e565b816001600083815260200190815260200160002060006101000a81548173ffffffffffffffffffffffffffffffffffffffff021916908373ffffffffffffffffffffffffffffffffffffffff160217905550808273ffffffffffffffffffffffffffffffffffffffff168473ffffffffffffffffffffffffffffffffffffffff167fddf252ad1be2c89b69c2b068fc378daa952ba7f163c4a11628f55a4df523b3ef60405160405180910390a4505050565b60006141e36001600560008673ffffffffffffffffffffffffffffffffffffffff1673ffffffffffffffffffffffffffffffffffffffff1681526020019081526020016000208054905061489490919063ffffffff16565b90506000600660008481526020019081526020016000205490508181146142d0576000600560008673ffffffffffffffffffffffffffffffffffffffff1673ffffffffffffffffffffffffffffffffffffffff168152602001908152602001600020838154811061425057fe5b9060005260206000200154905080600560008773ffffffffffffffffffffffffffffffffffffffff1673ffffffffffffffffffffffffffffffffffffffff16815260200190815260200160002083815481106142a857fe5b9060005260206000200181905550816006600083815260200190815260200160002081905550505b600560008573ffffffffffffffffffffffffffffffffffffffff1673ffffffffffffffffffffffffffffffffffffffff1681526020019081526020016000208054809190600190036143229190614dd9565b5050505050565b600560008373ffffffffffffffffffffffffffffffffffffffff1673ffffffffffffffffffffffffffffffffffffffff168152602001908152602001600020805490506006600083815260200190815260200160002081905550600560008373ffffffffffffffffffffffffffffffffffffffff1673ffffffffffffffffffffffffffffffffffffffff1681526020019081526020016000208190806001815401808255809150509060018203906000526020600020016000909192909190915055505050565b6143fa83836148de565b6144076000848484614461565b61445c576040517f08c379a0000000000000000000000000000000000000000000000000000000008152600401808060200182810382526032815260200180614f786032913960400191505060405180910390fd5b505050565b60006144828473ffffffffffffffffffffffffffffffffffffffff166148ff565b61448f5760019050614795565b600060608573ffffffffffffffffffffffffffffffffffffffff168673ffffffffffffffffffffffffffffffffffffffff1663150b7a02905060e01b6144d361391f565b898888604051602401808573ffffffffffffffffffffffffffffffffffffffff1673ffffffffffffffffffffffffffffffffffffffff1681526020018473ffffffffffffffffffffffffffffffffffffffff1673ffffffffffffffffffffffffffffffffffffffff16815260200183815260200180602001828103825283818151815260200191508051906020019080838360005b83811015614583578082015181840152602081019050614568565b50505050905090810190601f1680156145b05780820380516001836020036101000a031916815260200191505b5095505050505050604051602081830303815290604052907bffffffffffffffffffffffffffffffffffffffffffffffffffffffff19166020820180517bffffffffffffffffffffffffffffffffffffffffffffffffffffffff83818316178352505050506040518082805190602001908083835b602083106146485780518252602082019150602081019050602083039250614625565b6001836020036101000a0380198251168184511680821785525050505050509050019150506000604051808303816000865af19150503d80600081146146aa576040519150601f19603f3d011682016040523d82523d6000602084013e6146af565b606091505b50915091508161471d576000815111156146cc5780518082602001fd5b6040517f08c379a0000000000000000000000000000000000000000000000000000000008152600401808060200182810382526032815260200180614f786032913960400191505060405180910390fd5b600081806020019051602081101561473457600080fd5b8101908080519060200190929190505050905063150b7a0260e01b7bffffffffffffffffffffffffffffffffffffffffffffffffffffffff1916817bffffffffffffffffffffffffffffffffffffffffffffffffffffffff19161493505050505b949350505050565b600073ffffffffffffffffffffffffffffffffffffffff166002600083815260200190815260200160002060009054906101000a900473ffffffffffffffffffffffffffffffffffffffff1673ffffffffffffffffffffffffffffffffffffffff16146148585760006002600083815260200190815260200160002060006101000a81548173ffffffffffffffffffffffffffffffffffffffff021916908373ffffffffffffffffffffffffffffffffffffffff1602179055505b50565b6148736001826000015461489490919063ffffffff16565b816000018190555050565b6001816000016000828254019250508190555050565b60006148d683836040518060400160405280601e81526020017f536166654d6174683a207375627472616374696f6e206f766572666c6f77000081525061494a565b905092915050565b6148e88282614a0a565b6148f28282614329565b6148fb81614c22565b5050565b60008060007fc5d2460186f7233c927e7db2dcc703c0e500b653ca82273b7bfad8045d85a47060001b9050833f915080821415801561494157506000801b8214155b92505050919050565b60008383111582906149f7576040517f08c379a00000000000000000000000000000000000000000000000000000000081526004018080602001828103825283818151815260200191508051906020019080838360005b838110156149bc5780820151818401526020810190506149a1565b50505050905090810190601f1680156149e95780820380516001836020036101000a031916815260200191505b509250505060405180910390fd5b5060008385039050809150509392505050565b600073ffffffffffffffffffffffffffffffffffffffff168273ffffffffffffffffffffffffffffffffffffffff161415614aad576040517f08c379a00000000000000000000000000000000000000000000000000000000081526004018080602001828103825260208152602001807f4552433732313a206d696e7420746f20746865207a65726f206164647265737381525060200191505060405180910390fd5b614ab6816138ad565b15614b29576040517f08c379a000000000000000000000000000000000000000000000000000000000815260040180806020018281038252601c8152602001807f4552433732313a20746f6b656e20616c7265616479206d696e7465640000000081525060200191505060405180910390fd5b816001600083815260200190815260200160002060006101000a81548173ffffffffffffffffffffffffffffffffffffffff021916908373ffffffffffffffffffffffffffffffffffffffff160217905550614bc2600360008473ffffffffffffffffffffffffffffffffffffffff1673ffffffffffffffffffffffffffffffffffffffff16815260200190815260200160002061487e565b808273ffffffffffffffffffffffffffffffffffffffff16600073ffffffffffffffffffffffffffffffffffffffff167fddf252ad1be2c89b69c2b068fc378daa952ba7f163c4a11628f55a4df523b3ef60405160405180910390a45050565b6007805490506008600083815260200190815260200160002081905550600781908060018154018082558091505090600182039060005260206000200160009091929091909150555050565b8260038101928215614c9d579160200282015b82811115614c9c578251825591602001919060010190614c81565b5b509050614caa9190614e05565b5090565b8260038101928215614cdd579160200282015b82811115614cdc578251825591602001919060010190614cc1565b5b509050614cea9190614e2a565b5090565b6040518060600160405280600390602082028038833980820191505090505090565b6040518060600160405280600390602082028038833980820191505090505090565b6040518060a001604052806005905b6060815260200190600190039081614d415790505090565b828054600181600116156101000203166002900490600052602060002090601f016020900481019282601f10614d9a57805160ff1916838001178555614dc8565b82800160010185558215614dc8579182015b82811115614dc7578251825591602001919060010190614dac565b5b509050614dd59190614e2a565b5090565b815481835581811115614e0057818360005260206000209182019101614dff9190614e2a565b5b505050565b614e2791905b80821115614e23576000816000905550600101614e0b565b5090565b90565b614e4c91905b80821115614e48576000816000905550600101614e30565b5090565b9056fe3c73766720786d6c6e733d22687474703a2f2f7777772e77332e6f72672f323030302f73766722207072657365727665417370656374526174696f3d22784d696e594d696e206d656574222076696577426f783d223020302033353020333530223e3c7374796c653e2e62617365207b2066696c6c3a2077686974653b20666f6e742d66616d696c793a2073657269663b20666f6e742d73697a653a20313070783b207d3c2f7374796c653e3c726563742077696474683d223130302522206865696768743d2231303025222066696c6c3d22626c61636b22202f3e3c7465787420783d2231302220793d2232302220636c6173733d2262617365223e455243373231456e756d657261626c653a206f776e657220696e646578206f7574206f6620626f756e64734552433732313a207472616e7366657220746f206e6f6e20455243373231526563656976657220696d706c656d656e7465724f776e61626c653a206e6577206f776e657220697320746865207a65726f20616464726573732c22696d616765223a2022646174613a696d6167652f7376672b786d6c3b6261736536342c226465736372697074696f6e223a2022547275737465642076626174206c6f6f742069732061207265616c20776f726c6420646174612073746f726564206f6e20636861696e2e2053746174732c20696d616765732c20616e64206f746865722066756e6374696f6e616c6974792061726520696e74656e74696f6e616c6c79206f6d697474656420666f72206f746865727320746f20696e746572707265742e204665656c206672656520746f2075736520506562626c65204c6f6f7420696e20616e792077617920796f752077616e742e224552433732313a207472616e7366657220746f20746865207a65726f20616464726573734552433732313a20736574206861736820717565727920666f72206e6f6e6578697374656e7420746f6b656e4552433732313a206f70657261746f7220717565727920666f72206e6f6e6578697374656e7420746f6b656e4552433732313a20617070726f76652063616c6c6572206973206e6f74206f776e6572206e6f7220617070726f76656420666f7220616c6c4552433732313a2062616c616e636520717565727920666f7220746865207a65726f20616464726573734552433732313a206f776e657220717565727920666f72206e6f6e6578697374656e7420746f6b656e4142434445464748494a4b4c4d4e4f505152535455565758595a6162636465666768696a6b6c6d6e6f707172737475767778797a303132333435363738392b2f4552433732313a20617070726f76656420717565727920666f72206e6f6e6578697374656e7420746f6b656e4552433732313a207472616e73666572206f6620746f6b656e2074686174206973206e6f74206f776e546869732064617461706f696e7420686173206265656e206d696e74656420616c72656164794552433732313a20617070726f76616c20746f2063757272656e74206f776e65724552433732313a207472616e736665722063616c6c6572206973206e6f74206f776e6572206e6f7220617070726f766564455243373231456e756d657261626c653a20676c6f62616c20696e646578206f7574206f6620626f756e64733c2f746578743e3c7465787420783d2231302220793d2234302220636c6173733d2262617365223ea265627a7a7231582078d40581e1973fecf5107f4a8a175976654ac5f6be6358b7cd2060d03879806e64736f6c634300050d0032",
  "source": "// SPDX-License-Identifier: MIT\npragma solidity ^0.5.13;\n\nimport \"./TrustedDataLoot.sol\";\n\ncontract TrustedVbat is TrustedDataLoot {\n  function setTokenVBAT(\n    uint256 tokenId,\n    uint256 vbat\n  )\n  public onlyExistedToken(tokenId) onlyTokenOwnerOrApproved(tokenId) {\n    _tokenToTrustedRecord[tokenId].vbat = vbat;\n  }\n\n  function getVbat(uint256 tokenId) public view returns (uint256 vbat) {\n    vbat = _tokenToTrustedRecord[tokenId].vbat;\n  }\n\n  function tokenURI(uint256 tokenId) public view onlyExistedToken(tokenId) returns (string memory) {\n    string[5] memory parts;\n\n    parts[0] = '<svg xmlns=\"http://www.w3.org/2000/svg\" preserveAspectRatio=\"xMinYMin meet\" viewBox=\"0 0 350 350\"><style>.base { fill: white; font-family: serif; font-size: 10px; }</style><rect width=\"100%\" height=\"100%\" fill=\"black\" /><text x=\"10\" y=\"20\" class=\"base\">';\n\n    parts[1] = string(abi.encodePacked('0x', getDataHash(tokenId)));\n\n    parts[2] = '</text><text x=\"10\" y=\"40\" class=\"base\">';\n\n    parts[3] = string(abi.encodePacked('vbat: ', toString(getVbat(tokenId))));\n\n    parts[4] = '</text></svg>';\n\n    string memory output = string(abi.encodePacked(parts[0], parts[1], parts[2], parts[3], parts[4]));\n\n    string memory name = string(abi.encodePacked('\"name\": \"Trusted VBAT Loot #', toString(tokenId), '\"'));\n    string memory description = string(abi.encodePacked('\"description\": \"Trusted vbat loot is a real world data stored on chain. Stats, images, and other functionality are intentionally omitted for others to interpret. Feel free to use Pebble Loot in any way you want.\"'));\n\n    string memory json = Base64.encode(bytes(string(abi.encodePacked('{', name, ',', description, ',\"image\": \"data:image/svg+xml;base64,', Base64.encode(bytes(output)), '\"}'))));\n    output = string(abi.encodePacked('data:application/json;base64,', json));\n\n    return output;\n  }\n\n  constructor(string memory name, string memory symbol) TrustedDataLoot(name, symbol) public {}\n}\n",
  "sourcePath": "/Users/nikitushka/ZhouDev/gitcoin/iotex/pebble-loots/contracts/TrustedVbat.sol",
  "compiler": {
    "name": "solc",
    "version": "0.5.13+commit.5b0b510c.Emscripten.clang"
  },
  "schemaVersion": "3.4.3",
  "updatedAt": "2021-09-29T07:38:22.035Z",
  "networkType": "ethereum",
  "devdoc": {
    "methods": {
      "approve(address,uint256)": {
        "details": "Approves another address to transfer the given token ID The zero address indicates there is no approved address. There can only be one approved address per token at a given time. Can only be called by the token owner or an approved operator.",
        "params": {
          "to": "address to be approved for the given token ID",
          "tokenId": "uint256 ID of the token to be approved"
        }
      },
      "balanceOf(address)": {
        "details": "Gets the balance of the specified address.",
        "params": {
          "owner": "address to query the balance of"
        },
        "return": "uint256 representing the amount owned by the passed address"
      },
      "baseURI()": {
        "details": "Returns the base URI set via {_setBaseURI}. This will be automatically added as a preffix in {tokenURI} to each token's URI, when they are non-empty.    * _Available since v2.5.0._"
      },
      "getApproved(uint256)": {
        "details": "Gets the approved address for a token ID, or zero if no address set Reverts if the token ID does not exist.",
        "params": {
          "tokenId": "uint256 ID of the token to query the approval of"
        },
        "return": "address currently approved for the given token ID"
      },
      "isApprovedForAll(address,address)": {
        "details": "Tells whether an operator is approved by a given owner.",
        "params": {
          "operator": "operator address which you want to query the approval of",
          "owner": "owner address which you want to query the approval of"
        },
        "return": "bool whether the given operator is approved by the given owner"
      },
      "isOwner()": {
        "details": "Returns true if the caller is the current owner."
      },
      "name()": {
        "details": "Gets the token name.",
        "return": "string representing the token name"
      },
      "owner()": {
        "details": "Returns the address of the current owner."
      },
      "ownerOf(uint256)": {
        "details": "Gets the owner of the specified token ID.",
        "params": {
          "tokenId": "uint256 ID of the token to query the owner of"
        },
        "return": "address currently marked as the owner of the given token ID"
      },
      "renounceOwnership()": {
        "details": "Leaves the contract without owner. It will not be possible to call `onlyOwner` functions anymore. Can only be called by the current owner.     * NOTE: Renouncing ownership will leave the contract without an owner, thereby removing any functionality that is only available to the owner."
      },
      "safeTransferFrom(address,address,uint256)": {
        "details": "Safely transfers the ownership of a given token ID to another address If the target address is a contract, it must implement {IERC721Receiver-onERC721Received}, which is called upon a safe transfer, and return the magic value `bytes4(keccak256(\"onERC721Received(address,address,uint256,bytes)\"))`; otherwise, the transfer is reverted. Requires the msg.sender to be the owner, approved, or operator",
        "params": {
          "from": "current owner of the token",
          "to": "address to receive the ownership of the given token ID",
          "tokenId": "uint256 ID of the token to be transferred"
        }
      },
      "safeTransferFrom(address,address,uint256,bytes)": {
        "details": "Safely transfers the ownership of a given token ID to another address If the target address is a contract, it must implement {IERC721Receiver-onERC721Received}, which is called upon a safe transfer, and return the magic value `bytes4(keccak256(\"onERC721Received(address,address,uint256,bytes)\"))`; otherwise, the transfer is reverted. Requires the _msgSender() to be the owner, approved, or operator",
        "params": {
          "_data": "bytes data to send along with a safe transfer check",
          "from": "current owner of the token",
          "to": "address to receive the ownership of the given token ID",
          "tokenId": "uint256 ID of the token to be transferred"
        }
      },
      "setApprovalForAll(address,bool)": {
        "details": "Sets or unsets the approval of a given operator An operator is allowed to transfer all tokens of the sender on their behalf.",
        "params": {
          "approved": "representing the status of the approval to be set",
          "to": "operator address to set the approval"
        }
      },
      "supportsInterface(bytes4)": {
        "details": "See {IERC165-supportsInterface}.     * Time complexity O(1), guaranteed to always use less than 30 000 gas."
      },
      "symbol()": {
        "details": "Gets the token symbol.",
        "return": "string representing the token symbol"
      },
      "tokenByIndex(uint256)": {
        "details": "Gets the token ID at a given index of all the tokens in this contract Reverts if the index is greater or equal to the total number of tokens.",
        "params": {
          "index": "uint256 representing the index to be accessed of the tokens list"
        },
        "return": "uint256 token ID at the given index of the tokens list"
      },
      "tokenOfOwnerByIndex(address,uint256)": {
        "details": "Gets the token ID at a given index of the tokens list of the requested owner.",
        "params": {
          "index": "uint256 representing the index to be accessed of the requested tokens list",
          "owner": "address owning the tokens list to be accessed"
        },
        "return": "uint256 token ID at the given index of the tokens list owned by the requested address"
      },
      "totalSupply()": {
        "details": "Gets the total amount of tokens stored by the contract.",
        "return": "uint256 representing the total amount of tokens"
      },
      "transferFrom(address,address,uint256)": {
        "details": "Transfers the ownership of a given token ID to another address. Usage of this method is discouraged, use {safeTransferFrom} whenever possible. Requires the msg.sender to be the owner, approved, or operator.",
        "params": {
          "from": "current owner of the token",
          "to": "address to receive the ownership of the given token ID",
          "tokenId": "uint256 ID of the token to be transferred"
        }
      },
      "transferOwnership(address)": {
        "details": "Transfers ownership of the contract to a new account (`newOwner`). Can only be called by the current owner."
      }
    }
  },
  "userdoc": {
    "methods": {}
  }
}