{
  "_format": "hh-sol-artifact-1",
  "contractName": "PebbleDataPoint",
  "sourceName": "contracts/PebbleDataPoint.sol",
  "abi": [
    {
      "inputs": [
        {
          "internalType": "contract PebbleToken",
          "name": "_pbl",
          "type": "address"
        },
        {
          "internalType": "uint256",
          "name": "_burnMultiplier",
          "type": "uint256"
        }
      ],
      "stateMutability": "nonpayable",
      "type": "constructor"
    },
    {
      "anonymous": false,
      "inputs": [
        {
          "indexed": true,
          "internalType": "address",
          "name": "owner",
          "type": "address"
        },
        {
          "indexed": true,
          "internalType": "address",
          "name": "approved",
          "type": "address"
        },
        {
          "indexed": true,
          "internalType": "uint256",
          "name": "tokenId",
          "type": "uint256"
        }
      ],
      "name": "Approval",
      "type": "event"
    },
    {
      "anonymous": false,
      "inputs": [
        {
          "indexed": true,
          "internalType": "address",
          "name": "owner",
          "type": "address"
        },
        {
          "indexed": true,
          "internalType": "address",
          "name": "operator",
          "type": "address"
        },
        {
          "indexed": false,
          "internalType": "bool",
          "name": "approved",
          "type": "bool"
        }
      ],
      "name": "ApprovalForAll",
      "type": "event"
    },
    {
      "anonymous": false,
      "inputs": [
        {
          "indexed": true,
          "internalType": "address",
          "name": "previousOwner",
          "type": "address"
        },
        {
          "indexed": true,
          "internalType": "address",
          "name": "newOwner",
          "type": "address"
        }
      ],
      "name": "OwnershipTransferred",
      "type": "event"
    },
    {
      "anonymous": false,
      "inputs": [
        {
          "indexed": true,
          "internalType": "address",
          "name": "to",
          "type": "address"
        },
        {
          "indexed": true,
          "internalType": "uint256",
          "name": "tokenId",
          "type": "uint256"
        }
      ],
      "name": "TokenMinted",
      "type": "event"
    },
    {
      "anonymous": false,
      "inputs": [
        {
          "indexed": true,
          "internalType": "address",
          "name": "from",
          "type": "address"
        },
        {
          "indexed": true,
          "internalType": "address",
          "name": "to",
          "type": "address"
        },
        {
          "indexed": true,
          "internalType": "uint256",
          "name": "tokenId",
          "type": "uint256"
        }
      ],
      "name": "Transfer",
      "type": "event"
    },
    {
      "inputs": [
        {
          "internalType": "address",
          "name": "to",
          "type": "address"
        },
        {
          "internalType": "uint256",
          "name": "tokenId",
          "type": "uint256"
        }
      ],
      "name": "approve",
      "outputs": [],
      "stateMutability": "nonpayable",
      "type": "function"
    },
    {
      "inputs": [
        {
          "internalType": "address",
          "name": "owner",
          "type": "address"
        }
      ],
      "name": "balanceOf",
      "outputs": [
        {
          "internalType": "uint256",
          "name": "",
          "type": "uint256"
        }
      ],
      "stateMutability": "view",
      "type": "function"
    },
    {
      "inputs": [],
      "name": "burnMultiplier",
      "outputs": [
        {
          "internalType": "uint256",
          "name": "",
          "type": "uint256"
        }
      ],
      "stateMutability": "view",
      "type": "function"
    },
    {
      "inputs": [
        {
          "internalType": "uint256",
          "name": "tokenId",
          "type": "uint256"
        }
      ],
      "name": "getApproved",
      "outputs": [
        {
          "internalType": "address",
          "name": "",
          "type": "address"
        }
      ],
      "stateMutability": "view",
      "type": "function"
    },
    {
      "inputs": [
        {
          "internalType": "address",
          "name": "owner",
          "type": "address"
        },
        {
          "internalType": "address",
          "name": "operator",
          "type": "address"
        }
      ],
      "name": "isApprovedForAll",
      "outputs": [
        {
          "internalType": "bool",
          "name": "",
          "type": "bool"
        }
      ],
      "stateMutability": "view",
      "type": "function"
    },
    {
      "inputs": [],
      "name": "name",
      "outputs": [
        {
          "internalType": "string",
          "name": "",
          "type": "string"
        }
      ],
      "stateMutability": "view",
      "type": "function"
    },
    {
      "inputs": [],
      "name": "owner",
      "outputs": [
        {
          "internalType": "address",
          "name": "",
          "type": "address"
        }
      ],
      "stateMutability": "view",
      "type": "function"
    },
    {
      "inputs": [
        {
          "internalType": "uint256",
          "name": "tokenId",
          "type": "uint256"
        }
      ],
      "name": "ownerOf",
      "outputs": [
        {
          "internalType": "address",
          "name": "",
          "type": "address"
        }
      ],
      "stateMutability": "view",
      "type": "function"
    },
    {
      "inputs": [],
      "name": "pbl",
      "outputs": [
        {
          "internalType": "contract PebbleToken",
          "name": "",
          "type": "address"
        }
      ],
      "stateMutability": "view",
      "type": "function"
    },
    {
      "inputs": [],
      "name": "renounceOwnership",
      "outputs": [],
      "stateMutability": "nonpayable",
      "type": "function"
    },
    {
      "inputs": [
        {
          "internalType": "address",
          "name": "to",
          "type": "address"
        },
        {
          "components": [
            {
              "internalType": "string",
              "name": "snr",
              "type": "string"
            },
            {
              "internalType": "string",
              "name": "vbat",
              "type": "string"
            },
            {
              "internalType": "string",
              "name": "latitude",
              "type": "string"
            },
            {
              "internalType": "string",
              "name": "longitude",
              "type": "string"
            },
            {
              "internalType": "string",
              "name": "gasResistance",
              "type": "string"
            },
            {
              "internalType": "string",
              "name": "temperature",
              "type": "string"
            },
            {
              "internalType": "string",
              "name": "pressure",
              "type": "string"
            },
            {
              "internalType": "string",
              "name": "humidity",
              "type": "string"
            },
            {
              "internalType": "string",
              "name": "light",
              "type": "string"
            },
            {
              "internalType": "string",
              "name": "gyroscope",
              "type": "string"
            },
            {
              "internalType": "string",
              "name": "accelerometer",
              "type": "string"
            },
            {
              "internalType": "string",
              "name": "timestamp",
              "type": "string"
            }
          ],
          "internalType": "struct PebbleDataPoint.DataPoint",
          "name": "dataPoint",
          "type": "tuple"
        }
      ],
      "name": "safeMint",
      "outputs": [],
      "stateMutability": "nonpayable",
      "type": "function"
    },
    {
      "inputs": [
        {
          "internalType": "address",
          "name": "from",
          "type": "address"
        },
        {
          "internalType": "address",
          "name": "to",
          "type": "address"
        },
        {
          "internalType": "uint256",
          "name": "tokenId",
          "type": "uint256"
        }
      ],
      "name": "safeTransferFrom",
      "outputs": [],
      "stateMutability": "nonpayable",
      "type": "function"
    },
    {
      "inputs": [
        {
          "internalType": "address",
          "name": "from",
          "type": "address"
        },
        {
          "internalType": "address",
          "name": "to",
          "type": "address"
        },
        {
          "internalType": "uint256",
          "name": "tokenId",
          "type": "uint256"
        },
        {
          "internalType": "bytes",
          "name": "_data",
          "type": "bytes"
        }
      ],
      "name": "safeTransferFrom",
      "outputs": [],
      "stateMutability": "nonpayable",
      "type": "function"
    },
    {
      "inputs": [
        {
          "internalType": "address",
          "name": "operator",
          "type": "address"
        },
        {
          "internalType": "bool",
          "name": "approved",
          "type": "bool"
        }
      ],
      "name": "setApprovalForAll",
      "outputs": [],
      "stateMutability": "nonpayable",
      "type": "function"
    },
    {
      "inputs": [
        {
          "internalType": "bytes4",
          "name": "interfaceId",
          "type": "bytes4"
        }
      ],
      "name": "supportsInterface",
      "outputs": [
        {
          "internalType": "bool",
          "name": "",
          "type": "bool"
        }
      ],
      "stateMutability": "view",
      "type": "function"
    },
    {
      "inputs": [],
      "name": "symbol",
      "outputs": [
        {
          "internalType": "string",
          "name": "",
          "type": "string"
        }
      ],
      "stateMutability": "view",
      "type": "function"
    },
    {
      "inputs": [
        {
          "internalType": "uint256",
          "name": "",
          "type": "uint256"
        }
      ],
      "name": "tokenToDataPoint",
      "outputs": [
        {
          "internalType": "string",
          "name": "snr",
          "type": "string"
        },
        {
          "internalType": "string",
          "name": "vbat",
          "type": "string"
        },
        {
          "internalType": "string",
          "name": "latitude",
          "type": "string"
        },
        {
          "internalType": "string",
          "name": "longitude",
          "type": "string"
        },
        {
          "internalType": "string",
          "name": "gasResistance",
          "type": "string"
        },
        {
          "internalType": "string",
          "name": "temperature",
          "type": "string"
        },
        {
          "internalType": "string",
          "name": "pressure",
          "type": "string"
        },
        {
          "internalType": "string",
          "name": "humidity",
          "type": "string"
        },
        {
          "internalType": "string",
          "name": "light",
          "type": "string"
        },
        {
          "internalType": "string",
          "name": "gyroscope",
          "type": "string"
        },
        {
          "internalType": "string",
          "name": "accelerometer",
          "type": "string"
        },
        {
          "internalType": "string",
          "name": "timestamp",
          "type": "string"
        }
      ],
      "stateMutability": "view",
      "type": "function"
    },
    {
      "inputs": [
        {
          "internalType": "uint256",
          "name": "",
          "type": "uint256"
        }
      ],
      "name": "tokenToHashPower",
      "outputs": [
        {
          "internalType": "uint8",
          "name": "",
          "type": "uint8"
        }
      ],
      "stateMutability": "view",
      "type": "function"
    },
    {
      "inputs": [
        {
          "internalType": "uint256",
          "name": "tokenId",
          "type": "uint256"
        }
      ],
      "name": "tokenURI",
      "outputs": [
        {
          "internalType": "string",
          "name": "",
          "type": "string"
        }
      ],
      "stateMutability": "view",
      "type": "function"
    },
    {
      "inputs": [
        {
          "internalType": "address",
          "name": "from",
          "type": "address"
        },
        {
          "internalType": "address",
          "name": "to",
          "type": "address"
        },
        {
          "internalType": "uint256",
          "name": "tokenId",
          "type": "uint256"
        }
      ],
      "name": "transferFrom",
      "outputs": [],
      "stateMutability": "nonpayable",
      "type": "function"
    },
    {
      "inputs": [
        {
          "internalType": "address",
          "name": "newOwner",
          "type": "address"
        }
      ],
      "name": "transferOwnership",
      "outputs": [],
      "stateMutability": "nonpayable",
      "type": "function"
    }
  ],
  "bytecode": "0x60806040523480156200001157600080fd5b5060405162004516380380620045168339818101604052810190620000379190620002f3565b6040518060400160405280600f81526020017f506562626c6544617461506f696e7400000000000000000000000000000000008152506040518060400160405280600381526020017f50445000000000000000000000000000000000000000000000000000000000008152508160009080519060200190620000bb92919062000215565b508060019080519060200190620000d492919062000215565b505050620000f7620000eb6200014760201b60201c565b6200014f60201b60201c565b81600860006101000a81548173ffffffffffffffffffffffffffffffffffffffff021916908373ffffffffffffffffffffffffffffffffffffffff1602179055508060098190555050506200041f565b600033905090565b6000600760009054906101000a900473ffffffffffffffffffffffffffffffffffffffff16905081600760006101000a81548173ffffffffffffffffffffffffffffffffffffffff021916908373ffffffffffffffffffffffffffffffffffffffff1602179055508173ffffffffffffffffffffffffffffffffffffffff168173ffffffffffffffffffffffffffffffffffffffff167f8be0079c531659141344cd1fd0a4f28419497f9722a3daafe3b4186f6b6457e060405160405180910390a35050565b828054620002239062000386565b90600052602060002090601f01602090048101928262000247576000855562000293565b82601f106200026257805160ff191683800117855562000293565b8280016001018555821562000293579182015b828111156200029257825182559160200191906001019062000275565b5b509050620002a29190620002a6565b5090565b5b80821115620002c1576000816000905550600101620002a7565b5090565b600081519050620002d681620003eb565b92915050565b600081519050620002ed8162000405565b92915050565b600080604083850312156200030757600080fd5b60006200031785828601620002c5565b92505060206200032a85828601620002dc565b9150509250929050565b600062000341826200035c565b9050919050565b6000620003558262000334565b9050919050565b600073ffffffffffffffffffffffffffffffffffffffff82169050919050565b6000819050919050565b600060028204905060018216806200039f57607f821691505b60208210811415620003b657620003b5620003bc565b5b50919050565b7f4e487b7100000000000000000000000000000000000000000000000000000000600052602260045260246000fd5b620003f68162000348565b81146200040257600080fd5b50565b62000410816200037c565b81146200041c57600080fd5b50565b6140e7806200042f6000396000f3fe608060405234801561001057600080fd5b50600436106101375760003560e01c80636352211e116100b857806395d89b411161007c57806395d89b4114610359578063a22cb46514610377578063b88d4fde14610393578063c87b56dd146103af578063e985e9c5146103df578063f2fde38b1461040f57610137565b80636352211e146102b557806369468c37146102e557806370a0823114610301578063715018a6146103315780638da5cb5b1461033b57610137565b806323b872dd116100ff57806323b872dd146102115780633939a8971461022d57806342842e0e1461024b57806348083bba146102675780635e3d9df11461028557610137565b806301ffc9a71461013c57806305ad0f981461016c57806306fdde03146101a7578063081812fc146101c5578063095ea7b3146101f5575b600080fd5b61015660048036038101906101519190612dea565b61042b565b604051610163919061335b565b60405180910390f35b61018660048036038101906101819190612e3c565b61050d565b60405161019e9c9b9a999897969594939291906133b3565b60405180910390f35b6101af610bcd565b6040516101bc9190613391565b60405180910390f35b6101df60048036038101906101da9190612e3c565b610c5f565b6040516101ec91906132cb565b60405180910390f35b61020f600480360381019061020a9190612dae565b610ce4565b005b61022b60048036038101906102269190612c54565b610dfc565b005b610235610e5c565b6040516102429190613701565b60405180910390f35b61026560048036038101906102609190612c54565b610e62565b005b61026f610e82565b60405161027c9190613376565b60405180910390f35b61029f600480360381019061029a9190612e3c565b610ea8565b6040516102ac919061371c565b60405180910390f35b6102cf60048036038101906102ca9190612e3c565b610ec8565b6040516102dc91906132cb565b60405180910390f35b6102ff60048036038101906102fa9190612d5a565b610f7a565b005b61031b60048036038101906103169190612bef565b611338565b6040516103289190613701565b60405180910390f35b6103396113f0565b005b610343611478565b60405161035091906132cb565b60405180910390f35b6103616114a2565b60405161036e9190613391565b60405180910390f35b610391600480360381019061038c9190612d1e565b611534565b005b6103ad60048036038101906103a89190612ca3565b6116b5565b005b6103c960048036038101906103c49190612e3c565b611717565b6040516103d69190613391565b60405180910390f35b6103f960048036038101906103f49190612c18565b611729565b604051610406919061335b565b60405180910390f35b61042960048036038101906104249190612bef565b6117bd565b005b60007f80ac58cd000000000000000000000000000000000000000000000000000000007bffffffffffffffffffffffffffffffffffffffffffffffffffffffff1916827bffffffffffffffffffffffffffffffffffffffffffffffffffffffff191614806104f657507f5b5e139f000000000000000000000000000000000000000000000000000000007bffffffffffffffffffffffffffffffffffffffffffffffffffffffff1916827bffffffffffffffffffffffffffffffffffffffffffffffffffffffff1916145b806105065750610505826118b5565b5b9050919050565b600a602052806000526040600020600091509050806000018054610530906139b5565b80601f016020809104026020016040519081016040528092919081815260200182805461055c906139b5565b80156105a95780601f1061057e576101008083540402835291602001916105a9565b820191906000526020600020905b81548152906001019060200180831161058c57829003601f168201915b5050505050908060010180546105be906139b5565b80601f01602080910402602001604051908101604052809291908181526020018280546105ea906139b5565b80156106375780601f1061060c57610100808354040283529160200191610637565b820191906000526020600020905b81548152906001019060200180831161061a57829003601f168201915b50505050509080600201805461064c906139b5565b80601f0160208091040260200160405190810160405280929190818152602001828054610678906139b5565b80156106c55780601f1061069a576101008083540402835291602001916106c5565b820191906000526020600020905b8154815290600101906020018083116106a857829003601f168201915b5050505050908060030180546106da906139b5565b80601f0160208091040260200160405190810160405280929190818152602001828054610706906139b5565b80156107535780601f1061072857610100808354040283529160200191610753565b820191906000526020600020905b81548152906001019060200180831161073657829003601f168201915b505050505090806004018054610768906139b5565b80601f0160208091040260200160405190810160405280929190818152602001828054610794906139b5565b80156107e15780601f106107b6576101008083540402835291602001916107e1565b820191906000526020600020905b8154815290600101906020018083116107c457829003601f168201915b5050505050908060050180546107f6906139b5565b80601f0160208091040260200160405190810160405280929190818152602001828054610822906139b5565b801561086f5780601f106108445761010080835404028352916020019161086f565b820191906000526020600020905b81548152906001019060200180831161085257829003601f168201915b505050505090806006018054610884906139b5565b80601f01602080910402602001604051908101604052809291908181526020018280546108b0906139b5565b80156108fd5780601f106108d2576101008083540402835291602001916108fd565b820191906000526020600020905b8154815290600101906020018083116108e057829003601f168201915b505050505090806007018054610912906139b5565b80601f016020809104026020016040519081016040528092919081815260200182805461093e906139b5565b801561098b5780601f106109605761010080835404028352916020019161098b565b820191906000526020600020905b81548152906001019060200180831161096e57829003601f168201915b5050505050908060080180546109a0906139b5565b80601f01602080910402602001604051908101604052809291908181526020018280546109cc906139b5565b8015610a195780601f106109ee57610100808354040283529160200191610a19565b820191906000526020600020905b8154815290600101906020018083116109fc57829003601f168201915b505050505090806009018054610a2e906139b5565b80601f0160208091040260200160405190810160405280929190818152602001828054610a5a906139b5565b8015610aa75780601f10610a7c57610100808354040283529160200191610aa7565b820191906000526020600020905b815481529060010190602001808311610a8a57829003601f168201915b50505050509080600a018054610abc906139b5565b80601f0160208091040260200160405190810160405280929190818152602001828054610ae8906139b5565b8015610b355780601f10610b0a57610100808354040283529160200191610b35565b820191906000526020600020905b815481529060010190602001808311610b1857829003601f168201915b50505050509080600b018054610b4a906139b5565b80601f0160208091040260200160405190810160405280929190818152602001828054610b76906139b5565b8015610bc35780601f10610b9857610100808354040283529160200191610bc3565b820191906000526020600020905b815481529060010190602001808311610ba657829003601f168201915b505050505090508c565b606060008054610bdc906139b5565b80601f0160208091040260200160405190810160405280929190818152602001828054610c08906139b5565b8015610c555780601f10610c2a57610100808354040283529160200191610c55565b820191906000526020600020905b815481529060010190602001808311610c3857829003601f168201915b5050505050905090565b6000610c6a8261191f565b610ca9576040517f08c379a0000000000000000000000000000000000000000000000000000000008152600401610ca090613641565b60405180910390fd5b6004600083815260200190815260200160002060009054906101000a900473ffffffffffffffffffffffffffffffffffffffff169050919050565b6000610cef82610ec8565b90508073ffffffffffffffffffffffffffffffffffffffff168373ffffffffffffffffffffffffffffffffffffffff161415610d60576040517f08c379a0000000000000000000000000000000000000000000000000000000008152600401610d57906136c1565b60405180910390fd5b8073ffffffffffffffffffffffffffffffffffffffff16610d7f61198b565b73ffffffffffffffffffffffffffffffffffffffff161480610dae5750610dad81610da861198b565b611729565b5b610ded576040517f08c379a0000000000000000000000000000000000000000000000000000000008152600401610de4906135a1565b60405180910390fd5b610df78383611993565b505050565b610e0d610e0761198b565b82611a4c565b610e4c576040517f08c379a0000000000000000000000000000000000000000000000000000000008152600401610e43906136e1565b60405180910390fd5b610e57838383611b2a565b505050565b60095481565b610e7d838383604051806020016040528060008152506116b5565b505050565b600860009054906101000a900473ffffffffffffffffffffffffffffffffffffffff1681565b600b6020528060005260406000206000915054906101000a900460ff1681565b6000806002600084815260200190815260200160002060009054906101000a900473ffffffffffffffffffffffffffffffffffffffff169050600073ffffffffffffffffffffffffffffffffffffffff168173ffffffffffffffffffffffffffffffffffffffff161415610f71576040517f08c379a0000000000000000000000000000000000000000000000000000000008152600401610f68906135e1565b60405180910390fd5b80915050919050565b6000610f8582611d86565b90508060ff16600860009054906101000a900473ffffffffffffffffffffffffffffffffffffffff1673ffffffffffffffffffffffffffffffffffffffff166370a08231610fd161198b565b6040518263ffffffff1660e01b8152600401610fed91906132cb565b60206040518083038186803b15801561100557600080fd5b505afa158015611019573d6000803e3d6000fd5b505050506040513d601f19601f8201168201806040525081019061103d9190612e65565b101561107e576040517f08c379a000000000000000000000000000000000000000000000000000000000815260040161107590613521565b60405180910390fd5b600860009054906101000a900473ffffffffffffffffffffffffffffffffffffffff1673ffffffffffffffffffffffffffffffffffffffff166379cc67906110c461198b565b836040518363ffffffff1660e01b81526004016110e2929190613332565b600060405180830381600087803b1580156110fc57600080fd5b505af1158015611110573d6000803e3d6000fd5b5050505061112783611122600c611eb1565b611ebf565b81600a6000611136600c611eb1565b815260200190815260200160002060008201518160000190805190602001906111609291906127c0565b50602082015181600101908051906020019061117d9291906127c0565b50604082015181600201908051906020019061119a9291906127c0565b5060608201518160030190805190602001906111b79291906127c0565b5060808201518160040190805190602001906111d49291906127c0565b5060a08201518160050190805190602001906111f19291906127c0565b5060c082015181600601908051906020019061120e9291906127c0565b5060e082015181600701908051906020019061122b9291906127c0565b506101008201518160080190805190602001906112499291906127c0565b506101208201518160090190805190602001906112679291906127c0565b5061014082015181600a0190805190602001906112859291906127c0565b5061016082015181600b0190805190602001906112a39291906127c0565b5090505080600b60006112b6600c611eb1565b815260200190815260200160002060006101000a81548160ff021916908360ff1602179055506112e6600c611eb1565b8373ffffffffffffffffffffffffffffffffffffffff167fb9144c96c86541f6fa89c9f2f02495cccf4b08cd6643e26d34ee00aa586558a860405160405180910390a3611333600c611edd565b505050565b60008073ffffffffffffffffffffffffffffffffffffffff168273ffffffffffffffffffffffffffffffffffffffff1614156113a9576040517f08c379a00000000000000000000000000000000000000000000000000000000081526004016113a0906135c1565b60405180910390fd5b600360008373ffffffffffffffffffffffffffffffffffffffff1673ffffffffffffffffffffffffffffffffffffffff168152602001908152602001600020549050919050565b6113f861198b565b73ffffffffffffffffffffffffffffffffffffffff16611416611478565b73ffffffffffffffffffffffffffffffffffffffff161461146c576040517f08c379a000000000000000000000000000000000000000000000000000000000815260040161146390613661565b60405180910390fd5b6114766000611ef3565b565b6000600760009054906101000a900473ffffffffffffffffffffffffffffffffffffffff16905090565b6060600180546114b1906139b5565b80601f01602080910402602001604051908101604052809291908181526020018280546114dd906139b5565b801561152a5780601f106114ff5761010080835404028352916020019161152a565b820191906000526020600020905b81548152906001019060200180831161150d57829003601f168201915b5050505050905090565b61153c61198b565b73ffffffffffffffffffffffffffffffffffffffff168273ffffffffffffffffffffffffffffffffffffffff1614156115aa576040517f08c379a00000000000000000000000000000000000000000000000000000000081526004016115a190613561565b60405180910390fd5b80600560006115b761198b565b73ffffffffffffffffffffffffffffffffffffffff1673ffffffffffffffffffffffffffffffffffffffff16815260200190815260200160002060008473ffffffffffffffffffffffffffffffffffffffff1673ffffffffffffffffffffffffffffffffffffffff16815260200190815260200160002060006101000a81548160ff0219169083151502179055508173ffffffffffffffffffffffffffffffffffffffff1661166461198b565b73ffffffffffffffffffffffffffffffffffffffff167f17307eab39ab6107e8899845ad3d59bd9653f200f220920489ca2b5937696c31836040516116a9919061335b565b60405180910390a35050565b6116c66116c061198b565b83611a4c565b611705576040517f08c379a00000000000000000000000000000000000000000000000000000000081526004016116fc906136e1565b60405180910390fd5b61171184848484611fb9565b50505050565b606061172282612015565b9050919050565b6000600560008473ffffffffffffffffffffffffffffffffffffffff1673ffffffffffffffffffffffffffffffffffffffff16815260200190815260200160002060008373ffffffffffffffffffffffffffffffffffffffff1673ffffffffffffffffffffffffffffffffffffffff16815260200190815260200160002060009054906101000a900460ff16905092915050565b6117c561198b565b73ffffffffffffffffffffffffffffffffffffffff166117e3611478565b73ffffffffffffffffffffffffffffffffffffffff1614611839576040517f08c379a000000000000000000000000000000000000000000000000000000000815260040161183090613661565b60405180910390fd5b600073ffffffffffffffffffffffffffffffffffffffff168173ffffffffffffffffffffffffffffffffffffffff1614156118a9576040517f08c379a00000000000000000000000000000000000000000000000000000000081526004016118a0906134e1565b60405180910390fd5b6118b281611ef3565b50565b60007f01ffc9a7000000000000000000000000000000000000000000000000000000007bffffffffffffffffffffffffffffffffffffffffffffffffffffffff1916827bffffffffffffffffffffffffffffffffffffffffffffffffffffffff1916149050919050565b60008073ffffffffffffffffffffffffffffffffffffffff166002600084815260200190815260200160002060009054906101000a900473ffffffffffffffffffffffffffffffffffffffff1673ffffffffffffffffffffffffffffffffffffffff1614159050919050565b600033905090565b816004600083815260200190815260200160002060006101000a81548173ffffffffffffffffffffffffffffffffffffffff021916908373ffffffffffffffffffffffffffffffffffffffff160217905550808273ffffffffffffffffffffffffffffffffffffffff16611a0683610ec8565b73ffffffffffffffffffffffffffffffffffffffff167f8c5be1e5ebec7d5bd14f71427d1e84f3dd0314c0f7b2291e5b200ac8c7c3b92560405160405180910390a45050565b6000611a578261191f565b611a96576040517f08c379a0000000000000000000000000000000000000000000000000000000008152600401611a8d90613581565b60405180910390fd5b6000611aa183610ec8565b90508073ffffffffffffffffffffffffffffffffffffffff168473ffffffffffffffffffffffffffffffffffffffff161480611b1057508373ffffffffffffffffffffffffffffffffffffffff16611af884610c5f565b73ffffffffffffffffffffffffffffffffffffffff16145b80611b215750611b208185611729565b5b91505092915050565b8273ffffffffffffffffffffffffffffffffffffffff16611b4a82610ec8565b73ffffffffffffffffffffffffffffffffffffffff1614611ba0576040517f08c379a0000000000000000000000000000000000000000000000000000000008152600401611b9790613681565b60405180910390fd5b600073ffffffffffffffffffffffffffffffffffffffff168273ffffffffffffffffffffffffffffffffffffffff161415611c10576040517f08c379a0000000000000000000000000000000000000000000000000000000008152600401611c0790613541565b60405180910390fd5b611c1b838383612167565b611c26600082611993565b6001600360008573ffffffffffffffffffffffffffffffffffffffff1673ffffffffffffffffffffffffffffffffffffffff1681526020019081526020016000206000828254611c769190613888565b925050819055506001600360008473ffffffffffffffffffffffffffffffffffffffff1673ffffffffffffffffffffffffffffffffffffffff1681526020019081526020016000206000828254611ccd9190613801565b92505081905550816002600083815260200190815260200160002060006101000a81548173ffffffffffffffffffffffffffffffffffffffff021916908373ffffffffffffffffffffffffffffffffffffffff160217905550808273ffffffffffffffffffffffffffffffffffffffff168473ffffffffffffffffffffffffffffffffffffffff167fddf252ad1be2c89b69c2b068fc378daa952ba7f163c4a11628f55a4df523b3ef60405160405180910390a4505050565b600080826000015183602001518460400151856060015186608001518760a001518860c001518960e001518a61010001518b61012001518c61014001518d6101600151604051602001611de49c9b9a99989796959493929190613225565b6040516020818303038152906040528051906020012090506000611e1560108360001c61216c90919063ffffffff16565b1415611e245760029150611eab565b6000611e3e6101008360001c61216c90919063ffffffff16565b1415611e4d5760049150611eaa565b6000611e68620100008360001c61216c90919063ffffffff16565b1415611e775760089150611ea9565b6000611e946401000000008360001c61216c90919063ffffffff16565b1415611ea35760109150611ea8565b600191505b5b5b5b50919050565b600081600001549050919050565b611ed9828260405180602001604052806000815250612182565b5050565b6001816000016000828254019250508190555050565b6000600760009054906101000a900473ffffffffffffffffffffffffffffffffffffffff16905081600760006101000a81548173ffffffffffffffffffffffffffffffffffffffff021916908373ffffffffffffffffffffffffffffffffffffffff1602179055508173ffffffffffffffffffffffffffffffffffffffff168173ffffffffffffffffffffffffffffffffffffffff167f8be0079c531659141344cd1fd0a4f28419497f9722a3daafe3b4186f6b6457e060405160405180910390a35050565b611fc4848484611b2a565b611fd0848484846121dd565b61200f576040517f08c379a0000000000000000000000000000000000000000000000000000000008152600401612006906134c1565b60405180910390fd5b50505050565b60606120208261191f565b61205f576040517f08c379a000000000000000000000000000000000000000000000000000000000815260040161205690613621565b60405180910390fd5b600060066000848152602001908152602001600020805461207f906139b5565b80601f01602080910402602001604051908101604052809291908181526020018280546120ab906139b5565b80156120f85780601f106120cd576101008083540402835291602001916120f8565b820191906000526020600020905b8154815290600101906020018083116120db57829003601f168201915b505050505090506000612109612374565b905060008151141561211f578192505050612162565b60008251111561215457808260405160200161213c929190613201565b60405160208183030381529060405292505050612162565b61215d8461238b565b925050505b919050565b505050565b6000818361217a9190613a61565b905092915050565b61218c8383612432565b61219960008484846121dd565b6121d8576040517f08c379a00000000000000000000000000000000000000000000000000000000081526004016121cf906134c1565b60405180910390fd5b505050565b60006121fe8473ffffffffffffffffffffffffffffffffffffffff16612600565b15612367578373ffffffffffffffffffffffffffffffffffffffff1663150b7a0261222761198b565b8786866040518563ffffffff1660e01b815260040161224994939291906132e6565b602060405180830381600087803b15801561226357600080fd5b505af192505050801561229457506040513d601f19601f820116820180604052508101906122919190612e13565b60015b612317573d80600081146122c4576040519150601f19603f3d011682016040523d82523d6000602084013e6122c9565b606091505b5060008151141561230f576040517f08c379a0000000000000000000000000000000000000000000000000000000008152600401612306906134c1565b60405180910390fd5b805181602001fd5b63150b7a0260e01b7bffffffffffffffffffffffffffffffffffffffffffffffffffffffff1916817bffffffffffffffffffffffffffffffffffffffffffffffffffffffff19161491505061236c565b600190505b949350505050565b606060405180602001604052806000815250905090565b60606123968261191f565b6123d5576040517f08c379a00000000000000000000000000000000000000000000000000000000081526004016123cc906136a1565b60405180910390fd5b60006123df612374565b905060008151116123ff576040518060200160405280600081525061242a565b8061240984612613565b60405160200161241a929190613201565b6040516020818303038152906040525b915050919050565b600073ffffffffffffffffffffffffffffffffffffffff168273ffffffffffffffffffffffffffffffffffffffff1614156124a2576040517f08c379a000000000000000000000000000000000000000000000000000000000815260040161249990613601565b60405180910390fd5b6124ab8161191f565b156124eb576040517f08c379a00000000000000000000000000000000000000000000000000000000081526004016124e290613501565b60405180910390fd5b6124f760008383612167565b6001600360008473ffffffffffffffffffffffffffffffffffffffff1673ffffffffffffffffffffffffffffffffffffffff16815260200190815260200160002060008282546125479190613801565b92505081905550816002600083815260200190815260200160002060006101000a81548173ffffffffffffffffffffffffffffffffffffffff021916908373ffffffffffffffffffffffffffffffffffffffff160217905550808273ffffffffffffffffffffffffffffffffffffffff16600073ffffffffffffffffffffffffffffffffffffffff167fddf252ad1be2c89b69c2b068fc378daa952ba7f163c4a11628f55a4df523b3ef60405160405180910390a45050565b600080823b905060008111915050919050565b6060600082141561265b576040518060400160405280600181526020017f300000000000000000000000000000000000000000000000000000000000000081525090506127bb565b600082905060005b6000821461268d57808061267690613a18565b915050600a826126869190613857565b9150612663565b60008167ffffffffffffffff8111156126cf577f4e487b7100000000000000000000000000000000000000000000000000000000600052604160045260246000fd5b6040519080825280601f01601f1916602001820160405280156127015781602001600182028036833780820191505090505b5090505b600085146127b45760018261271a9190613888565b9150600a856127299190613a61565b60306127359190613801565b60f81b818381518110612771577f4e487b7100000000000000000000000000000000000000000000000000000000600052603260045260246000fd5b60200101907effffffffffffffffffffffffffffffffffffffffffffffffffffffffffffff1916908160001a905350600a856127ad9190613857565b9450612705565b8093505050505b919050565b8280546127cc906139b5565b90600052602060002090601f0160209004810192826127ee5760008555612835565b82601f1061280757805160ff1916838001178555612835565b82800160010185558215612835579182015b82811115612834578251825591602001919060010190612819565b5b5090506128429190612846565b5090565b5b8082111561285f576000816000905550600101612847565b5090565b60006128766128718461375c565b613737565b90508281526020810184848401111561288e57600080fd5b612899848285613973565b509392505050565b60006128b46128af8461378d565b613737565b9050828152602081018484840111156128cc57600080fd5b6128d7848285613973565b509392505050565b6000813590506128ee81614055565b92915050565b6000813590506129038161406c565b92915050565b60008135905061291881614083565b92915050565b60008151905061292d81614083565b92915050565b600082601f83011261294457600080fd5b8135612954848260208601612863565b91505092915050565b600082601f83011261296e57600080fd5b813561297e8482602086016128a1565b91505092915050565b6000610180828403121561299a57600080fd5b6129a5610180613737565b9050600082013567ffffffffffffffff8111156129c157600080fd5b6129cd8482850161295d565b600083015250602082013567ffffffffffffffff8111156129ed57600080fd5b6129f98482850161295d565b602083015250604082013567ffffffffffffffff811115612a1957600080fd5b612a258482850161295d565b604083015250606082013567ffffffffffffffff811115612a4557600080fd5b612a518482850161295d565b606083015250608082013567ffffffffffffffff811115612a7157600080fd5b612a7d8482850161295d565b60808301525060a082013567ffffffffffffffff811115612a9d57600080fd5b612aa98482850161295d565b60a08301525060c082013567ffffffffffffffff811115612ac957600080fd5b612ad58482850161295d565b60c08301525060e082013567ffffffffffffffff811115612af557600080fd5b612b018482850161295d565b60e08301525061010082013567ffffffffffffffff811115612b2257600080fd5b612b2e8482850161295d565b6101008301525061012082013567ffffffffffffffff811115612b5057600080fd5b612b5c8482850161295d565b6101208301525061014082013567ffffffffffffffff811115612b7e57600080fd5b612b8a8482850161295d565b6101408301525061016082013567ffffffffffffffff811115612bac57600080fd5b612bb88482850161295d565b6101608301525092915050565b600081359050612bd48161409a565b92915050565b600081519050612be98161409a565b92915050565b600060208284031215612c0157600080fd5b6000612c0f848285016128df565b91505092915050565b60008060408385031215612c2b57600080fd5b6000612c39858286016128df565b9250506020612c4a858286016128df565b9150509250929050565b600080600060608486031215612c6957600080fd5b6000612c77868287016128df565b9350506020612c88868287016128df565b9250506040612c9986828701612bc5565b9150509250925092565b60008060008060808587031215612cb957600080fd5b6000612cc7878288016128df565b9450506020612cd8878288016128df565b9350506040612ce987828801612bc5565b925050606085013567ffffffffffffffff811115612d0657600080fd5b612d1287828801612933565b91505092959194509250565b60008060408385031215612d3157600080fd5b6000612d3f858286016128df565b9250506020612d50858286016128f4565b9150509250929050565b60008060408385031215612d6d57600080fd5b6000612d7b858286016128df565b925050602083013567ffffffffffffffff811115612d9857600080fd5b612da485828601612987565b9150509250929050565b60008060408385031215612dc157600080fd5b6000612dcf858286016128df565b9250506020612de085828601612bc5565b9150509250929050565b600060208284031215612dfc57600080fd5b6000612e0a84828501612909565b91505092915050565b600060208284031215612e2557600080fd5b6000612e338482850161291e565b91505092915050565b600060208284031215612e4e57600080fd5b6000612e5c84828501612bc5565b91505092915050565b600060208284031215612e7757600080fd5b6000612e8584828501612bda565b91505092915050565b612e97816138bc565b82525050565b612ea6816138ce565b82525050565b6000612eb7826137be565b612ec181856137d4565b9350612ed1818560208601613982565b612eda81613b4e565b840191505092915050565b612eee8161393d565b82525050565b6000612eff826137c9565b612f0981856137e5565b9350612f19818560208601613982565b612f2281613b4e565b840191505092915050565b6000612f38826137c9565b612f4281856137f6565b9350612f52818560208601613982565b80840191505092915050565b6000612f6b6032836137e5565b9150612f7682613b5f565b604082019050919050565b6000612f8e6026836137e5565b9150612f9982613bae565b604082019050919050565b6000612fb1601c836137e5565b9150612fbc82613bfd565b602082019050919050565b6000612fd4602d836137e5565b9150612fdf82613c26565b604082019050919050565b6000612ff76024836137e5565b915061300282613c75565b604082019050919050565b600061301a6019836137e5565b915061302582613cc4565b602082019050919050565b600061303d602c836137e5565b915061304882613ced565b604082019050919050565b60006130606038836137e5565b915061306b82613d3c565b604082019050919050565b6000613083602a836137e5565b915061308e82613d8b565b604082019050919050565b60006130a66029836137e5565b91506130b182613dda565b604082019050919050565b60006130c96020836137e5565b91506130d482613e29565b602082019050919050565b60006130ec6031836137e5565b91506130f782613e52565b604082019050919050565b600061310f602c836137e5565b915061311a82613ea1565b604082019050919050565b60006131326020836137e5565b915061313d82613ef0565b602082019050919050565b60006131556029836137e5565b915061316082613f19565b604082019050919050565b6000613178602f836137e5565b915061318382613f68565b604082019050919050565b600061319b6021836137e5565b91506131a682613fb7565b604082019050919050565b60006131be6031836137e5565b91506131c982614006565b604082019050919050565b6131dd81613926565b82525050565b6131ec81613961565b82525050565b6131fb81613930565b82525050565b600061320d8285612f2d565b91506132198284612f2d565b91508190509392505050565b6000613231828f612f2d565b915061323d828e612f2d565b9150613249828d612f2d565b9150613255828c612f2d565b9150613261828b612f2d565b915061326d828a612f2d565b91506132798289612f2d565b91506132858288612f2d565b91506132918287612f2d565b915061329d8286612f2d565b91506132a98285612f2d565b91506132b58284612f2d565b91508190509d9c50505050505050505050505050565b60006020820190506132e06000830184612e8e565b92915050565b60006080820190506132fb6000830187612e8e565b6133086020830186612e8e565b61331560408301856131d4565b81810360608301526133278184612eac565b905095945050505050565b60006040820190506133476000830185612e8e565b61335460208301846131e3565b9392505050565b60006020820190506133706000830184612e9d565b92915050565b600060208201905061338b6000830184612ee5565b92915050565b600060208201905081810360008301526133ab8184612ef4565b905092915050565b60006101808201905081810360008301526133ce818f612ef4565b905081810360208301526133e2818e612ef4565b905081810360408301526133f6818d612ef4565b9050818103606083015261340a818c612ef4565b9050818103608083015261341e818b612ef4565b905081810360a0830152613432818a612ef4565b905081810360c08301526134468189612ef4565b905081810360e083015261345a8188612ef4565b905081810361010083015261346f8187612ef4565b90508181036101208301526134848186612ef4565b90508181036101408301526134998185612ef4565b90508181036101608301526134ae8184612ef4565b90509d9c50505050505050505050505050565b600060208201905081810360008301526134da81612f5e565b9050919050565b600060208201905081810360008301526134fa81612f81565b9050919050565b6000602082019050818103600083015261351a81612fa4565b9050919050565b6000602082019050818103600083015261353a81612fc7565b9050919050565b6000602082019050818103600083015261355a81612fea565b9050919050565b6000602082019050818103600083015261357a8161300d565b9050919050565b6000602082019050818103600083015261359a81613030565b9050919050565b600060208201905081810360008301526135ba81613053565b9050919050565b600060208201905081810360008301526135da81613076565b9050919050565b600060208201905081810360008301526135fa81613099565b9050919050565b6000602082019050818103600083015261361a816130bc565b9050919050565b6000602082019050818103600083015261363a816130df565b9050919050565b6000602082019050818103600083015261365a81613102565b9050919050565b6000602082019050818103600083015261367a81613125565b9050919050565b6000602082019050818103600083015261369a81613148565b9050919050565b600060208201905081810360008301526136ba8161316b565b9050919050565b600060208201905081810360008301526136da8161318e565b9050919050565b600060208201905081810360008301526136fa816131b1565b9050919050565b600060208201905061371660008301846131d4565b92915050565b600060208201905061373160008301846131f2565b92915050565b6000613741613752565b905061374d82826139e7565b919050565b6000604051905090565b600067ffffffffffffffff82111561377757613776613b1f565b5b61378082613b4e565b9050602081019050919050565b600067ffffffffffffffff8211156137a8576137a7613b1f565b5b6137b182613b4e565b9050602081019050919050565b600081519050919050565b600081519050919050565b600082825260208201905092915050565b600082825260208201905092915050565b600081905092915050565b600061380c82613926565b915061381783613926565b9250827fffffffffffffffffffffffffffffffffffffffffffffffffffffffffffffffff0382111561384c5761384b613a92565b5b828201905092915050565b600061386282613926565b915061386d83613926565b92508261387d5761387c613ac1565b5b828204905092915050565b600061389382613926565b915061389e83613926565b9250828210156138b1576138b0613a92565b5b828203905092915050565b60006138c782613906565b9050919050565b60008115159050919050565b60007fffffffff0000000000000000000000000000000000000000000000000000000082169050919050565b600073ffffffffffffffffffffffffffffffffffffffff82169050919050565b6000819050919050565b600060ff82169050919050565b60006139488261394f565b9050919050565b600061395a82613906565b9050919050565b600061396c82613930565b9050919050565b82818337600083830152505050565b60005b838110156139a0578082015181840152602081019050613985565b838111156139af576000848401525b50505050565b600060028204905060018216806139cd57607f821691505b602082108114156139e1576139e0613af0565b5b50919050565b6139f082613b4e565b810181811067ffffffffffffffff82111715613a0f57613a0e613b1f565b5b80604052505050565b6000613a2382613926565b91507fffffffffffffffffffffffffffffffffffffffffffffffffffffffffffffffff821415613a5657613a55613a92565b5b600182019050919050565b6000613a6c82613926565b9150613a7783613926565b925082613a8757613a86613ac1565b5b828206905092915050565b7f4e487b7100000000000000000000000000000000000000000000000000000000600052601160045260246000fd5b7f4e487b7100000000000000000000000000000000000000000000000000000000600052601260045260246000fd5b7f4e487b7100000000000000000000000000000000000000000000000000000000600052602260045260246000fd5b7f4e487b7100000000000000000000000000000000000000000000000000000000600052604160045260246000fd5b6000601f19601f8301169050919050565b7f4552433732313a207472616e7366657220746f206e6f6e20455243373231526560008201527f63656976657220696d706c656d656e7465720000000000000000000000000000602082015250565b7f4f776e61626c653a206e6577206f776e657220697320746865207a65726f206160008201527f6464726573730000000000000000000000000000000000000000000000000000602082015250565b7f4552433732313a20746f6b656e20616c7265616479206d696e74656400000000600082015250565b7f4d696e74696e673a20696e73756666696369656e742062616c616e636520666f60008201527f72206d696e74696e67204e465400000000000000000000000000000000000000602082015250565b7f4552433732313a207472616e7366657220746f20746865207a65726f2061646460008201527f7265737300000000000000000000000000000000000000000000000000000000602082015250565b7f4552433732313a20617070726f766520746f2063616c6c657200000000000000600082015250565b7f4552433732313a206f70657261746f7220717565727920666f72206e6f6e657860008201527f697374656e7420746f6b656e0000000000000000000000000000000000000000602082015250565b7f4552433732313a20617070726f76652063616c6c6572206973206e6f74206f7760008201527f6e6572206e6f7220617070726f76656420666f7220616c6c0000000000000000602082015250565b7f4552433732313a2062616c616e636520717565727920666f7220746865207a6560008201527f726f206164647265737300000000000000000000000000000000000000000000602082015250565b7f4552433732313a206f776e657220717565727920666f72206e6f6e657869737460008201527f656e7420746f6b656e0000000000000000000000000000000000000000000000602082015250565b7f4552433732313a206d696e7420746f20746865207a65726f2061646472657373600082015250565b7f45524337323155524953746f726167653a2055524920717565727920666f722060008201527f6e6f6e6578697374656e7420746f6b656e000000000000000000000000000000602082015250565b7f4552433732313a20617070726f76656420717565727920666f72206e6f6e657860008201527f697374656e7420746f6b656e0000000000000000000000000000000000000000602082015250565b7f4f776e61626c653a2063616c6c6572206973206e6f7420746865206f776e6572600082015250565b7f4552433732313a207472616e73666572206f6620746f6b656e2074686174206960008201527f73206e6f74206f776e0000000000000000000000000000000000000000000000602082015250565b7f4552433732314d657461646174613a2055524920717565727920666f72206e6f60008201527f6e6578697374656e7420746f6b656e0000000000000000000000000000000000602082015250565b7f4552433732313a20617070726f76616c20746f2063757272656e74206f776e6560008201527f7200000000000000000000000000000000000000000000000000000000000000602082015250565b7f4552433732313a207472616e736665722063616c6c6572206973206e6f74206f60008201527f776e6572206e6f7220617070726f766564000000000000000000000000000000602082015250565b61405e816138bc565b811461406957600080fd5b50565b614075816138ce565b811461408057600080fd5b50565b61408c816138da565b811461409757600080fd5b50565b6140a381613926565b81146140ae57600080fd5b5056fea2646970667358221220032ca149b110ebf03784d7a2e34a779b3296ebed5e48eed7966edc2c844e1e6a64736f6c63430008040033",
  "linkReferences": {},
  "deployedLinkReferences": {}
}