{
  "_format": "hh-sol-artifact-1",
  "contractName": "PebbleDataPoint",
  "sourceName": "contracts/PebbleDataPoint.sol",
  "abi": [
    {
      "inputs": [
        {
          "internalType": "contract PebbleToken",
          "name": "_pbl",
          "type": "address"
        },
        {
          "internalType": "uint256",
          "name": "_burnMultiplier",
          "type": "uint256"
        },
        {
          "internalType": "address payable",
          "name": "_feeReceipient",
          "type": "address"
        }
      ],
      "stateMutability": "nonpayable",
      "type": "constructor"
    },
    {
      "anonymous": false,
      "inputs": [
        {
          "indexed": true,
          "internalType": "address",
          "name": "owner",
          "type": "address"
        },
        {
          "indexed": true,
          "internalType": "address",
          "name": "approved",
          "type": "address"
        },
        {
          "indexed": true,
          "internalType": "uint256",
          "name": "tokenId",
          "type": "uint256"
        }
      ],
      "name": "Approval",
      "type": "event"
    },
    {
      "anonymous": false,
      "inputs": [
        {
          "indexed": true,
          "internalType": "address",
          "name": "owner",
          "type": "address"
        },
        {
          "indexed": true,
          "internalType": "address",
          "name": "operator",
          "type": "address"
        },
        {
          "indexed": false,
          "internalType": "bool",
          "name": "approved",
          "type": "bool"
        }
      ],
      "name": "ApprovalForAll",
      "type": "event"
    },
    {
      "anonymous": false,
      "inputs": [
        {
          "indexed": true,
          "internalType": "address",
          "name": "previousOwner",
          "type": "address"
        },
        {
          "indexed": true,
          "internalType": "address",
          "name": "newOwner",
          "type": "address"
        }
      ],
      "name": "OwnershipTransferred",
      "type": "event"
    },
    {
      "anonymous": false,
      "inputs": [
        {
          "indexed": true,
          "internalType": "address",
          "name": "to",
          "type": "address"
        },
        {
          "indexed": true,
          "internalType": "uint256",
          "name": "tokenId",
          "type": "uint256"
        }
      ],
      "name": "TokenMinted",
      "type": "event"
    },
    {
      "anonymous": false,
      "inputs": [
        {
          "indexed": true,
          "internalType": "address",
          "name": "from",
          "type": "address"
        },
        {
          "indexed": true,
          "internalType": "address",
          "name": "to",
          "type": "address"
        },
        {
          "indexed": true,
          "internalType": "uint256",
          "name": "tokenId",
          "type": "uint256"
        }
      ],
      "name": "Transfer",
      "type": "event"
    },
    {
      "inputs": [
        {
          "internalType": "address",
          "name": "to",
          "type": "address"
        },
        {
          "internalType": "uint256",
          "name": "tokenId",
          "type": "uint256"
        }
      ],
      "name": "approve",
      "outputs": [],
      "stateMutability": "nonpayable",
      "type": "function"
    },
    {
      "inputs": [
        {
          "internalType": "address",
          "name": "owner",
          "type": "address"
        }
      ],
      "name": "balanceOf",
      "outputs": [
        {
          "internalType": "uint256",
          "name": "",
          "type": "uint256"
        }
      ],
      "stateMutability": "view",
      "type": "function"
    },
    {
      "inputs": [],
      "name": "burnMultiplier",
      "outputs": [
        {
          "internalType": "uint256",
          "name": "",
          "type": "uint256"
        }
      ],
      "stateMutability": "view",
      "type": "function"
    },
    {
      "inputs": [
        {
          "internalType": "uint256",
          "name": "tokenId",
          "type": "uint256"
        }
      ],
      "name": "getApproved",
      "outputs": [
        {
          "internalType": "address",
          "name": "",
          "type": "address"
        }
      ],
      "stateMutability": "view",
      "type": "function"
    },
    {
      "inputs": [
        {
          "internalType": "address",
          "name": "owner",
          "type": "address"
        },
        {
          "internalType": "address",
          "name": "operator",
          "type": "address"
        }
      ],
      "name": "isApprovedForAll",
      "outputs": [
        {
          "internalType": "bool",
          "name": "",
          "type": "bool"
        }
      ],
      "stateMutability": "view",
      "type": "function"
    },
    {
      "inputs": [],
      "name": "name",
      "outputs": [
        {
          "internalType": "string",
          "name": "",
          "type": "string"
        }
      ],
      "stateMutability": "view",
      "type": "function"
    },
    {
      "inputs": [],
      "name": "owner",
      "outputs": [
        {
          "internalType": "address",
          "name": "",
          "type": "address"
        }
      ],
      "stateMutability": "view",
      "type": "function"
    },
    {
      "inputs": [
        {
          "internalType": "uint256",
          "name": "tokenId",
          "type": "uint256"
        }
      ],
      "name": "ownerOf",
      "outputs": [
        {
          "internalType": "address",
          "name": "",
          "type": "address"
        }
      ],
      "stateMutability": "view",
      "type": "function"
    },
    {
      "inputs": [],
      "name": "pbl",
      "outputs": [
        {
          "internalType": "contract PebbleToken",
          "name": "",
          "type": "address"
        }
      ],
      "stateMutability": "view",
      "type": "function"
    },
    {
      "inputs": [],
      "name": "renounceOwnership",
      "outputs": [],
      "stateMutability": "nonpayable",
      "type": "function"
    },
    {
      "inputs": [
        {
          "internalType": "address",
          "name": "to",
          "type": "address"
        },
        {
          "components": [
            {
              "internalType": "string",
              "name": "snr",
              "type": "string"
            },
            {
              "internalType": "string",
              "name": "vbat",
              "type": "string"
            },
            {
              "internalType": "string",
              "name": "latitude",
              "type": "string"
            },
            {
              "internalType": "string",
              "name": "longitude",
              "type": "string"
            },
            {
              "internalType": "string",
              "name": "gasResistance",
              "type": "string"
            },
            {
              "internalType": "string",
              "name": "temperature",
              "type": "string"
            },
            {
              "internalType": "string",
              "name": "pressure",
              "type": "string"
            },
            {
              "internalType": "string",
              "name": "humidity",
              "type": "string"
            },
            {
              "internalType": "string",
              "name": "light",
              "type": "string"
            },
            {
              "internalType": "string",
              "name": "gyroscope",
              "type": "string"
            },
            {
              "internalType": "string",
              "name": "accelerometer",
              "type": "string"
            },
            {
              "internalType": "string",
              "name": "timestamp",
              "type": "string"
            }
          ],
          "internalType": "struct PebbleDataPoint.DataPoint",
          "name": "dataPoint",
          "type": "tuple"
        }
      ],
      "name": "safeMint",
      "outputs": [],
      "stateMutability": "nonpayable",
      "type": "function"
    },
    {
      "inputs": [
        {
          "internalType": "address",
          "name": "from",
          "type": "address"
        },
        {
          "internalType": "address",
          "name": "to",
          "type": "address"
        },
        {
          "internalType": "uint256",
          "name": "tokenId",
          "type": "uint256"
        }
      ],
      "name": "safeTransferFrom",
      "outputs": [],
      "stateMutability": "nonpayable",
      "type": "function"
    },
    {
      "inputs": [
        {
          "internalType": "address",
          "name": "from",
          "type": "address"
        },
        {
          "internalType": "address",
          "name": "to",
          "type": "address"
        },
        {
          "internalType": "uint256",
          "name": "tokenId",
          "type": "uint256"
        },
        {
          "internalType": "bytes",
          "name": "_data",
          "type": "bytes"
        }
      ],
      "name": "safeTransferFrom",
      "outputs": [],
      "stateMutability": "nonpayable",
      "type": "function"
    },
    {
      "inputs": [
        {
          "internalType": "address",
          "name": "operator",
          "type": "address"
        },
        {
          "internalType": "bool",
          "name": "approved",
          "type": "bool"
        }
      ],
      "name": "setApprovalForAll",
      "outputs": [],
      "stateMutability": "nonpayable",
      "type": "function"
    },
    {
      "inputs": [
        {
          "internalType": "bytes4",
          "name": "interfaceId",
          "type": "bytes4"
        }
      ],
      "name": "supportsInterface",
      "outputs": [
        {
          "internalType": "bool",
          "name": "",
          "type": "bool"
        }
      ],
      "stateMutability": "view",
      "type": "function"
    },
    {
      "inputs": [],
      "name": "symbol",
      "outputs": [
        {
          "internalType": "string",
          "name": "",
          "type": "string"
        }
      ],
      "stateMutability": "view",
      "type": "function"
    },
    {
      "inputs": [
        {
          "internalType": "uint256",
          "name": "",
          "type": "uint256"
        }
      ],
      "name": "tokenToDataPoint",
      "outputs": [
        {
          "internalType": "string",
          "name": "snr",
          "type": "string"
        },
        {
          "internalType": "string",
          "name": "vbat",
          "type": "string"
        },
        {
          "internalType": "string",
          "name": "latitude",
          "type": "string"
        },
        {
          "internalType": "string",
          "name": "longitude",
          "type": "string"
        },
        {
          "internalType": "string",
          "name": "gasResistance",
          "type": "string"
        },
        {
          "internalType": "string",
          "name": "temperature",
          "type": "string"
        },
        {
          "internalType": "string",
          "name": "pressure",
          "type": "string"
        },
        {
          "internalType": "string",
          "name": "humidity",
          "type": "string"
        },
        {
          "internalType": "string",
          "name": "light",
          "type": "string"
        },
        {
          "internalType": "string",
          "name": "gyroscope",
          "type": "string"
        },
        {
          "internalType": "string",
          "name": "accelerometer",
          "type": "string"
        },
        {
          "internalType": "string",
          "name": "timestamp",
          "type": "string"
        }
      ],
      "stateMutability": "view",
      "type": "function"
    },
    {
      "inputs": [
        {
          "internalType": "uint256",
          "name": "",
          "type": "uint256"
        }
      ],
      "name": "tokenToHashPower",
      "outputs": [
        {
          "internalType": "uint8",
          "name": "",
          "type": "uint8"
        }
      ],
      "stateMutability": "view",
      "type": "function"
    },
    {
      "inputs": [
        {
          "internalType": "uint256",
          "name": "tokenId",
          "type": "uint256"
        }
      ],
      "name": "tokenURI",
      "outputs": [
        {
          "internalType": "string",
          "name": "",
          "type": "string"
        }
      ],
      "stateMutability": "view",
      "type": "function"
    },
    {
      "inputs": [
        {
          "internalType": "address",
          "name": "from",
          "type": "address"
        },
        {
          "internalType": "address",
          "name": "to",
          "type": "address"
        },
        {
          "internalType": "uint256",
          "name": "tokenId",
          "type": "uint256"
        }
      ],
      "name": "transferFrom",
      "outputs": [],
      "stateMutability": "nonpayable",
      "type": "function"
    },
    {
      "inputs": [
        {
          "internalType": "address",
          "name": "newOwner",
          "type": "address"
        }
      ],
      "name": "transferOwnership",
      "outputs": [],
      "stateMutability": "nonpayable",
      "type": "function"
    }
  ],
  "bytecode": "0x60806040523480156200001157600080fd5b50604051620062823803806200628283398181016040528101906200003791906200034c565b6040518060400160405280600f81526020017f506562626c6544617461506f696e7400000000000000000000000000000000008152506040518060400160405280600381526020017f50445000000000000000000000000000000000000000000000000000000000008152508160009080519060200190620000bb92919062000257565b508060019080519060200190620000d492919062000257565b505050620000f7620000eb6200018960201b60201c565b6200019160201b60201c565b82600760006101000a81548173ffffffffffffffffffffffffffffffffffffffff021916908373ffffffffffffffffffffffffffffffffffffffff1602179055508160088190555080600960006101000a81548173ffffffffffffffffffffffffffffffffffffffff021916908373ffffffffffffffffffffffffffffffffffffffff160217905550505050620004bb565b600033905090565b6000600660009054906101000a900473ffffffffffffffffffffffffffffffffffffffff16905081600660006101000a81548173ffffffffffffffffffffffffffffffffffffffff021916908373ffffffffffffffffffffffffffffffffffffffff1602179055508173ffffffffffffffffffffffffffffffffffffffff168173ffffffffffffffffffffffffffffffffffffffff167f8be0079c531659141344cd1fd0a4f28419497f9722a3daafe3b4186f6b6457e060405160405180910390a35050565b828054620002659062000408565b90600052602060002090601f016020900481019282620002895760008555620002d5565b82601f10620002a457805160ff1916838001178555620002d5565b82800160010185558215620002d5579182015b82811115620002d4578251825591602001919060010190620002b7565b5b509050620002e49190620002e8565b5090565b5b8082111562000303576000816000905550600101620002e9565b5090565b60008151905062000318816200046d565b92915050565b6000815190506200032f8162000487565b92915050565b6000815190506200034681620004a1565b92915050565b6000806000606084860312156200036257600080fd5b600062000372868287016200031e565b9350506020620003858682870162000335565b9250506040620003988682870162000307565b9150509250925092565b6000620003af82620003de565b9050919050565b6000620003c382620003de565b9050919050565b6000620003d782620003a2565b9050919050565b600073ffffffffffffffffffffffffffffffffffffffff82169050919050565b6000819050919050565b600060028204905060018216806200042157607f821691505b602082108114156200043857620004376200043e565b5b50919050565b7f4e487b7100000000000000000000000000000000000000000000000000000000600052602260045260246000fd5b6200047881620003b6565b81146200048457600080fd5b50565b6200049281620003ca565b81146200049e57600080fd5b50565b620004ac81620003fe565b8114620004b857600080fd5b50565b615db780620004cb6000396000f3fe608060405234801561001057600080fd5b50600436106101375760003560e01c80636352211e116100b857806395d89b411161007c57806395d89b4114610359578063a22cb46514610377578063b88d4fde14610393578063c87b56dd146103af578063e985e9c5146103df578063f2fde38b1461040f57610137565b80636352211e146102b557806369468c37146102e557806370a0823114610301578063715018a6146103315780638da5cb5b1461033b57610137565b806323b872dd116100ff57806323b872dd146102115780633939a8971461022d57806342842e0e1461024b57806348083bba146102675780635e3d9df11461028557610137565b806301ffc9a71461013c57806305ad0f981461016c57806306fdde03146101a7578063081812fc146101c5578063095ea7b3146101f5575b600080fd5b61015660048036038101906101519190613957565b61042b565b6040516101639190614680565b60405180910390f35b610186600480360381019061018191906139a9565b61050d565b60405161019e9c9b9a999897969594939291906146d8565b60405180910390f35b6101af610bcd565b6040516101bc91906146b6565b60405180910390f35b6101df60048036038101906101da91906139a9565b610c5f565b6040516101ec91906145b9565b60405180910390f35b61020f600480360381019061020a91906138f2565b610ce4565b005b61022b60048036038101906102269190613798565b610dfc565b005b610235610e5c565b60405161024291906149e6565b60405180910390f35b61026560048036038101906102609190613798565b610e62565b005b61026f610e82565b60405161027c919061469b565b60405180910390f35b61029f600480360381019061029a91906139a9565b610ea8565b6040516102ac9190614a01565b60405180910390f35b6102cf60048036038101906102ca91906139a9565b610ec8565b6040516102dc91906145b9565b60405180910390f35b6102ff60048036038101906102fa919061389e565b610f7a565b005b61031b60048036038101906103169190613733565b61143b565b60405161032891906149e6565b60405180910390f35b6103396114f3565b005b61034361157b565b60405161035091906145b9565b60405180910390f35b6103616115a5565b60405161036e91906146b6565b60405180910390f35b610391600480360381019061038c9190613862565b611637565b005b6103ad60048036038101906103a891906137e7565b6117b8565b005b6103c960048036038101906103c491906139a9565b61181a565b6040516103d691906146b6565b60405180910390f35b6103f960048036038101906103f4919061375c565b612256565b6040516104069190614680565b60405180910390f35b61042960048036038101906104249190613733565b6122ea565b005b60007f80ac58cd000000000000000000000000000000000000000000000000000000007bffffffffffffffffffffffffffffffffffffffffffffffffffffffff1916827bffffffffffffffffffffffffffffffffffffffffffffffffffffffff191614806104f657507f5b5e139f000000000000000000000000000000000000000000000000000000007bffffffffffffffffffffffffffffffffffffffffffffffffffffffff1916827bffffffffffffffffffffffffffffffffffffffffffffffffffffffff1916145b806105065750610505826123e2565b5b9050919050565b600a60205280600052604060002060009150905080600001805461053090614d2a565b80601f016020809104026020016040519081016040528092919081815260200182805461055c90614d2a565b80156105a95780601f1061057e576101008083540402835291602001916105a9565b820191906000526020600020905b81548152906001019060200180831161058c57829003601f168201915b5050505050908060010180546105be90614d2a565b80601f01602080910402602001604051908101604052809291908181526020018280546105ea90614d2a565b80156106375780601f1061060c57610100808354040283529160200191610637565b820191906000526020600020905b81548152906001019060200180831161061a57829003601f168201915b50505050509080600201805461064c90614d2a565b80601f016020809104026020016040519081016040528092919081815260200182805461067890614d2a565b80156106c55780601f1061069a576101008083540402835291602001916106c5565b820191906000526020600020905b8154815290600101906020018083116106a857829003601f168201915b5050505050908060030180546106da90614d2a565b80601f016020809104026020016040519081016040528092919081815260200182805461070690614d2a565b80156107535780601f1061072857610100808354040283529160200191610753565b820191906000526020600020905b81548152906001019060200180831161073657829003601f168201915b50505050509080600401805461076890614d2a565b80601f016020809104026020016040519081016040528092919081815260200182805461079490614d2a565b80156107e15780601f106107b6576101008083540402835291602001916107e1565b820191906000526020600020905b8154815290600101906020018083116107c457829003601f168201915b5050505050908060050180546107f690614d2a565b80601f016020809104026020016040519081016040528092919081815260200182805461082290614d2a565b801561086f5780601f106108445761010080835404028352916020019161086f565b820191906000526020600020905b81548152906001019060200180831161085257829003601f168201915b50505050509080600601805461088490614d2a565b80601f01602080910402602001604051908101604052809291908181526020018280546108b090614d2a565b80156108fd5780601f106108d2576101008083540402835291602001916108fd565b820191906000526020600020905b8154815290600101906020018083116108e057829003601f168201915b50505050509080600701805461091290614d2a565b80601f016020809104026020016040519081016040528092919081815260200182805461093e90614d2a565b801561098b5780601f106109605761010080835404028352916020019161098b565b820191906000526020600020905b81548152906001019060200180831161096e57829003601f168201915b5050505050908060080180546109a090614d2a565b80601f01602080910402602001604051908101604052809291908181526020018280546109cc90614d2a565b8015610a195780601f106109ee57610100808354040283529160200191610a19565b820191906000526020600020905b8154815290600101906020018083116109fc57829003601f168201915b505050505090806009018054610a2e90614d2a565b80601f0160208091040260200160405190810160405280929190818152602001828054610a5a90614d2a565b8015610aa75780601f10610a7c57610100808354040283529160200191610aa7565b820191906000526020600020905b815481529060010190602001808311610a8a57829003601f168201915b50505050509080600a018054610abc90614d2a565b80601f0160208091040260200160405190810160405280929190818152602001828054610ae890614d2a565b8015610b355780601f10610b0a57610100808354040283529160200191610b35565b820191906000526020600020905b815481529060010190602001808311610b1857829003601f168201915b50505050509080600b018054610b4a90614d2a565b80601f0160208091040260200160405190810160405280929190818152602001828054610b7690614d2a565b8015610bc35780601f10610b9857610100808354040283529160200191610bc3565b820191906000526020600020905b815481529060010190602001808311610ba657829003601f168201915b505050505090508c565b606060008054610bdc90614d2a565b80601f0160208091040260200160405190810160405280929190818152602001828054610c0890614d2a565b8015610c555780601f10610c2a57610100808354040283529160200191610c55565b820191906000526020600020905b815481529060010190602001808311610c3857829003601f168201915b5050505050905090565b6000610c6a8261244c565b610ca9576040517f08c379a0000000000000000000000000000000000000000000000000000000008152600401610ca090614946565b60405180910390fd5b6004600083815260200190815260200160002060009054906101000a900473ffffffffffffffffffffffffffffffffffffffff169050919050565b6000610cef82610ec8565b90508073ffffffffffffffffffffffffffffffffffffffff168373ffffffffffffffffffffffffffffffffffffffff161415610d60576040517f08c379a0000000000000000000000000000000000000000000000000000000008152600401610d57906149a6565b60405180910390fd5b8073ffffffffffffffffffffffffffffffffffffffff16610d7f6124b8565b73ffffffffffffffffffffffffffffffffffffffff161480610dae5750610dad81610da86124b8565b612256565b5b610ded576040517f08c379a0000000000000000000000000000000000000000000000000000000008152600401610de4906148c6565b60405180910390fd5b610df783836124c0565b505050565b610e0d610e076124b8565b82612579565b610e4c576040517f08c379a0000000000000000000000000000000000000000000000000000000008152600401610e43906149c6565b60405180910390fd5b610e57838383612657565b505050565b60085481565b610e7d838383604051806020016040528060008152506117b8565b505050565b600760009054906101000a900473ffffffffffffffffffffffffffffffffffffffff1681565b600b6020528060005260406000206000915054906101000a900460ff1681565b6000806002600084815260200190815260200160002060009054906101000a900473ffffffffffffffffffffffffffffffffffffffff169050600073ffffffffffffffffffffffffffffffffffffffff168173ffffffffffffffffffffffffffffffffffffffff161415610f71576040517f08c379a0000000000000000000000000000000000000000000000000000000008152600401610f6890614906565b60405180910390fd5b80915050919050565b6000610f85826128b3565b90506000610fa16008548360ff166129f590919063ffffffff16565b90508160ff1681610fb29190614ae6565b600760009054906101000a900473ffffffffffffffffffffffffffffffffffffffff1673ffffffffffffffffffffffffffffffffffffffff166370a08231610ff86124b8565b6040518263ffffffff1660e01b815260040161101491906145b9565b60206040518083038186803b15801561102c57600080fd5b505afa158015611040573d6000803e3d6000fd5b505050506040513d601f19601f8201168201806040525081019061106491906139d2565b10156110a5576040517f08c379a000000000000000000000000000000000000000000000000000000000815260040161109c90614846565b60405180910390fd5b600760009054906101000a900473ffffffffffffffffffffffffffffffffffffffff1673ffffffffffffffffffffffffffffffffffffffff166379cc67906110eb6124b8565b836040518363ffffffff1660e01b8152600401611109929190614657565b600060405180830381600087803b15801561112357600080fd5b505af1158015611137573d6000803e3d6000fd5b50505050600760009054906101000a900473ffffffffffffffffffffffffffffffffffffffff1673ffffffffffffffffffffffffffffffffffffffff166323b872dd6111816124b8565b600960009054906101000a900473ffffffffffffffffffffffffffffffffffffffff16856040518463ffffffff1660e01b81526004016111c3939291906145d4565b602060405180830381600087803b1580156111dd57600080fd5b505af11580156111f1573d6000803e3d6000fd5b505050506040513d601f19601f82011682018060405250810190611215919061392e565b5061122984611224600c612a0b565b612a19565b82600a6000611238600c612a0b565b815260200190815260200160002060008201518160000190805190602001906112629291906132c8565b50602082015181600101908051906020019061127f9291906132c8565b50604082015181600201908051906020019061129c9291906132c8565b5060608201518160030190805190602001906112b99291906132c8565b5060808201518160040190805190602001906112d69291906132c8565b5060a08201518160050190805190602001906112f39291906132c8565b5060c08201518160060190805190602001906113109291906132c8565b5060e082015181600701908051906020019061132d9291906132c8565b5061010082015181600801908051906020019061134b9291906132c8565b506101208201518160090190805190602001906113699291906132c8565b5061014082015181600a0190805190602001906113879291906132c8565b5061016082015181600b0190805190602001906113a59291906132c8565b5090505081600b60006113b8600c612a0b565b815260200190815260200160002060006101000a81548160ff021916908360ff1602179055506113e8600c612a0b565b8473ffffffffffffffffffffffffffffffffffffffff167fb9144c96c86541f6fa89c9f2f02495cccf4b08cd6643e26d34ee00aa586558a860405160405180910390a3611435600c612a37565b50505050565b60008073ffffffffffffffffffffffffffffffffffffffff168273ffffffffffffffffffffffffffffffffffffffff1614156114ac576040517f08c379a00000000000000000000000000000000000000000000000000000000081526004016114a3906148e6565b60405180910390fd5b600360008373ffffffffffffffffffffffffffffffffffffffff1673ffffffffffffffffffffffffffffffffffffffff168152602001908152602001600020549050919050565b6114fb6124b8565b73ffffffffffffffffffffffffffffffffffffffff1661151961157b565b73ffffffffffffffffffffffffffffffffffffffff161461156f576040517f08c379a000000000000000000000000000000000000000000000000000000000815260040161156690614966565b60405180910390fd5b6115796000612a4d565b565b6000600660009054906101000a900473ffffffffffffffffffffffffffffffffffffffff16905090565b6060600180546115b490614d2a565b80601f01602080910402602001604051908101604052809291908181526020018280546115e090614d2a565b801561162d5780601f106116025761010080835404028352916020019161162d565b820191906000526020600020905b81548152906001019060200180831161161057829003601f168201915b5050505050905090565b61163f6124b8565b73ffffffffffffffffffffffffffffffffffffffff168273ffffffffffffffffffffffffffffffffffffffff1614156116ad576040517f08c379a00000000000000000000000000000000000000000000000000000000081526004016116a490614886565b60405180910390fd5b80600560006116ba6124b8565b73ffffffffffffffffffffffffffffffffffffffff1673ffffffffffffffffffffffffffffffffffffffff16815260200190815260200160002060008473ffffffffffffffffffffffffffffffffffffffff1673ffffffffffffffffffffffffffffffffffffffff16815260200190815260200160002060006101000a81548160ff0219169083151502179055508173ffffffffffffffffffffffffffffffffffffffff166117676124b8565b73ffffffffffffffffffffffffffffffffffffffff167f17307eab39ab6107e8899845ad3d59bd9653f200f220920489ca2b5937696c31836040516117ac9190614680565b60405180910390a35050565b6117c96117c36124b8565b83612579565b611808576040517f08c379a00000000000000000000000000000000000000000000000000000000081526004016117ff906149c6565b60405180910390fd5b61181484848484612b13565b50505050565b60606000600a60008481526020019081526020016000206040518061018001604052908160008201805461184d90614d2a565b80601f016020809104026020016040519081016040528092919081815260200182805461187990614d2a565b80156118c65780601f1061189b576101008083540402835291602001916118c6565b820191906000526020600020905b8154815290600101906020018083116118a957829003601f168201915b505050505081526020016001820180546118df90614d2a565b80601f016020809104026020016040519081016040528092919081815260200182805461190b90614d2a565b80156119585780601f1061192d57610100808354040283529160200191611958565b820191906000526020600020905b81548152906001019060200180831161193b57829003601f168201915b5050505050815260200160028201805461197190614d2a565b80601f016020809104026020016040519081016040528092919081815260200182805461199d90614d2a565b80156119ea5780601f106119bf576101008083540402835291602001916119ea565b820191906000526020600020905b8154815290600101906020018083116119cd57829003601f168201915b50505050508152602001600382018054611a0390614d2a565b80601f0160208091040260200160405190810160405280929190818152602001828054611a2f90614d2a565b8015611a7c5780601f10611a5157610100808354040283529160200191611a7c565b820191906000526020600020905b815481529060010190602001808311611a5f57829003601f168201915b50505050508152602001600482018054611a9590614d2a565b80601f0160208091040260200160405190810160405280929190818152602001828054611ac190614d2a565b8015611b0e5780601f10611ae357610100808354040283529160200191611b0e565b820191906000526020600020905b815481529060010190602001808311611af157829003601f168201915b50505050508152602001600582018054611b2790614d2a565b80601f0160208091040260200160405190810160405280929190818152602001828054611b5390614d2a565b8015611ba05780601f10611b7557610100808354040283529160200191611ba0565b820191906000526020600020905b815481529060010190602001808311611b8357829003601f168201915b50505050508152602001600682018054611bb990614d2a565b80601f0160208091040260200160405190810160405280929190818152602001828054611be590614d2a565b8015611c325780601f10611c0757610100808354040283529160200191611c32565b820191906000526020600020905b815481529060010190602001808311611c1557829003601f168201915b50505050508152602001600782018054611c4b90614d2a565b80601f0160208091040260200160405190810160405280929190818152602001828054611c7790614d2a565b8015611cc45780601f10611c9957610100808354040283529160200191611cc4565b820191906000526020600020905b815481529060010190602001808311611ca757829003601f168201915b50505050508152602001600882018054611cdd90614d2a565b80601f0160208091040260200160405190810160405280929190818152602001828054611d0990614d2a565b8015611d565780601f10611d2b57610100808354040283529160200191611d56565b820191906000526020600020905b815481529060010190602001808311611d3957829003601f168201915b50505050508152602001600982018054611d6f90614d2a565b80601f0160208091040260200160405190810160405280929190818152602001828054611d9b90614d2a565b8015611de85780601f10611dbd57610100808354040283529160200191611de8565b820191906000526020600020905b815481529060010190602001808311611dcb57829003601f168201915b50505050508152602001600a82018054611e0190614d2a565b80601f0160208091040260200160405190810160405280929190818152602001828054611e2d90614d2a565b8015611e7a5780601f10611e4f57610100808354040283529160200191611e7a565b820191906000526020600020905b815481529060010190602001808311611e5d57829003601f168201915b50505050508152602001600b82018054611e9390614d2a565b80601f0160208091040260200160405190810160405280929190818152602001828054611ebf90614d2a565b8015611f0c5780601f10611ee157610100808354040283529160200191611f0c565b820191906000526020600020905b815481529060010190602001808311611eef57829003601f168201915b5050505050815250509050611f1f61334e565b60405180610120016040528060fd8152602001615c4560fd913981600060038110611f73577f4e487b7100000000000000000000000000000000000000000000000000000000600052603260045260246000fd5b6020020181905250611f8484612b6f565b826000015183602001518460400151856060015186608001518760a00151604051602001611fb897969594939291906144ba565b60405160208183030381529060405281600160038110612001577f4e487b7100000000000000000000000000000000000000000000000000000000600052603260045260246000fd5b60200201819052508160c001518260e00151836101000151846101200151856101400151866101600151612057600b60008c815260200190815260200160002060009054906101000a900460ff1660ff16612b6f565b60405160200161206d97969594939291906143bb565b604051602081830303815290604052816002600381106120b6577f4e487b7100000000000000000000000000000000000000000000000000000000600052603260045260246000fd5b60200201819052506000816000600381106120fa577f4e487b7100000000000000000000000000000000000000000000000000000000600052603260045260246000fd5b602002015182600160038110612139577f4e487b7100000000000000000000000000000000000000000000000000000000600052603260045260246000fd5b602002015183600260038110612178577f4e487b7100000000000000000000000000000000000000000000000000000000600052603260045260246000fd5b602002015160405160200161218f93929190614223565b604051602081830303815290604052905060006121ab86612b6f565b6040516020016121bb919061438e565b604051602081830303815290604052905060006040516020016121dd906142fa565b6040516020818303038152906040529050600061222483836121fe87612d1c565b6040516020016122109392919061430f565b604051602081830303815290604052612d1c565b905080604051602001612237919061436c565b6040516020818303038152906040529350839650505050505050919050565b6000600560008473ffffffffffffffffffffffffffffffffffffffff1673ffffffffffffffffffffffffffffffffffffffff16815260200190815260200160002060008373ffffffffffffffffffffffffffffffffffffffff1673ffffffffffffffffffffffffffffffffffffffff16815260200190815260200160002060009054906101000a900460ff16905092915050565b6122f26124b8565b73ffffffffffffffffffffffffffffffffffffffff1661231061157b565b73ffffffffffffffffffffffffffffffffffffffff1614612366576040517f08c379a000000000000000000000000000000000000000000000000000000000815260040161235d90614966565b60405180910390fd5b600073ffffffffffffffffffffffffffffffffffffffff168173ffffffffffffffffffffffffffffffffffffffff1614156123d6576040517f08c379a00000000000000000000000000000000000000000000000000000000081526004016123cd90614806565b60405180910390fd5b6123df81612a4d565b50565b60007f01ffc9a7000000000000000000000000000000000000000000000000000000007bffffffffffffffffffffffffffffffffffffffffffffffffffffffff1916827bffffffffffffffffffffffffffffffffffffffffffffffffffffffff1916149050919050565b60008073ffffffffffffffffffffffffffffffffffffffff166002600084815260200190815260200160002060009054906101000a900473ffffffffffffffffffffffffffffffffffffffff1673ffffffffffffffffffffffffffffffffffffffff1614159050919050565b600033905090565b816004600083815260200190815260200160002060006101000a81548173ffffffffffffffffffffffffffffffffffffffff021916908373ffffffffffffffffffffffffffffffffffffffff160217905550808273ffffffffffffffffffffffffffffffffffffffff1661253383610ec8565b73ffffffffffffffffffffffffffffffffffffffff167f8c5be1e5ebec7d5bd14f71427d1e84f3dd0314c0f7b2291e5b200ac8c7c3b92560405160405180910390a45050565b60006125848261244c565b6125c3576040517f08c379a00000000000000000000000000000000000000000000000000000000081526004016125ba906148a6565b60405180910390fd5b60006125ce83610ec8565b90508073ffffffffffffffffffffffffffffffffffffffff168473ffffffffffffffffffffffffffffffffffffffff16148061263d57508373ffffffffffffffffffffffffffffffffffffffff1661262584610c5f565b73ffffffffffffffffffffffffffffffffffffffff16145b8061264e575061264d8185612256565b5b91505092915050565b8273ffffffffffffffffffffffffffffffffffffffff1661267782610ec8565b73ffffffffffffffffffffffffffffffffffffffff16146126cd576040517f08c379a00000000000000000000000000000000000000000000000000000000081526004016126c490614986565b60405180910390fd5b600073ffffffffffffffffffffffffffffffffffffffff168273ffffffffffffffffffffffffffffffffffffffff16141561273d576040517f08c379a000000000000000000000000000000000000000000000000000000000815260040161273490614866565b60405180910390fd5b612748838383612eda565b6127536000826124c0565b6001600360008573ffffffffffffffffffffffffffffffffffffffff1673ffffffffffffffffffffffffffffffffffffffff16815260200190815260200160002060008282546127a39190614bc7565b925050819055506001600360008473ffffffffffffffffffffffffffffffffffffffff1673ffffffffffffffffffffffffffffffffffffffff16815260200190815260200160002060008282546127fa9190614ae6565b92505081905550816002600083815260200190815260200160002060006101000a81548173ffffffffffffffffffffffffffffffffffffffff021916908373ffffffffffffffffffffffffffffffffffffffff160217905550808273ffffffffffffffffffffffffffffffffffffffff168473ffffffffffffffffffffffffffffffffffffffff167fddf252ad1be2c89b69c2b068fc378daa952ba7f163c4a11628f55a4df523b3ef60405160405180910390a4505050565b600080826000015183602001518460400151856060015186608001518760a001518860c001518960e001518a61010001518b61012001518c61014001518d61016001516040516020016129119c9b9a99989796959493929190614254565b604051602081830303815290604052805190602001209050600061294b633b9aca008360e01c63ffffffff16612edf90919063ffffffff16565b141561295a57601091506129ef565b600061297b620f42408360e01c63ffffffff16612edf90919063ffffffff16565b141561298a57600891506129ee565b60006129aa6103e88360e01c63ffffffff16612edf90919063ffffffff16565b14156129b957600491506129ed565b60006129d8600a8360e01c63ffffffff16612edf90919063ffffffff16565b14156129e757600291506129ec565b600191505b5b5b5b50919050565b60008183612a039190614b6d565b905092915050565b600081600001549050919050565b612a33828260405180602001604052806000815250612ef5565b5050565b6001816000016000828254019250508190555050565b6000600660009054906101000a900473ffffffffffffffffffffffffffffffffffffffff16905081600660006101000a81548173ffffffffffffffffffffffffffffffffffffffff021916908373ffffffffffffffffffffffffffffffffffffffff1602179055508173ffffffffffffffffffffffffffffffffffffffff168173ffffffffffffffffffffffffffffffffffffffff167f8be0079c531659141344cd1fd0a4f28419497f9722a3daafe3b4186f6b6457e060405160405180910390a35050565b612b1e848484612657565b612b2a84848484612f50565b612b69576040517f08c379a0000000000000000000000000000000000000000000000000000000008152600401612b60906147e6565b60405180910390fd5b50505050565b60606000821415612bb7576040518060400160405280600181526020017f30000000000000000000000000000000000000000000000000000000000000008152509050612d17565b600082905060005b60008214612be9578080612bd290614d8d565b915050600a82612be29190614b3c565b9150612bbf565b60008167ffffffffffffffff811115612c2b577f4e487b7100000000000000000000000000000000000000000000000000000000600052604160045260246000fd5b6040519080825280601f01601f191660200182016040528015612c5d5781602001600182028036833780820191505090505b5090505b60008514612d1057600182612c769190614bc7565b9150600a85612c859190614dd6565b6030612c919190614ae6565b60f81b818381518110612ccd577f4e487b7100000000000000000000000000000000000000000000000000000000600052603260045260246000fd5b60200101907effffffffffffffffffffffffffffffffffffffffffffffffffffffffffffff1916908160001a905350600a85612d099190614b3c565b9450612c61565b8093505050505b919050565b60606000825190506000811415612d455760405180602001604052806000815250915050612ed5565b60006003600283612d569190614ae6565b612d609190614b3c565b6004612d6c9190614b6d565b90506000602082612d7d9190614ae6565b67ffffffffffffffff811115612dbc577f4e487b7100000000000000000000000000000000000000000000000000000000600052604160045260246000fd5b6040519080825280601f01601f191660200182016040528015612dee5781602001600182028036833780820191505090505b5090506000604051806060016040528060408152602001615d42604091399050600181016020830160005b86811015612e925760038101905062ffffff818a015116603f8160121c168401518060081b905060ff603f83600c1c1686015116810190508060081b905060ff603f8360061c1686015116810190508060081b905060ff603f831686015116810190508060e01b90508084526004840193505050612e19565b506003860660018114612eac5760028114612ebc57612ec7565b613d3d60f01b6002830352612ec7565b603d60f81b60018303525b508484525050819450505050505b919050565b505050565b60008183612eed9190614dd6565b905092915050565b612eff83836130e7565b612f0c6000848484612f50565b612f4b576040517f08c379a0000000000000000000000000000000000000000000000000000000008152600401612f42906147e6565b60405180910390fd5b505050565b6000612f718473ffffffffffffffffffffffffffffffffffffffff166132b5565b156130da578373ffffffffffffffffffffffffffffffffffffffff1663150b7a02612f9a6124b8565b8786866040518563ffffffff1660e01b8152600401612fbc949392919061460b565b602060405180830381600087803b158015612fd657600080fd5b505af192505050801561300757506040513d601f19601f820116820180604052508101906130049190613980565b60015b61308a573d8060008114613037576040519150601f19603f3d011682016040523d82523d6000602084013e61303c565b606091505b50600081511415613082576040517f08c379a0000000000000000000000000000000000000000000000000000000008152600401613079906147e6565b60405180910390fd5b805181602001fd5b63150b7a0260e01b7bffffffffffffffffffffffffffffffffffffffffffffffffffffffff1916817bffffffffffffffffffffffffffffffffffffffffffffffffffffffff1916149150506130df565b600190505b949350505050565b600073ffffffffffffffffffffffffffffffffffffffff168273ffffffffffffffffffffffffffffffffffffffff161415613157576040517f08c379a000000000000000000000000000000000000000000000000000000000815260040161314e90614926565b60405180910390fd5b6131608161244c565b156131a0576040517f08c379a000000000000000000000000000000000000000000000000000000000815260040161319790614826565b60405180910390fd5b6131ac60008383612eda565b6001600360008473ffffffffffffffffffffffffffffffffffffffff1673ffffffffffffffffffffffffffffffffffffffff16815260200190815260200160002060008282546131fc9190614ae6565b92505081905550816002600083815260200190815260200160002060006101000a81548173ffffffffffffffffffffffffffffffffffffffff021916908373ffffffffffffffffffffffffffffffffffffffff160217905550808273ffffffffffffffffffffffffffffffffffffffff16600073ffffffffffffffffffffffffffffffffffffffff167fddf252ad1be2c89b69c2b068fc378daa952ba7f163c4a11628f55a4df523b3ef60405160405180910390a45050565b600080823b905060008111915050919050565b8280546132d490614d2a565b90600052602060002090601f0160209004810192826132f6576000855561333d565b82601f1061330f57805160ff191683800117855561333d565b8280016001018555821561333d579182015b8281111561333c578251825591602001919060010190613321565b5b50905061334a9190613375565b5090565b60405180606001604052806003905b606081526020019060019003908161335d5790505090565b5b8082111561338e576000816000905550600101613376565b5090565b60006133a56133a084614a41565b614a1c565b9050828152602081018484840111156133bd57600080fd5b6133c8848285614ce8565b509392505050565b60006133e36133de84614a72565b614a1c565b9050828152602081018484840111156133fb57600080fd5b613406848285614ce8565b509392505050565b60008135905061341d81615be8565b92915050565b60008135905061343281615bff565b92915050565b60008151905061344781615bff565b92915050565b60008135905061345c81615c16565b92915050565b60008151905061347181615c16565b92915050565b600082601f83011261348857600080fd5b8135613498848260208601613392565b91505092915050565b600082601f8301126134b257600080fd5b81356134c28482602086016133d0565b91505092915050565b600061018082840312156134de57600080fd5b6134e9610180614a1c565b9050600082013567ffffffffffffffff81111561350557600080fd5b613511848285016134a1565b600083015250602082013567ffffffffffffffff81111561353157600080fd5b61353d848285016134a1565b602083015250604082013567ffffffffffffffff81111561355d57600080fd5b613569848285016134a1565b604083015250606082013567ffffffffffffffff81111561358957600080fd5b613595848285016134a1565b606083015250608082013567ffffffffffffffff8111156135b557600080fd5b6135c1848285016134a1565b60808301525060a082013567ffffffffffffffff8111156135e157600080fd5b6135ed848285016134a1565b60a08301525060c082013567ffffffffffffffff81111561360d57600080fd5b613619848285016134a1565b60c08301525060e082013567ffffffffffffffff81111561363957600080fd5b613645848285016134a1565b60e08301525061010082013567ffffffffffffffff81111561366657600080fd5b613672848285016134a1565b6101008301525061012082013567ffffffffffffffff81111561369457600080fd5b6136a0848285016134a1565b6101208301525061014082013567ffffffffffffffff8111156136c257600080fd5b6136ce848285016134a1565b6101408301525061016082013567ffffffffffffffff8111156136f057600080fd5b6136fc848285016134a1565b6101608301525092915050565b60008135905061371881615c2d565b92915050565b60008151905061372d81615c2d565b92915050565b60006020828403121561374557600080fd5b60006137538482850161340e565b91505092915050565b6000806040838503121561376f57600080fd5b600061377d8582860161340e565b925050602061378e8582860161340e565b9150509250929050565b6000806000606084860312156137ad57600080fd5b60006137bb8682870161340e565b93505060206137cc8682870161340e565b92505060406137dd86828701613709565b9150509250925092565b600080600080608085870312156137fd57600080fd5b600061380b8782880161340e565b945050602061381c8782880161340e565b935050604061382d87828801613709565b925050606085013567ffffffffffffffff81111561384a57600080fd5b61385687828801613477565b91505092959194509250565b6000806040838503121561387557600080fd5b60006138838582860161340e565b925050602061389485828601613423565b9150509250929050565b600080604083850312156138b157600080fd5b60006138bf8582860161340e565b925050602083013567ffffffffffffffff8111156138dc57600080fd5b6138e8858286016134cb565b9150509250929050565b6000806040838503121561390557600080fd5b60006139138582860161340e565b925050602061392485828601613709565b9150509250929050565b60006020828403121561394057600080fd5b600061394e84828501613438565b91505092915050565b60006020828403121561396957600080fd5b60006139778482850161344d565b91505092915050565b60006020828403121561399257600080fd5b60006139a084828501613462565b91505092915050565b6000602082840312156139bb57600080fd5b60006139c984828501613709565b91505092915050565b6000602082840312156139e457600080fd5b60006139f28482850161371e565b91505092915050565b613a0481614c7c565b82525050565b613a1381614bfb565b82525050565b613a2281614c0d565b82525050565b6000613a3382614aa3565b613a3d8185614ab9565b9350613a4d818560208601614cf7565b613a5681614ec3565b840191505092915050565b613a6a81614c8e565b82525050565b6000613a7b82614aae565b613a858185614aca565b9350613a95818560208601614cf7565b613a9e81614ec3565b840191505092915050565b6000613ab482614aae565b613abe8185614adb565b9350613ace818560208601614cf7565b80840191505092915050565b6000613ae7600f83614adb565b9150613af282614ed4565b600f82019050919050565b6000613b0a602883614adb565b9150613b1582614efd565b602882019050919050565b6000613b2d603283614aca565b9150613b3882614f4c565b604082019050919050565b6000613b50602683614aca565b9150613b5b82614f9b565b604082019050919050565b6000613b73602983614adb565b9150613b7e82614fea565b602982019050919050565b6000613b96601c83614aca565b9150613ba182615039565b602082019050919050565b6000613bb9602583614adb565b9150613bc482615062565b602582019050919050565b6000613bdc602d83614aca565b9150613be7826150b1565b604082019050919050565b6000613bff60ce83614adb565b9150613c0a82615100565b60ce82019050919050565b6000613c22600183614adb565b9150613c2d8261520d565b600182019050919050565b6000613c45602483614aca565b9150613c5082615236565b604082019050919050565b6000613c68601983614aca565b9150613c7382615285565b602082019050919050565b6000613c8b600b83614adb565b9150613c96826152ae565b600b82019050919050565b6000613cae600d83614adb565b9150613cb9826152d7565b600d82019050919050565b6000613cd1602983614adb565b9150613cdc82615300565b602982019050919050565b6000613cf4602983614adb565b9150613cff8261534f565b602982019050919050565b6000613d17600b83614adb565b9150613d228261539e565b600b82019050919050565b6000613d3a602c83614aca565b9150613d45826153c7565b604082019050919050565b6000613d5d602883614adb565b9150613d6882615416565b602882019050919050565b6000613d80600d83614adb565b9150613d8b82615465565b600d82019050919050565b6000613da3602983614adb565b9150613dae8261548e565b602982019050919050565b6000613dc6602983614adb565b9150613dd1826154dd565b602982019050919050565b6000613de9602983614adb565b9150613df48261552c565b602982019050919050565b6000613e0c600a83614adb565b9150613e178261557b565b600a82019050919050565b6000613e2f603883614aca565b9150613e3a826155a4565b604082019050919050565b6000613e52600783614adb565b9150613e5d826155f3565b600782019050919050565b6000613e75600183614adb565b9150613e808261561c565b600182019050919050565b6000613e98602a83614aca565b9150613ea382615645565b604082019050919050565b6000613ebb602983614aca565b9150613ec682615694565b604082019050919050565b6000613ede602983614adb565b9150613ee9826156e3565b602982019050919050565b6000613f01600f83614adb565b9150613f0c82615732565b600f82019050919050565b6000613f24600283614adb565b9150613f2f8261575b565b600282019050919050565b6000613f47600683614adb565b9150613f5282615784565b600682019050919050565b6000613f6a602083614aca565b9150613f75826157ad565b602082019050919050565b6000613f8d602c83614aca565b9150613f98826157d6565b604082019050919050565b6000613fb0602083614aca565b9150613fbb82615825565b602082019050919050565b6000613fd3600b83614adb565b9150613fde8261584e565b600b82019050919050565b6000613ff6602983614aca565b915061400182615877565b604082019050919050565b6000614019600183614adb565b9150614024826158c6565b600182019050919050565b600061403c602183614aca565b9150614047826158ef565b604082019050919050565b600061405f601d83614adb565b915061406a8261593e565b601d82019050919050565b6000614082601183614adb565b915061408d82615967565b601182019050919050565b60006140a5600a83614adb565b91506140b082615990565b600a82019050919050565b60006140c8603183614aca565b91506140d3826159b9565b604082019050919050565b60006140eb601083614adb565b91506140f682615a08565b601082019050919050565b600061410e602983614adb565b915061411982615a31565b602982019050919050565b6000614131601083614adb565b915061413c82615a80565b601082019050919050565b6000614154600583614adb565b915061415f82615aa9565b600582019050919050565b6000614177602883614adb565b915061418282615ad2565b602882019050919050565b600061419a600a83614adb565b91506141a582615b21565b600a82019050919050565b60006141bd602983614adb565b91506141c882615b4a565b602982019050919050565b60006141e0602983614adb565b91506141eb82615b99565b602982019050919050565b6141ff81614c65565b82525050565b61420e81614cd6565b82525050565b61421d81614c6f565b82525050565b600061422f8286613aa9565b915061423b8285613aa9565b91506142478284613aa9565b9150819050949350505050565b6000614260828f613aa9565b915061426c828e613aa9565b9150614278828d613aa9565b9150614284828c613aa9565b9150614290828b613aa9565b915061429c828a613aa9565b91506142a88289613aa9565b91506142b48288613aa9565b91506142c08287613aa9565b91506142cc8286613aa9565b91506142d88285613aa9565b91506142e48284613aa9565b91508190509d9c50505050505050505050505050565b600061430582613bf2565b9150819050919050565b600061431a8261400c565b91506143268286613aa9565b915061433182613c15565b915061433d8285613aa9565b915061434882613bac565b91506143548284613aa9565b915061435f82613f17565b9150819050949350505050565b600061437782614052565b91506143838284613aa9565b915081905092915050565b600061439982614075565b91506143a58284613aa9565b91506143b082613e68565b915081905092915050565b60006143c682614098565b91506143d2828a613aa9565b91506143dd826141b0565b91506143e88261418d565b91506143f48289613aa9565b91506143ff82613db9565b915061440a82613e45565b91506144168288613aa9565b915061442182613b66565b915061442c82613d0a565b91506144388287613aa9565b915061444382613ddc565b915061444e82613ef4565b915061445a8286613aa9565b9150614465826141d3565b915061447082613c7e565b915061447c8285613aa9565b915061448782614101565b915061449282613ada565b915061449e8284613aa9565b91506144a982613d73565b915081905098975050505050505050565b60006144c582614124565b91506144d1828a613aa9565b91506144dc8261416a565b91506144e782614147565b91506144f38289613aa9565b91506144fe82613afd565b915061450982613f3a565b91506145158288613aa9565b915061452082613d50565b915061452b82613dff565b91506145378287613aa9565b915061454282613d96565b915061454d82613fc6565b91506145598286613aa9565b915061456482613ce7565b915061456f826140de565b915061457b8285613aa9565b915061458682613ed1565b915061459182613ca1565b915061459d8284613aa9565b91506145a882613cc4565b915081905098975050505050505050565b60006020820190506145ce6000830184613a0a565b92915050565b60006060820190506145e96000830186613a0a565b6145f660208301856139fb565b6146036040830184614205565b949350505050565b60006080820190506146206000830187613a0a565b61462d6020830186613a0a565b61463a60408301856141f6565b818103606083015261464c8184613a28565b905095945050505050565b600060408201905061466c6000830185613a0a565b61467960208301846141f6565b9392505050565b60006020820190506146956000830184613a19565b92915050565b60006020820190506146b06000830184613a61565b92915050565b600060208201905081810360008301526146d08184613a70565b905092915050565b60006101808201905081810360008301526146f3818f613a70565b90508181036020830152614707818e613a70565b9050818103604083015261471b818d613a70565b9050818103606083015261472f818c613a70565b90508181036080830152614743818b613a70565b905081810360a0830152614757818a613a70565b905081810360c083015261476b8189613a70565b905081810360e083015261477f8188613a70565b90508181036101008301526147948187613a70565b90508181036101208301526147a98186613a70565b90508181036101408301526147be8185613a70565b90508181036101608301526147d38184613a70565b90509d9c50505050505050505050505050565b600060208201905081810360008301526147ff81613b20565b9050919050565b6000602082019050818103600083015261481f81613b43565b9050919050565b6000602082019050818103600083015261483f81613b89565b9050919050565b6000602082019050818103600083015261485f81613bcf565b9050919050565b6000602082019050818103600083015261487f81613c38565b9050919050565b6000602082019050818103600083015261489f81613c5b565b9050919050565b600060208201905081810360008301526148bf81613d2d565b9050919050565b600060208201905081810360008301526148df81613e22565b9050919050565b600060208201905081810360008301526148ff81613e8b565b9050919050565b6000602082019050818103600083015261491f81613eae565b9050919050565b6000602082019050818103600083015261493f81613f5d565b9050919050565b6000602082019050818103600083015261495f81613f80565b9050919050565b6000602082019050818103600083015261497f81613fa3565b9050919050565b6000602082019050818103600083015261499f81613fe9565b9050919050565b600060208201905081810360008301526149bf8161402f565b9050919050565b600060208201905081810360008301526149df816140bb565b9050919050565b60006020820190506149fb60008301846141f6565b92915050565b6000602082019050614a166000830184614214565b92915050565b6000614a26614a37565b9050614a328282614d5c565b919050565b6000604051905090565b600067ffffffffffffffff821115614a5c57614a5b614e94565b5b614a6582614ec3565b9050602081019050919050565b600067ffffffffffffffff821115614a8d57614a8c614e94565b5b614a9682614ec3565b9050602081019050919050565b600081519050919050565b600081519050919050565b600082825260208201905092915050565b600082825260208201905092915050565b600081905092915050565b6000614af182614c65565b9150614afc83614c65565b9250827fffffffffffffffffffffffffffffffffffffffffffffffffffffffffffffffff03821115614b3157614b30614e07565b5b828201905092915050565b6000614b4782614c65565b9150614b5283614c65565b925082614b6257614b61614e36565b5b828204905092915050565b6000614b7882614c65565b9150614b8383614c65565b9250817fffffffffffffffffffffffffffffffffffffffffffffffffffffffffffffffff0483118215151615614bbc57614bbb614e07565b5b828202905092915050565b6000614bd282614c65565b9150614bdd83614c65565b925082821015614bf057614bef614e07565b5b828203905092915050565b6000614c0682614c45565b9050919050565b60008115159050919050565b60007fffffffff0000000000000000000000000000000000000000000000000000000082169050919050565b600073ffffffffffffffffffffffffffffffffffffffff82169050919050565b6000819050919050565b600060ff82169050919050565b6000614c8782614cb2565b9050919050565b6000614c9982614ca0565b9050919050565b6000614cab82614c45565b9050919050565b6000614cbd82614cc4565b9050919050565b6000614ccf82614c45565b9050919050565b6000614ce182614c6f565b9050919050565b82818337600083830152505050565b60005b83811015614d15578082015181840152602081019050614cfa565b83811115614d24576000848401525b50505050565b60006002820490506001821680614d4257607f821691505b60208210811415614d5657614d55614e65565b5b50919050565b614d6582614ec3565b810181811067ffffffffffffffff82111715614d8457614d83614e94565b5b80604052505050565b6000614d9882614c65565b91507fffffffffffffffffffffffffffffffffffffffffffffffffffffffffffffffff821415614dcb57614dca614e07565b5b600182019050919050565b6000614de182614c65565b9150614dec83614c65565b925082614dfc57614dfb614e36565b5b828206905092915050565b7f4e487b7100000000000000000000000000000000000000000000000000000000600052601160045260246000fd5b7f4e487b7100000000000000000000000000000000000000000000000000000000600052601260045260246000fd5b7f4e487b7100000000000000000000000000000000000000000000000000000000600052602260045260246000fd5b7f4e487b7100000000000000000000000000000000000000000000000000000000600052604160045260246000fd5b6000601f19601f8301169050919050565b7f64696767696e6720706f7765723a200000000000000000000000000000000000600082015250565b7f3c2f746578743e3c7465787420783d2231302220793d2236302220636c61737360008201527f3d2262617365223e000000000000000000000000000000000000000000000000602082015250565b7f4552433732313a207472616e7366657220746f206e6f6e20455243373231526560008201527f63656976657220696d706c656d656e7465720000000000000000000000000000602082015250565b7f4f776e61626c653a206e6577206f776e657220697320746865207a65726f206160008201527f6464726573730000000000000000000000000000000000000000000000000000602082015250565b7f3c2f746578743e3c7465787420783d2231302220793d223232302220636c617360008201527f733d2262617365223e0000000000000000000000000000000000000000000000602082015250565b7f4552433732313a20746f6b656e20616c7265616479206d696e74656400000000600082015250565b7f2c22696d616765223a2022646174613a696d6167652f7376672b786d6c3b626160008201527f736536342c000000000000000000000000000000000000000000000000000000602082015250565b7f4d696e74696e673a20696e73756666696369656e742062616c616e636520666f60008201527f72206d696e74696e67204e465400000000000000000000000000000000000000602082015250565b7f226465736372697074696f6e223a2022506562626c65204c6f6f74206973206160008201527f207265616c20776f726c6420646174612073746f726564206f6e20636861696e60208201527f2e2053746174732c20696d616765732c20616e64206f746865722066756e637460408201527f696f6e616c6974792061726520696e74656e74696f6e616c6c79206f6d69747460608201527f656420666f72206f746865727320746f20696e746572707265742e204665656c60808201527f206672656520746f2075736520506562626c65204c6f6f7420696e20616e792060a08201527f77617920796f752077616e742e2200000000000000000000000000000000000060c082015250565b7f2c00000000000000000000000000000000000000000000000000000000000000600082015250565b7f4552433732313a207472616e7366657220746f20746865207a65726f2061646460008201527f7265737300000000000000000000000000000000000000000000000000000000602082015250565b7f4552433732313a20617070726f766520746f2063616c6c657200000000000000600082015250565b7f74696d657374616d703a20000000000000000000000000000000000000000000600082015250565b7f74656d70657261747572653a2000000000000000000000000000000000000000600082015250565b7f3c2f746578743e3c7465787420783d2231302220793d223136302220636c617360008201527f733d2262617365223e0000000000000000000000000000000000000000000000602082015250565b7f3c2f746578743e3c7465787420783d2231302220793d223132302220636c617360008201527f733d2262617365223e0000000000000000000000000000000000000000000000602082015250565b7f6779726f73636f70653a20000000000000000000000000000000000000000000600082015250565b7f4552433732313a206f70657261746f7220717565727920666f72206e6f6e657860008201527f697374656e7420746f6b656e0000000000000000000000000000000000000000602082015250565b7f3c2f746578743e3c7465787420783d2231302220793d2238302220636c61737360008201527f3d2262617365223e000000000000000000000000000000000000000000000000602082015250565b7f3c2f746578743e3c2f7376673e00000000000000000000000000000000000000600082015250565b7f3c2f746578743e3c7465787420783d2231302220793d223130302220636c617360008201527f733d2262617365223e0000000000000000000000000000000000000000000000602082015250565b7f3c2f746578743e3c7465787420783d2231302220793d223230302220636c617360008201527f733d2262617365223e0000000000000000000000000000000000000000000000602082015250565b7f3c2f746578743e3c7465787420783d2231302220793d223234302220636c617360008201527f733d2262617365223e0000000000000000000000000000000000000000000000602082015250565b7f6c617469747564653a2000000000000000000000000000000000000000000000600082015250565b7f4552433732313a20617070726f76652063616c6c6572206973206e6f74206f7760008201527f6e6572206e6f7220617070726f76656420666f7220616c6c0000000000000000602082015250565b7f6c696768743a2000000000000000000000000000000000000000000000000000600082015250565b7f2200000000000000000000000000000000000000000000000000000000000000600082015250565b7f4552433732313a2062616c616e636520717565727920666f7220746865207a6560008201527f726f206164647265737300000000000000000000000000000000000000000000602082015250565b7f4552433732313a206f776e657220717565727920666f72206e6f6e657869737460008201527f656e7420746f6b656e0000000000000000000000000000000000000000000000602082015250565b7f3c2f746578743e3c7465787420783d2231302220793d223134302220636c617360008201527f733d2262617365223e0000000000000000000000000000000000000000000000602082015250565b7f616363656c65726f6d657465723a200000000000000000000000000000000000600082015250565b7f227d000000000000000000000000000000000000000000000000000000000000600082015250565b7f766261743a200000000000000000000000000000000000000000000000000000600082015250565b7f4552433732313a206d696e7420746f20746865207a65726f2061646472657373600082015250565b7f4552433732313a20617070726f76656420717565727920666f72206e6f6e657860008201527f697374656e7420746f6b656e0000000000000000000000000000000000000000602082015250565b7f4f776e61626c653a2063616c6c6572206973206e6f7420746865206f776e6572600082015250565b7f6c6f6e6769747564653a20000000000000000000000000000000000000000000600082015250565b7f4552433732313a207472616e73666572206f6620746f6b656e2074686174206960008201527f73206e6f74206f776e0000000000000000000000000000000000000000000000602082015250565b7f7b00000000000000000000000000000000000000000000000000000000000000600082015250565b7f4552433732313a20617070726f76616c20746f2063757272656e74206f776e6560008201527f7200000000000000000000000000000000000000000000000000000000000000602082015250565b7f646174613a6170706c69636174696f6e2f6a736f6e3b6261736536342c000000600082015250565b7f226e616d65223a2022506562626c652023000000000000000000000000000000600082015250565b7f70726573737572653a2000000000000000000000000000000000000000000000600082015250565b7f4552433732313a207472616e736665722063616c6c6572206973206e6f74206f60008201527f776e6572206e6f7220617070726f766564000000000000000000000000000000602082015250565b7f67617320726573697374616e63653a2000000000000000000000000000000000600082015250565b7f3c2f746578743e3c7465787420783d2231302220793d223238302220636c617360008201527f733d2262617365223e0000000000000000000000000000000000000000000000602082015250565b7f44617461506f696e74204c6f6f74202300000000000000000000000000000000600082015250565b7f736e723a20000000000000000000000000000000000000000000000000000000600082015250565b7f3c2f746578743e3c7465787420783d2231302220793d2234302220636c61737360008201527f3d2262617365223e000000000000000000000000000000000000000000000000602082015250565b7f68756d69646974793a2000000000000000000000000000000000000000000000600082015250565b7f3c2f746578743e3c7465787420783d2231302220793d223138302220636c617360008201527f733d2262617365223e0000000000000000000000000000000000000000000000602082015250565b7f3c2f746578743e3c7465787420783d2231302220793d223236302220636c617360008201527f733d2262617365223e0000000000000000000000000000000000000000000000602082015250565b615bf181614bfb565b8114615bfc57600080fd5b50565b615c0881614c0d565b8114615c1357600080fd5b50565b615c1f81614c19565b8114615c2a57600080fd5b50565b615c3681614c65565b8114615c4157600080fd5b5056fe3c73766720786d6c6e733d22687474703a2f2f7777772e77332e6f72672f323030302f73766722207072657365727665417370656374526174696f3d22784d696e594d696e206d656574222076696577426f783d223020302033353020333530223e3c7374796c653e2e62617365207b2066696c6c3a2077686974653b20666f6e742d66616d696c793a2073657269663b20666f6e742d73697a653a20313470783b207d3c2f7374796c653e3c726563742077696474683d223130302522206865696768743d2231303025222066696c6c3d22626c61636b22202f3e3c7465787420783d2231302220793d2232302220636c6173733d2262617365223e4142434445464748494a4b4c4d4e4f505152535455565758595a6162636465666768696a6b6c6d6e6f707172737475767778797a303132333435363738392b2fa26469706673582212209ed527054075435838fed93a5cd6f134f6520ec437609abab243f315574a9a5164736f6c63430008040033",
  "linkReferences": {},
  "deployedLinkReferences": {}
}