{
  "_format": "hh-sol-artifact-1",
  "contractName": "PebbleDataPoint",
  "sourceName": "contracts/PebbleDataPoint.sol",
  "abi": [
    {
      "inputs": [],
      "stateMutability": "nonpayable",
      "type": "constructor"
    },
    {
      "anonymous": false,
      "inputs": [
        {
          "indexed": true,
          "internalType": "address",
          "name": "owner",
          "type": "address"
        },
        {
          "indexed": true,
          "internalType": "address",
          "name": "approved",
          "type": "address"
        },
        {
          "indexed": true,
          "internalType": "uint256",
          "name": "tokenId",
          "type": "uint256"
        }
      ],
      "name": "Approval",
      "type": "event"
    },
    {
      "anonymous": false,
      "inputs": [
        {
          "indexed": true,
          "internalType": "address",
          "name": "owner",
          "type": "address"
        },
        {
          "indexed": true,
          "internalType": "address",
          "name": "operator",
          "type": "address"
        },
        {
          "indexed": false,
          "internalType": "bool",
          "name": "approved",
          "type": "bool"
        }
      ],
      "name": "ApprovalForAll",
      "type": "event"
    },
    {
      "anonymous": false,
      "inputs": [
        {
          "indexed": true,
          "internalType": "address",
          "name": "previousOwner",
          "type": "address"
        },
        {
          "indexed": true,
          "internalType": "address",
          "name": "newOwner",
          "type": "address"
        }
      ],
      "name": "OwnershipTransferred",
      "type": "event"
    },
    {
      "anonymous": false,
      "inputs": [
        {
          "indexed": true,
          "internalType": "address",
          "name": "from",
          "type": "address"
        },
        {
          "indexed": true,
          "internalType": "address",
          "name": "to",
          "type": "address"
        },
        {
          "indexed": true,
          "internalType": "uint256",
          "name": "tokenId",
          "type": "uint256"
        }
      ],
      "name": "Transfer",
      "type": "event"
    },
    {
      "inputs": [
        {
          "internalType": "address",
          "name": "to",
          "type": "address"
        },
        {
          "internalType": "uint256",
          "name": "tokenId",
          "type": "uint256"
        }
      ],
      "name": "approve",
      "outputs": [],
      "stateMutability": "nonpayable",
      "type": "function"
    },
    {
      "inputs": [
        {
          "internalType": "address",
          "name": "owner",
          "type": "address"
        }
      ],
      "name": "balanceOf",
      "outputs": [
        {
          "internalType": "uint256",
          "name": "",
          "type": "uint256"
        }
      ],
      "stateMutability": "view",
      "type": "function"
    },
    {
      "inputs": [
        {
          "internalType": "uint256",
          "name": "tokenId",
          "type": "uint256"
        }
      ],
      "name": "getApproved",
      "outputs": [
        {
          "internalType": "address",
          "name": "",
          "type": "address"
        }
      ],
      "stateMutability": "view",
      "type": "function"
    },
    {
      "inputs": [
        {
          "internalType": "address",
          "name": "owner",
          "type": "address"
        },
        {
          "internalType": "address",
          "name": "operator",
          "type": "address"
        }
      ],
      "name": "isApprovedForAll",
      "outputs": [
        {
          "internalType": "bool",
          "name": "",
          "type": "bool"
        }
      ],
      "stateMutability": "view",
      "type": "function"
    },
    {
      "inputs": [],
      "name": "name",
      "outputs": [
        {
          "internalType": "string",
          "name": "",
          "type": "string"
        }
      ],
      "stateMutability": "view",
      "type": "function"
    },
    {
      "inputs": [],
      "name": "owner",
      "outputs": [
        {
          "internalType": "address",
          "name": "",
          "type": "address"
        }
      ],
      "stateMutability": "view",
      "type": "function"
    },
    {
      "inputs": [
        {
          "internalType": "uint256",
          "name": "tokenId",
          "type": "uint256"
        }
      ],
      "name": "ownerOf",
      "outputs": [
        {
          "internalType": "address",
          "name": "",
          "type": "address"
        }
      ],
      "stateMutability": "view",
      "type": "function"
    },
    {
      "inputs": [],
      "name": "renounceOwnership",
      "outputs": [],
      "stateMutability": "nonpayable",
      "type": "function"
    },
    {
      "inputs": [
        {
          "internalType": "address",
          "name": "to",
          "type": "address"
        },
        {
          "internalType": "uint256",
          "name": "tokenId",
          "type": "uint256"
        },
        {
          "internalType": "string",
          "name": "proto",
          "type": "string"
        }
      ],
      "name": "safeMint",
      "outputs": [],
      "stateMutability": "nonpayable",
      "type": "function"
    },
    {
      "inputs": [
        {
          "internalType": "address",
          "name": "from",
          "type": "address"
        },
        {
          "internalType": "address",
          "name": "to",
          "type": "address"
        },
        {
          "internalType": "uint256",
          "name": "tokenId",
          "type": "uint256"
        }
      ],
      "name": "safeTransferFrom",
      "outputs": [],
      "stateMutability": "nonpayable",
      "type": "function"
    },
    {
      "inputs": [
        {
          "internalType": "address",
          "name": "from",
          "type": "address"
        },
        {
          "internalType": "address",
          "name": "to",
          "type": "address"
        },
        {
          "internalType": "uint256",
          "name": "tokenId",
          "type": "uint256"
        },
        {
          "internalType": "bytes",
          "name": "_data",
          "type": "bytes"
        }
      ],
      "name": "safeTransferFrom",
      "outputs": [],
      "stateMutability": "nonpayable",
      "type": "function"
    },
    {
      "inputs": [
        {
          "internalType": "address",
          "name": "operator",
          "type": "address"
        },
        {
          "internalType": "bool",
          "name": "approved",
          "type": "bool"
        }
      ],
      "name": "setApprovalForAll",
      "outputs": [],
      "stateMutability": "nonpayable",
      "type": "function"
    },
    {
      "inputs": [
        {
          "internalType": "bytes4",
          "name": "interfaceId",
          "type": "bytes4"
        }
      ],
      "name": "supportsInterface",
      "outputs": [
        {
          "internalType": "bool",
          "name": "",
          "type": "bool"
        }
      ],
      "stateMutability": "view",
      "type": "function"
    },
    {
      "inputs": [],
      "name": "symbol",
      "outputs": [
        {
          "internalType": "string",
          "name": "",
          "type": "string"
        }
      ],
      "stateMutability": "view",
      "type": "function"
    },
    {
      "inputs": [
        {
          "internalType": "uint256",
          "name": "tokenId",
          "type": "uint256"
        }
      ],
      "name": "tokenURI",
      "outputs": [
        {
          "internalType": "string",
          "name": "",
          "type": "string"
        }
      ],
      "stateMutability": "view",
      "type": "function"
    },
    {
      "inputs": [
        {
          "internalType": "address",
          "name": "from",
          "type": "address"
        },
        {
          "internalType": "address",
          "name": "to",
          "type": "address"
        },
        {
          "internalType": "uint256",
          "name": "tokenId",
          "type": "uint256"
        }
      ],
      "name": "transferFrom",
      "outputs": [],
      "stateMutability": "nonpayable",
      "type": "function"
    },
    {
      "inputs": [
        {
          "internalType": "address",
          "name": "newOwner",
          "type": "address"
        }
      ],
      "name": "transferOwnership",
      "outputs": [],
      "stateMutability": "nonpayable",
      "type": "function"
    }
  ],
  "bytecode": "0x60806040523480156200001157600080fd5b506040518060400160405280600f81526020017f506562626c6544617461506f696e7400000000000000000000000000000000008152506040518060400160405280600381526020017f5044500000000000000000000000000000000000000000000000000000000000815250816000908051906020019062000096929190620001a6565b508060019080519060200190620000af929190620001a6565b505050620000d2620000c6620000d860201b60201c565b620000e060201b60201c565b620002bb565b600033905090565b6000600760009054906101000a900473ffffffffffffffffffffffffffffffffffffffff16905081600760006101000a81548173ffffffffffffffffffffffffffffffffffffffff021916908373ffffffffffffffffffffffffffffffffffffffff1602179055508173ffffffffffffffffffffffffffffffffffffffff168173ffffffffffffffffffffffffffffffffffffffff167f8be0079c531659141344cd1fd0a4f28419497f9722a3daafe3b4186f6b6457e060405160405180910390a35050565b828054620001b49062000256565b90600052602060002090601f016020900481019282620001d8576000855562000224565b82601f10620001f357805160ff191683800117855562000224565b8280016001018555821562000224579182015b828111156200022357825182559160200191906001019062000206565b5b50905062000233919062000237565b5090565b5b808211156200025257600081600090555060010162000238565b5090565b600060028204905060018216806200026f57607f821691505b602082108114156200028657620002856200028c565b5b50919050565b7f4e487b7100000000000000000000000000000000000000000000000000000000600052602260045260246000fd5b612ecc80620002cb6000396000f3fe608060405234801561001057600080fd5b506004361061010b5760003560e01c8063715018a6116100a2578063b88d4fde11610071578063b88d4fde146102a4578063c87b56dd146102c0578063cd279c7c146102f0578063e985e9c51461030c578063f2fde38b1461033c5761010b565b8063715018a6146102425780638da5cb5b1461024c57806395d89b411461026a578063a22cb465146102885761010b565b806323b872dd116100de57806323b872dd146101aa57806342842e0e146101c65780636352211e146101e257806370a08231146102125761010b565b806301ffc9a71461011057806306fdde0314610140578063081812fc1461015e578063095ea7b31461018e575b600080fd5b61012a60048036038101906101259190611f3e565b610358565b6040516101379190612367565b60405180910390f35b61014861043a565b6040516101559190612382565b60405180910390f35b61017860048036038101906101739190611f90565b6104cc565b6040516101859190612300565b60405180910390f35b6101a860048036038101906101a39190611e96565b610551565b005b6101c460048036038101906101bf9190611d90565b610669565b005b6101e060048036038101906101db9190611d90565b6106c9565b005b6101fc60048036038101906101f79190611f90565b6106e9565b6040516102099190612300565b60405180910390f35b61022c60048036038101906102279190611d2b565b61079b565b60405161023991906125c4565b60405180910390f35b61024a610853565b005b6102546108db565b6040516102619190612300565b60405180910390f35b610272610905565b60405161027f9190612382565b60405180910390f35b6102a2600480360381019061029d9190611e5a565b610997565b005b6102be60048036038101906102b99190611ddf565b610b18565b005b6102da60048036038101906102d59190611f90565b610b7a565b6040516102e79190612382565b60405180910390f35b61030a60048036038101906103059190611ed2565b610b8c565b005b61032660048036038101906103219190611d54565b610c3b565b6040516103339190612367565b60405180910390f35b61035660048036038101906103519190611d2b565b610ccf565b005b60007f80ac58cd000000000000000000000000000000000000000000000000000000007bffffffffffffffffffffffffffffffffffffffffffffffffffffffff1916827bffffffffffffffffffffffffffffffffffffffffffffffffffffffff1916148061042357507f5b5e139f000000000000000000000000000000000000000000000000000000007bffffffffffffffffffffffffffffffffffffffffffffffffffffffff1916827bffffffffffffffffffffffffffffffffffffffffffffffffffffffff1916145b80610433575061043282610dc7565b5b9050919050565b606060008054610449906127e9565b80601f0160208091040260200160405190810160405280929190818152602001828054610475906127e9565b80156104c25780601f10610497576101008083540402835291602001916104c2565b820191906000526020600020905b8154815290600101906020018083116104a557829003601f168201915b5050505050905090565b60006104d782610e31565b610516576040517f08c379a000000000000000000000000000000000000000000000000000000000815260040161050d90612504565b60405180910390fd5b6004600083815260200190815260200160002060009054906101000a900473ffffffffffffffffffffffffffffffffffffffff169050919050565b600061055c826106e9565b90508073ffffffffffffffffffffffffffffffffffffffff168373ffffffffffffffffffffffffffffffffffffffff1614156105cd576040517f08c379a00000000000000000000000000000000000000000000000000000000081526004016105c490612584565b60405180910390fd5b8073ffffffffffffffffffffffffffffffffffffffff166105ec610e9d565b73ffffffffffffffffffffffffffffffffffffffff16148061061b575061061a81610615610e9d565b610c3b565b5b61065a576040517f08c379a000000000000000000000000000000000000000000000000000000000815260040161065190612464565b60405180910390fd5b6106648383610ea5565b505050565b61067a610674610e9d565b82610f5e565b6106b9576040517f08c379a00000000000000000000000000000000000000000000000000000000081526004016106b0906125a4565b60405180910390fd5b6106c483838361103c565b505050565b6106e483838360405180602001604052806000815250610b18565b505050565b6000806002600084815260200190815260200160002060009054906101000a900473ffffffffffffffffffffffffffffffffffffffff169050600073ffffffffffffffffffffffffffffffffffffffff168173ffffffffffffffffffffffffffffffffffffffff161415610792576040517f08c379a0000000000000000000000000000000000000000000000000000000008152600401610789906124a4565b60405180910390fd5b80915050919050565b60008073ffffffffffffffffffffffffffffffffffffffff168273ffffffffffffffffffffffffffffffffffffffff16141561080c576040517f08c379a000000000000000000000000000000000000000000000000000000000815260040161080390612484565b60405180910390fd5b600360008373ffffffffffffffffffffffffffffffffffffffff1673ffffffffffffffffffffffffffffffffffffffff168152602001908152602001600020549050919050565b61085b610e9d565b73ffffffffffffffffffffffffffffffffffffffff166108796108db565b73ffffffffffffffffffffffffffffffffffffffff16146108cf576040517f08c379a00000000000000000000000000000000000000000000000000000000081526004016108c690612524565b60405180910390fd5b6108d96000611298565b565b6000600760009054906101000a900473ffffffffffffffffffffffffffffffffffffffff16905090565b606060018054610914906127e9565b80601f0160208091040260200160405190810160405280929190818152602001828054610940906127e9565b801561098d5780601f106109625761010080835404028352916020019161098d565b820191906000526020600020905b81548152906001019060200180831161097057829003601f168201915b5050505050905090565b61099f610e9d565b73ffffffffffffffffffffffffffffffffffffffff168273ffffffffffffffffffffffffffffffffffffffff161415610a0d576040517f08c379a0000000000000000000000000000000000000000000000000000000008152600401610a0490612424565b60405180910390fd5b8060056000610a1a610e9d565b73ffffffffffffffffffffffffffffffffffffffff1673ffffffffffffffffffffffffffffffffffffffff16815260200190815260200160002060008473ffffffffffffffffffffffffffffffffffffffff1673ffffffffffffffffffffffffffffffffffffffff16815260200190815260200160002060006101000a81548160ff0219169083151502179055508173ffffffffffffffffffffffffffffffffffffffff16610ac7610e9d565b73ffffffffffffffffffffffffffffffffffffffff167f17307eab39ab6107e8899845ad3d59bd9653f200f220920489ca2b5937696c3183604051610b0c9190612367565b60405180910390a35050565b610b29610b23610e9d565b83610f5e565b610b68576040517f08c379a0000000000000000000000000000000000000000000000000000000008152600401610b5f906125a4565b60405180910390fd5b610b748484848461135e565b50505050565b6060610b85826113ba565b9050919050565b610b94610e9d565b73ffffffffffffffffffffffffffffffffffffffff16610bb26108db565b73ffffffffffffffffffffffffffffffffffffffff1614610c08576040517f08c379a0000000000000000000000000000000000000000000000000000000008152600401610bff90612524565b60405180910390fd5b610c12848461150c565b8181600860008681526020019081526020016000209190610c34929190611b6d565b5050505050565b6000600560008473ffffffffffffffffffffffffffffffffffffffff1673ffffffffffffffffffffffffffffffffffffffff16815260200190815260200160002060008373ffffffffffffffffffffffffffffffffffffffff1673ffffffffffffffffffffffffffffffffffffffff16815260200190815260200160002060009054906101000a900460ff16905092915050565b610cd7610e9d565b73ffffffffffffffffffffffffffffffffffffffff16610cf56108db565b73ffffffffffffffffffffffffffffffffffffffff1614610d4b576040517f08c379a0000000000000000000000000000000000000000000000000000000008152600401610d4290612524565b60405180910390fd5b600073ffffffffffffffffffffffffffffffffffffffff168173ffffffffffffffffffffffffffffffffffffffff161415610dbb576040517f08c379a0000000000000000000000000000000000000000000000000000000008152600401610db2906123c4565b60405180910390fd5b610dc481611298565b50565b60007f01ffc9a7000000000000000000000000000000000000000000000000000000007bffffffffffffffffffffffffffffffffffffffffffffffffffffffff1916827bffffffffffffffffffffffffffffffffffffffffffffffffffffffff1916149050919050565b60008073ffffffffffffffffffffffffffffffffffffffff166002600084815260200190815260200160002060009054906101000a900473ffffffffffffffffffffffffffffffffffffffff1673ffffffffffffffffffffffffffffffffffffffff1614159050919050565b600033905090565b816004600083815260200190815260200160002060006101000a81548173ffffffffffffffffffffffffffffffffffffffff021916908373ffffffffffffffffffffffffffffffffffffffff160217905550808273ffffffffffffffffffffffffffffffffffffffff16610f18836106e9565b73ffffffffffffffffffffffffffffffffffffffff167f8c5be1e5ebec7d5bd14f71427d1e84f3dd0314c0f7b2291e5b200ac8c7c3b92560405160405180910390a45050565b6000610f6982610e31565b610fa8576040517f08c379a0000000000000000000000000000000000000000000000000000000008152600401610f9f90612444565b60405180910390fd5b6000610fb3836106e9565b90508073ffffffffffffffffffffffffffffffffffffffff168473ffffffffffffffffffffffffffffffffffffffff16148061102257508373ffffffffffffffffffffffffffffffffffffffff1661100a846104cc565b73ffffffffffffffffffffffffffffffffffffffff16145b8061103357506110328185610c3b565b5b91505092915050565b8273ffffffffffffffffffffffffffffffffffffffff1661105c826106e9565b73ffffffffffffffffffffffffffffffffffffffff16146110b2576040517f08c379a00000000000000000000000000000000000000000000000000000000081526004016110a990612544565b60405180910390fd5b600073ffffffffffffffffffffffffffffffffffffffff168273ffffffffffffffffffffffffffffffffffffffff161415611122576040517f08c379a000000000000000000000000000000000000000000000000000000000815260040161111990612404565b60405180910390fd5b61112d83838361152a565b611138600082610ea5565b6001600360008573ffffffffffffffffffffffffffffffffffffffff1673ffffffffffffffffffffffffffffffffffffffff168152602001908152602001600020600082825461118891906126ff565b925050819055506001600360008473ffffffffffffffffffffffffffffffffffffffff1673ffffffffffffffffffffffffffffffffffffffff16815260200190815260200160002060008282546111df9190612678565b92505081905550816002600083815260200190815260200160002060006101000a81548173ffffffffffffffffffffffffffffffffffffffff021916908373ffffffffffffffffffffffffffffffffffffffff160217905550808273ffffffffffffffffffffffffffffffffffffffff168473ffffffffffffffffffffffffffffffffffffffff167fddf252ad1be2c89b69c2b068fc378daa952ba7f163c4a11628f55a4df523b3ef60405160405180910390a4505050565b6000600760009054906101000a900473ffffffffffffffffffffffffffffffffffffffff16905081600760006101000a81548173ffffffffffffffffffffffffffffffffffffffff021916908373ffffffffffffffffffffffffffffffffffffffff1602179055508173ffffffffffffffffffffffffffffffffffffffff168173ffffffffffffffffffffffffffffffffffffffff167f8be0079c531659141344cd1fd0a4f28419497f9722a3daafe3b4186f6b6457e060405160405180910390a35050565b61136984848461103c565b6113758484848461152f565b6113b4576040517f08c379a00000000000000000000000000000000000000000000000000000000081526004016113ab906123a4565b60405180910390fd5b50505050565b60606113c582610e31565b611404576040517f08c379a00000000000000000000000000000000000000000000000000000000081526004016113fb906124e4565b60405180910390fd5b6000600660008481526020019081526020016000208054611424906127e9565b80601f0160208091040260200160405190810160405280929190818152602001828054611450906127e9565b801561149d5780601f106114725761010080835404028352916020019161149d565b820191906000526020600020905b81548152906001019060200180831161148057829003601f168201915b5050505050905060006114ae6116c6565b90506000815114156114c4578192505050611507565b6000825111156114f95780826040516020016114e19291906122dc565b60405160208183030381529060405292505050611507565b611502846116dd565b925050505b919050565b611526828260405180602001604052806000815250611784565b5050565b505050565b60006115508473ffffffffffffffffffffffffffffffffffffffff166117df565b156116b9578373ffffffffffffffffffffffffffffffffffffffff1663150b7a02611579610e9d565b8786866040518563ffffffff1660e01b815260040161159b949392919061231b565b602060405180830381600087803b1580156115b557600080fd5b505af19250505080156115e657506040513d601f19601f820116820180604052508101906115e39190611f67565b60015b611669573d8060008114611616576040519150601f19603f3d011682016040523d82523d6000602084013e61161b565b606091505b50600081511415611661576040517f08c379a0000000000000000000000000000000000000000000000000000000008152600401611658906123a4565b60405180910390fd5b805181602001fd5b63150b7a0260e01b7bffffffffffffffffffffffffffffffffffffffffffffffffffffffff1916817bffffffffffffffffffffffffffffffffffffffffffffffffffffffff1916149150506116be565b600190505b949350505050565b606060405180602001604052806000815250905090565b60606116e882610e31565b611727576040517f08c379a000000000000000000000000000000000000000000000000000000000815260040161171e90612564565b60405180910390fd5b60006117316116c6565b90506000815111611751576040518060200160405280600081525061177c565b8061175b846117f2565b60405160200161176c9291906122dc565b6040516020818303038152906040525b915050919050565b61178e838361199f565b61179b600084848461152f565b6117da576040517f08c379a00000000000000000000000000000000000000000000000000000000081526004016117d1906123a4565b60405180910390fd5b505050565b600080823b905060008111915050919050565b6060600082141561183a576040518060400160405280600181526020017f3000000000000000000000000000000000000000000000000000000000000000815250905061199a565b600082905060005b6000821461186c5780806118559061284c565b915050600a8261186591906126ce565b9150611842565b60008167ffffffffffffffff8111156118ae577f4e487b7100000000000000000000000000000000000000000000000000000000600052604160045260246000fd5b6040519080825280601f01601f1916602001820160405280156118e05781602001600182028036833780820191505090505b5090505b60008514611993576001826118f991906126ff565b9150600a856119089190612895565b60306119149190612678565b60f81b818381518110611950577f4e487b7100000000000000000000000000000000000000000000000000000000600052603260045260246000fd5b60200101907effffffffffffffffffffffffffffffffffffffffffffffffffffffffffffff1916908160001a905350600a8561198c91906126ce565b94506118e4565b8093505050505b919050565b600073ffffffffffffffffffffffffffffffffffffffff168273ffffffffffffffffffffffffffffffffffffffff161415611a0f576040517f08c379a0000000000000000000000000000000000000000000000000000000008152600401611a06906124c4565b60405180910390fd5b611a1881610e31565b15611a58576040517f08c379a0000000000000000000000000000000000000000000000000000000008152600401611a4f906123e4565b60405180910390fd5b611a646000838361152a565b6001600360008473ffffffffffffffffffffffffffffffffffffffff1673ffffffffffffffffffffffffffffffffffffffff1681526020019081526020016000206000828254611ab49190612678565b92505081905550816002600083815260200190815260200160002060006101000a81548173ffffffffffffffffffffffffffffffffffffffff021916908373ffffffffffffffffffffffffffffffffffffffff160217905550808273ffffffffffffffffffffffffffffffffffffffff16600073ffffffffffffffffffffffffffffffffffffffff167fddf252ad1be2c89b69c2b068fc378daa952ba7f163c4a11628f55a4df523b3ef60405160405180910390a45050565b828054611b79906127e9565b90600052602060002090601f016020900481019282611b9b5760008555611be2565b82601f10611bb457803560ff1916838001178555611be2565b82800160010185558215611be2579182015b82811115611be1578235825591602001919060010190611bc6565b5b509050611bef9190611bf3565b5090565b5b80821115611c0c576000816000905550600101611bf4565b5090565b6000611c23611c1e84612604565b6125df565b905082815260208101848484011115611c3b57600080fd5b611c468482856127a7565b509392505050565b600081359050611c5d81612e3a565b92915050565b600081359050611c7281612e51565b92915050565b600081359050611c8781612e68565b92915050565b600081519050611c9c81612e68565b92915050565b600082601f830112611cb357600080fd5b8135611cc3848260208601611c10565b91505092915050565b60008083601f840112611cde57600080fd5b8235905067ffffffffffffffff811115611cf757600080fd5b602083019150836001820283011115611d0f57600080fd5b9250929050565b600081359050611d2581612e7f565b92915050565b600060208284031215611d3d57600080fd5b6000611d4b84828501611c4e565b91505092915050565b60008060408385031215611d6757600080fd5b6000611d7585828601611c4e565b9250506020611d8685828601611c4e565b9150509250929050565b600080600060608486031215611da557600080fd5b6000611db386828701611c4e565b9350506020611dc486828701611c4e565b9250506040611dd586828701611d16565b9150509250925092565b60008060008060808587031215611df557600080fd5b6000611e0387828801611c4e565b9450506020611e1487828801611c4e565b9350506040611e2587828801611d16565b925050606085013567ffffffffffffffff811115611e4257600080fd5b611e4e87828801611ca2565b91505092959194509250565b60008060408385031215611e6d57600080fd5b6000611e7b85828601611c4e565b9250506020611e8c85828601611c63565b9150509250929050565b60008060408385031215611ea957600080fd5b6000611eb785828601611c4e565b9250506020611ec885828601611d16565b9150509250929050565b60008060008060608587031215611ee857600080fd5b6000611ef687828801611c4e565b9450506020611f0787828801611d16565b935050604085013567ffffffffffffffff811115611f2457600080fd5b611f3087828801611ccc565b925092505092959194509250565b600060208284031215611f5057600080fd5b6000611f5e84828501611c78565b91505092915050565b600060208284031215611f7957600080fd5b6000611f8784828501611c8d565b91505092915050565b600060208284031215611fa257600080fd5b6000611fb084828501611d16565b91505092915050565b611fc281612733565b82525050565b611fd181612745565b82525050565b6000611fe282612635565b611fec818561264b565b9350611ffc8185602086016127b6565b61200581612982565b840191505092915050565b600061201b82612640565b612025818561265c565b93506120358185602086016127b6565b61203e81612982565b840191505092915050565b600061205482612640565b61205e818561266d565b935061206e8185602086016127b6565b80840191505092915050565b600061208760328361265c565b915061209282612993565b604082019050919050565b60006120aa60268361265c565b91506120b5826129e2565b604082019050919050565b60006120cd601c8361265c565b91506120d882612a31565b602082019050919050565b60006120f060248361265c565b91506120fb82612a5a565b604082019050919050565b600061211360198361265c565b915061211e82612aa9565b602082019050919050565b6000612136602c8361265c565b915061214182612ad2565b604082019050919050565b600061215960388361265c565b915061216482612b21565b604082019050919050565b600061217c602a8361265c565b915061218782612b70565b604082019050919050565b600061219f60298361265c565b91506121aa82612bbf565b604082019050919050565b60006121c260208361265c565b91506121cd82612c0e565b602082019050919050565b60006121e560318361265c565b91506121f082612c37565b604082019050919050565b6000612208602c8361265c565b915061221382612c86565b604082019050919050565b600061222b60208361265c565b915061223682612cd5565b602082019050919050565b600061224e60298361265c565b915061225982612cfe565b604082019050919050565b6000612271602f8361265c565b915061227c82612d4d565b604082019050919050565b600061229460218361265c565b915061229f82612d9c565b604082019050919050565b60006122b760318361265c565b91506122c282612deb565b604082019050919050565b6122d68161279d565b82525050565b60006122e88285612049565b91506122f48284612049565b91508190509392505050565b60006020820190506123156000830184611fb9565b92915050565b60006080820190506123306000830187611fb9565b61233d6020830186611fb9565b61234a60408301856122cd565b818103606083015261235c8184611fd7565b905095945050505050565b600060208201905061237c6000830184611fc8565b92915050565b6000602082019050818103600083015261239c8184612010565b905092915050565b600060208201905081810360008301526123bd8161207a565b9050919050565b600060208201905081810360008301526123dd8161209d565b9050919050565b600060208201905081810360008301526123fd816120c0565b9050919050565b6000602082019050818103600083015261241d816120e3565b9050919050565b6000602082019050818103600083015261243d81612106565b9050919050565b6000602082019050818103600083015261245d81612129565b9050919050565b6000602082019050818103600083015261247d8161214c565b9050919050565b6000602082019050818103600083015261249d8161216f565b9050919050565b600060208201905081810360008301526124bd81612192565b9050919050565b600060208201905081810360008301526124dd816121b5565b9050919050565b600060208201905081810360008301526124fd816121d8565b9050919050565b6000602082019050818103600083015261251d816121fb565b9050919050565b6000602082019050818103600083015261253d8161221e565b9050919050565b6000602082019050818103600083015261255d81612241565b9050919050565b6000602082019050818103600083015261257d81612264565b9050919050565b6000602082019050818103600083015261259d81612287565b9050919050565b600060208201905081810360008301526125bd816122aa565b9050919050565b60006020820190506125d960008301846122cd565b92915050565b60006125e96125fa565b90506125f5828261281b565b919050565b6000604051905090565b600067ffffffffffffffff82111561261f5761261e612953565b5b61262882612982565b9050602081019050919050565b600081519050919050565b600081519050919050565b600082825260208201905092915050565b600082825260208201905092915050565b600081905092915050565b60006126838261279d565b915061268e8361279d565b9250827fffffffffffffffffffffffffffffffffffffffffffffffffffffffffffffffff038211156126c3576126c26128c6565b5b828201905092915050565b60006126d98261279d565b91506126e48361279d565b9250826126f4576126f36128f5565b5b828204905092915050565b600061270a8261279d565b91506127158361279d565b925082821015612728576127276128c6565b5b828203905092915050565b600061273e8261277d565b9050919050565b60008115159050919050565b60007fffffffff0000000000000000000000000000000000000000000000000000000082169050919050565b600073ffffffffffffffffffffffffffffffffffffffff82169050919050565b6000819050919050565b82818337600083830152505050565b60005b838110156127d45780820151818401526020810190506127b9565b838111156127e3576000848401525b50505050565b6000600282049050600182168061280157607f821691505b6020821081141561281557612814612924565b5b50919050565b61282482612982565b810181811067ffffffffffffffff8211171561284357612842612953565b5b80604052505050565b60006128578261279d565b91507fffffffffffffffffffffffffffffffffffffffffffffffffffffffffffffffff82141561288a576128896128c6565b5b600182019050919050565b60006128a08261279d565b91506128ab8361279d565b9250826128bb576128ba6128f5565b5b828206905092915050565b7f4e487b7100000000000000000000000000000000000000000000000000000000600052601160045260246000fd5b7f4e487b7100000000000000000000000000000000000000000000000000000000600052601260045260246000fd5b7f4e487b7100000000000000000000000000000000000000000000000000000000600052602260045260246000fd5b7f4e487b7100000000000000000000000000000000000000000000000000000000600052604160045260246000fd5b6000601f19601f8301169050919050565b7f4552433732313a207472616e7366657220746f206e6f6e20455243373231526560008201527f63656976657220696d706c656d656e7465720000000000000000000000000000602082015250565b7f4f776e61626c653a206e6577206f776e657220697320746865207a65726f206160008201527f6464726573730000000000000000000000000000000000000000000000000000602082015250565b7f4552433732313a20746f6b656e20616c7265616479206d696e74656400000000600082015250565b7f4552433732313a207472616e7366657220746f20746865207a65726f2061646460008201527f7265737300000000000000000000000000000000000000000000000000000000602082015250565b7f4552433732313a20617070726f766520746f2063616c6c657200000000000000600082015250565b7f4552433732313a206f70657261746f7220717565727920666f72206e6f6e657860008201527f697374656e7420746f6b656e0000000000000000000000000000000000000000602082015250565b7f4552433732313a20617070726f76652063616c6c6572206973206e6f74206f7760008201527f6e6572206e6f7220617070726f76656420666f7220616c6c0000000000000000602082015250565b7f4552433732313a2062616c616e636520717565727920666f7220746865207a6560008201527f726f206164647265737300000000000000000000000000000000000000000000602082015250565b7f4552433732313a206f776e657220717565727920666f72206e6f6e657869737460008201527f656e7420746f6b656e0000000000000000000000000000000000000000000000602082015250565b7f4552433732313a206d696e7420746f20746865207a65726f2061646472657373600082015250565b7f45524337323155524953746f726167653a2055524920717565727920666f722060008201527f6e6f6e6578697374656e7420746f6b656e000000000000000000000000000000602082015250565b7f4552433732313a20617070726f76656420717565727920666f72206e6f6e657860008201527f697374656e7420746f6b656e0000000000000000000000000000000000000000602082015250565b7f4f776e61626c653a2063616c6c6572206973206e6f7420746865206f776e6572600082015250565b7f4552433732313a207472616e73666572206f6620746f6b656e2074686174206960008201527f73206e6f74206f776e0000000000000000000000000000000000000000000000602082015250565b7f4552433732314d657461646174613a2055524920717565727920666f72206e6f60008201527f6e6578697374656e7420746f6b656e0000000000000000000000000000000000602082015250565b7f4552433732313a20617070726f76616c20746f2063757272656e74206f776e6560008201527f7200000000000000000000000000000000000000000000000000000000000000602082015250565b7f4552433732313a207472616e736665722063616c6c6572206973206e6f74206f60008201527f776e6572206e6f7220617070726f766564000000000000000000000000000000602082015250565b612e4381612733565b8114612e4e57600080fd5b50565b612e5a81612745565b8114612e6557600080fd5b50565b612e7181612751565b8114612e7c57600080fd5b50565b612e888161279d565b8114612e9357600080fd5b5056fea2646970667358221220f1c889509f92ac19bbee7bae6b5540a452b36cf675327b4a1b00e91d75fe2e1f64736f6c63430008040033",
  "linkReferences": {},
  "deployedLinkReferences": {}
}