{
  "_format": "hh-sol-artifact-1",
  "contractName": "PebbleLoot",
  "sourceName": "contracts/PebbleLoot.sol",
  "abi": [
    {
      "inputs": [
        {
          "internalType": "string",
          "name": "_name",
          "type": "string"
        },
        {
          "internalType": "string",
          "name": "_symbol",
          "type": "string"
        },
        {
          "internalType": "address",
          "name": "_registration",
          "type": "address"
        },
        {
          "internalType": "uint16",
          "name": "_mintingFee",
          "type": "uint16"
        },
        {
          "internalType": "address payable",
          "name": "_feeReceipient",
          "type": "address"
        }
      ],
      "stateMutability": "nonpayable",
      "type": "constructor"
    },
    {
      "anonymous": false,
      "inputs": [
        {
          "indexed": true,
          "internalType": "address",
          "name": "owner",
          "type": "address"
        },
        {
          "indexed": true,
          "internalType": "address",
          "name": "approved",
          "type": "address"
        },
        {
          "indexed": true,
          "internalType": "uint256",
          "name": "tokenId",
          "type": "uint256"
        }
      ],
      "name": "Approval",
      "type": "event"
    },
    {
      "anonymous": false,
      "inputs": [
        {
          "indexed": true,
          "internalType": "address",
          "name": "owner",
          "type": "address"
        },
        {
          "indexed": true,
          "internalType": "address",
          "name": "operator",
          "type": "address"
        },
        {
          "indexed": false,
          "internalType": "bool",
          "name": "approved",
          "type": "bool"
        }
      ],
      "name": "ApprovalForAll",
      "type": "event"
    },
    {
      "anonymous": false,
      "inputs": [
        {
          "indexed": true,
          "internalType": "address",
          "name": "previousOwner",
          "type": "address"
        },
        {
          "indexed": true,
          "internalType": "address",
          "name": "newOwner",
          "type": "address"
        }
      ],
      "name": "OwnershipTransferred",
      "type": "event"
    },
    {
      "anonymous": false,
      "inputs": [
        {
          "indexed": true,
          "internalType": "address",
          "name": "from",
          "type": "address"
        },
        {
          "indexed": true,
          "internalType": "address",
          "name": "to",
          "type": "address"
        },
        {
          "indexed": true,
          "internalType": "uint256",
          "name": "tokenId",
          "type": "uint256"
        }
      ],
      "name": "Transfer",
      "type": "event"
    },
    {
      "inputs": [
        {
          "internalType": "address",
          "name": "to",
          "type": "address"
        },
        {
          "internalType": "uint256",
          "name": "tokenId",
          "type": "uint256"
        }
      ],
      "name": "approve",
      "outputs": [],
      "stateMutability": "nonpayable",
      "type": "function"
    },
    {
      "inputs": [
        {
          "internalType": "address",
          "name": "owner",
          "type": "address"
        }
      ],
      "name": "balanceOf",
      "outputs": [
        {
          "internalType": "uint256",
          "name": "",
          "type": "uint256"
        }
      ],
      "stateMutability": "view",
      "type": "function"
    },
    {
      "inputs": [
        {
          "internalType": "uint256",
          "name": "tokenId",
          "type": "uint256"
        }
      ],
      "name": "claim",
      "outputs": [],
      "stateMutability": "nonpayable",
      "type": "function"
    },
    {
      "inputs": [],
      "name": "feeReceipient",
      "outputs": [
        {
          "internalType": "address payable",
          "name": "",
          "type": "address"
        }
      ],
      "stateMutability": "view",
      "type": "function"
    },
    {
      "inputs": [
        {
          "internalType": "uint256",
          "name": "tokenId",
          "type": "uint256"
        }
      ],
      "name": "getApproved",
      "outputs": [
        {
          "internalType": "address",
          "name": "",
          "type": "address"
        }
      ],
      "stateMutability": "view",
      "type": "function"
    },
    {
      "inputs": [
        {
          "internalType": "address",
          "name": "owner",
          "type": "address"
        },
        {
          "internalType": "address",
          "name": "operator",
          "type": "address"
        }
      ],
      "name": "isApprovedForAll",
      "outputs": [
        {
          "internalType": "bool",
          "name": "",
          "type": "bool"
        }
      ],
      "stateMutability": "view",
      "type": "function"
    },
    {
      "inputs": [],
      "name": "mintingFee",
      "outputs": [
        {
          "internalType": "uint16",
          "name": "",
          "type": "uint16"
        }
      ],
      "stateMutability": "view",
      "type": "function"
    },
    {
      "inputs": [],
      "name": "name",
      "outputs": [
        {
          "internalType": "string",
          "name": "",
          "type": "string"
        }
      ],
      "stateMutability": "view",
      "type": "function"
    },
    {
      "inputs": [],
      "name": "owner",
      "outputs": [
        {
          "internalType": "address",
          "name": "",
          "type": "address"
        }
      ],
      "stateMutability": "view",
      "type": "function"
    },
    {
      "inputs": [
        {
          "internalType": "uint256",
          "name": "tokenId",
          "type": "uint256"
        }
      ],
      "name": "ownerOf",
      "outputs": [
        {
          "internalType": "address",
          "name": "",
          "type": "address"
        }
      ],
      "stateMutability": "view",
      "type": "function"
    },
    {
      "inputs": [],
      "name": "registration",
      "outputs": [
        {
          "internalType": "contract IRegistration",
          "name": "",
          "type": "address"
        }
      ],
      "stateMutability": "view",
      "type": "function"
    },
    {
      "inputs": [],
      "name": "renounceOwnership",
      "outputs": [],
      "stateMutability": "nonpayable",
      "type": "function"
    },
    {
      "inputs": [
        {
          "internalType": "address",
          "name": "from",
          "type": "address"
        },
        {
          "internalType": "address",
          "name": "to",
          "type": "address"
        },
        {
          "internalType": "uint256",
          "name": "tokenId",
          "type": "uint256"
        }
      ],
      "name": "safeTransferFrom",
      "outputs": [],
      "stateMutability": "nonpayable",
      "type": "function"
    },
    {
      "inputs": [
        {
          "internalType": "address",
          "name": "from",
          "type": "address"
        },
        {
          "internalType": "address",
          "name": "to",
          "type": "address"
        },
        {
          "internalType": "uint256",
          "name": "tokenId",
          "type": "uint256"
        },
        {
          "internalType": "bytes",
          "name": "_data",
          "type": "bytes"
        }
      ],
      "name": "safeTransferFrom",
      "outputs": [],
      "stateMutability": "nonpayable",
      "type": "function"
    },
    {
      "inputs": [
        {
          "internalType": "address",
          "name": "operator",
          "type": "address"
        },
        {
          "internalType": "bool",
          "name": "approved",
          "type": "bool"
        }
      ],
      "name": "setApprovalForAll",
      "outputs": [],
      "stateMutability": "nonpayable",
      "type": "function"
    },
    {
      "inputs": [
        {
          "internalType": "address",
          "name": "_registration",
          "type": "address"
        }
      ],
      "name": "setRegistrationAddress",
      "outputs": [],
      "stateMutability": "nonpayable",
      "type": "function"
    },
    {
      "inputs": [
        {
          "internalType": "bytes4",
          "name": "interfaceId",
          "type": "bytes4"
        }
      ],
      "name": "supportsInterface",
      "outputs": [
        {
          "internalType": "bool",
          "name": "",
          "type": "bool"
        }
      ],
      "stateMutability": "view",
      "type": "function"
    },
    {
      "inputs": [],
      "name": "symbol",
      "outputs": [
        {
          "internalType": "string",
          "name": "",
          "type": "string"
        }
      ],
      "stateMutability": "view",
      "type": "function"
    },
    {
      "inputs": [
        {
          "internalType": "uint256",
          "name": "tokenId",
          "type": "uint256"
        }
      ],
      "name": "tokenURI",
      "outputs": [
        {
          "internalType": "string",
          "name": "",
          "type": "string"
        }
      ],
      "stateMutability": "pure",
      "type": "function"
    },
    {
      "inputs": [
        {
          "internalType": "address",
          "name": "from",
          "type": "address"
        },
        {
          "internalType": "address",
          "name": "to",
          "type": "address"
        },
        {
          "internalType": "uint256",
          "name": "tokenId",
          "type": "uint256"
        }
      ],
      "name": "transferFrom",
      "outputs": [],
      "stateMutability": "nonpayable",
      "type": "function"
    },
    {
      "inputs": [
        {
          "internalType": "address",
          "name": "newOwner",
          "type": "address"
        }
      ],
      "name": "transferOwnership",
      "outputs": [],
      "stateMutability": "nonpayable",
      "type": "function"
    }
  ],
  "bytecode": "0x60806040523480156200001157600080fd5b5060405162003eeb38038062003eeb833981810160405281019062000037919062000374565b84848160009080519060200190620000519291906200020d565b5080600190805190602001906200006a9291906200020d565b505050600160068190555062000095620000896200013f60201b60201c565b6200014760201b60201c565b82600860006101000a81548173ffffffffffffffffffffffffffffffffffffffff021916908373ffffffffffffffffffffffffffffffffffffffff16021790555081600860146101000a81548161ffff021916908361ffff16021790555080600960006101000a81548173ffffffffffffffffffffffffffffffffffffffff021916908373ffffffffffffffffffffffffffffffffffffffff16021790555050505050506200063c565b600033905090565b6000600760009054906101000a900473ffffffffffffffffffffffffffffffffffffffff16905081600760006101000a81548173ffffffffffffffffffffffffffffffffffffffff021916908373ffffffffffffffffffffffffffffffffffffffff1602179055508173ffffffffffffffffffffffffffffffffffffffff168173ffffffffffffffffffffffffffffffffffffffff167f8be0079c531659141344cd1fd0a4f28419497f9722a3daafe3b4186f6b6457e060405160405180910390a35050565b8280546200021b9062000513565b90600052602060002090601f0160209004810192826200023f57600085556200028b565b82601f106200025a57805160ff19168380011785556200028b565b828001600101855582156200028b579182015b828111156200028a5782518255916020019190600101906200026d565b5b5090506200029a91906200029e565b5090565b5b80821115620002b95760008160009055506001016200029f565b5090565b6000620002d4620002ce8462000451565b62000428565b905082815260208101848484011115620002ed57600080fd5b620002fa848285620004dd565b509392505050565b6000815190506200031381620005ee565b92915050565b6000815190506200032a8162000608565b92915050565b600082601f8301126200034257600080fd5b815162000354848260208601620002bd565b91505092915050565b6000815190506200036e8162000622565b92915050565b600080600080600060a086880312156200038d57600080fd5b600086015167ffffffffffffffff811115620003a857600080fd5b620003b68882890162000330565b955050602086015167ffffffffffffffff811115620003d457600080fd5b620003e28882890162000330565b9450506040620003f58882890162000302565b935050606062000408888289016200035d565b92505060806200041b8882890162000319565b9150509295509295909350565b60006200043462000447565b905062000442828262000549565b919050565b6000604051905090565b600067ffffffffffffffff8211156200046f576200046e620005ae565b5b6200047a82620005dd565b9050602081019050919050565b60006200049482620004bd565b9050919050565b6000620004a882620004bd565b9050919050565b600061ffff82169050919050565b600073ffffffffffffffffffffffffffffffffffffffff82169050919050565b60005b83811015620004fd578082015181840152602081019050620004e0565b838111156200050d576000848401525b50505050565b600060028204905060018216806200052c57607f821691505b602082108114156200054357620005426200057f565b5b50919050565b6200055482620005dd565b810181811067ffffffffffffffff82111715620005765762000575620005ae565b5b80604052505050565b7f4e487b7100000000000000000000000000000000000000000000000000000000600052602260045260246000fd5b7f4e487b7100000000000000000000000000000000000000000000000000000000600052604160045260246000fd5b6000601f19601f8301169050919050565b620005f98162000487565b81146200060557600080fd5b50565b62000613816200049b565b81146200061f57600080fd5b50565b6200062d81620004af565b81146200063957600080fd5b50565b61389f806200064c6000396000f3fe608060405234801561001057600080fd5b50600436106101375760003560e01c80636352211e116100b857806395d89b411161007c57806395d89b4114610328578063a22cb46514610346578063b88d4fde14610362578063c87b56dd1461037e578063e985e9c5146103ae578063f2fde38b146103de57610137565b80636352211e146102845780636f27cf76146102b457806370a08231146102d0578063715018a6146103005780638da5cb5b1461030a57610137565b80633740ebb3116100ff5780633740ebb3146101f2578063379607f51461021057806342842e0e1461022c578063443bd1d0146102485780635a64ad951461026657610137565b806301ffc9a71461013c57806306fdde031461016c578063081812fc1461018a578063095ea7b3146101ba57806323b872dd146101d6575b600080fd5b6101566004803603810190610151919061225e565b6103fa565b60405161016391906128fa565b60405180910390f35b6101746104dc565b6040516101819190612930565b60405180910390f35b6101a4600480360381019061019f91906122b0565b61056e565b6040516101b19190612878565b60405180910390f35b6101d460048036038101906101cf9190612222565b6105f3565b005b6101f060048036038101906101eb919061211c565b61070b565b005b6101fa61076b565b6040516102079190612893565b60405180910390f35b61022a600480360381019061022591906122b0565b610791565b005b6102466004803603810190610241919061211c565b610855565b005b610250610875565b60405161025d9190612915565b60405180910390f35b61026e61089b565b60405161027b9190612b72565b60405180910390f35b61029e600480360381019061029991906122b0565b6108af565b6040516102ab9190612878565b60405180910390f35b6102ce60048036038101906102c991906120b7565b610961565b005b6102ea60048036038101906102e591906120b7565b610a21565b6040516102f79190612b8d565b60405180910390f35b610308610ad9565b005b610312610b61565b60405161031f9190612878565b60405180910390f35b610330610b8b565b60405161033d9190612930565b60405180910390f35b610360600480360381019061035b91906121e6565b610c1d565b005b61037c6004803603810190610377919061216b565b610d9e565b005b610398600480360381019061039391906122b0565b610e00565b6040516103a59190612930565b60405180910390f35b6103c860048036038101906103c391906120e0565b6110df565b6040516103d591906128fa565b60405180910390f35b6103f860048036038101906103f391906120b7565b611173565b005b60007f80ac58cd000000000000000000000000000000000000000000000000000000007bffffffffffffffffffffffffffffffffffffffffffffffffffffffff1916827bffffffffffffffffffffffffffffffffffffffffffffffffffffffff191614806104c557507f5b5e139f000000000000000000000000000000000000000000000000000000007bffffffffffffffffffffffffffffffffffffffffffffffffffffffff1916827bffffffffffffffffffffffffffffffffffffffffffffffffffffffff1916145b806104d557506104d48261126b565b5b9050919050565b6060600080546104eb90612e50565b80601f016020809104026020016040519081016040528092919081815260200182805461051790612e50565b80156105645780601f1061053957610100808354040283529160200191610564565b820191906000526020600020905b81548152906001019060200180831161054757829003601f168201915b5050505050905090565b6000610579826112d5565b6105b8576040517f08c379a00000000000000000000000000000000000000000000000000000000081526004016105af90612a92565b60405180910390fd5b6004600083815260200190815260200160002060009054906101000a900473ffffffffffffffffffffffffffffffffffffffff169050919050565b60006105fe826108af565b90508073ffffffffffffffffffffffffffffffffffffffff168373ffffffffffffffffffffffffffffffffffffffff16141561066f576040517f08c379a000000000000000000000000000000000000000000000000000000000815260040161066690612b12565b60405180910390fd5b8073ffffffffffffffffffffffffffffffffffffffff1661068e611341565b73ffffffffffffffffffffffffffffffffffffffff1614806106bd57506106bc816106b7611341565b6110df565b5b6106fc576040517f08c379a00000000000000000000000000000000000000000000000000000000081526004016106f390612a12565b60405180910390fd5b6107068383611349565b505050565b61071c610716611341565b82611402565b61075b576040517f08c379a000000000000000000000000000000000000000000000000000000000815260040161075290612b32565b60405180910390fd5b6107668383836114e0565b505050565b600960009054906101000a900473ffffffffffffffffffffffffffffffffffffffff1681565b600260065414156107d7576040517f08c379a00000000000000000000000000000000000000000000000000000000081526004016107ce90612b52565b60405180910390fd5b6002600681905550655af3107a3fff811180156107fa575066038d7ea4c6800081105b610839576040517f08c379a000000000000000000000000000000000000000000000000000000000815260040161083090612ad2565b60405180910390fd5b61084a610844611341565b8261173c565b600160068190555050565b61087083838360405180602001604052806000815250610d9e565b505050565b600860009054906101000a900473ffffffffffffffffffffffffffffffffffffffff1681565b600860149054906101000a900461ffff1681565b6000806002600084815260200190815260200160002060009054906101000a900473ffffffffffffffffffffffffffffffffffffffff169050600073ffffffffffffffffffffffffffffffffffffffff168173ffffffffffffffffffffffffffffffffffffffff161415610958576040517f08c379a000000000000000000000000000000000000000000000000000000000815260040161094f90612a52565b60405180910390fd5b80915050919050565b610969611341565b73ffffffffffffffffffffffffffffffffffffffff16610987610b61565b73ffffffffffffffffffffffffffffffffffffffff16146109dd576040517f08c379a00000000000000000000000000000000000000000000000000000000081526004016109d490612ab2565b60405180910390fd5b80600860006101000a81548173ffffffffffffffffffffffffffffffffffffffff021916908373ffffffffffffffffffffffffffffffffffffffff16021790555050565b60008073ffffffffffffffffffffffffffffffffffffffff168273ffffffffffffffffffffffffffffffffffffffff161415610a92576040517f08c379a0000000000000000000000000000000000000000000000000000000008152600401610a8990612a32565b60405180910390fd5b600360008373ffffffffffffffffffffffffffffffffffffffff1673ffffffffffffffffffffffffffffffffffffffff168152602001908152602001600020549050919050565b610ae1611341565b73ffffffffffffffffffffffffffffffffffffffff16610aff610b61565b73ffffffffffffffffffffffffffffffffffffffff1614610b55576040517f08c379a0000000000000000000000000000000000000000000000000000000008152600401610b4c90612ab2565b60405180910390fd5b610b5f600061175a565b565b6000600760009054906101000a900473ffffffffffffffffffffffffffffffffffffffff16905090565b606060018054610b9a90612e50565b80601f0160208091040260200160405190810160405280929190818152602001828054610bc690612e50565b8015610c135780601f10610be857610100808354040283529160200191610c13565b820191906000526020600020905b815481529060010190602001808311610bf657829003601f168201915b5050505050905090565b610c25611341565b73ffffffffffffffffffffffffffffffffffffffff168273ffffffffffffffffffffffffffffffffffffffff161415610c93576040517f08c379a0000000000000000000000000000000000000000000000000000000008152600401610c8a906129d2565b60405180910390fd5b8060056000610ca0611341565b73ffffffffffffffffffffffffffffffffffffffff1673ffffffffffffffffffffffffffffffffffffffff16815260200190815260200160002060008473ffffffffffffffffffffffffffffffffffffffff1673ffffffffffffffffffffffffffffffffffffffff16815260200190815260200160002060006101000a81548160ff0219169083151502179055508173ffffffffffffffffffffffffffffffffffffffff16610d4d611341565b73ffffffffffffffffffffffffffffffffffffffff167f17307eab39ab6107e8899845ad3d59bd9653f200f220920489ca2b5937696c3183604051610d9291906128fa565b60405180910390a35050565b610daf610da9611341565b83611402565b610dee576040517f08c379a0000000000000000000000000000000000000000000000000000000008152600401610de590612b32565b60405180910390fd5b610dfa84848484611820565b50505050565b6060610e0a611fbf565b60405180610120016040528060fd815260200161372d60fd913981600060038110610e5e577f4e487b7100000000000000000000000000000000000000000000000000000000600052603260045260246000fd5b6020020181905250610e6f8361187c565b604051602001610e7f9190612856565b60405160208183030381529060405281600160038110610ec8577f4e487b7100000000000000000000000000000000000000000000000000000000600052603260045260246000fd5b60200201819052506040518060400160405280600d81526020017f3c2f746578743e3c2f7376673e0000000000000000000000000000000000000081525081600260038110610f40577f4e487b7100000000000000000000000000000000000000000000000000000000600052603260045260246000fd5b6020020181905250600081600060038110610f84577f4e487b7100000000000000000000000000000000000000000000000000000000600052603260045260246000fd5b602002015182600160038110610fc3577f4e487b7100000000000000000000000000000000000000000000000000000000600052603260045260246000fd5b602002015183600260038110611002577f4e487b7100000000000000000000000000000000000000000000000000000000600052603260045260246000fd5b602002015160405160200161101993929190612764565b604051602081830303815290604052905060006110358561187c565b6040516020016110459190612829565b6040516020818303038152906040529050600060405160200161106790612795565b604051602081830303815290604052905060006110ae838361108887611a29565b60405160200161109a939291906127aa565b604051602081830303815290604052611a29565b9050806040516020016110c19190612807565b60405160208183030381529060405293508395505050505050919050565b6000600560008473ffffffffffffffffffffffffffffffffffffffff1673ffffffffffffffffffffffffffffffffffffffff16815260200190815260200160002060008373ffffffffffffffffffffffffffffffffffffffff1673ffffffffffffffffffffffffffffffffffffffff16815260200190815260200160002060009054906101000a900460ff16905092915050565b61117b611341565b73ffffffffffffffffffffffffffffffffffffffff16611199610b61565b73ffffffffffffffffffffffffffffffffffffffff16146111ef576040517f08c379a00000000000000000000000000000000000000000000000000000000081526004016111e690612ab2565b60405180910390fd5b600073ffffffffffffffffffffffffffffffffffffffff168173ffffffffffffffffffffffffffffffffffffffff16141561125f576040517f08c379a000000000000000000000000000000000000000000000000000000000815260040161125690612972565b60405180910390fd5b6112688161175a565b50565b60007f01ffc9a7000000000000000000000000000000000000000000000000000000007bffffffffffffffffffffffffffffffffffffffffffffffffffffffff1916827bffffffffffffffffffffffffffffffffffffffffffffffffffffffff1916149050919050565b60008073ffffffffffffffffffffffffffffffffffffffff166002600084815260200190815260200160002060009054906101000a900473ffffffffffffffffffffffffffffffffffffffff1673ffffffffffffffffffffffffffffffffffffffff1614159050919050565b600033905090565b816004600083815260200190815260200160002060006101000a81548173ffffffffffffffffffffffffffffffffffffffff021916908373ffffffffffffffffffffffffffffffffffffffff160217905550808273ffffffffffffffffffffffffffffffffffffffff166113bc836108af565b73ffffffffffffffffffffffffffffffffffffffff167f8c5be1e5ebec7d5bd14f71427d1e84f3dd0314c0f7b2291e5b200ac8c7c3b92560405160405180910390a45050565b600061140d826112d5565b61144c576040517f08c379a0000000000000000000000000000000000000000000000000000000008152600401611443906129f2565b60405180910390fd5b6000611457836108af565b90508073ffffffffffffffffffffffffffffffffffffffff168473ffffffffffffffffffffffffffffffffffffffff1614806114c657508373ffffffffffffffffffffffffffffffffffffffff166114ae8461056e565b73ffffffffffffffffffffffffffffffffffffffff16145b806114d757506114d681856110df565b5b91505092915050565b8273ffffffffffffffffffffffffffffffffffffffff16611500826108af565b73ffffffffffffffffffffffffffffffffffffffff1614611556576040517f08c379a000000000000000000000000000000000000000000000000000000000815260040161154d90612af2565b60405180910390fd5b600073ffffffffffffffffffffffffffffffffffffffff168273ffffffffffffffffffffffffffffffffffffffff1614156115c6576040517f08c379a00000000000000000000000000000000000000000000000000000000081526004016115bd906129b2565b60405180910390fd5b6115d1838383611be7565b6115dc600082611349565b6001600360008573ffffffffffffffffffffffffffffffffffffffff1673ffffffffffffffffffffffffffffffffffffffff168152602001908152602001600020600082825461162c9190612d22565b925050819055506001600360008473ffffffffffffffffffffffffffffffffffffffff1673ffffffffffffffffffffffffffffffffffffffff16815260200190815260200160002060008282546116839190612c41565b92505081905550816002600083815260200190815260200160002060006101000a81548173ffffffffffffffffffffffffffffffffffffffff021916908373ffffffffffffffffffffffffffffffffffffffff160217905550808273ffffffffffffffffffffffffffffffffffffffff168473ffffffffffffffffffffffffffffffffffffffff167fddf252ad1be2c89b69c2b068fc378daa952ba7f163c4a11628f55a4df523b3ef60405160405180910390a4505050565b611756828260405180602001604052806000815250611bec565b5050565b6000600760009054906101000a900473ffffffffffffffffffffffffffffffffffffffff16905081600760006101000a81548173ffffffffffffffffffffffffffffffffffffffff021916908373ffffffffffffffffffffffffffffffffffffffff1602179055508173ffffffffffffffffffffffffffffffffffffffff168173ffffffffffffffffffffffffffffffffffffffff167f8be0079c531659141344cd1fd0a4f28419497f9722a3daafe3b4186f6b6457e060405160405180910390a35050565b61182b8484846114e0565b61183784848484611c47565b611876576040517f08c379a000000000000000000000000000000000000000000000000000000000815260040161186d90612952565b60405180910390fd5b50505050565b606060008214156118c4576040518060400160405280600181526020017f30000000000000000000000000000000000000000000000000000000000000008152509050611a24565b600082905060005b600082146118f65780806118df90612eb3565b915050600a826118ef9190612c97565b91506118cc565b60008167ffffffffffffffff811115611938577f4e487b7100000000000000000000000000000000000000000000000000000000600052604160045260246000fd5b6040519080825280601f01601f19166020018201604052801561196a5781602001600182028036833780820191505090505b5090505b60008514611a1d576001826119839190612d22565b9150600a856119929190612efc565b603061199e9190612c41565b60f81b8183815181106119da577f4e487b7100000000000000000000000000000000000000000000000000000000600052603260045260246000fd5b60200101907effffffffffffffffffffffffffffffffffffffffffffffffffffffffffffff1916908160001a905350600a85611a169190612c97565b945061196e565b8093505050505b919050565b60606000825190506000811415611a525760405180602001604052806000815250915050611be2565b60006003600283611a639190612c41565b611a6d9190612c97565b6004611a799190612cc8565b90506000602082611a8a9190612c41565b67ffffffffffffffff811115611ac9577f4e487b7100000000000000000000000000000000000000000000000000000000600052604160045260246000fd5b6040519080825280601f01601f191660200182016040528015611afb5781602001600182028036833780820191505090505b509050600060405180606001604052806040815260200161382a604091399050600181016020830160005b86811015611b9f5760038101905062ffffff818a015116603f8160121c168401518060081b905060ff603f83600c1c1686015116810190508060081b905060ff603f8360061c1686015116810190508060081b905060ff603f831686015116810190508060e01b90508084526004840193505050611b26565b506003860660018114611bb95760028114611bc957611bd4565b613d3d60f01b6002830352611bd4565b603d60f81b60018303525b508484525050819450505050505b919050565b505050565b611bf68383611dde565b611c036000848484611c47565b611c42576040517f08c379a0000000000000000000000000000000000000000000000000000000008152600401611c3990612952565b60405180910390fd5b505050565b6000611c688473ffffffffffffffffffffffffffffffffffffffff16611fac565b15611dd1578373ffffffffffffffffffffffffffffffffffffffff1663150b7a02611c91611341565b8786866040518563ffffffff1660e01b8152600401611cb394939291906128ae565b602060405180830381600087803b158015611ccd57600080fd5b505af1925050508015611cfe57506040513d601f19601f82011682018060405250810190611cfb9190612287565b60015b611d81573d8060008114611d2e576040519150601f19603f3d011682016040523d82523d6000602084013e611d33565b606091505b50600081511415611d79576040517f08c379a0000000000000000000000000000000000000000000000000000000008152600401611d7090612952565b60405180910390fd5b805181602001fd5b63150b7a0260e01b7bffffffffffffffffffffffffffffffffffffffffffffffffffffffff1916817bffffffffffffffffffffffffffffffffffffffffffffffffffffffff191614915050611dd6565b600190505b949350505050565b600073ffffffffffffffffffffffffffffffffffffffff168273ffffffffffffffffffffffffffffffffffffffff161415611e4e576040517f08c379a0000000000000000000000000000000000000000000000000000000008152600401611e4590612a72565b60405180910390fd5b611e57816112d5565b15611e97576040517f08c379a0000000000000000000000000000000000000000000000000000000008152600401611e8e90612992565b60405180910390fd5b611ea360008383611be7565b6001600360008473ffffffffffffffffffffffffffffffffffffffff1673ffffffffffffffffffffffffffffffffffffffff1681526020019081526020016000206000828254611ef39190612c41565b92505081905550816002600083815260200190815260200160002060006101000a81548173ffffffffffffffffffffffffffffffffffffffff021916908373ffffffffffffffffffffffffffffffffffffffff160217905550808273ffffffffffffffffffffffffffffffffffffffff16600073ffffffffffffffffffffffffffffffffffffffff167fddf252ad1be2c89b69c2b068fc378daa952ba7f163c4a11628f55a4df523b3ef60405160405180910390a45050565b600080823b905060008111915050919050565b60405180606001604052806003905b6060815260200190600190039081611fce5790505090565b6000611ff9611ff484612bcd565b612ba8565b90508281526020810184848401111561201157600080fd5b61201c848285612e0e565b509392505050565b600081359050612033816136d0565b92915050565b600081359050612048816136e7565b92915050565b60008135905061205d816136fe565b92915050565b600081519050612072816136fe565b92915050565b600082601f83011261208957600080fd5b8135612099848260208601611fe6565b91505092915050565b6000813590506120b181613715565b92915050565b6000602082840312156120c957600080fd5b60006120d784828501612024565b91505092915050565b600080604083850312156120f357600080fd5b600061210185828601612024565b925050602061211285828601612024565b9150509250929050565b60008060006060848603121561213157600080fd5b600061213f86828701612024565b935050602061215086828701612024565b9250506040612161868287016120a2565b9150509250925092565b6000806000806080858703121561218157600080fd5b600061218f87828801612024565b94505060206121a087828801612024565b93505060406121b1878288016120a2565b925050606085013567ffffffffffffffff8111156121ce57600080fd5b6121da87828801612078565b91505092959194509250565b600080604083850312156121f957600080fd5b600061220785828601612024565b925050602061221885828601612039565b9150509250929050565b6000806040838503121561223557600080fd5b600061224385828601612024565b9250506020612254858286016120a2565b9150509250929050565b60006020828403121561227057600080fd5b600061227e8482850161204e565b91505092915050565b60006020828403121561229957600080fd5b60006122a784828501612063565b91505092915050565b6000602082840312156122c257600080fd5b60006122d0848285016120a2565b91505092915050565b6122e281612d68565b82525050565b6122f181612d56565b82525050565b61230081612d7a565b82525050565b600061231182612bfe565b61231b8185612c14565b935061232b818560208601612e1d565b61233481612fe9565b840191505092915050565b61234881612dea565b82525050565b600061235982612c09565b6123638185612c25565b9350612373818560208601612e1d565b61237c81612fe9565b840191505092915050565b600061239282612c09565b61239c8185612c36565b93506123ac818560208601612e1d565b80840191505092915050565b60006123c5603283612c25565b91506123d082612ffa565b604082019050919050565b60006123e8602683612c25565b91506123f382613049565b604082019050919050565b600061240b601c83612c25565b915061241682613098565b602082019050919050565b600061242e602583612c36565b9150612439826130c1565b602582019050919050565b600061245160ce83612c36565b915061245c82613110565b60ce82019050919050565b6000612474600183612c36565b915061247f8261321d565b600182019050919050565b6000612497602483612c25565b91506124a282613246565b604082019050919050565b60006124ba601983612c25565b91506124c582613295565b602082019050919050565b60006124dd602c83612c25565b91506124e8826132be565b604082019050919050565b6000612500603883612c25565b915061250b8261330d565b604082019050919050565b6000612523600183612c36565b915061252e8261335c565b600182019050919050565b6000612546602a83612c25565b915061255182613385565b604082019050919050565b6000612569602983612c25565b9150612574826133d4565b604082019050919050565b600061258c600283612c36565b915061259782613423565b600282019050919050565b60006125af602083612c25565b91506125ba8261344c565b602082019050919050565b60006125d2602c83612c25565b91506125dd82613475565b604082019050919050565b60006125f5602083612c25565b9150612600826134c4565b602082019050919050565b6000612618601083612c25565b9150612623826134ed565b602082019050919050565b600061263b602983612c25565b915061264682613516565b604082019050919050565b600061265e600183612c36565b915061266982613565565b600182019050919050565b6000612681602183612c25565b915061268c8261358e565b604082019050919050565b60006126a4601d83612c36565b91506126af826135dd565b601d82019050919050565b60006126c7601183612c36565b91506126d282613606565b601182019050919050565b60006126ea600d83612c36565b91506126f58261362f565b600d82019050919050565b600061270d603183612c25565b915061271882613658565b604082019050919050565b6000612730601f83612c25565b915061273b826136a7565b602082019050919050565b61274f81612db2565b82525050565b61275e81612de0565b82525050565b60006127708286612387565b915061277c8285612387565b91506127888284612387565b9150819050949350505050565b60006127a082612444565b9150819050919050565b60006127b582612651565b91506127c18286612387565b91506127cc82612467565b91506127d88285612387565b91506127e382612421565b91506127ef8284612387565b91506127fa8261257f565b9150819050949350505050565b600061281282612697565b915061281e8284612387565b915081905092915050565b6000612834826126ba565b91506128408284612387565b915061284b82612516565b915081905092915050565b6000612861826126dd565b915061286d8284612387565b915081905092915050565b600060208201905061288d60008301846122e8565b92915050565b60006020820190506128a860008301846122d9565b92915050565b60006080820190506128c360008301876122e8565b6128d060208301866122e8565b6128dd6040830185612755565b81810360608301526128ef8184612306565b905095945050505050565b600060208201905061290f60008301846122f7565b92915050565b600060208201905061292a600083018461233f565b92915050565b6000602082019050818103600083015261294a818461234e565b905092915050565b6000602082019050818103600083015261296b816123b8565b9050919050565b6000602082019050818103600083015261298b816123db565b9050919050565b600060208201905081810360008301526129ab816123fe565b9050919050565b600060208201905081810360008301526129cb8161248a565b9050919050565b600060208201905081810360008301526129eb816124ad565b9050919050565b60006020820190508181036000830152612a0b816124d0565b9050919050565b60006020820190508181036000830152612a2b816124f3565b9050919050565b60006020820190508181036000830152612a4b81612539565b9050919050565b60006020820190508181036000830152612a6b8161255c565b9050919050565b60006020820190508181036000830152612a8b816125a2565b9050919050565b60006020820190508181036000830152612aab816125c5565b9050919050565b60006020820190508181036000830152612acb816125e8565b9050919050565b60006020820190508181036000830152612aeb8161260b565b9050919050565b60006020820190508181036000830152612b0b8161262e565b9050919050565b60006020820190508181036000830152612b2b81612674565b9050919050565b60006020820190508181036000830152612b4b81612700565b9050919050565b60006020820190508181036000830152612b6b81612723565b9050919050565b6000602082019050612b876000830184612746565b92915050565b6000602082019050612ba26000830184612755565b92915050565b6000612bb2612bc3565b9050612bbe8282612e82565b919050565b6000604051905090565b600067ffffffffffffffff821115612be857612be7612fba565b5b612bf182612fe9565b9050602081019050919050565b600081519050919050565b600081519050919050565b600082825260208201905092915050565b600082825260208201905092915050565b600081905092915050565b6000612c4c82612de0565b9150612c5783612de0565b9250827fffffffffffffffffffffffffffffffffffffffffffffffffffffffffffffffff03821115612c8c57612c8b612f2d565b5b828201905092915050565b6000612ca282612de0565b9150612cad83612de0565b925082612cbd57612cbc612f5c565b5b828204905092915050565b6000612cd382612de0565b9150612cde83612de0565b9250817fffffffffffffffffffffffffffffffffffffffffffffffffffffffffffffffff0483118215151615612d1757612d16612f2d565b5b828202905092915050565b6000612d2d82612de0565b9150612d3883612de0565b925082821015612d4b57612d4a612f2d565b5b828203905092915050565b6000612d6182612dc0565b9050919050565b6000612d7382612dc0565b9050919050565b60008115159050919050565b60007fffffffff0000000000000000000000000000000000000000000000000000000082169050919050565b600061ffff82169050919050565b600073ffffffffffffffffffffffffffffffffffffffff82169050919050565b6000819050919050565b6000612df582612dfc565b9050919050565b6000612e0782612dc0565b9050919050565b82818337600083830152505050565b60005b83811015612e3b578082015181840152602081019050612e20565b83811115612e4a576000848401525b50505050565b60006002820490506001821680612e6857607f821691505b60208210811415612e7c57612e7b612f8b565b5b50919050565b612e8b82612fe9565b810181811067ffffffffffffffff82111715612eaa57612ea9612fba565b5b80604052505050565b6000612ebe82612de0565b91507fffffffffffffffffffffffffffffffffffffffffffffffffffffffffffffffff821415612ef157612ef0612f2d565b5b600182019050919050565b6000612f0782612de0565b9150612f1283612de0565b925082612f2257612f21612f5c565b5b828206905092915050565b7f4e487b7100000000000000000000000000000000000000000000000000000000600052601160045260246000fd5b7f4e487b7100000000000000000000000000000000000000000000000000000000600052601260045260246000fd5b7f4e487b7100000000000000000000000000000000000000000000000000000000600052602260045260246000fd5b7f4e487b7100000000000000000000000000000000000000000000000000000000600052604160045260246000fd5b6000601f19601f8301169050919050565b7f4552433732313a207472616e7366657220746f206e6f6e20455243373231526560008201527f63656976657220696d706c656d656e7465720000000000000000000000000000602082015250565b7f4f776e61626c653a206e6577206f776e657220697320746865207a65726f206160008201527f6464726573730000000000000000000000000000000000000000000000000000602082015250565b7f4552433732313a20746f6b656e20616c7265616479206d696e74656400000000600082015250565b7f2c22696d616765223a2022646174613a696d6167652f7376672b786d6c3b626160008201527f736536342c000000000000000000000000000000000000000000000000000000602082015250565b7f226465736372697074696f6e223a2022506562626c65204c6f6f74206973206160008201527f207265616c20776f726c6420646174612073746f726564206f6e20636861696e60208201527f2e2053746174732c20696d616765732c20616e64206f746865722066756e637460408201527f696f6e616c6974792061726520696e74656e74696f6e616c6c79206f6d69747460608201527f656420666f72206f746865727320746f20696e746572707265742e204665656c60808201527f206672656520746f2075736520506562626c65204c6f6f7420696e20616e792060a08201527f77617920796f752077616e742e2200000000000000000000000000000000000060c082015250565b7f2c00000000000000000000000000000000000000000000000000000000000000600082015250565b7f4552433732313a207472616e7366657220746f20746865207a65726f2061646460008201527f7265737300000000000000000000000000000000000000000000000000000000602082015250565b7f4552433732313a20617070726f766520746f2063616c6c657200000000000000600082015250565b7f4552433732313a206f70657261746f7220717565727920666f72206e6f6e657860008201527f697374656e7420746f6b656e0000000000000000000000000000000000000000602082015250565b7f4552433732313a20617070726f76652063616c6c6572206973206e6f74206f7760008201527f6e6572206e6f7220617070726f76656420666f7220616c6c0000000000000000602082015250565b7f2200000000000000000000000000000000000000000000000000000000000000600082015250565b7f4552433732313a2062616c616e636520717565727920666f7220746865207a6560008201527f726f206164647265737300000000000000000000000000000000000000000000602082015250565b7f4552433732313a206f776e657220717565727920666f72206e6f6e657869737460008201527f656e7420746f6b656e0000000000000000000000000000000000000000000000602082015250565b7f227d000000000000000000000000000000000000000000000000000000000000600082015250565b7f4552433732313a206d696e7420746f20746865207a65726f2061646472657373600082015250565b7f4552433732313a20617070726f76656420717565727920666f72206e6f6e657860008201527f697374656e7420746f6b656e0000000000000000000000000000000000000000602082015250565b7f4f776e61626c653a2063616c6c6572206973206e6f7420746865206f776e6572600082015250565b7f546f6b656e20494420696e76616c696400000000000000000000000000000000600082015250565b7f4552433732313a207472616e73666572206f6620746f6b656e2074686174206960008201527f73206e6f74206f776e0000000000000000000000000000000000000000000000602082015250565b7f7b00000000000000000000000000000000000000000000000000000000000000600082015250565b7f4552433732313a20617070726f76616c20746f2063757272656e74206f776e6560008201527f7200000000000000000000000000000000000000000000000000000000000000602082015250565b7f646174613a6170706c69636174696f6e2f6a736f6e3b6261736536342c000000600082015250565b7f226e616d65223a2022506562626c652023000000000000000000000000000000600082015250565b7f506562626c65204c6f6f74202300000000000000000000000000000000000000600082015250565b7f4552433732313a207472616e736665722063616c6c6572206973206e6f74206f60008201527f776e6572206e6f7220617070726f766564000000000000000000000000000000602082015250565b7f5265656e7472616e637947756172643a207265656e7472616e742063616c6c00600082015250565b6136d981612d56565b81146136e457600080fd5b50565b6136f081612d7a565b81146136fb57600080fd5b50565b61370781612d86565b811461371257600080fd5b50565b61371e81612de0565b811461372957600080fd5b5056fe3c73766720786d6c6e733d22687474703a2f2f7777772e77332e6f72672f323030302f73766722207072657365727665417370656374526174696f3d22784d696e594d696e206d656574222076696577426f783d223020302033353020333530223e3c7374796c653e2e62617365207b2066696c6c3a2077686974653b20666f6e742d66616d696c793a2073657269663b20666f6e742d73697a653a20313470783b207d3c2f7374796c653e3c726563742077696474683d223130302522206865696768743d2231303025222066696c6c3d22626c61636b22202f3e3c7465787420783d2231302220793d2232302220636c6173733d2262617365223e4142434445464748494a4b4c4d4e4f505152535455565758595a6162636465666768696a6b6c6d6e6f707172737475767778797a303132333435363738392b2fa2646970667358221220250511949371ee1d37d24079e2772c5cfab24842f86b984b8b8f562d4ff087c664736f6c63430008040033",
  "linkReferences": {},
  "deployedLinkReferences": {}
}