{
  "_format": "hh-sol-artifact-1",
  "contractName": "PebbleLoot",
  "sourceName": "contracts/PebbleLoot.sol",
  "abi": [
    {
      "inputs": [
        {
          "internalType": "string",
          "name": "_name",
          "type": "string"
        },
        {
          "internalType": "string",
          "name": "_symbol",
          "type": "string"
        },
        {
          "internalType": "address",
          "name": "_registration",
          "type": "address"
        },
        {
          "internalType": "uint16",
          "name": "_mintingFee",
          "type": "uint16"
        },
        {
          "internalType": "address payable",
          "name": "_feeReceipient",
          "type": "address"
        }
      ],
      "stateMutability": "nonpayable",
      "type": "constructor"
    },
    {
      "anonymous": false,
      "inputs": [
        {
          "indexed": true,
          "internalType": "address",
          "name": "owner",
          "type": "address"
        },
        {
          "indexed": true,
          "internalType": "address",
          "name": "approved",
          "type": "address"
        },
        {
          "indexed": true,
          "internalType": "uint256",
          "name": "tokenId",
          "type": "uint256"
        }
      ],
      "name": "Approval",
      "type": "event"
    },
    {
      "anonymous": false,
      "inputs": [
        {
          "indexed": true,
          "internalType": "address",
          "name": "owner",
          "type": "address"
        },
        {
          "indexed": true,
          "internalType": "address",
          "name": "operator",
          "type": "address"
        },
        {
          "indexed": false,
          "internalType": "bool",
          "name": "approved",
          "type": "bool"
        }
      ],
      "name": "ApprovalForAll",
      "type": "event"
    },
    {
      "anonymous": false,
      "inputs": [
        {
          "indexed": true,
          "internalType": "address",
          "name": "feeReceipient",
          "type": "address"
        }
      ],
      "name": "FeeReceipientUpdated",
      "type": "event"
    },
    {
      "anonymous": false,
      "inputs": [
        {
          "indexed": false,
          "internalType": "uint16",
          "name": "mintingFee",
          "type": "uint16"
        }
      ],
      "name": "MintingFeeUpdated",
      "type": "event"
    },
    {
      "anonymous": false,
      "inputs": [
        {
          "indexed": true,
          "internalType": "address",
          "name": "previousOwner",
          "type": "address"
        },
        {
          "indexed": true,
          "internalType": "address",
          "name": "newOwner",
          "type": "address"
        }
      ],
      "name": "OwnershipTransferred",
      "type": "event"
    },
    {
      "anonymous": false,
      "inputs": [
        {
          "indexed": true,
          "internalType": "address",
          "name": "registration",
          "type": "address"
        }
      ],
      "name": "RegistrationUpdated",
      "type": "event"
    },
    {
      "anonymous": false,
      "inputs": [
        {
          "indexed": true,
          "internalType": "address",
          "name": "from",
          "type": "address"
        },
        {
          "indexed": true,
          "internalType": "address",
          "name": "to",
          "type": "address"
        },
        {
          "indexed": true,
          "internalType": "uint256",
          "name": "tokenId",
          "type": "uint256"
        }
      ],
      "name": "Transfer",
      "type": "event"
    },
    {
      "inputs": [
        {
          "internalType": "address",
          "name": "to",
          "type": "address"
        },
        {
          "internalType": "uint256",
          "name": "tokenId",
          "type": "uint256"
        }
      ],
      "name": "approve",
      "outputs": [],
      "stateMutability": "nonpayable",
      "type": "function"
    },
    {
      "inputs": [
        {
          "internalType": "address",
          "name": "owner",
          "type": "address"
        }
      ],
      "name": "balanceOf",
      "outputs": [
        {
          "internalType": "uint256",
          "name": "",
          "type": "uint256"
        }
      ],
      "stateMutability": "view",
      "type": "function"
    },
    {
      "inputs": [
        {
          "internalType": "uint256",
          "name": "tokenId",
          "type": "uint256"
        }
      ],
      "name": "claim",
      "outputs": [],
      "stateMutability": "nonpayable",
      "type": "function"
    },
    {
      "inputs": [],
      "name": "feeReceipient",
      "outputs": [
        {
          "internalType": "address payable",
          "name": "",
          "type": "address"
        }
      ],
      "stateMutability": "view",
      "type": "function"
    },
    {
      "inputs": [
        {
          "internalType": "uint256",
          "name": "tokenId",
          "type": "uint256"
        }
      ],
      "name": "getApproved",
      "outputs": [
        {
          "internalType": "address",
          "name": "",
          "type": "address"
        }
      ],
      "stateMutability": "view",
      "type": "function"
    },
    {
      "inputs": [
        {
          "internalType": "address",
          "name": "owner",
          "type": "address"
        },
        {
          "internalType": "address",
          "name": "operator",
          "type": "address"
        }
      ],
      "name": "isApprovedForAll",
      "outputs": [
        {
          "internalType": "bool",
          "name": "",
          "type": "bool"
        }
      ],
      "stateMutability": "view",
      "type": "function"
    },
    {
      "inputs": [],
      "name": "mintingFee",
      "outputs": [
        {
          "internalType": "uint16",
          "name": "",
          "type": "uint16"
        }
      ],
      "stateMutability": "view",
      "type": "function"
    },
    {
      "inputs": [],
      "name": "name",
      "outputs": [
        {
          "internalType": "string",
          "name": "",
          "type": "string"
        }
      ],
      "stateMutability": "view",
      "type": "function"
    },
    {
      "inputs": [],
      "name": "owner",
      "outputs": [
        {
          "internalType": "address",
          "name": "",
          "type": "address"
        }
      ],
      "stateMutability": "view",
      "type": "function"
    },
    {
      "inputs": [
        {
          "internalType": "uint256",
          "name": "tokenId",
          "type": "uint256"
        }
      ],
      "name": "ownerOf",
      "outputs": [
        {
          "internalType": "address",
          "name": "",
          "type": "address"
        }
      ],
      "stateMutability": "view",
      "type": "function"
    },
    {
      "inputs": [],
      "name": "registration",
      "outputs": [
        {
          "internalType": "contract IRegistration",
          "name": "",
          "type": "address"
        }
      ],
      "stateMutability": "view",
      "type": "function"
    },
    {
      "inputs": [],
      "name": "renounceOwnership",
      "outputs": [],
      "stateMutability": "nonpayable",
      "type": "function"
    },
    {
      "inputs": [
        {
          "internalType": "address",
          "name": "from",
          "type": "address"
        },
        {
          "internalType": "address",
          "name": "to",
          "type": "address"
        },
        {
          "internalType": "uint256",
          "name": "tokenId",
          "type": "uint256"
        }
      ],
      "name": "safeTransferFrom",
      "outputs": [],
      "stateMutability": "nonpayable",
      "type": "function"
    },
    {
      "inputs": [
        {
          "internalType": "address",
          "name": "from",
          "type": "address"
        },
        {
          "internalType": "address",
          "name": "to",
          "type": "address"
        },
        {
          "internalType": "uint256",
          "name": "tokenId",
          "type": "uint256"
        },
        {
          "internalType": "bytes",
          "name": "_data",
          "type": "bytes"
        }
      ],
      "name": "safeTransferFrom",
      "outputs": [],
      "stateMutability": "nonpayable",
      "type": "function"
    },
    {
      "inputs": [
        {
          "internalType": "address",
          "name": "operator",
          "type": "address"
        },
        {
          "internalType": "bool",
          "name": "approved",
          "type": "bool"
        }
      ],
      "name": "setApprovalForAll",
      "outputs": [],
      "stateMutability": "nonpayable",
      "type": "function"
    },
    {
      "inputs": [
        {
          "internalType": "bytes4",
          "name": "interfaceId",
          "type": "bytes4"
        }
      ],
      "name": "supportsInterface",
      "outputs": [
        {
          "internalType": "bool",
          "name": "",
          "type": "bool"
        }
      ],
      "stateMutability": "view",
      "type": "function"
    },
    {
      "inputs": [],
      "name": "symbol",
      "outputs": [
        {
          "internalType": "string",
          "name": "",
          "type": "string"
        }
      ],
      "stateMutability": "view",
      "type": "function"
    },
    {
      "inputs": [
        {
          "internalType": "uint256",
          "name": "tokenId",
          "type": "uint256"
        }
      ],
      "name": "tokenURI",
      "outputs": [
        {
          "internalType": "string",
          "name": "",
          "type": "string"
        }
      ],
      "stateMutability": "pure",
      "type": "function"
    },
    {
      "inputs": [
        {
          "internalType": "address",
          "name": "from",
          "type": "address"
        },
        {
          "internalType": "address",
          "name": "to",
          "type": "address"
        },
        {
          "internalType": "uint256",
          "name": "tokenId",
          "type": "uint256"
        }
      ],
      "name": "transferFrom",
      "outputs": [],
      "stateMutability": "nonpayable",
      "type": "function"
    },
    {
      "inputs": [
        {
          "internalType": "address",
          "name": "newOwner",
          "type": "address"
        }
      ],
      "name": "transferOwnership",
      "outputs": [],
      "stateMutability": "nonpayable",
      "type": "function"
    },
    {
      "inputs": [
        {
          "internalType": "address payable",
          "name": "_feeReceipient",
          "type": "address"
        }
      ],
      "name": "updateFeeReceipient",
      "outputs": [],
      "stateMutability": "nonpayable",
      "type": "function"
    },
    {
      "inputs": [
        {
          "internalType": "uint16",
          "name": "_mintingFee",
          "type": "uint16"
        }
      ],
      "name": "updateMintingFee",
      "outputs": [],
      "stateMutability": "nonpayable",
      "type": "function"
    },
    {
      "inputs": [
        {
          "internalType": "address",
          "name": "_registration",
          "type": "address"
        }
      ],
      "name": "updateRegistration",
      "outputs": [],
      "stateMutability": "nonpayable",
      "type": "function"
    }
  ],
  "bytecode": "0x60806040523480156200001157600080fd5b506040516200422e3803806200422e833981810160405281019062000037919062000374565b84848160009080519060200190620000519291906200020d565b5080600190805190602001906200006a9291906200020d565b505050600160068190555062000095620000896200013f60201b60201c565b6200014760201b60201c565b82600860006101000a81548173ffffffffffffffffffffffffffffffffffffffff021916908373ffffffffffffffffffffffffffffffffffffffff16021790555081600860146101000a81548161ffff021916908361ffff16021790555080600960006101000a81548173ffffffffffffffffffffffffffffffffffffffff021916908373ffffffffffffffffffffffffffffffffffffffff16021790555050505050506200063c565b600033905090565b6000600760009054906101000a900473ffffffffffffffffffffffffffffffffffffffff16905081600760006101000a81548173ffffffffffffffffffffffffffffffffffffffff021916908373ffffffffffffffffffffffffffffffffffffffff1602179055508173ffffffffffffffffffffffffffffffffffffffff168173ffffffffffffffffffffffffffffffffffffffff167f8be0079c531659141344cd1fd0a4f28419497f9722a3daafe3b4186f6b6457e060405160405180910390a35050565b8280546200021b9062000513565b90600052602060002090601f0160209004810192826200023f57600085556200028b565b82601f106200025a57805160ff19168380011785556200028b565b828001600101855582156200028b579182015b828111156200028a5782518255916020019190600101906200026d565b5b5090506200029a91906200029e565b5090565b5b80821115620002b95760008160009055506001016200029f565b5090565b6000620002d4620002ce8462000451565b62000428565b905082815260208101848484011115620002ed57600080fd5b620002fa848285620004dd565b509392505050565b6000815190506200031381620005ee565b92915050565b6000815190506200032a8162000608565b92915050565b600082601f8301126200034257600080fd5b815162000354848260208601620002bd565b91505092915050565b6000815190506200036e8162000622565b92915050565b600080600080600060a086880312156200038d57600080fd5b600086015167ffffffffffffffff811115620003a857600080fd5b620003b68882890162000330565b955050602086015167ffffffffffffffff811115620003d457600080fd5b620003e28882890162000330565b9450506040620003f58882890162000302565b935050606062000408888289016200035d565b92505060806200041b8882890162000319565b9150509295509295909350565b60006200043462000447565b905062000442828262000549565b919050565b6000604051905090565b600067ffffffffffffffff8211156200046f576200046e620005ae565b5b6200047a82620005dd565b9050602081019050919050565b60006200049482620004bd565b9050919050565b6000620004a882620004bd565b9050919050565b600061ffff82169050919050565b600073ffffffffffffffffffffffffffffffffffffffff82169050919050565b60005b83811015620004fd578082015181840152602081019050620004e0565b838111156200050d576000848401525b50505050565b600060028204905060018216806200052c57607f821691505b602082108114156200054357620005426200057f565b5b50919050565b6200055482620005dd565b810181811067ffffffffffffffff82111715620005765762000575620005ae565b5b80604052505050565b7f4e487b7100000000000000000000000000000000000000000000000000000000600052602260045260246000fd5b7f4e487b7100000000000000000000000000000000000000000000000000000000600052604160045260246000fd5b6000601f19601f8301169050919050565b620005f98162000487565b81146200060557600080fd5b50565b62000613816200049b565b81146200061f57600080fd5b50565b6200062d81620004af565b81146200063957600080fd5b50565b613be2806200064c6000396000f3fe608060405234801561001057600080fd5b506004361061014d5760003560e01c80636352211e116100c3578063b244182f1161007c578063b244182f14610378578063b88d4fde14610394578063c87b56dd146103b0578063e2fe652b146103e0578063e985e9c5146103fc578063f2fde38b1461042c5761014d565b80636352211e146102b657806370a08231146102e6578063715018a6146103165780638da5cb5b1461032057806395d89b411461033e578063a22cb4651461035c5761014d565b80633740ebb3116101155780633740ebb314610208578063379607f51461022657806342842e0e14610242578063443bd1d01461025e5780635a64ad951461027c5780635c42690a1461029a5761014d565b806301ffc9a71461015257806306fdde0314610182578063081812fc146101a0578063095ea7b3146101d057806323b872dd146101ec575b600080fd5b61016c6004803603810190610167919061254a565b610448565b6040516101799190612c0f565b60405180910390f35b61018a61052a565b6040516101979190612c45565b60405180910390f35b6101ba60048036038101906101b591906125c5565b6105bc565b6040516101c79190612b8d565b60405180910390f35b6101ea60048036038101906101e5919061250e565b610641565b005b61020660048036038101906102019190612408565b610759565b005b6102106107b9565b60405161021d9190612ba8565b60405180910390f35b610240600480360381019061023b91906125c5565b6107df565b005b61025c60048036038101906102579190612408565b6108a3565b005b6102666108c3565b6040516102739190612c2a565b60405180910390f35b6102846108e9565b6040516102919190612e87565b60405180910390f35b6102b460048036038101906102af91906123a3565b6108fd565b005b6102d060048036038101906102cb91906125c5565b610a22565b6040516102dd9190612b8d565b60405180910390f35b61030060048036038101906102fb919061237a565b610ad4565b60405161030d9190612ea2565b60405180910390f35b61031e610b8c565b005b610328610c14565b6040516103359190612b8d565b60405180910390f35b610346610c3e565b6040516103539190612c45565b60405180910390f35b610376600480360381019061037191906124d2565b610cd0565b005b610392600480360381019061038d919061237a565b610e51565b005b6103ae60048036038101906103a99190612457565b610f54565b005b6103ca60048036038101906103c591906125c5565b610fb6565b6040516103d79190612c45565b60405180910390f35b6103fa60048036038101906103f5919061259c565b611295565b005b610416600480360381019061041191906123cc565b611378565b6040516104239190612c0f565b60405180910390f35b6104466004803603810190610441919061237a565b61140c565b005b60007f80ac58cd000000000000000000000000000000000000000000000000000000007bffffffffffffffffffffffffffffffffffffffffffffffffffffffff1916827bffffffffffffffffffffffffffffffffffffffffffffffffffffffff1916148061051357507f5b5e139f000000000000000000000000000000000000000000000000000000007bffffffffffffffffffffffffffffffffffffffffffffffffffffffff1916827bffffffffffffffffffffffffffffffffffffffffffffffffffffffff1916145b80610523575061052282611504565b5b9050919050565b60606000805461053990613165565b80601f016020809104026020016040519081016040528092919081815260200182805461056590613165565b80156105b25780601f10610587576101008083540402835291602001916105b2565b820191906000526020600020905b81548152906001019060200180831161059557829003601f168201915b5050505050905090565b60006105c78261156e565b610606576040517f08c379a00000000000000000000000000000000000000000000000000000000081526004016105fd90612da7565b60405180910390fd5b6004600083815260200190815260200160002060009054906101000a900473ffffffffffffffffffffffffffffffffffffffff169050919050565b600061064c82610a22565b90508073ffffffffffffffffffffffffffffffffffffffff168373ffffffffffffffffffffffffffffffffffffffff1614156106bd576040517f08c379a00000000000000000000000000000000000000000000000000000000081526004016106b490612e27565b60405180910390fd5b8073ffffffffffffffffffffffffffffffffffffffff166106dc6115da565b73ffffffffffffffffffffffffffffffffffffffff16148061070b575061070a816107056115da565b611378565b5b61074a576040517f08c379a000000000000000000000000000000000000000000000000000000000815260040161074190612d27565b60405180910390fd5b61075483836115e2565b505050565b61076a6107646115da565b8261169b565b6107a9576040517f08c379a00000000000000000000000000000000000000000000000000000000081526004016107a090612e47565b60405180910390fd5b6107b4838383611779565b505050565b600960009054906101000a900473ffffffffffffffffffffffffffffffffffffffff1681565b60026006541415610825576040517f08c379a000000000000000000000000000000000000000000000000000000000815260040161081c90612e67565b60405180910390fd5b6002600681905550655af3107a3fff81118015610848575066038d7ea4c6800081105b610887576040517f08c379a000000000000000000000000000000000000000000000000000000000815260040161087e90612de7565b60405180910390fd5b6108986108926115da565b826119d5565b600160068190555050565b6108be83838360405180602001604052806000815250610f54565b505050565b600860009054906101000a900473ffffffffffffffffffffffffffffffffffffffff1681565b600860149054906101000a900461ffff1681565b6109056115da565b73ffffffffffffffffffffffffffffffffffffffff16610923610c14565b73ffffffffffffffffffffffffffffffffffffffff1614610979576040517f08c379a000000000000000000000000000000000000000000000000000000000815260040161097090612dc7565b60405180910390fd5b80600960006101000a81548173ffffffffffffffffffffffffffffffffffffffff021916908373ffffffffffffffffffffffffffffffffffffffff160217905550600960009054906101000a900473ffffffffffffffffffffffffffffffffffffffff1673ffffffffffffffffffffffffffffffffffffffff167f4e8038c85ccd41777ff692b6d98418aa13b143d93efc1299f794a9f646bc64d460405160405180910390a250565b6000806002600084815260200190815260200160002060009054906101000a900473ffffffffffffffffffffffffffffffffffffffff169050600073ffffffffffffffffffffffffffffffffffffffff168173ffffffffffffffffffffffffffffffffffffffff161415610acb576040517f08c379a0000000000000000000000000000000000000000000000000000000008152600401610ac290612d67565b60405180910390fd5b80915050919050565b60008073ffffffffffffffffffffffffffffffffffffffff168273ffffffffffffffffffffffffffffffffffffffff161415610b45576040517f08c379a0000000000000000000000000000000000000000000000000000000008152600401610b3c90612d47565b60405180910390fd5b600360008373ffffffffffffffffffffffffffffffffffffffff1673ffffffffffffffffffffffffffffffffffffffff168152602001908152602001600020549050919050565b610b946115da565b73ffffffffffffffffffffffffffffffffffffffff16610bb2610c14565b73ffffffffffffffffffffffffffffffffffffffff1614610c08576040517f08c379a0000000000000000000000000000000000000000000000000000000008152600401610bff90612dc7565b60405180910390fd5b610c1260006119f3565b565b6000600760009054906101000a900473ffffffffffffffffffffffffffffffffffffffff16905090565b606060018054610c4d90613165565b80601f0160208091040260200160405190810160405280929190818152602001828054610c7990613165565b8015610cc65780601f10610c9b57610100808354040283529160200191610cc6565b820191906000526020600020905b815481529060010190602001808311610ca957829003601f168201915b5050505050905090565b610cd86115da565b73ffffffffffffffffffffffffffffffffffffffff168273ffffffffffffffffffffffffffffffffffffffff161415610d46576040517f08c379a0000000000000000000000000000000000000000000000000000000008152600401610d3d90612ce7565b60405180910390fd5b8060056000610d536115da565b73ffffffffffffffffffffffffffffffffffffffff1673ffffffffffffffffffffffffffffffffffffffff16815260200190815260200160002060008473ffffffffffffffffffffffffffffffffffffffff1673ffffffffffffffffffffffffffffffffffffffff16815260200190815260200160002060006101000a81548160ff0219169083151502179055508173ffffffffffffffffffffffffffffffffffffffff16610e006115da565b73ffffffffffffffffffffffffffffffffffffffff167f17307eab39ab6107e8899845ad3d59bd9653f200f220920489ca2b5937696c3183604051610e459190612c0f565b60405180910390a35050565b610e596115da565b73ffffffffffffffffffffffffffffffffffffffff16610e77610c14565b73ffffffffffffffffffffffffffffffffffffffff1614610ecd576040517f08c379a0000000000000000000000000000000000000000000000000000000008152600401610ec490612dc7565b60405180910390fd5b80600860006101000a81548173ffffffffffffffffffffffffffffffffffffffff021916908373ffffffffffffffffffffffffffffffffffffffff1602179055508073ffffffffffffffffffffffffffffffffffffffff167f66c44ed44539e6dc2bc1ea4e99d92ba5e32f155fdffb7918b6db51ceb2d2679b60405160405180910390a250565b610f65610f5f6115da565b8361169b565b610fa4576040517f08c379a0000000000000000000000000000000000000000000000000000000008152600401610f9b90612e47565b60405180910390fd5b610fb084848484611ab9565b50505050565b6060610fc0612258565b60405180610120016040528060fd8152602001613a7060fd913981600060038110611014577f4e487b7100000000000000000000000000000000000000000000000000000000600052603260045260246000fd5b602002018190525061102583611b15565b6040516020016110359190612b6b565b6040516020818303038152906040528160016003811061107e577f4e487b7100000000000000000000000000000000000000000000000000000000600052603260045260246000fd5b60200201819052506040518060400160405280600d81526020017f3c2f746578743e3c2f7376673e00000000000000000000000000000000000000815250816002600381106110f6577f4e487b7100000000000000000000000000000000000000000000000000000000600052603260045260246000fd5b602002018190525060008160006003811061113a577f4e487b7100000000000000000000000000000000000000000000000000000000600052603260045260246000fd5b602002015182600160038110611179577f4e487b7100000000000000000000000000000000000000000000000000000000600052603260045260246000fd5b6020020151836002600381106111b8577f4e487b7100000000000000000000000000000000000000000000000000000000600052603260045260246000fd5b60200201516040516020016111cf93929190612a79565b604051602081830303815290604052905060006111eb85611b15565b6040516020016111fb9190612b3e565b6040516020818303038152906040529050600060405160200161121d90612aaa565b60405160208183030381529060405290506000611264838361123e87611cc2565b60405160200161125093929190612abf565b604051602081830303815290604052611cc2565b9050806040516020016112779190612b1c565b60405160208183030381529060405293508395505050505050919050565b61129d6115da565b73ffffffffffffffffffffffffffffffffffffffff166112bb610c14565b73ffffffffffffffffffffffffffffffffffffffff1614611311576040517f08c379a000000000000000000000000000000000000000000000000000000000815260040161130890612dc7565b60405180910390fd5b80600860146101000a81548161ffff021916908361ffff1602179055507fbbd22b3a548d3c1db4a7e35148eba9ecd2834d9ba502855fd010e3f0a92d4c52600860149054906101000a900461ffff1660405161136d9190612e87565b60405180910390a150565b6000600560008473ffffffffffffffffffffffffffffffffffffffff1673ffffffffffffffffffffffffffffffffffffffff16815260200190815260200160002060008373ffffffffffffffffffffffffffffffffffffffff1673ffffffffffffffffffffffffffffffffffffffff16815260200190815260200160002060009054906101000a900460ff16905092915050565b6114146115da565b73ffffffffffffffffffffffffffffffffffffffff16611432610c14565b73ffffffffffffffffffffffffffffffffffffffff1614611488576040517f08c379a000000000000000000000000000000000000000000000000000000000815260040161147f90612dc7565b60405180910390fd5b600073ffffffffffffffffffffffffffffffffffffffff168173ffffffffffffffffffffffffffffffffffffffff1614156114f8576040517f08c379a00000000000000000000000000000000000000000000000000000000081526004016114ef90612c87565b60405180910390fd5b611501816119f3565b50565b60007f01ffc9a7000000000000000000000000000000000000000000000000000000007bffffffffffffffffffffffffffffffffffffffffffffffffffffffff1916827bffffffffffffffffffffffffffffffffffffffffffffffffffffffff1916149050919050565b60008073ffffffffffffffffffffffffffffffffffffffff166002600084815260200190815260200160002060009054906101000a900473ffffffffffffffffffffffffffffffffffffffff1673ffffffffffffffffffffffffffffffffffffffff1614159050919050565b600033905090565b816004600083815260200190815260200160002060006101000a81548173ffffffffffffffffffffffffffffffffffffffff021916908373ffffffffffffffffffffffffffffffffffffffff160217905550808273ffffffffffffffffffffffffffffffffffffffff1661165583610a22565b73ffffffffffffffffffffffffffffffffffffffff167f8c5be1e5ebec7d5bd14f71427d1e84f3dd0314c0f7b2291e5b200ac8c7c3b92560405160405180910390a45050565b60006116a68261156e565b6116e5576040517f08c379a00000000000000000000000000000000000000000000000000000000081526004016116dc90612d07565b60405180910390fd5b60006116f083610a22565b90508073ffffffffffffffffffffffffffffffffffffffff168473ffffffffffffffffffffffffffffffffffffffff16148061175f57508373ffffffffffffffffffffffffffffffffffffffff16611747846105bc565b73ffffffffffffffffffffffffffffffffffffffff16145b80611770575061176f8185611378565b5b91505092915050565b8273ffffffffffffffffffffffffffffffffffffffff1661179982610a22565b73ffffffffffffffffffffffffffffffffffffffff16146117ef576040517f08c379a00000000000000000000000000000000000000000000000000000000081526004016117e690612e07565b60405180910390fd5b600073ffffffffffffffffffffffffffffffffffffffff168273ffffffffffffffffffffffffffffffffffffffff16141561185f576040517f08c379a000000000000000000000000000000000000000000000000000000000815260040161185690612cc7565b60405180910390fd5b61186a838383611e80565b6118756000826115e2565b6001600360008573ffffffffffffffffffffffffffffffffffffffff1673ffffffffffffffffffffffffffffffffffffffff16815260200190815260200160002060008282546118c59190613037565b925050819055506001600360008473ffffffffffffffffffffffffffffffffffffffff1673ffffffffffffffffffffffffffffffffffffffff168152602001908152602001600020600082825461191c9190612f56565b92505081905550816002600083815260200190815260200160002060006101000a81548173ffffffffffffffffffffffffffffffffffffffff021916908373ffffffffffffffffffffffffffffffffffffffff160217905550808273ffffffffffffffffffffffffffffffffffffffff168473ffffffffffffffffffffffffffffffffffffffff167fddf252ad1be2c89b69c2b068fc378daa952ba7f163c4a11628f55a4df523b3ef60405160405180910390a4505050565b6119ef828260405180602001604052806000815250611e85565b5050565b6000600760009054906101000a900473ffffffffffffffffffffffffffffffffffffffff16905081600760006101000a81548173ffffffffffffffffffffffffffffffffffffffff021916908373ffffffffffffffffffffffffffffffffffffffff1602179055508173ffffffffffffffffffffffffffffffffffffffff168173ffffffffffffffffffffffffffffffffffffffff167f8be0079c531659141344cd1fd0a4f28419497f9722a3daafe3b4186f6b6457e060405160405180910390a35050565b611ac4848484611779565b611ad084848484611ee0565b611b0f576040517f08c379a0000000000000000000000000000000000000000000000000000000008152600401611b0690612c67565b60405180910390fd5b50505050565b60606000821415611b5d576040518060400160405280600181526020017f30000000000000000000000000000000000000000000000000000000000000008152509050611cbd565b600082905060005b60008214611b8f578080611b78906131c8565b915050600a82611b889190612fac565b9150611b65565b60008167ffffffffffffffff811115611bd1577f4e487b7100000000000000000000000000000000000000000000000000000000600052604160045260246000fd5b6040519080825280601f01601f191660200182016040528015611c035781602001600182028036833780820191505090505b5090505b60008514611cb657600182611c1c9190613037565b9150600a85611c2b9190613211565b6030611c379190612f56565b60f81b818381518110611c73577f4e487b7100000000000000000000000000000000000000000000000000000000600052603260045260246000fd5b60200101907effffffffffffffffffffffffffffffffffffffffffffffffffffffffffffff1916908160001a905350600a85611caf9190612fac565b9450611c07565b8093505050505b919050565b60606000825190506000811415611ceb5760405180602001604052806000815250915050611e7b565b60006003600283611cfc9190612f56565b611d069190612fac565b6004611d129190612fdd565b90506000602082611d239190612f56565b67ffffffffffffffff811115611d62577f4e487b7100000000000000000000000000000000000000000000000000000000600052604160045260246000fd5b6040519080825280601f01601f191660200182016040528015611d945781602001600182028036833780820191505090505b5090506000604051806060016040528060408152602001613b6d604091399050600181016020830160005b86811015611e385760038101905062ffffff818a015116603f8160121c168401518060081b905060ff603f83600c1c1686015116810190508060081b905060ff603f8360061c1686015116810190508060081b905060ff603f831686015116810190508060e01b90508084526004840193505050611dbf565b506003860660018114611e525760028114611e6257611e6d565b613d3d60f01b6002830352611e6d565b603d60f81b60018303525b508484525050819450505050505b919050565b505050565b611e8f8383612077565b611e9c6000848484611ee0565b611edb576040517f08c379a0000000000000000000000000000000000000000000000000000000008152600401611ed290612c67565b60405180910390fd5b505050565b6000611f018473ffffffffffffffffffffffffffffffffffffffff16612245565b1561206a578373ffffffffffffffffffffffffffffffffffffffff1663150b7a02611f2a6115da565b8786866040518563ffffffff1660e01b8152600401611f4c9493929190612bc3565b602060405180830381600087803b158015611f6657600080fd5b505af1925050508015611f9757506040513d601f19601f82011682018060405250810190611f949190612573565b60015b61201a573d8060008114611fc7576040519150601f19603f3d011682016040523d82523d6000602084013e611fcc565b606091505b50600081511415612012576040517f08c379a000000000000000000000000000000000000000000000000000000000815260040161200990612c67565b60405180910390fd5b805181602001fd5b63150b7a0260e01b7bffffffffffffffffffffffffffffffffffffffffffffffffffffffff1916817bffffffffffffffffffffffffffffffffffffffffffffffffffffffff19161491505061206f565b600190505b949350505050565b600073ffffffffffffffffffffffffffffffffffffffff168273ffffffffffffffffffffffffffffffffffffffff1614156120e7576040517f08c379a00000000000000000000000000000000000000000000000000000000081526004016120de90612d87565b60405180910390fd5b6120f08161156e565b15612130576040517f08c379a000000000000000000000000000000000000000000000000000000000815260040161212790612ca7565b60405180910390fd5b61213c60008383611e80565b6001600360008473ffffffffffffffffffffffffffffffffffffffff1673ffffffffffffffffffffffffffffffffffffffff168152602001908152602001600020600082825461218c9190612f56565b92505081905550816002600083815260200190815260200160002060006101000a81548173ffffffffffffffffffffffffffffffffffffffff021916908373ffffffffffffffffffffffffffffffffffffffff160217905550808273ffffffffffffffffffffffffffffffffffffffff16600073ffffffffffffffffffffffffffffffffffffffff167fddf252ad1be2c89b69c2b068fc378daa952ba7f163c4a11628f55a4df523b3ef60405160405180910390a45050565b600080823b905060008111915050919050565b60405180606001604052806003905b60608152602001906001900390816122675790505090565b600061229261228d84612ee2565b612ebd565b9050828152602081018484840111156122aa57600080fd5b6122b5848285613123565b509392505050565b6000813590506122cc816139e5565b92915050565b6000813590506122e1816139fc565b92915050565b6000813590506122f681613a13565b92915050565b60008135905061230b81613a2a565b92915050565b60008151905061232081613a2a565b92915050565b600082601f83011261233757600080fd5b813561234784826020860161227f565b91505092915050565b60008135905061235f81613a41565b92915050565b60008135905061237481613a58565b92915050565b60006020828403121561238c57600080fd5b600061239a848285016122bd565b91505092915050565b6000602082840312156123b557600080fd5b60006123c3848285016122d2565b91505092915050565b600080604083850312156123df57600080fd5b60006123ed858286016122bd565b92505060206123fe858286016122bd565b9150509250929050565b60008060006060848603121561241d57600080fd5b600061242b868287016122bd565b935050602061243c868287016122bd565b925050604061244d86828701612365565b9150509250925092565b6000806000806080858703121561246d57600080fd5b600061247b878288016122bd565b945050602061248c878288016122bd565b935050604061249d87828801612365565b925050606085013567ffffffffffffffff8111156124ba57600080fd5b6124c687828801612326565b91505092959194509250565b600080604083850312156124e557600080fd5b60006124f3858286016122bd565b9250506020612504858286016122e7565b9150509250929050565b6000806040838503121561252157600080fd5b600061252f858286016122bd565b925050602061254085828601612365565b9150509250929050565b60006020828403121561255c57600080fd5b600061256a848285016122fc565b91505092915050565b60006020828403121561258557600080fd5b600061259384828501612311565b91505092915050565b6000602082840312156125ae57600080fd5b60006125bc84828501612350565b91505092915050565b6000602082840312156125d757600080fd5b60006125e584828501612365565b91505092915050565b6125f78161307d565b82525050565b6126068161306b565b82525050565b6126158161308f565b82525050565b600061262682612f13565b6126308185612f29565b9350612640818560208601613132565b612649816132fe565b840191505092915050565b61265d816130ff565b82525050565b600061266e82612f1e565b6126788185612f3a565b9350612688818560208601613132565b612691816132fe565b840191505092915050565b60006126a782612f1e565b6126b18185612f4b565b93506126c1818560208601613132565b80840191505092915050565b60006126da603283612f3a565b91506126e58261330f565b604082019050919050565b60006126fd602683612f3a565b91506127088261335e565b604082019050919050565b6000612720601c83612f3a565b915061272b826133ad565b602082019050919050565b6000612743602583612f4b565b915061274e826133d6565b602582019050919050565b600061276660ce83612f4b565b915061277182613425565b60ce82019050919050565b6000612789600183612f4b565b915061279482613532565b600182019050919050565b60006127ac602483612f3a565b91506127b78261355b565b604082019050919050565b60006127cf601983612f3a565b91506127da826135aa565b602082019050919050565b60006127f2602c83612f3a565b91506127fd826135d3565b604082019050919050565b6000612815603883612f3a565b915061282082613622565b604082019050919050565b6000612838600183612f4b565b915061284382613671565b600182019050919050565b600061285b602a83612f3a565b91506128668261369a565b604082019050919050565b600061287e602983612f3a565b9150612889826136e9565b604082019050919050565b60006128a1600283612f4b565b91506128ac82613738565b600282019050919050565b60006128c4602083612f3a565b91506128cf82613761565b602082019050919050565b60006128e7602c83612f3a565b91506128f28261378a565b604082019050919050565b600061290a602083612f3a565b9150612915826137d9565b602082019050919050565b600061292d601083612f3a565b915061293882613802565b602082019050919050565b6000612950602983612f3a565b915061295b8261382b565b604082019050919050565b6000612973600183612f4b565b915061297e8261387a565b600182019050919050565b6000612996602183612f3a565b91506129a1826138a3565b604082019050919050565b60006129b9601d83612f4b565b91506129c4826138f2565b601d82019050919050565b60006129dc601183612f4b565b91506129e78261391b565b601182019050919050565b60006129ff600d83612f4b565b9150612a0a82613944565b600d82019050919050565b6000612a22603183612f3a565b9150612a2d8261396d565b604082019050919050565b6000612a45601f83612f3a565b9150612a50826139bc565b602082019050919050565b612a64816130c7565b82525050565b612a73816130f5565b82525050565b6000612a85828661269c565b9150612a91828561269c565b9150612a9d828461269c565b9150819050949350505050565b6000612ab582612759565b9150819050919050565b6000612aca82612966565b9150612ad6828661269c565b9150612ae18261277c565b9150612aed828561269c565b9150612af882612736565b9150612b04828461269c565b9150612b0f82612894565b9150819050949350505050565b6000612b27826129ac565b9150612b33828461269c565b915081905092915050565b6000612b49826129cf565b9150612b55828461269c565b9150612b608261282b565b915081905092915050565b6000612b76826129f2565b9150612b82828461269c565b915081905092915050565b6000602082019050612ba260008301846125fd565b92915050565b6000602082019050612bbd60008301846125ee565b92915050565b6000608082019050612bd860008301876125fd565b612be560208301866125fd565b612bf26040830185612a6a565b8181036060830152612c04818461261b565b905095945050505050565b6000602082019050612c24600083018461260c565b92915050565b6000602082019050612c3f6000830184612654565b92915050565b60006020820190508181036000830152612c5f8184612663565b905092915050565b60006020820190508181036000830152612c80816126cd565b9050919050565b60006020820190508181036000830152612ca0816126f0565b9050919050565b60006020820190508181036000830152612cc081612713565b9050919050565b60006020820190508181036000830152612ce08161279f565b9050919050565b60006020820190508181036000830152612d00816127c2565b9050919050565b60006020820190508181036000830152612d20816127e5565b9050919050565b60006020820190508181036000830152612d4081612808565b9050919050565b60006020820190508181036000830152612d608161284e565b9050919050565b60006020820190508181036000830152612d8081612871565b9050919050565b60006020820190508181036000830152612da0816128b7565b9050919050565b60006020820190508181036000830152612dc0816128da565b9050919050565b60006020820190508181036000830152612de0816128fd565b9050919050565b60006020820190508181036000830152612e0081612920565b9050919050565b60006020820190508181036000830152612e2081612943565b9050919050565b60006020820190508181036000830152612e4081612989565b9050919050565b60006020820190508181036000830152612e6081612a15565b9050919050565b60006020820190508181036000830152612e8081612a38565b9050919050565b6000602082019050612e9c6000830184612a5b565b92915050565b6000602082019050612eb76000830184612a6a565b92915050565b6000612ec7612ed8565b9050612ed38282613197565b919050565b6000604051905090565b600067ffffffffffffffff821115612efd57612efc6132cf565b5b612f06826132fe565b9050602081019050919050565b600081519050919050565b600081519050919050565b600082825260208201905092915050565b600082825260208201905092915050565b600081905092915050565b6000612f61826130f5565b9150612f6c836130f5565b9250827fffffffffffffffffffffffffffffffffffffffffffffffffffffffffffffffff03821115612fa157612fa0613242565b5b828201905092915050565b6000612fb7826130f5565b9150612fc2836130f5565b925082612fd257612fd1613271565b5b828204905092915050565b6000612fe8826130f5565b9150612ff3836130f5565b9250817fffffffffffffffffffffffffffffffffffffffffffffffffffffffffffffffff048311821515161561302c5761302b613242565b5b828202905092915050565b6000613042826130f5565b915061304d836130f5565b9250828210156130605761305f613242565b5b828203905092915050565b6000613076826130d5565b9050919050565b6000613088826130d5565b9050919050565b60008115159050919050565b60007fffffffff0000000000000000000000000000000000000000000000000000000082169050919050565b600061ffff82169050919050565b600073ffffffffffffffffffffffffffffffffffffffff82169050919050565b6000819050919050565b600061310a82613111565b9050919050565b600061311c826130d5565b9050919050565b82818337600083830152505050565b60005b83811015613150578082015181840152602081019050613135565b8381111561315f576000848401525b50505050565b6000600282049050600182168061317d57607f821691505b60208210811415613191576131906132a0565b5b50919050565b6131a0826132fe565b810181811067ffffffffffffffff821117156131bf576131be6132cf565b5b80604052505050565b60006131d3826130f5565b91507fffffffffffffffffffffffffffffffffffffffffffffffffffffffffffffffff82141561320657613205613242565b5b600182019050919050565b600061321c826130f5565b9150613227836130f5565b92508261323757613236613271565b5b828206905092915050565b7f4e487b7100000000000000000000000000000000000000000000000000000000600052601160045260246000fd5b7f4e487b7100000000000000000000000000000000000000000000000000000000600052601260045260246000fd5b7f4e487b7100000000000000000000000000000000000000000000000000000000600052602260045260246000fd5b7f4e487b7100000000000000000000000000000000000000000000000000000000600052604160045260246000fd5b6000601f19601f8301169050919050565b7f4552433732313a207472616e7366657220746f206e6f6e20455243373231526560008201527f63656976657220696d706c656d656e7465720000000000000000000000000000602082015250565b7f4f776e61626c653a206e6577206f776e657220697320746865207a65726f206160008201527f6464726573730000000000000000000000000000000000000000000000000000602082015250565b7f4552433732313a20746f6b656e20616c7265616479206d696e74656400000000600082015250565b7f2c22696d616765223a2022646174613a696d6167652f7376672b786d6c3b626160008201527f736536342c000000000000000000000000000000000000000000000000000000602082015250565b7f226465736372697074696f6e223a2022506562626c65204c6f6f74206973206160008201527f207265616c20776f726c6420646174612073746f726564206f6e20636861696e60208201527f2e2053746174732c20696d616765732c20616e64206f746865722066756e637460408201527f696f6e616c6974792061726520696e74656e74696f6e616c6c79206f6d69747460608201527f656420666f72206f746865727320746f20696e746572707265742e204665656c60808201527f206672656520746f2075736520506562626c65204c6f6f7420696e20616e792060a08201527f77617920796f752077616e742e2200000000000000000000000000000000000060c082015250565b7f2c00000000000000000000000000000000000000000000000000000000000000600082015250565b7f4552433732313a207472616e7366657220746f20746865207a65726f2061646460008201527f7265737300000000000000000000000000000000000000000000000000000000602082015250565b7f4552433732313a20617070726f766520746f2063616c6c657200000000000000600082015250565b7f4552433732313a206f70657261746f7220717565727920666f72206e6f6e657860008201527f697374656e7420746f6b656e0000000000000000000000000000000000000000602082015250565b7f4552433732313a20617070726f76652063616c6c6572206973206e6f74206f7760008201527f6e6572206e6f7220617070726f76656420666f7220616c6c0000000000000000602082015250565b7f2200000000000000000000000000000000000000000000000000000000000000600082015250565b7f4552433732313a2062616c616e636520717565727920666f7220746865207a6560008201527f726f206164647265737300000000000000000000000000000000000000000000602082015250565b7f4552433732313a206f776e657220717565727920666f72206e6f6e657869737460008201527f656e7420746f6b656e0000000000000000000000000000000000000000000000602082015250565b7f227d000000000000000000000000000000000000000000000000000000000000600082015250565b7f4552433732313a206d696e7420746f20746865207a65726f2061646472657373600082015250565b7f4552433732313a20617070726f76656420717565727920666f72206e6f6e657860008201527f697374656e7420746f6b656e0000000000000000000000000000000000000000602082015250565b7f4f776e61626c653a2063616c6c6572206973206e6f7420746865206f776e6572600082015250565b7f546f6b656e20494420696e76616c696400000000000000000000000000000000600082015250565b7f4552433732313a207472616e73666572206f6620746f6b656e2074686174206960008201527f73206e6f74206f776e0000000000000000000000000000000000000000000000602082015250565b7f7b00000000000000000000000000000000000000000000000000000000000000600082015250565b7f4552433732313a20617070726f76616c20746f2063757272656e74206f776e6560008201527f7200000000000000000000000000000000000000000000000000000000000000602082015250565b7f646174613a6170706c69636174696f6e2f6a736f6e3b6261736536342c000000600082015250565b7f226e616d65223a2022506562626c652023000000000000000000000000000000600082015250565b7f506562626c65204c6f6f74202300000000000000000000000000000000000000600082015250565b7f4552433732313a207472616e736665722063616c6c6572206973206e6f74206f60008201527f776e6572206e6f7220617070726f766564000000000000000000000000000000602082015250565b7f5265656e7472616e637947756172643a207265656e7472616e742063616c6c00600082015250565b6139ee8161306b565b81146139f957600080fd5b50565b613a058161307d565b8114613a1057600080fd5b50565b613a1c8161308f565b8114613a2757600080fd5b50565b613a338161309b565b8114613a3e57600080fd5b50565b613a4a816130c7565b8114613a5557600080fd5b50565b613a61816130f5565b8114613a6c57600080fd5b5056fe3c73766720786d6c6e733d22687474703a2f2f7777772e77332e6f72672f323030302f73766722207072657365727665417370656374526174696f3d22784d696e594d696e206d656574222076696577426f783d223020302033353020333530223e3c7374796c653e2e62617365207b2066696c6c3a2077686974653b20666f6e742d66616d696c793a2073657269663b20666f6e742d73697a653a20313470783b207d3c2f7374796c653e3c726563742077696474683d223130302522206865696768743d2231303025222066696c6c3d22626c61636b22202f3e3c7465787420783d2231302220793d2232302220636c6173733d2262617365223e4142434445464748494a4b4c4d4e4f505152535455565758595a6162636465666768696a6b6c6d6e6f707172737475767778797a303132333435363738392b2fa26469706673582212204394d76648ddf94ee67482d968964edc8302e8dfb73ea02d080100b65c76626764736f6c63430008040033",
  "linkReferences": {},
  "deployedLinkReferences": {}
}