{
  "_format": "hh-sol-artifact-1",
  "contractName": "PebbleLoot",
  "sourceName": "contracts/PebbleLoot.sol",
  "abi": [
    {
      "inputs": [
        {
          "internalType": "address",
          "name": "_registration",
          "type": "address"
        },
        {
          "internalType": "address payable",
          "name": "_feeReceipient",
          "type": "address"
        }
      ],
      "stateMutability": "nonpayable",
      "type": "constructor"
    },
    {
      "anonymous": false,
      "inputs": [
        {
          "indexed": true,
          "internalType": "address",
          "name": "owner",
          "type": "address"
        },
        {
          "indexed": true,
          "internalType": "address",
          "name": "approved",
          "type": "address"
        },
        {
          "indexed": true,
          "internalType": "uint256",
          "name": "tokenId",
          "type": "uint256"
        }
      ],
      "name": "Approval",
      "type": "event"
    },
    {
      "anonymous": false,
      "inputs": [
        {
          "indexed": true,
          "internalType": "address",
          "name": "owner",
          "type": "address"
        },
        {
          "indexed": true,
          "internalType": "address",
          "name": "operator",
          "type": "address"
        },
        {
          "indexed": false,
          "internalType": "bool",
          "name": "approved",
          "type": "bool"
        }
      ],
      "name": "ApprovalForAll",
      "type": "event"
    },
    {
      "anonymous": false,
      "inputs": [
        {
          "indexed": true,
          "internalType": "address",
          "name": "feeReceipient",
          "type": "address"
        }
      ],
      "name": "FeeReceipientUpdated",
      "type": "event"
    },
    {
      "anonymous": false,
      "inputs": [
        {
          "indexed": false,
          "internalType": "uint16",
          "name": "mintingFee",
          "type": "uint16"
        }
      ],
      "name": "MintingFeeUpdated",
      "type": "event"
    },
    {
      "anonymous": false,
      "inputs": [
        {
          "indexed": true,
          "internalType": "address",
          "name": "previousOwner",
          "type": "address"
        },
        {
          "indexed": true,
          "internalType": "address",
          "name": "newOwner",
          "type": "address"
        }
      ],
      "name": "OwnershipTransferred",
      "type": "event"
    },
    {
      "anonymous": false,
      "inputs": [
        {
          "indexed": true,
          "internalType": "address",
          "name": "registration",
          "type": "address"
        }
      ],
      "name": "RegistrationUpdated",
      "type": "event"
    },
    {
      "anonymous": false,
      "inputs": [
        {
          "indexed": false,
          "internalType": "address",
          "name": "owner",
          "type": "address"
        },
        {
          "indexed": false,
          "internalType": "uint256",
          "name": "tokenId",
          "type": "uint256"
        }
      ],
      "name": "TokenMinted",
      "type": "event"
    },
    {
      "anonymous": false,
      "inputs": [
        {
          "indexed": true,
          "internalType": "address",
          "name": "from",
          "type": "address"
        },
        {
          "indexed": true,
          "internalType": "address",
          "name": "to",
          "type": "address"
        },
        {
          "indexed": true,
          "internalType": "uint256",
          "name": "tokenId",
          "type": "uint256"
        }
      ],
      "name": "Transfer",
      "type": "event"
    },
    {
      "inputs": [
        {
          "internalType": "address",
          "name": "to",
          "type": "address"
        },
        {
          "internalType": "uint256",
          "name": "tokenId",
          "type": "uint256"
        }
      ],
      "name": "approve",
      "outputs": [],
      "stateMutability": "nonpayable",
      "type": "function"
    },
    {
      "inputs": [
        {
          "internalType": "uint256",
          "name": "",
          "type": "uint256"
        }
      ],
      "name": "awakenings",
      "outputs": [
        {
          "internalType": "uint256",
          "name": "",
          "type": "uint256"
        }
      ],
      "stateMutability": "view",
      "type": "function"
    },
    {
      "inputs": [
        {
          "internalType": "address",
          "name": "owner",
          "type": "address"
        }
      ],
      "name": "balanceOf",
      "outputs": [
        {
          "internalType": "uint256",
          "name": "",
          "type": "uint256"
        }
      ],
      "stateMutability": "view",
      "type": "function"
    },
    {
      "inputs": [
        {
          "internalType": "uint256",
          "name": "tokenId",
          "type": "uint256"
        }
      ],
      "name": "claim",
      "outputs": [],
      "stateMutability": "payable",
      "type": "function"
    },
    {
      "inputs": [],
      "name": "feeReceipient",
      "outputs": [
        {
          "internalType": "address payable",
          "name": "",
          "type": "address"
        }
      ],
      "stateMutability": "view",
      "type": "function"
    },
    {
      "inputs": [
        {
          "internalType": "uint256",
          "name": "tokenId",
          "type": "uint256"
        }
      ],
      "name": "getApproved",
      "outputs": [
        {
          "internalType": "address",
          "name": "",
          "type": "address"
        }
      ],
      "stateMutability": "view",
      "type": "function"
    },
    {
      "inputs": [
        {
          "internalType": "uint256",
          "name": "tokenId",
          "type": "uint256"
        }
      ],
      "name": "getSkin",
      "outputs": [
        {
          "internalType": "string",
          "name": "",
          "type": "string"
        }
      ],
      "stateMutability": "view",
      "type": "function"
    },
    {
      "inputs": [
        {
          "internalType": "address",
          "name": "owner",
          "type": "address"
        },
        {
          "internalType": "address",
          "name": "operator",
          "type": "address"
        }
      ],
      "name": "isApprovedForAll",
      "outputs": [
        {
          "internalType": "bool",
          "name": "",
          "type": "bool"
        }
      ],
      "stateMutability": "view",
      "type": "function"
    },
    {
      "inputs": [],
      "name": "mintingFee",
      "outputs": [
        {
          "internalType": "uint16",
          "name": "",
          "type": "uint16"
        }
      ],
      "stateMutability": "view",
      "type": "function"
    },
    {
      "inputs": [],
      "name": "name",
      "outputs": [
        {
          "internalType": "string",
          "name": "",
          "type": "string"
        }
      ],
      "stateMutability": "view",
      "type": "function"
    },
    {
      "inputs": [],
      "name": "owner",
      "outputs": [
        {
          "internalType": "address",
          "name": "",
          "type": "address"
        }
      ],
      "stateMutability": "view",
      "type": "function"
    },
    {
      "inputs": [
        {
          "internalType": "uint256",
          "name": "tokenId",
          "type": "uint256"
        }
      ],
      "name": "ownerOf",
      "outputs": [
        {
          "internalType": "address",
          "name": "",
          "type": "address"
        }
      ],
      "stateMutability": "view",
      "type": "function"
    },
    {
      "inputs": [],
      "name": "registration",
      "outputs": [
        {
          "internalType": "contract IRegistration",
          "name": "",
          "type": "address"
        }
      ],
      "stateMutability": "view",
      "type": "function"
    },
    {
      "inputs": [],
      "name": "renounceOwnership",
      "outputs": [],
      "stateMutability": "nonpayable",
      "type": "function"
    },
    {
      "inputs": [
        {
          "internalType": "address",
          "name": "from",
          "type": "address"
        },
        {
          "internalType": "address",
          "name": "to",
          "type": "address"
        },
        {
          "internalType": "uint256",
          "name": "tokenId",
          "type": "uint256"
        }
      ],
      "name": "safeTransferFrom",
      "outputs": [],
      "stateMutability": "nonpayable",
      "type": "function"
    },
    {
      "inputs": [
        {
          "internalType": "address",
          "name": "from",
          "type": "address"
        },
        {
          "internalType": "address",
          "name": "to",
          "type": "address"
        },
        {
          "internalType": "uint256",
          "name": "tokenId",
          "type": "uint256"
        },
        {
          "internalType": "bytes",
          "name": "_data",
          "type": "bytes"
        }
      ],
      "name": "safeTransferFrom",
      "outputs": [],
      "stateMutability": "nonpayable",
      "type": "function"
    },
    {
      "inputs": [
        {
          "internalType": "address",
          "name": "operator",
          "type": "address"
        },
        {
          "internalType": "bool",
          "name": "approved",
          "type": "bool"
        }
      ],
      "name": "setApprovalForAll",
      "outputs": [],
      "stateMutability": "nonpayable",
      "type": "function"
    },
    {
      "inputs": [
        {
          "internalType": "bytes4",
          "name": "interfaceId",
          "type": "bytes4"
        }
      ],
      "name": "supportsInterface",
      "outputs": [
        {
          "internalType": "bool",
          "name": "",
          "type": "bool"
        }
      ],
      "stateMutability": "view",
      "type": "function"
    },
    {
      "inputs": [],
      "name": "symbol",
      "outputs": [
        {
          "internalType": "string",
          "name": "",
          "type": "string"
        }
      ],
      "stateMutability": "view",
      "type": "function"
    },
    {
      "inputs": [
        {
          "internalType": "uint256",
          "name": "index",
          "type": "uint256"
        }
      ],
      "name": "tokenByIndex",
      "outputs": [
        {
          "internalType": "uint256",
          "name": "",
          "type": "uint256"
        }
      ],
      "stateMutability": "view",
      "type": "function"
    },
    {
      "inputs": [
        {
          "internalType": "address",
          "name": "owner",
          "type": "address"
        },
        {
          "internalType": "uint256",
          "name": "index",
          "type": "uint256"
        }
      ],
      "name": "tokenOfOwnerByIndex",
      "outputs": [
        {
          "internalType": "uint256",
          "name": "",
          "type": "uint256"
        }
      ],
      "stateMutability": "view",
      "type": "function"
    },
    {
      "inputs": [
        {
          "internalType": "uint256",
          "name": "tokenId",
          "type": "uint256"
        }
      ],
      "name": "tokenURI",
      "outputs": [
        {
          "internalType": "string",
          "name": "",
          "type": "string"
        }
      ],
      "stateMutability": "view",
      "type": "function"
    },
    {
      "inputs": [],
      "name": "totalSupply",
      "outputs": [
        {
          "internalType": "uint256",
          "name": "",
          "type": "uint256"
        }
      ],
      "stateMutability": "view",
      "type": "function"
    },
    {
      "inputs": [
        {
          "internalType": "address",
          "name": "from",
          "type": "address"
        },
        {
          "internalType": "address",
          "name": "to",
          "type": "address"
        },
        {
          "internalType": "uint256",
          "name": "tokenId",
          "type": "uint256"
        }
      ],
      "name": "transferFrom",
      "outputs": [],
      "stateMutability": "nonpayable",
      "type": "function"
    },
    {
      "inputs": [
        {
          "internalType": "address",
          "name": "newOwner",
          "type": "address"
        }
      ],
      "name": "transferOwnership",
      "outputs": [],
      "stateMutability": "nonpayable",
      "type": "function"
    },
    {
      "inputs": [
        {
          "internalType": "address payable",
          "name": "_feeReceipient",
          "type": "address"
        }
      ],
      "name": "updateFeeReceipient",
      "outputs": [],
      "stateMutability": "nonpayable",
      "type": "function"
    },
    {
      "inputs": [
        {
          "internalType": "uint16",
          "name": "_mintingFee",
          "type": "uint16"
        }
      ],
      "name": "updateMintingFee",
      "outputs": [],
      "stateMutability": "nonpayable",
      "type": "function"
    },
    {
      "inputs": [
        {
          "internalType": "address",
          "name": "_registration",
          "type": "address"
        }
      ],
      "name": "updateRegistration",
      "outputs": [],
      "stateMutability": "nonpayable",
      "type": "function"
    }
  ],
  "bytecode": "0x60806040526040518061018001604052806040518060400160405280600381526020017f636174000000000000000000000000000000000000000000000000000000000081525081526020016040518060400160405280600381526020017f646f67000000000000000000000000000000000000000000000000000000000081525081526020016040518060400160405280600581526020017f70616e646100000000000000000000000000000000000000000000000000000081525081526020016040518060400160405280600781526020017f6772697a7a6c790000000000000000000000000000000000000000000000000081525081526020016040518060400160405280600981526020017f706f6c617242656172000000000000000000000000000000000000000000000081525081526020016040518060400160405280600481526020017f776f6c660000000000000000000000000000000000000000000000000000000081525081526020016040518060400160405280600381526020017f666f78000000000000000000000000000000000000000000000000000000000081525081526020016040518060400160405280600781526020017f756e69636f726e0000000000000000000000000000000000000000000000000081525081526020016040518060400160405280600381526020017f617065000000000000000000000000000000000000000000000000000000000081525081526020016040518060400160405280600581526020017f736861726b00000000000000000000000000000000000000000000000000000081525081526020016040518060400160405280600481526020017f66726f670000000000000000000000000000000000000000000000000000000081525081526020016040518060400160405280600581526020017f7768616c65000000000000000000000000000000000000000000000000000000815250815250600f90600c620002e492919062000699565b506040518060a001604052806040518060400160405280600581526020017f736d61727400000000000000000000000000000000000000000000000000000081525081526020016040518060400160405280600481526020017f72656b740000000000000000000000000000000000000000000000000000000081525081526020016040518060400160405280600481526020017f726963680000000000000000000000000000000000000000000000000000000081525081526020016040518060400160405280600781526020017f6368696c6c65640000000000000000000000000000000000000000000000000081525081526020016040518060400160405280600681526020017f676f6c64656e000000000000000000000000000000000000000000000000000081525081525060109060056200042792919062000700565b503480156200043557600080fd5b50604051620056ad380380620056ad83398181016040528101906200045b9190620008b3565b6040518060400160405280600b81526020017f506562626c65204c6f6f740000000000000000000000000000000000000000008152506040518060400160405280600381526020017f504c5400000000000000000000000000000000000000000000000000000000008152508160009080519060200190620004df92919062000767565b508060019080519060200190620004f892919062000767565b50505060016006819055506200052362000517620005cb60201b60201c565b620005d360201b60201c565b81600c60006101000a81548173ffffffffffffffffffffffffffffffffffffffff021916908373ffffffffffffffffffffffffffffffffffffffff1602179055506000600c60146101000a81548161ffff021916908361ffff16021790555080600d60006101000a81548173ffffffffffffffffffffffffffffffffffffffff021916908373ffffffffffffffffffffffffffffffffffffffff1602179055505050620009d5565b600033905090565b6000600b60009054906101000a900473ffffffffffffffffffffffffffffffffffffffff16905081600b60006101000a81548173ffffffffffffffffffffffffffffffffffffffff021916908373ffffffffffffffffffffffffffffffffffffffff1602179055508173ffffffffffffffffffffffffffffffffffffffff168173ffffffffffffffffffffffffffffffffffffffff167f8be0079c531659141344cd1fd0a4f28419497f9722a3daafe3b4186f6b6457e060405160405180910390a35050565b828054828255906000526020600020908101928215620006ed579160200282015b82811115620006ec578251829080519060200190620006db92919062000767565b5091602001919060010190620006ba565b5b509050620006fc9190620007f8565b5090565b82805482825590600052602060002090810192821562000754579160200282015b82811115620007535782518290805190602001906200074292919062000767565b509160200191906001019062000721565b5b509050620007639190620007f8565b5090565b82805462000775906200093c565b90600052602060002090601f016020900481019282620007995760008555620007e5565b82601f10620007b457805160ff1916838001178555620007e5565b82800160010185558215620007e5579182015b82811115620007e4578251825591602001919060010190620007c7565b5b509050620007f4919062000820565b5090565b5b808211156200081c57600081816200081291906200083f565b50600101620007f9565b5090565b5b808211156200083b57600081600090555060010162000821565b5090565b5080546200084d906200093c565b6000825580601f1062000861575062000882565b601f01602090049060005260206000209081019062000881919062000820565b5b50565b6000815190506200089681620009a1565b92915050565b600081519050620008ad81620009bb565b92915050565b60008060408385031215620008c757600080fd5b6000620008d78582860162000885565b9250506020620008ea858286016200089c565b9150509250929050565b600062000901826200091c565b9050919050565b600062000915826200091c565b9050919050565b600073ffffffffffffffffffffffffffffffffffffffff82169050919050565b600060028204905060018216806200095557607f821691505b602082108114156200096c576200096b62000972565b5b50919050565b7f4e487b7100000000000000000000000000000000000000000000000000000000600052602260045260246000fd5b620009ac81620008f4565b8114620009b857600080fd5b50565b620009c68162000908565b8114620009d257600080fd5b50565b614cc880620009e56000396000f3fe6080604052600436106101b75760003560e01c80636352211e116100ec578063a22cb4651161008a578063c87b56dd11610064578063c87b56dd14610623578063e2fe652b14610660578063e985e9c514610689578063f2fde38b146106c6576101b7565b8063a22cb465146105a8578063b244182f146105d1578063b88d4fde146105fa576101b7565b806381858ad1116100c657806381858ad1146104d85780638da5cb5b1461051557806395d89b411461054057806398e4f5811461056b576101b7565b80636352211e1461044757806370a0823114610484578063715018a6146104c1576101b7565b80633740ebb311610159578063443bd1d011610133578063443bd1d01461038b5780634f6ccce7146103b65780635a64ad95146103f35780635c42690a1461041e576101b7565b80633740ebb31461031b578063379607f51461034657806342842e0e14610362576101b7565b8063095ea7b311610195578063095ea7b31461026157806318160ddd1461028a57806323b872dd146102b55780632f745c59146102de576101b7565b806301ffc9a7146101bc57806306fdde03146101f9578063081812fc14610224575b600080fd5b3480156101c857600080fd5b506101e360048036038101906101de9190613191565b6106ef565b6040516101f09190613a39565b60405180910390f35b34801561020557600080fd5b5061020e610701565b60405161021b9190613a6f565b60405180910390f35b34801561023057600080fd5b5061024b6004803603810190610246919061320c565b610793565b604051610258919061398e565b60405180910390f35b34801561026d57600080fd5b5061028860048036038101906102839190613155565b610818565b005b34801561029657600080fd5b5061029f610930565b6040516102ac9190613d4c565b60405180910390f35b3480156102c157600080fd5b506102dc60048036038101906102d7919061304f565b61093d565b005b3480156102ea57600080fd5b5061030560048036038101906103009190613155565b61099d565b6040516103129190613d4c565b60405180910390f35b34801561032757600080fd5b50610330610a42565b60405161033d91906139a9565b60405180910390f35b610360600480360381019061035b919061320c565b610a68565b005b34801561036e57600080fd5b506103896004803603810190610384919061304f565b610d08565b005b34801561039757600080fd5b506103a0610d28565b6040516103ad9190613a54565b60405180910390f35b3480156103c257600080fd5b506103dd60048036038101906103d8919061320c565b610d4e565b6040516103ea9190613d4c565b60405180910390f35b3480156103ff57600080fd5b50610408610de5565b6040516104159190613d31565b60405180910390f35b34801561042a57600080fd5b5061044560048036038101906104409190612fae565b610df9565b005b34801561045357600080fd5b5061046e6004803603810190610469919061320c565b610f1e565b60405161047b919061398e565b60405180910390f35b34801561049057600080fd5b506104ab60048036038101906104a69190612f85565b610fd0565b6040516104b89190613d4c565b60405180910390f35b3480156104cd57600080fd5b506104d6611088565b005b3480156104e457600080fd5b506104ff60048036038101906104fa919061320c565b611110565b60405161050c9190613d4c565b60405180910390f35b34801561052157600080fd5b5061052a611128565b604051610537919061398e565b60405180910390f35b34801561054c57600080fd5b50610555611152565b6040516105629190613a6f565b60405180910390f35b34801561057757600080fd5b50610592600480360381019061058d919061320c565b6111e4565b60405161059f9190613a6f565b60405180910390f35b3480156105b457600080fd5b506105cf60048036038101906105ca9190613119565b6112fe565b005b3480156105dd57600080fd5b506105f860048036038101906105f39190612f85565b61147f565b005b34801561060657600080fd5b50610621600480360381019061061c919061309e565b611582565b005b34801561062f57600080fd5b5061064a6004803603810190610645919061320c565b6115e4565b6040516106579190613a6f565b60405180910390f35b34801561066c57600080fd5b50610687600480360381019061068291906131e3565b6116ed565b005b34801561069557600080fd5b506106b060048036038101906106ab9190612fd7565b6117d0565b6040516106bd9190613a39565b60405180910390f35b3480156106d257600080fd5b506106ed60048036038101906106e89190612f85565b611864565b005b60006106fa8261195c565b9050919050565b6060600080546107109061400f565b80601f016020809104026020016040519081016040528092919081815260200182805461073c9061400f565b80156107895780601f1061075e57610100808354040283529160200191610789565b820191906000526020600020905b81548152906001019060200180831161076c57829003601f168201915b5050505050905090565b600061079e826119d6565b6107dd576040517f08c379a00000000000000000000000000000000000000000000000000000000081526004016107d490613c51565b60405180910390fd5b6004600083815260200190815260200160002060009054906101000a900473ffffffffffffffffffffffffffffffffffffffff169050919050565b600061082382610f1e565b90508073ffffffffffffffffffffffffffffffffffffffff168373ffffffffffffffffffffffffffffffffffffffff161415610894576040517f08c379a000000000000000000000000000000000000000000000000000000000815260040161088b90613cb1565b60405180910390fd5b8073ffffffffffffffffffffffffffffffffffffffff166108b3611a42565b73ffffffffffffffffffffffffffffffffffffffff1614806108e257506108e1816108dc611a42565b6117d0565b5b610921576040517f08c379a000000000000000000000000000000000000000000000000000000000815260040161091890613b91565b60405180910390fd5b61092b8383611a4a565b505050565b6000600980549050905090565b61094e610948611a42565b82611b03565b61098d576040517f08c379a000000000000000000000000000000000000000000000000000000000815260040161098490613cd1565b60405180910390fd5b610998838383611be1565b505050565b60006109a883610fd0565b82106109e9576040517f08c379a00000000000000000000000000000000000000000000000000000000081526004016109e090613a91565b60405180910390fd5b600760008473ffffffffffffffffffffffffffffffffffffffff1673ffffffffffffffffffffffffffffffffffffffff168152602001908152602001600020600083815260200190815260200160002054905092915050565b600d60009054906101000a900473ffffffffffffffffffffffffffffffffffffffff1681565b60026006541415610aae576040517f08c379a0000000000000000000000000000000000000000000000000000000008152600401610aa590613d11565b60405180910390fd5b6002600681905550655af3107a3fff81118015610ad1575066038d7ea4c6800081105b610b10576040517f08c379a0000000000000000000000000000000000000000000000000000000008152600401610b0790613bf1565b60405180910390fd5b6000600c60009054906101000a900473ffffffffffffffffffffffffffffffffffffffff1673ffffffffffffffffffffffffffffffffffffffff166382b7b500610b5984611e3d565b6040518263ffffffff1660e01b8152600401610b759190613a6f565b604080518083038186803b158015610b8c57600080fd5b505afa158015610ba0573d6000803e3d6000fd5b505050506040513d601f19601f82011682018060405250810190610bc49190613013565b9150508073ffffffffffffffffffffffffffffffffffffffff16610be6611a42565b73ffffffffffffffffffffffffffffffffffffffff1614610c3c576040517f08c379a0000000000000000000000000000000000000000000000000000000008152600401610c3390613c11565b60405180910390fd5b600c60149054906101000a900461ffff1661ffff16341015610c93576040517f08c379a0000000000000000000000000000000000000000000000000000000008152600401610c8a90613b71565b60405180910390fd5b610ca4610c9e611a42565b83611fea565b43600e6000848152602001908152602001600020819055507fb9144c96c86541f6fa89c9f2f02495cccf4b08cd6643e26d34ee00aa586558a8610ce5611a42565b83604051610cf4929190613a10565b60405180910390a150600160068190555050565b610d2383838360405180602001604052806000815250611582565b505050565b600c60009054906101000a900473ffffffffffffffffffffffffffffffffffffffff1681565b6000610d58610930565b8210610d99576040517f08c379a0000000000000000000000000000000000000000000000000000000008152600401610d9090613cf1565b60405180910390fd5b60098281548110610dd3577f4e487b7100000000000000000000000000000000000000000000000000000000600052603260045260246000fd5b90600052602060002001549050919050565b600c60149054906101000a900461ffff1681565b610e01611a42565b73ffffffffffffffffffffffffffffffffffffffff16610e1f611128565b73ffffffffffffffffffffffffffffffffffffffff1614610e75576040517f08c379a0000000000000000000000000000000000000000000000000000000008152600401610e6c90613c71565b60405180910390fd5b80600d60006101000a81548173ffffffffffffffffffffffffffffffffffffffff021916908373ffffffffffffffffffffffffffffffffffffffff160217905550600d60009054906101000a900473ffffffffffffffffffffffffffffffffffffffff1673ffffffffffffffffffffffffffffffffffffffff167f4e8038c85ccd41777ff692b6d98418aa13b143d93efc1299f794a9f646bc64d460405160405180910390a250565b6000806002600084815260200190815260200160002060009054906101000a900473ffffffffffffffffffffffffffffffffffffffff169050600073ffffffffffffffffffffffffffffffffffffffff168173ffffffffffffffffffffffffffffffffffffffff161415610fc7576040517f08c379a0000000000000000000000000000000000000000000000000000000008152600401610fbe90613bd1565b60405180910390fd5b80915050919050565b60008073ffffffffffffffffffffffffffffffffffffffff168273ffffffffffffffffffffffffffffffffffffffff161415611041576040517f08c379a000000000000000000000000000000000000000000000000000000000815260040161103890613bb1565b60405180910390fd5b600360008373ffffffffffffffffffffffffffffffffffffffff1673ffffffffffffffffffffffffffffffffffffffff168152602001908152602001600020549050919050565b611090611a42565b73ffffffffffffffffffffffffffffffffffffffff166110ae611128565b73ffffffffffffffffffffffffffffffffffffffff1614611104576040517f08c379a00000000000000000000000000000000000000000000000000000000081526004016110fb90613c71565b60405180910390fd5b61110e6000612008565b565b600e6020528060005260406000206000915090505481565b6000600b60009054906101000a900473ffffffffffffffffffffffffffffffffffffffff16905090565b6060600180546111619061400f565b80601f016020809104026020016040519081016040528092919081815260200182805461118d9061400f565b80156111da5780601f106111af576101008083540402835291602001916111da565b820191906000526020600020905b8154815290600101906020018083116111bd57829003601f168201915b5050505050905090565b60606112f7826040518060400160405280600481526020017f534b494e00000000000000000000000000000000000000000000000000000000815250600f805480602002602001604051908101604052809291908181526020016000905b828210156112ee5783829060005260206000200180546112619061400f565b80601f016020809104026020016040519081016040528092919081815260200182805461128d9061400f565b80156112da5780601f106112af576101008083540402835291602001916112da565b820191906000526020600020905b8154815290600101906020018083116112bd57829003601f168201915b505050505081526020019060010190611242565b505050506120ce565b9050919050565b611306611a42565b73ffffffffffffffffffffffffffffffffffffffff168273ffffffffffffffffffffffffffffffffffffffff161415611374576040517f08c379a000000000000000000000000000000000000000000000000000000000815260040161136b90613b31565b60405180910390fd5b8060056000611381611a42565b73ffffffffffffffffffffffffffffffffffffffff1673ffffffffffffffffffffffffffffffffffffffff16815260200190815260200160002060008473ffffffffffffffffffffffffffffffffffffffff1673ffffffffffffffffffffffffffffffffffffffff16815260200190815260200160002060006101000a81548160ff0219169083151502179055508173ffffffffffffffffffffffffffffffffffffffff1661142e611a42565b73ffffffffffffffffffffffffffffffffffffffff167f17307eab39ab6107e8899845ad3d59bd9653f200f220920489ca2b5937696c31836040516114739190613a39565b60405180910390a35050565b611487611a42565b73ffffffffffffffffffffffffffffffffffffffff166114a5611128565b73ffffffffffffffffffffffffffffffffffffffff16146114fb576040517f08c379a00000000000000000000000000000000000000000000000000000000081526004016114f290613c71565b60405180910390fd5b80600c60006101000a81548173ffffffffffffffffffffffffffffffffffffffff021916908373ffffffffffffffffffffffffffffffffffffffff1602179055508073ffffffffffffffffffffffffffffffffffffffff167f66c44ed44539e6dc2bc1ea4e99d92ba5e32f155fdffb7918b6db51ceb2d2679b60405160405180910390a250565b61159361158d611a42565b83611b03565b6115d2576040517f08c379a00000000000000000000000000000000000000000000000000000000081526004016115c990613cd1565b60405180910390fd5b6115de84848484612268565b50505050565b606060006115f183611e3d565b6115fa846111e4565b611616600e600087815260200190815260200160002054611e3d565b6040516020016116289392919061387a565b6040516020818303038152906040529050600061164484611e3d565b604051602001611654919061393f565b6040516020818303038152906040529050600060405160200161167690613865565b604051602081830303815290604052905060006116bd8383611697876122c4565b6040516020016116a9939291906138e2565b6040516020818303038152906040526122c4565b9050806040516020016116d0919061396c565b604051602081830303815290604052935083945050505050919050565b6116f5611a42565b73ffffffffffffffffffffffffffffffffffffffff16611713611128565b73ffffffffffffffffffffffffffffffffffffffff1614611769576040517f08c379a000000000000000000000000000000000000000000000000000000000815260040161176090613c71565b60405180910390fd5b80600c60146101000a81548161ffff021916908361ffff1602179055507fbbd22b3a548d3c1db4a7e35148eba9ecd2834d9ba502855fd010e3f0a92d4c52600c60149054906101000a900461ffff166040516117c59190613d31565b60405180910390a150565b6000600560008473ffffffffffffffffffffffffffffffffffffffff1673ffffffffffffffffffffffffffffffffffffffff16815260200190815260200160002060008373ffffffffffffffffffffffffffffffffffffffff1673ffffffffffffffffffffffffffffffffffffffff16815260200190815260200160002060009054906101000a900460ff16905092915050565b61186c611a42565b73ffffffffffffffffffffffffffffffffffffffff1661188a611128565b73ffffffffffffffffffffffffffffffffffffffff16146118e0576040517f08c379a00000000000000000000000000000000000000000000000000000000081526004016118d790613c71565b60405180910390fd5b600073ffffffffffffffffffffffffffffffffffffffff168173ffffffffffffffffffffffffffffffffffffffff161415611950576040517f08c379a000000000000000000000000000000000000000000000000000000000815260040161194790613ad1565b60405180910390fd5b61195981612008565b50565b60007f780e9d63000000000000000000000000000000000000000000000000000000007bffffffffffffffffffffffffffffffffffffffffffffffffffffffff1916827bffffffffffffffffffffffffffffffffffffffffffffffffffffffff191614806119cf57506119ce82612482565b5b9050919050565b60008073ffffffffffffffffffffffffffffffffffffffff166002600084815260200190815260200160002060009054906101000a900473ffffffffffffffffffffffffffffffffffffffff1673ffffffffffffffffffffffffffffffffffffffff1614159050919050565b600033905090565b816004600083815260200190815260200160002060006101000a81548173ffffffffffffffffffffffffffffffffffffffff021916908373ffffffffffffffffffffffffffffffffffffffff160217905550808273ffffffffffffffffffffffffffffffffffffffff16611abd83610f1e565b73ffffffffffffffffffffffffffffffffffffffff167f8c5be1e5ebec7d5bd14f71427d1e84f3dd0314c0f7b2291e5b200ac8c7c3b92560405160405180910390a45050565b6000611b0e826119d6565b611b4d576040517f08c379a0000000000000000000000000000000000000000000000000000000008152600401611b4490613b51565b60405180910390fd5b6000611b5883610f1e565b90508073ffffffffffffffffffffffffffffffffffffffff168473ffffffffffffffffffffffffffffffffffffffff161480611bc757508373ffffffffffffffffffffffffffffffffffffffff16611baf84610793565b73ffffffffffffffffffffffffffffffffffffffff16145b80611bd85750611bd781856117d0565b5b91505092915050565b8273ffffffffffffffffffffffffffffffffffffffff16611c0182610f1e565b73ffffffffffffffffffffffffffffffffffffffff1614611c57576040517f08c379a0000000000000000000000000000000000000000000000000000000008152600401611c4e90613c91565b60405180910390fd5b600073ffffffffffffffffffffffffffffffffffffffff168273ffffffffffffffffffffffffffffffffffffffff161415611cc7576040517f08c379a0000000000000000000000000000000000000000000000000000000008152600401611cbe90613b11565b60405180910390fd5b611cd2838383612564565b611cdd600082611a4a565b6001600360008573ffffffffffffffffffffffffffffffffffffffff1673ffffffffffffffffffffffffffffffffffffffff1681526020019081526020016000206000828254611d2d9190613ee1565b925050819055506001600360008473ffffffffffffffffffffffffffffffffffffffff1673ffffffffffffffffffffffffffffffffffffffff1681526020019081526020016000206000828254611d849190613e00565b92505081905550816002600083815260200190815260200160002060006101000a81548173ffffffffffffffffffffffffffffffffffffffff021916908373ffffffffffffffffffffffffffffffffffffffff160217905550808273ffffffffffffffffffffffffffffffffffffffff168473ffffffffffffffffffffffffffffffffffffffff167fddf252ad1be2c89b69c2b068fc378daa952ba7f163c4a11628f55a4df523b3ef60405160405180910390a4505050565b60606000821415611e85576040518060400160405280600181526020017f30000000000000000000000000000000000000000000000000000000000000008152509050611fe5565b600082905060005b60008214611eb7578080611ea090614072565b915050600a82611eb09190613e56565b9150611e8d565b60008167ffffffffffffffff811115611ef9577f4e487b7100000000000000000000000000000000000000000000000000000000600052604160045260246000fd5b6040519080825280601f01601f191660200182016040528015611f2b5781602001600182028036833780820191505090505b5090505b60008514611fde57600182611f449190613ee1565b9150600a85611f5391906140bb565b6030611f5f9190613e00565b60f81b818381518110611f9b577f4e487b7100000000000000000000000000000000000000000000000000000000600052603260045260246000fd5b60200101907effffffffffffffffffffffffffffffffffffffffffffffffffffffffffffff1916908160001a905350600a85611fd79190613e56565b9450611f2f565b8093505050505b919050565b612004828260405180602001604052806000815250612574565b5050565b6000600b60009054906101000a900473ffffffffffffffffffffffffffffffffffffffff16905081600b60006101000a81548173ffffffffffffffffffffffffffffffffffffffff021916908373ffffffffffffffffffffffffffffffffffffffff1602179055508173ffffffffffffffffffffffffffffffffffffffff168173ffffffffffffffffffffffffffffffffffffffff167f8be0079c531659141344cd1fd0a4f28419497f9722a3daafe3b4186f6b6457e060405160405180910390a35050565b60606000612104846120df87611e3d565b6040516020016120f0929190613812565b6040516020818303038152906040526125cf565b905060008384518361211691906140bb565b8151811061214d577f4e487b7100000000000000000000000000000000000000000000000000000000600052603260045260246000fd5b602002602001015190506000601080805490508461216b91906140bb565b815481106121a2577f4e487b7100000000000000000000000000000000000000000000000000000000600052603260045260246000fd5b9060005260206000200180546121b79061400f565b80601f01602080910402602001604051908101604052809291908181526020018280546121e39061400f565b80156122305780601f1061220557610100808354040283529160200191612230565b820191906000526020600020905b81548152906001019060200180831161221357829003601f168201915b50505050509050808260405160200161224a929190613836565b60405160208183030381529060405291508193505050509392505050565b612273848484611be1565b61227f84848484612602565b6122be576040517f08c379a00000000000000000000000000000000000000000000000000000000081526004016122b590613ab1565b60405180910390fd5b50505050565b606060008251905060008114156122ed576040518060200160405280600081525091505061247d565b600060036002836122fe9190613e00565b6123089190613e56565b60046123149190613e87565b905060006020826123259190613e00565b67ffffffffffffffff811115612364577f4e487b7100000000000000000000000000000000000000000000000000000000600052604160045260246000fd5b6040519080825280601f01601f1916602001820160405280156123965781602001600182028036833780820191505090505b5090506000604051806060016040528060408152602001614c53604091399050600181016020830160005b8681101561243a5760038101905062ffffff818a015116603f8160121c168401518060081b905060ff603f83600c1c1686015116810190508060081b905060ff603f8360061c1686015116810190508060081b905060ff603f831686015116810190508060e01b905080845260048401935050506123c1565b50600386066001811461245457600281146124645761246f565b613d3d60f01b600283035261246f565b603d60f81b60018303525b508484525050819450505050505b919050565b60007f80ac58cd000000000000000000000000000000000000000000000000000000007bffffffffffffffffffffffffffffffffffffffffffffffffffffffff1916827bffffffffffffffffffffffffffffffffffffffffffffffffffffffff1916148061254d57507f5b5e139f000000000000000000000000000000000000000000000000000000007bffffffffffffffffffffffffffffffffffffffffffffffffffffffff1916827bffffffffffffffffffffffffffffffffffffffffffffffffffffffff1916145b8061255d575061255c82612799565b5b9050919050565b61256f838383612803565b505050565b61257e8383612917565b61258b6000848484612602565b6125ca576040517f08c379a00000000000000000000000000000000000000000000000000000000081526004016125c190613ab1565b60405180910390fd5b505050565b6000816040516020016125e291906137fb565b6040516020818303038152906040528051906020012060001c9050919050565b60006126238473ffffffffffffffffffffffffffffffffffffffff16612ae5565b1561278c578373ffffffffffffffffffffffffffffffffffffffff1663150b7a0261264c611a42565b8786866040518563ffffffff1660e01b815260040161266e94939291906139c4565b602060405180830381600087803b15801561268857600080fd5b505af19250505080156126b957506040513d601f19601f820116820180604052508101906126b691906131ba565b60015b61273c573d80600081146126e9576040519150601f19603f3d011682016040523d82523d6000602084013e6126ee565b606091505b50600081511415612734576040517f08c379a000000000000000000000000000000000000000000000000000000000815260040161272b90613ab1565b60405180910390fd5b805181602001fd5b63150b7a0260e01b7bffffffffffffffffffffffffffffffffffffffffffffffffffffffff1916817bffffffffffffffffffffffffffffffffffffffffffffffffffffffff191614915050612791565b600190505b949350505050565b60007f01ffc9a7000000000000000000000000000000000000000000000000000000007bffffffffffffffffffffffffffffffffffffffffffffffffffffffff1916827bffffffffffffffffffffffffffffffffffffffffffffffffffffffff1916149050919050565b61280e838383612af8565b600073ffffffffffffffffffffffffffffffffffffffff168373ffffffffffffffffffffffffffffffffffffffff1614156128515761284c81612afd565b612890565b8173ffffffffffffffffffffffffffffffffffffffff168373ffffffffffffffffffffffffffffffffffffffff161461288f5761288e8382612b46565b5b5b600073ffffffffffffffffffffffffffffffffffffffff168273ffffffffffffffffffffffffffffffffffffffff1614156128d3576128ce81612cb3565b612912565b8273ffffffffffffffffffffffffffffffffffffffff168273ffffffffffffffffffffffffffffffffffffffff1614612911576129108282612df6565b5b5b505050565b600073ffffffffffffffffffffffffffffffffffffffff168273ffffffffffffffffffffffffffffffffffffffff161415612987576040517f08c379a000000000000000000000000000000000000000000000000000000000815260040161297e90613c31565b60405180910390fd5b612990816119d6565b156129d0576040517f08c379a00000000000000000000000000000000000000000000000000000000081526004016129c790613af1565b60405180910390fd5b6129dc60008383612564565b6001600360008473ffffffffffffffffffffffffffffffffffffffff1673ffffffffffffffffffffffffffffffffffffffff1681526020019081526020016000206000828254612a2c9190613e00565b92505081905550816002600083815260200190815260200160002060006101000a81548173ffffffffffffffffffffffffffffffffffffffff021916908373ffffffffffffffffffffffffffffffffffffffff160217905550808273ffffffffffffffffffffffffffffffffffffffff16600073ffffffffffffffffffffffffffffffffffffffff167fddf252ad1be2c89b69c2b068fc378daa952ba7f163c4a11628f55a4df523b3ef60405160405180910390a45050565b600080823b905060008111915050919050565b505050565b600980549050600a600083815260200190815260200160002081905550600981908060018154018082558091505060019003906000526020600020016000909190919091505550565b60006001612b5384610fd0565b612b5d9190613ee1565b9050600060086000848152602001908152602001600020549050818114612c42576000600760008673ffffffffffffffffffffffffffffffffffffffff1673ffffffffffffffffffffffffffffffffffffffff168152602001908152602001600020600084815260200190815260200160002054905080600760008773ffffffffffffffffffffffffffffffffffffffff1673ffffffffffffffffffffffffffffffffffffffff168152602001908152602001600020600084815260200190815260200160002081905550816008600083815260200190815260200160002081905550505b6008600084815260200190815260200160002060009055600760008573ffffffffffffffffffffffffffffffffffffffff1673ffffffffffffffffffffffffffffffffffffffff16815260200190815260200160002060008381526020019081526020016000206000905550505050565b60006001600980549050612cc79190613ee1565b90506000600a6000848152602001908152602001600020549050600060098381548110612d1d577f4e487b7100000000000000000000000000000000000000000000000000000000600052603260045260246000fd5b906000526020600020015490508060098381548110612d65577f4e487b7100000000000000000000000000000000000000000000000000000000600052603260045260246000fd5b906000526020600020018190555081600a600083815260200190815260200160002081905550600a6000858152602001908152602001600020600090556009805480612dda577f4e487b7100000000000000000000000000000000000000000000000000000000600052603160045260246000fd5b6001900381819060005260206000200160009055905550505050565b6000612e0183610fd0565b905081600760008573ffffffffffffffffffffffffffffffffffffffff1673ffffffffffffffffffffffffffffffffffffffff168152602001908152602001600020600083815260200190815260200160002081905550806008600084815260200190815260200160002081905550505050565b6000612e88612e8384613d8c565b613d67565b905082815260208101848484011115612ea057600080fd5b612eab848285613fcd565b509392505050565b600081359050612ec281614bc8565b92915050565b600081519050612ed781614bc8565b92915050565b600081359050612eec81614bdf565b92915050565b600081359050612f0181614bf6565b92915050565b600081359050612f1681614c0d565b92915050565b600081519050612f2b81614c0d565b92915050565b600082601f830112612f4257600080fd5b8135612f52848260208601612e75565b91505092915050565b600081359050612f6a81614c24565b92915050565b600081359050612f7f81614c3b565b92915050565b600060208284031215612f9757600080fd5b6000612fa584828501612eb3565b91505092915050565b600060208284031215612fc057600080fd5b6000612fce84828501612edd565b91505092915050565b60008060408385031215612fea57600080fd5b6000612ff885828601612eb3565b925050602061300985828601612eb3565b9150509250929050565b6000806040838503121561302657600080fd5b600061303485828601612ec8565b925050602061304585828601612ec8565b9150509250929050565b60008060006060848603121561306457600080fd5b600061307286828701612eb3565b935050602061308386828701612eb3565b925050604061309486828701612f70565b9150509250925092565b600080600080608085870312156130b457600080fd5b60006130c287828801612eb3565b94505060206130d387828801612eb3565b93505060406130e487828801612f70565b925050606085013567ffffffffffffffff81111561310157600080fd5b61310d87828801612f31565b91505092959194509250565b6000806040838503121561312c57600080fd5b600061313a85828601612eb3565b925050602061314b85828601612ef2565b9150509250929050565b6000806040838503121561316857600080fd5b600061317685828601612eb3565b925050602061318785828601612f70565b9150509250929050565b6000602082840312156131a357600080fd5b60006131b184828501612f07565b91505092915050565b6000602082840312156131cc57600080fd5b60006131da84828501612f1c565b91505092915050565b6000602082840312156131f557600080fd5b600061320384828501612f5b565b91505092915050565b60006020828403121561321e57600080fd5b600061322c84828501612f70565b91505092915050565b61323e81613f27565b82525050565b61324d81613f15565b82525050565b61325c81613f39565b82525050565b600061326d82613dbd565b6132778185613dd3565b9350613287818560208601613fdc565b613290816141a8565b840191505092915050565b6132a481613fa9565b82525050565b60006132b582613dc8565b6132bf8185613de4565b93506132cf818560208601613fdc565b6132d8816141a8565b840191505092915050565b60006132ee82613dc8565b6132f88185613df5565b9350613308818560208601613fdc565b80840191505092915050565b6000613321602b83613de4565b915061332c826141b9565b604082019050919050565b6000613344603283613de4565b915061334f82614208565b604082019050919050565b6000613367602683613de4565b915061337282614257565b604082019050919050565b600061338a601c83613de4565b9150613395826142a6565b602082019050919050565b60006133ad602583613df5565b91506133b8826142cf565b602582019050919050565b60006133d060ce83613df5565b91506133db8261431e565b60ce82019050919050565b60006133f3600183613df5565b91506133fe8261442b565b600182019050919050565b6000613416602483613de4565b915061342182614454565b604082019050919050565b6000613439601983613de4565b9150613444826144a3565b602082019050919050565b600061345c602c83613de4565b9150613467826144cc565b604082019050919050565b600061347f600d83613df5565b915061348a8261451b565b600d82019050919050565b60006134a2601d83613de4565b91506134ad82614544565b602082019050919050565b60006134c5603883613de4565b91506134d08261456d565b604082019050919050565b60006134e8600183613df5565b91506134f3826145bc565b600182019050919050565b600061350b602e83613df5565b9150613516826145e5565b602e82019050919050565b600061352e602a83613de4565b915061353982614634565b604082019050919050565b6000613551602983613de4565b915061355c82614683565b604082019050919050565b6000613574601a83613de4565b915061357f826146d2565b602082019050919050565b6000613597600283613df5565b91506135a2826146fb565b600282019050919050565b60006135ba602b83613de4565b91506135c582614724565b604082019050919050565b60006135dd602083613de4565b91506135e882614773565b602082019050919050565b6000613600602c83613de4565b915061360b8261479c565b604082019050919050565b6000613623602083613de4565b915061362e826147eb565b602082019050919050565b6000613646600583613df5565b915061365182614814565b600582019050919050565b6000613669602983613de4565b91506136748261483d565b604082019050919050565b600061368c60fd83613df5565b91506136978261488c565b60fd82019050919050565b60006136af600183613df5565b91506136ba826149bf565b600182019050919050565b60006136d2601683613df5565b91506136dd826149e8565b601682019050919050565b60006136f5602183613de4565b915061370082614a11565b604082019050919050565b6000613718601d83613df5565b915061372382614a60565b601d82019050919050565b600061373b603183613de4565b915061374682614a89565b604082019050919050565b600061375e601283613df5565b915061376982614ad8565b601282019050919050565b6000613781602c83613de4565b915061378c82614b01565b604082019050919050565b60006137a4601f83613de4565b91506137af82614b50565b602082019050919050565b60006137c7603883613df5565b91506137d282614b79565b603882019050919050565b6137e681613f71565b82525050565b6137f581613f9f565b82525050565b600061380782846132e3565b915081905092915050565b600061381e82856132e3565b915061382a82846132e3565b91508190509392505050565b600061384282856132e3565b915061384d82613639565b915061385982846132e3565b91508190509392505050565b6000613870826133c3565b9150819050919050565b60006138858261367f565b915061389082613751565b915061389c82866132e3565b91506138a7826134fe565b91506138b382856132e3565b91506138be826137ba565b91506138ca82846132e3565b91506138d582613472565b9150819050949350505050565b60006138ed826136a2565b91506138f982866132e3565b9150613904826133e6565b915061391082856132e3565b915061391b826133a0565b915061392782846132e3565b91506139328261358a565b9150819050949350505050565b600061394a826136c5565b915061395682846132e3565b9150613961826134db565b915081905092915050565b60006139778261370b565b915061398382846132e3565b915081905092915050565b60006020820190506139a36000830184613244565b92915050565b60006020820190506139be6000830184613235565b92915050565b60006080820190506139d96000830187613244565b6139e66020830186613244565b6139f360408301856137ec565b8181036060830152613a058184613262565b905095945050505050565b6000604082019050613a256000830185613244565b613a3260208301846137ec565b9392505050565b6000602082019050613a4e6000830184613253565b92915050565b6000602082019050613a69600083018461329b565b92915050565b60006020820190508181036000830152613a8981846132aa565b905092915050565b60006020820190508181036000830152613aaa81613314565b9050919050565b60006020820190508181036000830152613aca81613337565b9050919050565b60006020820190508181036000830152613aea8161335a565b9050919050565b60006020820190508181036000830152613b0a8161337d565b9050919050565b60006020820190508181036000830152613b2a81613409565b9050919050565b60006020820190508181036000830152613b4a8161342c565b9050919050565b60006020820190508181036000830152613b6a8161344f565b9050919050565b60006020820190508181036000830152613b8a81613495565b9050919050565b60006020820190508181036000830152613baa816134b8565b9050919050565b60006020820190508181036000830152613bca81613521565b9050919050565b60006020820190508181036000830152613bea81613544565b9050919050565b60006020820190508181036000830152613c0a81613567565b9050919050565b60006020820190508181036000830152613c2a816135ad565b9050919050565b60006020820190508181036000830152613c4a816135d0565b9050919050565b60006020820190508181036000830152613c6a816135f3565b9050919050565b60006020820190508181036000830152613c8a81613616565b9050919050565b60006020820190508181036000830152613caa8161365c565b9050919050565b60006020820190508181036000830152613cca816136e8565b9050919050565b60006020820190508181036000830152613cea8161372e565b9050919050565b60006020820190508181036000830152613d0a81613774565b9050919050565b60006020820190508181036000830152613d2a81613797565b9050919050565b6000602082019050613d4660008301846137dd565b92915050565b6000602082019050613d6160008301846137ec565b92915050565b6000613d71613d82565b9050613d7d8282614041565b919050565b6000604051905090565b600067ffffffffffffffff821115613da757613da6614179565b5b613db0826141a8565b9050602081019050919050565b600081519050919050565b600081519050919050565b600082825260208201905092915050565b600082825260208201905092915050565b600081905092915050565b6000613e0b82613f9f565b9150613e1683613f9f565b9250827fffffffffffffffffffffffffffffffffffffffffffffffffffffffffffffffff03821115613e4b57613e4a6140ec565b5b828201905092915050565b6000613e6182613f9f565b9150613e6c83613f9f565b925082613e7c57613e7b61411b565b5b828204905092915050565b6000613e9282613f9f565b9150613e9d83613f9f565b9250817fffffffffffffffffffffffffffffffffffffffffffffffffffffffffffffffff0483118215151615613ed657613ed56140ec565b5b828202905092915050565b6000613eec82613f9f565b9150613ef783613f9f565b925082821015613f0a57613f096140ec565b5b828203905092915050565b6000613f2082613f7f565b9050919050565b6000613f3282613f7f565b9050919050565b60008115159050919050565b60007fffffffff0000000000000000000000000000000000000000000000000000000082169050919050565b600061ffff82169050919050565b600073ffffffffffffffffffffffffffffffffffffffff82169050919050565b6000819050919050565b6000613fb482613fbb565b9050919050565b6000613fc682613f7f565b9050919050565b82818337600083830152505050565b60005b83811015613ffa578082015181840152602081019050613fdf565b83811115614009576000848401525b50505050565b6000600282049050600182168061402757607f821691505b6020821081141561403b5761403a61414a565b5b50919050565b61404a826141a8565b810181811067ffffffffffffffff8211171561406957614068614179565b5b80604052505050565b600061407d82613f9f565b91507fffffffffffffffffffffffffffffffffffffffffffffffffffffffffffffffff8214156140b0576140af6140ec565b5b600182019050919050565b60006140c682613f9f565b91506140d183613f9f565b9250826140e1576140e061411b565b5b828206905092915050565b7f4e487b7100000000000000000000000000000000000000000000000000000000600052601160045260246000fd5b7f4e487b7100000000000000000000000000000000000000000000000000000000600052601260045260246000fd5b7f4e487b7100000000000000000000000000000000000000000000000000000000600052602260045260246000fd5b7f4e487b7100000000000000000000000000000000000000000000000000000000600052604160045260246000fd5b6000601f19601f8301169050919050565b7f455243373231456e756d657261626c653a206f776e657220696e646578206f7560008201527f74206f6620626f756e6473000000000000000000000000000000000000000000602082015250565b7f4552433732313a207472616e7366657220746f206e6f6e20455243373231526560008201527f63656976657220696d706c656d656e7465720000000000000000000000000000602082015250565b7f4f776e61626c653a206e6577206f776e657220697320746865207a65726f206160008201527f6464726573730000000000000000000000000000000000000000000000000000602082015250565b7f4552433732313a20746f6b656e20616c7265616479206d696e74656400000000600082015250565b7f2c22696d616765223a2022646174613a696d6167652f7376672b786d6c3b626160008201527f736536342c000000000000000000000000000000000000000000000000000000602082015250565b7f226465736372697074696f6e223a2022506562626c65204c6f6f74206973206160008201527f207265616c20776f726c6420646174612073746f726564206f6e20636861696e60208201527f2e2053746174732c20696d616765732c20616e64206f746865722066756e637460408201527f696f6e616c6974792061726520696e74656e74696f6e616c6c79206f6d69747460608201527f656420666f72206f746865727320746f20696e746572707265742e204665656c60808201527f206672656520746f2075736520506562626c65204c6f6f7420696e20616e792060a08201527f77617920796f752077616e742e2200000000000000000000000000000000000060c082015250565b7f2c00000000000000000000000000000000000000000000000000000000000000600082015250565b7f4552433732313a207472616e7366657220746f20746865207a65726f2061646460008201527f7265737300000000000000000000000000000000000000000000000000000000602082015250565b7f4552433732313a20617070726f766520746f2063616c6c657200000000000000600082015250565b7f4552433732313a206f70657261746f7220717565727920666f72206e6f6e657860008201527f697374656e7420746f6b656e0000000000000000000000000000000000000000602082015250565b7f3c2f746578743e3c2f7376673e00000000000000000000000000000000000000600082015250565b7f436c61696d3a206e6f7420656e6f756768206d696e74696e6720666565000000600082015250565b7f4552433732313a20617070726f76652063616c6c6572206973206e6f74206f7760008201527f6e6572206e6f7220617070726f76656420666f7220616c6c0000000000000000602082015250565b7f2200000000000000000000000000000000000000000000000000000000000000600082015250565b7f3c2f746578743e3c7465787420783d2231302220793d2236302220636c61737360008201527f3d2262617365223e736b696e3a20000000000000000000000000000000000000602082015250565b7f4552433732313a2062616c616e636520717565727920666f7220746865207a6560008201527f726f206164647265737300000000000000000000000000000000000000000000602082015250565b7f4552433732313a206f776e657220717565727920666f72206e6f6e657869737460008201527f656e7420746f6b656e0000000000000000000000000000000000000000000000602082015250565b7f436c61696d3a20546f6b656e20494420697320696e76616c6964000000000000600082015250565b7f227d000000000000000000000000000000000000000000000000000000000000600082015250565b7f596f752073686f756c64206f776e207468652064657669636520746f206d696e60008201527f742074686973206c6f6f74000000000000000000000000000000000000000000602082015250565b7f4552433732313a206d696e7420746f20746865207a65726f2061646472657373600082015250565b7f4552433732313a20617070726f76656420717565727920666f72206e6f6e657860008201527f697374656e7420746f6b656e0000000000000000000000000000000000000000602082015250565b7f4f776e61626c653a2063616c6c6572206973206e6f7420746865206f776e6572600082015250565b7f20726f626f000000000000000000000000000000000000000000000000000000600082015250565b7f4552433732313a207472616e73666572206f6620746f6b656e2074686174206960008201527f73206e6f74206f776e0000000000000000000000000000000000000000000000602082015250565b7f3c73766720786d6c6e733d22687474703a2f2f7777772e77332e6f72672f323060008201527f30302f73766722207072657365727665417370656374526174696f3d22784d6960208201527f6e594d696e206d656574222076696577426f783d22302030203335302033353060408201527f223e3c7374796c653e2e62617365207b2066696c6c3a2077686974653b20666f60608201527f6e742d66616d696c793a2073657269663b20666f6e742d73697a653a2032327060808201527f783b207d3c2f7374796c653e3c726563742077696474683d223130302522206860a08201527f65696768743d2231303025222066696c6c3d22626c61636b22202f3e3c74657860c08201527f7420783d2231302220793d2233302220636c6173733d2262617365223e00000060e082015250565b7f7b00000000000000000000000000000000000000000000000000000000000000600082015250565b7f226e616d65223a2022506562626c6520494d4549202300000000000000000000600082015250565b7f4552433732313a20617070726f76616c20746f2063757272656e74206f776e6560008201527f7200000000000000000000000000000000000000000000000000000000000000602082015250565b7f646174613a6170706c69636174696f6e2f6a736f6e3b6261736536342c000000600082015250565b7f4552433732313a207472616e736665722063616c6c6572206973206e6f74206f60008201527f776e6572206e6f7220617070726f766564000000000000000000000000000000602082015250565b7f706562626c6520736f756c20f09f91bb20230000000000000000000000000000600082015250565b7f455243373231456e756d657261626c653a20676c6f62616c20696e646578206f60008201527f7574206f6620626f756e64730000000000000000000000000000000000000000602082015250565b7f5265656e7472616e637947756172643a207265656e7472616e742063616c6c00600082015250565b7f3c2f746578743e3c7465787420783d2231302220793d2239302220636c61737360008201527f3d2262617365223e6177616b656e20617420626c6f636b200000000000000000602082015250565b614bd181613f15565b8114614bdc57600080fd5b50565b614be881613f27565b8114614bf357600080fd5b50565b614bff81613f39565b8114614c0a57600080fd5b50565b614c1681613f45565b8114614c2157600080fd5b50565b614c2d81613f71565b8114614c3857600080fd5b50565b614c4481613f9f565b8114614c4f57600080fd5b5056fe4142434445464748494a4b4c4d4e4f505152535455565758595a6162636465666768696a6b6c6d6e6f707172737475767778797a303132333435363738392b2fa264697066735822122077095e610dad7437d9729f846540d7a8ff9581d1eae60dd51837253f56de7e8964736f6c63430008040033",
  "linkReferences": {},
  "deployedLinkReferences": {}
}