{
  "_format": "hh-sol-artifact-1",
  "contractName": "PebbleLoot",
  "sourceName": "contracts/PebbleLoot.sol",
  "abi": [
    {
      "inputs": [
        {
          "internalType": "string",
          "name": "_name",
          "type": "string"
        },
        {
          "internalType": "string",
          "name": "_symbol",
          "type": "string"
        },
        {
          "internalType": "address",
          "name": "_registration",
          "type": "address"
        },
        {
          "internalType": "uint16",
          "name": "_mintingFee",
          "type": "uint16"
        },
        {
          "internalType": "address payable",
          "name": "_feeReceipient",
          "type": "address"
        }
      ],
      "stateMutability": "nonpayable",
      "type": "constructor"
    },
    {
      "anonymous": false,
      "inputs": [
        {
          "indexed": true,
          "internalType": "address",
          "name": "owner",
          "type": "address"
        },
        {
          "indexed": true,
          "internalType": "address",
          "name": "approved",
          "type": "address"
        },
        {
          "indexed": true,
          "internalType": "uint256",
          "name": "tokenId",
          "type": "uint256"
        }
      ],
      "name": "Approval",
      "type": "event"
    },
    {
      "anonymous": false,
      "inputs": [
        {
          "indexed": true,
          "internalType": "address",
          "name": "owner",
          "type": "address"
        },
        {
          "indexed": true,
          "internalType": "address",
          "name": "operator",
          "type": "address"
        },
        {
          "indexed": false,
          "internalType": "bool",
          "name": "approved",
          "type": "bool"
        }
      ],
      "name": "ApprovalForAll",
      "type": "event"
    },
    {
      "anonymous": false,
      "inputs": [
        {
          "indexed": true,
          "internalType": "address",
          "name": "feeReceipient",
          "type": "address"
        }
      ],
      "name": "FeeReceipientUpdated",
      "type": "event"
    },
    {
      "anonymous": false,
      "inputs": [
        {
          "indexed": false,
          "internalType": "uint16",
          "name": "mintingFee",
          "type": "uint16"
        }
      ],
      "name": "MintingFeeUpdated",
      "type": "event"
    },
    {
      "anonymous": false,
      "inputs": [
        {
          "indexed": true,
          "internalType": "address",
          "name": "previousOwner",
          "type": "address"
        },
        {
          "indexed": true,
          "internalType": "address",
          "name": "newOwner",
          "type": "address"
        }
      ],
      "name": "OwnershipTransferred",
      "type": "event"
    },
    {
      "anonymous": false,
      "inputs": [
        {
          "indexed": true,
          "internalType": "address",
          "name": "registration",
          "type": "address"
        }
      ],
      "name": "RegistrationUpdated",
      "type": "event"
    },
    {
      "anonymous": false,
      "inputs": [
        {
          "indexed": false,
          "internalType": "address",
          "name": "owner",
          "type": "address"
        },
        {
          "indexed": false,
          "internalType": "uint256",
          "name": "tokenId",
          "type": "uint256"
        }
      ],
      "name": "TokenMinted",
      "type": "event"
    },
    {
      "anonymous": false,
      "inputs": [
        {
          "indexed": true,
          "internalType": "address",
          "name": "from",
          "type": "address"
        },
        {
          "indexed": true,
          "internalType": "address",
          "name": "to",
          "type": "address"
        },
        {
          "indexed": true,
          "internalType": "uint256",
          "name": "tokenId",
          "type": "uint256"
        }
      ],
      "name": "Transfer",
      "type": "event"
    },
    {
      "inputs": [
        {
          "internalType": "address",
          "name": "to",
          "type": "address"
        },
        {
          "internalType": "uint256",
          "name": "tokenId",
          "type": "uint256"
        }
      ],
      "name": "approve",
      "outputs": [],
      "stateMutability": "nonpayable",
      "type": "function"
    },
    {
      "inputs": [
        {
          "internalType": "address",
          "name": "owner",
          "type": "address"
        }
      ],
      "name": "balanceOf",
      "outputs": [
        {
          "internalType": "uint256",
          "name": "",
          "type": "uint256"
        }
      ],
      "stateMutability": "view",
      "type": "function"
    },
    {
      "inputs": [
        {
          "internalType": "uint256",
          "name": "tokenId",
          "type": "uint256"
        }
      ],
      "name": "claim",
      "outputs": [],
      "stateMutability": "nonpayable",
      "type": "function"
    },
    {
      "inputs": [],
      "name": "feeReceipient",
      "outputs": [
        {
          "internalType": "address payable",
          "name": "",
          "type": "address"
        }
      ],
      "stateMutability": "view",
      "type": "function"
    },
    {
      "inputs": [
        {
          "internalType": "uint256",
          "name": "tokenId",
          "type": "uint256"
        }
      ],
      "name": "getApproved",
      "outputs": [
        {
          "internalType": "address",
          "name": "",
          "type": "address"
        }
      ],
      "stateMutability": "view",
      "type": "function"
    },
    {
      "inputs": [
        {
          "internalType": "address",
          "name": "owner",
          "type": "address"
        },
        {
          "internalType": "address",
          "name": "operator",
          "type": "address"
        }
      ],
      "name": "isApprovedForAll",
      "outputs": [
        {
          "internalType": "bool",
          "name": "",
          "type": "bool"
        }
      ],
      "stateMutability": "view",
      "type": "function"
    },
    {
      "inputs": [],
      "name": "mintingFee",
      "outputs": [
        {
          "internalType": "uint16",
          "name": "",
          "type": "uint16"
        }
      ],
      "stateMutability": "view",
      "type": "function"
    },
    {
      "inputs": [],
      "name": "name",
      "outputs": [
        {
          "internalType": "string",
          "name": "",
          "type": "string"
        }
      ],
      "stateMutability": "view",
      "type": "function"
    },
    {
      "inputs": [],
      "name": "owner",
      "outputs": [
        {
          "internalType": "address",
          "name": "",
          "type": "address"
        }
      ],
      "stateMutability": "view",
      "type": "function"
    },
    {
      "inputs": [
        {
          "internalType": "uint256",
          "name": "tokenId",
          "type": "uint256"
        }
      ],
      "name": "ownerOf",
      "outputs": [
        {
          "internalType": "address",
          "name": "",
          "type": "address"
        }
      ],
      "stateMutability": "view",
      "type": "function"
    },
    {
      "inputs": [],
      "name": "registration",
      "outputs": [
        {
          "internalType": "contract IRegistration",
          "name": "",
          "type": "address"
        }
      ],
      "stateMutability": "view",
      "type": "function"
    },
    {
      "inputs": [],
      "name": "renounceOwnership",
      "outputs": [],
      "stateMutability": "nonpayable",
      "type": "function"
    },
    {
      "inputs": [
        {
          "internalType": "address",
          "name": "from",
          "type": "address"
        },
        {
          "internalType": "address",
          "name": "to",
          "type": "address"
        },
        {
          "internalType": "uint256",
          "name": "tokenId",
          "type": "uint256"
        }
      ],
      "name": "safeTransferFrom",
      "outputs": [],
      "stateMutability": "nonpayable",
      "type": "function"
    },
    {
      "inputs": [
        {
          "internalType": "address",
          "name": "from",
          "type": "address"
        },
        {
          "internalType": "address",
          "name": "to",
          "type": "address"
        },
        {
          "internalType": "uint256",
          "name": "tokenId",
          "type": "uint256"
        },
        {
          "internalType": "bytes",
          "name": "_data",
          "type": "bytes"
        }
      ],
      "name": "safeTransferFrom",
      "outputs": [],
      "stateMutability": "nonpayable",
      "type": "function"
    },
    {
      "inputs": [
        {
          "internalType": "address",
          "name": "operator",
          "type": "address"
        },
        {
          "internalType": "bool",
          "name": "approved",
          "type": "bool"
        }
      ],
      "name": "setApprovalForAll",
      "outputs": [],
      "stateMutability": "nonpayable",
      "type": "function"
    },
    {
      "inputs": [
        {
          "internalType": "bytes4",
          "name": "interfaceId",
          "type": "bytes4"
        }
      ],
      "name": "supportsInterface",
      "outputs": [
        {
          "internalType": "bool",
          "name": "",
          "type": "bool"
        }
      ],
      "stateMutability": "view",
      "type": "function"
    },
    {
      "inputs": [],
      "name": "symbol",
      "outputs": [
        {
          "internalType": "string",
          "name": "",
          "type": "string"
        }
      ],
      "stateMutability": "view",
      "type": "function"
    },
    {
      "inputs": [
        {
          "internalType": "uint256",
          "name": "tokenId",
          "type": "uint256"
        }
      ],
      "name": "tokenURI",
      "outputs": [
        {
          "internalType": "string",
          "name": "",
          "type": "string"
        }
      ],
      "stateMutability": "pure",
      "type": "function"
    },
    {
      "inputs": [
        {
          "internalType": "address",
          "name": "from",
          "type": "address"
        },
        {
          "internalType": "address",
          "name": "to",
          "type": "address"
        },
        {
          "internalType": "uint256",
          "name": "tokenId",
          "type": "uint256"
        }
      ],
      "name": "transferFrom",
      "outputs": [],
      "stateMutability": "nonpayable",
      "type": "function"
    },
    {
      "inputs": [
        {
          "internalType": "address",
          "name": "newOwner",
          "type": "address"
        }
      ],
      "name": "transferOwnership",
      "outputs": [],
      "stateMutability": "nonpayable",
      "type": "function"
    },
    {
      "inputs": [
        {
          "internalType": "address payable",
          "name": "_feeReceipient",
          "type": "address"
        }
      ],
      "name": "updateFeeReceipient",
      "outputs": [],
      "stateMutability": "nonpayable",
      "type": "function"
    },
    {
      "inputs": [
        {
          "internalType": "uint16",
          "name": "_mintingFee",
          "type": "uint16"
        }
      ],
      "name": "updateMintingFee",
      "outputs": [],
      "stateMutability": "nonpayable",
      "type": "function"
    },
    {
      "inputs": [
        {
          "internalType": "address",
          "name": "_registration",
          "type": "address"
        }
      ],
      "name": "updateRegistration",
      "outputs": [],
      "stateMutability": "nonpayable",
      "type": "function"
    }
  ],
  "bytecode": "0x60806040523480156200001157600080fd5b50604051620044a7380380620044a7833981810160405281019062000037919062000374565b84848160009080519060200190620000519291906200020d565b5080600190805190602001906200006a9291906200020d565b505050600160068190555062000095620000896200013f60201b60201c565b6200014760201b60201c565b82600860006101000a81548173ffffffffffffffffffffffffffffffffffffffff021916908373ffffffffffffffffffffffffffffffffffffffff16021790555081600860146101000a81548161ffff021916908361ffff16021790555080600960006101000a81548173ffffffffffffffffffffffffffffffffffffffff021916908373ffffffffffffffffffffffffffffffffffffffff16021790555050505050506200063c565b600033905090565b6000600760009054906101000a900473ffffffffffffffffffffffffffffffffffffffff16905081600760006101000a81548173ffffffffffffffffffffffffffffffffffffffff021916908373ffffffffffffffffffffffffffffffffffffffff1602179055508173ffffffffffffffffffffffffffffffffffffffff168173ffffffffffffffffffffffffffffffffffffffff167f8be0079c531659141344cd1fd0a4f28419497f9722a3daafe3b4186f6b6457e060405160405180910390a35050565b8280546200021b9062000513565b90600052602060002090601f0160209004810192826200023f57600085556200028b565b82601f106200025a57805160ff19168380011785556200028b565b828001600101855582156200028b579182015b828111156200028a5782518255916020019190600101906200026d565b5b5090506200029a91906200029e565b5090565b5b80821115620002b95760008160009055506001016200029f565b5090565b6000620002d4620002ce8462000451565b62000428565b905082815260208101848484011115620002ed57600080fd5b620002fa848285620004dd565b509392505050565b6000815190506200031381620005ee565b92915050565b6000815190506200032a8162000608565b92915050565b600082601f8301126200034257600080fd5b815162000354848260208601620002bd565b91505092915050565b6000815190506200036e8162000622565b92915050565b600080600080600060a086880312156200038d57600080fd5b600086015167ffffffffffffffff811115620003a857600080fd5b620003b68882890162000330565b955050602086015167ffffffffffffffff811115620003d457600080fd5b620003e28882890162000330565b9450506040620003f58882890162000302565b935050606062000408888289016200035d565b92505060806200041b8882890162000319565b9150509295509295909350565b60006200043462000447565b905062000442828262000549565b919050565b6000604051905090565b600067ffffffffffffffff8211156200046f576200046e620005ae565b5b6200047a82620005dd565b9050602081019050919050565b60006200049482620004bd565b9050919050565b6000620004a882620004bd565b9050919050565b600061ffff82169050919050565b600073ffffffffffffffffffffffffffffffffffffffff82169050919050565b60005b83811015620004fd578082015181840152602081019050620004e0565b838111156200050d576000848401525b50505050565b600060028204905060018216806200052c57607f821691505b602082108114156200054357620005426200057f565b5b50919050565b6200055482620005dd565b810181811067ffffffffffffffff82111715620005765762000575620005ae565b5b80604052505050565b7f4e487b7100000000000000000000000000000000000000000000000000000000600052602260045260246000fd5b7f4e487b7100000000000000000000000000000000000000000000000000000000600052604160045260246000fd5b6000601f19601f8301169050919050565b620005f98162000487565b81146200060557600080fd5b50565b62000613816200049b565b81146200061f57600080fd5b50565b6200062d81620004af565b81146200063957600080fd5b50565b613e5b806200064c6000396000f3fe608060405234801561001057600080fd5b506004361061014d5760003560e01c80636352211e116100c3578063b244182f1161007c578063b244182f14610378578063b88d4fde14610394578063c87b56dd146103b0578063e2fe652b146103e0578063e985e9c5146103fc578063f2fde38b1461042c5761014d565b80636352211e146102b657806370a08231146102e6578063715018a6146103165780638da5cb5b1461032057806395d89b411461033e578063a22cb4651461035c5761014d565b80633740ebb3116101155780633740ebb314610208578063379607f51461022657806342842e0e14610242578063443bd1d01461025e5780635a64ad951461027c5780635c42690a1461029a5761014d565b806301ffc9a71461015257806306fdde0314610182578063081812fc146101a0578063095ea7b3146101d057806323b872dd146101ec575b600080fd5b61016c60048036038101906101679190612708565b610448565b6040516101799190612e19565b60405180910390f35b61018a61052a565b6040516101979190612e4f565b60405180910390f35b6101ba60048036038101906101b59190612783565b6105bc565b6040516101c79190612d6e565b60405180910390f35b6101ea60048036038101906101e591906126cc565b610641565b005b610206600480360381019061020191906125c6565b610759565b005b6102106107b9565b60405161021d9190612d89565b60405180910390f35b610240600480360381019061023b9190612783565b6107df565b005b61025c600480360381019061025791906125c6565b610a10565b005b610266610a30565b6040516102739190612e34565b60405180910390f35b610284610a56565b60405161029191906130b1565b60405180910390f35b6102b460048036038101906102af9190612525565b610a6a565b005b6102d060048036038101906102cb9190612783565b610b8f565b6040516102dd9190612d6e565b60405180910390f35b61030060048036038101906102fb91906124fc565b610c41565b60405161030d91906130cc565b60405180910390f35b61031e610cf9565b005b610328610d81565b6040516103359190612d6e565b60405180910390f35b610346610dab565b6040516103539190612e4f565b60405180910390f35b61037660048036038101906103719190612690565b610e3d565b005b610392600480360381019061038d91906124fc565b610fbe565b005b6103ae60048036038101906103a99190612615565b6110c1565b005b6103ca60048036038101906103c59190612783565b611123565b6040516103d79190612e4f565b60405180910390f35b6103fa60048036038101906103f5919061275a565b611402565b005b6104166004803603810190610411919061254e565b6114e5565b6040516104239190612e19565b60405180910390f35b610446600480360381019061044191906124fc565b611579565b005b60007f80ac58cd000000000000000000000000000000000000000000000000000000007bffffffffffffffffffffffffffffffffffffffffffffffffffffffff1916827bffffffffffffffffffffffffffffffffffffffffffffffffffffffff1916148061051357507f5b5e139f000000000000000000000000000000000000000000000000000000007bffffffffffffffffffffffffffffffffffffffffffffffffffffffff1916827bffffffffffffffffffffffffffffffffffffffffffffffffffffffff1916145b80610523575061052282611671565b5b9050919050565b6060600080546105399061338f565b80601f01602080910402602001604051908101604052809291908181526020018280546105659061338f565b80156105b25780601f10610587576101008083540402835291602001916105b2565b820191906000526020600020905b81548152906001019060200180831161059557829003601f168201915b5050505050905090565b60006105c7826116db565b610606576040517f08c379a00000000000000000000000000000000000000000000000000000000081526004016105fd90612ff1565b60405180910390fd5b6004600083815260200190815260200160002060009054906101000a900473ffffffffffffffffffffffffffffffffffffffff169050919050565b600061064c82610b8f565b90508073ffffffffffffffffffffffffffffffffffffffff168373ffffffffffffffffffffffffffffffffffffffff1614156106bd576040517f08c379a00000000000000000000000000000000000000000000000000000000081526004016106b490613051565b60405180910390fd5b8073ffffffffffffffffffffffffffffffffffffffff166106dc611747565b73ffffffffffffffffffffffffffffffffffffffff16148061070b575061070a81610705611747565b6114e5565b5b61074a576040517f08c379a000000000000000000000000000000000000000000000000000000000815260040161074190612f31565b60405180910390fd5b610754838361174f565b505050565b61076a610764611747565b82611808565b6107a9576040517f08c379a00000000000000000000000000000000000000000000000000000000081526004016107a090613071565b60405180910390fd5b6107b48383836118e6565b505050565b600960009054906101000a900473ffffffffffffffffffffffffffffffffffffffff1681565b60026006541415610825576040517f08c379a000000000000000000000000000000000000000000000000000000000815260040161081c90613091565b60405180910390fd5b6002600681905550655af3107a3fff81118015610848575066038d7ea4c6800081105b610887576040517f08c379a000000000000000000000000000000000000000000000000000000000815260040161087e90612f91565b60405180910390fd5b6000600860009054906101000a900473ffffffffffffffffffffffffffffffffffffffff1673ffffffffffffffffffffffffffffffffffffffff166382b7b5006108d084611b42565b6040518263ffffffff1660e01b81526004016108ec9190612e4f565b604080518083038186803b15801561090357600080fd5b505afa158015610917573d6000803e3d6000fd5b505050506040513d601f19601f8201168201806040525081019061093b919061258a565b9150508073ffffffffffffffffffffffffffffffffffffffff1661095d611747565b73ffffffffffffffffffffffffffffffffffffffff16146109b3576040517f08c379a00000000000000000000000000000000000000000000000000000000081526004016109aa90612fb1565b60405180910390fd5b6109c46109be611747565b83611cef565b7fb9144c96c86541f6fa89c9f2f02495cccf4b08cd6643e26d34ee00aa586558a86109ed611747565b836040516109fc929190612df0565b60405180910390a150600160068190555050565b610a2b838383604051806020016040528060008152506110c1565b505050565b600860009054906101000a900473ffffffffffffffffffffffffffffffffffffffff1681565b600860149054906101000a900461ffff1681565b610a72611747565b73ffffffffffffffffffffffffffffffffffffffff16610a90610d81565b73ffffffffffffffffffffffffffffffffffffffff1614610ae6576040517f08c379a0000000000000000000000000000000000000000000000000000000008152600401610add90613011565b60405180910390fd5b80600960006101000a81548173ffffffffffffffffffffffffffffffffffffffff021916908373ffffffffffffffffffffffffffffffffffffffff160217905550600960009054906101000a900473ffffffffffffffffffffffffffffffffffffffff1673ffffffffffffffffffffffffffffffffffffffff167f4e8038c85ccd41777ff692b6d98418aa13b143d93efc1299f794a9f646bc64d460405160405180910390a250565b6000806002600084815260200190815260200160002060009054906101000a900473ffffffffffffffffffffffffffffffffffffffff169050600073ffffffffffffffffffffffffffffffffffffffff168173ffffffffffffffffffffffffffffffffffffffff161415610c38576040517f08c379a0000000000000000000000000000000000000000000000000000000008152600401610c2f90612f71565b60405180910390fd5b80915050919050565b60008073ffffffffffffffffffffffffffffffffffffffff168273ffffffffffffffffffffffffffffffffffffffff161415610cb2576040517f08c379a0000000000000000000000000000000000000000000000000000000008152600401610ca990612f51565b60405180910390fd5b600360008373ffffffffffffffffffffffffffffffffffffffff1673ffffffffffffffffffffffffffffffffffffffff168152602001908152602001600020549050919050565b610d01611747565b73ffffffffffffffffffffffffffffffffffffffff16610d1f610d81565b73ffffffffffffffffffffffffffffffffffffffff1614610d75576040517f08c379a0000000000000000000000000000000000000000000000000000000008152600401610d6c90613011565b60405180910390fd5b610d7f6000611d0d565b565b6000600760009054906101000a900473ffffffffffffffffffffffffffffffffffffffff16905090565b606060018054610dba9061338f565b80601f0160208091040260200160405190810160405280929190818152602001828054610de69061338f565b8015610e335780601f10610e0857610100808354040283529160200191610e33565b820191906000526020600020905b815481529060010190602001808311610e1657829003601f168201915b5050505050905090565b610e45611747565b73ffffffffffffffffffffffffffffffffffffffff168273ffffffffffffffffffffffffffffffffffffffff161415610eb3576040517f08c379a0000000000000000000000000000000000000000000000000000000008152600401610eaa90612ef1565b60405180910390fd5b8060056000610ec0611747565b73ffffffffffffffffffffffffffffffffffffffff1673ffffffffffffffffffffffffffffffffffffffff16815260200190815260200160002060008473ffffffffffffffffffffffffffffffffffffffff1673ffffffffffffffffffffffffffffffffffffffff16815260200190815260200160002060006101000a81548160ff0219169083151502179055508173ffffffffffffffffffffffffffffffffffffffff16610f6d611747565b73ffffffffffffffffffffffffffffffffffffffff167f17307eab39ab6107e8899845ad3d59bd9653f200f220920489ca2b5937696c3183604051610fb29190612e19565b60405180910390a35050565b610fc6611747565b73ffffffffffffffffffffffffffffffffffffffff16610fe4610d81565b73ffffffffffffffffffffffffffffffffffffffff161461103a576040517f08c379a000000000000000000000000000000000000000000000000000000000815260040161103190613011565b60405180910390fd5b80600860006101000a81548173ffffffffffffffffffffffffffffffffffffffff021916908373ffffffffffffffffffffffffffffffffffffffff1602179055508073ffffffffffffffffffffffffffffffffffffffff167f66c44ed44539e6dc2bc1ea4e99d92ba5e32f155fdffb7918b6db51ceb2d2679b60405160405180910390a250565b6110d26110cc611747565b83611808565b611111576040517f08c379a000000000000000000000000000000000000000000000000000000000815260040161110890613071565b60405180910390fd5b61111d84848484611dd3565b50505050565b606061112d6123c5565b60405180610120016040528060fd8152602001613ce960fd913981600060038110611181577f4e487b7100000000000000000000000000000000000000000000000000000000600052603260045260246000fd5b602002018190525061119283611b42565b6040516020016111a29190612d4c565b604051602081830303815290604052816001600381106111eb577f4e487b7100000000000000000000000000000000000000000000000000000000600052603260045260246000fd5b60200201819052506040518060400160405280600d81526020017f3c2f746578743e3c2f7376673e0000000000000000000000000000000000000081525081600260038110611263577f4e487b7100000000000000000000000000000000000000000000000000000000600052603260045260246000fd5b60200201819052506000816000600381106112a7577f4e487b7100000000000000000000000000000000000000000000000000000000600052603260045260246000fd5b6020020151826001600381106112e6577f4e487b7100000000000000000000000000000000000000000000000000000000600052603260045260246000fd5b602002015183600260038110611325577f4e487b7100000000000000000000000000000000000000000000000000000000600052603260045260246000fd5b602002015160405160200161133c93929190612c5a565b6040516020818303038152906040529050600061135885611b42565b6040516020016113689190612d1f565b6040516020818303038152906040529050600060405160200161138a90612c8b565b604051602081830303815290604052905060006113d183836113ab87611e2f565b6040516020016113bd93929190612ca0565b604051602081830303815290604052611e2f565b9050806040516020016113e49190612cfd565b60405160208183030381529060405293508395505050505050919050565b61140a611747565b73ffffffffffffffffffffffffffffffffffffffff16611428610d81565b73ffffffffffffffffffffffffffffffffffffffff161461147e576040517f08c379a000000000000000000000000000000000000000000000000000000000815260040161147590613011565b60405180910390fd5b80600860146101000a81548161ffff021916908361ffff1602179055507fbbd22b3a548d3c1db4a7e35148eba9ecd2834d9ba502855fd010e3f0a92d4c52600860149054906101000a900461ffff166040516114da91906130b1565b60405180910390a150565b6000600560008473ffffffffffffffffffffffffffffffffffffffff1673ffffffffffffffffffffffffffffffffffffffff16815260200190815260200160002060008373ffffffffffffffffffffffffffffffffffffffff1673ffffffffffffffffffffffffffffffffffffffff16815260200190815260200160002060009054906101000a900460ff16905092915050565b611581611747565b73ffffffffffffffffffffffffffffffffffffffff1661159f610d81565b73ffffffffffffffffffffffffffffffffffffffff16146115f5576040517f08c379a00000000000000000000000000000000000000000000000000000000081526004016115ec90613011565b60405180910390fd5b600073ffffffffffffffffffffffffffffffffffffffff168173ffffffffffffffffffffffffffffffffffffffff161415611665576040517f08c379a000000000000000000000000000000000000000000000000000000000815260040161165c90612e91565b60405180910390fd5b61166e81611d0d565b50565b60007f01ffc9a7000000000000000000000000000000000000000000000000000000007bffffffffffffffffffffffffffffffffffffffffffffffffffffffff1916827bffffffffffffffffffffffffffffffffffffffffffffffffffffffff1916149050919050565b60008073ffffffffffffffffffffffffffffffffffffffff166002600084815260200190815260200160002060009054906101000a900473ffffffffffffffffffffffffffffffffffffffff1673ffffffffffffffffffffffffffffffffffffffff1614159050919050565b600033905090565b816004600083815260200190815260200160002060006101000a81548173ffffffffffffffffffffffffffffffffffffffff021916908373ffffffffffffffffffffffffffffffffffffffff160217905550808273ffffffffffffffffffffffffffffffffffffffff166117c283610b8f565b73ffffffffffffffffffffffffffffffffffffffff167f8c5be1e5ebec7d5bd14f71427d1e84f3dd0314c0f7b2291e5b200ac8c7c3b92560405160405180910390a45050565b6000611813826116db565b611852576040517f08c379a000000000000000000000000000000000000000000000000000000000815260040161184990612f11565b60405180910390fd5b600061185d83610b8f565b90508073ffffffffffffffffffffffffffffffffffffffff168473ffffffffffffffffffffffffffffffffffffffff1614806118cc57508373ffffffffffffffffffffffffffffffffffffffff166118b4846105bc565b73ffffffffffffffffffffffffffffffffffffffff16145b806118dd57506118dc81856114e5565b5b91505092915050565b8273ffffffffffffffffffffffffffffffffffffffff1661190682610b8f565b73ffffffffffffffffffffffffffffffffffffffff161461195c576040517f08c379a000000000000000000000000000000000000000000000000000000000815260040161195390613031565b60405180910390fd5b600073ffffffffffffffffffffffffffffffffffffffff168273ffffffffffffffffffffffffffffffffffffffff1614156119cc576040517f08c379a00000000000000000000000000000000000000000000000000000000081526004016119c390612ed1565b60405180910390fd5b6119d7838383611fed565b6119e260008261174f565b6001600360008573ffffffffffffffffffffffffffffffffffffffff1673ffffffffffffffffffffffffffffffffffffffff1681526020019081526020016000206000828254611a329190613261565b925050819055506001600360008473ffffffffffffffffffffffffffffffffffffffff1673ffffffffffffffffffffffffffffffffffffffff1681526020019081526020016000206000828254611a899190613180565b92505081905550816002600083815260200190815260200160002060006101000a81548173ffffffffffffffffffffffffffffffffffffffff021916908373ffffffffffffffffffffffffffffffffffffffff160217905550808273ffffffffffffffffffffffffffffffffffffffff168473ffffffffffffffffffffffffffffffffffffffff167fddf252ad1be2c89b69c2b068fc378daa952ba7f163c4a11628f55a4df523b3ef60405160405180910390a4505050565b60606000821415611b8a576040518060400160405280600181526020017f30000000000000000000000000000000000000000000000000000000000000008152509050611cea565b600082905060005b60008214611bbc578080611ba5906133f2565b915050600a82611bb591906131d6565b9150611b92565b60008167ffffffffffffffff811115611bfe577f4e487b7100000000000000000000000000000000000000000000000000000000600052604160045260246000fd5b6040519080825280601f01601f191660200182016040528015611c305781602001600182028036833780820191505090505b5090505b60008514611ce357600182611c499190613261565b9150600a85611c58919061343b565b6030611c649190613180565b60f81b818381518110611ca0577f4e487b7100000000000000000000000000000000000000000000000000000000600052603260045260246000fd5b60200101907effffffffffffffffffffffffffffffffffffffffffffffffffffffffffffff1916908160001a905350600a85611cdc91906131d6565b9450611c34565b8093505050505b919050565b611d09828260405180602001604052806000815250611ff2565b5050565b6000600760009054906101000a900473ffffffffffffffffffffffffffffffffffffffff16905081600760006101000a81548173ffffffffffffffffffffffffffffffffffffffff021916908373ffffffffffffffffffffffffffffffffffffffff1602179055508173ffffffffffffffffffffffffffffffffffffffff168173ffffffffffffffffffffffffffffffffffffffff167f8be0079c531659141344cd1fd0a4f28419497f9722a3daafe3b4186f6b6457e060405160405180910390a35050565b611dde8484846118e6565b611dea8484848461204d565b611e29576040517f08c379a0000000000000000000000000000000000000000000000000000000008152600401611e2090612e71565b60405180910390fd5b50505050565b60606000825190506000811415611e585760405180602001604052806000815250915050611fe8565b60006003600283611e699190613180565b611e7391906131d6565b6004611e7f9190613207565b90506000602082611e909190613180565b67ffffffffffffffff811115611ecf577f4e487b7100000000000000000000000000000000000000000000000000000000600052604160045260246000fd5b6040519080825280601f01601f191660200182016040528015611f015781602001600182028036833780820191505090505b5090506000604051806060016040528060408152602001613de6604091399050600181016020830160005b86811015611fa55760038101905062ffffff818a015116603f8160121c168401518060081b905060ff603f83600c1c1686015116810190508060081b905060ff603f8360061c1686015116810190508060081b905060ff603f831686015116810190508060e01b90508084526004840193505050611f2c565b506003860660018114611fbf5760028114611fcf57611fda565b613d3d60f01b6002830352611fda565b603d60f81b60018303525b508484525050819450505050505b919050565b505050565b611ffc83836121e4565b612009600084848461204d565b612048576040517f08c379a000000000000000000000000000000000000000000000000000000000815260040161203f90612e71565b60405180910390fd5b505050565b600061206e8473ffffffffffffffffffffffffffffffffffffffff166123b2565b156121d7578373ffffffffffffffffffffffffffffffffffffffff1663150b7a02612097611747565b8786866040518563ffffffff1660e01b81526004016120b99493929190612da4565b602060405180830381600087803b1580156120d357600080fd5b505af192505050801561210457506040513d601f19601f820116820180604052508101906121019190612731565b60015b612187573d8060008114612134576040519150601f19603f3d011682016040523d82523d6000602084013e612139565b606091505b5060008151141561217f576040517f08c379a000000000000000000000000000000000000000000000000000000000815260040161217690612e71565b60405180910390fd5b805181602001fd5b63150b7a0260e01b7bffffffffffffffffffffffffffffffffffffffffffffffffffffffff1916817bffffffffffffffffffffffffffffffffffffffffffffffffffffffff1916149150506121dc565b600190505b949350505050565b600073ffffffffffffffffffffffffffffffffffffffff168273ffffffffffffffffffffffffffffffffffffffff161415612254576040517f08c379a000000000000000000000000000000000000000000000000000000000815260040161224b90612fd1565b60405180910390fd5b61225d816116db565b1561229d576040517f08c379a000000000000000000000000000000000000000000000000000000000815260040161229490612eb1565b60405180910390fd5b6122a960008383611fed565b6001600360008473ffffffffffffffffffffffffffffffffffffffff1673ffffffffffffffffffffffffffffffffffffffff16815260200190815260200160002060008282546122f99190613180565b92505081905550816002600083815260200190815260200160002060006101000a81548173ffffffffffffffffffffffffffffffffffffffff021916908373ffffffffffffffffffffffffffffffffffffffff160217905550808273ffffffffffffffffffffffffffffffffffffffff16600073ffffffffffffffffffffffffffffffffffffffff167fddf252ad1be2c89b69c2b068fc378daa952ba7f163c4a11628f55a4df523b3ef60405160405180910390a45050565b600080823b905060008111915050919050565b60405180606001604052806003905b60608152602001906001900390816123d45790505090565b60006123ff6123fa8461310c565b6130e7565b90508281526020810184848401111561241757600080fd5b61242284828561334d565b509392505050565b60008135905061243981613c5e565b92915050565b60008151905061244e81613c5e565b92915050565b60008135905061246381613c75565b92915050565b60008135905061247881613c8c565b92915050565b60008135905061248d81613ca3565b92915050565b6000815190506124a281613ca3565b92915050565b600082601f8301126124b957600080fd5b81356124c98482602086016123ec565b91505092915050565b6000813590506124e181613cba565b92915050565b6000813590506124f681613cd1565b92915050565b60006020828403121561250e57600080fd5b600061251c8482850161242a565b91505092915050565b60006020828403121561253757600080fd5b600061254584828501612454565b91505092915050565b6000806040838503121561256157600080fd5b600061256f8582860161242a565b92505060206125808582860161242a565b9150509250929050565b6000806040838503121561259d57600080fd5b60006125ab8582860161243f565b92505060206125bc8582860161243f565b9150509250929050565b6000806000606084860312156125db57600080fd5b60006125e98682870161242a565b93505060206125fa8682870161242a565b925050604061260b868287016124e7565b9150509250925092565b6000806000806080858703121561262b57600080fd5b60006126398782880161242a565b945050602061264a8782880161242a565b935050604061265b878288016124e7565b925050606085013567ffffffffffffffff81111561267857600080fd5b612684878288016124a8565b91505092959194509250565b600080604083850312156126a357600080fd5b60006126b18582860161242a565b92505060206126c285828601612469565b9150509250929050565b600080604083850312156126df57600080fd5b60006126ed8582860161242a565b92505060206126fe858286016124e7565b9150509250929050565b60006020828403121561271a57600080fd5b60006127288482850161247e565b91505092915050565b60006020828403121561274357600080fd5b600061275184828501612493565b91505092915050565b60006020828403121561276c57600080fd5b600061277a848285016124d2565b91505092915050565b60006020828403121561279557600080fd5b60006127a3848285016124e7565b91505092915050565b6127b5816132a7565b82525050565b6127c481613295565b82525050565b6127d3816132b9565b82525050565b60006127e48261313d565b6127ee8185613153565b93506127fe81856020860161335c565b61280781613528565b840191505092915050565b61281b81613329565b82525050565b600061282c82613148565b6128368185613164565b935061284681856020860161335c565b61284f81613528565b840191505092915050565b600061286582613148565b61286f8185613175565b935061287f81856020860161335c565b80840191505092915050565b6000612898603283613164565b91506128a382613539565b604082019050919050565b60006128bb602683613164565b91506128c682613588565b604082019050919050565b60006128de601c83613164565b91506128e9826135d7565b602082019050919050565b6000612901602583613175565b915061290c82613600565b602582019050919050565b600061292460ce83613175565b915061292f8261364f565b60ce82019050919050565b6000612947600183613175565b91506129528261375c565b600182019050919050565b600061296a602483613164565b915061297582613785565b604082019050919050565b600061298d601983613164565b9150612998826137d4565b602082019050919050565b60006129b0602c83613164565b91506129bb826137fd565b604082019050919050565b60006129d3603883613164565b91506129de8261384c565b604082019050919050565b60006129f6600183613175565b9150612a018261389b565b600182019050919050565b6000612a19602a83613164565b9150612a24826138c4565b604082019050919050565b6000612a3c602983613164565b9150612a4782613913565b604082019050919050565b6000612a5f601a83613164565b9150612a6a82613962565b602082019050919050565b6000612a82600283613175565b9150612a8d8261398b565b600282019050919050565b6000612aa5602b83613164565b9150612ab0826139b4565b604082019050919050565b6000612ac8602083613164565b9150612ad382613a03565b602082019050919050565b6000612aeb602c83613164565b9150612af682613a2c565b604082019050919050565b6000612b0e602083613164565b9150612b1982613a7b565b602082019050919050565b6000612b31602983613164565b9150612b3c82613aa4565b604082019050919050565b6000612b54600183613175565b9150612b5f82613af3565b600182019050919050565b6000612b77602183613164565b9150612b8282613b1c565b604082019050919050565b6000612b9a601d83613175565b9150612ba582613b6b565b601d82019050919050565b6000612bbd601183613175565b9150612bc882613b94565b601182019050919050565b6000612be0600d83613175565b9150612beb82613bbd565b600d82019050919050565b6000612c03603183613164565b9150612c0e82613be6565b604082019050919050565b6000612c26601f83613164565b9150612c3182613c35565b602082019050919050565b612c45816132f1565b82525050565b612c548161331f565b82525050565b6000612c66828661285a565b9150612c72828561285a565b9150612c7e828461285a565b9150819050949350505050565b6000612c9682612917565b9150819050919050565b6000612cab82612b47565b9150612cb7828661285a565b9150612cc28261293a565b9150612cce828561285a565b9150612cd9826128f4565b9150612ce5828461285a565b9150612cf082612a75565b9150819050949350505050565b6000612d0882612b8d565b9150612d14828461285a565b915081905092915050565b6000612d2a82612bb0565b9150612d36828461285a565b9150612d41826129e9565b915081905092915050565b6000612d5782612bd3565b9150612d63828461285a565b915081905092915050565b6000602082019050612d8360008301846127bb565b92915050565b6000602082019050612d9e60008301846127ac565b92915050565b6000608082019050612db960008301876127bb565b612dc660208301866127bb565b612dd36040830185612c4b565b8181036060830152612de581846127d9565b905095945050505050565b6000604082019050612e0560008301856127bb565b612e126020830184612c4b565b9392505050565b6000602082019050612e2e60008301846127ca565b92915050565b6000602082019050612e496000830184612812565b92915050565b60006020820190508181036000830152612e698184612821565b905092915050565b60006020820190508181036000830152612e8a8161288b565b9050919050565b60006020820190508181036000830152612eaa816128ae565b9050919050565b60006020820190508181036000830152612eca816128d1565b9050919050565b60006020820190508181036000830152612eea8161295d565b9050919050565b60006020820190508181036000830152612f0a81612980565b9050919050565b60006020820190508181036000830152612f2a816129a3565b9050919050565b60006020820190508181036000830152612f4a816129c6565b9050919050565b60006020820190508181036000830152612f6a81612a0c565b9050919050565b60006020820190508181036000830152612f8a81612a2f565b9050919050565b60006020820190508181036000830152612faa81612a52565b9050919050565b60006020820190508181036000830152612fca81612a98565b9050919050565b60006020820190508181036000830152612fea81612abb565b9050919050565b6000602082019050818103600083015261300a81612ade565b9050919050565b6000602082019050818103600083015261302a81612b01565b9050919050565b6000602082019050818103600083015261304a81612b24565b9050919050565b6000602082019050818103600083015261306a81612b6a565b9050919050565b6000602082019050818103600083015261308a81612bf6565b9050919050565b600060208201905081810360008301526130aa81612c19565b9050919050565b60006020820190506130c66000830184612c3c565b92915050565b60006020820190506130e16000830184612c4b565b92915050565b60006130f1613102565b90506130fd82826133c1565b919050565b6000604051905090565b600067ffffffffffffffff821115613127576131266134f9565b5b61313082613528565b9050602081019050919050565b600081519050919050565b600081519050919050565b600082825260208201905092915050565b600082825260208201905092915050565b600081905092915050565b600061318b8261331f565b91506131968361331f565b9250827fffffffffffffffffffffffffffffffffffffffffffffffffffffffffffffffff038211156131cb576131ca61346c565b5b828201905092915050565b60006131e18261331f565b91506131ec8361331f565b9250826131fc576131fb61349b565b5b828204905092915050565b60006132128261331f565b915061321d8361331f565b9250817fffffffffffffffffffffffffffffffffffffffffffffffffffffffffffffffff04831182151516156132565761325561346c565b5b828202905092915050565b600061326c8261331f565b91506132778361331f565b92508282101561328a5761328961346c565b5b828203905092915050565b60006132a0826132ff565b9050919050565b60006132b2826132ff565b9050919050565b60008115159050919050565b60007fffffffff0000000000000000000000000000000000000000000000000000000082169050919050565b600061ffff82169050919050565b600073ffffffffffffffffffffffffffffffffffffffff82169050919050565b6000819050919050565b60006133348261333b565b9050919050565b6000613346826132ff565b9050919050565b82818337600083830152505050565b60005b8381101561337a57808201518184015260208101905061335f565b83811115613389576000848401525b50505050565b600060028204905060018216806133a757607f821691505b602082108114156133bb576133ba6134ca565b5b50919050565b6133ca82613528565b810181811067ffffffffffffffff821117156133e9576133e86134f9565b5b80604052505050565b60006133fd8261331f565b91507fffffffffffffffffffffffffffffffffffffffffffffffffffffffffffffffff8214156134305761342f61346c565b5b600182019050919050565b60006134468261331f565b91506134518361331f565b9250826134615761346061349b565b5b828206905092915050565b7f4e487b7100000000000000000000000000000000000000000000000000000000600052601160045260246000fd5b7f4e487b7100000000000000000000000000000000000000000000000000000000600052601260045260246000fd5b7f4e487b7100000000000000000000000000000000000000000000000000000000600052602260045260246000fd5b7f4e487b7100000000000000000000000000000000000000000000000000000000600052604160045260246000fd5b6000601f19601f8301169050919050565b7f4552433732313a207472616e7366657220746f206e6f6e20455243373231526560008201527f63656976657220696d706c656d656e7465720000000000000000000000000000602082015250565b7f4f776e61626c653a206e6577206f776e657220697320746865207a65726f206160008201527f6464726573730000000000000000000000000000000000000000000000000000602082015250565b7f4552433732313a20746f6b656e20616c7265616479206d696e74656400000000600082015250565b7f2c22696d616765223a2022646174613a696d6167652f7376672b786d6c3b626160008201527f736536342c000000000000000000000000000000000000000000000000000000602082015250565b7f226465736372697074696f6e223a2022506562626c65204c6f6f74206973206160008201527f207265616c20776f726c6420646174612073746f726564206f6e20636861696e60208201527f2e2053746174732c20696d616765732c20616e64206f746865722066756e637460408201527f696f6e616c6974792061726520696e74656e74696f6e616c6c79206f6d69747460608201527f656420666f72206f746865727320746f20696e746572707265742e204665656c60808201527f206672656520746f2075736520506562626c65204c6f6f7420696e20616e792060a08201527f77617920796f752077616e742e2200000000000000000000000000000000000060c082015250565b7f2c00000000000000000000000000000000000000000000000000000000000000600082015250565b7f4552433732313a207472616e7366657220746f20746865207a65726f2061646460008201527f7265737300000000000000000000000000000000000000000000000000000000602082015250565b7f4552433732313a20617070726f766520746f2063616c6c657200000000000000600082015250565b7f4552433732313a206f70657261746f7220717565727920666f72206e6f6e657860008201527f697374656e7420746f6b656e0000000000000000000000000000000000000000602082015250565b7f4552433732313a20617070726f76652063616c6c6572206973206e6f74206f7760008201527f6e6572206e6f7220617070726f76656420666f7220616c6c0000000000000000602082015250565b7f2200000000000000000000000000000000000000000000000000000000000000600082015250565b7f4552433732313a2062616c616e636520717565727920666f7220746865207a6560008201527f726f206164647265737300000000000000000000000000000000000000000000602082015250565b7f4552433732313a206f776e657220717565727920666f72206e6f6e657869737460008201527f656e7420746f6b656e0000000000000000000000000000000000000000000000602082015250565b7f436c61696d3a20546f6b656e20494420697320696e76616c6964000000000000600082015250565b7f227d000000000000000000000000000000000000000000000000000000000000600082015250565b7f596f752073686f756c64206f776e207468652064657669636520746f206d696e60008201527f742074686973206c6f6f74000000000000000000000000000000000000000000602082015250565b7f4552433732313a206d696e7420746f20746865207a65726f2061646472657373600082015250565b7f4552433732313a20617070726f76656420717565727920666f72206e6f6e657860008201527f697374656e7420746f6b656e0000000000000000000000000000000000000000602082015250565b7f4f776e61626c653a2063616c6c6572206973206e6f7420746865206f776e6572600082015250565b7f4552433732313a207472616e73666572206f6620746f6b656e2074686174206960008201527f73206e6f74206f776e0000000000000000000000000000000000000000000000602082015250565b7f7b00000000000000000000000000000000000000000000000000000000000000600082015250565b7f4552433732313a20617070726f76616c20746f2063757272656e74206f776e6560008201527f7200000000000000000000000000000000000000000000000000000000000000602082015250565b7f646174613a6170706c69636174696f6e2f6a736f6e3b6261736536342c000000600082015250565b7f226e616d65223a2022506562626c652023000000000000000000000000000000600082015250565b7f506562626c65204c6f6f74202300000000000000000000000000000000000000600082015250565b7f4552433732313a207472616e736665722063616c6c6572206973206e6f74206f60008201527f776e6572206e6f7220617070726f766564000000000000000000000000000000602082015250565b7f5265656e7472616e637947756172643a207265656e7472616e742063616c6c00600082015250565b613c6781613295565b8114613c7257600080fd5b50565b613c7e816132a7565b8114613c8957600080fd5b50565b613c95816132b9565b8114613ca057600080fd5b50565b613cac816132c5565b8114613cb757600080fd5b50565b613cc3816132f1565b8114613cce57600080fd5b50565b613cda8161331f565b8114613ce557600080fd5b5056fe3c73766720786d6c6e733d22687474703a2f2f7777772e77332e6f72672f323030302f73766722207072657365727665417370656374526174696f3d22784d696e594d696e206d656574222076696577426f783d223020302033353020333530223e3c7374796c653e2e62617365207b2066696c6c3a2077686974653b20666f6e742d66616d696c793a2073657269663b20666f6e742d73697a653a20313470783b207d3c2f7374796c653e3c726563742077696474683d223130302522206865696768743d2231303025222066696c6c3d22626c61636b22202f3e3c7465787420783d2231302220793d2232302220636c6173733d2262617365223e4142434445464748494a4b4c4d4e4f505152535455565758595a6162636465666768696a6b6c6d6e6f707172737475767778797a303132333435363738392b2fa264697066735822122094f182a492490651116af0adee3b2f3662fa9fd7482278922240de07cb36567364736f6c63430008040033",
  "linkReferences": {},
  "deployedLinkReferences": {}
}