{
  "_format": "hh-sol-artifact-1",
  "contractName": "PebbleLoot",
  "sourceName": "contracts/PebbleLoot.sol",
  "abi": [
    {
      "inputs": [
        {
          "internalType": "address",
          "name": "_registration",
          "type": "address"
        },
        {
          "internalType": "uint16",
          "name": "_mintingFee",
          "type": "uint16"
        },
        {
          "internalType": "address payable",
          "name": "_feeReceipient",
          "type": "address"
        }
      ],
      "stateMutability": "nonpayable",
      "type": "constructor"
    },
    {
      "anonymous": false,
      "inputs": [
        {
          "indexed": true,
          "internalType": "address",
          "name": "owner",
          "type": "address"
        },
        {
          "indexed": true,
          "internalType": "address",
          "name": "approved",
          "type": "address"
        },
        {
          "indexed": true,
          "internalType": "uint256",
          "name": "tokenId",
          "type": "uint256"
        }
      ],
      "name": "Approval",
      "type": "event"
    },
    {
      "anonymous": false,
      "inputs": [
        {
          "indexed": true,
          "internalType": "address",
          "name": "owner",
          "type": "address"
        },
        {
          "indexed": true,
          "internalType": "address",
          "name": "operator",
          "type": "address"
        },
        {
          "indexed": false,
          "internalType": "bool",
          "name": "approved",
          "type": "bool"
        }
      ],
      "name": "ApprovalForAll",
      "type": "event"
    },
    {
      "anonymous": false,
      "inputs": [
        {
          "indexed": true,
          "internalType": "address",
          "name": "feeReceipient",
          "type": "address"
        }
      ],
      "name": "FeeReceipientUpdated",
      "type": "event"
    },
    {
      "anonymous": false,
      "inputs": [
        {
          "indexed": false,
          "internalType": "uint16",
          "name": "mintingFee",
          "type": "uint16"
        }
      ],
      "name": "MintingFeeUpdated",
      "type": "event"
    },
    {
      "anonymous": false,
      "inputs": [
        {
          "indexed": true,
          "internalType": "address",
          "name": "previousOwner",
          "type": "address"
        },
        {
          "indexed": true,
          "internalType": "address",
          "name": "newOwner",
          "type": "address"
        }
      ],
      "name": "OwnershipTransferred",
      "type": "event"
    },
    {
      "anonymous": false,
      "inputs": [
        {
          "indexed": true,
          "internalType": "address",
          "name": "registration",
          "type": "address"
        }
      ],
      "name": "RegistrationUpdated",
      "type": "event"
    },
    {
      "anonymous": false,
      "inputs": [
        {
          "indexed": false,
          "internalType": "address",
          "name": "owner",
          "type": "address"
        },
        {
          "indexed": false,
          "internalType": "uint256",
          "name": "tokenId",
          "type": "uint256"
        }
      ],
      "name": "TokenMinted",
      "type": "event"
    },
    {
      "anonymous": false,
      "inputs": [
        {
          "indexed": true,
          "internalType": "address",
          "name": "from",
          "type": "address"
        },
        {
          "indexed": true,
          "internalType": "address",
          "name": "to",
          "type": "address"
        },
        {
          "indexed": true,
          "internalType": "uint256",
          "name": "tokenId",
          "type": "uint256"
        }
      ],
      "name": "Transfer",
      "type": "event"
    },
    {
      "inputs": [
        {
          "internalType": "address",
          "name": "to",
          "type": "address"
        },
        {
          "internalType": "uint256",
          "name": "tokenId",
          "type": "uint256"
        }
      ],
      "name": "approve",
      "outputs": [],
      "stateMutability": "nonpayable",
      "type": "function"
    },
    {
      "inputs": [
        {
          "internalType": "address",
          "name": "owner",
          "type": "address"
        }
      ],
      "name": "balanceOf",
      "outputs": [
        {
          "internalType": "uint256",
          "name": "",
          "type": "uint256"
        }
      ],
      "stateMutability": "view",
      "type": "function"
    },
    {
      "inputs": [
        {
          "internalType": "uint256",
          "name": "tokenId",
          "type": "uint256"
        }
      ],
      "name": "claim",
      "outputs": [],
      "stateMutability": "nonpayable",
      "type": "function"
    },
    {
      "inputs": [],
      "name": "feeReceipient",
      "outputs": [
        {
          "internalType": "address payable",
          "name": "",
          "type": "address"
        }
      ],
      "stateMutability": "view",
      "type": "function"
    },
    {
      "inputs": [
        {
          "internalType": "uint256",
          "name": "tokenId",
          "type": "uint256"
        }
      ],
      "name": "getApproved",
      "outputs": [
        {
          "internalType": "address",
          "name": "",
          "type": "address"
        }
      ],
      "stateMutability": "view",
      "type": "function"
    },
    {
      "inputs": [
        {
          "internalType": "address",
          "name": "owner",
          "type": "address"
        },
        {
          "internalType": "address",
          "name": "operator",
          "type": "address"
        }
      ],
      "name": "isApprovedForAll",
      "outputs": [
        {
          "internalType": "bool",
          "name": "",
          "type": "bool"
        }
      ],
      "stateMutability": "view",
      "type": "function"
    },
    {
      "inputs": [],
      "name": "mintingFee",
      "outputs": [
        {
          "internalType": "uint16",
          "name": "",
          "type": "uint16"
        }
      ],
      "stateMutability": "view",
      "type": "function"
    },
    {
      "inputs": [],
      "name": "name",
      "outputs": [
        {
          "internalType": "string",
          "name": "",
          "type": "string"
        }
      ],
      "stateMutability": "view",
      "type": "function"
    },
    {
      "inputs": [],
      "name": "owner",
      "outputs": [
        {
          "internalType": "address",
          "name": "",
          "type": "address"
        }
      ],
      "stateMutability": "view",
      "type": "function"
    },
    {
      "inputs": [
        {
          "internalType": "uint256",
          "name": "tokenId",
          "type": "uint256"
        }
      ],
      "name": "ownerOf",
      "outputs": [
        {
          "internalType": "address",
          "name": "",
          "type": "address"
        }
      ],
      "stateMutability": "view",
      "type": "function"
    },
    {
      "inputs": [],
      "name": "registration",
      "outputs": [
        {
          "internalType": "contract IRegistration",
          "name": "",
          "type": "address"
        }
      ],
      "stateMutability": "view",
      "type": "function"
    },
    {
      "inputs": [],
      "name": "renounceOwnership",
      "outputs": [],
      "stateMutability": "nonpayable",
      "type": "function"
    },
    {
      "inputs": [
        {
          "internalType": "address",
          "name": "from",
          "type": "address"
        },
        {
          "internalType": "address",
          "name": "to",
          "type": "address"
        },
        {
          "internalType": "uint256",
          "name": "tokenId",
          "type": "uint256"
        }
      ],
      "name": "safeTransferFrom",
      "outputs": [],
      "stateMutability": "nonpayable",
      "type": "function"
    },
    {
      "inputs": [
        {
          "internalType": "address",
          "name": "from",
          "type": "address"
        },
        {
          "internalType": "address",
          "name": "to",
          "type": "address"
        },
        {
          "internalType": "uint256",
          "name": "tokenId",
          "type": "uint256"
        },
        {
          "internalType": "bytes",
          "name": "_data",
          "type": "bytes"
        }
      ],
      "name": "safeTransferFrom",
      "outputs": [],
      "stateMutability": "nonpayable",
      "type": "function"
    },
    {
      "inputs": [
        {
          "internalType": "address",
          "name": "operator",
          "type": "address"
        },
        {
          "internalType": "bool",
          "name": "approved",
          "type": "bool"
        }
      ],
      "name": "setApprovalForAll",
      "outputs": [],
      "stateMutability": "nonpayable",
      "type": "function"
    },
    {
      "inputs": [
        {
          "internalType": "bytes4",
          "name": "interfaceId",
          "type": "bytes4"
        }
      ],
      "name": "supportsInterface",
      "outputs": [
        {
          "internalType": "bool",
          "name": "",
          "type": "bool"
        }
      ],
      "stateMutability": "view",
      "type": "function"
    },
    {
      "inputs": [],
      "name": "symbol",
      "outputs": [
        {
          "internalType": "string",
          "name": "",
          "type": "string"
        }
      ],
      "stateMutability": "view",
      "type": "function"
    },
    {
      "inputs": [
        {
          "internalType": "uint256",
          "name": "index",
          "type": "uint256"
        }
      ],
      "name": "tokenByIndex",
      "outputs": [
        {
          "internalType": "uint256",
          "name": "",
          "type": "uint256"
        }
      ],
      "stateMutability": "view",
      "type": "function"
    },
    {
      "inputs": [
        {
          "internalType": "address",
          "name": "owner",
          "type": "address"
        },
        {
          "internalType": "uint256",
          "name": "index",
          "type": "uint256"
        }
      ],
      "name": "tokenOfOwnerByIndex",
      "outputs": [
        {
          "internalType": "uint256",
          "name": "",
          "type": "uint256"
        }
      ],
      "stateMutability": "view",
      "type": "function"
    },
    {
      "inputs": [
        {
          "internalType": "uint256",
          "name": "tokenId",
          "type": "uint256"
        }
      ],
      "name": "tokenURI",
      "outputs": [
        {
          "internalType": "string",
          "name": "",
          "type": "string"
        }
      ],
      "stateMutability": "pure",
      "type": "function"
    },
    {
      "inputs": [],
      "name": "totalSupply",
      "outputs": [
        {
          "internalType": "uint256",
          "name": "",
          "type": "uint256"
        }
      ],
      "stateMutability": "view",
      "type": "function"
    },
    {
      "inputs": [
        {
          "internalType": "address",
          "name": "from",
          "type": "address"
        },
        {
          "internalType": "address",
          "name": "to",
          "type": "address"
        },
        {
          "internalType": "uint256",
          "name": "tokenId",
          "type": "uint256"
        }
      ],
      "name": "transferFrom",
      "outputs": [],
      "stateMutability": "nonpayable",
      "type": "function"
    },
    {
      "inputs": [
        {
          "internalType": "address",
          "name": "newOwner",
          "type": "address"
        }
      ],
      "name": "transferOwnership",
      "outputs": [],
      "stateMutability": "nonpayable",
      "type": "function"
    },
    {
      "inputs": [
        {
          "internalType": "address payable",
          "name": "_feeReceipient",
          "type": "address"
        }
      ],
      "name": "updateFeeReceipient",
      "outputs": [],
      "stateMutability": "nonpayable",
      "type": "function"
    },
    {
      "inputs": [
        {
          "internalType": "uint16",
          "name": "_mintingFee",
          "type": "uint16"
        }
      ],
      "name": "updateMintingFee",
      "outputs": [],
      "stateMutability": "nonpayable",
      "type": "function"
    },
    {
      "inputs": [
        {
          "internalType": "address",
          "name": "_registration",
          "type": "address"
        }
      ],
      "name": "updateRegistration",
      "outputs": [],
      "stateMutability": "nonpayable",
      "type": "function"
    }
  ],
  "bytecode": "0x60806040523480156200001157600080fd5b50604051620049ee380380620049ee83398181016040528101906200003791906200036a565b6040518060400160405280600b81526020017f506562626c65204c6f6f740000000000000000000000000000000000000000008152506040518060400160405280600381526020017f504c5400000000000000000000000000000000000000000000000000000000008152508160009080519060200190620000bb92919062000275565b508060019080519060200190620000d492919062000275565b5050506001600681905550620000ff620000f3620001a760201b60201c565b620001af60201b60201c565b82600c60006101000a81548173ffffffffffffffffffffffffffffffffffffffff021916908373ffffffffffffffffffffffffffffffffffffffff16021790555081600c60146101000a81548161ffff021916908361ffff16021790555080600d60006101000a81548173ffffffffffffffffffffffffffffffffffffffff021916908373ffffffffffffffffffffffffffffffffffffffff160217905550505050620004c9565b600033905090565b6000600b60009054906101000a900473ffffffffffffffffffffffffffffffffffffffff16905081600b60006101000a81548173ffffffffffffffffffffffffffffffffffffffff021916908373ffffffffffffffffffffffffffffffffffffffff1602179055508173ffffffffffffffffffffffffffffffffffffffff168173ffffffffffffffffffffffffffffffffffffffff167f8be0079c531659141344cd1fd0a4f28419497f9722a3daafe3b4186f6b6457e060405160405180910390a35050565b828054620002839062000416565b90600052602060002090601f016020900481019282620002a75760008555620002f3565b82601f10620002c257805160ff1916838001178555620002f3565b82800160010185558215620002f3579182015b82811115620002f2578251825591602001919060010190620002d5565b5b50905062000302919062000306565b5090565b5b808211156200032157600081600090555060010162000307565b5090565b60008151905062000336816200047b565b92915050565b6000815190506200034d8162000495565b92915050565b6000815190506200036481620004af565b92915050565b6000806000606084860312156200038057600080fd5b6000620003908682870162000325565b9350506020620003a38682870162000353565b9250506040620003b6868287016200033c565b9150509250925092565b6000620003cd82620003f6565b9050919050565b6000620003e182620003f6565b9050919050565b600061ffff82169050919050565b600073ffffffffffffffffffffffffffffffffffffffff82169050919050565b600060028204905060018216806200042f57607f821691505b602082108114156200044657620004456200044c565b5b50919050565b7f4e487b7100000000000000000000000000000000000000000000000000000000600052602260045260246000fd5b6200048681620003c0565b81146200049257600080fd5b50565b620004a081620003d4565b8114620004ac57600080fd5b50565b620004ba81620003e8565b8114620004c657600080fd5b50565b61451580620004d96000396000f3fe608060405234801561001057600080fd5b506004361061018e5760003560e01c80635c42690a116100de578063a22cb46511610097578063c87b56dd11610071578063c87b56dd1461046f578063e2fe652b1461049f578063e985e9c5146104bb578063f2fde38b146104eb5761018e565b8063a22cb4651461041b578063b244182f14610437578063b88d4fde146104535761018e565b80635c42690a146103595780636352211e1461037557806370a08231146103a5578063715018a6146103d55780638da5cb5b146103df57806395d89b41146103fd5761018e565b80632f745c591161014b57806342842e0e1161012557806342842e0e146102d1578063443bd1d0146102ed5780634f6ccce71461030b5780635a64ad951461033b5761018e565b80632f745c59146102675780633740ebb314610297578063379607f5146102b55761018e565b806301ffc9a71461019357806306fdde03146101c3578063081812fc146101e1578063095ea7b31461021157806318160ddd1461022d57806323b872dd1461024b575b600080fd5b6101ad60048036038101906101a89190612c14565b610507565b6040516101ba9190613396565b60405180910390f35b6101cb610519565b6040516101d891906133cc565b60405180910390f35b6101fb60048036038101906101f69190612c8f565b6105ab565b60405161020891906132eb565b60405180910390f35b61022b60048036038101906102269190612bd8565b610630565b005b610235610748565b6040516102429190613689565b60405180910390f35b61026560048036038101906102609190612ad2565b610755565b005b610281600480360381019061027c9190612bd8565b6107b5565b60405161028e9190613689565b60405180910390f35b61029f61085a565b6040516102ac9190613306565b60405180910390f35b6102cf60048036038101906102ca9190612c8f565b610880565b005b6102eb60048036038101906102e69190612ad2565b610ab1565b005b6102f5610ad1565b60405161030291906133b1565b60405180910390f35b61032560048036038101906103209190612c8f565b610af7565b6040516103329190613689565b60405180910390f35b610343610b8e565b604051610350919061366e565b60405180910390f35b610373600480360381019061036e9190612a31565b610ba2565b005b61038f600480360381019061038a9190612c8f565b610cc7565b60405161039c91906132eb565b60405180910390f35b6103bf60048036038101906103ba9190612a08565b610d79565b6040516103cc9190613689565b60405180910390f35b6103dd610e31565b005b6103e7610eb9565b6040516103f491906132eb565b60405180910390f35b610405610ee3565b60405161041291906133cc565b60405180910390f35b61043560048036038101906104309190612b9c565b610f75565b005b610451600480360381019061044c9190612a08565b6110f6565b005b61046d60048036038101906104689190612b21565b6111f9565b005b61048960048036038101906104849190612c8f565b61125b565b60405161049691906133cc565b60405180910390f35b6104b960048036038101906104b49190612c66565b61133d565b005b6104d560048036038101906104d09190612a5a565b611420565b6040516104e29190613396565b60405180910390f35b61050560048036038101906105009190612a08565b6114b4565b005b6000610512826115ac565b9050919050565b6060600080546105289061394c565b80601f01602080910402602001604051908101604052809291908181526020018280546105549061394c565b80156105a15780601f10610576576101008083540402835291602001916105a1565b820191906000526020600020905b81548152906001019060200180831161058457829003601f168201915b5050505050905090565b60006105b682611626565b6105f5576040517f08c379a00000000000000000000000000000000000000000000000000000000081526004016105ec9061358e565b60405180910390fd5b6004600083815260200190815260200160002060009054906101000a900473ffffffffffffffffffffffffffffffffffffffff169050919050565b600061063b82610cc7565b90508073ffffffffffffffffffffffffffffffffffffffff168373ffffffffffffffffffffffffffffffffffffffff1614156106ac576040517f08c379a00000000000000000000000000000000000000000000000000000000081526004016106a3906135ee565b60405180910390fd5b8073ffffffffffffffffffffffffffffffffffffffff166106cb611692565b73ffffffffffffffffffffffffffffffffffffffff1614806106fa57506106f9816106f4611692565b611420565b5b610739576040517f08c379a0000000000000000000000000000000000000000000000000000000008152600401610730906134ce565b60405180910390fd5b610743838361169a565b505050565b6000600980549050905090565b610766610760611692565b82611753565b6107a5576040517f08c379a000000000000000000000000000000000000000000000000000000000815260040161079c9061360e565b60405180910390fd5b6107b0838383611831565b505050565b60006107c083610d79565b8210610801576040517f08c379a00000000000000000000000000000000000000000000000000000000081526004016107f8906133ee565b60405180910390fd5b600760008473ffffffffffffffffffffffffffffffffffffffff1673ffffffffffffffffffffffffffffffffffffffff168152602001908152602001600020600083815260200190815260200160002054905092915050565b600d60009054906101000a900473ffffffffffffffffffffffffffffffffffffffff1681565b600260065414156108c6576040517f08c379a00000000000000000000000000000000000000000000000000000000081526004016108bd9061364e565b60405180910390fd5b6002600681905550655af3107a3fff811180156108e9575066038d7ea4c6800081105b610928576040517f08c379a000000000000000000000000000000000000000000000000000000000815260040161091f9061352e565b60405180910390fd5b6000600c60009054906101000a900473ffffffffffffffffffffffffffffffffffffffff1673ffffffffffffffffffffffffffffffffffffffff166382b7b50061097184611a8d565b6040518263ffffffff1660e01b815260040161098d91906133cc565b604080518083038186803b1580156109a457600080fd5b505afa1580156109b8573d6000803e3d6000fd5b505050506040513d601f19601f820116820180604052508101906109dc9190612a96565b9150508073ffffffffffffffffffffffffffffffffffffffff166109fe611692565b73ffffffffffffffffffffffffffffffffffffffff1614610a54576040517f08c379a0000000000000000000000000000000000000000000000000000000008152600401610a4b9061354e565b60405180910390fd5b610a65610a5f611692565b83611c3a565b7fb9144c96c86541f6fa89c9f2f02495cccf4b08cd6643e26d34ee00aa586558a8610a8e611692565b83604051610a9d92919061336d565b60405180910390a150600160068190555050565b610acc838383604051806020016040528060008152506111f9565b505050565b600c60009054906101000a900473ffffffffffffffffffffffffffffffffffffffff1681565b6000610b01610748565b8210610b42576040517f08c379a0000000000000000000000000000000000000000000000000000000008152600401610b399061362e565b60405180910390fd5b60098281548110610b7c577f4e487b7100000000000000000000000000000000000000000000000000000000600052603260045260246000fd5b90600052602060002001549050919050565b600c60149054906101000a900461ffff1681565b610baa611692565b73ffffffffffffffffffffffffffffffffffffffff16610bc8610eb9565b73ffffffffffffffffffffffffffffffffffffffff1614610c1e576040517f08c379a0000000000000000000000000000000000000000000000000000000008152600401610c15906135ae565b60405180910390fd5b80600d60006101000a81548173ffffffffffffffffffffffffffffffffffffffff021916908373ffffffffffffffffffffffffffffffffffffffff160217905550600d60009054906101000a900473ffffffffffffffffffffffffffffffffffffffff1673ffffffffffffffffffffffffffffffffffffffff167f4e8038c85ccd41777ff692b6d98418aa13b143d93efc1299f794a9f646bc64d460405160405180910390a250565b6000806002600084815260200190815260200160002060009054906101000a900473ffffffffffffffffffffffffffffffffffffffff169050600073ffffffffffffffffffffffffffffffffffffffff168173ffffffffffffffffffffffffffffffffffffffff161415610d70576040517f08c379a0000000000000000000000000000000000000000000000000000000008152600401610d679061350e565b60405180910390fd5b80915050919050565b60008073ffffffffffffffffffffffffffffffffffffffff168273ffffffffffffffffffffffffffffffffffffffff161415610dea576040517f08c379a0000000000000000000000000000000000000000000000000000000008152600401610de1906134ee565b60405180910390fd5b600360008373ffffffffffffffffffffffffffffffffffffffff1673ffffffffffffffffffffffffffffffffffffffff168152602001908152602001600020549050919050565b610e39611692565b73ffffffffffffffffffffffffffffffffffffffff16610e57610eb9565b73ffffffffffffffffffffffffffffffffffffffff1614610ead576040517f08c379a0000000000000000000000000000000000000000000000000000000008152600401610ea4906135ae565b60405180910390fd5b610eb76000611c58565b565b6000600b60009054906101000a900473ffffffffffffffffffffffffffffffffffffffff16905090565b606060018054610ef29061394c565b80601f0160208091040260200160405190810160405280929190818152602001828054610f1e9061394c565b8015610f6b5780601f10610f4057610100808354040283529160200191610f6b565b820191906000526020600020905b815481529060010190602001808311610f4e57829003601f168201915b5050505050905090565b610f7d611692565b73ffffffffffffffffffffffffffffffffffffffff168273ffffffffffffffffffffffffffffffffffffffff161415610feb576040517f08c379a0000000000000000000000000000000000000000000000000000000008152600401610fe29061348e565b60405180910390fd5b8060056000610ff8611692565b73ffffffffffffffffffffffffffffffffffffffff1673ffffffffffffffffffffffffffffffffffffffff16815260200190815260200160002060008473ffffffffffffffffffffffffffffffffffffffff1673ffffffffffffffffffffffffffffffffffffffff16815260200190815260200160002060006101000a81548160ff0219169083151502179055508173ffffffffffffffffffffffffffffffffffffffff166110a5611692565b73ffffffffffffffffffffffffffffffffffffffff167f17307eab39ab6107e8899845ad3d59bd9653f200f220920489ca2b5937696c31836040516110ea9190613396565b60405180910390a35050565b6110fe611692565b73ffffffffffffffffffffffffffffffffffffffff1661111c610eb9565b73ffffffffffffffffffffffffffffffffffffffff1614611172576040517f08c379a0000000000000000000000000000000000000000000000000000000008152600401611169906135ae565b60405180910390fd5b80600c60006101000a81548173ffffffffffffffffffffffffffffffffffffffff021916908373ffffffffffffffffffffffffffffffffffffffff1602179055508073ffffffffffffffffffffffffffffffffffffffff167f66c44ed44539e6dc2bc1ea4e99d92ba5e32f155fdffb7918b6db51ceb2d2679b60405160405180910390a250565b61120a611204611692565b83611753565b611249576040517f08c379a00000000000000000000000000000000000000000000000000000000081526004016112409061360e565b60405180910390fd5b61125584848484611d1e565b50505050565b6060600061126883611a8d565b6040516020016112789190613207565b6040516020818303038152906040529050600061129484611a8d565b6040516020016112a4919061329c565b604051602081830303815290604052905060006040516020016112c6906131f2565b6040516020818303038152906040529050600061130d83836112e787611d7a565b6040516020016112f99392919061323f565b604051602081830303815290604052611d7a565b90508060405160200161132091906132c9565b604051602081830303815290604052935083945050505050919050565b611345611692565b73ffffffffffffffffffffffffffffffffffffffff16611363610eb9565b73ffffffffffffffffffffffffffffffffffffffff16146113b9576040517f08c379a00000000000000000000000000000000000000000000000000000000081526004016113b0906135ae565b60405180910390fd5b80600c60146101000a81548161ffff021916908361ffff1602179055507fbbd22b3a548d3c1db4a7e35148eba9ecd2834d9ba502855fd010e3f0a92d4c52600c60149054906101000a900461ffff16604051611415919061366e565b60405180910390a150565b6000600560008473ffffffffffffffffffffffffffffffffffffffff1673ffffffffffffffffffffffffffffffffffffffff16815260200190815260200160002060008373ffffffffffffffffffffffffffffffffffffffff1673ffffffffffffffffffffffffffffffffffffffff16815260200190815260200160002060009054906101000a900460ff16905092915050565b6114bc611692565b73ffffffffffffffffffffffffffffffffffffffff166114da610eb9565b73ffffffffffffffffffffffffffffffffffffffff1614611530576040517f08c379a0000000000000000000000000000000000000000000000000000000008152600401611527906135ae565b60405180910390fd5b600073ffffffffffffffffffffffffffffffffffffffff168173ffffffffffffffffffffffffffffffffffffffff1614156115a0576040517f08c379a00000000000000000000000000000000000000000000000000000000081526004016115979061342e565b60405180910390fd5b6115a981611c58565b50565b60007f780e9d63000000000000000000000000000000000000000000000000000000007bffffffffffffffffffffffffffffffffffffffffffffffffffffffff1916827bffffffffffffffffffffffffffffffffffffffffffffffffffffffff1916148061161f575061161e82611f38565b5b9050919050565b60008073ffffffffffffffffffffffffffffffffffffffff166002600084815260200190815260200160002060009054906101000a900473ffffffffffffffffffffffffffffffffffffffff1673ffffffffffffffffffffffffffffffffffffffff1614159050919050565b600033905090565b816004600083815260200190815260200160002060006101000a81548173ffffffffffffffffffffffffffffffffffffffff021916908373ffffffffffffffffffffffffffffffffffffffff160217905550808273ffffffffffffffffffffffffffffffffffffffff1661170d83610cc7565b73ffffffffffffffffffffffffffffffffffffffff167f8c5be1e5ebec7d5bd14f71427d1e84f3dd0314c0f7b2291e5b200ac8c7c3b92560405160405180910390a45050565b600061175e82611626565b61179d576040517f08c379a0000000000000000000000000000000000000000000000000000000008152600401611794906134ae565b60405180910390fd5b60006117a883610cc7565b90508073ffffffffffffffffffffffffffffffffffffffff168473ffffffffffffffffffffffffffffffffffffffff16148061181757508373ffffffffffffffffffffffffffffffffffffffff166117ff846105ab565b73ffffffffffffffffffffffffffffffffffffffff16145b8061182857506118278185611420565b5b91505092915050565b8273ffffffffffffffffffffffffffffffffffffffff1661185182610cc7565b73ffffffffffffffffffffffffffffffffffffffff16146118a7576040517f08c379a000000000000000000000000000000000000000000000000000000000815260040161189e906135ce565b60405180910390fd5b600073ffffffffffffffffffffffffffffffffffffffff168273ffffffffffffffffffffffffffffffffffffffff161415611917576040517f08c379a000000000000000000000000000000000000000000000000000000000815260040161190e9061346e565b60405180910390fd5b61192283838361201a565b61192d60008261169a565b6001600360008573ffffffffffffffffffffffffffffffffffffffff1673ffffffffffffffffffffffffffffffffffffffff168152602001908152602001600020600082825461197d919061381e565b925050819055506001600360008473ffffffffffffffffffffffffffffffffffffffff1673ffffffffffffffffffffffffffffffffffffffff16815260200190815260200160002060008282546119d4919061373d565b92505081905550816002600083815260200190815260200160002060006101000a81548173ffffffffffffffffffffffffffffffffffffffff021916908373ffffffffffffffffffffffffffffffffffffffff160217905550808273ffffffffffffffffffffffffffffffffffffffff168473ffffffffffffffffffffffffffffffffffffffff167fddf252ad1be2c89b69c2b068fc378daa952ba7f163c4a11628f55a4df523b3ef60405160405180910390a4505050565b60606000821415611ad5576040518060400160405280600181526020017f30000000000000000000000000000000000000000000000000000000000000008152509050611c35565b600082905060005b60008214611b07578080611af0906139af565b915050600a82611b009190613793565b9150611add565b60008167ffffffffffffffff811115611b49577f4e487b7100000000000000000000000000000000000000000000000000000000600052604160045260246000fd5b6040519080825280601f01601f191660200182016040528015611b7b5781602001600182028036833780820191505090505b5090505b60008514611c2e57600182611b94919061381e565b9150600a85611ba391906139f8565b6030611baf919061373d565b60f81b818381518110611beb577f4e487b7100000000000000000000000000000000000000000000000000000000600052603260045260246000fd5b60200101907effffffffffffffffffffffffffffffffffffffffffffffffffffffffffffff1916908160001a905350600a85611c279190613793565b9450611b7f565b8093505050505b919050565b611c5482826040518060200160405280600081525061202a565b5050565b6000600b60009054906101000a900473ffffffffffffffffffffffffffffffffffffffff16905081600b60006101000a81548173ffffffffffffffffffffffffffffffffffffffff021916908373ffffffffffffffffffffffffffffffffffffffff1602179055508173ffffffffffffffffffffffffffffffffffffffff168173ffffffffffffffffffffffffffffffffffffffff167f8be0079c531659141344cd1fd0a4f28419497f9722a3daafe3b4186f6b6457e060405160405180910390a35050565b611d29848484611831565b611d3584848484612085565b611d74576040517f08c379a0000000000000000000000000000000000000000000000000000000008152600401611d6b9061340e565b60405180910390fd5b50505050565b60606000825190506000811415611da35760405180602001604052806000815250915050611f33565b60006003600283611db4919061373d565b611dbe9190613793565b6004611dca91906137c4565b90506000602082611ddb919061373d565b67ffffffffffffffff811115611e1a577f4e487b7100000000000000000000000000000000000000000000000000000000600052604160045260246000fd5b6040519080825280601f01601f191660200182016040528015611e4c5781602001600182028036833780820191505090505b50905060006040518060600160405280604081526020016144a0604091399050600181016020830160005b86811015611ef05760038101905062ffffff818a015116603f8160121c168401518060081b905060ff603f83600c1c1686015116810190508060081b905060ff603f8360061c1686015116810190508060081b905060ff603f831686015116810190508060e01b90508084526004840193505050611e77565b506003860660018114611f0a5760028114611f1a57611f25565b613d3d60f01b6002830352611f25565b603d60f81b60018303525b508484525050819450505050505b919050565b60007f80ac58cd000000000000000000000000000000000000000000000000000000007bffffffffffffffffffffffffffffffffffffffffffffffffffffffff1916827bffffffffffffffffffffffffffffffffffffffffffffffffffffffff1916148061200357507f5b5e139f000000000000000000000000000000000000000000000000000000007bffffffffffffffffffffffffffffffffffffffffffffffffffffffff1916827bffffffffffffffffffffffffffffffffffffffffffffffffffffffff1916145b8061201357506120128261221c565b5b9050919050565b612025838383612286565b505050565b612034838361239a565b6120416000848484612085565b612080576040517f08c379a00000000000000000000000000000000000000000000000000000000081526004016120779061340e565b60405180910390fd5b505050565b60006120a68473ffffffffffffffffffffffffffffffffffffffff16612568565b1561220f578373ffffffffffffffffffffffffffffffffffffffff1663150b7a026120cf611692565b8786866040518563ffffffff1660e01b81526004016120f19493929190613321565b602060405180830381600087803b15801561210b57600080fd5b505af192505050801561213c57506040513d601f19601f820116820180604052508101906121399190612c3d565b60015b6121bf573d806000811461216c576040519150601f19603f3d011682016040523d82523d6000602084013e612171565b606091505b506000815114156121b7576040517f08c379a00000000000000000000000000000000000000000000000000000000081526004016121ae9061340e565b60405180910390fd5b805181602001fd5b63150b7a0260e01b7bffffffffffffffffffffffffffffffffffffffffffffffffffffffff1916817bffffffffffffffffffffffffffffffffffffffffffffffffffffffff191614915050612214565b600190505b949350505050565b60007f01ffc9a7000000000000000000000000000000000000000000000000000000007bffffffffffffffffffffffffffffffffffffffffffffffffffffffff1916827bffffffffffffffffffffffffffffffffffffffffffffffffffffffff1916149050919050565b61229183838361257b565b600073ffffffffffffffffffffffffffffffffffffffff168373ffffffffffffffffffffffffffffffffffffffff1614156122d4576122cf81612580565b612313565b8173ffffffffffffffffffffffffffffffffffffffff168373ffffffffffffffffffffffffffffffffffffffff16146123125761231183826125c9565b5b5b600073ffffffffffffffffffffffffffffffffffffffff168273ffffffffffffffffffffffffffffffffffffffff1614156123565761235181612736565b612395565b8273ffffffffffffffffffffffffffffffffffffffff168273ffffffffffffffffffffffffffffffffffffffff1614612394576123938282612879565b5b5b505050565b600073ffffffffffffffffffffffffffffffffffffffff168273ffffffffffffffffffffffffffffffffffffffff16141561240a576040517f08c379a00000000000000000000000000000000000000000000000000000000081526004016124019061356e565b60405180910390fd5b61241381611626565b15612453576040517f08c379a000000000000000000000000000000000000000000000000000000000815260040161244a9061344e565b60405180910390fd5b61245f6000838361201a565b6001600360008473ffffffffffffffffffffffffffffffffffffffff1673ffffffffffffffffffffffffffffffffffffffff16815260200190815260200160002060008282546124af919061373d565b92505081905550816002600083815260200190815260200160002060006101000a81548173ffffffffffffffffffffffffffffffffffffffff021916908373ffffffffffffffffffffffffffffffffffffffff160217905550808273ffffffffffffffffffffffffffffffffffffffff16600073ffffffffffffffffffffffffffffffffffffffff167fddf252ad1be2c89b69c2b068fc378daa952ba7f163c4a11628f55a4df523b3ef60405160405180910390a45050565b600080823b905060008111915050919050565b505050565b600980549050600a600083815260200190815260200160002081905550600981908060018154018082558091505060019003906000526020600020016000909190919091505550565b600060016125d684610d79565b6125e0919061381e565b90506000600860008481526020019081526020016000205490508181146126c5576000600760008673ffffffffffffffffffffffffffffffffffffffff1673ffffffffffffffffffffffffffffffffffffffff168152602001908152602001600020600084815260200190815260200160002054905080600760008773ffffffffffffffffffffffffffffffffffffffff1673ffffffffffffffffffffffffffffffffffffffff168152602001908152602001600020600084815260200190815260200160002081905550816008600083815260200190815260200160002081905550505b6008600084815260200190815260200160002060009055600760008573ffffffffffffffffffffffffffffffffffffffff1673ffffffffffffffffffffffffffffffffffffffff16815260200190815260200160002060008381526020019081526020016000206000905550505050565b6000600160098054905061274a919061381e565b90506000600a60008481526020019081526020016000205490506000600983815481106127a0577f4e487b7100000000000000000000000000000000000000000000000000000000600052603260045260246000fd5b9060005260206000200154905080600983815481106127e8577f4e487b7100000000000000000000000000000000000000000000000000000000600052603260045260246000fd5b906000526020600020018190555081600a600083815260200190815260200160002081905550600a600085815260200190815260200160002060009055600980548061285d577f4e487b7100000000000000000000000000000000000000000000000000000000600052603160045260246000fd5b6001900381819060005260206000200160009055905550505050565b600061288483610d79565b905081600760008573ffffffffffffffffffffffffffffffffffffffff1673ffffffffffffffffffffffffffffffffffffffff168152602001908152602001600020600083815260200190815260200160002081905550806008600084815260200190815260200160002081905550505050565b600061290b612906846136c9565b6136a4565b90508281526020810184848401111561292357600080fd5b61292e84828561390a565b509392505050565b60008135905061294581614415565b92915050565b60008151905061295a81614415565b92915050565b60008135905061296f8161442c565b92915050565b60008135905061298481614443565b92915050565b6000813590506129998161445a565b92915050565b6000815190506129ae8161445a565b92915050565b600082601f8301126129c557600080fd5b81356129d58482602086016128f8565b91505092915050565b6000813590506129ed81614471565b92915050565b600081359050612a0281614488565b92915050565b600060208284031215612a1a57600080fd5b6000612a2884828501612936565b91505092915050565b600060208284031215612a4357600080fd5b6000612a5184828501612960565b91505092915050565b60008060408385031215612a6d57600080fd5b6000612a7b85828601612936565b9250506020612a8c85828601612936565b9150509250929050565b60008060408385031215612aa957600080fd5b6000612ab78582860161294b565b9250506020612ac88582860161294b565b9150509250929050565b600080600060608486031215612ae757600080fd5b6000612af586828701612936565b9350506020612b0686828701612936565b9250506040612b17868287016129f3565b9150509250925092565b60008060008060808587031215612b3757600080fd5b6000612b4587828801612936565b9450506020612b5687828801612936565b9350506040612b67878288016129f3565b925050606085013567ffffffffffffffff811115612b8457600080fd5b612b90878288016129b4565b91505092959194509250565b60008060408385031215612baf57600080fd5b6000612bbd85828601612936565b9250506020612bce85828601612975565b9150509250929050565b60008060408385031215612beb57600080fd5b6000612bf985828601612936565b9250506020612c0a858286016129f3565b9150509250929050565b600060208284031215612c2657600080fd5b6000612c348482850161298a565b91505092915050565b600060208284031215612c4f57600080fd5b6000612c5d8482850161299f565b91505092915050565b600060208284031215612c7857600080fd5b6000612c86848285016129de565b91505092915050565b600060208284031215612ca157600080fd5b6000612caf848285016129f3565b91505092915050565b612cc181613864565b82525050565b612cd081613852565b82525050565b612cdf81613876565b82525050565b6000612cf0826136fa565b612cfa8185613710565b9350612d0a818560208601613919565b612d1381613ae5565b840191505092915050565b612d27816138e6565b82525050565b6000612d3882613705565b612d428185613721565b9350612d52818560208601613919565b612d5b81613ae5565b840191505092915050565b6000612d7182613705565b612d7b8185613732565b9350612d8b818560208601613919565b80840191505092915050565b6000612da4602b83613721565b9150612daf82613af6565b604082019050919050565b6000612dc7603283613721565b9150612dd282613b45565b604082019050919050565b6000612dea602683613721565b9150612df582613b94565b604082019050919050565b6000612e0d601c83613721565b9150612e1882613be3565b602082019050919050565b6000612e30602583613732565b9150612e3b82613c0c565b602582019050919050565b6000612e5360ce83613732565b9150612e5e82613c5b565b60ce82019050919050565b6000612e76600183613732565b9150612e8182613d68565b600182019050919050565b6000612e99602483613721565b9150612ea482613d91565b604082019050919050565b6000612ebc601983613721565b9150612ec782613de0565b602082019050919050565b6000612edf602c83613721565b9150612eea82613e09565b604082019050919050565b6000612f02600d83613732565b9150612f0d82613e58565b600d82019050919050565b6000612f25603883613721565b9150612f3082613e81565b604082019050919050565b6000612f48600183613732565b9150612f5382613ed0565b600182019050919050565b6000612f6b60fd83613732565b9150612f7682613ef9565b60fd82019050919050565b6000612f8e602a83613721565b9150612f998261402c565b604082019050919050565b6000612fb1602983613721565b9150612fbc8261407b565b604082019050919050565b6000612fd4601a83613721565b9150612fdf826140ca565b602082019050919050565b6000612ff7600283613732565b9150613002826140f3565b600282019050919050565b600061301a602b83613721565b91506130258261411c565b604082019050919050565b600061303d602083613721565b91506130488261416b565b602082019050919050565b6000613060602c83613721565b915061306b82614194565b604082019050919050565b6000613083602083613721565b915061308e826141e3565b602082019050919050565b60006130a6602983613721565b91506130b18261420c565b604082019050919050565b60006130c9600183613732565b91506130d48261425b565b600182019050919050565b60006130ec601683613732565b91506130f782614284565b601682019050919050565b600061310f602183613721565b915061311a826142ad565b604082019050919050565b6000613132601d83613732565b915061313d826142fc565b601d82019050919050565b6000613155600d83613732565b915061316082614325565b600d82019050919050565b6000613178603183613721565b91506131838261434e565b604082019050919050565b600061319b602c83613721565b91506131a68261439d565b604082019050919050565b60006131be601f83613721565b91506131c9826143ec565b602082019050919050565b6131dd816138ae565b82525050565b6131ec816138dc565b82525050565b60006131fd82612e46565b9150819050919050565b600061321282612f5e565b915061321d82613148565b91506132298284612d66565b915061323482612ef5565b915081905092915050565b600061324a826130bc565b91506132568286612d66565b915061326182612e69565b915061326d8285612d66565b915061327882612e23565b91506132848284612d66565b915061328f82612fea565b9150819050949350505050565b60006132a7826130df565b91506132b38284612d66565b91506132be82612f3b565b915081905092915050565b60006132d482613125565b91506132e08284612d66565b915081905092915050565b60006020820190506133006000830184612cc7565b92915050565b600060208201905061331b6000830184612cb8565b92915050565b60006080820190506133366000830187612cc7565b6133436020830186612cc7565b61335060408301856131e3565b81810360608301526133628184612ce5565b905095945050505050565b60006040820190506133826000830185612cc7565b61338f60208301846131e3565b9392505050565b60006020820190506133ab6000830184612cd6565b92915050565b60006020820190506133c66000830184612d1e565b92915050565b600060208201905081810360008301526133e68184612d2d565b905092915050565b6000602082019050818103600083015261340781612d97565b9050919050565b6000602082019050818103600083015261342781612dba565b9050919050565b6000602082019050818103600083015261344781612ddd565b9050919050565b6000602082019050818103600083015261346781612e00565b9050919050565b6000602082019050818103600083015261348781612e8c565b9050919050565b600060208201905081810360008301526134a781612eaf565b9050919050565b600060208201905081810360008301526134c781612ed2565b9050919050565b600060208201905081810360008301526134e781612f18565b9050919050565b6000602082019050818103600083015261350781612f81565b9050919050565b6000602082019050818103600083015261352781612fa4565b9050919050565b6000602082019050818103600083015261354781612fc7565b9050919050565b600060208201905081810360008301526135678161300d565b9050919050565b6000602082019050818103600083015261358781613030565b9050919050565b600060208201905081810360008301526135a781613053565b9050919050565b600060208201905081810360008301526135c781613076565b9050919050565b600060208201905081810360008301526135e781613099565b9050919050565b6000602082019050818103600083015261360781613102565b9050919050565b600060208201905081810360008301526136278161316b565b9050919050565b600060208201905081810360008301526136478161318e565b9050919050565b60006020820190508181036000830152613667816131b1565b9050919050565b600060208201905061368360008301846131d4565b92915050565b600060208201905061369e60008301846131e3565b92915050565b60006136ae6136bf565b90506136ba828261397e565b919050565b6000604051905090565b600067ffffffffffffffff8211156136e4576136e3613ab6565b5b6136ed82613ae5565b9050602081019050919050565b600081519050919050565b600081519050919050565b600082825260208201905092915050565b600082825260208201905092915050565b600081905092915050565b6000613748826138dc565b9150613753836138dc565b9250827fffffffffffffffffffffffffffffffffffffffffffffffffffffffffffffffff0382111561378857613787613a29565b5b828201905092915050565b600061379e826138dc565b91506137a9836138dc565b9250826137b9576137b8613a58565b5b828204905092915050565b60006137cf826138dc565b91506137da836138dc565b9250817fffffffffffffffffffffffffffffffffffffffffffffffffffffffffffffffff048311821515161561381357613812613a29565b5b828202905092915050565b6000613829826138dc565b9150613834836138dc565b92508282101561384757613846613a29565b5b828203905092915050565b600061385d826138bc565b9050919050565b600061386f826138bc565b9050919050565b60008115159050919050565b60007fffffffff0000000000000000000000000000000000000000000000000000000082169050919050565b600061ffff82169050919050565b600073ffffffffffffffffffffffffffffffffffffffff82169050919050565b6000819050919050565b60006138f1826138f8565b9050919050565b6000613903826138bc565b9050919050565b82818337600083830152505050565b60005b8381101561393757808201518184015260208101905061391c565b83811115613946576000848401525b50505050565b6000600282049050600182168061396457607f821691505b6020821081141561397857613977613a87565b5b50919050565b61398782613ae5565b810181811067ffffffffffffffff821117156139a6576139a5613ab6565b5b80604052505050565b60006139ba826138dc565b91507fffffffffffffffffffffffffffffffffffffffffffffffffffffffffffffffff8214156139ed576139ec613a29565b5b600182019050919050565b6000613a03826138dc565b9150613a0e836138dc565b925082613a1e57613a1d613a58565b5b828206905092915050565b7f4e487b7100000000000000000000000000000000000000000000000000000000600052601160045260246000fd5b7f4e487b7100000000000000000000000000000000000000000000000000000000600052601260045260246000fd5b7f4e487b7100000000000000000000000000000000000000000000000000000000600052602260045260246000fd5b7f4e487b7100000000000000000000000000000000000000000000000000000000600052604160045260246000fd5b6000601f19601f8301169050919050565b7f455243373231456e756d657261626c653a206f776e657220696e646578206f7560008201527f74206f6620626f756e6473000000000000000000000000000000000000000000602082015250565b7f4552433732313a207472616e7366657220746f206e6f6e20455243373231526560008201527f63656976657220696d706c656d656e7465720000000000000000000000000000602082015250565b7f4f776e61626c653a206e6577206f776e657220697320746865207a65726f206160008201527f6464726573730000000000000000000000000000000000000000000000000000602082015250565b7f4552433732313a20746f6b656e20616c7265616479206d696e74656400000000600082015250565b7f2c22696d616765223a2022646174613a696d6167652f7376672b786d6c3b626160008201527f736536342c000000000000000000000000000000000000000000000000000000602082015250565b7f226465736372697074696f6e223a2022506562626c65204c6f6f74206973206160008201527f207265616c20776f726c6420646174612073746f726564206f6e20636861696e60208201527f2e2053746174732c20696d616765732c20616e64206f746865722066756e637460408201527f696f6e616c6974792061726520696e74656e74696f6e616c6c79206f6d69747460608201527f656420666f72206f746865727320746f20696e746572707265742e204665656c60808201527f206672656520746f2075736520506562626c65204c6f6f7420696e20616e792060a08201527f77617920796f752077616e742e2200000000000000000000000000000000000060c082015250565b7f2c00000000000000000000000000000000000000000000000000000000000000600082015250565b7f4552433732313a207472616e7366657220746f20746865207a65726f2061646460008201527f7265737300000000000000000000000000000000000000000000000000000000602082015250565b7f4552433732313a20617070726f766520746f2063616c6c657200000000000000600082015250565b7f4552433732313a206f70657261746f7220717565727920666f72206e6f6e657860008201527f697374656e7420746f6b656e0000000000000000000000000000000000000000602082015250565b7f3c2f746578743e3c2f7376673e00000000000000000000000000000000000000600082015250565b7f4552433732313a20617070726f76652063616c6c6572206973206e6f74206f7760008201527f6e6572206e6f7220617070726f76656420666f7220616c6c0000000000000000602082015250565b7f2200000000000000000000000000000000000000000000000000000000000000600082015250565b7f3c73766720786d6c6e733d22687474703a2f2f7777772e77332e6f72672f323060008201527f30302f73766722207072657365727665417370656374526174696f3d22784d6960208201527f6e594d696e206d656574222076696577426f783d22302030203335302033353060408201527f223e3c7374796c653e2e62617365207b2066696c6c3a2077686974653b20666f60608201527f6e742d66616d696c793a2073657269663b20666f6e742d73697a653a2031347060808201527f783b207d3c2f7374796c653e3c726563742077696474683d223130302522206860a08201527f65696768743d2231303025222066696c6c3d22626c61636b22202f3e3c74657860c08201527f7420783d2231302220793d2232302220636c6173733d2262617365223e00000060e082015250565b7f4552433732313a2062616c616e636520717565727920666f7220746865207a6560008201527f726f206164647265737300000000000000000000000000000000000000000000602082015250565b7f4552433732313a206f776e657220717565727920666f72206e6f6e657869737460008201527f656e7420746f6b656e0000000000000000000000000000000000000000000000602082015250565b7f436c61696d3a20546f6b656e20494420697320696e76616c6964000000000000600082015250565b7f227d000000000000000000000000000000000000000000000000000000000000600082015250565b7f596f752073686f756c64206f776e207468652064657669636520746f206d696e60008201527f742074686973206c6f6f74000000000000000000000000000000000000000000602082015250565b7f4552433732313a206d696e7420746f20746865207a65726f2061646472657373600082015250565b7f4552433732313a20617070726f76656420717565727920666f72206e6f6e657860008201527f697374656e7420746f6b656e0000000000000000000000000000000000000000602082015250565b7f4f776e61626c653a2063616c6c6572206973206e6f7420746865206f776e6572600082015250565b7f4552433732313a207472616e73666572206f6620746f6b656e2074686174206960008201527f73206e6f74206f776e0000000000000000000000000000000000000000000000602082015250565b7f7b00000000000000000000000000000000000000000000000000000000000000600082015250565b7f226e616d65223a2022506562626c6520494d4549202300000000000000000000600082015250565b7f4552433732313a20617070726f76616c20746f2063757272656e74206f776e6560008201527f7200000000000000000000000000000000000000000000000000000000000000602082015250565b7f646174613a6170706c69636174696f6e2f6a736f6e3b6261736536342c000000600082015250565b7f506562626c65204c6f6f74202300000000000000000000000000000000000000600082015250565b7f4552433732313a207472616e736665722063616c6c6572206973206e6f74206f60008201527f776e6572206e6f7220617070726f766564000000000000000000000000000000602082015250565b7f455243373231456e756d657261626c653a20676c6f62616c20696e646578206f60008201527f7574206f6620626f756e64730000000000000000000000000000000000000000602082015250565b7f5265656e7472616e637947756172643a207265656e7472616e742063616c6c00600082015250565b61441e81613852565b811461442957600080fd5b50565b61443581613864565b811461444057600080fd5b50565b61444c81613876565b811461445757600080fd5b50565b61446381613882565b811461446e57600080fd5b50565b61447a816138ae565b811461448557600080fd5b50565b614491816138dc565b811461449c57600080fd5b5056fe4142434445464748494a4b4c4d4e4f505152535455565758595a6162636465666768696a6b6c6d6e6f707172737475767778797a303132333435363738392b2fa2646970667358221220d9682616051a2ec6b206bf2061ba9df64ff7022991c3d0897835326a4c6a7f4064736f6c63430008040033",
  "linkReferences": {},
  "deployedLinkReferences": {}
}