{
  "_format": "hh-sol-artifact-1",
  "contractName": "PebbleLoot",
  "sourceName": "contracts/PebbleLoot.sol",
  "abi": [
    {
      "inputs": [
        {
          "internalType": "address",
          "name": "_registration",
          "type": "address"
        },
        {
          "internalType": "address payable",
          "name": "_feeReceipient",
          "type": "address"
        }
      ],
      "stateMutability": "nonpayable",
      "type": "constructor"
    },
    {
      "anonymous": false,
      "inputs": [
        {
          "indexed": true,
          "internalType": "address",
          "name": "owner",
          "type": "address"
        },
        {
          "indexed": true,
          "internalType": "address",
          "name": "approved",
          "type": "address"
        },
        {
          "indexed": true,
          "internalType": "uint256",
          "name": "tokenId",
          "type": "uint256"
        }
      ],
      "name": "Approval",
      "type": "event"
    },
    {
      "anonymous": false,
      "inputs": [
        {
          "indexed": true,
          "internalType": "address",
          "name": "owner",
          "type": "address"
        },
        {
          "indexed": true,
          "internalType": "address",
          "name": "operator",
          "type": "address"
        },
        {
          "indexed": false,
          "internalType": "bool",
          "name": "approved",
          "type": "bool"
        }
      ],
      "name": "ApprovalForAll",
      "type": "event"
    },
    {
      "anonymous": false,
      "inputs": [
        {
          "indexed": true,
          "internalType": "address",
          "name": "feeReceipient",
          "type": "address"
        }
      ],
      "name": "FeeReceipientUpdated",
      "type": "event"
    },
    {
      "anonymous": false,
      "inputs": [
        {
          "indexed": false,
          "internalType": "uint16",
          "name": "mintingFee",
          "type": "uint16"
        }
      ],
      "name": "MintingFeeUpdated",
      "type": "event"
    },
    {
      "anonymous": false,
      "inputs": [
        {
          "indexed": true,
          "internalType": "address",
          "name": "previousOwner",
          "type": "address"
        },
        {
          "indexed": true,
          "internalType": "address",
          "name": "newOwner",
          "type": "address"
        }
      ],
      "name": "OwnershipTransferred",
      "type": "event"
    },
    {
      "anonymous": false,
      "inputs": [
        {
          "indexed": true,
          "internalType": "address",
          "name": "registration",
          "type": "address"
        }
      ],
      "name": "RegistrationUpdated",
      "type": "event"
    },
    {
      "anonymous": false,
      "inputs": [
        {
          "indexed": false,
          "internalType": "address",
          "name": "owner",
          "type": "address"
        },
        {
          "indexed": false,
          "internalType": "uint256",
          "name": "tokenId",
          "type": "uint256"
        }
      ],
      "name": "TokenMinted",
      "type": "event"
    },
    {
      "anonymous": false,
      "inputs": [
        {
          "indexed": true,
          "internalType": "address",
          "name": "from",
          "type": "address"
        },
        {
          "indexed": true,
          "internalType": "address",
          "name": "to",
          "type": "address"
        },
        {
          "indexed": true,
          "internalType": "uint256",
          "name": "tokenId",
          "type": "uint256"
        }
      ],
      "name": "Transfer",
      "type": "event"
    },
    {
      "inputs": [
        {
          "internalType": "address",
          "name": "to",
          "type": "address"
        },
        {
          "internalType": "uint256",
          "name": "tokenId",
          "type": "uint256"
        }
      ],
      "name": "approve",
      "outputs": [],
      "stateMutability": "nonpayable",
      "type": "function"
    },
    {
      "inputs": [
        {
          "internalType": "address",
          "name": "owner",
          "type": "address"
        }
      ],
      "name": "balanceOf",
      "outputs": [
        {
          "internalType": "uint256",
          "name": "",
          "type": "uint256"
        }
      ],
      "stateMutability": "view",
      "type": "function"
    },
    {
      "inputs": [
        {
          "internalType": "uint256",
          "name": "tokenId",
          "type": "uint256"
        }
      ],
      "name": "claim",
      "outputs": [],
      "stateMutability": "payable",
      "type": "function"
    },
    {
      "inputs": [],
      "name": "feeReceipient",
      "outputs": [
        {
          "internalType": "address payable",
          "name": "",
          "type": "address"
        }
      ],
      "stateMutability": "view",
      "type": "function"
    },
    {
      "inputs": [
        {
          "internalType": "uint256",
          "name": "tokenId",
          "type": "uint256"
        }
      ],
      "name": "getApproved",
      "outputs": [
        {
          "internalType": "address",
          "name": "",
          "type": "address"
        }
      ],
      "stateMutability": "view",
      "type": "function"
    },
    {
      "inputs": [
        {
          "internalType": "uint256",
          "name": "tokenId",
          "type": "uint256"
        }
      ],
      "name": "getSkin",
      "outputs": [
        {
          "internalType": "string",
          "name": "",
          "type": "string"
        }
      ],
      "stateMutability": "view",
      "type": "function"
    },
    {
      "inputs": [
        {
          "internalType": "address",
          "name": "owner",
          "type": "address"
        },
        {
          "internalType": "address",
          "name": "operator",
          "type": "address"
        }
      ],
      "name": "isApprovedForAll",
      "outputs": [
        {
          "internalType": "bool",
          "name": "",
          "type": "bool"
        }
      ],
      "stateMutability": "view",
      "type": "function"
    },
    {
      "inputs": [],
      "name": "mintingFee",
      "outputs": [
        {
          "internalType": "uint16",
          "name": "",
          "type": "uint16"
        }
      ],
      "stateMutability": "view",
      "type": "function"
    },
    {
      "inputs": [],
      "name": "name",
      "outputs": [
        {
          "internalType": "string",
          "name": "",
          "type": "string"
        }
      ],
      "stateMutability": "view",
      "type": "function"
    },
    {
      "inputs": [],
      "name": "owner",
      "outputs": [
        {
          "internalType": "address",
          "name": "",
          "type": "address"
        }
      ],
      "stateMutability": "view",
      "type": "function"
    },
    {
      "inputs": [
        {
          "internalType": "uint256",
          "name": "tokenId",
          "type": "uint256"
        }
      ],
      "name": "ownerOf",
      "outputs": [
        {
          "internalType": "address",
          "name": "",
          "type": "address"
        }
      ],
      "stateMutability": "view",
      "type": "function"
    },
    {
      "inputs": [],
      "name": "registration",
      "outputs": [
        {
          "internalType": "contract IRegistration",
          "name": "",
          "type": "address"
        }
      ],
      "stateMutability": "view",
      "type": "function"
    },
    {
      "inputs": [],
      "name": "renounceOwnership",
      "outputs": [],
      "stateMutability": "nonpayable",
      "type": "function"
    },
    {
      "inputs": [
        {
          "internalType": "address",
          "name": "from",
          "type": "address"
        },
        {
          "internalType": "address",
          "name": "to",
          "type": "address"
        },
        {
          "internalType": "uint256",
          "name": "tokenId",
          "type": "uint256"
        }
      ],
      "name": "safeTransferFrom",
      "outputs": [],
      "stateMutability": "nonpayable",
      "type": "function"
    },
    {
      "inputs": [
        {
          "internalType": "address",
          "name": "from",
          "type": "address"
        },
        {
          "internalType": "address",
          "name": "to",
          "type": "address"
        },
        {
          "internalType": "uint256",
          "name": "tokenId",
          "type": "uint256"
        },
        {
          "internalType": "bytes",
          "name": "_data",
          "type": "bytes"
        }
      ],
      "name": "safeTransferFrom",
      "outputs": [],
      "stateMutability": "nonpayable",
      "type": "function"
    },
    {
      "inputs": [
        {
          "internalType": "address",
          "name": "operator",
          "type": "address"
        },
        {
          "internalType": "bool",
          "name": "approved",
          "type": "bool"
        }
      ],
      "name": "setApprovalForAll",
      "outputs": [],
      "stateMutability": "nonpayable",
      "type": "function"
    },
    {
      "inputs": [
        {
          "internalType": "bytes4",
          "name": "interfaceId",
          "type": "bytes4"
        }
      ],
      "name": "supportsInterface",
      "outputs": [
        {
          "internalType": "bool",
          "name": "",
          "type": "bool"
        }
      ],
      "stateMutability": "view",
      "type": "function"
    },
    {
      "inputs": [],
      "name": "symbol",
      "outputs": [
        {
          "internalType": "string",
          "name": "",
          "type": "string"
        }
      ],
      "stateMutability": "view",
      "type": "function"
    },
    {
      "inputs": [
        {
          "internalType": "uint256",
          "name": "index",
          "type": "uint256"
        }
      ],
      "name": "tokenByIndex",
      "outputs": [
        {
          "internalType": "uint256",
          "name": "",
          "type": "uint256"
        }
      ],
      "stateMutability": "view",
      "type": "function"
    },
    {
      "inputs": [
        {
          "internalType": "address",
          "name": "owner",
          "type": "address"
        },
        {
          "internalType": "uint256",
          "name": "index",
          "type": "uint256"
        }
      ],
      "name": "tokenOfOwnerByIndex",
      "outputs": [
        {
          "internalType": "uint256",
          "name": "",
          "type": "uint256"
        }
      ],
      "stateMutability": "view",
      "type": "function"
    },
    {
      "inputs": [
        {
          "internalType": "uint256",
          "name": "tokenId",
          "type": "uint256"
        }
      ],
      "name": "tokenURI",
      "outputs": [
        {
          "internalType": "string",
          "name": "",
          "type": "string"
        }
      ],
      "stateMutability": "view",
      "type": "function"
    },
    {
      "inputs": [],
      "name": "totalSupply",
      "outputs": [
        {
          "internalType": "uint256",
          "name": "",
          "type": "uint256"
        }
      ],
      "stateMutability": "view",
      "type": "function"
    },
    {
      "inputs": [
        {
          "internalType": "address",
          "name": "from",
          "type": "address"
        },
        {
          "internalType": "address",
          "name": "to",
          "type": "address"
        },
        {
          "internalType": "uint256",
          "name": "tokenId",
          "type": "uint256"
        }
      ],
      "name": "transferFrom",
      "outputs": [],
      "stateMutability": "nonpayable",
      "type": "function"
    },
    {
      "inputs": [
        {
          "internalType": "address",
          "name": "newOwner",
          "type": "address"
        }
      ],
      "name": "transferOwnership",
      "outputs": [],
      "stateMutability": "nonpayable",
      "type": "function"
    },
    {
      "inputs": [
        {
          "internalType": "address payable",
          "name": "_feeReceipient",
          "type": "address"
        }
      ],
      "name": "updateFeeReceipient",
      "outputs": [],
      "stateMutability": "nonpayable",
      "type": "function"
    },
    {
      "inputs": [
        {
          "internalType": "uint16",
          "name": "_mintingFee",
          "type": "uint16"
        }
      ],
      "name": "updateMintingFee",
      "outputs": [],
      "stateMutability": "nonpayable",
      "type": "function"
    },
    {
      "inputs": [
        {
          "internalType": "address",
          "name": "_registration",
          "type": "address"
        }
      ],
      "name": "updateRegistration",
      "outputs": [],
      "stateMutability": "nonpayable",
      "type": "function"
    }
  ],
  "bytecode": "0x60806040526040518061016001604052806040518060400160405280600381526020017f436174000000000000000000000000000000000000000000000000000000000081525081526020016040518060400160405280600381526020017f446f67000000000000000000000000000000000000000000000000000000000081525081526020016040518060400160405280600481526020017f42756c6c0000000000000000000000000000000000000000000000000000000081525081526020016040518060400160405280600481526020017f426561720000000000000000000000000000000000000000000000000000000081525081526020016040518060400160405280600481526020017f576f6c660000000000000000000000000000000000000000000000000000000081525081526020016040518060400160405280600381526020017f466f78000000000000000000000000000000000000000000000000000000000081525081526020016040518060400160405280600781526020017f556e69636f726e0000000000000000000000000000000000000000000000000081525081526020016040518060400160405280600381526020017f417065000000000000000000000000000000000000000000000000000000000081525081526020016040518060400160405280600581526020017f536861726b00000000000000000000000000000000000000000000000000000081525081526020016040518060400160405280600481526020017f46726f670000000000000000000000000000000000000000000000000000000081525081526020016040518060400160405280600581526020017f5768616c65000000000000000000000000000000000000000000000000000000815250815250600e90600b620002a992919062000699565b506040518060c001604052806040518060400160405280600581526020017f426c61636b00000000000000000000000000000000000000000000000000000081525081526020016040518060400160405280600581526020017f576869746500000000000000000000000000000000000000000000000000000081525081526020016040518060400160405280600481526020017f426c75650000000000000000000000000000000000000000000000000000000081525081526020016040518060400160405280600381526020017f526564000000000000000000000000000000000000000000000000000000000081525081526020016040518060400160405280600681526020017f59656c6c6f77000000000000000000000000000000000000000000000000000081525081526020016040518060400160405280600481526020017f50696e6b00000000000000000000000000000000000000000000000000000000815250815250600f9060066200042792919062000700565b503480156200043557600080fd5b506040516200557d3803806200557d83398181016040528101906200045b9190620008b3565b6040518060400160405280600b81526020017f506562626c65204c6f6f740000000000000000000000000000000000000000008152506040518060400160405280600381526020017f504c5400000000000000000000000000000000000000000000000000000000008152508160009080519060200190620004df92919062000767565b508060019080519060200190620004f892919062000767565b50505060016006819055506200052362000517620005cb60201b60201c565b620005d360201b60201c565b81600c60006101000a81548173ffffffffffffffffffffffffffffffffffffffff021916908373ffffffffffffffffffffffffffffffffffffffff1602179055506000600c60146101000a81548161ffff021916908361ffff16021790555080600d60006101000a81548173ffffffffffffffffffffffffffffffffffffffff021916908373ffffffffffffffffffffffffffffffffffffffff1602179055505050620009d5565b600033905090565b6000600b60009054906101000a900473ffffffffffffffffffffffffffffffffffffffff16905081600b60006101000a81548173ffffffffffffffffffffffffffffffffffffffff021916908373ffffffffffffffffffffffffffffffffffffffff1602179055508173ffffffffffffffffffffffffffffffffffffffff168173ffffffffffffffffffffffffffffffffffffffff167f8be0079c531659141344cd1fd0a4f28419497f9722a3daafe3b4186f6b6457e060405160405180910390a35050565b828054828255906000526020600020908101928215620006ed579160200282015b82811115620006ec578251829080519060200190620006db92919062000767565b5091602001919060010190620006ba565b5b509050620006fc9190620007f8565b5090565b82805482825590600052602060002090810192821562000754579160200282015b82811115620007535782518290805190602001906200074292919062000767565b509160200191906001019062000721565b5b509050620007639190620007f8565b5090565b82805462000775906200093c565b90600052602060002090601f016020900481019282620007995760008555620007e5565b82601f10620007b457805160ff1916838001178555620007e5565b82800160010185558215620007e5579182015b82811115620007e4578251825591602001919060010190620007c7565b5b509050620007f4919062000820565b5090565b5b808211156200081c57600081816200081291906200083f565b50600101620007f9565b5090565b5b808211156200083b57600081600090555060010162000821565b5090565b5080546200084d906200093c565b6000825580601f1062000861575062000882565b601f01602090049060005260206000209081019062000881919062000820565b5b50565b6000815190506200089681620009a1565b92915050565b600081519050620008ad81620009bb565b92915050565b60008060408385031215620008c757600080fd5b6000620008d78582860162000885565b9250506020620008ea858286016200089c565b9150509250929050565b600062000901826200091c565b9050919050565b600062000915826200091c565b9050919050565b600073ffffffffffffffffffffffffffffffffffffffff82169050919050565b600060028204905060018216806200095557607f821691505b602082108114156200096c576200096b62000972565b5b50919050565b7f4e487b7100000000000000000000000000000000000000000000000000000000600052602260045260246000fd5b620009ac81620008f4565b8114620009b857600080fd5b50565b620009c68162000908565b8114620009d257600080fd5b50565b614b9880620009e56000396000f3fe60806040526004361061019c5760003560e01c80635c42690a116100ec578063a22cb4651161008a578063c87b56dd11610064578063c87b56dd146105cb578063e2fe652b14610608578063e985e9c514610631578063f2fde38b1461066e5761019c565b8063a22cb46514610550578063b244182f14610579578063b88d4fde146105a25761019c565b8063715018a6116100c6578063715018a6146104a65780638da5cb5b146104bd57806395d89b41146104e857806398e4f581146105135761019c565b80635c42690a146104035780636352211e1461042c57806370a08231146104695761019c565b80632f745c591161015957806342842e0e1161013357806342842e0e14610347578063443bd1d0146103705780634f6ccce71461039b5780635a64ad95146103d85761019c565b80632f745c59146102c35780633740ebb314610300578063379607f51461032b5761019c565b806301ffc9a7146101a157806306fdde03146101de578063081812fc14610209578063095ea7b31461024657806318160ddd1461026f57806323b872dd1461029a575b600080fd5b3480156101ad57600080fd5b506101c860048036038101906101c391906130eb565b610697565b6040516101d59190613958565b60405180910390f35b3480156101ea57600080fd5b506101f36106a9565b604051610200919061398e565b60405180910390f35b34801561021557600080fd5b50610230600480360381019061022b9190613166565b61073b565b60405161023d91906138ad565b60405180910390f35b34801561025257600080fd5b5061026d600480360381019061026891906130af565b6107c0565b005b34801561027b57600080fd5b506102846108d8565b6040516102919190613c6b565b60405180910390f35b3480156102a657600080fd5b506102c160048036038101906102bc9190612fa9565b6108e5565b005b3480156102cf57600080fd5b506102ea60048036038101906102e591906130af565b610945565b6040516102f79190613c6b565b60405180910390f35b34801561030c57600080fd5b506103156109ea565b60405161032291906138c8565b60405180910390f35b61034560048036038101906103409190613166565b610a10565b005b34801561035357600080fd5b5061036e60048036038101906103699190612fa9565b610c97565b005b34801561037c57600080fd5b50610385610cb7565b6040516103929190613973565b60405180910390f35b3480156103a757600080fd5b506103c260048036038101906103bd9190613166565b610cdd565b6040516103cf9190613c6b565b60405180910390f35b3480156103e457600080fd5b506103ed610d74565b6040516103fa9190613c50565b60405180910390f35b34801561040f57600080fd5b5061042a60048036038101906104259190612f08565b610d88565b005b34801561043857600080fd5b50610453600480360381019061044e9190613166565b610ead565b60405161046091906138ad565b60405180910390f35b34801561047557600080fd5b50610490600480360381019061048b9190612edf565b610f5f565b60405161049d9190613c6b565b60405180910390f35b3480156104b257600080fd5b506104bb611017565b005b3480156104c957600080fd5b506104d261109f565b6040516104df91906138ad565b60405180910390f35b3480156104f457600080fd5b506104fd6110c9565b60405161050a919061398e565b60405180910390f35b34801561051f57600080fd5b5061053a60048036038101906105359190613166565b61115b565b604051610547919061398e565b60405180910390f35b34801561055c57600080fd5b5061057760048036038101906105729190613073565b611275565b005b34801561058557600080fd5b506105a0600480360381019061059b9190612edf565b6113f6565b005b3480156105ae57600080fd5b506105c960048036038101906105c49190612ff8565b6114f9565b005b3480156105d757600080fd5b506105f260048036038101906105ed9190613166565b61155b565b6040516105ff919061398e565b60405180910390f35b34801561061457600080fd5b5061062f600480360381019061062a919061313d565b611647565b005b34801561063d57600080fd5b5061065860048036038101906106539190612f31565b61172a565b6040516106659190613958565b60405180910390f35b34801561067a57600080fd5b5061069560048036038101906106909190612edf565b6117be565b005b60006106a2826118b6565b9050919050565b6060600080546106b890613f2e565b80601f01602080910402602001604051908101604052809291908181526020018280546106e490613f2e565b80156107315780601f1061070657610100808354040283529160200191610731565b820191906000526020600020905b81548152906001019060200180831161071457829003601f168201915b5050505050905090565b600061074682611930565b610785576040517f08c379a000000000000000000000000000000000000000000000000000000000815260040161077c90613b70565b60405180910390fd5b6004600083815260200190815260200160002060009054906101000a900473ffffffffffffffffffffffffffffffffffffffff169050919050565b60006107cb82610ead565b90508073ffffffffffffffffffffffffffffffffffffffff168373ffffffffffffffffffffffffffffffffffffffff16141561083c576040517f08c379a000000000000000000000000000000000000000000000000000000000815260040161083390613bd0565b60405180910390fd5b8073ffffffffffffffffffffffffffffffffffffffff1661085b61199c565b73ffffffffffffffffffffffffffffffffffffffff16148061088a57506108898161088461199c565b61172a565b5b6108c9576040517f08c379a00000000000000000000000000000000000000000000000000000000081526004016108c090613ab0565b60405180910390fd5b6108d383836119a4565b505050565b6000600980549050905090565b6108f66108f061199c565b82611a5d565b610935576040517f08c379a000000000000000000000000000000000000000000000000000000000815260040161092c90613bf0565b60405180910390fd5b610940838383611b3b565b505050565b600061095083610f5f565b8210610991576040517f08c379a0000000000000000000000000000000000000000000000000000000008152600401610988906139b0565b60405180910390fd5b600760008473ffffffffffffffffffffffffffffffffffffffff1673ffffffffffffffffffffffffffffffffffffffff168152602001908152602001600020600083815260200190815260200160002054905092915050565b600d60009054906101000a900473ffffffffffffffffffffffffffffffffffffffff1681565b60026006541415610a56576040517f08c379a0000000000000000000000000000000000000000000000000000000008152600401610a4d90613c30565b60405180910390fd5b6002600681905550655af3107a3fff81118015610a79575066038d7ea4c6800081105b610ab8576040517f08c379a0000000000000000000000000000000000000000000000000000000008152600401610aaf90613b10565b60405180910390fd5b6000600c60009054906101000a900473ffffffffffffffffffffffffffffffffffffffff1673ffffffffffffffffffffffffffffffffffffffff166382b7b500610b0184611d97565b6040518263ffffffff1660e01b8152600401610b1d919061398e565b604080518083038186803b158015610b3457600080fd5b505afa158015610b48573d6000803e3d6000fd5b505050506040513d601f19601f82011682018060405250810190610b6c9190612f6d565b9150508073ffffffffffffffffffffffffffffffffffffffff16610b8e61199c565b73ffffffffffffffffffffffffffffffffffffffff1614610be4576040517f08c379a0000000000000000000000000000000000000000000000000000000008152600401610bdb90613b30565b60405180910390fd5b600c60149054906101000a900461ffff1661ffff163411610c3a576040517f08c379a0000000000000000000000000000000000000000000000000000000008152600401610c3190613a90565b60405180910390fd5b610c4b610c4561199c565b83611f44565b7fb9144c96c86541f6fa89c9f2f02495cccf4b08cd6643e26d34ee00aa586558a8610c7461199c565b83604051610c8392919061392f565b60405180910390a150600160068190555050565b610cb2838383604051806020016040528060008152506114f9565b505050565b600c60009054906101000a900473ffffffffffffffffffffffffffffffffffffffff1681565b6000610ce76108d8565b8210610d28576040517f08c379a0000000000000000000000000000000000000000000000000000000008152600401610d1f90613c10565b60405180910390fd5b60098281548110610d62577f4e487b7100000000000000000000000000000000000000000000000000000000600052603260045260246000fd5b90600052602060002001549050919050565b600c60149054906101000a900461ffff1681565b610d9061199c565b73ffffffffffffffffffffffffffffffffffffffff16610dae61109f565b73ffffffffffffffffffffffffffffffffffffffff1614610e04576040517f08c379a0000000000000000000000000000000000000000000000000000000008152600401610dfb90613b90565b60405180910390fd5b80600d60006101000a81548173ffffffffffffffffffffffffffffffffffffffff021916908373ffffffffffffffffffffffffffffffffffffffff160217905550600d60009054906101000a900473ffffffffffffffffffffffffffffffffffffffff1673ffffffffffffffffffffffffffffffffffffffff167f4e8038c85ccd41777ff692b6d98418aa13b143d93efc1299f794a9f646bc64d460405160405180910390a250565b6000806002600084815260200190815260200160002060009054906101000a900473ffffffffffffffffffffffffffffffffffffffff169050600073ffffffffffffffffffffffffffffffffffffffff168173ffffffffffffffffffffffffffffffffffffffff161415610f56576040517f08c379a0000000000000000000000000000000000000000000000000000000008152600401610f4d90613af0565b60405180910390fd5b80915050919050565b60008073ffffffffffffffffffffffffffffffffffffffff168273ffffffffffffffffffffffffffffffffffffffff161415610fd0576040517f08c379a0000000000000000000000000000000000000000000000000000000008152600401610fc790613ad0565b60405180910390fd5b600360008373ffffffffffffffffffffffffffffffffffffffff1673ffffffffffffffffffffffffffffffffffffffff168152602001908152602001600020549050919050565b61101f61199c565b73ffffffffffffffffffffffffffffffffffffffff1661103d61109f565b73ffffffffffffffffffffffffffffffffffffffff1614611093576040517f08c379a000000000000000000000000000000000000000000000000000000000815260040161108a90613b90565b60405180910390fd5b61109d6000611f62565b565b6000600b60009054906101000a900473ffffffffffffffffffffffffffffffffffffffff16905090565b6060600180546110d890613f2e565b80601f016020809104026020016040519081016040528092919081815260200182805461110490613f2e565b80156111515780601f1061112657610100808354040283529160200191611151565b820191906000526020600020905b81548152906001019060200180831161113457829003601f168201915b5050505050905090565b606061126e826040518060400160405280600481526020017f534b494e00000000000000000000000000000000000000000000000000000000815250600e805480602002602001604051908101604052809291908181526020016000905b828210156112655783829060005260206000200180546111d890613f2e565b80601f016020809104026020016040519081016040528092919081815260200182805461120490613f2e565b80156112515780601f1061122657610100808354040283529160200191611251565b820191906000526020600020905b81548152906001019060200180831161123457829003601f168201915b5050505050815260200190600101906111b9565b50505050612028565b9050919050565b61127d61199c565b73ffffffffffffffffffffffffffffffffffffffff168273ffffffffffffffffffffffffffffffffffffffff1614156112eb576040517f08c379a00000000000000000000000000000000000000000000000000000000081526004016112e290613a50565b60405180910390fd5b80600560006112f861199c565b73ffffffffffffffffffffffffffffffffffffffff1673ffffffffffffffffffffffffffffffffffffffff16815260200190815260200160002060008473ffffffffffffffffffffffffffffffffffffffff1673ffffffffffffffffffffffffffffffffffffffff16815260200190815260200160002060006101000a81548160ff0219169083151502179055508173ffffffffffffffffffffffffffffffffffffffff166113a561199c565b73ffffffffffffffffffffffffffffffffffffffff167f17307eab39ab6107e8899845ad3d59bd9653f200f220920489ca2b5937696c31836040516113ea9190613958565b60405180910390a35050565b6113fe61199c565b73ffffffffffffffffffffffffffffffffffffffff1661141c61109f565b73ffffffffffffffffffffffffffffffffffffffff1614611472576040517f08c379a000000000000000000000000000000000000000000000000000000000815260040161146990613b90565b60405180910390fd5b80600c60006101000a81548173ffffffffffffffffffffffffffffffffffffffff021916908373ffffffffffffffffffffffffffffffffffffffff1602179055508073ffffffffffffffffffffffffffffffffffffffff167f66c44ed44539e6dc2bc1ea4e99d92ba5e32f155fdffb7918b6db51ceb2d2679b60405160405180910390a250565b61150a61150461199c565b83611a5d565b611549576040517f08c379a000000000000000000000000000000000000000000000000000000000815260040161154090613bf0565b60405180910390fd5b611555848484846121c2565b50505050565b6060600061156883611d97565b6115718461115b565b6040516020016115829291906137b1565b6040516020818303038152906040529050600061159e84611d97565b6040516020016115ae919061385e565b604051602081830303815290604052905060006040516020016115d09061379c565b6040516020818303038152906040529050600061161783836115f18761221e565b60405160200161160393929190613801565b60405160208183030381529060405261221e565b90508060405160200161162a919061388b565b604051602081830303815290604052935083945050505050919050565b61164f61199c565b73ffffffffffffffffffffffffffffffffffffffff1661166d61109f565b73ffffffffffffffffffffffffffffffffffffffff16146116c3576040517f08c379a00000000000000000000000000000000000000000000000000000000081526004016116ba90613b90565b60405180910390fd5b80600c60146101000a81548161ffff021916908361ffff1602179055507fbbd22b3a548d3c1db4a7e35148eba9ecd2834d9ba502855fd010e3f0a92d4c52600c60149054906101000a900461ffff1660405161171f9190613c50565b60405180910390a150565b6000600560008473ffffffffffffffffffffffffffffffffffffffff1673ffffffffffffffffffffffffffffffffffffffff16815260200190815260200160002060008373ffffffffffffffffffffffffffffffffffffffff1673ffffffffffffffffffffffffffffffffffffffff16815260200190815260200160002060009054906101000a900460ff16905092915050565b6117c661199c565b73ffffffffffffffffffffffffffffffffffffffff166117e461109f565b73ffffffffffffffffffffffffffffffffffffffff161461183a576040517f08c379a000000000000000000000000000000000000000000000000000000000815260040161183190613b90565b60405180910390fd5b600073ffffffffffffffffffffffffffffffffffffffff168173ffffffffffffffffffffffffffffffffffffffff1614156118aa576040517f08c379a00000000000000000000000000000000000000000000000000000000081526004016118a1906139f0565b60405180910390fd5b6118b381611f62565b50565b60007f780e9d63000000000000000000000000000000000000000000000000000000007bffffffffffffffffffffffffffffffffffffffffffffffffffffffff1916827bffffffffffffffffffffffffffffffffffffffffffffffffffffffff191614806119295750611928826123dc565b5b9050919050565b60008073ffffffffffffffffffffffffffffffffffffffff166002600084815260200190815260200160002060009054906101000a900473ffffffffffffffffffffffffffffffffffffffff1673ffffffffffffffffffffffffffffffffffffffff1614159050919050565b600033905090565b816004600083815260200190815260200160002060006101000a81548173ffffffffffffffffffffffffffffffffffffffff021916908373ffffffffffffffffffffffffffffffffffffffff160217905550808273ffffffffffffffffffffffffffffffffffffffff16611a1783610ead565b73ffffffffffffffffffffffffffffffffffffffff167f8c5be1e5ebec7d5bd14f71427d1e84f3dd0314c0f7b2291e5b200ac8c7c3b92560405160405180910390a45050565b6000611a6882611930565b611aa7576040517f08c379a0000000000000000000000000000000000000000000000000000000008152600401611a9e90613a70565b60405180910390fd5b6000611ab283610ead565b90508073ffffffffffffffffffffffffffffffffffffffff168473ffffffffffffffffffffffffffffffffffffffff161480611b2157508373ffffffffffffffffffffffffffffffffffffffff16611b098461073b565b73ffffffffffffffffffffffffffffffffffffffff16145b80611b325750611b31818561172a565b5b91505092915050565b8273ffffffffffffffffffffffffffffffffffffffff16611b5b82610ead565b73ffffffffffffffffffffffffffffffffffffffff1614611bb1576040517f08c379a0000000000000000000000000000000000000000000000000000000008152600401611ba890613bb0565b60405180910390fd5b600073ffffffffffffffffffffffffffffffffffffffff168273ffffffffffffffffffffffffffffffffffffffff161415611c21576040517f08c379a0000000000000000000000000000000000000000000000000000000008152600401611c1890613a30565b60405180910390fd5b611c2c8383836124be565b611c376000826119a4565b6001600360008573ffffffffffffffffffffffffffffffffffffffff1673ffffffffffffffffffffffffffffffffffffffff1681526020019081526020016000206000828254611c879190613e00565b925050819055506001600360008473ffffffffffffffffffffffffffffffffffffffff1673ffffffffffffffffffffffffffffffffffffffff1681526020019081526020016000206000828254611cde9190613d1f565b92505081905550816002600083815260200190815260200160002060006101000a81548173ffffffffffffffffffffffffffffffffffffffff021916908373ffffffffffffffffffffffffffffffffffffffff160217905550808273ffffffffffffffffffffffffffffffffffffffff168473ffffffffffffffffffffffffffffffffffffffff167fddf252ad1be2c89b69c2b068fc378daa952ba7f163c4a11628f55a4df523b3ef60405160405180910390a4505050565b60606000821415611ddf576040518060400160405280600181526020017f30000000000000000000000000000000000000000000000000000000000000008152509050611f3f565b600082905060005b60008214611e11578080611dfa90613f91565b915050600a82611e0a9190613d75565b9150611de7565b60008167ffffffffffffffff811115611e53577f4e487b7100000000000000000000000000000000000000000000000000000000600052604160045260246000fd5b6040519080825280601f01601f191660200182016040528015611e855781602001600182028036833780820191505090505b5090505b60008514611f3857600182611e9e9190613e00565b9150600a85611ead9190613fda565b6030611eb99190613d1f565b60f81b818381518110611ef5577f4e487b7100000000000000000000000000000000000000000000000000000000600052603260045260246000fd5b60200101907effffffffffffffffffffffffffffffffffffffffffffffffffffffffffffff1916908160001a905350600a85611f319190613d75565b9450611e89565b8093505050505b919050565b611f5e8282604051806020016040528060008152506124ce565b5050565b6000600b60009054906101000a900473ffffffffffffffffffffffffffffffffffffffff16905081600b60006101000a81548173ffffffffffffffffffffffffffffffffffffffff021916908373ffffffffffffffffffffffffffffffffffffffff1602179055508173ffffffffffffffffffffffffffffffffffffffff168173ffffffffffffffffffffffffffffffffffffffff167f8be0079c531659141344cd1fd0a4f28419497f9722a3daafe3b4186f6b6457e060405160405180910390a35050565b6060600061205e8461203987611d97565b60405160200161204a929190613749565b604051602081830303815290604052612529565b90506000838451836120709190613fda565b815181106120a7577f4e487b7100000000000000000000000000000000000000000000000000000000600052603260045260246000fd5b602002602001015190506000600f8080549050846120c59190613fda565b815481106120fc577f4e487b7100000000000000000000000000000000000000000000000000000000600052603260045260246000fd5b90600052602060002001805461211190613f2e565b80601f016020809104026020016040519081016040528092919081815260200182805461213d90613f2e565b801561218a5780601f1061215f5761010080835404028352916020019161218a565b820191906000526020600020905b81548152906001019060200180831161216d57829003601f168201915b5050505050905080826040516020016121a492919061376d565b60405160208183030381529060405291508193505050509392505050565b6121cd848484611b3b565b6121d98484848461255c565b612218576040517f08c379a000000000000000000000000000000000000000000000000000000000815260040161220f906139d0565b60405180910390fd5b50505050565b6060600082519050600081141561224757604051806020016040528060008152509150506123d7565b600060036002836122589190613d1f565b6122629190613d75565b600461226e9190613da6565b9050600060208261227f9190613d1f565b67ffffffffffffffff8111156122be577f4e487b7100000000000000000000000000000000000000000000000000000000600052604160045260246000fd5b6040519080825280601f01601f1916602001820160405280156122f05781602001600182028036833780820191505090505b5090506000604051806060016040528060408152602001614b23604091399050600181016020830160005b868110156123945760038101905062ffffff818a015116603f8160121c168401518060081b905060ff603f83600c1c1686015116810190508060081b905060ff603f8360061c1686015116810190508060081b905060ff603f831686015116810190508060e01b9050808452600484019350505061231b565b5060038606600181146123ae57600281146123be576123c9565b613d3d60f01b60028303526123c9565b603d60f81b60018303525b508484525050819450505050505b919050565b60007f80ac58cd000000000000000000000000000000000000000000000000000000007bffffffffffffffffffffffffffffffffffffffffffffffffffffffff1916827bffffffffffffffffffffffffffffffffffffffffffffffffffffffff191614806124a757507f5b5e139f000000000000000000000000000000000000000000000000000000007bffffffffffffffffffffffffffffffffffffffffffffffffffffffff1916827bffffffffffffffffffffffffffffffffffffffffffffffffffffffff1916145b806124b757506124b6826126f3565b5b9050919050565b6124c983838361275d565b505050565b6124d88383612871565b6124e5600084848461255c565b612524576040517f08c379a000000000000000000000000000000000000000000000000000000000815260040161251b906139d0565b60405180910390fd5b505050565b60008160405160200161253c9190613732565b6040516020818303038152906040528051906020012060001c9050919050565b600061257d8473ffffffffffffffffffffffffffffffffffffffff16612a3f565b156126e6578373ffffffffffffffffffffffffffffffffffffffff1663150b7a026125a661199c565b8786866040518563ffffffff1660e01b81526004016125c894939291906138e3565b602060405180830381600087803b1580156125e257600080fd5b505af192505050801561261357506040513d601f19601f820116820180604052508101906126109190613114565b60015b612696573d8060008114612643576040519150601f19603f3d011682016040523d82523d6000602084013e612648565b606091505b5060008151141561268e576040517f08c379a0000000000000000000000000000000000000000000000000000000008152600401612685906139d0565b60405180910390fd5b805181602001fd5b63150b7a0260e01b7bffffffffffffffffffffffffffffffffffffffffffffffffffffffff1916817bffffffffffffffffffffffffffffffffffffffffffffffffffffffff1916149150506126eb565b600190505b949350505050565b60007f01ffc9a7000000000000000000000000000000000000000000000000000000007bffffffffffffffffffffffffffffffffffffffffffffffffffffffff1916827bffffffffffffffffffffffffffffffffffffffffffffffffffffffff1916149050919050565b612768838383612a52565b600073ffffffffffffffffffffffffffffffffffffffff168373ffffffffffffffffffffffffffffffffffffffff1614156127ab576127a681612a57565b6127ea565b8173ffffffffffffffffffffffffffffffffffffffff168373ffffffffffffffffffffffffffffffffffffffff16146127e9576127e88382612aa0565b5b5b600073ffffffffffffffffffffffffffffffffffffffff168273ffffffffffffffffffffffffffffffffffffffff16141561282d5761282881612c0d565b61286c565b8273ffffffffffffffffffffffffffffffffffffffff168273ffffffffffffffffffffffffffffffffffffffff161461286b5761286a8282612d50565b5b5b505050565b600073ffffffffffffffffffffffffffffffffffffffff168273ffffffffffffffffffffffffffffffffffffffff1614156128e1576040517f08c379a00000000000000000000000000000000000000000000000000000000081526004016128d890613b50565b60405180910390fd5b6128ea81611930565b1561292a576040517f08c379a000000000000000000000000000000000000000000000000000000000815260040161292190613a10565b60405180910390fd5b612936600083836124be565b6001600360008473ffffffffffffffffffffffffffffffffffffffff1673ffffffffffffffffffffffffffffffffffffffff16815260200190815260200160002060008282546129869190613d1f565b92505081905550816002600083815260200190815260200160002060006101000a81548173ffffffffffffffffffffffffffffffffffffffff021916908373ffffffffffffffffffffffffffffffffffffffff160217905550808273ffffffffffffffffffffffffffffffffffffffff16600073ffffffffffffffffffffffffffffffffffffffff167fddf252ad1be2c89b69c2b068fc378daa952ba7f163c4a11628f55a4df523b3ef60405160405180910390a45050565b600080823b905060008111915050919050565b505050565b600980549050600a600083815260200190815260200160002081905550600981908060018154018082558091505060019003906000526020600020016000909190919091505550565b60006001612aad84610f5f565b612ab79190613e00565b9050600060086000848152602001908152602001600020549050818114612b9c576000600760008673ffffffffffffffffffffffffffffffffffffffff1673ffffffffffffffffffffffffffffffffffffffff168152602001908152602001600020600084815260200190815260200160002054905080600760008773ffffffffffffffffffffffffffffffffffffffff1673ffffffffffffffffffffffffffffffffffffffff168152602001908152602001600020600084815260200190815260200160002081905550816008600083815260200190815260200160002081905550505b6008600084815260200190815260200160002060009055600760008573ffffffffffffffffffffffffffffffffffffffff1673ffffffffffffffffffffffffffffffffffffffff16815260200190815260200160002060008381526020019081526020016000206000905550505050565b60006001600980549050612c219190613e00565b90506000600a6000848152602001908152602001600020549050600060098381548110612c77577f4e487b7100000000000000000000000000000000000000000000000000000000600052603260045260246000fd5b906000526020600020015490508060098381548110612cbf577f4e487b7100000000000000000000000000000000000000000000000000000000600052603260045260246000fd5b906000526020600020018190555081600a600083815260200190815260200160002081905550600a6000858152602001908152602001600020600090556009805480612d34577f4e487b7100000000000000000000000000000000000000000000000000000000600052603160045260246000fd5b6001900381819060005260206000200160009055905550505050565b6000612d5b83610f5f565b905081600760008573ffffffffffffffffffffffffffffffffffffffff1673ffffffffffffffffffffffffffffffffffffffff168152602001908152602001600020600083815260200190815260200160002081905550806008600084815260200190815260200160002081905550505050565b6000612de2612ddd84613cab565b613c86565b905082815260208101848484011115612dfa57600080fd5b612e05848285613eec565b509392505050565b600081359050612e1c81614a98565b92915050565b600081519050612e3181614a98565b92915050565b600081359050612e4681614aaf565b92915050565b600081359050612e5b81614ac6565b92915050565b600081359050612e7081614add565b92915050565b600081519050612e8581614add565b92915050565b600082601f830112612e9c57600080fd5b8135612eac848260208601612dcf565b91505092915050565b600081359050612ec481614af4565b92915050565b600081359050612ed981614b0b565b92915050565b600060208284031215612ef157600080fd5b6000612eff84828501612e0d565b91505092915050565b600060208284031215612f1a57600080fd5b6000612f2884828501612e37565b91505092915050565b60008060408385031215612f4457600080fd5b6000612f5285828601612e0d565b9250506020612f6385828601612e0d565b9150509250929050565b60008060408385031215612f8057600080fd5b6000612f8e85828601612e22565b9250506020612f9f85828601612e22565b9150509250929050565b600080600060608486031215612fbe57600080fd5b6000612fcc86828701612e0d565b9350506020612fdd86828701612e0d565b9250506040612fee86828701612eca565b9150509250925092565b6000806000806080858703121561300e57600080fd5b600061301c87828801612e0d565b945050602061302d87828801612e0d565b935050604061303e87828801612eca565b925050606085013567ffffffffffffffff81111561305b57600080fd5b61306787828801612e8b565b91505092959194509250565b6000806040838503121561308657600080fd5b600061309485828601612e0d565b92505060206130a585828601612e4c565b9150509250929050565b600080604083850312156130c257600080fd5b60006130d085828601612e0d565b92505060206130e185828601612eca565b9150509250929050565b6000602082840312156130fd57600080fd5b600061310b84828501612e61565b91505092915050565b60006020828403121561312657600080fd5b600061313484828501612e76565b91505092915050565b60006020828403121561314f57600080fd5b600061315d84828501612eb5565b91505092915050565b60006020828403121561317857600080fd5b600061318684828501612eca565b91505092915050565b61319881613e46565b82525050565b6131a781613e34565b82525050565b6131b681613e58565b82525050565b60006131c782613cdc565b6131d18185613cf2565b93506131e1818560208601613efb565b6131ea816140c7565b840191505092915050565b6131fe81613ec8565b82525050565b600061320f82613ce7565b6132198185613d03565b9350613229818560208601613efb565b613232816140c7565b840191505092915050565b600061324882613ce7565b6132528185613d14565b9350613262818560208601613efb565b80840191505092915050565b600061327b602b83613d03565b9150613286826140d8565b604082019050919050565b600061329e603283613d03565b91506132a982614127565b604082019050919050565b60006132c1602683613d03565b91506132cc82614176565b604082019050919050565b60006132e4601c83613d03565b91506132ef826141c5565b602082019050919050565b6000613307602583613d14565b9150613312826141ee565b602582019050919050565b600061332a60ce83613d14565b91506133358261423d565b60ce82019050919050565b600061334d600183613d14565b91506133588261434a565b600182019050919050565b6000613370602483613d03565b915061337b82614373565b604082019050919050565b6000613393601983613d03565b915061339e826143c2565b602082019050919050565b60006133b6602c83613d03565b91506133c1826143eb565b604082019050919050565b60006133d9600d83613d14565b91506133e48261443a565b600d82019050919050565b60006133fc601d83613d03565b915061340782614463565b602082019050919050565b600061341f603883613d03565b915061342a8261448c565b604082019050919050565b6000613442600183613d14565b915061344d826144db565b600182019050919050565b600061346560fd83613d14565b915061347082614504565b60fd82019050919050565b6000613488602a83613d03565b915061349382614637565b604082019050919050565b60006134ab602983613d03565b91506134b682614686565b604082019050919050565b60006134ce600d83613d14565b91506134d9826146d5565b600d82019050919050565b60006134f1601a83613d03565b91506134fc826146fe565b602082019050919050565b6000613514600283613d14565b915061351f82614727565b600282019050919050565b6000613537602b83613d03565b915061354282614750565b604082019050919050565b600061355a602083613d03565b91506135658261479f565b602082019050919050565b600061357d602c83613d03565b9150613588826147c8565b604082019050919050565b60006135a0600583613d14565b91506135ab82614817565b600582019050919050565b60006135c3602083613d03565b91506135ce82614840565b602082019050919050565b60006135e6602983613d03565b91506135f182614869565b604082019050919050565b6000613609600183613d14565b9150613614826148b8565b600182019050919050565b600061362c601683613d14565b9150613637826148e1565b601682019050919050565b600061364f602183613d03565b915061365a8261490a565b604082019050919050565b6000613672601d83613d14565b915061367d82614959565b601d82019050919050565b6000613695603183613d03565b91506136a082614982565b604082019050919050565b60006136b8602c83613d03565b91506136c3826149d1565b604082019050919050565b60006136db602883613d14565b91506136e682614a20565b602882019050919050565b60006136fe601f83613d03565b915061370982614a6f565b602082019050919050565b61371d81613e90565b82525050565b61372c81613ebe565b82525050565b600061373e828461323d565b915081905092915050565b6000613755828561323d565b9150613761828461323d565b91508190509392505050565b6000613779828561323d565b915061378482613593565b9150613790828461323d565b91508190509392505050565b60006137a78261331d565b9150819050919050565b60006137bc82613458565b91506137c7826134c1565b91506137d3828561323d565b91506137de826136ce565b91506137ea828461323d565b91506137f5826133cc565b91508190509392505050565b600061380c826135fc565b9150613818828661323d565b915061382382613340565b915061382f828561323d565b915061383a826132fa565b9150613846828461323d565b915061385182613507565b9150819050949350505050565b60006138698261361f565b9150613875828461323d565b915061388082613435565b915081905092915050565b600061389682613665565b91506138a2828461323d565b915081905092915050565b60006020820190506138c2600083018461319e565b92915050565b60006020820190506138dd600083018461318f565b92915050565b60006080820190506138f8600083018761319e565b613905602083018661319e565b6139126040830185613723565b818103606083015261392481846131bc565b905095945050505050565b6000604082019050613944600083018561319e565b6139516020830184613723565b9392505050565b600060208201905061396d60008301846131ad565b92915050565b600060208201905061398860008301846131f5565b92915050565b600060208201905081810360008301526139a88184613204565b905092915050565b600060208201905081810360008301526139c98161326e565b9050919050565b600060208201905081810360008301526139e981613291565b9050919050565b60006020820190508181036000830152613a09816132b4565b9050919050565b60006020820190508181036000830152613a29816132d7565b9050919050565b60006020820190508181036000830152613a4981613363565b9050919050565b60006020820190508181036000830152613a6981613386565b9050919050565b60006020820190508181036000830152613a89816133a9565b9050919050565b60006020820190508181036000830152613aa9816133ef565b9050919050565b60006020820190508181036000830152613ac981613412565b9050919050565b60006020820190508181036000830152613ae98161347b565b9050919050565b60006020820190508181036000830152613b098161349e565b9050919050565b60006020820190508181036000830152613b29816134e4565b9050919050565b60006020820190508181036000830152613b498161352a565b9050919050565b60006020820190508181036000830152613b698161354d565b9050919050565b60006020820190508181036000830152613b8981613570565b9050919050565b60006020820190508181036000830152613ba9816135b6565b9050919050565b60006020820190508181036000830152613bc9816135d9565b9050919050565b60006020820190508181036000830152613be981613642565b9050919050565b60006020820190508181036000830152613c0981613688565b9050919050565b60006020820190508181036000830152613c29816136ab565b9050919050565b60006020820190508181036000830152613c49816136f1565b9050919050565b6000602082019050613c656000830184613714565b92915050565b6000602082019050613c806000830184613723565b92915050565b6000613c90613ca1565b9050613c9c8282613f60565b919050565b6000604051905090565b600067ffffffffffffffff821115613cc657613cc5614098565b5b613ccf826140c7565b9050602081019050919050565b600081519050919050565b600081519050919050565b600082825260208201905092915050565b600082825260208201905092915050565b600081905092915050565b6000613d2a82613ebe565b9150613d3583613ebe565b9250827fffffffffffffffffffffffffffffffffffffffffffffffffffffffffffffffff03821115613d6a57613d6961400b565b5b828201905092915050565b6000613d8082613ebe565b9150613d8b83613ebe565b925082613d9b57613d9a61403a565b5b828204905092915050565b6000613db182613ebe565b9150613dbc83613ebe565b9250817fffffffffffffffffffffffffffffffffffffffffffffffffffffffffffffffff0483118215151615613df557613df461400b565b5b828202905092915050565b6000613e0b82613ebe565b9150613e1683613ebe565b925082821015613e2957613e2861400b565b5b828203905092915050565b6000613e3f82613e9e565b9050919050565b6000613e5182613e9e565b9050919050565b60008115159050919050565b60007fffffffff0000000000000000000000000000000000000000000000000000000082169050919050565b600061ffff82169050919050565b600073ffffffffffffffffffffffffffffffffffffffff82169050919050565b6000819050919050565b6000613ed382613eda565b9050919050565b6000613ee582613e9e565b9050919050565b82818337600083830152505050565b60005b83811015613f19578082015181840152602081019050613efe565b83811115613f28576000848401525b50505050565b60006002820490506001821680613f4657607f821691505b60208210811415613f5a57613f59614069565b5b50919050565b613f69826140c7565b810181811067ffffffffffffffff82111715613f8857613f87614098565b5b80604052505050565b6000613f9c82613ebe565b91507fffffffffffffffffffffffffffffffffffffffffffffffffffffffffffffffff821415613fcf57613fce61400b565b5b600182019050919050565b6000613fe582613ebe565b9150613ff083613ebe565b92508261400057613fff61403a565b5b828206905092915050565b7f4e487b7100000000000000000000000000000000000000000000000000000000600052601160045260246000fd5b7f4e487b7100000000000000000000000000000000000000000000000000000000600052601260045260246000fd5b7f4e487b7100000000000000000000000000000000000000000000000000000000600052602260045260246000fd5b7f4e487b7100000000000000000000000000000000000000000000000000000000600052604160045260246000fd5b6000601f19601f8301169050919050565b7f455243373231456e756d657261626c653a206f776e657220696e646578206f7560008201527f74206f6620626f756e6473000000000000000000000000000000000000000000602082015250565b7f4552433732313a207472616e7366657220746f206e6f6e20455243373231526560008201527f63656976657220696d706c656d656e7465720000000000000000000000000000602082015250565b7f4f776e61626c653a206e6577206f776e657220697320746865207a65726f206160008201527f6464726573730000000000000000000000000000000000000000000000000000602082015250565b7f4552433732313a20746f6b656e20616c7265616479206d696e74656400000000600082015250565b7f2c22696d616765223a2022646174613a696d6167652f7376672b786d6c3b626160008201527f736536342c000000000000000000000000000000000000000000000000000000602082015250565b7f226465736372697074696f6e223a2022506562626c65204c6f6f74206973206160008201527f207265616c20776f726c6420646174612073746f726564206f6e20636861696e60208201527f2e2053746174732c20696d616765732c20616e64206f746865722066756e637460408201527f696f6e616c6974792061726520696e74656e74696f6e616c6c79206f6d69747460608201527f656420666f72206f746865727320746f20696e746572707265742e204665656c60808201527f206672656520746f2075736520506562626c65204c6f6f7420696e20616e792060a08201527f77617920796f752077616e742e2200000000000000000000000000000000000060c082015250565b7f2c00000000000000000000000000000000000000000000000000000000000000600082015250565b7f4552433732313a207472616e7366657220746f20746865207a65726f2061646460008201527f7265737300000000000000000000000000000000000000000000000000000000602082015250565b7f4552433732313a20617070726f766520746f2063616c6c657200000000000000600082015250565b7f4552433732313a206f70657261746f7220717565727920666f72206e6f6e657860008201527f697374656e7420746f6b656e0000000000000000000000000000000000000000602082015250565b7f3c2f746578743e3c2f7376673e00000000000000000000000000000000000000600082015250565b7f436c61696d3a206e6f7420656e6f756768206d696e74696e6720666565000000600082015250565b7f4552433732313a20617070726f76652063616c6c6572206973206e6f74206f7760008201527f6e6572206e6f7220617070726f76656420666f7220616c6c0000000000000000602082015250565b7f2200000000000000000000000000000000000000000000000000000000000000600082015250565b7f3c73766720786d6c6e733d22687474703a2f2f7777772e77332e6f72672f323060008201527f30302f73766722207072657365727665417370656374526174696f3d22784d6960208201527f6e594d696e206d656574222076696577426f783d22302030203335302033353060408201527f223e3c7374796c653e2e62617365207b2066696c6c3a2077686974653b20666f60608201527f6e742d66616d696c793a2073657269663b20666f6e742d73697a653a2031347060808201527f783b207d3c2f7374796c653e3c726563742077696474683d223130302522206860a08201527f65696768743d2231303025222066696c6c3d22626c61636b22202f3e3c74657860c08201527f7420783d2231302220793d2232302220636c6173733d2262617365223e00000060e082015250565b7f4552433732313a2062616c616e636520717565727920666f7220746865207a6560008201527f726f206164647265737300000000000000000000000000000000000000000000602082015250565b7f4552433732313a206f776e657220717565727920666f72206e6f6e657869737460008201527f656e7420746f6b656e0000000000000000000000000000000000000000000000602082015250565b7f506562626c6520536f756c202300000000000000000000000000000000000000600082015250565b7f436c61696d3a20546f6b656e20494420697320696e76616c6964000000000000600082015250565b7f227d000000000000000000000000000000000000000000000000000000000000600082015250565b7f596f752073686f756c64206f776e207468652064657669636520746f206d696e60008201527f742074686973206c6f6f74000000000000000000000000000000000000000000602082015250565b7f4552433732313a206d696e7420746f20746865207a65726f2061646472657373600082015250565b7f4552433732313a20617070726f76656420717565727920666f72206e6f6e657860008201527f697374656e7420746f6b656e0000000000000000000000000000000000000000602082015250565b7f20526f626f000000000000000000000000000000000000000000000000000000600082015250565b7f4f776e61626c653a2063616c6c6572206973206e6f7420746865206f776e6572600082015250565b7f4552433732313a207472616e73666572206f6620746f6b656e2074686174206960008201527f73206e6f74206f776e0000000000000000000000000000000000000000000000602082015250565b7f7b00000000000000000000000000000000000000000000000000000000000000600082015250565b7f226e616d65223a2022506562626c6520494d4549202300000000000000000000600082015250565b7f4552433732313a20617070726f76616c20746f2063757272656e74206f776e6560008201527f7200000000000000000000000000000000000000000000000000000000000000602082015250565b7f646174613a6170706c69636174696f6e2f6a736f6e3b6261736536342c000000600082015250565b7f4552433732313a207472616e736665722063616c6c6572206973206e6f74206f60008201527f776e6572206e6f7220617070726f766564000000000000000000000000000000602082015250565b7f455243373231456e756d657261626c653a20676c6f62616c20696e646578206f60008201527f7574206f6620626f756e64730000000000000000000000000000000000000000602082015250565b7f3c2f746578743e3c7465787420783d2231302220793d2234302220636c61737360008201527f3d2262617365223e000000000000000000000000000000000000000000000000602082015250565b7f5265656e7472616e637947756172643a207265656e7472616e742063616c6c00600082015250565b614aa181613e34565b8114614aac57600080fd5b50565b614ab881613e46565b8114614ac357600080fd5b50565b614acf81613e58565b8114614ada57600080fd5b50565b614ae681613e64565b8114614af157600080fd5b50565b614afd81613e90565b8114614b0857600080fd5b50565b614b1481613ebe565b8114614b1f57600080fd5b5056fe4142434445464748494a4b4c4d4e4f505152535455565758595a6162636465666768696a6b6c6d6e6f707172737475767778797a303132333435363738392b2fa2646970667358221220ad2a72ccdee029599710fd8848fee5d3c3b9cad90a5e931da54f176093f891b564736f6c63430008040033",
  "linkReferences": {},
  "deployedLinkReferences": {}
}