{
  "_format": "hh-sol-artifact-1",
  "contractName": "PebbleLoot",
  "sourceName": "contracts/PebbleLoot.sol",
  "abi": [
    {
      "inputs": [
        {
          "internalType": "address",
          "name": "_registration",
          "type": "address"
        },
        {
          "internalType": "uint16",
          "name": "_mintingFee",
          "type": "uint16"
        },
        {
          "internalType": "address payable",
          "name": "_feeReceipient",
          "type": "address"
        }
      ],
      "stateMutability": "nonpayable",
      "type": "constructor"
    },
    {
      "anonymous": false,
      "inputs": [
        {
          "indexed": true,
          "internalType": "address",
          "name": "owner",
          "type": "address"
        },
        {
          "indexed": true,
          "internalType": "address",
          "name": "approved",
          "type": "address"
        },
        {
          "indexed": true,
          "internalType": "uint256",
          "name": "tokenId",
          "type": "uint256"
        }
      ],
      "name": "Approval",
      "type": "event"
    },
    {
      "anonymous": false,
      "inputs": [
        {
          "indexed": true,
          "internalType": "address",
          "name": "owner",
          "type": "address"
        },
        {
          "indexed": true,
          "internalType": "address",
          "name": "operator",
          "type": "address"
        },
        {
          "indexed": false,
          "internalType": "bool",
          "name": "approved",
          "type": "bool"
        }
      ],
      "name": "ApprovalForAll",
      "type": "event"
    },
    {
      "anonymous": false,
      "inputs": [
        {
          "indexed": true,
          "internalType": "address",
          "name": "feeReceipient",
          "type": "address"
        }
      ],
      "name": "FeeReceipientUpdated",
      "type": "event"
    },
    {
      "anonymous": false,
      "inputs": [
        {
          "indexed": false,
          "internalType": "uint16",
          "name": "mintingFee",
          "type": "uint16"
        }
      ],
      "name": "MintingFeeUpdated",
      "type": "event"
    },
    {
      "anonymous": false,
      "inputs": [
        {
          "indexed": true,
          "internalType": "address",
          "name": "previousOwner",
          "type": "address"
        },
        {
          "indexed": true,
          "internalType": "address",
          "name": "newOwner",
          "type": "address"
        }
      ],
      "name": "OwnershipTransferred",
      "type": "event"
    },
    {
      "anonymous": false,
      "inputs": [
        {
          "indexed": true,
          "internalType": "address",
          "name": "registration",
          "type": "address"
        }
      ],
      "name": "RegistrationUpdated",
      "type": "event"
    },
    {
      "anonymous": false,
      "inputs": [
        {
          "indexed": false,
          "internalType": "address",
          "name": "owner",
          "type": "address"
        },
        {
          "indexed": false,
          "internalType": "uint256",
          "name": "tokenId",
          "type": "uint256"
        }
      ],
      "name": "TokenMinted",
      "type": "event"
    },
    {
      "anonymous": false,
      "inputs": [
        {
          "indexed": true,
          "internalType": "address",
          "name": "from",
          "type": "address"
        },
        {
          "indexed": true,
          "internalType": "address",
          "name": "to",
          "type": "address"
        },
        {
          "indexed": true,
          "internalType": "uint256",
          "name": "tokenId",
          "type": "uint256"
        }
      ],
      "name": "Transfer",
      "type": "event"
    },
    {
      "inputs": [
        {
          "internalType": "address",
          "name": "to",
          "type": "address"
        },
        {
          "internalType": "uint256",
          "name": "tokenId",
          "type": "uint256"
        }
      ],
      "name": "approve",
      "outputs": [],
      "stateMutability": "nonpayable",
      "type": "function"
    },
    {
      "inputs": [
        {
          "internalType": "address",
          "name": "owner",
          "type": "address"
        }
      ],
      "name": "balanceOf",
      "outputs": [
        {
          "internalType": "uint256",
          "name": "",
          "type": "uint256"
        }
      ],
      "stateMutability": "view",
      "type": "function"
    },
    {
      "inputs": [
        {
          "internalType": "uint256",
          "name": "tokenId",
          "type": "uint256"
        }
      ],
      "name": "claim",
      "outputs": [],
      "stateMutability": "nonpayable",
      "type": "function"
    },
    {
      "inputs": [],
      "name": "feeReceipient",
      "outputs": [
        {
          "internalType": "address payable",
          "name": "",
          "type": "address"
        }
      ],
      "stateMutability": "view",
      "type": "function"
    },
    {
      "inputs": [
        {
          "internalType": "uint256",
          "name": "tokenId",
          "type": "uint256"
        }
      ],
      "name": "getApproved",
      "outputs": [
        {
          "internalType": "address",
          "name": "",
          "type": "address"
        }
      ],
      "stateMutability": "view",
      "type": "function"
    },
    {
      "inputs": [
        {
          "internalType": "uint256",
          "name": "tokenId",
          "type": "uint256"
        }
      ],
      "name": "getSkin",
      "outputs": [
        {
          "internalType": "string",
          "name": "",
          "type": "string"
        }
      ],
      "stateMutability": "view",
      "type": "function"
    },
    {
      "inputs": [
        {
          "internalType": "address",
          "name": "owner",
          "type": "address"
        },
        {
          "internalType": "address",
          "name": "operator",
          "type": "address"
        }
      ],
      "name": "isApprovedForAll",
      "outputs": [
        {
          "internalType": "bool",
          "name": "",
          "type": "bool"
        }
      ],
      "stateMutability": "view",
      "type": "function"
    },
    {
      "inputs": [],
      "name": "mintingFee",
      "outputs": [
        {
          "internalType": "uint16",
          "name": "",
          "type": "uint16"
        }
      ],
      "stateMutability": "view",
      "type": "function"
    },
    {
      "inputs": [],
      "name": "name",
      "outputs": [
        {
          "internalType": "string",
          "name": "",
          "type": "string"
        }
      ],
      "stateMutability": "view",
      "type": "function"
    },
    {
      "inputs": [],
      "name": "owner",
      "outputs": [
        {
          "internalType": "address",
          "name": "",
          "type": "address"
        }
      ],
      "stateMutability": "view",
      "type": "function"
    },
    {
      "inputs": [
        {
          "internalType": "uint256",
          "name": "tokenId",
          "type": "uint256"
        }
      ],
      "name": "ownerOf",
      "outputs": [
        {
          "internalType": "address",
          "name": "",
          "type": "address"
        }
      ],
      "stateMutability": "view",
      "type": "function"
    },
    {
      "inputs": [],
      "name": "registration",
      "outputs": [
        {
          "internalType": "contract IRegistration",
          "name": "",
          "type": "address"
        }
      ],
      "stateMutability": "view",
      "type": "function"
    },
    {
      "inputs": [],
      "name": "renounceOwnership",
      "outputs": [],
      "stateMutability": "nonpayable",
      "type": "function"
    },
    {
      "inputs": [
        {
          "internalType": "address",
          "name": "from",
          "type": "address"
        },
        {
          "internalType": "address",
          "name": "to",
          "type": "address"
        },
        {
          "internalType": "uint256",
          "name": "tokenId",
          "type": "uint256"
        }
      ],
      "name": "safeTransferFrom",
      "outputs": [],
      "stateMutability": "nonpayable",
      "type": "function"
    },
    {
      "inputs": [
        {
          "internalType": "address",
          "name": "from",
          "type": "address"
        },
        {
          "internalType": "address",
          "name": "to",
          "type": "address"
        },
        {
          "internalType": "uint256",
          "name": "tokenId",
          "type": "uint256"
        },
        {
          "internalType": "bytes",
          "name": "_data",
          "type": "bytes"
        }
      ],
      "name": "safeTransferFrom",
      "outputs": [],
      "stateMutability": "nonpayable",
      "type": "function"
    },
    {
      "inputs": [
        {
          "internalType": "address",
          "name": "operator",
          "type": "address"
        },
        {
          "internalType": "bool",
          "name": "approved",
          "type": "bool"
        }
      ],
      "name": "setApprovalForAll",
      "outputs": [],
      "stateMutability": "nonpayable",
      "type": "function"
    },
    {
      "inputs": [
        {
          "internalType": "bytes4",
          "name": "interfaceId",
          "type": "bytes4"
        }
      ],
      "name": "supportsInterface",
      "outputs": [
        {
          "internalType": "bool",
          "name": "",
          "type": "bool"
        }
      ],
      "stateMutability": "view",
      "type": "function"
    },
    {
      "inputs": [],
      "name": "symbol",
      "outputs": [
        {
          "internalType": "string",
          "name": "",
          "type": "string"
        }
      ],
      "stateMutability": "view",
      "type": "function"
    },
    {
      "inputs": [
        {
          "internalType": "uint256",
          "name": "index",
          "type": "uint256"
        }
      ],
      "name": "tokenByIndex",
      "outputs": [
        {
          "internalType": "uint256",
          "name": "",
          "type": "uint256"
        }
      ],
      "stateMutability": "view",
      "type": "function"
    },
    {
      "inputs": [
        {
          "internalType": "address",
          "name": "owner",
          "type": "address"
        },
        {
          "internalType": "uint256",
          "name": "index",
          "type": "uint256"
        }
      ],
      "name": "tokenOfOwnerByIndex",
      "outputs": [
        {
          "internalType": "uint256",
          "name": "",
          "type": "uint256"
        }
      ],
      "stateMutability": "view",
      "type": "function"
    },
    {
      "inputs": [
        {
          "internalType": "uint256",
          "name": "tokenId",
          "type": "uint256"
        }
      ],
      "name": "tokenURI",
      "outputs": [
        {
          "internalType": "string",
          "name": "",
          "type": "string"
        }
      ],
      "stateMutability": "view",
      "type": "function"
    },
    {
      "inputs": [],
      "name": "totalSupply",
      "outputs": [
        {
          "internalType": "uint256",
          "name": "",
          "type": "uint256"
        }
      ],
      "stateMutability": "view",
      "type": "function"
    },
    {
      "inputs": [
        {
          "internalType": "address",
          "name": "from",
          "type": "address"
        },
        {
          "internalType": "address",
          "name": "to",
          "type": "address"
        },
        {
          "internalType": "uint256",
          "name": "tokenId",
          "type": "uint256"
        }
      ],
      "name": "transferFrom",
      "outputs": [],
      "stateMutability": "nonpayable",
      "type": "function"
    },
    {
      "inputs": [
        {
          "internalType": "address",
          "name": "newOwner",
          "type": "address"
        }
      ],
      "name": "transferOwnership",
      "outputs": [],
      "stateMutability": "nonpayable",
      "type": "function"
    },
    {
      "inputs": [
        {
          "internalType": "address payable",
          "name": "_feeReceipient",
          "type": "address"
        }
      ],
      "name": "updateFeeReceipient",
      "outputs": [],
      "stateMutability": "nonpayable",
      "type": "function"
    },
    {
      "inputs": [
        {
          "internalType": "uint16",
          "name": "_mintingFee",
          "type": "uint16"
        }
      ],
      "name": "updateMintingFee",
      "outputs": [],
      "stateMutability": "nonpayable",
      "type": "function"
    },
    {
      "inputs": [
        {
          "internalType": "address",
          "name": "_registration",
          "type": "address"
        }
      ],
      "name": "updateRegistration",
      "outputs": [],
      "stateMutability": "nonpayable",
      "type": "function"
    }
  ],
  "bytecode": "0x60806040526040518061016001604052806040518060400160405280600381526020017f436174000000000000000000000000000000000000000000000000000000000081525081526020016040518060400160405280600381526020017f446f67000000000000000000000000000000000000000000000000000000000081525081526020016040518060400160405280600481526020017f42756c6c0000000000000000000000000000000000000000000000000000000081525081526020016040518060400160405280600481526020017f426561720000000000000000000000000000000000000000000000000000000081525081526020016040518060400160405280600481526020017f576f6c660000000000000000000000000000000000000000000000000000000081525081526020016040518060400160405280600381526020017f466f78000000000000000000000000000000000000000000000000000000000081525081526020016040518060400160405280600781526020017f556e69636f726e0000000000000000000000000000000000000000000000000081525081526020016040518060400160405280600381526020017f417065000000000000000000000000000000000000000000000000000000000081525081526020016040518060400160405280600581526020017f536861726b00000000000000000000000000000000000000000000000000000081525081526020016040518060400160405280600481526020017f46726f670000000000000000000000000000000000000000000000000000000081525081526020016040518060400160405280600581526020017f5768616c65000000000000000000000000000000000000000000000000000000815250815250600e90600b620002a992919062000699565b506040518060c001604052806040518060400160405280600581526020017f426c61636b00000000000000000000000000000000000000000000000000000081525081526020016040518060400160405280600581526020017f576869746500000000000000000000000000000000000000000000000000000081525081526020016040518060400160405280600481526020017f426c75650000000000000000000000000000000000000000000000000000000081525081526020016040518060400160405280600381526020017f526564000000000000000000000000000000000000000000000000000000000081525081526020016040518060400160405280600681526020017f59656c6c6f77000000000000000000000000000000000000000000000000000081525081526020016040518060400160405280600481526020017f50696e6b00000000000000000000000000000000000000000000000000000000815250815250600f9060066200042792919062000700565b503480156200043557600080fd5b50604051620053ca380380620053ca83398181016040528101906200045b9190620008ca565b6040518060400160405280600b81526020017f506562626c65204c6f6f740000000000000000000000000000000000000000008152506040518060400160405280600381526020017f504c5400000000000000000000000000000000000000000000000000000000008152508160009080519060200190620004df92919062000767565b508060019080519060200190620004f892919062000767565b50505060016006819055506200052362000517620005cb60201b60201c565b620005d360201b60201c565b82600c60006101000a81548173ffffffffffffffffffffffffffffffffffffffff021916908373ffffffffffffffffffffffffffffffffffffffff16021790555081600c60146101000a81548161ffff021916908361ffff16021790555080600d60006101000a81548173ffffffffffffffffffffffffffffffffffffffff021916908373ffffffffffffffffffffffffffffffffffffffff16021790555050505062000a29565b600033905090565b6000600b60009054906101000a900473ffffffffffffffffffffffffffffffffffffffff16905081600b60006101000a81548173ffffffffffffffffffffffffffffffffffffffff021916908373ffffffffffffffffffffffffffffffffffffffff1602179055508173ffffffffffffffffffffffffffffffffffffffff168173ffffffffffffffffffffffffffffffffffffffff167f8be0079c531659141344cd1fd0a4f28419497f9722a3daafe3b4186f6b6457e060405160405180910390a35050565b828054828255906000526020600020908101928215620006ed579160200282015b82811115620006ec578251829080519060200190620006db92919062000767565b5091602001919060010190620006ba565b5b509050620006fc9190620007f8565b5090565b82805482825590600052602060002090810192821562000754579160200282015b82811115620007535782518290805190602001906200074292919062000767565b509160200191906001019062000721565b5b509050620007639190620007f8565b5090565b828054620007759062000976565b90600052602060002090601f016020900481019282620007995760008555620007e5565b82601f10620007b457805160ff1916838001178555620007e5565b82800160010185558215620007e5579182015b82811115620007e4578251825591602001919060010190620007c7565b5b509050620007f4919062000820565b5090565b5b808211156200081c57600081816200081291906200083f565b50600101620007f9565b5090565b5b808211156200083b57600081600090555060010162000821565b5090565b5080546200084d9062000976565b6000825580601f1062000861575062000882565b601f01602090049060005260206000209081019062000881919062000820565b5b50565b6000815190506200089681620009db565b92915050565b600081519050620008ad81620009f5565b92915050565b600081519050620008c48162000a0f565b92915050565b600080600060608486031215620008e057600080fd5b6000620008f08682870162000885565b93505060206200090386828701620008b3565b925050604062000916868287016200089c565b9150509250925092565b60006200092d8262000956565b9050919050565b6000620009418262000956565b9050919050565b600061ffff82169050919050565b600073ffffffffffffffffffffffffffffffffffffffff82169050919050565b600060028204905060018216806200098f57607f821691505b60208210811415620009a657620009a5620009ac565b5b50919050565b7f4e487b7100000000000000000000000000000000000000000000000000000000600052602260045260246000fd5b620009e68162000920565b8114620009f257600080fd5b50565b62000a008162000934565b811462000a0c57600080fd5b50565b62000a1a8162000948565b811462000a2657600080fd5b50565b6149918062000a396000396000f3fe608060405234801561001057600080fd5b50600436106101a95760003560e01c80635c42690a116100f9578063a22cb46511610097578063c87b56dd11610071578063c87b56dd146104ba578063e2fe652b146104ea578063e985e9c514610506578063f2fde38b14610536576101a9565b8063a22cb46514610466578063b244182f14610482578063b88d4fde1461049e576101a9565b8063715018a6116100d3578063715018a6146103f05780638da5cb5b146103fa57806395d89b411461041857806398e4f58114610436576101a9565b80635c42690a146103745780636352211e1461039057806370a08231146103c0576101a9565b80632f745c591161016657806342842e0e1161014057806342842e0e146102ec578063443bd1d0146103085780634f6ccce7146103265780635a64ad9514610356576101a9565b80632f745c59146102825780633740ebb3146102b2578063379607f5146102d0576101a9565b806301ffc9a7146101ae57806306fdde03146101de578063081812fc146101fc578063095ea7b31461022c57806318160ddd1461024857806323b872dd14610266575b600080fd5b6101c860048036038101906101c39190612f50565b610552565b6040516101d5919061379a565b60405180910390f35b6101e6610564565b6040516101f391906137d0565b60405180910390f35b61021660048036038101906102119190612fcb565b6105f6565b60405161022391906136ef565b60405180910390f35b61024660048036038101906102419190612f14565b61067b565b005b610250610793565b60405161025d9190613a8d565b60405180910390f35b610280600480360381019061027b9190612e0e565b6107a0565b005b61029c60048036038101906102979190612f14565b610800565b6040516102a99190613a8d565b60405180910390f35b6102ba6108a5565b6040516102c7919061370a565b60405180910390f35b6102ea60048036038101906102e59190612fcb565b6108cb565b005b61030660048036038101906103019190612e0e565b610afc565b005b610310610b1c565b60405161031d91906137b5565b60405180910390f35b610340600480360381019061033b9190612fcb565b610b42565b60405161034d9190613a8d565b60405180910390f35b61035e610bd9565b60405161036b9190613a72565b60405180910390f35b61038e60048036038101906103899190612d6d565b610bed565b005b6103aa60048036038101906103a59190612fcb565b610d12565b6040516103b791906136ef565b60405180910390f35b6103da60048036038101906103d59190612d44565b610dc4565b6040516103e79190613a8d565b60405180910390f35b6103f8610e7c565b005b610402610f04565b60405161040f91906136ef565b60405180910390f35b610420610f2e565b60405161042d91906137d0565b60405180910390f35b610450600480360381019061044b9190612fcb565b610fc0565b60405161045d91906137d0565b60405180910390f35b610480600480360381019061047b9190612ed8565b6110da565b005b61049c60048036038101906104979190612d44565b61125b565b005b6104b860048036038101906104b39190612e5d565b61135e565b005b6104d460048036038101906104cf9190612fcb565b6113c0565b6040516104e191906137d0565b60405180910390f35b61050460048036038101906104ff9190612fa2565b6114ac565b005b610520600480360381019061051b9190612d96565b61158f565b60405161052d919061379a565b60405180910390f35b610550600480360381019061054b9190612d44565b611623565b005b600061055d8261171b565b9050919050565b60606000805461057390613d50565b80601f016020809104026020016040519081016040528092919081815260200182805461059f90613d50565b80156105ec5780601f106105c1576101008083540402835291602001916105ec565b820191906000526020600020905b8154815290600101906020018083116105cf57829003601f168201915b5050505050905090565b600061060182611795565b610640576040517f08c379a000000000000000000000000000000000000000000000000000000000815260040161063790613992565b60405180910390fd5b6004600083815260200190815260200160002060009054906101000a900473ffffffffffffffffffffffffffffffffffffffff169050919050565b600061068682610d12565b90508073ffffffffffffffffffffffffffffffffffffffff168373ffffffffffffffffffffffffffffffffffffffff1614156106f7576040517f08c379a00000000000000000000000000000000000000000000000000000000081526004016106ee906139f2565b60405180910390fd5b8073ffffffffffffffffffffffffffffffffffffffff16610716611801565b73ffffffffffffffffffffffffffffffffffffffff16148061074557506107448161073f611801565b61158f565b5b610784576040517f08c379a000000000000000000000000000000000000000000000000000000000815260040161077b906138d2565b60405180910390fd5b61078e8383611809565b505050565b6000600980549050905090565b6107b16107ab611801565b826118c2565b6107f0576040517f08c379a00000000000000000000000000000000000000000000000000000000081526004016107e790613a12565b60405180910390fd5b6107fb8383836119a0565b505050565b600061080b83610dc4565b821061084c576040517f08c379a0000000000000000000000000000000000000000000000000000000008152600401610843906137f2565b60405180910390fd5b600760008473ffffffffffffffffffffffffffffffffffffffff1673ffffffffffffffffffffffffffffffffffffffff168152602001908152602001600020600083815260200190815260200160002054905092915050565b600d60009054906101000a900473ffffffffffffffffffffffffffffffffffffffff1681565b60026006541415610911576040517f08c379a000000000000000000000000000000000000000000000000000000000815260040161090890613a52565b60405180910390fd5b6002600681905550655af3107a3fff81118015610934575066038d7ea4c6800081105b610973576040517f08c379a000000000000000000000000000000000000000000000000000000000815260040161096a90613932565b60405180910390fd5b6000600c60009054906101000a900473ffffffffffffffffffffffffffffffffffffffff1673ffffffffffffffffffffffffffffffffffffffff166382b7b5006109bc84611bfc565b6040518263ffffffff1660e01b81526004016109d891906137d0565b604080518083038186803b1580156109ef57600080fd5b505afa158015610a03573d6000803e3d6000fd5b505050506040513d601f19601f82011682018060405250810190610a279190612dd2565b9150508073ffffffffffffffffffffffffffffffffffffffff16610a49611801565b73ffffffffffffffffffffffffffffffffffffffff1614610a9f576040517f08c379a0000000000000000000000000000000000000000000000000000000008152600401610a9690613952565b60405180910390fd5b610ab0610aaa611801565b83611da9565b7fb9144c96c86541f6fa89c9f2f02495cccf4b08cd6643e26d34ee00aa586558a8610ad9611801565b83604051610ae8929190613771565b60405180910390a150600160068190555050565b610b178383836040518060200160405280600081525061135e565b505050565b600c60009054906101000a900473ffffffffffffffffffffffffffffffffffffffff1681565b6000610b4c610793565b8210610b8d576040517f08c379a0000000000000000000000000000000000000000000000000000000008152600401610b8490613a32565b60405180910390fd5b60098281548110610bc7577f4e487b7100000000000000000000000000000000000000000000000000000000600052603260045260246000fd5b90600052602060002001549050919050565b600c60149054906101000a900461ffff1681565b610bf5611801565b73ffffffffffffffffffffffffffffffffffffffff16610c13610f04565b73ffffffffffffffffffffffffffffffffffffffff1614610c69576040517f08c379a0000000000000000000000000000000000000000000000000000000008152600401610c60906139b2565b60405180910390fd5b80600d60006101000a81548173ffffffffffffffffffffffffffffffffffffffff021916908373ffffffffffffffffffffffffffffffffffffffff160217905550600d60009054906101000a900473ffffffffffffffffffffffffffffffffffffffff1673ffffffffffffffffffffffffffffffffffffffff167f4e8038c85ccd41777ff692b6d98418aa13b143d93efc1299f794a9f646bc64d460405160405180910390a250565b6000806002600084815260200190815260200160002060009054906101000a900473ffffffffffffffffffffffffffffffffffffffff169050600073ffffffffffffffffffffffffffffffffffffffff168173ffffffffffffffffffffffffffffffffffffffff161415610dbb576040517f08c379a0000000000000000000000000000000000000000000000000000000008152600401610db290613912565b60405180910390fd5b80915050919050565b60008073ffffffffffffffffffffffffffffffffffffffff168273ffffffffffffffffffffffffffffffffffffffff161415610e35576040517f08c379a0000000000000000000000000000000000000000000000000000000008152600401610e2c906138f2565b60405180910390fd5b600360008373ffffffffffffffffffffffffffffffffffffffff1673ffffffffffffffffffffffffffffffffffffffff168152602001908152602001600020549050919050565b610e84611801565b73ffffffffffffffffffffffffffffffffffffffff16610ea2610f04565b73ffffffffffffffffffffffffffffffffffffffff1614610ef8576040517f08c379a0000000000000000000000000000000000000000000000000000000008152600401610eef906139b2565b60405180910390fd5b610f026000611dc7565b565b6000600b60009054906101000a900473ffffffffffffffffffffffffffffffffffffffff16905090565b606060018054610f3d90613d50565b80601f0160208091040260200160405190810160405280929190818152602001828054610f6990613d50565b8015610fb65780601f10610f8b57610100808354040283529160200191610fb6565b820191906000526020600020905b815481529060010190602001808311610f9957829003601f168201915b5050505050905090565b60606110d3826040518060400160405280600481526020017f534b494e00000000000000000000000000000000000000000000000000000000815250600e805480602002602001604051908101604052809291908181526020016000905b828210156110ca57838290600052602060002001805461103d90613d50565b80601f016020809104026020016040519081016040528092919081815260200182805461106990613d50565b80156110b65780601f1061108b576101008083540402835291602001916110b6565b820191906000526020600020905b81548152906001019060200180831161109957829003601f168201915b50505050508152602001906001019061101e565b50505050611e8d565b9050919050565b6110e2611801565b73ffffffffffffffffffffffffffffffffffffffff168273ffffffffffffffffffffffffffffffffffffffff161415611150576040517f08c379a000000000000000000000000000000000000000000000000000000000815260040161114790613892565b60405180910390fd5b806005600061115d611801565b73ffffffffffffffffffffffffffffffffffffffff1673ffffffffffffffffffffffffffffffffffffffff16815260200190815260200160002060008473ffffffffffffffffffffffffffffffffffffffff1673ffffffffffffffffffffffffffffffffffffffff16815260200190815260200160002060006101000a81548160ff0219169083151502179055508173ffffffffffffffffffffffffffffffffffffffff1661120a611801565b73ffffffffffffffffffffffffffffffffffffffff167f17307eab39ab6107e8899845ad3d59bd9653f200f220920489ca2b5937696c318360405161124f919061379a565b60405180910390a35050565b611263611801565b73ffffffffffffffffffffffffffffffffffffffff16611281610f04565b73ffffffffffffffffffffffffffffffffffffffff16146112d7576040517f08c379a00000000000000000000000000000000000000000000000000000000081526004016112ce906139b2565b60405180910390fd5b80600c60006101000a81548173ffffffffffffffffffffffffffffffffffffffff021916908373ffffffffffffffffffffffffffffffffffffffff1602179055508073ffffffffffffffffffffffffffffffffffffffff167f66c44ed44539e6dc2bc1ea4e99d92ba5e32f155fdffb7918b6db51ceb2d2679b60405160405180910390a250565b61136f611369611801565b836118c2565b6113ae576040517f08c379a00000000000000000000000000000000000000000000000000000000081526004016113a590613a12565b60405180910390fd5b6113ba84848484612027565b50505050565b606060006113cd83611bfc565b6113d684610fc0565b6040516020016113e79291906135f3565b6040516020818303038152906040529050600061140384611bfc565b60405160200161141391906136a0565b60405160208183030381529060405290506000604051602001611435906135de565b6040516020818303038152906040529050600061147c838361145687612083565b60405160200161146893929190613643565b604051602081830303815290604052612083565b90508060405160200161148f91906136cd565b604051602081830303815290604052935083945050505050919050565b6114b4611801565b73ffffffffffffffffffffffffffffffffffffffff166114d2610f04565b73ffffffffffffffffffffffffffffffffffffffff1614611528576040517f08c379a000000000000000000000000000000000000000000000000000000000815260040161151f906139b2565b60405180910390fd5b80600c60146101000a81548161ffff021916908361ffff1602179055507fbbd22b3a548d3c1db4a7e35148eba9ecd2834d9ba502855fd010e3f0a92d4c52600c60149054906101000a900461ffff166040516115849190613a72565b60405180910390a150565b6000600560008473ffffffffffffffffffffffffffffffffffffffff1673ffffffffffffffffffffffffffffffffffffffff16815260200190815260200160002060008373ffffffffffffffffffffffffffffffffffffffff1673ffffffffffffffffffffffffffffffffffffffff16815260200190815260200160002060009054906101000a900460ff16905092915050565b61162b611801565b73ffffffffffffffffffffffffffffffffffffffff16611649610f04565b73ffffffffffffffffffffffffffffffffffffffff161461169f576040517f08c379a0000000000000000000000000000000000000000000000000000000008152600401611696906139b2565b60405180910390fd5b600073ffffffffffffffffffffffffffffffffffffffff168173ffffffffffffffffffffffffffffffffffffffff16141561170f576040517f08c379a000000000000000000000000000000000000000000000000000000000815260040161170690613832565b60405180910390fd5b61171881611dc7565b50565b60007f780e9d63000000000000000000000000000000000000000000000000000000007bffffffffffffffffffffffffffffffffffffffffffffffffffffffff1916827bffffffffffffffffffffffffffffffffffffffffffffffffffffffff1916148061178e575061178d82612241565b5b9050919050565b60008073ffffffffffffffffffffffffffffffffffffffff166002600084815260200190815260200160002060009054906101000a900473ffffffffffffffffffffffffffffffffffffffff1673ffffffffffffffffffffffffffffffffffffffff1614159050919050565b600033905090565b816004600083815260200190815260200160002060006101000a81548173ffffffffffffffffffffffffffffffffffffffff021916908373ffffffffffffffffffffffffffffffffffffffff160217905550808273ffffffffffffffffffffffffffffffffffffffff1661187c83610d12565b73ffffffffffffffffffffffffffffffffffffffff167f8c5be1e5ebec7d5bd14f71427d1e84f3dd0314c0f7b2291e5b200ac8c7c3b92560405160405180910390a45050565b60006118cd82611795565b61190c576040517f08c379a0000000000000000000000000000000000000000000000000000000008152600401611903906138b2565b60405180910390fd5b600061191783610d12565b90508073ffffffffffffffffffffffffffffffffffffffff168473ffffffffffffffffffffffffffffffffffffffff16148061198657508373ffffffffffffffffffffffffffffffffffffffff1661196e846105f6565b73ffffffffffffffffffffffffffffffffffffffff16145b806119975750611996818561158f565b5b91505092915050565b8273ffffffffffffffffffffffffffffffffffffffff166119c082610d12565b73ffffffffffffffffffffffffffffffffffffffff1614611a16576040517f08c379a0000000000000000000000000000000000000000000000000000000008152600401611a0d906139d2565b60405180910390fd5b600073ffffffffffffffffffffffffffffffffffffffff168273ffffffffffffffffffffffffffffffffffffffff161415611a86576040517f08c379a0000000000000000000000000000000000000000000000000000000008152600401611a7d90613872565b60405180910390fd5b611a91838383612323565b611a9c600082611809565b6001600360008573ffffffffffffffffffffffffffffffffffffffff1673ffffffffffffffffffffffffffffffffffffffff1681526020019081526020016000206000828254611aec9190613c22565b925050819055506001600360008473ffffffffffffffffffffffffffffffffffffffff1673ffffffffffffffffffffffffffffffffffffffff1681526020019081526020016000206000828254611b439190613b41565b92505081905550816002600083815260200190815260200160002060006101000a81548173ffffffffffffffffffffffffffffffffffffffff021916908373ffffffffffffffffffffffffffffffffffffffff160217905550808273ffffffffffffffffffffffffffffffffffffffff168473ffffffffffffffffffffffffffffffffffffffff167fddf252ad1be2c89b69c2b068fc378daa952ba7f163c4a11628f55a4df523b3ef60405160405180910390a4505050565b60606000821415611c44576040518060400160405280600181526020017f30000000000000000000000000000000000000000000000000000000000000008152509050611da4565b600082905060005b60008214611c76578080611c5f90613db3565b915050600a82611c6f9190613b97565b9150611c4c565b60008167ffffffffffffffff811115611cb8577f4e487b7100000000000000000000000000000000000000000000000000000000600052604160045260246000fd5b6040519080825280601f01601f191660200182016040528015611cea5781602001600182028036833780820191505090505b5090505b60008514611d9d57600182611d039190613c22565b9150600a85611d129190613dfc565b6030611d1e9190613b41565b60f81b818381518110611d5a577f4e487b7100000000000000000000000000000000000000000000000000000000600052603260045260246000fd5b60200101907effffffffffffffffffffffffffffffffffffffffffffffffffffffffffffff1916908160001a905350600a85611d969190613b97565b9450611cee565b8093505050505b919050565b611dc3828260405180602001604052806000815250612333565b5050565b6000600b60009054906101000a900473ffffffffffffffffffffffffffffffffffffffff16905081600b60006101000a81548173ffffffffffffffffffffffffffffffffffffffff021916908373ffffffffffffffffffffffffffffffffffffffff1602179055508173ffffffffffffffffffffffffffffffffffffffff168173ffffffffffffffffffffffffffffffffffffffff167f8be0079c531659141344cd1fd0a4f28419497f9722a3daafe3b4186f6b6457e060405160405180910390a35050565b60606000611ec384611e9e87611bfc565b604051602001611eaf92919061358b565b60405160208183030381529060405261238e565b9050600083845183611ed59190613dfc565b81518110611f0c577f4e487b7100000000000000000000000000000000000000000000000000000000600052603260045260246000fd5b602002602001015190506000600f808054905084611f2a9190613dfc565b81548110611f61577f4e487b7100000000000000000000000000000000000000000000000000000000600052603260045260246000fd5b906000526020600020018054611f7690613d50565b80601f0160208091040260200160405190810160405280929190818152602001828054611fa290613d50565b8015611fef5780601f10611fc457610100808354040283529160200191611fef565b820191906000526020600020905b815481529060010190602001808311611fd257829003601f168201915b5050505050905080826040516020016120099291906135af565b60405160208183030381529060405291508193505050509392505050565b6120328484846119a0565b61203e848484846123c1565b61207d576040517f08c379a000000000000000000000000000000000000000000000000000000000815260040161207490613812565b60405180910390fd5b50505050565b606060008251905060008114156120ac576040518060200160405280600081525091505061223c565b600060036002836120bd9190613b41565b6120c79190613b97565b60046120d39190613bc8565b905060006020826120e49190613b41565b67ffffffffffffffff811115612123577f4e487b7100000000000000000000000000000000000000000000000000000000600052604160045260246000fd5b6040519080825280601f01601f1916602001820160405280156121555781602001600182028036833780820191505090505b509050600060405180606001604052806040815260200161491c604091399050600181016020830160005b868110156121f95760038101905062ffffff818a015116603f8160121c168401518060081b905060ff603f83600c1c1686015116810190508060081b905060ff603f8360061c1686015116810190508060081b905060ff603f831686015116810190508060e01b90508084526004840193505050612180565b50600386066001811461221357600281146122235761222e565b613d3d60f01b600283035261222e565b603d60f81b60018303525b508484525050819450505050505b919050565b60007f80ac58cd000000000000000000000000000000000000000000000000000000007bffffffffffffffffffffffffffffffffffffffffffffffffffffffff1916827bffffffffffffffffffffffffffffffffffffffffffffffffffffffff1916148061230c57507f5b5e139f000000000000000000000000000000000000000000000000000000007bffffffffffffffffffffffffffffffffffffffffffffffffffffffff1916827bffffffffffffffffffffffffffffffffffffffffffffffffffffffff1916145b8061231c575061231b82612558565b5b9050919050565b61232e8383836125c2565b505050565b61233d83836126d6565b61234a60008484846123c1565b612389576040517f08c379a000000000000000000000000000000000000000000000000000000000815260040161238090613812565b60405180910390fd5b505050565b6000816040516020016123a19190613574565b6040516020818303038152906040528051906020012060001c9050919050565b60006123e28473ffffffffffffffffffffffffffffffffffffffff166128a4565b1561254b578373ffffffffffffffffffffffffffffffffffffffff1663150b7a0261240b611801565b8786866040518563ffffffff1660e01b815260040161242d9493929190613725565b602060405180830381600087803b15801561244757600080fd5b505af192505050801561247857506040513d601f19601f820116820180604052508101906124759190612f79565b60015b6124fb573d80600081146124a8576040519150601f19603f3d011682016040523d82523d6000602084013e6124ad565b606091505b506000815114156124f3576040517f08c379a00000000000000000000000000000000000000000000000000000000081526004016124ea90613812565b60405180910390fd5b805181602001fd5b63150b7a0260e01b7bffffffffffffffffffffffffffffffffffffffffffffffffffffffff1916817bffffffffffffffffffffffffffffffffffffffffffffffffffffffff191614915050612550565b600190505b949350505050565b60007f01ffc9a7000000000000000000000000000000000000000000000000000000007bffffffffffffffffffffffffffffffffffffffffffffffffffffffff1916827bffffffffffffffffffffffffffffffffffffffffffffffffffffffff1916149050919050565b6125cd8383836128b7565b600073ffffffffffffffffffffffffffffffffffffffff168373ffffffffffffffffffffffffffffffffffffffff1614156126105761260b816128bc565b61264f565b8173ffffffffffffffffffffffffffffffffffffffff168373ffffffffffffffffffffffffffffffffffffffff161461264e5761264d8382612905565b5b5b600073ffffffffffffffffffffffffffffffffffffffff168273ffffffffffffffffffffffffffffffffffffffff1614156126925761268d81612a72565b6126d1565b8273ffffffffffffffffffffffffffffffffffffffff168273ffffffffffffffffffffffffffffffffffffffff16146126d0576126cf8282612bb5565b5b5b505050565b600073ffffffffffffffffffffffffffffffffffffffff168273ffffffffffffffffffffffffffffffffffffffff161415612746576040517f08c379a000000000000000000000000000000000000000000000000000000000815260040161273d90613972565b60405180910390fd5b61274f81611795565b1561278f576040517f08c379a000000000000000000000000000000000000000000000000000000000815260040161278690613852565b60405180910390fd5b61279b60008383612323565b6001600360008473ffffffffffffffffffffffffffffffffffffffff1673ffffffffffffffffffffffffffffffffffffffff16815260200190815260200160002060008282546127eb9190613b41565b92505081905550816002600083815260200190815260200160002060006101000a81548173ffffffffffffffffffffffffffffffffffffffff021916908373ffffffffffffffffffffffffffffffffffffffff160217905550808273ffffffffffffffffffffffffffffffffffffffff16600073ffffffffffffffffffffffffffffffffffffffff167fddf252ad1be2c89b69c2b068fc378daa952ba7f163c4a11628f55a4df523b3ef60405160405180910390a45050565b600080823b905060008111915050919050565b505050565b600980549050600a600083815260200190815260200160002081905550600981908060018154018082558091505060019003906000526020600020016000909190919091505550565b6000600161291284610dc4565b61291c9190613c22565b9050600060086000848152602001908152602001600020549050818114612a01576000600760008673ffffffffffffffffffffffffffffffffffffffff1673ffffffffffffffffffffffffffffffffffffffff168152602001908152602001600020600084815260200190815260200160002054905080600760008773ffffffffffffffffffffffffffffffffffffffff1673ffffffffffffffffffffffffffffffffffffffff168152602001908152602001600020600084815260200190815260200160002081905550816008600083815260200190815260200160002081905550505b6008600084815260200190815260200160002060009055600760008573ffffffffffffffffffffffffffffffffffffffff1673ffffffffffffffffffffffffffffffffffffffff16815260200190815260200160002060008381526020019081526020016000206000905550505050565b60006001600980549050612a869190613c22565b90506000600a6000848152602001908152602001600020549050600060098381548110612adc577f4e487b7100000000000000000000000000000000000000000000000000000000600052603260045260246000fd5b906000526020600020015490508060098381548110612b24577f4e487b7100000000000000000000000000000000000000000000000000000000600052603260045260246000fd5b906000526020600020018190555081600a600083815260200190815260200160002081905550600a6000858152602001908152602001600020600090556009805480612b99577f4e487b7100000000000000000000000000000000000000000000000000000000600052603160045260246000fd5b6001900381819060005260206000200160009055905550505050565b6000612bc083610dc4565b905081600760008573ffffffffffffffffffffffffffffffffffffffff1673ffffffffffffffffffffffffffffffffffffffff168152602001908152602001600020600083815260200190815260200160002081905550806008600084815260200190815260200160002081905550505050565b6000612c47612c4284613acd565b613aa8565b905082815260208101848484011115612c5f57600080fd5b612c6a848285613d0e565b509392505050565b600081359050612c8181614891565b92915050565b600081519050612c9681614891565b92915050565b600081359050612cab816148a8565b92915050565b600081359050612cc0816148bf565b92915050565b600081359050612cd5816148d6565b92915050565b600081519050612cea816148d6565b92915050565b600082601f830112612d0157600080fd5b8135612d11848260208601612c34565b91505092915050565b600081359050612d29816148ed565b92915050565b600081359050612d3e81614904565b92915050565b600060208284031215612d5657600080fd5b6000612d6484828501612c72565b91505092915050565b600060208284031215612d7f57600080fd5b6000612d8d84828501612c9c565b91505092915050565b60008060408385031215612da957600080fd5b6000612db785828601612c72565b9250506020612dc885828601612c72565b9150509250929050565b60008060408385031215612de557600080fd5b6000612df385828601612c87565b9250506020612e0485828601612c87565b9150509250929050565b600080600060608486031215612e2357600080fd5b6000612e3186828701612c72565b9350506020612e4286828701612c72565b9250506040612e5386828701612d2f565b9150509250925092565b60008060008060808587031215612e7357600080fd5b6000612e8187828801612c72565b9450506020612e9287828801612c72565b9350506040612ea387828801612d2f565b925050606085013567ffffffffffffffff811115612ec057600080fd5b612ecc87828801612cf0565b91505092959194509250565b60008060408385031215612eeb57600080fd5b6000612ef985828601612c72565b9250506020612f0a85828601612cb1565b9150509250929050565b60008060408385031215612f2757600080fd5b6000612f3585828601612c72565b9250506020612f4685828601612d2f565b9150509250929050565b600060208284031215612f6257600080fd5b6000612f7084828501612cc6565b91505092915050565b600060208284031215612f8b57600080fd5b6000612f9984828501612cdb565b91505092915050565b600060208284031215612fb457600080fd5b6000612fc284828501612d1a565b91505092915050565b600060208284031215612fdd57600080fd5b6000612feb84828501612d2f565b91505092915050565b612ffd81613c68565b82525050565b61300c81613c56565b82525050565b61301b81613c7a565b82525050565b600061302c82613afe565b6130368185613b14565b9350613046818560208601613d1d565b61304f81613ee9565b840191505092915050565b61306381613cea565b82525050565b600061307482613b09565b61307e8185613b25565b935061308e818560208601613d1d565b61309781613ee9565b840191505092915050565b60006130ad82613b09565b6130b78185613b36565b93506130c7818560208601613d1d565b80840191505092915050565b60006130e0602b83613b25565b91506130eb82613efa565b604082019050919050565b6000613103603283613b25565b915061310e82613f49565b604082019050919050565b6000613126602683613b25565b915061313182613f98565b604082019050919050565b6000613149601c83613b25565b915061315482613fe7565b602082019050919050565b600061316c602583613b36565b915061317782614010565b602582019050919050565b600061318f60ce83613b36565b915061319a8261405f565b60ce82019050919050565b60006131b2600183613b36565b91506131bd8261416c565b600182019050919050565b60006131d5602483613b25565b91506131e082614195565b604082019050919050565b60006131f8601983613b25565b9150613203826141e4565b602082019050919050565b600061321b602c83613b25565b91506132268261420d565b604082019050919050565b600061323e600d83613b36565b91506132498261425c565b600d82019050919050565b6000613261603883613b25565b915061326c82614285565b604082019050919050565b6000613284600183613b36565b915061328f826142d4565b600182019050919050565b60006132a760fd83613b36565b91506132b2826142fd565b60fd82019050919050565b60006132ca602a83613b25565b91506132d582614430565b604082019050919050565b60006132ed602983613b25565b91506132f88261447f565b604082019050919050565b6000613310600d83613b36565b915061331b826144ce565b600d82019050919050565b6000613333601a83613b25565b915061333e826144f7565b602082019050919050565b6000613356600283613b36565b915061336182614520565b600282019050919050565b6000613379602b83613b25565b915061338482614549565b604082019050919050565b600061339c602083613b25565b91506133a782614598565b602082019050919050565b60006133bf602c83613b25565b91506133ca826145c1565b604082019050919050565b60006133e2600583613b36565b91506133ed82614610565b600582019050919050565b6000613405602083613b25565b915061341082614639565b602082019050919050565b6000613428602983613b25565b915061343382614662565b604082019050919050565b600061344b600183613b36565b9150613456826146b1565b600182019050919050565b600061346e601683613b36565b9150613479826146da565b601682019050919050565b6000613491602183613b25565b915061349c82614703565b604082019050919050565b60006134b4601d83613b36565b91506134bf82614752565b601d82019050919050565b60006134d7603183613b25565b91506134e28261477b565b604082019050919050565b60006134fa602c83613b25565b9150613505826147ca565b604082019050919050565b600061351d602883613b36565b915061352882614819565b602882019050919050565b6000613540601f83613b25565b915061354b82614868565b602082019050919050565b61355f81613cb2565b82525050565b61356e81613ce0565b82525050565b600061358082846130a2565b915081905092915050565b600061359782856130a2565b91506135a382846130a2565b91508190509392505050565b60006135bb82856130a2565b91506135c6826133d5565b91506135d282846130a2565b91508190509392505050565b60006135e982613182565b9150819050919050565b60006135fe8261329a565b915061360982613303565b915061361582856130a2565b915061362082613510565b915061362c82846130a2565b915061363782613231565b91508190509392505050565b600061364e8261343e565b915061365a82866130a2565b9150613665826131a5565b915061367182856130a2565b915061367c8261315f565b915061368882846130a2565b915061369382613349565b9150819050949350505050565b60006136ab82613461565b91506136b782846130a2565b91506136c282613277565b915081905092915050565b60006136d8826134a7565b91506136e482846130a2565b915081905092915050565b60006020820190506137046000830184613003565b92915050565b600060208201905061371f6000830184612ff4565b92915050565b600060808201905061373a6000830187613003565b6137476020830186613003565b6137546040830185613565565b81810360608301526137668184613021565b905095945050505050565b60006040820190506137866000830185613003565b6137936020830184613565565b9392505050565b60006020820190506137af6000830184613012565b92915050565b60006020820190506137ca600083018461305a565b92915050565b600060208201905081810360008301526137ea8184613069565b905092915050565b6000602082019050818103600083015261380b816130d3565b9050919050565b6000602082019050818103600083015261382b816130f6565b9050919050565b6000602082019050818103600083015261384b81613119565b9050919050565b6000602082019050818103600083015261386b8161313c565b9050919050565b6000602082019050818103600083015261388b816131c8565b9050919050565b600060208201905081810360008301526138ab816131eb565b9050919050565b600060208201905081810360008301526138cb8161320e565b9050919050565b600060208201905081810360008301526138eb81613254565b9050919050565b6000602082019050818103600083015261390b816132bd565b9050919050565b6000602082019050818103600083015261392b816132e0565b9050919050565b6000602082019050818103600083015261394b81613326565b9050919050565b6000602082019050818103600083015261396b8161336c565b9050919050565b6000602082019050818103600083015261398b8161338f565b9050919050565b600060208201905081810360008301526139ab816133b2565b9050919050565b600060208201905081810360008301526139cb816133f8565b9050919050565b600060208201905081810360008301526139eb8161341b565b9050919050565b60006020820190508181036000830152613a0b81613484565b9050919050565b60006020820190508181036000830152613a2b816134ca565b9050919050565b60006020820190508181036000830152613a4b816134ed565b9050919050565b60006020820190508181036000830152613a6b81613533565b9050919050565b6000602082019050613a876000830184613556565b92915050565b6000602082019050613aa26000830184613565565b92915050565b6000613ab2613ac3565b9050613abe8282613d82565b919050565b6000604051905090565b600067ffffffffffffffff821115613ae857613ae7613eba565b5b613af182613ee9565b9050602081019050919050565b600081519050919050565b600081519050919050565b600082825260208201905092915050565b600082825260208201905092915050565b600081905092915050565b6000613b4c82613ce0565b9150613b5783613ce0565b9250827fffffffffffffffffffffffffffffffffffffffffffffffffffffffffffffffff03821115613b8c57613b8b613e2d565b5b828201905092915050565b6000613ba282613ce0565b9150613bad83613ce0565b925082613bbd57613bbc613e5c565b5b828204905092915050565b6000613bd382613ce0565b9150613bde83613ce0565b9250817fffffffffffffffffffffffffffffffffffffffffffffffffffffffffffffffff0483118215151615613c1757613c16613e2d565b5b828202905092915050565b6000613c2d82613ce0565b9150613c3883613ce0565b925082821015613c4b57613c4a613e2d565b5b828203905092915050565b6000613c6182613cc0565b9050919050565b6000613c7382613cc0565b9050919050565b60008115159050919050565b60007fffffffff0000000000000000000000000000000000000000000000000000000082169050919050565b600061ffff82169050919050565b600073ffffffffffffffffffffffffffffffffffffffff82169050919050565b6000819050919050565b6000613cf582613cfc565b9050919050565b6000613d0782613cc0565b9050919050565b82818337600083830152505050565b60005b83811015613d3b578082015181840152602081019050613d20565b83811115613d4a576000848401525b50505050565b60006002820490506001821680613d6857607f821691505b60208210811415613d7c57613d7b613e8b565b5b50919050565b613d8b82613ee9565b810181811067ffffffffffffffff82111715613daa57613da9613eba565b5b80604052505050565b6000613dbe82613ce0565b91507fffffffffffffffffffffffffffffffffffffffffffffffffffffffffffffffff821415613df157613df0613e2d565b5b600182019050919050565b6000613e0782613ce0565b9150613e1283613ce0565b925082613e2257613e21613e5c565b5b828206905092915050565b7f4e487b7100000000000000000000000000000000000000000000000000000000600052601160045260246000fd5b7f4e487b7100000000000000000000000000000000000000000000000000000000600052601260045260246000fd5b7f4e487b7100000000000000000000000000000000000000000000000000000000600052602260045260246000fd5b7f4e487b7100000000000000000000000000000000000000000000000000000000600052604160045260246000fd5b6000601f19601f8301169050919050565b7f455243373231456e756d657261626c653a206f776e657220696e646578206f7560008201527f74206f6620626f756e6473000000000000000000000000000000000000000000602082015250565b7f4552433732313a207472616e7366657220746f206e6f6e20455243373231526560008201527f63656976657220696d706c656d656e7465720000000000000000000000000000602082015250565b7f4f776e61626c653a206e6577206f776e657220697320746865207a65726f206160008201527f6464726573730000000000000000000000000000000000000000000000000000602082015250565b7f4552433732313a20746f6b656e20616c7265616479206d696e74656400000000600082015250565b7f2c22696d616765223a2022646174613a696d6167652f7376672b786d6c3b626160008201527f736536342c000000000000000000000000000000000000000000000000000000602082015250565b7f226465736372697074696f6e223a2022506562626c65204c6f6f74206973206160008201527f207265616c20776f726c6420646174612073746f726564206f6e20636861696e60208201527f2e2053746174732c20696d616765732c20616e64206f746865722066756e637460408201527f696f6e616c6974792061726520696e74656e74696f6e616c6c79206f6d69747460608201527f656420666f72206f746865727320746f20696e746572707265742e204665656c60808201527f206672656520746f2075736520506562626c65204c6f6f7420696e20616e792060a08201527f77617920796f752077616e742e2200000000000000000000000000000000000060c082015250565b7f2c00000000000000000000000000000000000000000000000000000000000000600082015250565b7f4552433732313a207472616e7366657220746f20746865207a65726f2061646460008201527f7265737300000000000000000000000000000000000000000000000000000000602082015250565b7f4552433732313a20617070726f766520746f2063616c6c657200000000000000600082015250565b7f4552433732313a206f70657261746f7220717565727920666f72206e6f6e657860008201527f697374656e7420746f6b656e0000000000000000000000000000000000000000602082015250565b7f3c2f746578743e3c2f7376673e00000000000000000000000000000000000000600082015250565b7f4552433732313a20617070726f76652063616c6c6572206973206e6f74206f7760008201527f6e6572206e6f7220617070726f76656420666f7220616c6c0000000000000000602082015250565b7f2200000000000000000000000000000000000000000000000000000000000000600082015250565b7f3c73766720786d6c6e733d22687474703a2f2f7777772e77332e6f72672f323060008201527f30302f73766722207072657365727665417370656374526174696f3d22784d6960208201527f6e594d696e206d656574222076696577426f783d22302030203335302033353060408201527f223e3c7374796c653e2e62617365207b2066696c6c3a2077686974653b20666f60608201527f6e742d66616d696c793a2073657269663b20666f6e742d73697a653a2031347060808201527f783b207d3c2f7374796c653e3c726563742077696474683d223130302522206860a08201527f65696768743d2231303025222066696c6c3d22626c61636b22202f3e3c74657860c08201527f7420783d2231302220793d2232302220636c6173733d2262617365223e00000060e082015250565b7f4552433732313a2062616c616e636520717565727920666f7220746865207a6560008201527f726f206164647265737300000000000000000000000000000000000000000000602082015250565b7f4552433732313a206f776e657220717565727920666f72206e6f6e657869737460008201527f656e7420746f6b656e0000000000000000000000000000000000000000000000602082015250565b7f506562626c6520536f756c202300000000000000000000000000000000000000600082015250565b7f436c61696d3a20546f6b656e20494420697320696e76616c6964000000000000600082015250565b7f227d000000000000000000000000000000000000000000000000000000000000600082015250565b7f596f752073686f756c64206f776e207468652064657669636520746f206d696e60008201527f742074686973206c6f6f74000000000000000000000000000000000000000000602082015250565b7f4552433732313a206d696e7420746f20746865207a65726f2061646472657373600082015250565b7f4552433732313a20617070726f76656420717565727920666f72206e6f6e657860008201527f697374656e7420746f6b656e0000000000000000000000000000000000000000602082015250565b7f20526f626f000000000000000000000000000000000000000000000000000000600082015250565b7f4f776e61626c653a2063616c6c6572206973206e6f7420746865206f776e6572600082015250565b7f4552433732313a207472616e73666572206f6620746f6b656e2074686174206960008201527f73206e6f74206f776e0000000000000000000000000000000000000000000000602082015250565b7f7b00000000000000000000000000000000000000000000000000000000000000600082015250565b7f226e616d65223a2022506562626c6520494d4549202300000000000000000000600082015250565b7f4552433732313a20617070726f76616c20746f2063757272656e74206f776e6560008201527f7200000000000000000000000000000000000000000000000000000000000000602082015250565b7f646174613a6170706c69636174696f6e2f6a736f6e3b6261736536342c000000600082015250565b7f4552433732313a207472616e736665722063616c6c6572206973206e6f74206f60008201527f776e6572206e6f7220617070726f766564000000000000000000000000000000602082015250565b7f455243373231456e756d657261626c653a20676c6f62616c20696e646578206f60008201527f7574206f6620626f756e64730000000000000000000000000000000000000000602082015250565b7f3c2f746578743e3c7465787420783d2231302220793d2234302220636c61737360008201527f3d2262617365223e000000000000000000000000000000000000000000000000602082015250565b7f5265656e7472616e637947756172643a207265656e7472616e742063616c6c00600082015250565b61489a81613c56565b81146148a557600080fd5b50565b6148b181613c68565b81146148bc57600080fd5b50565b6148c881613c7a565b81146148d357600080fd5b50565b6148df81613c86565b81146148ea57600080fd5b50565b6148f681613cb2565b811461490157600080fd5b50565b61490d81613ce0565b811461491857600080fd5b5056fe4142434445464748494a4b4c4d4e4f505152535455565758595a6162636465666768696a6b6c6d6e6f707172737475767778797a303132333435363738392b2fa264697066735822122038f8bf5c69e37f7c3cefdc869af3f274215fb71601bdb10c603b96c6641cca2a64736f6c63430008040033",
  "linkReferences": {},
  "deployedLinkReferences": {}
}