{
  "_format": "hh-sol-artifact-1",
  "contractName": "TrustedDataLoot",
  "sourceName": "contracts/TrustedDataLoot.sol",
  "abi": [
    {
      "inputs": [
        {
          "internalType": "string",
          "name": "name",
          "type": "string"
        },
        {
          "internalType": "string",
          "name": "symbol",
          "type": "string"
        }
      ],
      "stateMutability": "nonpayable",
      "type": "constructor"
    },
    {
      "anonymous": false,
      "inputs": [
        {
          "indexed": true,
          "internalType": "address",
          "name": "owner",
          "type": "address"
        },
        {
          "indexed": true,
          "internalType": "address",
          "name": "approved",
          "type": "address"
        },
        {
          "indexed": true,
          "internalType": "uint256",
          "name": "tokenId",
          "type": "uint256"
        }
      ],
      "name": "Approval",
      "type": "event"
    },
    {
      "anonymous": false,
      "inputs": [
        {
          "indexed": true,
          "internalType": "address",
          "name": "owner",
          "type": "address"
        },
        {
          "indexed": true,
          "internalType": "address",
          "name": "operator",
          "type": "address"
        },
        {
          "indexed": false,
          "internalType": "bool",
          "name": "approved",
          "type": "bool"
        }
      ],
      "name": "ApprovalForAll",
      "type": "event"
    },
    {
      "anonymous": false,
      "inputs": [
        {
          "indexed": true,
          "internalType": "address",
          "name": "previousOwner",
          "type": "address"
        },
        {
          "indexed": true,
          "internalType": "address",
          "name": "newOwner",
          "type": "address"
        }
      ],
      "name": "OwnershipTransferred",
      "type": "event"
    },
    {
      "anonymous": false,
      "inputs": [
        {
          "indexed": true,
          "internalType": "address",
          "name": "from",
          "type": "address"
        },
        {
          "indexed": true,
          "internalType": "address",
          "name": "to",
          "type": "address"
        },
        {
          "indexed": true,
          "internalType": "uint256",
          "name": "tokenId",
          "type": "uint256"
        }
      ],
      "name": "Transfer",
      "type": "event"
    },
    {
      "inputs": [
        {
          "internalType": "address",
          "name": "to",
          "type": "address"
        },
        {
          "internalType": "uint256",
          "name": "tokenId",
          "type": "uint256"
        }
      ],
      "name": "approve",
      "outputs": [],
      "stateMutability": "nonpayable",
      "type": "function"
    },
    {
      "inputs": [
        {
          "internalType": "address",
          "name": "owner",
          "type": "address"
        }
      ],
      "name": "balanceOf",
      "outputs": [
        {
          "internalType": "uint256",
          "name": "",
          "type": "uint256"
        }
      ],
      "stateMutability": "view",
      "type": "function"
    },
    {
      "inputs": [],
      "name": "baseURI",
      "outputs": [
        {
          "internalType": "string",
          "name": "",
          "type": "string"
        }
      ],
      "stateMutability": "view",
      "type": "function"
    },
    {
      "inputs": [],
      "name": "claim",
      "outputs": [],
      "stateMutability": "nonpayable",
      "type": "function"
    },
    {
      "inputs": [
        {
          "internalType": "uint256",
          "name": "tokenId",
          "type": "uint256"
        }
      ],
      "name": "getApproved",
      "outputs": [
        {
          "internalType": "address",
          "name": "",
          "type": "address"
        }
      ],
      "stateMutability": "view",
      "type": "function"
    },
    {
      "inputs": [
        {
          "internalType": "uint256",
          "name": "tokenId",
          "type": "uint256"
        }
      ],
      "name": "getDataHash",
      "outputs": [
        {
          "internalType": "string",
          "name": "",
          "type": "string"
        }
      ],
      "stateMutability": "view",
      "type": "function"
    },
    {
      "inputs": [
        {
          "internalType": "address",
          "name": "owner",
          "type": "address"
        },
        {
          "internalType": "address",
          "name": "operator",
          "type": "address"
        }
      ],
      "name": "isApprovedForAll",
      "outputs": [
        {
          "internalType": "bool",
          "name": "",
          "type": "bool"
        }
      ],
      "stateMutability": "view",
      "type": "function"
    },
    {
      "inputs": [],
      "name": "name",
      "outputs": [
        {
          "internalType": "string",
          "name": "",
          "type": "string"
        }
      ],
      "stateMutability": "view",
      "type": "function"
    },
    {
      "inputs": [],
      "name": "owner",
      "outputs": [
        {
          "internalType": "address",
          "name": "",
          "type": "address"
        }
      ],
      "stateMutability": "view",
      "type": "function"
    },
    {
      "inputs": [
        {
          "internalType": "uint256",
          "name": "tokenId",
          "type": "uint256"
        }
      ],
      "name": "ownerOf",
      "outputs": [
        {
          "internalType": "address",
          "name": "",
          "type": "address"
        }
      ],
      "stateMutability": "view",
      "type": "function"
    },
    {
      "inputs": [],
      "name": "renounceOwnership",
      "outputs": [],
      "stateMutability": "nonpayable",
      "type": "function"
    },
    {
      "inputs": [
        {
          "internalType": "address",
          "name": "from",
          "type": "address"
        },
        {
          "internalType": "address",
          "name": "to",
          "type": "address"
        },
        {
          "internalType": "uint256",
          "name": "tokenId",
          "type": "uint256"
        }
      ],
      "name": "safeTransferFrom",
      "outputs": [],
      "stateMutability": "nonpayable",
      "type": "function"
    },
    {
      "inputs": [
        {
          "internalType": "address",
          "name": "from",
          "type": "address"
        },
        {
          "internalType": "address",
          "name": "to",
          "type": "address"
        },
        {
          "internalType": "uint256",
          "name": "tokenId",
          "type": "uint256"
        },
        {
          "internalType": "bytes",
          "name": "_data",
          "type": "bytes"
        }
      ],
      "name": "safeTransferFrom",
      "outputs": [],
      "stateMutability": "nonpayable",
      "type": "function"
    },
    {
      "inputs": [
        {
          "internalType": "address",
          "name": "operator",
          "type": "address"
        },
        {
          "internalType": "bool",
          "name": "approved",
          "type": "bool"
        }
      ],
      "name": "setApprovalForAll",
      "outputs": [],
      "stateMutability": "nonpayable",
      "type": "function"
    },
    {
      "inputs": [
        {
          "internalType": "uint256",
          "name": "tokenId",
          "type": "uint256"
        },
        {
          "internalType": "uint32",
          "name": "_type",
          "type": "uint32"
        },
        {
          "internalType": "bytes",
          "name": "data",
          "type": "bytes"
        },
        {
          "internalType": "uint32",
          "name": "timestamp",
          "type": "uint32"
        }
      ],
      "name": "setTokenHash",
      "outputs": [],
      "stateMutability": "nonpayable",
      "type": "function"
    },
    {
      "inputs": [
        {
          "internalType": "bytes4",
          "name": "interfaceId",
          "type": "bytes4"
        }
      ],
      "name": "supportsInterface",
      "outputs": [
        {
          "internalType": "bool",
          "name": "",
          "type": "bool"
        }
      ],
      "stateMutability": "view",
      "type": "function"
    },
    {
      "inputs": [],
      "name": "symbol",
      "outputs": [
        {
          "internalType": "string",
          "name": "",
          "type": "string"
        }
      ],
      "stateMutability": "view",
      "type": "function"
    },
    {
      "inputs": [
        {
          "internalType": "uint8",
          "name": "_uint8",
          "type": "uint8"
        }
      ],
      "name": "toByte",
      "outputs": [
        {
          "internalType": "bytes1",
          "name": "",
          "type": "bytes1"
        }
      ],
      "stateMutability": "pure",
      "type": "function"
    },
    {
      "inputs": [
        {
          "internalType": "uint256",
          "name": "index",
          "type": "uint256"
        }
      ],
      "name": "tokenByIndex",
      "outputs": [
        {
          "internalType": "uint256",
          "name": "",
          "type": "uint256"
        }
      ],
      "stateMutability": "view",
      "type": "function"
    },
    {
      "inputs": [
        {
          "internalType": "address",
          "name": "owner",
          "type": "address"
        },
        {
          "internalType": "uint256",
          "name": "index",
          "type": "uint256"
        }
      ],
      "name": "tokenOfOwnerByIndex",
      "outputs": [
        {
          "internalType": "uint256",
          "name": "",
          "type": "uint256"
        }
      ],
      "stateMutability": "view",
      "type": "function"
    },
    {
      "inputs": [
        {
          "internalType": "uint256",
          "name": "tokenId",
          "type": "uint256"
        }
      ],
      "name": "tokenURI",
      "outputs": [
        {
          "internalType": "string",
          "name": "",
          "type": "string"
        }
      ],
      "stateMutability": "view",
      "type": "function"
    },
    {
      "inputs": [],
      "name": "totalSupply",
      "outputs": [
        {
          "internalType": "uint256",
          "name": "",
          "type": "uint256"
        }
      ],
      "stateMutability": "view",
      "type": "function"
    },
    {
      "inputs": [
        {
          "internalType": "address",
          "name": "from",
          "type": "address"
        },
        {
          "internalType": "address",
          "name": "to",
          "type": "address"
        },
        {
          "internalType": "uint256",
          "name": "tokenId",
          "type": "uint256"
        }
      ],
      "name": "transferFrom",
      "outputs": [],
      "stateMutability": "nonpayable",
      "type": "function"
    },
    {
      "inputs": [
        {
          "internalType": "address",
          "name": "newOwner",
          "type": "address"
        }
      ],
      "name": "transferOwnership",
      "outputs": [],
      "stateMutability": "nonpayable",
      "type": "function"
    }
  ],
  "bytecode": "0x60806040526000600c553480156200001657600080fd5b506040516200424538038062004245833981810160405260408110156200003c57600080fd5b81019080805160405193929190846401000000008211156200005d57600080fd5b838201915060208201858111156200007457600080fd5b82518660018202830111640100000000821117156200009257600080fd5b8083526020830192505050908051906020019080838360005b83811015620000c8578082015181840152602081019050620000ab565b50505050905090810190601f168015620000f65780820380516001836020036101000a031916815260200191505b50604052602001805160405193929190846401000000008211156200011a57600080fd5b838201915060208201858111156200013157600080fd5b82518660018202830111640100000000821117156200014f57600080fd5b8083526020830192505050908051906020019080838360005b838110156200018557808201518184015260208101905062000168565b50505050905090810190601f168015620001b35780820380516001836020036101000a031916815260200191505b506040525050508181620001d46301ffc9a760e01b6200031160201b60201c565b8160069080519060200190620001ec92919062000422565b5080600790805190602001906200020592919062000422565b506200021e6380ac58cd60e01b6200031160201b60201c565b62000236635b5e139f60e01b6200031160201b60201c565b6200024e63780e9d6360e01b6200031160201b60201c565b50506001600a8190555060006200026a6200041a60201b60201c565b905080600b60006101000a81548173ffffffffffffffffffffffffffffffffffffffff021916908373ffffffffffffffffffffffffffffffffffffffff1602179055508073ffffffffffffffffffffffffffffffffffffffff16600073ffffffffffffffffffffffffffffffffffffffff167f8be0079c531659141344cd1fd0a4f28419497f9722a3daafe3b4186f6b6457e060405160405180910390a3505050620004c8565b63ffffffff60e01b817bffffffffffffffffffffffffffffffffffffffffffffffffffffffff19161415620003ae576040517f08c379a000000000000000000000000000000000000000000000000000000000815260040180806020018281038252601c8152602001807f4552433136353a20696e76616c696420696e746572666163652069640000000081525060200191505060405180910390fd5b6001600080837bffffffffffffffffffffffffffffffffffffffffffffffffffffffff19167bffffffffffffffffffffffffffffffffffffffffffffffffffffffff1916815260200190815260200160002060006101000a81548160ff02191690831515021790555050565b600033905090565b828054600181600116156101000203166002900490600052602060002090601f016020900481019282601f106200046557805160ff191683800117855562000496565b8280016001018555821562000496579182015b828111156200049557825182559160200191906001019062000478565b5b509050620004a59190620004a9565b5090565b5b80821115620004c4576000816000905550600101620004aa565b5090565b613d6d80620004d86000396000f3fe608060405234801561001057600080fd5b50600436106101585760003560e01c806370a08231116100c3578063a595d8fc1161007c578063a595d8fc146107ba578063a86b73f014610861578063b88d4fde146108c8578063c87b56dd146109cd578063e985e9c514610a74578063f2fde38b14610aee57610158565b806370a082311461056c578063715018a6146105c4578063741a6ee6146105ce5780638da5cb5b146106b357806395d89b41146106e7578063a22cb4651461076a57610158565b80632f745c59116101155780632f745c591461037557806342842e0e146103d75780634e71d92d146104455780634f6ccce71461044f5780636352211e146104915780636c0360eb146104e957610158565b806301ffc9a71461015d57806306fdde03146101c0578063081812fc14610243578063095ea7b31461029b57806318160ddd146102e957806323b872dd14610307575b600080fd5b6101a86004803603602081101561017357600080fd5b8101908080357bffffffffffffffffffffffffffffffffffffffffffffffffffffffff19169060200190929190505050610b32565b60405180821515815260200191505060405180910390f35b6101c8610b99565b6040518080602001828103825283818151815260200191508051906020019080838360005b838110156102085780820151818401526020810190506101ed565b50505050905090810190601f1680156102355780820380516001836020036101000a031916815260200191505b509250505060405180910390f35b61026f6004803603602081101561025957600080fd5b8101908080359060200190929190505050610c3b565b604051808273ffffffffffffffffffffffffffffffffffffffff16815260200191505060405180910390f35b6102e7600480360360408110156102b157600080fd5b81019080803573ffffffffffffffffffffffffffffffffffffffff16906020019092919080359060200190929190505050610cd6565b005b6102f1610e1a565b6040518082815260200191505060405180910390f35b6103736004803603606081101561031d57600080fd5b81019080803573ffffffffffffffffffffffffffffffffffffffff169060200190929190803573ffffffffffffffffffffffffffffffffffffffff16906020019092919080359060200190929190505050610e2b565b005b6103c16004803603604081101561038b57600080fd5b81019080803573ffffffffffffffffffffffffffffffffffffffff16906020019092919080359060200190929190505050610ea1565b6040518082815260200191505060405180910390f35b610443600480360360608110156103ed57600080fd5b81019080803573ffffffffffffffffffffffffffffffffffffffff169060200190929190803573ffffffffffffffffffffffffffffffffffffffff16906020019092919080359060200190929190505050610efc565b005b61044d610f1c565b005b61047b6004803603602081101561046557600080fd5b8101908080359060200190929190505050610fd6565b6040518082815260200191505060405180910390f35b6104bd600480360360208110156104a757600080fd5b8101908080359060200190929190505050610ff9565b604051808273ffffffffffffffffffffffffffffffffffffffff16815260200191505060405180910390f35b6104f1611030565b6040518080602001828103825283818151815260200191508051906020019080838360005b83811015610531578082015181840152602081019050610516565b50505050905090810190601f16801561055e5780820380516001836020036101000a031916815260200191505b509250505060405180910390f35b6105ae6004803603602081101561058257600080fd5b81019080803573ffffffffffffffffffffffffffffffffffffffff1690602001909291905050506110d2565b6040518082815260200191505060405180910390f35b6105cc6111a7565b005b6106b1600480360360808110156105e457600080fd5b8101908080359060200190929190803563ffffffff1690602001909291908035906020019064010000000081111561061b57600080fd5b82018360208201111561062d57600080fd5b8035906020019184600183028401116401000000008311171561064f57600080fd5b91908080601f016020809104026020016040519081016040528093929190818152602001838380828437600081840152601f19601f820116905080830192505050505050509192919290803563ffffffff169060200190929190505050611317565b005b6106bb61161a565b604051808273ffffffffffffffffffffffffffffffffffffffff16815260200191505060405180910390f35b6106ef611644565b6040518080602001828103825283818151815260200191508051906020019080838360005b8381101561072f578082015181840152602081019050610714565b50505050905090810190601f16801561075c5780820380516001836020036101000a031916815260200191505b509250505060405180910390f35b6107b86004803603604081101561078057600080fd5b81019080803573ffffffffffffffffffffffffffffffffffffffff1690602001909291908035151590602001909291905050506116e6565b005b6107e6600480360360208110156107d057600080fd5b810190808035906020019092919050505061189c565b6040518080602001828103825283818151815260200191508051906020019080838360005b8381101561082657808201518184015260208101905061080b565b50505050905090810190601f1680156108535780820380516001836020036101000a031916815260200191505b509250505060405180910390f35b6108906004803603602081101561087757600080fd5b81019080803560ff169060200190929190505050611a41565b60405180827effffffffffffffffffffffffffffffffffffffffffffffffffffffffffffff1916815260200191505060405180910390f35b6109cb600480360360808110156108de57600080fd5b81019080803573ffffffffffffffffffffffffffffffffffffffff169060200190929190803573ffffffffffffffffffffffffffffffffffffffff169060200190929190803590602001909291908035906020019064010000000081111561094557600080fd5b82018360208201111561095757600080fd5b8035906020019184600183028401116401000000008311171561097957600080fd5b91908080601f016020809104026020016040519081016040528093929190818152602001838380828437600081840152601f19601f820116905080830192505050505050509192919290505050611a6c565b005b6109f9600480360360208110156109e357600080fd5b8101908080359060200190929190505050611ae4565b6040518080602001828103825283818151815260200191508051906020019080838360005b83811015610a39578082015181840152602081019050610a1e565b50505050905090810190601f168015610a665780820380516001836020036101000a031916815260200191505b509250505060405180910390f35b610ad660048036036040811015610a8a57600080fd5b81019080803573ffffffffffffffffffffffffffffffffffffffff169060200190929190803573ffffffffffffffffffffffffffffffffffffffff1690602001909291905050506120f8565b60405180821515815260200191505060405180910390f35b610b3060048036036020811015610b0457600080fd5b81019080803573ffffffffffffffffffffffffffffffffffffffff16906020019092919050505061218c565b005b6000806000837bffffffffffffffffffffffffffffffffffffffffffffffffffffffff19167bffffffffffffffffffffffffffffffffffffffffffffffffffffffff1916815260200190815260200160002060009054906101000a900460ff169050919050565b606060068054600181600116156101000203166002900480601f016020809104026020016040519081016040528092919081815260200182805460018160011615610100020316600290048015610c315780601f10610c0657610100808354040283529160200191610c31565b820191906000526020600020905b815481529060010190602001808311610c1457829003601f168201915b5050505050905090565b6000610c4682612381565b610c9b576040517f08c379a000000000000000000000000000000000000000000000000000000000815260040180806020018281038252602c815260200180613b97602c913960400191505060405180910390fd5b6004600083815260200190815260200160002060009054906101000a900473ffffffffffffffffffffffffffffffffffffffff169050919050565b6000610ce182610ff9565b90508073ffffffffffffffffffffffffffffffffffffffff168373ffffffffffffffffffffffffffffffffffffffff161415610d68576040517f08c379a0000000000000000000000000000000000000000000000000000000008152600401808060200182810382526021815260200180613c126021913960400191505060405180910390fd5b8073ffffffffffffffffffffffffffffffffffffffff16610d8761239e565b73ffffffffffffffffffffffffffffffffffffffff161480610db65750610db581610db061239e565b6120f8565b5b610e0b576040517f08c379a0000000000000000000000000000000000000000000000000000000008152600401808060200182810382526038815260200180613aaa6038913960400191505060405180910390fd5b610e1583836123a6565b505050565b6000610e26600261245f565b905090565b610e3c610e3661239e565b82612474565b610e91576040517f08c379a0000000000000000000000000000000000000000000000000000000008152600401808060200182810382526031815260200180613d076031913960400191505060405180910390fd5b610e9c838383612568565b505050565b6000610ef482600160008673ffffffffffffffffffffffffffffffffffffffff1673ffffffffffffffffffffffffffffffffffffffff1681526020019081526020016000206127ab90919063ffffffff16565b905092915050565b610f1783838360405180602001604052806000815250611a6c565b505050565b6002600a541415610f95576040517f08c379a000000000000000000000000000000000000000000000000000000000815260040180806020018281038252601f8152602001807f5265656e7472616e637947756172643a207265656e7472616e742063616c6c0081525060200191505060405180910390fd5b6002600a81905550610fb36001600c546127c590919063ffffffff16565b600c81905550610fcc610fc461239e565b600c5461284d565b6001600a81905550565b600080610fed83600261286b90919063ffffffff16565b50905080915050919050565b600061102982604051806060016040528060298152602001613b0c6029913960026128979092919063ffffffff16565b9050919050565b606060098054600181600116156101000203166002900480601f0160208091040260200160405190810160405280929190818152602001828054600181600116156101000203166002900480156110c85780601f1061109d576101008083540402835291602001916110c8565b820191906000526020600020905b8154815290600101906020018083116110ab57829003601f168201915b5050505050905090565b60008073ffffffffffffffffffffffffffffffffffffffff168273ffffffffffffffffffffffffffffffffffffffff161415611159576040517f08c379a000000000000000000000000000000000000000000000000000000000815260040180806020018281038252602a815260200180613ae2602a913960400191505060405180910390fd5b6111a0600160008473ffffffffffffffffffffffffffffffffffffffff1673ffffffffffffffffffffffffffffffffffffffff1681526020019081526020016000206128b6565b9050919050565b6111af61239e565b73ffffffffffffffffffffffffffffffffffffffff166111cd61161a565b73ffffffffffffffffffffffffffffffffffffffff1614611256576040517f08c379a00000000000000000000000000000000000000000000000000000000081526004018080602001828103825260208152602001807f4f776e61626c653a2063616c6c6572206973206e6f7420746865206f776e657281525060200191505060405180910390fd5b600073ffffffffffffffffffffffffffffffffffffffff16600b60009054906101000a900473ffffffffffffffffffffffffffffffffffffffff1673ffffffffffffffffffffffffffffffffffffffff167f8be0079c531659141344cd1fd0a4f28419497f9722a3daafe3b4186f6b6457e060405160405180910390a36000600b60006101000a81548173ffffffffffffffffffffffffffffffffffffffff021916908373ffffffffffffffffffffffffffffffffffffffff160217905550565b8361132181612381565b611376576040517f08c379a000000000000000000000000000000000000000000000000000000000815260040180806020018281038252602c815260200180613a2c602c913960400191505060405180910390fd5b84600061138282610ff9565b90508073ffffffffffffffffffffffffffffffffffffffff166113a361239e565b73ffffffffffffffffffffffffffffffffffffffff1614806113d257506113d1816113cc61239e565b6120f8565b5b611427576040517f08c379a0000000000000000000000000000000000000000000000000000000008152600401808060200182810382526038815260200180613aaa6038913960400191505060405180910390fd5b60006002878787604051602001808463ffffffff1660e01b815260040183805190602001908083835b602083106114735780518252602082019150602081019050602083039250611450565b6001836020036101000a0380198251168184511680821785525050505050509050018263ffffffff1660e01b815260040193505050506040516020818303038152906040526040518082805190602001908083835b602083106114eb57805182526020820191506020810190506020830392506114c8565b6001836020036101000a038019825116818451168082178552505050505050905001915050602060405180830381855afa15801561152d573d6000803e3d6000fd5b5050506040513d602081101561154257600080fd5b81019080805190602001909291905050509050600e600082815260200190815260200160002060009054906101000a900460ff16156115cc576040517f08c379a0000000000000000000000000000000000000000000000000000000008152600401808060200182810382526026815260200180613bec6026913960400191505060405180910390fd5b6001600e600083815260200190815260200160002060006101000a81548160ff02191690831515021790555080600d60008a8152602001908152602001600020819055505050505050505050565b6000600b60009054906101000a900473ffffffffffffffffffffffffffffffffffffffff16905090565b606060078054600181600116156101000203166002900480601f0160208091040260200160405190810160405280929190818152602001828054600181600116156101000203166002900480156116dc5780601f106116b1576101008083540402835291602001916116dc565b820191906000526020600020905b8154815290600101906020018083116116bf57829003601f168201915b5050505050905090565b6116ee61239e565b73ffffffffffffffffffffffffffffffffffffffff168273ffffffffffffffffffffffffffffffffffffffff16141561178f576040517f08c379a00000000000000000000000000000000000000000000000000000000081526004018080602001828103825260198152602001807f4552433732313a20617070726f766520746f2063616c6c65720000000000000081525060200191505060405180910390fd5b806005600061179c61239e565b73ffffffffffffffffffffffffffffffffffffffff1673ffffffffffffffffffffffffffffffffffffffff16815260200190815260200160002060008473ffffffffffffffffffffffffffffffffffffffff1673ffffffffffffffffffffffffffffffffffffffff16815260200190815260200160002060006101000a81548160ff0219169083151502179055508173ffffffffffffffffffffffffffffffffffffffff1661184961239e565b73ffffffffffffffffffffffffffffffffffffffff167f17307eab39ab6107e8899845ad3d59bd9653f200f220920489ca2b5937696c318360405180821515815260200191505060405180910390a35050565b60606000600d600084815260200190815260200160002054905060006060604067ffffffffffffffff811180156118d257600080fd5b506040519080825280601f01601f1916602001820160405280156119055781602001600182028036833780820191505090505b509050600091505b80518260ff161015611a36576000600f60f81b8460028560ff168161192e57fe5b0460ff166020811061193c57fe5b1a60f81b1660f81c9050600060048560028660ff168161195857fe5b0460ff166020811061196657fe5b1a60f81b7effffffffffffffffffffffffffffffffffffffffffffffffffffffffffffff1916901c60f81c905061199c82611a41565b838560ff16815181106119ab57fe5b60200101907effffffffffffffffffffffffffffffffffffffffffffffffffffffffffffff1916908160001a9053506001840193506119e981611a41565b838560ff16815181106119f857fe5b60200101907effffffffffffffffffffffffffffffffffffffffffffffffffffffffffffff1916908160001a9053505050818060010192505061190d565b809350505050919050565b6000600a8260ff161015611a5d576030820160f81b9050611a67565b6057820160f81b90505b919050565b611a7d611a7761239e565b83612474565b611ad2576040517f08c379a0000000000000000000000000000000000000000000000000000000008152600401808060200182810382526031815260200180613d076031913960400191505060405180910390fd5b611ade848484846128cb565b50505050565b606081611af081612381565b611b45576040517f08c379a000000000000000000000000000000000000000000000000000000000815260040180806020018281038252602c815260200180613a2c602c913960400191505060405180910390fd5b611b4d613844565b60405180610120016040528060fd815260200161386c60fd913981600060038110611b7457fe5b6020020181905250611b858461189c565b60405160200180807f307800000000000000000000000000000000000000000000000000000000000081525060020182805190602001908083835b60208310611be35780518252602082019150602081019050602083039250611bc0565b6001836020036101000a03801982511681845116808217855250505050505090500191505060405160208183030381529060405281600160038110611c2457fe5b60200201819052506040518060400160405280600d81526020017f3c2f746578743e3c2f7376673e0000000000000000000000000000000000000081525081600260038110611c6f57fe5b6020020181905250606081600060038110611c8657fe5b602002015182600160038110611c9857fe5b602002015183600260038110611caa57fe5b60200201516040516020018084805190602001908083835b60208310611ce55780518252602082019150602081019050602083039250611cc2565b6001836020036101000a03801982511681845116808217855250505050505090500183805190602001908083835b60208310611d365780518252602082019150602081019050602083039250611d13565b6001836020036101000a03801982511681845116808217855250505050505090500182805190602001908083835b60208310611d875780518252602082019150602081019050602083039250611d64565b6001836020036101000a038019825116818451168082178552505050505050905001935050505060405160208183030381529060405290506060611dca8661293d565b60405160200180807f226e616d65223a2022547275737465642064617461204c6f6f74202300000000815250601c0182805190602001908083835b60208310611e285780518252602082019150602081019050602083039250611e05565b6001836020036101000a038019825116818451168082178552505050505050905001807f2200000000000000000000000000000000000000000000000000000000000000815250600101915050604051602081830303815290604052905060606040516020018080613c3360d4913960d4019050604051602081830303815290604052905060606120538383611ebd87612a77565b60405160200180807f7b0000000000000000000000000000000000000000000000000000000000000081525060010184805190602001908083835b60208310611f1b5780518252602082019150602081019050602083039250611ef8565b6001836020036101000a038019825116818451168082178552505050505050905001807f2c0000000000000000000000000000000000000000000000000000000000000081525060010183805190602001908083835b60208310611f945780518252602082019150602081019050602083039250611f71565b6001836020036101000a038019825116818451168082178552505050505050905001806139e36025913960250182805190602001908083835b60208310611ff05780518252602082019150602081019050602083039250611fcd565b6001836020036101000a038019825116818451168082178552505050505050905001807f227d0000000000000000000000000000000000000000000000000000000000008152506002019350505050604051602081830303815290604052612a77565b90508060405160200180807f646174613a6170706c69636174696f6e2f6a736f6e3b6261736536342c000000815250601d0182805190602001908083835b602083106120b45780518252602082019150602081019050602083039250612091565b6001836020036101000a0380198251168184511680821785525050505050509050019150506040516020818303038152906040529350839650505050505050919050565b6000600560008473ffffffffffffffffffffffffffffffffffffffff1673ffffffffffffffffffffffffffffffffffffffff16815260200190815260200160002060008373ffffffffffffffffffffffffffffffffffffffff1673ffffffffffffffffffffffffffffffffffffffff16815260200190815260200160002060009054906101000a900460ff16905092915050565b61219461239e565b73ffffffffffffffffffffffffffffffffffffffff166121b261161a565b73ffffffffffffffffffffffffffffffffffffffff161461223b576040517f08c379a00000000000000000000000000000000000000000000000000000000081526004018080602001828103825260208152602001807f4f776e61626c653a2063616c6c6572206973206e6f7420746865206f776e657281525060200191505060405180910390fd5b600073ffffffffffffffffffffffffffffffffffffffff168173ffffffffffffffffffffffffffffffffffffffff1614156122c1576040517f08c379a00000000000000000000000000000000000000000000000000000000081526004018080602001828103825260268152602001806139bd6026913960400191505060405180910390fd5b8073ffffffffffffffffffffffffffffffffffffffff16600b60009054906101000a900473ffffffffffffffffffffffffffffffffffffffff1673ffffffffffffffffffffffffffffffffffffffff167f8be0079c531659141344cd1fd0a4f28419497f9722a3daafe3b4186f6b6457e060405160405180910390a380600b60006101000a81548173ffffffffffffffffffffffffffffffffffffffff021916908373ffffffffffffffffffffffffffffffffffffffff16021790555050565b6000612397826002612bf090919063ffffffff16565b9050919050565b600033905090565b816004600083815260200190815260200160002060006101000a81548173ffffffffffffffffffffffffffffffffffffffff021916908373ffffffffffffffffffffffffffffffffffffffff160217905550808273ffffffffffffffffffffffffffffffffffffffff1661241983610ff9565b73ffffffffffffffffffffffffffffffffffffffff167f8c5be1e5ebec7d5bd14f71427d1e84f3dd0314c0f7b2291e5b200ac8c7c3b92560405160405180910390a45050565b600061246d82600001612c0a565b9050919050565b600061247f82612381565b6124d4576040517f08c379a000000000000000000000000000000000000000000000000000000000815260040180806020018281038252602c815260200180613a7e602c913960400191505060405180910390fd5b60006124df83610ff9565b90508073ffffffffffffffffffffffffffffffffffffffff168473ffffffffffffffffffffffffffffffffffffffff16148061254e57508373ffffffffffffffffffffffffffffffffffffffff1661253684610c3b565b73ffffffffffffffffffffffffffffffffffffffff16145b8061255f575061255e81856120f8565b5b91505092915050565b8273ffffffffffffffffffffffffffffffffffffffff1661258882610ff9565b73ffffffffffffffffffffffffffffffffffffffff16146125f4576040517f08c379a0000000000000000000000000000000000000000000000000000000008152600401808060200182810382526029815260200180613bc36029913960400191505060405180910390fd5b600073ffffffffffffffffffffffffffffffffffffffff168273ffffffffffffffffffffffffffffffffffffffff16141561267a576040517f08c379a0000000000000000000000000000000000000000000000000000000008152600401808060200182810382526024815260200180613a086024913960400191505060405180910390fd5b612685838383612c1b565b6126906000826123a6565b6126e181600160008673ffffffffffffffffffffffffffffffffffffffff1673ffffffffffffffffffffffffffffffffffffffff168152602001908152602001600020612c2090919063ffffffff16565b5061273381600160008573ffffffffffffffffffffffffffffffffffffffff1673ffffffffffffffffffffffffffffffffffffffff168152602001908152602001600020612c3a90919063ffffffff16565b5061274a81836002612c549092919063ffffffff16565b50808273ffffffffffffffffffffffffffffffffffffffff168473ffffffffffffffffffffffffffffffffffffffff167fddf252ad1be2c89b69c2b068fc378daa952ba7f163c4a11628f55a4df523b3ef60405160405180910390a4505050565b60006127ba8360000183612c89565b60001c905092915050565b600080828401905083811015612843576040517f08c379a000000000000000000000000000000000000000000000000000000000815260040180806020018281038252601b8152602001807f536166654d6174683a206164646974696f6e206f766572666c6f77000000000081525060200191505060405180910390fd5b8091505092915050565b612867828260405180602001604052806000815250612d0c565b5050565b60008060008061287e8660000186612d7d565b915091508160001c8160001c9350935050509250929050565b60006128aa846000018460001b84612e16565b60001c90509392505050565b60006128c482600001612f0c565b9050919050565b6128d6848484612568565b6128e284848484612f1d565b612937576040517f08c379a000000000000000000000000000000000000000000000000000000000815260040180806020018281038252603281526020018061398b6032913960400191505060405180910390fd5b50505050565b60606000821415612985576040518060400160405280600181526020017f30000000000000000000000000000000000000000000000000000000000000008152509050612a72565b600082905060005b600082146129af578080600101915050600a82816129a757fe5b04915061298d565b60608167ffffffffffffffff811180156129c857600080fd5b506040519080825280601f01601f1916602001820160405280156129fb5781602001600182028036833780820191505090505b5090505b60008514612a6b57600182039150600a8581612a1757fe5b0660300160f81b818381518110612a2a57fe5b60200101907effffffffffffffffffffffffffffffffffffffffffffffffffffffffffffff1916908160001a905350600a8581612a6357fe5b0494506129ff565b8093505050505b919050565b60606000825190506000811415612aa05760405180602001604052806000815250915050612beb565b600060036002830181612aaf57fe5b04600402905060606020820167ffffffffffffffff81118015612ad157600080fd5b506040519080825280601f01601f191660200182016040528015612b045781602001600182028036833780820191505090505b5090506060604051806060016040528060408152602001613b35604091399050600181016020830160005b86811015612ba85760038101905062ffffff818a015116603f8160121c168401518060081b905060ff603f83600c1c1686015116810190508060081b905060ff603f8360061c1686015116810190508060081b905060ff603f831686015116810190508060e01b90508084526004840193505050612b2f565b506003860660018114612bc25760028114612bd257612bdd565b613d3d60f01b6002830352612bdd565b603d60f81b60018303525b508484525050819450505050505b919050565b6000612c02836000018360001b613136565b905092915050565b600081600001805490509050919050565b505050565b6000612c32836000018360001b613159565b905092915050565b6000612c4c836000018360001b613241565b905092915050565b6000612c80846000018460001b8473ffffffffffffffffffffffffffffffffffffffff1660001b6132b1565b90509392505050565b600081836000018054905011612cea576040517f08c379a00000000000000000000000000000000000000000000000000000000081526004018080602001828103825260228152602001806139696022913960400191505060405180910390fd5b826000018281548110612cf957fe5b9060005260206000200154905092915050565b612d16838361338d565b612d236000848484612f1d565b612d78576040517f08c379a000000000000000000000000000000000000000000000000000000000815260040180806020018281038252603281526020018061398b6032913960400191505060405180910390fd5b505050565b60008082846000018054905011612ddf576040517f08c379a0000000000000000000000000000000000000000000000000000000008152600401808060200182810382526022815260200180613b756022913960400191505060405180910390fd5b6000846000018481548110612df057fe5b906000526020600020906002020190508060000154816001015492509250509250929050565b60008084600101600085815260200190815260200160002054905060008114158390612edd576040517f08c379a00000000000000000000000000000000000000000000000000000000081526004018080602001828103825283818151815260200191508051906020019080838360005b83811015612ea2578082015181840152602081019050612e87565b50505050905090810190601f168015612ecf5780820380516001836020036101000a031916815260200191505b509250505060405180910390fd5b50846000016001820381548110612ef057fe5b9060005260206000209060020201600101549150509392505050565b600081600001805490509050919050565b6000612f3e8473ffffffffffffffffffffffffffffffffffffffff16613581565b612f4b576001905061312e565b60606130b563150b7a0260e01b612f6061239e565b888787604051602401808573ffffffffffffffffffffffffffffffffffffffff1681526020018473ffffffffffffffffffffffffffffffffffffffff16815260200183815260200180602001828103825283818151815260200191508051906020019080838360005b83811015612fe4578082015181840152602081019050612fc9565b50505050905090810190601f1680156130115780820380516001836020036101000a031916815260200191505b5095505050505050604051602081830303815290604052907bffffffffffffffffffffffffffffffffffffffffffffffffffffffff19166020820180517bffffffffffffffffffffffffffffffffffffffffffffffffffffffff838183161783525050505060405180606001604052806032815260200161398b603291398773ffffffffffffffffffffffffffffffffffffffff166135949092919063ffffffff16565b905060008180602001905160208110156130ce57600080fd5b8101908080519060200190929190505050905063150b7a0260e01b7bffffffffffffffffffffffffffffffffffffffffffffffffffffffff1916817bffffffffffffffffffffffffffffffffffffffffffffffffffffffff191614925050505b949350505050565b600080836001016000848152602001908152602001600020541415905092915050565b6000808360010160008481526020019081526020016000205490506000811461323557600060018203905060006001866000018054905003905060008660000182815481106131a457fe5b90600052602060002001549050808760000184815481106131c157fe5b90600052602060002001819055506001830187600101600083815260200190815260200160002081905550866000018054806131f957fe5b6001900381819060005260206000200160009055905586600101600087815260200190815260200160002060009055600194505050505061323b565b60009150505b92915050565b600061324d83836135ac565b6132a65782600001829080600181540180825580915050600190039060005260206000200160009091909190915055826000018054905083600101600084815260200190815260200160002081905550600190506132ab565b600090505b92915050565b600080846001016000858152602001908152602001600020549050600081141561335857846000016040518060400160405280868152602001858152509080600181540180825580915050600190039060005260206000209060020201600090919091909150600082015181600001556020820151816001015550508460000180549050856001016000868152602001908152602001600020819055506001915050613386565b8285600001600183038154811061336b57fe5b90600052602060002090600202016001018190555060009150505b9392505050565b600073ffffffffffffffffffffffffffffffffffffffff168273ffffffffffffffffffffffffffffffffffffffff161415613430576040517f08c379a00000000000000000000000000000000000000000000000000000000081526004018080602001828103825260208152602001807f4552433732313a206d696e7420746f20746865207a65726f206164647265737381525060200191505060405180910390fd5b61343981612381565b156134ac576040517f08c379a000000000000000000000000000000000000000000000000000000000815260040180806020018281038252601c8152602001807f4552433732313a20746f6b656e20616c7265616479206d696e7465640000000081525060200191505060405180910390fd5b6134b860008383612c1b565b61350981600160008573ffffffffffffffffffffffffffffffffffffffff1673ffffffffffffffffffffffffffffffffffffffff168152602001908152602001600020612c3a90919063ffffffff16565b5061352081836002612c549092919063ffffffff16565b50808273ffffffffffffffffffffffffffffffffffffffff16600073ffffffffffffffffffffffffffffffffffffffff167fddf252ad1be2c89b69c2b068fc378daa952ba7f163c4a11628f55a4df523b3ef60405160405180910390a45050565b600080823b905060008111915050919050565b60606135a384846000856135cf565b90509392505050565b600080836001016000848152602001908152602001600020541415905092915050565b60608247101561362a576040517f08c379a0000000000000000000000000000000000000000000000000000000008152600401808060200182810382526026815260200180613a586026913960400191505060405180910390fd5b61363385613581565b6136a5576040517f08c379a000000000000000000000000000000000000000000000000000000000815260040180806020018281038252601d8152602001807f416464726573733a2063616c6c20746f206e6f6e2d636f6e747261637400000081525060200191505060405180910390fd5b600060608673ffffffffffffffffffffffffffffffffffffffff1685876040518082805190602001908083835b602083106136f557805182526020820191506020810190506020830392506136d2565b6001836020036101000a03801982511681845116808217855250505050505090500191505060006040518083038185875af1925050503d8060008114613757576040519150601f19603f3d011682016040523d82523d6000602084013e61375c565b606091505b509150915061376c828286613778565b92505050949350505050565b606083156137885782905061383d565b60008351111561379b5782518084602001fd5b816040517f08c379a00000000000000000000000000000000000000000000000000000000081526004018080602001828103825283818151815260200191508051906020019080838360005b838110156138025780820151818401526020810190506137e7565b50505050905090810190601f16801561382f5780820380516001836020036101000a031916815260200191505b509250505060405180910390fd5b9392505050565b60405180606001604052806003905b6060815260200190600190039081613853579050509056fe3c73766720786d6c6e733d22687474703a2f2f7777772e77332e6f72672f323030302f73766722207072657365727665417370656374526174696f3d22784d696e594d696e206d656574222076696577426f783d223020302033353020333530223e3c7374796c653e2e62617365207b2066696c6c3a2077686974653b20666f6e742d66616d696c793a2073657269663b20666f6e742d73697a653a20313070783b207d3c2f7374796c653e3c726563742077696474683d223130302522206865696768743d2231303025222066696c6c3d22626c61636b22202f3e3c7465787420783d2231302220793d2232302220636c6173733d2262617365223e456e756d657261626c655365743a20696e646578206f7574206f6620626f756e64734552433732313a207472616e7366657220746f206e6f6e20455243373231526563656976657220696d706c656d656e7465724f776e61626c653a206e6577206f776e657220697320746865207a65726f20616464726573732c22696d616765223a2022646174613a696d6167652f7376672b786d6c3b6261736536342c4552433732313a207472616e7366657220746f20746865207a65726f20616464726573734552433732313a20736574206861736820717565727920666f72206e6f6e6578697374656e7420746f6b656e416464726573733a20696e73756666696369656e742062616c616e636520666f722063616c6c4552433732313a206f70657261746f7220717565727920666f72206e6f6e6578697374656e7420746f6b656e4552433732313a20617070726f76652063616c6c6572206973206e6f74206f776e6572206e6f7220617070726f76656420666f7220616c6c4552433732313a2062616c616e636520717565727920666f7220746865207a65726f20616464726573734552433732313a206f776e657220717565727920666f72206e6f6e6578697374656e7420746f6b656e4142434445464748494a4b4c4d4e4f505152535455565758595a6162636465666768696a6b6c6d6e6f707172737475767778797a303132333435363738392b2f456e756d657261626c654d61703a20696e646578206f7574206f6620626f756e64734552433732313a20617070726f76656420717565727920666f72206e6f6e6578697374656e7420746f6b656e4552433732313a207472616e73666572206f6620746f6b656e2074686174206973206e6f74206f776e546869732064617461706f696e7420686173206265656e206d696e74656420616c72656164794552433732313a20617070726f76616c20746f2063757272656e74206f776e6572226465736372697074696f6e223a2022547275737465642064617461206c6f6f742069732061207265616c20776f726c6420646174612073746f726564206f6e20636861696e2e2053746174732c20696d616765732c20616e64206f746865722066756e6374696f6e616c6974792061726520696e74656e74696f6e616c6c79206f6d697474656420666f72206f746865727320746f20696e746572707265742e204665656c206672656520746f2075736520506562626c65204c6f6f7420696e20616e792077617920796f752077616e742e224552433732313a207472616e736665722063616c6c6572206973206e6f74206f776e6572206e6f7220617070726f766564a26469706673582212206e92fe2ebc78c71068681f208df07c1c5b22e4b7265643d028996b70063f506d64736f6c63430007030033",
  "linkReferences": {},
  "deployedLinkReferences": {}
}