{
  "_format": "hh-sol-artifact-1",
  "contractName": "LootStake",
  "sourceName": "contracts/LootStake.sol",
  "abi": [
    {
      "inputs": [
        {
          "internalType": "contract PebbleToken",
          "name": "_pbl",
          "type": "address"
        },
        {
          "internalType": "contract DatapointLoot",
          "name": "_pNFT",
          "type": "address"
        },
        {
          "internalType": "uint256",
          "name": "_pblPerBlock",
          "type": "uint256"
        },
        {
          "internalType": "address payable",
          "name": "_feeAddress",
          "type": "address"
        }
      ],
      "stateMutability": "nonpayable",
      "type": "constructor"
    },
    {
      "anonymous": false,
      "inputs": [
        {
          "indexed": true,
          "internalType": "address",
          "name": "user",
          "type": "address"
        },
        {
          "indexed": true,
          "internalType": "uint256",
          "name": "tokenId",
          "type": "uint256"
        },
        {
          "indexed": false,
          "internalType": "uint256",
          "name": "digPower",
          "type": "uint256"
        }
      ],
      "name": "Deposit",
      "type": "event"
    },
    {
      "anonymous": false,
      "inputs": [
        {
          "indexed": true,
          "internalType": "address",
          "name": "previousOwner",
          "type": "address"
        },
        {
          "indexed": true,
          "internalType": "address",
          "name": "newOwner",
          "type": "address"
        }
      ],
      "name": "OwnershipTransferred",
      "type": "event"
    },
    {
      "anonymous": false,
      "inputs": [
        {
          "indexed": true,
          "internalType": "address",
          "name": "user",
          "type": "address"
        },
        {
          "indexed": true,
          "internalType": "uint256",
          "name": "tokenId",
          "type": "uint256"
        }
      ],
      "name": "Withdraw",
      "type": "event"
    },
    {
      "inputs": [],
      "name": "accPblPerHashPowerUnit",
      "outputs": [
        {
          "internalType": "uint256",
          "name": "",
          "type": "uint256"
        }
      ],
      "stateMutability": "view",
      "type": "function"
    },
    {
      "inputs": [
        {
          "internalType": "uint256",
          "name": "_tokenId",
          "type": "uint256"
        }
      ],
      "name": "deposit",
      "outputs": [],
      "stateMutability": "nonpayable",
      "type": "function"
    },
    {
      "inputs": [],
      "name": "feeAddress",
      "outputs": [
        {
          "internalType": "address payable",
          "name": "",
          "type": "address"
        }
      ],
      "stateMutability": "view",
      "type": "function"
    },
    {
      "inputs": [],
      "name": "lastRewardBlock",
      "outputs": [
        {
          "internalType": "uint256",
          "name": "",
          "type": "uint256"
        }
      ],
      "stateMutability": "view",
      "type": "function"
    },
    {
      "inputs": [
        {
          "internalType": "address",
          "name": "",
          "type": "address"
        },
        {
          "internalType": "address",
          "name": "",
          "type": "address"
        },
        {
          "internalType": "uint256",
          "name": "",
          "type": "uint256"
        },
        {
          "internalType": "bytes",
          "name": "",
          "type": "bytes"
        }
      ],
      "name": "onERC721Received",
      "outputs": [
        {
          "internalType": "bytes4",
          "name": "",
          "type": "bytes4"
        }
      ],
      "stateMutability": "pure",
      "type": "function"
    },
    {
      "inputs": [],
      "name": "owner",
      "outputs": [
        {
          "internalType": "address",
          "name": "",
          "type": "address"
        }
      ],
      "stateMutability": "view",
      "type": "function"
    },
    {
      "inputs": [],
      "name": "pNFT",
      "outputs": [
        {
          "internalType": "contract DatapointLoot",
          "name": "",
          "type": "address"
        }
      ],
      "stateMutability": "view",
      "type": "function"
    },
    {
      "inputs": [],
      "name": "pbl",
      "outputs": [
        {
          "internalType": "contract PebbleToken",
          "name": "",
          "type": "address"
        }
      ],
      "stateMutability": "view",
      "type": "function"
    },
    {
      "inputs": [],
      "name": "pblPerBlock",
      "outputs": [
        {
          "internalType": "uint256",
          "name": "",
          "type": "uint256"
        }
      ],
      "stateMutability": "view",
      "type": "function"
    },
    {
      "inputs": [
        {
          "internalType": "address",
          "name": "_user",
          "type": "address"
        }
      ],
      "name": "pendingPbl",
      "outputs": [
        {
          "internalType": "uint256",
          "name": "pending",
          "type": "uint256"
        }
      ],
      "stateMutability": "view",
      "type": "function"
    },
    {
      "inputs": [],
      "name": "renounceOwnership",
      "outputs": [],
      "stateMutability": "nonpayable",
      "type": "function"
    },
    {
      "inputs": [],
      "name": "totalHashPower",
      "outputs": [
        {
          "internalType": "uint256",
          "name": "",
          "type": "uint256"
        }
      ],
      "stateMutability": "view",
      "type": "function"
    },
    {
      "inputs": [
        {
          "internalType": "address",
          "name": "newOwner",
          "type": "address"
        }
      ],
      "name": "transferOwnership",
      "outputs": [],
      "stateMutability": "nonpayable",
      "type": "function"
    },
    {
      "inputs": [
        {
          "internalType": "contract DatapointLoot",
          "name": "_pNFT",
          "type": "address"
        }
      ],
      "name": "updateNftAddress",
      "outputs": [],
      "stateMutability": "nonpayable",
      "type": "function"
    },
    {
      "inputs": [
        {
          "internalType": "contract PebbleToken",
          "name": "_pbl",
          "type": "address"
        }
      ],
      "name": "updatePBL",
      "outputs": [],
      "stateMutability": "nonpayable",
      "type": "function"
    },
    {
      "inputs": [],
      "name": "updatePool",
      "outputs": [],
      "stateMutability": "nonpayable",
      "type": "function"
    },
    {
      "inputs": [
        {
          "internalType": "address",
          "name": "",
          "type": "address"
        }
      ],
      "name": "userInfo",
      "outputs": [
        {
          "internalType": "uint256",
          "name": "hashPower",
          "type": "uint256"
        },
        {
          "internalType": "uint256",
          "name": "numOfTokens",
          "type": "uint256"
        },
        {
          "internalType": "uint256",
          "name": "rewardDebt",
          "type": "uint256"
        }
      ],
      "stateMutability": "view",
      "type": "function"
    },
    {
      "inputs": [
        {
          "internalType": "uint256",
          "name": "_tokenId",
          "type": "uint256"
        }
      ],
      "name": "withdraw",
      "outputs": [],
      "stateMutability": "nonpayable",
      "type": "function"
    }
  ],
  "bytecode": "0x60806040523480156200001157600080fd5b5060405162001fa938038062001fa9833981810160405281019062000037919062000271565b620000576200004b6200014960201b60201c565b6200015160201b60201c565b6001808190555083600260006101000a81548173ffffffffffffffffffffffffffffffffffffffff021916908373ffffffffffffffffffffffffffffffffffffffff16021790555082600360006101000a81548173ffffffffffffffffffffffffffffffffffffffff021916908373ffffffffffffffffffffffffffffffffffffffff1602179055508160048190555080600660006101000a81548173ffffffffffffffffffffffffffffffffffffffff021916908373ffffffffffffffffffffffffffffffffffffffff160217905550600060078190555060006008819055504360098190555050505050620003bf565b600033905090565b60008060009054906101000a900473ffffffffffffffffffffffffffffffffffffffff169050816000806101000a81548173ffffffffffffffffffffffffffffffffffffffff021916908373ffffffffffffffffffffffffffffffffffffffff1602179055508173ffffffffffffffffffffffffffffffffffffffff168173ffffffffffffffffffffffffffffffffffffffff167f8be0079c531659141344cd1fd0a4f28419497f9722a3daafe3b4186f6b6457e060405160405180910390a35050565b600081519050620002268162000357565b92915050565b6000815190506200023d8162000371565b92915050565b60008151905062000254816200038b565b92915050565b6000815190506200026b81620003a5565b92915050565b600080600080608085870312156200028857600080fd5b6000620002988782880162000243565b9450506020620002ab878288016200022c565b9350506040620002be878288016200025a565b9250506060620002d18782880162000215565b91505092959194509250565b6000620002ea826200032d565b9050919050565b6000620002fe826200032d565b9050919050565b60006200031282620002dd565b9050919050565b60006200032682620002dd565b9050919050565b600073ffffffffffffffffffffffffffffffffffffffff82169050919050565b6000819050919050565b6200036281620002f1565b81146200036e57600080fd5b50565b6200037c8162000305565b81146200038857600080fd5b50565b620003968162000319565b8114620003a257600080fd5b50565b620003b0816200034d565b8114620003bc57600080fd5b50565b611bda80620003cf6000396000f3fe608060405234801561001057600080fd5b50600436106101165760003560e01c80638a64b8bf116100a2578063dfbac66d11610071578063dfbac66d146102c1578063e3161ddd146102dd578063e5eb7ae8146102e7578063f2fde38b14610303578063fd6ecc6e1461031f57610116565b80638a64b8bf1461024b5780638da5cb5b14610269578063a9f8d18114610287578063b6b55f25146102a557610116565b806341275358116100e957806341275358146101c9578063443ddfd9146101e757806348083bba14610205578063715018a61461022357806372f7caa21461022d57610116565b8063085c25f61461011b578063150b7a021461014b5780631959a0021461017b5780632e1a7d4d146101ad575b600080fd5b61013560048036038101906101309190611353565b61033d565b604051610142919061174e565b60405180910390f35b610165600480360381019061016091906113a5565b6103cf565b604051610172919061167d565b60405180910390f35b61019560048036038101906101909190611353565b6103e4565b6040516101a493929190611769565b60405180910390f35b6101c760048036038101906101c291906114a0565b61040e565b005b6101d16107b7565b6040516101de9190611602565b60405180910390f35b6101ef6107dd565b6040516101fc919061174e565b60405180910390f35b61020d6107e3565b60405161021a91906116b3565b60405180910390f35b61022b610809565b005b610235610891565b604051610242919061174e565b60405180910390f35b610253610897565b604051610260919061174e565b60405180910390f35b61027161089d565b60405161027e91906115e7565b60405180910390f35b61028f6108c6565b60405161029c919061174e565b60405180910390f35b6102bf60048036038101906102ba91906114a0565b6108cc565b005b6102db60048036038101906102d69190611477565b610e05565b005b6102e5610ec5565b005b61030160048036038101906102fc919061144e565b610f57565b005b61031d60048036038101906103189190611353565b611017565b005b61032761110f565b6040516103349190611698565b60405180910390f35b600080600560008473ffffffffffffffffffffffffffffffffffffffff1673ffffffffffffffffffffffffffffffffffffffff16815260200190815260200160002090506103c781600301546103b964e8d4a510006103ab600754866000015461113590919063ffffffff16565b61114b90919063ffffffff16565b61116190919063ffffffff16565b915050919050565b600063150b7a0260e01b905095945050505050565b60056020528060005260406000206000915090508060000154908060010154908060030154905083565b60006005600061041c611177565b73ffffffffffffffffffffffffffffffffffffffff1673ffffffffffffffffffffffffffffffffffffffff168152602001908152602001600020905080600201600083815260200190815260200160002060009054906101000a900460ff166104ba576040517f08c379a00000000000000000000000000000000000000000000000000000000081526004016104b19061172e565b60405180910390fd5b6104c2610ec5565b60006104d46104cf611177565b61033d565b9050600260009054906101000a900473ffffffffffffffffffffffffffffffffffffffff1673ffffffffffffffffffffffffffffffffffffffff1663a9059cbb61051c611177565b836040518363ffffffff1660e01b815260040161053a929190611654565b602060405180830381600087803b15801561055457600080fd5b505af1158015610568573d6000803e3d6000fd5b505050506040513d601f19601f8201168201806040525081019061058c9190611425565b506105a56001836001015461116190919063ffffffff16565b5081600201600084815260200190815260200160002060006101000a81549060ff021916905561068f600360009054906101000a900473ffffffffffffffffffffffffffffffffffffffff1673ffffffffffffffffffffffffffffffffffffffff16635e3d9df1856040518263ffffffff1660e01b8152600401610629919061174e565b60206040518083038186803b15801561064157600080fd5b505afa158015610655573d6000803e3d6000fd5b505050506040513d601f19601f8201168201806040525081019061067991906114c9565b60ff16836000015461116190919063ffffffff16565b82600001819055506106c764e8d4a510006106b9600754856000015461113590919063ffffffff16565b61114b90919063ffffffff16565b8260030181905550600360009054906101000a900473ffffffffffffffffffffffffffffffffffffffff1673ffffffffffffffffffffffffffffffffffffffff166342842e0e30610716611177565b866040518463ffffffff1660e01b81526004016107359392919061161d565b600060405180830381600087803b15801561074f57600080fd5b505af1158015610763573d6000803e3d6000fd5b5050505082610770611177565b73ffffffffffffffffffffffffffffffffffffffff167f884edad9ce6fa2440d8a54cc123490eb96d2768479d49ff9c7366125a942436460405160405180910390a3505050565b600660009054906101000a900473ffffffffffffffffffffffffffffffffffffffff1681565b60075481565b600260009054906101000a900473ffffffffffffffffffffffffffffffffffffffff1681565b610811611177565b73ffffffffffffffffffffffffffffffffffffffff1661082f61089d565b73ffffffffffffffffffffffffffffffffffffffff1614610885576040517f08c379a000000000000000000000000000000000000000000000000000000000815260040161087c9061170e565b60405180910390fd5b61088f600061117f565b565b60085481565b60045481565b60008060009054906101000a900473ffffffffffffffffffffffffffffffffffffffff16905090565b60095481565b6108d4611177565b73ffffffffffffffffffffffffffffffffffffffff16600360009054906101000a900473ffffffffffffffffffffffffffffffffffffffff1673ffffffffffffffffffffffffffffffffffffffff16636352211e836040518263ffffffff1660e01b8152600401610945919061174e565b60206040518083038186803b15801561095d57600080fd5b505afa158015610971573d6000803e3d6000fd5b505050506040513d601f19601f82011682018060405250810190610995919061137c565b73ffffffffffffffffffffffffffffffffffffffff16146109eb576040517f08c379a00000000000000000000000000000000000000000000000000000000081526004016109e2906116ee565b60405180910390fd5b6109f3610ec5565b600060056000610a01611177565b73ffffffffffffffffffffffffffffffffffffffff1673ffffffffffffffffffffffffffffffffffffffff1681526020019081526020016000209050600081600001541115610b17576000610a5c610a57611177565b61033d565b9050600260009054906101000a900473ffffffffffffffffffffffffffffffffffffffff1673ffffffffffffffffffffffffffffffffffffffff1663a9059cbb610aa4611177565b836040518363ffffffff1660e01b8152600401610ac2929190611654565b602060405180830381600087803b158015610adc57600080fd5b505af1158015610af0573d6000803e3d6000fd5b505050506040513d601f19601f82011682018060405250810190610b149190611425565b50505b600360009054906101000a900473ffffffffffffffffffffffffffffffffffffffff1673ffffffffffffffffffffffffffffffffffffffff166342842e0e610b5d611177565b30856040518463ffffffff1660e01b8152600401610b7d9392919061161d565b600060405180830381600087803b158015610b9757600080fd5b505af1158015610bab573d6000803e3d6000fd5b50505050610bc76001826001015461124390919063ffffffff16565b8160010181905550600181600201600084815260200190815260200160002060006101000a81548160ff021916908315150217905550610cc1600360009054906101000a900473ffffffffffffffffffffffffffffffffffffffff1673ffffffffffffffffffffffffffffffffffffffff16635e3d9df1846040518263ffffffff1660e01b8152600401610c5b919061174e565b60206040518083038186803b158015610c7357600080fd5b505afa158015610c87573d6000803e3d6000fd5b505050506040513d601f19601f82011682018060405250810190610cab91906114c9565b60ff16826000015461124390919063ffffffff16565b8160000181905550610cf964e8d4a51000610ceb600754846000015461113590919063ffffffff16565b61114b90919063ffffffff16565b816003018190555081610d0a611177565b73ffffffffffffffffffffffffffffffffffffffff167f90890809c654f11d6e72a28fa60149770a0d11ec6c92319d6ceb2bb0a4ea1a15600360009054906101000a900473ffffffffffffffffffffffffffffffffffffffff1673ffffffffffffffffffffffffffffffffffffffff16635e3d9df1866040518263ffffffff1660e01b8152600401610d9c919061174e565b60206040518083038186803b158015610db457600080fd5b505afa158015610dc8573d6000803e3d6000fd5b505050506040513d601f19601f82011682018060405250810190610dec91906114c9565b604051610df991906117a0565b60405180910390a35050565b610e0d611177565b73ffffffffffffffffffffffffffffffffffffffff16610e2b61089d565b73ffffffffffffffffffffffffffffffffffffffff1614610e81576040517f08c379a0000000000000000000000000000000000000000000000000000000008152600401610e789061170e565b60405180910390fd5b80600260006101000a81548173ffffffffffffffffffffffffffffffffffffffff021916908373ffffffffffffffffffffffffffffffffffffffff16021790555050565b60006008541415610edc5743600981905550610f55565b6000610eea60095443611259565b90506000610f036004548361113590919063ffffffff16565b9050610f45610f34600854610f2664e8d4a510008561113590919063ffffffff16565b61114b90919063ffffffff16565b60075461124390919063ffffffff16565b6007819055504360098190555050505b565b610f5f611177565b73ffffffffffffffffffffffffffffffffffffffff16610f7d61089d565b73ffffffffffffffffffffffffffffffffffffffff1614610fd3576040517f08c379a0000000000000000000000000000000000000000000000000000000008152600401610fca9061170e565b60405180910390fd5b80600360006101000a81548173ffffffffffffffffffffffffffffffffffffffff021916908373ffffffffffffffffffffffffffffffffffffffff16021790555050565b61101f611177565b73ffffffffffffffffffffffffffffffffffffffff1661103d61089d565b73ffffffffffffffffffffffffffffffffffffffff1614611093576040517f08c379a000000000000000000000000000000000000000000000000000000000815260040161108a9061170e565b60405180910390fd5b600073ffffffffffffffffffffffffffffffffffffffff168173ffffffffffffffffffffffffffffffffffffffff161415611103576040517f08c379a00000000000000000000000000000000000000000000000000000000081526004016110fa906116ce565b60405180910390fd5b61110c8161117f565b50565b600360009054906101000a900473ffffffffffffffffffffffffffffffffffffffff1681565b600081836111439190611853565b905092915050565b600081836111599190611822565b905092915050565b6000818361116f91906118ad565b905092915050565b600033905090565b60008060009054906101000a900473ffffffffffffffffffffffffffffffffffffffff169050816000806101000a81548173ffffffffffffffffffffffffffffffffffffffff021916908373ffffffffffffffffffffffffffffffffffffffff1602179055508173ffffffffffffffffffffffffffffffffffffffff168173ffffffffffffffffffffffffffffffffffffffff167f8be0079c531659141344cd1fd0a4f28419497f9722a3daafe3b4186f6b6457e060405160405180910390a35050565b6000818361125191906117cc565b905092915050565b600061126e838361116190919063ffffffff16565b905092915050565b60008135905061128581611b1a565b92915050565b60008151905061129a81611b1a565b92915050565b6000815190506112af81611b31565b92915050565b60008083601f8401126112c757600080fd5b8235905067ffffffffffffffff8111156112e057600080fd5b6020830191508360018202830111156112f857600080fd5b9250929050565b60008135905061130e81611b48565b92915050565b60008135905061132381611b5f565b92915050565b60008135905061133881611b76565b92915050565b60008151905061134d81611b8d565b92915050565b60006020828403121561136557600080fd5b600061137384828501611276565b91505092915050565b60006020828403121561138e57600080fd5b600061139c8482850161128b565b91505092915050565b6000806000806000608086880312156113bd57600080fd5b60006113cb88828901611276565b95505060206113dc88828901611276565b94505060406113ed88828901611329565b935050606086013567ffffffffffffffff81111561140a57600080fd5b611416888289016112b5565b92509250509295509295909350565b60006020828403121561143757600080fd5b6000611445848285016112a0565b91505092915050565b60006020828403121561146057600080fd5b600061146e848285016112ff565b91505092915050565b60006020828403121561148957600080fd5b600061149784828501611314565b91505092915050565b6000602082840312156114b257600080fd5b60006114c084828501611329565b91505092915050565b6000602082840312156114db57600080fd5b60006114e98482850161133e565b91505092915050565b6114fb816118f3565b82525050565b61150a816118e1565b82525050565b61151981611911565b82525050565b61152881611998565b82525050565b611537816119bc565b82525050565b600061154a6026836117bb565b915061155582611a50565b604082019050919050565b600061156d6018836117bb565b915061157882611a9f565b602082019050919050565b60006115906020836117bb565b915061159b82611ac8565b602082019050919050565b60006115b36012836117bb565b91506115be82611af1565b602082019050919050565b6115d281611981565b82525050565b6115e1816119e0565b82525050565b60006020820190506115fc6000830184611501565b92915050565b600060208201905061161760008301846114f2565b92915050565b60006060820190506116326000830186611501565b61163f6020830185611501565b61164c60408301846115c9565b949350505050565b60006040820190506116696000830185611501565b61167660208301846115c9565b9392505050565b60006020820190506116926000830184611510565b92915050565b60006020820190506116ad600083018461151f565b92915050565b60006020820190506116c8600083018461152e565b92915050565b600060208201905081810360008301526116e78161153d565b9050919050565b6000602082019050818103600083015261170781611560565b9050919050565b6000602082019050818103600083015261172781611583565b9050919050565b60006020820190508181036000830152611747816115a6565b9050919050565b600060208201905061176360008301846115c9565b92915050565b600060608201905061177e60008301866115c9565b61178b60208301856115c9565b61179860408301846115c9565b949350505050565b60006020820190506117b560008301846115d8565b92915050565b600082825260208201905092915050565b60006117d782611981565b91506117e283611981565b9250827fffffffffffffffffffffffffffffffffffffffffffffffffffffffffffffffff03821115611817576118166119f2565b5b828201905092915050565b600061182d82611981565b915061183883611981565b92508261184857611847611a21565b5b828204905092915050565b600061185e82611981565b915061186983611981565b9250817fffffffffffffffffffffffffffffffffffffffffffffffffffffffffffffffff04831182151516156118a2576118a16119f2565b5b828202905092915050565b60006118b882611981565b91506118c383611981565b9250828210156118d6576118d56119f2565b5b828203905092915050565b60006118ec82611961565b9050919050565b60006118fe82611961565b9050919050565b60008115159050919050565b60007fffffffff0000000000000000000000000000000000000000000000000000000082169050919050565b6000611948826118e1565b9050919050565b600061195a826118e1565b9050919050565b600073ffffffffffffffffffffffffffffffffffffffff82169050919050565b6000819050919050565b600060ff82169050919050565b60006119a3826119aa565b9050919050565b60006119b582611961565b9050919050565b60006119c7826119ce565b9050919050565b60006119d982611961565b9050919050565b60006119eb8261198b565b9050919050565b7f4e487b7100000000000000000000000000000000000000000000000000000000600052601160045260246000fd5b7f4e487b7100000000000000000000000000000000000000000000000000000000600052601260045260246000fd5b7f4f776e61626c653a206e6577206f776e657220697320746865207a65726f206160008201527f6464726573730000000000000000000000000000000000000000000000000000602082015250565b7f4465706f7369743a206e6f74206f776e696e67206974656d0000000000000000600082015250565b7f4f776e61626c653a2063616c6c6572206973206e6f7420746865206f776e6572600082015250565b7f57697468647261773a206e6f7420676f6f640000000000000000000000000000600082015250565b611b23816118e1565b8114611b2e57600080fd5b50565b611b3a81611905565b8114611b4557600080fd5b50565b611b518161193d565b8114611b5c57600080fd5b50565b611b688161194f565b8114611b7357600080fd5b50565b611b7f81611981565b8114611b8a57600080fd5b50565b611b968161198b565b8114611ba157600080fd5b5056fea2646970667358221220fadc594b59eb50caaa979c18e6e986aedb4715a3a0ef0ffc99ec54f40d45d54c64736f6c63430008040033",
  "linkReferences": {},
  "deployedLinkReferences": {}
}