{
  "_format": "hh-sol-artifact-1",
  "contractName": "LootStake",
  "sourceName": "contracts/LootStake.sol",
  "abi": [
    {
      "inputs": [
        {
          "internalType": "contract PebbleToken",
          "name": "_pbl",
          "type": "address"
        },
        {
          "internalType": "uint256",
          "name": "_pblPerBlock",
          "type": "uint256"
        },
        {
          "internalType": "address payable",
          "name": "_feeAddress",
          "type": "address"
        }
      ],
      "stateMutability": "nonpayable",
      "type": "constructor"
    },
    {
      "anonymous": false,
      "inputs": [
        {
          "indexed": true,
          "internalType": "address",
          "name": "previousOwner",
          "type": "address"
        },
        {
          "indexed": true,
          "internalType": "address",
          "name": "newOwner",
          "type": "address"
        }
      ],
      "name": "OwnershipTransferred",
      "type": "event"
    },
    {
      "inputs": [],
      "name": "accPblPerHashPowerUnit",
      "outputs": [
        {
          "internalType": "uint256",
          "name": "",
          "type": "uint256"
        }
      ],
      "stateMutability": "view",
      "type": "function"
    },
    {
      "inputs": [
        {
          "internalType": "address",
          "name": "_pebbleNFT",
          "type": "address"
        }
      ],
      "name": "addNftAddress",
      "outputs": [],
      "stateMutability": "nonpayable",
      "type": "function"
    },
    {
      "inputs": [],
      "name": "feeAddress",
      "outputs": [
        {
          "internalType": "address payable",
          "name": "",
          "type": "address"
        }
      ],
      "stateMutability": "view",
      "type": "function"
    },
    {
      "inputs": [],
      "name": "owner",
      "outputs": [
        {
          "internalType": "address",
          "name": "",
          "type": "address"
        }
      ],
      "stateMutability": "view",
      "type": "function"
    },
    {
      "inputs": [],
      "name": "pbl",
      "outputs": [
        {
          "internalType": "contract PebbleToken",
          "name": "",
          "type": "address"
        }
      ],
      "stateMutability": "view",
      "type": "function"
    },
    {
      "inputs": [],
      "name": "pblPerBlock",
      "outputs": [
        {
          "internalType": "uint256",
          "name": "",
          "type": "uint256"
        }
      ],
      "stateMutability": "view",
      "type": "function"
    },
    {
      "inputs": [
        {
          "internalType": "address",
          "name": "_user",
          "type": "address"
        }
      ],
      "name": "pendingPbl",
      "outputs": [
        {
          "internalType": "uint256",
          "name": "pending",
          "type": "uint256"
        }
      ],
      "stateMutability": "view",
      "type": "function"
    },
    {
      "inputs": [
        {
          "internalType": "address",
          "name": "_pebbleNFT",
          "type": "address"
        }
      ],
      "name": "removeNftAddress",
      "outputs": [],
      "stateMutability": "nonpayable",
      "type": "function"
    },
    {
      "inputs": [],
      "name": "renounceOwnership",
      "outputs": [],
      "stateMutability": "nonpayable",
      "type": "function"
    },
    {
      "inputs": [],
      "name": "totalHashPower",
      "outputs": [
        {
          "internalType": "uint256",
          "name": "",
          "type": "uint256"
        }
      ],
      "stateMutability": "view",
      "type": "function"
    },
    {
      "inputs": [
        {
          "internalType": "address",
          "name": "newOwner",
          "type": "address"
        }
      ],
      "name": "transferOwnership",
      "outputs": [],
      "stateMutability": "nonpayable",
      "type": "function"
    },
    {
      "inputs": [
        {
          "internalType": "address",
          "name": "",
          "type": "address"
        }
      ],
      "name": "userInfo",
      "outputs": [
        {
          "internalType": "uint256",
          "name": "hashPower",
          "type": "uint256"
        },
        {
          "internalType": "uint256",
          "name": "rewardDebt",
          "type": "uint256"
        }
      ],
      "stateMutability": "view",
      "type": "function"
    }
  ],
  "bytecode": "0x60806040523480156200001157600080fd5b5060405162000f0538038062000f05833981810160405281019062000037919062000201565b620000576200004b620000f060201b60201c565b620000f860201b60201c565b6001808190555082600260006101000a81548173ffffffffffffffffffffffffffffffffffffffff021916908373ffffffffffffffffffffffffffffffffffffffff1602179055508160038190555080600660006101000a81548173ffffffffffffffffffffffffffffffffffffffff021916908373ffffffffffffffffffffffffffffffffffffffff1602179055505050506200030b565b600033905090565b60008060009054906101000a900473ffffffffffffffffffffffffffffffffffffffff169050816000806101000a81548173ffffffffffffffffffffffffffffffffffffffff021916908373ffffffffffffffffffffffffffffffffffffffff1602179055508173ffffffffffffffffffffffffffffffffffffffff168173ffffffffffffffffffffffffffffffffffffffff167f8be0079c531659141344cd1fd0a4f28419497f9722a3daafe3b4186f6b6457e060405160405180910390a35050565b600081519050620001cd81620002bd565b92915050565b600081519050620001e481620002d7565b92915050565b600081519050620001fb81620002f1565b92915050565b6000806000606084860312156200021757600080fd5b60006200022786828701620001d3565b93505060206200023a86828701620001ea565b92505060406200024d86828701620001bc565b9150509250925092565b6000620002648262000293565b9050919050565b6000620002788262000293565b9050919050565b60006200028c8262000257565b9050919050565b600073ffffffffffffffffffffffffffffffffffffffff82169050919050565b6000819050919050565b620002c8816200026b565b8114620002d457600080fd5b50565b620002e2816200027f565b8114620002ee57600080fd5b50565b620002fc81620002b3565b81146200030857600080fd5b50565b610bea806200031b6000396000f3fe608060405234801561001057600080fd5b50600436106100b45760003560e01c8063715018a611610071578063715018a61461019057806372f7caa21461019a5780638a64b8bf146101b85780638da5cb5b146101d6578063cd262faf146101f4578063f2fde38b14610210576100b4565b8063085c25f6146100b95780631959a002146100e9578063412753581461011a578063443ddfd91461013857806348083bba146101565780635da3c24014610174575b600080fd5b6100d360048036038101906100ce9190610814565b61022c565b6040516100e091906109e6565b60405180910390f35b61010360048036038101906100fe9190610814565b610276565b604051610111929190610a01565b60405180910390f35b61012261029a565b60405161012f9190610935565b60405180910390f35b6101406102c0565b60405161014d91906109e6565b60405180910390f35b61015e6102c6565b60405161016b919061096b565b60405180910390f35b61018e60048036038101906101899190610814565b6102ec565b005b610198610492565b005b6101a261051a565b6040516101af91906109e6565b60405180910390f35b6101c0610520565b6040516101cd91906109e6565b60405180910390f35b6101de610526565b6040516101eb919061091a565b60405180910390f35b61020e60048036038101906102099190610814565b61054f565b005b61022a60048036038101906102259190610814565b610626565b005b600080600560008473ffffffffffffffffffffffffffffffffffffffff1673ffffffffffffffffffffffffffffffffffffffff168152602001908152602001600020905050919050565b60056020528060005260406000206000915090508060000154908060020154905082565b600660009054906101000a900473ffffffffffffffffffffffffffffffffffffffff1681565b60075481565b600260009054906101000a900473ffffffffffffffffffffffffffffffffffffffff1681565b6102f461071e565b73ffffffffffffffffffffffffffffffffffffffff16610312610526565b73ffffffffffffffffffffffffffffffffffffffff1614610368576040517f08c379a000000000000000000000000000000000000000000000000000000000815260040161035f906109a6565b60405180910390fd5b8073ffffffffffffffffffffffffffffffffffffffff166301ffc9a76380ac58cd60e01b6040518263ffffffff1660e01b81526004016103a89190610950565b60206040518083038186803b1580156103c057600080fd5b505afa1580156103d4573d6000803e3d6000fd5b505050506040513d601f19601f820116820180604052508101906103f8919061083d565b610437576040517f08c379a000000000000000000000000000000000000000000000000000000000815260040161042e906109c6565b60405180910390fd5b6001600460008373ffffffffffffffffffffffffffffffffffffffff1673ffffffffffffffffffffffffffffffffffffffff16815260200190815260200160002060006101000a81548160ff02191690831515021790555050565b61049a61071e565b73ffffffffffffffffffffffffffffffffffffffff166104b8610526565b73ffffffffffffffffffffffffffffffffffffffff161461050e576040517f08c379a0000000000000000000000000000000000000000000000000000000008152600401610505906109a6565b60405180910390fd5b6105186000610726565b565b60085481565b60035481565b60008060009054906101000a900473ffffffffffffffffffffffffffffffffffffffff16905090565b61055761071e565b73ffffffffffffffffffffffffffffffffffffffff16610575610526565b73ffffffffffffffffffffffffffffffffffffffff16146105cb576040517f08c379a00000000000000000000000000000000000000000000000000000000081526004016105c2906109a6565b60405180910390fd5b6000600460008373ffffffffffffffffffffffffffffffffffffffff1673ffffffffffffffffffffffffffffffffffffffff16815260200190815260200160002060006101000a81548160ff02191690831515021790555050565b61062e61071e565b73ffffffffffffffffffffffffffffffffffffffff1661064c610526565b73ffffffffffffffffffffffffffffffffffffffff16146106a2576040517f08c379a0000000000000000000000000000000000000000000000000000000008152600401610699906109a6565b60405180910390fd5b600073ffffffffffffffffffffffffffffffffffffffff168173ffffffffffffffffffffffffffffffffffffffff161415610712576040517f08c379a000000000000000000000000000000000000000000000000000000000815260040161070990610986565b60405180910390fd5b61071b81610726565b50565b600033905090565b60008060009054906101000a900473ffffffffffffffffffffffffffffffffffffffff169050816000806101000a81548173ffffffffffffffffffffffffffffffffffffffff021916908373ffffffffffffffffffffffffffffffffffffffff1602179055508173ffffffffffffffffffffffffffffffffffffffff168173ffffffffffffffffffffffffffffffffffffffff167f8be0079c531659141344cd1fd0a4f28419497f9722a3daafe3b4186f6b6457e060405160405180910390a35050565b6000813590506107f981610b86565b92915050565b60008151905061080e81610b9d565b92915050565b60006020828403121561082657600080fd5b6000610834848285016107ea565b91505092915050565b60006020828403121561084f57600080fd5b600061085d848285016107ff565b91505092915050565b61086f81610a4d565b82525050565b61087e81610a3b565b82525050565b61088d81610a6b565b82525050565b61089c81610ac1565b82525050565b60006108af602683610a2a565b91506108ba82610ae5565b604082019050919050565b60006108d2602083610a2a565b91506108dd82610b34565b602082019050919050565b60006108f5601f83610a2a565b915061090082610b5d565b602082019050919050565b61091481610ab7565b82525050565b600060208201905061092f6000830184610875565b92915050565b600060208201905061094a6000830184610866565b92915050565b60006020820190506109656000830184610884565b92915050565b60006020820190506109806000830184610893565b92915050565b6000602082019050818103600083015261099f816108a2565b9050919050565b600060208201905081810360008301526109bf816108c5565b9050919050565b600060208201905081810360008301526109df816108e8565b9050919050565b60006020820190506109fb600083018461090b565b92915050565b6000604082019050610a16600083018561090b565b610a23602083018461090b565b9392505050565b600082825260208201905092915050565b6000610a4682610a97565b9050919050565b6000610a5882610a97565b9050919050565b60008115159050919050565b60007fffffffff0000000000000000000000000000000000000000000000000000000082169050919050565b600073ffffffffffffffffffffffffffffffffffffffff82169050919050565b6000819050919050565b6000610acc82610ad3565b9050919050565b6000610ade82610a97565b9050919050565b7f4f776e61626c653a206e6577206f776e657220697320746865207a65726f206160008201527f6464726573730000000000000000000000000000000000000000000000000000602082015250565b7f4f776e61626c653a2063616c6c6572206973206e6f7420746865206f776e6572600082015250565b7f4c6f6f74205374616b653a20696e76616c6964206e6674206164647265737300600082015250565b610b8f81610a3b565b8114610b9a57600080fd5b50565b610ba681610a5f565b8114610bb157600080fd5b5056fea2646970667358221220d40fb2626dc05ddfe23247f0ef6163ac64fdd5071503a5d35ab3bd7d539c18ab64736f6c63430008040033",
  "linkReferences": {},
  "deployedLinkReferences": {}
}