{
  "_format": "hh-sol-artifact-1",
  "contractName": "TrustedVbat",
  "sourceName": "contracts/TrustedVbat.sol",
  "abi": [
    {
      "inputs": [
        {
          "internalType": "string",
          "name": "name",
          "type": "string"
        },
        {
          "internalType": "string",
          "name": "symbol",
          "type": "string"
        }
      ],
      "stateMutability": "nonpayable",
      "type": "constructor"
    },
    {
      "anonymous": false,
      "inputs": [
        {
          "indexed": true,
          "internalType": "address",
          "name": "owner",
          "type": "address"
        },
        {
          "indexed": true,
          "internalType": "address",
          "name": "approved",
          "type": "address"
        },
        {
          "indexed": true,
          "internalType": "uint256",
          "name": "tokenId",
          "type": "uint256"
        }
      ],
      "name": "Approval",
      "type": "event"
    },
    {
      "anonymous": false,
      "inputs": [
        {
          "indexed": true,
          "internalType": "address",
          "name": "owner",
          "type": "address"
        },
        {
          "indexed": true,
          "internalType": "address",
          "name": "operator",
          "type": "address"
        },
        {
          "indexed": false,
          "internalType": "bool",
          "name": "approved",
          "type": "bool"
        }
      ],
      "name": "ApprovalForAll",
      "type": "event"
    },
    {
      "anonymous": false,
      "inputs": [
        {
          "indexed": true,
          "internalType": "address",
          "name": "previousOwner",
          "type": "address"
        },
        {
          "indexed": true,
          "internalType": "address",
          "name": "newOwner",
          "type": "address"
        }
      ],
      "name": "OwnershipTransferred",
      "type": "event"
    },
    {
      "anonymous": false,
      "inputs": [
        {
          "indexed": true,
          "internalType": "address",
          "name": "from",
          "type": "address"
        },
        {
          "indexed": true,
          "internalType": "address",
          "name": "to",
          "type": "address"
        },
        {
          "indexed": true,
          "internalType": "uint256",
          "name": "tokenId",
          "type": "uint256"
        }
      ],
      "name": "Transfer",
      "type": "event"
    },
    {
      "inputs": [
        {
          "internalType": "address",
          "name": "to",
          "type": "address"
        },
        {
          "internalType": "uint256",
          "name": "tokenId",
          "type": "uint256"
        }
      ],
      "name": "approve",
      "outputs": [],
      "stateMutability": "nonpayable",
      "type": "function"
    },
    {
      "inputs": [
        {
          "internalType": "address",
          "name": "owner",
          "type": "address"
        }
      ],
      "name": "balanceOf",
      "outputs": [
        {
          "internalType": "uint256",
          "name": "",
          "type": "uint256"
        }
      ],
      "stateMutability": "view",
      "type": "function"
    },
    {
      "inputs": [],
      "name": "baseURI",
      "outputs": [
        {
          "internalType": "string",
          "name": "",
          "type": "string"
        }
      ],
      "stateMutability": "view",
      "type": "function"
    },
    {
      "inputs": [],
      "name": "claim",
      "outputs": [],
      "stateMutability": "nonpayable",
      "type": "function"
    },
    {
      "inputs": [
        {
          "internalType": "uint256",
          "name": "tokenId",
          "type": "uint256"
        }
      ],
      "name": "getApproved",
      "outputs": [
        {
          "internalType": "address",
          "name": "",
          "type": "address"
        }
      ],
      "stateMutability": "view",
      "type": "function"
    },
    {
      "inputs": [
        {
          "internalType": "uint256",
          "name": "tokenId",
          "type": "uint256"
        }
      ],
      "name": "getDataHash",
      "outputs": [
        {
          "internalType": "string",
          "name": "",
          "type": "string"
        }
      ],
      "stateMutability": "view",
      "type": "function"
    },
    {
      "inputs": [
        {
          "internalType": "uint256",
          "name": "tokenId",
          "type": "uint256"
        }
      ],
      "name": "getVbat",
      "outputs": [
        {
          "internalType": "uint256",
          "name": "vbat",
          "type": "uint256"
        }
      ],
      "stateMutability": "view",
      "type": "function"
    },
    {
      "inputs": [
        {
          "internalType": "address",
          "name": "owner",
          "type": "address"
        },
        {
          "internalType": "address",
          "name": "operator",
          "type": "address"
        }
      ],
      "name": "isApprovedForAll",
      "outputs": [
        {
          "internalType": "bool",
          "name": "",
          "type": "bool"
        }
      ],
      "stateMutability": "view",
      "type": "function"
    },
    {
      "inputs": [],
      "name": "name",
      "outputs": [
        {
          "internalType": "string",
          "name": "",
          "type": "string"
        }
      ],
      "stateMutability": "view",
      "type": "function"
    },
    {
      "inputs": [],
      "name": "owner",
      "outputs": [
        {
          "internalType": "address",
          "name": "",
          "type": "address"
        }
      ],
      "stateMutability": "view",
      "type": "function"
    },
    {
      "inputs": [
        {
          "internalType": "uint256",
          "name": "tokenId",
          "type": "uint256"
        }
      ],
      "name": "ownerOf",
      "outputs": [
        {
          "internalType": "address",
          "name": "",
          "type": "address"
        }
      ],
      "stateMutability": "view",
      "type": "function"
    },
    {
      "inputs": [],
      "name": "renounceOwnership",
      "outputs": [],
      "stateMutability": "nonpayable",
      "type": "function"
    },
    {
      "inputs": [
        {
          "internalType": "address",
          "name": "from",
          "type": "address"
        },
        {
          "internalType": "address",
          "name": "to",
          "type": "address"
        },
        {
          "internalType": "uint256",
          "name": "tokenId",
          "type": "uint256"
        }
      ],
      "name": "safeTransferFrom",
      "outputs": [],
      "stateMutability": "nonpayable",
      "type": "function"
    },
    {
      "inputs": [
        {
          "internalType": "address",
          "name": "from",
          "type": "address"
        },
        {
          "internalType": "address",
          "name": "to",
          "type": "address"
        },
        {
          "internalType": "uint256",
          "name": "tokenId",
          "type": "uint256"
        },
        {
          "internalType": "bytes",
          "name": "_data",
          "type": "bytes"
        }
      ],
      "name": "safeTransferFrom",
      "outputs": [],
      "stateMutability": "nonpayable",
      "type": "function"
    },
    {
      "inputs": [
        {
          "internalType": "address",
          "name": "operator",
          "type": "address"
        },
        {
          "internalType": "bool",
          "name": "approved",
          "type": "bool"
        }
      ],
      "name": "setApprovalForAll",
      "outputs": [],
      "stateMutability": "nonpayable",
      "type": "function"
    },
    {
      "inputs": [
        {
          "internalType": "uint256",
          "name": "tokenId",
          "type": "uint256"
        },
        {
          "internalType": "uint32",
          "name": "_type",
          "type": "uint32"
        },
        {
          "internalType": "bytes",
          "name": "data",
          "type": "bytes"
        },
        {
          "internalType": "uint32",
          "name": "timestamp",
          "type": "uint32"
        }
      ],
      "name": "setTokenHash",
      "outputs": [],
      "stateMutability": "nonpayable",
      "type": "function"
    },
    {
      "inputs": [
        {
          "internalType": "bytes4",
          "name": "interfaceId",
          "type": "bytes4"
        }
      ],
      "name": "supportsInterface",
      "outputs": [
        {
          "internalType": "bool",
          "name": "",
          "type": "bool"
        }
      ],
      "stateMutability": "view",
      "type": "function"
    },
    {
      "inputs": [],
      "name": "symbol",
      "outputs": [
        {
          "internalType": "string",
          "name": "",
          "type": "string"
        }
      ],
      "stateMutability": "view",
      "type": "function"
    },
    {
      "inputs": [
        {
          "internalType": "uint8",
          "name": "_uint8",
          "type": "uint8"
        }
      ],
      "name": "toByte",
      "outputs": [
        {
          "internalType": "bytes1",
          "name": "",
          "type": "bytes1"
        }
      ],
      "stateMutability": "pure",
      "type": "function"
    },
    {
      "inputs": [
        {
          "internalType": "uint256",
          "name": "index",
          "type": "uint256"
        }
      ],
      "name": "tokenByIndex",
      "outputs": [
        {
          "internalType": "uint256",
          "name": "",
          "type": "uint256"
        }
      ],
      "stateMutability": "view",
      "type": "function"
    },
    {
      "inputs": [
        {
          "internalType": "address",
          "name": "owner",
          "type": "address"
        },
        {
          "internalType": "uint256",
          "name": "index",
          "type": "uint256"
        }
      ],
      "name": "tokenOfOwnerByIndex",
      "outputs": [
        {
          "internalType": "uint256",
          "name": "",
          "type": "uint256"
        }
      ],
      "stateMutability": "view",
      "type": "function"
    },
    {
      "inputs": [
        {
          "internalType": "uint256",
          "name": "tokenId",
          "type": "uint256"
        }
      ],
      "name": "tokenURI",
      "outputs": [
        {
          "internalType": "string",
          "name": "",
          "type": "string"
        }
      ],
      "stateMutability": "view",
      "type": "function"
    },
    {
      "inputs": [],
      "name": "totalSupply",
      "outputs": [
        {
          "internalType": "uint256",
          "name": "",
          "type": "uint256"
        }
      ],
      "stateMutability": "view",
      "type": "function"
    },
    {
      "inputs": [
        {
          "internalType": "address",
          "name": "from",
          "type": "address"
        },
        {
          "internalType": "address",
          "name": "to",
          "type": "address"
        },
        {
          "internalType": "uint256",
          "name": "tokenId",
          "type": "uint256"
        }
      ],
      "name": "transferFrom",
      "outputs": [],
      "stateMutability": "nonpayable",
      "type": "function"
    },
    {
      "inputs": [
        {
          "internalType": "address",
          "name": "newOwner",
          "type": "address"
        }
      ],
      "name": "transferOwnership",
      "outputs": [],
      "stateMutability": "nonpayable",
      "type": "function"
    }
  ],
  "bytecode": "0x60806040526000600c553480156200001657600080fd5b506040516200449c3803806200449c833981810160405260408110156200003c57600080fd5b81019080805160405193929190846401000000008211156200005d57600080fd5b838201915060208201858111156200007457600080fd5b82518660018202830111640100000000821117156200009257600080fd5b8083526020830192505050908051906020019080838360005b83811015620000c8578082015181840152602081019050620000ab565b50505050905090810190601f168015620000f65780820380516001836020036101000a031916815260200191505b50604052602001805160405193929190846401000000008211156200011a57600080fd5b838201915060208201858111156200013157600080fd5b82518660018202830111640100000000821117156200014f57600080fd5b8083526020830192505050908051906020019080838360005b838110156200018557808201518184015260208101905062000168565b50505050905090810190601f168015620001b35780820380516001836020036101000a031916815260200191505b5060405250505081818181620001d66301ffc9a760e01b6200031560201b60201c565b8160069080519060200190620001ee92919062000426565b5080600790805190602001906200020792919062000426565b50620002206380ac58cd60e01b6200031560201b60201c565b62000238635b5e139f60e01b6200031560201b60201c565b6200025063780e9d6360e01b6200031560201b60201c565b50506001600a8190555060006200026c6200041e60201b60201c565b905080600b60006101000a81548173ffffffffffffffffffffffffffffffffffffffff021916908373ffffffffffffffffffffffffffffffffffffffff1602179055508073ffffffffffffffffffffffffffffffffffffffff16600073ffffffffffffffffffffffffffffffffffffffff167f8be0079c531659141344cd1fd0a4f28419497f9722a3daafe3b4186f6b6457e060405160405180910390a35050505050620004cc565b63ffffffff60e01b817bffffffffffffffffffffffffffffffffffffffffffffffffffffffff19161415620003b2576040517f08c379a000000000000000000000000000000000000000000000000000000000815260040180806020018281038252601c8152602001807f4552433136353a20696e76616c696420696e746572666163652069640000000081525060200191505060405180910390fd5b6001600080837bffffffffffffffffffffffffffffffffffffffffffffffffffffffff19167bffffffffffffffffffffffffffffffffffffffffffffffffffffffff1916815260200190815260200160002060006101000a81548160ff02191690831515021790555050565b600033905090565b828054600181600116156101000203166002900490600052602060002090601f016020900481019282601f106200046957805160ff19168380011785556200049a565b828001600101855582156200049a579182015b82811115620004995782518255916020019190600101906200047c565b5b509050620004a99190620004ad565b5090565b5b80821115620004c8576000816000905550600101620004ae565b5090565b613fc080620004dc6000396000f3fe608060405234801561001057600080fd5b50600436106101735760003560e01c806370a08231116100de578063a595d8fc11610097578063b88d4fde11610071578063b88d4fde14610925578063c87b56dd14610a2a578063e985e9c514610ad1578063f2fde38b14610b4b57610173565b8063a595d8fc146107d5578063a86b73f01461087c578063a9a1a384146108e357610173565b806370a0823114610587578063715018a6146105df578063741a6ee6146105e95780638da5cb5b146106ce57806395d89b4114610702578063a22cb4651461078557610173565b80632f745c59116101305780632f745c591461039057806342842e0e146103f25780634e71d92d146104605780634f6ccce71461046a5780636352211e146104ac5780636c0360eb1461050457610173565b806301ffc9a71461017857806306fdde03146101db578063081812fc1461025e578063095ea7b3146102b657806318160ddd1461030457806323b872dd14610322575b600080fd5b6101c36004803603602081101561018e57600080fd5b8101908080357bffffffffffffffffffffffffffffffffffffffffffffffffffffffff19169060200190929190505050610b8f565b60405180821515815260200191505060405180910390f35b6101e3610bf6565b6040518080602001828103825283818151815260200191508051906020019080838360005b83811015610223578082015181840152602081019050610208565b50505050905090810190601f1680156102505780820380516001836020036101000a031916815260200191505b509250505060405180910390f35b61028a6004803603602081101561027457600080fd5b8101908080359060200190929190505050610c98565b604051808273ffffffffffffffffffffffffffffffffffffffff16815260200191505060405180910390f35b610302600480360360408110156102cc57600080fd5b81019080803573ffffffffffffffffffffffffffffffffffffffff16906020019092919080359060200190929190505050610d33565b005b61030c610e77565b6040518082815260200191505060405180910390f35b61038e6004803603606081101561033857600080fd5b81019080803573ffffffffffffffffffffffffffffffffffffffff169060200190929190803573ffffffffffffffffffffffffffffffffffffffff16906020019092919080359060200190929190505050610e88565b005b6103dc600480360360408110156103a657600080fd5b81019080803573ffffffffffffffffffffffffffffffffffffffff16906020019092919080359060200190929190505050610efe565b6040518082815260200191505060405180910390f35b61045e6004803603606081101561040857600080fd5b81019080803573ffffffffffffffffffffffffffffffffffffffff169060200190929190803573ffffffffffffffffffffffffffffffffffffffff16906020019092919080359060200190929190505050610f59565b005b610468610f79565b005b6104966004803603602081101561048057600080fd5b8101908080359060200190929190505050611033565b6040518082815260200191505060405180910390f35b6104d8600480360360208110156104c257600080fd5b8101908080359060200190929190505050611056565b604051808273ffffffffffffffffffffffffffffffffffffffff16815260200191505060405180910390f35b61050c61108d565b6040518080602001828103825283818151815260200191508051906020019080838360005b8381101561054c578082015181840152602081019050610531565b50505050905090810190601f1680156105795780820380516001836020036101000a031916815260200191505b509250505060405180910390f35b6105c96004803603602081101561059d57600080fd5b81019080803573ffffffffffffffffffffffffffffffffffffffff16906020019092919050505061112f565b6040518082815260200191505060405180910390f35b6105e7611204565b005b6106cc600480360360808110156105ff57600080fd5b8101908080359060200190929190803563ffffffff1690602001909291908035906020019064010000000081111561063657600080fd5b82018360208201111561064857600080fd5b8035906020019184600183028401116401000000008311171561066a57600080fd5b91908080601f016020809104026020016040519081016040528093929190818152602001838380828437600081840152601f19601f820116905080830192505050505050509192919290803563ffffffff169060200190929190505050611374565b005b6106d6611677565b604051808273ffffffffffffffffffffffffffffffffffffffff16815260200191505060405180910390f35b61070a6116a1565b6040518080602001828103825283818151815260200191508051906020019080838360005b8381101561074a57808201518184015260208101905061072f565b50505050905090810190601f1680156107775780820380516001836020036101000a031916815260200191505b509250505060405180910390f35b6107d36004803603604081101561079b57600080fd5b81019080803573ffffffffffffffffffffffffffffffffffffffff169060200190929190803515159060200190929190505050611743565b005b610801600480360360208110156107eb57600080fd5b81019080803590602001909291905050506118f9565b6040518080602001828103825283818151815260200191508051906020019080838360005b83811015610841578082015181840152602081019050610826565b50505050905090810190601f16801561086e5780820380516001836020036101000a031916815260200191505b509250505060405180910390f35b6108ab6004803603602081101561089257600080fd5b81019080803560ff169060200190929190505050611a9e565b60405180827effffffffffffffffffffffffffffffffffffffffffffffffffffffffffffff1916815260200191505060405180910390f35b61090f600480360360208110156108f957600080fd5b8101908080359060200190929190505050611ac9565b6040518082815260200191505060405180910390f35b610a286004803603608081101561093b57600080fd5b81019080803573ffffffffffffffffffffffffffffffffffffffff169060200190929190803573ffffffffffffffffffffffffffffffffffffffff16906020019092919080359060200190929190803590602001906401000000008111156109a257600080fd5b8201836020820111156109b457600080fd5b803590602001918460018302840111640100000000831117156109d657600080fd5b91908080601f016020809104026020016040519081016040528093929190818152602001838380828437600081840152601f19601f820116905080830192505050505050509192919290505050611ae9565b005b610a5660048036036020811015610a4057600080fd5b8101908080359060200190929190505050611b61565b6040518080602001828103825283818151815260200191508051906020019080838360005b83811015610a96578082015181840152602081019050610a7b565b50505050905090810190601f168015610ac35780820380516001836020036101000a031916815260200191505b509250505060405180910390f35b610b3360048036036040811015610ae757600080fd5b81019080803573ffffffffffffffffffffffffffffffffffffffff169060200190929190803573ffffffffffffffffffffffffffffffffffffffff169060200190929190505050612323565b60405180821515815260200191505060405180910390f35b610b8d60048036036020811015610b6157600080fd5b81019080803573ffffffffffffffffffffffffffffffffffffffff1690602001909291905050506123b7565b005b6000806000837bffffffffffffffffffffffffffffffffffffffffffffffffffffffff19167bffffffffffffffffffffffffffffffffffffffffffffffffffffffff1916815260200190815260200160002060009054906101000a900460ff169050919050565b606060068054600181600116156101000203166002900480601f016020809104026020016040519081016040528092919081815260200182805460018160011615610100020316600290048015610c8e5780601f10610c6357610100808354040283529160200191610c8e565b820191906000526020600020905b815481529060010190602001808311610c7157829003601f168201915b5050505050905090565b6000610ca3826125ac565b610cf8576040517f08c379a000000000000000000000000000000000000000000000000000000000815260040180806020018281038252602c815260200180613e96602c913960400191505060405180910390fd5b6004600083815260200190815260200160002060009054906101000a900473ffffffffffffffffffffffffffffffffffffffff169050919050565b6000610d3e82611056565b90508073ffffffffffffffffffffffffffffffffffffffff168373ffffffffffffffffffffffffffffffffffffffff161415610dc5576040517f08c379a0000000000000000000000000000000000000000000000000000000008152600401808060200182810382526021815260200180613f116021913960400191505060405180910390fd5b8073ffffffffffffffffffffffffffffffffffffffff16610de46125c9565b73ffffffffffffffffffffffffffffffffffffffff161480610e135750610e1281610e0d6125c9565b612323565b5b610e68576040517f08c379a0000000000000000000000000000000000000000000000000000000008152600401808060200182810382526038815260200180613da96038913960400191505060405180910390fd5b610e7283836125d1565b505050565b6000610e83600261268a565b905090565b610e99610e936125c9565b8261269f565b610eee576040517f08c379a0000000000000000000000000000000000000000000000000000000008152600401808060200182810382526031815260200180613f326031913960400191505060405180910390fd5b610ef9838383612793565b505050565b6000610f5182600160008673ffffffffffffffffffffffffffffffffffffffff1673ffffffffffffffffffffffffffffffffffffffff1681526020019081526020016000206129d690919063ffffffff16565b905092915050565b610f7483838360405180602001604052806000815250611ae9565b505050565b6002600a541415610ff2576040517f08c379a000000000000000000000000000000000000000000000000000000000815260040180806020018281038252601f8152602001807f5265656e7472616e637947756172643a207265656e7472616e742063616c6c0081525060200191505060405180910390fd5b6002600a819055506110106001600c546129f090919063ffffffff16565b600c819055506110296110216125c9565b600c54612a78565b6001600a81905550565b60008061104a836002612a9690919063ffffffff16565b50905080915050919050565b600061108682604051806060016040528060298152602001613e0b602991396002612ac29092919063ffffffff16565b9050919050565b606060098054600181600116156101000203166002900480601f0160208091040260200160405190810160405280929190818152602001828054600181600116156101000203166002900480156111255780601f106110fa57610100808354040283529160200191611125565b820191906000526020600020905b81548152906001019060200180831161110857829003601f168201915b5050505050905090565b60008073ffffffffffffffffffffffffffffffffffffffff168273ffffffffffffffffffffffffffffffffffffffff1614156111b6576040517f08c379a000000000000000000000000000000000000000000000000000000000815260040180806020018281038252602a815260200180613de1602a913960400191505060405180910390fd5b6111fd600160008473ffffffffffffffffffffffffffffffffffffffff1673ffffffffffffffffffffffffffffffffffffffff168152602001908152602001600020612ae1565b9050919050565b61120c6125c9565b73ffffffffffffffffffffffffffffffffffffffff1661122a611677565b73ffffffffffffffffffffffffffffffffffffffff16146112b3576040517f08c379a00000000000000000000000000000000000000000000000000000000081526004018080602001828103825260208152602001807f4f776e61626c653a2063616c6c6572206973206e6f7420746865206f776e657281525060200191505060405180910390fd5b600073ffffffffffffffffffffffffffffffffffffffff16600b60009054906101000a900473ffffffffffffffffffffffffffffffffffffffff1673ffffffffffffffffffffffffffffffffffffffff167f8be0079c531659141344cd1fd0a4f28419497f9722a3daafe3b4186f6b6457e060405160405180910390a36000600b60006101000a81548173ffffffffffffffffffffffffffffffffffffffff021916908373ffffffffffffffffffffffffffffffffffffffff160217905550565b8361137e816125ac565b6113d3576040517f08c379a000000000000000000000000000000000000000000000000000000000815260040180806020018281038252602c815260200180613d2b602c913960400191505060405180910390fd5b8460006113df82611056565b90508073ffffffffffffffffffffffffffffffffffffffff166114006125c9565b73ffffffffffffffffffffffffffffffffffffffff16148061142f575061142e816114296125c9565b612323565b5b611484576040517f08c379a0000000000000000000000000000000000000000000000000000000008152600401808060200182810382526038815260200180613da96038913960400191505060405180910390fd5b60006002878787604051602001808463ffffffff1660e01b815260040183805190602001908083835b602083106114d057805182526020820191506020810190506020830392506114ad565b6001836020036101000a0380198251168184511680821785525050505050509050018263ffffffff1660e01b815260040193505050506040516020818303038152906040526040518082805190602001908083835b602083106115485780518252602082019150602081019050602083039250611525565b6001836020036101000a038019825116818451168082178552505050505050905001915050602060405180830381855afa15801561158a573d6000803e3d6000fd5b5050506040513d602081101561159f57600080fd5b81019080805190602001909291905050509050600e600082815260200190815260200160002060009054906101000a900460ff1615611629576040517f08c379a0000000000000000000000000000000000000000000000000000000008152600401808060200182810382526026815260200180613eeb6026913960400191505060405180910390fd5b6001600e600083815260200190815260200160002060006101000a81548160ff02191690831515021790555080600d60008a8152602001908152602001600020819055505050505050505050565b6000600b60009054906101000a900473ffffffffffffffffffffffffffffffffffffffff16905090565b606060078054600181600116156101000203166002900480601f0160208091040260200160405190810160405280929190818152602001828054600181600116156101000203166002900480156117395780601f1061170e57610100808354040283529160200191611739565b820191906000526020600020905b81548152906001019060200180831161171c57829003601f168201915b5050505050905090565b61174b6125c9565b73ffffffffffffffffffffffffffffffffffffffff168273ffffffffffffffffffffffffffffffffffffffff1614156117ec576040517f08c379a00000000000000000000000000000000000000000000000000000000081526004018080602001828103825260198152602001807f4552433732313a20617070726f766520746f2063616c6c65720000000000000081525060200191505060405180910390fd5b80600560006117f96125c9565b73ffffffffffffffffffffffffffffffffffffffff1673ffffffffffffffffffffffffffffffffffffffff16815260200190815260200160002060008473ffffffffffffffffffffffffffffffffffffffff1673ffffffffffffffffffffffffffffffffffffffff16815260200190815260200160002060006101000a81548160ff0219169083151502179055508173ffffffffffffffffffffffffffffffffffffffff166118a66125c9565b73ffffffffffffffffffffffffffffffffffffffff167f17307eab39ab6107e8899845ad3d59bd9653f200f220920489ca2b5937696c318360405180821515815260200191505060405180910390a35050565b60606000600d600084815260200190815260200160002054905060006060604067ffffffffffffffff8111801561192f57600080fd5b506040519080825280601f01601f1916602001820160405280156119625781602001600182028036833780820191505090505b509050600091505b80518260ff161015611a93576000600f60f81b8460028560ff168161198b57fe5b0460ff166020811061199957fe5b1a60f81b1660f81c9050600060048560028660ff16816119b557fe5b0460ff16602081106119c357fe5b1a60f81b7effffffffffffffffffffffffffffffffffffffffffffffffffffffffffffff1916901c60f81c90506119f982611a9e565b838560ff1681518110611a0857fe5b60200101907effffffffffffffffffffffffffffffffffffffffffffffffffffffffffffff1916908160001a905350600184019350611a4681611a9e565b838560ff1681518110611a5557fe5b60200101907effffffffffffffffffffffffffffffffffffffffffffffffffffffffffffff1916908160001a9053505050818060010192505061196a565b809350505050919050565b6000600a8260ff161015611aba576030820160f81b9050611ac4565b6057820160f81b90505b919050565b6000600f6000838152602001908152602001600020600101549050919050565b611afa611af46125c9565b8361269f565b611b4f576040517f08c379a0000000000000000000000000000000000000000000000000000000008152600401808060200182810382526031815260200180613f326031913960400191505060405180910390fd5b611b5b84848484612af6565b50505050565b606081611b6d816125ac565b611bc2576040517f08c379a000000000000000000000000000000000000000000000000000000000815260040180806020018281038252602c815260200180613d2b602c913960400191505060405180910390fd5b611bca613a6f565b60405180610120016040528060fd8152602001613a9760fd913981600060058110611bf157fe5b6020020181905250611c02846118f9565b60405160200180807f307800000000000000000000000000000000000000000000000000000000000081525060020182805190602001908083835b60208310611c605780518252602082019150602081019050602083039250611c3d565b6001836020036101000a03801982511681845116808217855250505050505090500191505060405160208183030381529060405281600160058110611ca157fe5b6020020181905250604051806060016040528060288152602001613f636028913981600260058110611ccf57fe5b6020020181905250611ce8611ce385611ac9565b612b68565b60405160200180807f766261743a20000000000000000000000000000000000000000000000000000081525060060182805190602001908083835b60208310611d465780518252602082019150602081019050602083039250611d23565b6001836020036101000a03801982511681845116808217855250505050505090500191505060405160208183030381529060405281600360058110611d8757fe5b60200201819052506040518060400160405280600d81526020017f3c2f746578743e3c2f7376673e0000000000000000000000000000000000000081525081600460058110611dd257fe5b6020020181905250606081600060058110611de957fe5b602002015182600160058110611dfb57fe5b602002015183600260058110611e0d57fe5b602002015184600360058110611e1f57fe5b602002015185600460058110611e3157fe5b60200201516040516020018086805190602001908083835b60208310611e6c5780518252602082019150602081019050602083039250611e49565b6001836020036101000a03801982511681845116808217855250505050505090500185805190602001908083835b60208310611ebd5780518252602082019150602081019050602083039250611e9a565b6001836020036101000a03801982511681845116808217855250505050505090500184805190602001908083835b60208310611f0e5780518252602082019150602081019050602083039250611eeb565b6001836020036101000a03801982511681845116808217855250505050505090500183805190602001908083835b60208310611f5f5780518252602082019150602081019050602083039250611f3c565b6001836020036101000a03801982511681845116808217855250505050505090500182805190602001908083835b60208310611fb05780518252602082019150602081019050602083039250611f8d565b6001836020036101000a0380198251168184511680821785525050505050509050019550505050505060405160208183030381529060405290506060611ff586612b68565b60405160200180807f226e616d65223a2022547275737465642056424154204c6f6f74202300000000815250601c0182805190602001908083835b602083106120535780518252602082019150602081019050602083039250612030565b6001836020036101000a038019825116818451168082178552505050505050905001807f2200000000000000000000000000000000000000000000000000000000000000815250600101915050604051602081830303815290604052905060606040516020018080613c3360d4913960d40190506040516020818303038152906040529050606061227e83836120e887612ca2565b60405160200180807f7b0000000000000000000000000000000000000000000000000000000000000081525060010184805190602001908083835b602083106121465780518252602082019150602081019050602083039250612123565b6001836020036101000a038019825116818451168082178552505050505050905001807f2c0000000000000000000000000000000000000000000000000000000000000081525060010183805190602001908083835b602083106121bf578051825260208201915060208101905060208303925061219c565b6001836020036101000a03801982511681845116808217855250505050505090500180613c0e6025913960250182805190602001908083835b6020831061221b57805182526020820191506020810190506020830392506121f8565b6001836020036101000a038019825116818451168082178552505050505050905001807f227d0000000000000000000000000000000000000000000000000000000000008152506002019350505050604051602081830303815290604052612ca2565b90508060405160200180807f646174613a6170706c69636174696f6e2f6a736f6e3b6261736536342c000000815250601d0182805190602001908083835b602083106122df57805182526020820191506020810190506020830392506122bc565b6001836020036101000a0380198251168184511680821785525050505050509050019150506040516020818303038152906040529350839650505050505050919050565b6000600560008473ffffffffffffffffffffffffffffffffffffffff1673ffffffffffffffffffffffffffffffffffffffff16815260200190815260200160002060008373ffffffffffffffffffffffffffffffffffffffff1673ffffffffffffffffffffffffffffffffffffffff16815260200190815260200160002060009054906101000a900460ff16905092915050565b6123bf6125c9565b73ffffffffffffffffffffffffffffffffffffffff166123dd611677565b73ffffffffffffffffffffffffffffffffffffffff1614612466576040517f08c379a00000000000000000000000000000000000000000000000000000000081526004018080602001828103825260208152602001807f4f776e61626c653a2063616c6c6572206973206e6f7420746865206f776e657281525060200191505060405180910390fd5b600073ffffffffffffffffffffffffffffffffffffffff168173ffffffffffffffffffffffffffffffffffffffff1614156124ec576040517f08c379a0000000000000000000000000000000000000000000000000000000008152600401808060200182810382526026815260200180613be86026913960400191505060405180910390fd5b8073ffffffffffffffffffffffffffffffffffffffff16600b60009054906101000a900473ffffffffffffffffffffffffffffffffffffffff1673ffffffffffffffffffffffffffffffffffffffff167f8be0079c531659141344cd1fd0a4f28419497f9722a3daafe3b4186f6b6457e060405160405180910390a380600b60006101000a81548173ffffffffffffffffffffffffffffffffffffffff021916908373ffffffffffffffffffffffffffffffffffffffff16021790555050565b60006125c2826002612e1b90919063ffffffff16565b9050919050565b600033905090565b816004600083815260200190815260200160002060006101000a81548173ffffffffffffffffffffffffffffffffffffffff021916908373ffffffffffffffffffffffffffffffffffffffff160217905550808273ffffffffffffffffffffffffffffffffffffffff1661264483611056565b73ffffffffffffffffffffffffffffffffffffffff167f8c5be1e5ebec7d5bd14f71427d1e84f3dd0314c0f7b2291e5b200ac8c7c3b92560405160405180910390a45050565b600061269882600001612e35565b9050919050565b60006126aa826125ac565b6126ff576040517f08c379a000000000000000000000000000000000000000000000000000000000815260040180806020018281038252602c815260200180613d7d602c913960400191505060405180910390fd5b600061270a83611056565b90508073ffffffffffffffffffffffffffffffffffffffff168473ffffffffffffffffffffffffffffffffffffffff16148061277957508373ffffffffffffffffffffffffffffffffffffffff1661276184610c98565b73ffffffffffffffffffffffffffffffffffffffff16145b8061278a57506127898185612323565b5b91505092915050565b8273ffffffffffffffffffffffffffffffffffffffff166127b382611056565b73ffffffffffffffffffffffffffffffffffffffff161461281f576040517f08c379a0000000000000000000000000000000000000000000000000000000008152600401808060200182810382526029815260200180613ec26029913960400191505060405180910390fd5b600073ffffffffffffffffffffffffffffffffffffffff168273ffffffffffffffffffffffffffffffffffffffff1614156128a5576040517f08c379a0000000000000000000000000000000000000000000000000000000008152600401808060200182810382526024815260200180613d076024913960400191505060405180910390fd5b6128b0838383612e46565b6128bb6000826125d1565b61290c81600160008673ffffffffffffffffffffffffffffffffffffffff1673ffffffffffffffffffffffffffffffffffffffff168152602001908152602001600020612e4b90919063ffffffff16565b5061295e81600160008573ffffffffffffffffffffffffffffffffffffffff1673ffffffffffffffffffffffffffffffffffffffff168152602001908152602001600020612e6590919063ffffffff16565b5061297581836002612e7f9092919063ffffffff16565b50808273ffffffffffffffffffffffffffffffffffffffff168473ffffffffffffffffffffffffffffffffffffffff167fddf252ad1be2c89b69c2b068fc378daa952ba7f163c4a11628f55a4df523b3ef60405160405180910390a4505050565b60006129e58360000183612eb4565b60001c905092915050565b600080828401905083811015612a6e576040517f08c379a000000000000000000000000000000000000000000000000000000000815260040180806020018281038252601b8152602001807f536166654d6174683a206164646974696f6e206f766572666c6f77000000000081525060200191505060405180910390fd5b8091505092915050565b612a92828260405180602001604052806000815250612f37565b5050565b600080600080612aa98660000186612fa8565b915091508160001c8160001c9350935050509250929050565b6000612ad5846000018460001b84613041565b60001c90509392505050565b6000612aef82600001613137565b9050919050565b612b01848484612793565b612b0d84848484613148565b612b62576040517f08c379a0000000000000000000000000000000000000000000000000000000008152600401808060200182810382526032815260200180613bb66032913960400191505060405180910390fd5b50505050565b60606000821415612bb0576040518060400160405280600181526020017f30000000000000000000000000000000000000000000000000000000000000008152509050612c9d565b600082905060005b60008214612bda578080600101915050600a8281612bd257fe5b049150612bb8565b60608167ffffffffffffffff81118015612bf357600080fd5b506040519080825280601f01601f191660200182016040528015612c265781602001600182028036833780820191505090505b5090505b60008514612c9657600182039150600a8581612c4257fe5b0660300160f81b818381518110612c5557fe5b60200101907effffffffffffffffffffffffffffffffffffffffffffffffffffffffffffff1916908160001a905350600a8581612c8e57fe5b049450612c2a565b8093505050505b919050565b60606000825190506000811415612ccb5760405180602001604052806000815250915050612e16565b600060036002830181612cda57fe5b04600402905060606020820167ffffffffffffffff81118015612cfc57600080fd5b506040519080825280601f01601f191660200182016040528015612d2f5781602001600182028036833780820191505090505b5090506060604051806060016040528060408152602001613e34604091399050600181016020830160005b86811015612dd35760038101905062ffffff818a015116603f8160121c168401518060081b905060ff603f83600c1c1686015116810190508060081b905060ff603f8360061c1686015116810190508060081b905060ff603f831686015116810190508060e01b90508084526004840193505050612d5a565b506003860660018114612ded5760028114612dfd57612e08565b613d3d60f01b6002830352612e08565b603d60f81b60018303525b508484525050819450505050505b919050565b6000612e2d836000018360001b613361565b905092915050565b600081600001805490509050919050565b505050565b6000612e5d836000018360001b613384565b905092915050565b6000612e77836000018360001b61346c565b905092915050565b6000612eab846000018460001b8473ffffffffffffffffffffffffffffffffffffffff1660001b6134dc565b90509392505050565b600081836000018054905011612f15576040517f08c379a0000000000000000000000000000000000000000000000000000000008152600401808060200182810382526022815260200180613b946022913960400191505060405180910390fd5b826000018281548110612f2457fe5b9060005260206000200154905092915050565b612f4183836135b8565b612f4e6000848484613148565b612fa3576040517f08c379a0000000000000000000000000000000000000000000000000000000008152600401808060200182810382526032815260200180613bb66032913960400191505060405180910390fd5b505050565b6000808284600001805490501161300a576040517f08c379a0000000000000000000000000000000000000000000000000000000008152600401808060200182810382526022815260200180613e746022913960400191505060405180910390fd5b600084600001848154811061301b57fe5b906000526020600020906002020190508060000154816001015492509250509250929050565b60008084600101600085815260200190815260200160002054905060008114158390613108576040517f08c379a00000000000000000000000000000000000000000000000000000000081526004018080602001828103825283818151815260200191508051906020019080838360005b838110156130cd5780820151818401526020810190506130b2565b50505050905090810190601f1680156130fa5780820380516001836020036101000a031916815260200191505b509250505060405180910390fd5b5084600001600182038154811061311b57fe5b9060005260206000209060020201600101549150509392505050565b600081600001805490509050919050565b60006131698473ffffffffffffffffffffffffffffffffffffffff166137ac565b6131765760019050613359565b60606132e063150b7a0260e01b61318b6125c9565b888787604051602401808573ffffffffffffffffffffffffffffffffffffffff1681526020018473ffffffffffffffffffffffffffffffffffffffff16815260200183815260200180602001828103825283818151815260200191508051906020019080838360005b8381101561320f5780820151818401526020810190506131f4565b50505050905090810190601f16801561323c5780820380516001836020036101000a031916815260200191505b5095505050505050604051602081830303815290604052907bffffffffffffffffffffffffffffffffffffffffffffffffffffffff19166020820180517bffffffffffffffffffffffffffffffffffffffffffffffffffffffff8381831617835250505050604051806060016040528060328152602001613bb6603291398773ffffffffffffffffffffffffffffffffffffffff166137bf9092919063ffffffff16565b905060008180602001905160208110156132f957600080fd5b8101908080519060200190929190505050905063150b7a0260e01b7bffffffffffffffffffffffffffffffffffffffffffffffffffffffff1916817bffffffffffffffffffffffffffffffffffffffffffffffffffffffff191614925050505b949350505050565b600080836001016000848152602001908152602001600020541415905092915050565b6000808360010160008481526020019081526020016000205490506000811461346057600060018203905060006001866000018054905003905060008660000182815481106133cf57fe5b90600052602060002001549050808760000184815481106133ec57fe5b906000526020600020018190555060018301876001016000838152602001908152602001600020819055508660000180548061342457fe5b60019003818190600052602060002001600090559055866001016000878152602001908152602001600020600090556001945050505050613466565b60009150505b92915050565b600061347883836137d7565b6134d15782600001829080600181540180825580915050600190039060005260206000200160009091909190915055826000018054905083600101600084815260200190815260200160002081905550600190506134d6565b600090505b92915050565b6000808460010160008581526020019081526020016000205490506000811415613583578460000160405180604001604052808681526020018581525090806001815401808255809150506001900390600052602060002090600202016000909190919091506000820151816000015560208201518160010155505084600001805490508560010160008681526020019081526020016000208190555060019150506135b1565b8285600001600183038154811061359657fe5b90600052602060002090600202016001018190555060009150505b9392505050565b600073ffffffffffffffffffffffffffffffffffffffff168273ffffffffffffffffffffffffffffffffffffffff16141561365b576040517f08c379a00000000000000000000000000000000000000000000000000000000081526004018080602001828103825260208152602001807f4552433732313a206d696e7420746f20746865207a65726f206164647265737381525060200191505060405180910390fd5b613664816125ac565b156136d7576040517f08c379a000000000000000000000000000000000000000000000000000000000815260040180806020018281038252601c8152602001807f4552433732313a20746f6b656e20616c7265616479206d696e7465640000000081525060200191505060405180910390fd5b6136e360008383612e46565b61373481600160008573ffffffffffffffffffffffffffffffffffffffff1673ffffffffffffffffffffffffffffffffffffffff168152602001908152602001600020612e6590919063ffffffff16565b5061374b81836002612e7f9092919063ffffffff16565b50808273ffffffffffffffffffffffffffffffffffffffff16600073ffffffffffffffffffffffffffffffffffffffff167fddf252ad1be2c89b69c2b068fc378daa952ba7f163c4a11628f55a4df523b3ef60405160405180910390a45050565b600080823b905060008111915050919050565b60606137ce84846000856137fa565b90509392505050565b600080836001016000848152602001908152602001600020541415905092915050565b606082471015613855576040517f08c379a0000000000000000000000000000000000000000000000000000000008152600401808060200182810382526026815260200180613d576026913960400191505060405180910390fd5b61385e856137ac565b6138d0576040517f08c379a000000000000000000000000000000000000000000000000000000000815260040180806020018281038252601d8152602001807f416464726573733a2063616c6c20746f206e6f6e2d636f6e747261637400000081525060200191505060405180910390fd5b600060608673ffffffffffffffffffffffffffffffffffffffff1685876040518082805190602001908083835b6020831061392057805182526020820191506020810190506020830392506138fd565b6001836020036101000a03801982511681845116808217855250505050505090500191505060006040518083038185875af1925050503d8060008114613982576040519150601f19603f3d011682016040523d82523d6000602084013e613987565b606091505b50915091506139978282866139a3565b92505050949350505050565b606083156139b357829050613a68565b6000835111156139c65782518084602001fd5b816040517f08c379a00000000000000000000000000000000000000000000000000000000081526004018080602001828103825283818151815260200191508051906020019080838360005b83811015613a2d578082015181840152602081019050613a12565b50505050905090810190601f168015613a5a5780820380516001836020036101000a031916815260200191505b509250505060405180910390fd5b9392505050565b6040518060a001604052806005905b6060815260200190600190039081613a7e579050509056fe3c73766720786d6c6e733d22687474703a2f2f7777772e77332e6f72672f323030302f73766722207072657365727665417370656374526174696f3d22784d696e594d696e206d656574222076696577426f783d223020302033353020333530223e3c7374796c653e2e62617365207b2066696c6c3a2077686974653b20666f6e742d66616d696c793a2073657269663b20666f6e742d73697a653a20313070783b207d3c2f7374796c653e3c726563742077696474683d223130302522206865696768743d2231303025222066696c6c3d22626c61636b22202f3e3c7465787420783d2231302220793d2232302220636c6173733d2262617365223e456e756d657261626c655365743a20696e646578206f7574206f6620626f756e64734552433732313a207472616e7366657220746f206e6f6e20455243373231526563656976657220696d706c656d656e7465724f776e61626c653a206e6577206f776e657220697320746865207a65726f20616464726573732c22696d616765223a2022646174613a696d6167652f7376672b786d6c3b6261736536342c226465736372697074696f6e223a2022547275737465642076626174206c6f6f742069732061207265616c20776f726c6420646174612073746f726564206f6e20636861696e2e2053746174732c20696d616765732c20616e64206f746865722066756e6374696f6e616c6974792061726520696e74656e74696f6e616c6c79206f6d697474656420666f72206f746865727320746f20696e746572707265742e204665656c206672656520746f2075736520506562626c65204c6f6f7420696e20616e792077617920796f752077616e742e224552433732313a207472616e7366657220746f20746865207a65726f20616464726573734552433732313a20736574206861736820717565727920666f72206e6f6e6578697374656e7420746f6b656e416464726573733a20696e73756666696369656e742062616c616e636520666f722063616c6c4552433732313a206f70657261746f7220717565727920666f72206e6f6e6578697374656e7420746f6b656e4552433732313a20617070726f76652063616c6c6572206973206e6f74206f776e6572206e6f7220617070726f76656420666f7220616c6c4552433732313a2062616c616e636520717565727920666f7220746865207a65726f20616464726573734552433732313a206f776e657220717565727920666f72206e6f6e6578697374656e7420746f6b656e4142434445464748494a4b4c4d4e4f505152535455565758595a6162636465666768696a6b6c6d6e6f707172737475767778797a303132333435363738392b2f456e756d657261626c654d61703a20696e646578206f7574206f6620626f756e64734552433732313a20617070726f76656420717565727920666f72206e6f6e6578697374656e7420746f6b656e4552433732313a207472616e73666572206f6620746f6b656e2074686174206973206e6f74206f776e546869732064617461706f696e7420686173206265656e206d696e74656420616c72656164794552433732313a20617070726f76616c20746f2063757272656e74206f776e65724552433732313a207472616e736665722063616c6c6572206973206e6f74206f776e6572206e6f7220617070726f7665643c2f746578743e3c7465787420783d2231302220793d2234302220636c6173733d2262617365223ea2646970667358221220d76d1a9347a72378b9f1289c1dc2ac415fbac9d5cad140b11a350621d709d50a64736f6c63430007030033",
  "linkReferences": {},
  "deployedLinkReferences": {}
}