{
  "_format": "hh-sol-artifact-1",
  "contractName": "Registration",
  "sourceName": "contracts/TrueStream/Registration.sol",
  "abi": [
    {
      "anonymous": false,
      "inputs": [
        {
          "indexed": false,
          "internalType": "address",
          "name": "account",
          "type": "address"
        }
      ],
      "name": "OperatorGranted",
      "type": "event"
    },
    {
      "anonymous": false,
      "inputs": [
        {
          "indexed": false,
          "internalType": "address",
          "name": "account",
          "type": "address"
        }
      ],
      "name": "OperatorRevoked",
      "type": "event"
    },
    {
      "anonymous": false,
      "inputs": [
        {
          "indexed": true,
          "internalType": "address",
          "name": "previousOwner",
          "type": "address"
        },
        {
          "indexed": true,
          "internalType": "address",
          "name": "newOwner",
          "type": "address"
        }
      ],
      "name": "OwnershipTransferred",
      "type": "event"
    },
    {
      "inputs": [
        {
          "internalType": "string",
          "name": "",
          "type": "string"
        }
      ],
      "name": "factory",
      "outputs": [
        {
          "internalType": "address",
          "name": "addr",
          "type": "address"
        },
        {
          "internalType": "address",
          "name": "owner",
          "type": "address"
        }
      ],
      "stateMutability": "view",
      "type": "function"
    },
    {
      "inputs": [
        {
          "internalType": "string",
          "name": "imei",
          "type": "string"
        }
      ],
      "name": "find",
      "outputs": [
        {
          "internalType": "address",
          "name": "",
          "type": "address"
        },
        {
          "internalType": "address",
          "name": "",
          "type": "address"
        }
      ],
      "stateMutability": "view",
      "type": "function"
    },
    {
      "inputs": [
        {
          "internalType": "address",
          "name": "_account",
          "type": "address"
        }
      ],
      "name": "grant",
      "outputs": [],
      "stateMutability": "nonpayable",
      "type": "function"
    },
    {
      "inputs": [
        {
          "internalType": "address",
          "name": "",
          "type": "address"
        }
      ],
      "name": "operators",
      "outputs": [
        {
          "internalType": "bool",
          "name": "",
          "type": "bool"
        }
      ],
      "stateMutability": "view",
      "type": "function"
    },
    {
      "inputs": [],
      "name": "owner",
      "outputs": [
        {
          "internalType": "address",
          "name": "",
          "type": "address"
        }
      ],
      "stateMutability": "view",
      "type": "function"
    },
    {
      "inputs": [],
      "name": "renounceOwnership",
      "outputs": [],
      "stateMutability": "nonpayable",
      "type": "function"
    },
    {
      "inputs": [
        {
          "internalType": "address",
          "name": "_account",
          "type": "address"
        }
      ],
      "name": "revoke",
      "outputs": [],
      "stateMutability": "nonpayable",
      "type": "function"
    },
    {
      "inputs": [
        {
          "internalType": "string",
          "name": "imei",
          "type": "string"
        },
        {
          "internalType": "address",
          "name": "owner",
          "type": "address"
        }
      ],
      "name": "setOwner",
      "outputs": [],
      "stateMutability": "nonpayable",
      "type": "function"
    },
    {
      "inputs": [
        {
          "internalType": "string[]",
          "name": "imeis",
          "type": "string[]"
        },
        {
          "internalType": "address[]",
          "name": "addrs",
          "type": "address[]"
        }
      ],
      "name": "ship",
      "outputs": [],
      "stateMutability": "nonpayable",
      "type": "function"
    },
    {
      "inputs": [
        {
          "internalType": "address",
          "name": "newOwner",
          "type": "address"
        }
      ],
      "name": "transferOwnership",
      "outputs": [],
      "stateMutability": "nonpayable",
      "type": "function"
    }
  ],
  "bytecode": "0x608060405234801561001057600080fd5b5061002d61002261003260201b60201c565b61003a60201b60201c565b6100fe565b600033905090565b60008060009054906101000a900473ffffffffffffffffffffffffffffffffffffffff169050816000806101000a81548173ffffffffffffffffffffffffffffffffffffffff021916908373ffffffffffffffffffffffffffffffffffffffff1602179055508173ffffffffffffffffffffffffffffffffffffffff168173ffffffffffffffffffffffffffffffffffffffff167f8be0079c531659141344cd1fd0a4f28419497f9722a3daafe3b4186f6b6457e060405160405180910390a35050565b6115a28061010d6000396000f3fe608060405234801561001057600080fd5b506004361061009e5760003560e01c806374a8f1031161006657806374a8f103146101465780637a7a0aeb1461016257806382b7b5001461017e5780638da5cb5b146101af578063f2fde38b146101cd5761009e565b8063092b25e9146100a357806313e7c9d8146100bf57806367914b79146100ef57806370284d1914610120578063715018a61461013c575b600080fd5b6100bd60048036038101906100b89190610f46565b6101e9565b005b6100d960048036038101906100d49190610e70565b61038a565b6040516100e69190611116565b60405180910390f35b61010960048036038101906101049190610f05565b6103aa565b6040516101179291906110ed565b60405180910390f35b61013a60048036038101906101359190610e70565b610424565b005b610144610583565b005b610160600480360381019061015b9190610e70565b61060b565b005b61017c60048036038101906101779190610e99565b61076c565b005b61019860048036038101906101939190610f05565b610a30565b6040516101a69291906110ed565b60405180910390f35b6101b7610ac0565b6040516101c491906110d2565b60405180910390f35b6101e760048036038101906101e29190610e70565b610ae9565b005b600160003373ffffffffffffffffffffffffffffffffffffffff1673ffffffffffffffffffffffffffffffffffffffff16815260200190815260200160002060009054906101000a900460ff16610275576040517f08c379a000000000000000000000000000000000000000000000000000000000815260040161026c90611151565b60405180910390fd5b600073ffffffffffffffffffffffffffffffffffffffff1660028360405161029d91906110bb565b908152602001604051809103902060000160009054906101000a900473ffffffffffffffffffffffffffffffffffffffff1673ffffffffffffffffffffffffffffffffffffffff161415610326576040517f08c379a000000000000000000000000000000000000000000000000000000000815260040161031d906111b1565b60405180910390fd5b8060028360405161033791906110bb565b908152602001604051809103902060010160006101000a81548173ffffffffffffffffffffffffffffffffffffffff021916908373ffffffffffffffffffffffffffffffffffffffff1602179055505050565b60016020528060005260406000206000915054906101000a900460ff1681565b6002818051602081018201805184825260208301602085012081835280955050505050506000915090508060000160009054906101000a900473ffffffffffffffffffffffffffffffffffffffff16908060010160009054906101000a900473ffffffffffffffffffffffffffffffffffffffff16905082565b61042c610be1565b73ffffffffffffffffffffffffffffffffffffffff1661044a610ac0565b73ffffffffffffffffffffffffffffffffffffffff16146104a0576040517f08c379a0000000000000000000000000000000000000000000000000000000008152600401610497906111d1565b60405180910390fd5b600160008273ffffffffffffffffffffffffffffffffffffffff1673ffffffffffffffffffffffffffffffffffffffff16815260200190815260200160002060009054906101000a900460ff166105805760018060008373ffffffffffffffffffffffffffffffffffffffff1673ffffffffffffffffffffffffffffffffffffffff16815260200190815260200160002060006101000a81548160ff0219169083151502179055507f5b6a420b639feabfb011a07742a6ae14ef72f35d1a330ed65f42216c95bc6c2e8160405161057791906110d2565b60405180910390a15b50565b61058b610be1565b73ffffffffffffffffffffffffffffffffffffffff166105a9610ac0565b73ffffffffffffffffffffffffffffffffffffffff16146105ff576040517f08c379a00000000000000000000000000000000000000000000000000000000081526004016105f6906111d1565b60405180910390fd5b6106096000610be9565b565b610613610be1565b73ffffffffffffffffffffffffffffffffffffffff16610631610ac0565b73ffffffffffffffffffffffffffffffffffffffff1614610687576040517f08c379a000000000000000000000000000000000000000000000000000000000815260040161067e906111d1565b60405180910390fd5b600160008273ffffffffffffffffffffffffffffffffffffffff1673ffffffffffffffffffffffffffffffffffffffff16815260200190815260200160002060009054906101000a900460ff1615610769576000600160008373ffffffffffffffffffffffffffffffffffffffff1673ffffffffffffffffffffffffffffffffffffffff16815260200190815260200160002060006101000a81548160ff0219169083151502179055507fa5f3b7626fd86ff989f1d22cf3d41d74591ea6eb99241079400b0c332a9a8f118160405161076091906110d2565b60405180910390a15b50565b600160003373ffffffffffffffffffffffffffffffffffffffff1673ffffffffffffffffffffffffffffffffffffffff16815260200190815260200160002060009054906101000a900460ff166107f8576040517f08c379a00000000000000000000000000000000000000000000000000000000081526004016107ef90611151565b60405180910390fd5b805182511461083c576040517f08c379a000000000000000000000000000000000000000000000000000000000815260040161083390611191565b60405180910390fd5b60005b8251811015610a2b57600073ffffffffffffffffffffffffffffffffffffffff16600284838151811061089b577f4e487b7100000000000000000000000000000000000000000000000000000000600052603260045260246000fd5b60200260200101516040516108b091906110bb565b908152602001604051809103902060000160009054906101000a900473ffffffffffffffffffffffffffffffffffffffff1673ffffffffffffffffffffffffffffffffffffffff1614610938576040517f08c379a000000000000000000000000000000000000000000000000000000000815260040161092f90611171565b60405180910390fd5b818181518110610971577f4e487b7100000000000000000000000000000000000000000000000000000000600052603260045260246000fd5b602002602001015160028483815181106109b4577f4e487b7100000000000000000000000000000000000000000000000000000000600052603260045260246000fd5b60200260200101516040516109c991906110bb565b908152602001604051809103902060000160006101000a81548173ffffffffffffffffffffffffffffffffffffffff021916908373ffffffffffffffffffffffffffffffffffffffff1602179055508080610a2390611381565b91505061083f565b505050565b600080600283604051610a4391906110bb565b908152602001604051809103902060000160009054906101000a900473ffffffffffffffffffffffffffffffffffffffff16600284604051610a8591906110bb565b908152602001604051809103902060010160009054906101000a900473ffffffffffffffffffffffffffffffffffffffff1691509150915091565b60008060009054906101000a900473ffffffffffffffffffffffffffffffffffffffff16905090565b610af1610be1565b73ffffffffffffffffffffffffffffffffffffffff16610b0f610ac0565b73ffffffffffffffffffffffffffffffffffffffff1614610b65576040517f08c379a0000000000000000000000000000000000000000000000000000000008152600401610b5c906111d1565b60405180910390fd5b600073ffffffffffffffffffffffffffffffffffffffff168173ffffffffffffffffffffffffffffffffffffffff161415610bd5576040517f08c379a0000000000000000000000000000000000000000000000000000000008152600401610bcc90611131565b60405180910390fd5b610bde81610be9565b50565b600033905090565b60008060009054906101000a900473ffffffffffffffffffffffffffffffffffffffff169050816000806101000a81548173ffffffffffffffffffffffffffffffffffffffff021916908373ffffffffffffffffffffffffffffffffffffffff1602179055508173ffffffffffffffffffffffffffffffffffffffff168173ffffffffffffffffffffffffffffffffffffffff167f8be0079c531659141344cd1fd0a4f28419497f9722a3daafe3b4186f6b6457e060405160405180910390a35050565b6000610cc0610cbb84611216565b6111f1565b90508083825260208201905082856020860282011115610cdf57600080fd5b60005b85811015610d0f5781610cf58882610ddd565b845260208401935060208301925050600181019050610ce2565b5050509392505050565b6000610d2c610d2784611242565b6111f1565b90508083825260208201905082856020860282011115610d4b57600080fd5b60005b85811015610d9557813567ffffffffffffffff811115610d6d57600080fd5b808601610d7a8982610e46565b85526020850194506020840193505050600181019050610d4e565b5050509392505050565b6000610db2610dad8461126e565b6111f1565b905082815260208101848484011115610dca57600080fd5b610dd584828561130e565b509392505050565b600081359050610dec81611555565b92915050565b600082601f830112610e0357600080fd5b8135610e13848260208601610cad565b91505092915050565b600082601f830112610e2d57600080fd5b8135610e3d848260208601610d19565b91505092915050565b600082601f830112610e5757600080fd5b8135610e67848260208601610d9f565b91505092915050565b600060208284031215610e8257600080fd5b6000610e9084828501610ddd565b91505092915050565b60008060408385031215610eac57600080fd5b600083013567ffffffffffffffff811115610ec657600080fd5b610ed285828601610e1c565b925050602083013567ffffffffffffffff811115610eef57600080fd5b610efb85828601610df2565b9150509250929050565b600060208284031215610f1757600080fd5b600082013567ffffffffffffffff811115610f3157600080fd5b610f3d84828501610e46565b91505092915050565b60008060408385031215610f5957600080fd5b600083013567ffffffffffffffff811115610f7357600080fd5b610f7f85828601610e46565b9250506020610f9085828601610ddd565b9150509250929050565b610fa3816112c6565b82525050565b610fb2816112d8565b82525050565b6000610fc38261129f565b610fcd81856112bb565b9350610fdd81856020860161131d565b80840191505092915050565b6000610ff66026836112aa565b915061100182611439565b604082019050919050565b6000611019601a836112aa565b915061102482611488565b602082019050919050565b600061103c6016836112aa565b9150611047826114b1565b602082019050919050565b600061105f6015836112aa565b915061106a826114da565b602082019050919050565b6000611082600c836112aa565b915061108d82611503565b602082019050919050565b60006110a56020836112aa565b91506110b08261152c565b602082019050919050565b60006110c78284610fb8565b915081905092915050565b60006020820190506110e76000830184610f9a565b92915050565b60006040820190506111026000830185610f9a565b61110f6020830184610f9a565b9392505050565b600060208201905061112b6000830184610fa9565b92915050565b6000602082019050818103600083015261114a81610fe9565b9050919050565b6000602082019050818103600083015261116a8161100c565b9050919050565b6000602082019050818103600083015261118a8161102f565b9050919050565b600060208201905081810360008301526111aa81611052565b9050919050565b600060208201905081810360008301526111ca81611075565b9050919050565b600060208201905081810360008301526111ea81611098565b9050919050565b60006111fb61120c565b90506112078282611350565b919050565b6000604051905090565b600067ffffffffffffffff821115611231576112306113f9565b5b602082029050602081019050919050565b600067ffffffffffffffff82111561125d5761125c6113f9565b5b602082029050602081019050919050565b600067ffffffffffffffff821115611289576112886113f9565b5b61129282611428565b9050602081019050919050565b600081519050919050565b600082825260208201905092915050565b600081905092915050565b60006112d1826112e4565b9050919050565b60008115159050919050565b600073ffffffffffffffffffffffffffffffffffffffff82169050919050565b6000819050919050565b82818337600083830152505050565b60005b8381101561133b578082015181840152602081019050611320565b8381111561134a576000848401525b50505050565b61135982611428565b810181811067ffffffffffffffff82111715611378576113776113f9565b5b80604052505050565b600061138c82611304565b91507fffffffffffffffffffffffffffffffffffffffffffffffffffffffffffffffff8214156113bf576113be6113ca565b5b600182019050919050565b7f4e487b7100000000000000000000000000000000000000000000000000000000600052601160045260246000fd5b7f4e487b7100000000000000000000000000000000000000000000000000000000600052604160045260246000fd5b6000601f19601f8301169050919050565b7f4f776e61626c653a206e6577206f776e657220697320746865207a65726f206160008201527f6464726573730000000000000000000000000000000000000000000000000000602082015250565b7f63616c6c6572206973206e6f7420746865206f70657261746f72000000000000600082015250565b7f64657669636520616c7265616479207368697070656400000000000000000000600082015250565b7f6172726179206c656e677468206d69736d617463680000000000000000000000600082015250565b7f696e76616c696420696d65690000000000000000000000000000000000000000600082015250565b7f4f776e61626c653a2063616c6c6572206973206e6f7420746865206f776e6572600082015250565b61155e816112c6565b811461156957600080fd5b5056fea2646970667358221220fe6e92702c0e0c7b9368eadf31de633ff336aa39969a41e0fad4a38078b2db4164736f6c63430008040033",
  "linkReferences": {},
  "deployedLinkReferences": {}
}