{
  "_format": "hh-sol-artifact-1",
  "contractName": "Registration",
  "sourceName": "contracts/TrueStream/Registration.sol",
  "abi": [
    {
      "anonymous": false,
      "inputs": [
        {
          "indexed": false,
          "internalType": "address",
          "name": "account",
          "type": "address"
        }
      ],
      "name": "OperatorGranted",
      "type": "event"
    },
    {
      "anonymous": false,
      "inputs": [
        {
          "indexed": false,
          "internalType": "address",
          "name": "account",
          "type": "address"
        }
      ],
      "name": "OperatorRevoked",
      "type": "event"
    },
    {
      "anonymous": false,
      "inputs": [
        {
          "indexed": true,
          "internalType": "address",
          "name": "previousOwner",
          "type": "address"
        },
        {
          "indexed": true,
          "internalType": "address",
          "name": "newOwner",
          "type": "address"
        }
      ],
      "name": "OwnershipTransferred",
      "type": "event"
    },
    {
      "inputs": [
        {
          "internalType": "string",
          "name": "",
          "type": "string"
        }
      ],
      "name": "factory",
      "outputs": [
        {
          "internalType": "address",
          "name": "addr",
          "type": "address"
        },
        {
          "internalType": "address",
          "name": "owner",
          "type": "address"
        }
      ],
      "stateMutability": "view",
      "type": "function"
    },
    {
      "inputs": [
        {
          "internalType": "string",
          "name": "imei",
          "type": "string"
        }
      ],
      "name": "find",
      "outputs": [
        {
          "internalType": "address",
          "name": "",
          "type": "address"
        },
        {
          "internalType": "address",
          "name": "",
          "type": "address"
        }
      ],
      "stateMutability": "view",
      "type": "function"
    },
    {
      "inputs": [
        {
          "internalType": "address",
          "name": "_account",
          "type": "address"
        }
      ],
      "name": "grant",
      "outputs": [],
      "stateMutability": "nonpayable",
      "type": "function"
    },
    {
      "inputs": [
        {
          "internalType": "address",
          "name": "",
          "type": "address"
        }
      ],
      "name": "operators",
      "outputs": [
        {
          "internalType": "bool",
          "name": "",
          "type": "bool"
        }
      ],
      "stateMutability": "view",
      "type": "function"
    },
    {
      "inputs": [],
      "name": "owner",
      "outputs": [
        {
          "internalType": "address",
          "name": "",
          "type": "address"
        }
      ],
      "stateMutability": "view",
      "type": "function"
    },
    {
      "inputs": [],
      "name": "renounceOwnership",
      "outputs": [],
      "stateMutability": "nonpayable",
      "type": "function"
    },
    {
      "inputs": [
        {
          "internalType": "address",
          "name": "_account",
          "type": "address"
        }
      ],
      "name": "revoke",
      "outputs": [],
      "stateMutability": "nonpayable",
      "type": "function"
    },
    {
      "inputs": [
        {
          "internalType": "string",
          "name": "imei",
          "type": "string"
        },
        {
          "internalType": "address",
          "name": "owner",
          "type": "address"
        }
      ],
      "name": "setOwner",
      "outputs": [],
      "stateMutability": "nonpayable",
      "type": "function"
    },
    {
      "inputs": [
        {
          "internalType": "string[]",
          "name": "imeis",
          "type": "string[]"
        },
        {
          "internalType": "address[]",
          "name": "addrs",
          "type": "address[]"
        }
      ],
      "name": "ship",
      "outputs": [],
      "stateMutability": "nonpayable",
      "type": "function"
    },
    {
      "inputs": [
        {
          "internalType": "address",
          "name": "newOwner",
          "type": "address"
        }
      ],
      "name": "transferOwnership",
      "outputs": [],
      "stateMutability": "nonpayable",
      "type": "function"
    }
  ],
  "bytecode": "0x608060405234801561001057600080fd5b5060006100216100c460201b60201c565b9050806000806101000a81548173ffffffffffffffffffffffffffffffffffffffff021916908373ffffffffffffffffffffffffffffffffffffffff1602179055508073ffffffffffffffffffffffffffffffffffffffff16600073ffffffffffffffffffffffffffffffffffffffff167f8be0079c531659141344cd1fd0a4f28419497f9722a3daafe3b4186f6b6457e060405160405180910390a3506100cc565b600033905090565b611423806100db6000396000f3fe608060405234801561001057600080fd5b506004361061009e5760003560e01c806374a8f1031161006657806374a8f103146101465780637a7a0aeb1461016257806382b7b5001461017e5780638da5cb5b146101af578063f2fde38b146101cd5761009e565b8063092b25e9146100a357806313e7c9d8146100bf57806367914b79146100ef57806370284d1914610120578063715018a61461013c575b600080fd5b6100bd60048036038101906100b89190610ef5565b6101e9565b005b6100d960048036038101906100d49190610e1f565b61038a565b6040516100e69190611199565b60405180910390f35b61010960048036038101906101049190610eb4565b6103aa565b604051610117929190611170565b60405180910390f35b61013a60048036038101906101359190610e1f565b610424565b005b610144610583565b005b610160600480360381019061015b9190610e1f565b6106bd565b005b61017c60048036038101906101779190610e48565b61081e565b005b61019860048036038101906101939190610eb4565b610a55565b6040516101a6929190611170565b60405180910390f35b6101b7610ae5565b6040516101c49190611155565b60405180910390f35b6101e760048036038101906101e29190610e1f565b610b0e565b005b600160003373ffffffffffffffffffffffffffffffffffffffff1673ffffffffffffffffffffffffffffffffffffffff16815260200190815260200160002060009054906101000a900460ff16610275576040517f08c379a000000000000000000000000000000000000000000000000000000000815260040161026c906111d4565b60405180910390fd5b600073ffffffffffffffffffffffffffffffffffffffff1660028360405161029d919061113e565b908152602001604051809103902060000160009054906101000a900473ffffffffffffffffffffffffffffffffffffffff1673ffffffffffffffffffffffffffffffffffffffff161415610326576040517f08c379a000000000000000000000000000000000000000000000000000000000815260040161031d90611234565b60405180910390fd5b80600283604051610337919061113e565b908152602001604051809103902060010160006101000a81548173ffffffffffffffffffffffffffffffffffffffff021916908373ffffffffffffffffffffffffffffffffffffffff1602179055505050565b60016020528060005260406000206000915054906101000a900460ff1681565b6002818051602081018201805184825260208301602085012081835280955050505050506000915090508060000160009054906101000a900473ffffffffffffffffffffffffffffffffffffffff16908060010160009054906101000a900473ffffffffffffffffffffffffffffffffffffffff16905082565b61042c610cb7565b73ffffffffffffffffffffffffffffffffffffffff1661044a610ae5565b73ffffffffffffffffffffffffffffffffffffffff16146104a0576040517f08c379a000000000000000000000000000000000000000000000000000000000815260040161049790611254565b60405180910390fd5b600160008273ffffffffffffffffffffffffffffffffffffffff1673ffffffffffffffffffffffffffffffffffffffff16815260200190815260200160002060009054906101000a900460ff166105805760018060008373ffffffffffffffffffffffffffffffffffffffff1673ffffffffffffffffffffffffffffffffffffffff16815260200190815260200160002060006101000a81548160ff0219169083151502179055507f5b6a420b639feabfb011a07742a6ae14ef72f35d1a330ed65f42216c95bc6c2e816040516105779190611155565b60405180910390a15b50565b61058b610cb7565b73ffffffffffffffffffffffffffffffffffffffff166105a9610ae5565b73ffffffffffffffffffffffffffffffffffffffff16146105ff576040517f08c379a00000000000000000000000000000000000000000000000000000000081526004016105f690611254565b60405180910390fd5b600073ffffffffffffffffffffffffffffffffffffffff1660008054906101000a900473ffffffffffffffffffffffffffffffffffffffff1673ffffffffffffffffffffffffffffffffffffffff167f8be0079c531659141344cd1fd0a4f28419497f9722a3daafe3b4186f6b6457e060405160405180910390a360008060006101000a81548173ffffffffffffffffffffffffffffffffffffffff021916908373ffffffffffffffffffffffffffffffffffffffff160217905550565b6106c5610cb7565b73ffffffffffffffffffffffffffffffffffffffff166106e3610ae5565b73ffffffffffffffffffffffffffffffffffffffff1614610739576040517f08c379a000000000000000000000000000000000000000000000000000000000815260040161073090611254565b60405180910390fd5b600160008273ffffffffffffffffffffffffffffffffffffffff1673ffffffffffffffffffffffffffffffffffffffff16815260200190815260200160002060009054906101000a900460ff161561081b576000600160008373ffffffffffffffffffffffffffffffffffffffff1673ffffffffffffffffffffffffffffffffffffffff16815260200190815260200160002060006101000a81548160ff0219169083151502179055507fa5f3b7626fd86ff989f1d22cf3d41d74591ea6eb99241079400b0c332a9a8f11816040516108129190611155565b60405180910390a15b50565b600160003373ffffffffffffffffffffffffffffffffffffffff1673ffffffffffffffffffffffffffffffffffffffff16815260200190815260200160002060009054906101000a900460ff166108aa576040517f08c379a00000000000000000000000000000000000000000000000000000000081526004016108a1906111d4565b60405180910390fd5b80518251146108ee576040517f08c379a00000000000000000000000000000000000000000000000000000000081526004016108e590611214565b60405180910390fd5b60005b8251811015610a5057600073ffffffffffffffffffffffffffffffffffffffff16600284838151811061092057fe5b6020026020010151604051610935919061113e565b908152602001604051809103902060000160009054906101000a900473ffffffffffffffffffffffffffffffffffffffff1673ffffffffffffffffffffffffffffffffffffffff16146109bd576040517f08c379a00000000000000000000000000000000000000000000000000000000081526004016109b4906111f4565b60405180910390fd5b8181815181106109c957fe5b602002602001015160028483815181106109df57fe5b60200260200101516040516109f4919061113e565b908152602001604051809103902060000160006101000a81548173ffffffffffffffffffffffffffffffffffffffff021916908373ffffffffffffffffffffffffffffffffffffffff16021790555080806001019150506108f1565b505050565b600080600283604051610a68919061113e565b908152602001604051809103902060000160009054906101000a900473ffffffffffffffffffffffffffffffffffffffff16600284604051610aaa919061113e565b908152602001604051809103902060010160009054906101000a900473ffffffffffffffffffffffffffffffffffffffff1691509150915091565b60008060009054906101000a900473ffffffffffffffffffffffffffffffffffffffff16905090565b610b16610cb7565b73ffffffffffffffffffffffffffffffffffffffff16610b34610ae5565b73ffffffffffffffffffffffffffffffffffffffff1614610b8a576040517f08c379a0000000000000000000000000000000000000000000000000000000008152600401610b8190611254565b60405180910390fd5b600073ffffffffffffffffffffffffffffffffffffffff168173ffffffffffffffffffffffffffffffffffffffff161415610bfa576040517f08c379a0000000000000000000000000000000000000000000000000000000008152600401610bf1906111b4565b60405180910390fd5b8073ffffffffffffffffffffffffffffffffffffffff1660008054906101000a900473ffffffffffffffffffffffffffffffffffffffff1673ffffffffffffffffffffffffffffffffffffffff167f8be0079c531659141344cd1fd0a4f28419497f9722a3daafe3b4186f6b6457e060405160405180910390a3806000806101000a81548173ffffffffffffffffffffffffffffffffffffffff021916908373ffffffffffffffffffffffffffffffffffffffff16021790555050565b600033905090565b600081359050610cce816113d6565b92915050565b600082601f830112610ce557600080fd5b8135610cf8610cf3826112a5565b611274565b91508181835260208401935060208101905083856020840282011115610d1d57600080fd5b60005b83811015610d4d5781610d338882610cbf565b845260208401935060208301925050600181019050610d20565b5050505092915050565b600082601f830112610d6857600080fd5b8135610d7b610d76826112d1565b611274565b9150818183526020840193506020810190508360005b83811015610dc15781358601610da78882610dcb565b845260208401935060208301925050600181019050610d91565b5050505092915050565b600082601f830112610ddc57600080fd5b8135610def610dea826112fd565b611274565b91508082526020830160208301858383011115610e0b57600080fd5b610e16838284611392565b50505092915050565b600060208284031215610e3157600080fd5b6000610e3f84828501610cbf565b91505092915050565b60008060408385031215610e5b57600080fd5b600083013567ffffffffffffffff811115610e7557600080fd5b610e8185828601610d57565b925050602083013567ffffffffffffffff811115610e9e57600080fd5b610eaa85828601610cd4565b9150509250929050565b600060208284031215610ec657600080fd5b600082013567ffffffffffffffff811115610ee057600080fd5b610eec84828501610dcb565b91505092915050565b60008060408385031215610f0857600080fd5b600083013567ffffffffffffffff811115610f2257600080fd5b610f2e85828601610dcb565b9250506020610f3f85828601610cbf565b9150509250929050565b610f5281611354565b82525050565b610f6181611366565b82525050565b6000610f728261132d565b610f7c8185611349565b9350610f8c8185602086016113a1565b80840191505092915050565b6000610fa5602683611338565b91507f4f776e61626c653a206e6577206f776e657220697320746865207a65726f206160008301527f64647265737300000000000000000000000000000000000000000000000000006020830152604082019050919050565b600061100b601a83611338565b91507f63616c6c6572206973206e6f7420746865206f70657261746f720000000000006000830152602082019050919050565b600061104b601683611338565b91507f64657669636520616c72656164792073686970706564000000000000000000006000830152602082019050919050565b600061108b601583611338565b91507f6172726179206c656e677468206d69736d6174636800000000000000000000006000830152602082019050919050565b60006110cb600c83611338565b91507f696e76616c696420696d656900000000000000000000000000000000000000006000830152602082019050919050565b600061110b602083611338565b91507f4f776e61626c653a2063616c6c6572206973206e6f7420746865206f776e65726000830152602082019050919050565b600061114a8284610f67565b915081905092915050565b600060208201905061116a6000830184610f49565b92915050565b60006040820190506111856000830185610f49565b6111926020830184610f49565b9392505050565b60006020820190506111ae6000830184610f58565b92915050565b600060208201905081810360008301526111cd81610f98565b9050919050565b600060208201905081810360008301526111ed81610ffe565b9050919050565b6000602082019050818103600083015261120d8161103e565b9050919050565b6000602082019050818103600083015261122d8161107e565b9050919050565b6000602082019050818103600083015261124d816110be565b9050919050565b6000602082019050818103600083015261126d816110fe565b9050919050565b6000604051905081810181811067ffffffffffffffff8211171561129b5761129a6113d4565b5b8060405250919050565b600067ffffffffffffffff8211156112c0576112bf6113d4565b5b602082029050602081019050919050565b600067ffffffffffffffff8211156112ec576112eb6113d4565b5b602082029050602081019050919050565b600067ffffffffffffffff821115611318576113176113d4565b5b601f19601f8301169050602081019050919050565b600081519050919050565b600082825260208201905092915050565b600081905092915050565b600061135f82611372565b9050919050565b60008115159050919050565b600073ffffffffffffffffffffffffffffffffffffffff82169050919050565b82818337600083830152505050565b60005b838110156113bf5780820151818401526020810190506113a4565b838111156113ce576000848401525b50505050565bfe5b6113df81611354565b81146113ea57600080fd5b5056fea26469706673582212208db0094b02ada160952d6bb909e0c30d5d557b30006e407c5222eebe53e69a4064736f6c63430007030033",
  "linkReferences": {},
  "deployedLinkReferences": {}
}