{
  "_format": "hh-sol-artifact-1",
  "contractName": "LootStash",
  "sourceName": "contracts/LootStash.sol",
  "abi": [
    {
      "inputs": [
        {
          "internalType": "contract PebbleToken",
          "name": "_pbl",
          "type": "address"
        },
        {
          "internalType": "contract DatapointLoot",
          "name": "_pNFT",
          "type": "address"
        },
        {
          "internalType": "uint256",
          "name": "_pblPerBlock",
          "type": "uint256"
        },
        {
          "internalType": "address payable",
          "name": "_feeAddress",
          "type": "address"
        }
      ],
      "stateMutability": "nonpayable",
      "type": "constructor"
    },
    {
      "anonymous": false,
      "inputs": [
        {
          "indexed": true,
          "internalType": "address",
          "name": "user",
          "type": "address"
        },
        {
          "indexed": true,
          "internalType": "uint256",
          "name": "tokenId",
          "type": "uint256"
        },
        {
          "indexed": false,
          "internalType": "uint256",
          "name": "digPower",
          "type": "uint256"
        }
      ],
      "name": "Deposit",
      "type": "event"
    },
    {
      "anonymous": false,
      "inputs": [
        {
          "indexed": true,
          "internalType": "address",
          "name": "previousOwner",
          "type": "address"
        },
        {
          "indexed": true,
          "internalType": "address",
          "name": "newOwner",
          "type": "address"
        }
      ],
      "name": "OwnershipTransferred",
      "type": "event"
    },
    {
      "anonymous": false,
      "inputs": [
        {
          "indexed": true,
          "internalType": "address",
          "name": "user",
          "type": "address"
        },
        {
          "indexed": true,
          "internalType": "uint256",
          "name": "tokenId",
          "type": "uint256"
        }
      ],
      "name": "Withdraw",
      "type": "event"
    },
    {
      "inputs": [],
      "name": "accPblPerHashPowerUnit",
      "outputs": [
        {
          "internalType": "uint256",
          "name": "",
          "type": "uint256"
        }
      ],
      "stateMutability": "view",
      "type": "function"
    },
    {
      "inputs": [
        {
          "internalType": "uint256",
          "name": "_tokenId",
          "type": "uint256"
        }
      ],
      "name": "deposit",
      "outputs": [],
      "stateMutability": "nonpayable",
      "type": "function"
    },
    {
      "inputs": [],
      "name": "feeAddress",
      "outputs": [
        {
          "internalType": "address payable",
          "name": "",
          "type": "address"
        }
      ],
      "stateMutability": "view",
      "type": "function"
    },
    {
      "inputs": [],
      "name": "getTokenIds",
      "outputs": [
        {
          "internalType": "uint256[]",
          "name": "",
          "type": "uint256[]"
        }
      ],
      "stateMutability": "view",
      "type": "function"
    },
    {
      "inputs": [],
      "name": "lastRewardBlock",
      "outputs": [
        {
          "internalType": "uint256",
          "name": "",
          "type": "uint256"
        }
      ],
      "stateMutability": "view",
      "type": "function"
    },
    {
      "inputs": [
        {
          "internalType": "address",
          "name": "",
          "type": "address"
        },
        {
          "internalType": "address",
          "name": "",
          "type": "address"
        },
        {
          "internalType": "uint256",
          "name": "",
          "type": "uint256"
        },
        {
          "internalType": "bytes",
          "name": "",
          "type": "bytes"
        }
      ],
      "name": "onERC721Received",
      "outputs": [
        {
          "internalType": "bytes4",
          "name": "",
          "type": "bytes4"
        }
      ],
      "stateMutability": "pure",
      "type": "function"
    },
    {
      "inputs": [],
      "name": "owner",
      "outputs": [
        {
          "internalType": "address",
          "name": "",
          "type": "address"
        }
      ],
      "stateMutability": "view",
      "type": "function"
    },
    {
      "inputs": [],
      "name": "pNFT",
      "outputs": [
        {
          "internalType": "contract DatapointLoot",
          "name": "",
          "type": "address"
        }
      ],
      "stateMutability": "view",
      "type": "function"
    },
    {
      "inputs": [],
      "name": "pbl",
      "outputs": [
        {
          "internalType": "contract PebbleToken",
          "name": "",
          "type": "address"
        }
      ],
      "stateMutability": "view",
      "type": "function"
    },
    {
      "inputs": [],
      "name": "pblPerBlock",
      "outputs": [
        {
          "internalType": "uint256",
          "name": "",
          "type": "uint256"
        }
      ],
      "stateMutability": "view",
      "type": "function"
    },
    {
      "inputs": [
        {
          "internalType": "address",
          "name": "_user",
          "type": "address"
        }
      ],
      "name": "pendingPbl",
      "outputs": [
        {
          "internalType": "uint256",
          "name": "pending",
          "type": "uint256"
        }
      ],
      "stateMutability": "view",
      "type": "function"
    },
    {
      "inputs": [],
      "name": "renounceOwnership",
      "outputs": [],
      "stateMutability": "nonpayable",
      "type": "function"
    },
    {
      "inputs": [],
      "name": "totalHashPower",
      "outputs": [
        {
          "internalType": "uint256",
          "name": "",
          "type": "uint256"
        }
      ],
      "stateMutability": "view",
      "type": "function"
    },
    {
      "inputs": [
        {
          "internalType": "address",
          "name": "newOwner",
          "type": "address"
        }
      ],
      "name": "transferOwnership",
      "outputs": [],
      "stateMutability": "nonpayable",
      "type": "function"
    },
    {
      "inputs": [
        {
          "internalType": "contract DatapointLoot",
          "name": "_pNFT",
          "type": "address"
        }
      ],
      "name": "updateNftAddress",
      "outputs": [],
      "stateMutability": "nonpayable",
      "type": "function"
    },
    {
      "inputs": [
        {
          "internalType": "contract PebbleToken",
          "name": "_pbl",
          "type": "address"
        }
      ],
      "name": "updatePBL",
      "outputs": [],
      "stateMutability": "nonpayable",
      "type": "function"
    },
    {
      "inputs": [],
      "name": "updatePool",
      "outputs": [],
      "stateMutability": "nonpayable",
      "type": "function"
    },
    {
      "inputs": [
        {
          "internalType": "address",
          "name": "",
          "type": "address"
        }
      ],
      "name": "userInfo",
      "outputs": [
        {
          "internalType": "uint256",
          "name": "hashPower",
          "type": "uint256"
        },
        {
          "internalType": "uint256",
          "name": "numOfTokens",
          "type": "uint256"
        },
        {
          "internalType": "uint256",
          "name": "rewardDebt",
          "type": "uint256"
        }
      ],
      "stateMutability": "view",
      "type": "function"
    },
    {
      "inputs": [
        {
          "internalType": "uint256",
          "name": "_tokenId",
          "type": "uint256"
        }
      ],
      "name": "withdraw",
      "outputs": [],
      "stateMutability": "nonpayable",
      "type": "function"
    }
  ],
  "bytecode": "0x60806040523480156200001157600080fd5b50604051620022a3380380620022a3833981810160405281019062000037919062000271565b620000576200004b6200014960201b60201c565b6200015160201b60201c565b6001808190555083600260006101000a81548173ffffffffffffffffffffffffffffffffffffffff021916908373ffffffffffffffffffffffffffffffffffffffff16021790555082600360006101000a81548173ffffffffffffffffffffffffffffffffffffffff021916908373ffffffffffffffffffffffffffffffffffffffff1602179055508160048190555080600660006101000a81548173ffffffffffffffffffffffffffffffffffffffff021916908373ffffffffffffffffffffffffffffffffffffffff160217905550600060078190555060006008819055504360098190555050505050620003bf565b600033905090565b60008060009054906101000a900473ffffffffffffffffffffffffffffffffffffffff169050816000806101000a81548173ffffffffffffffffffffffffffffffffffffffff021916908373ffffffffffffffffffffffffffffffffffffffff1602179055508173ffffffffffffffffffffffffffffffffffffffff168173ffffffffffffffffffffffffffffffffffffffff167f8be0079c531659141344cd1fd0a4f28419497f9722a3daafe3b4186f6b6457e060405160405180910390a35050565b600081519050620002268162000357565b92915050565b6000815190506200023d8162000371565b92915050565b60008151905062000254816200038b565b92915050565b6000815190506200026b81620003a5565b92915050565b600080600080608085870312156200028857600080fd5b6000620002988782880162000243565b9450506020620002ab878288016200022c565b9350506040620002be878288016200025a565b9250506060620002d18782880162000215565b91505092959194509250565b6000620002ea826200032d565b9050919050565b6000620002fe826200032d565b9050919050565b60006200031282620002dd565b9050919050565b60006200032682620002dd565b9050919050565b600073ffffffffffffffffffffffffffffffffffffffff82169050919050565b6000819050919050565b6200036281620002f1565b81146200036e57600080fd5b50565b6200037c8162000305565b81146200038857600080fd5b50565b620003968162000319565b8114620003a257600080fd5b50565b620003b0816200034d565b8114620003bc57600080fd5b50565b611ed480620003cf6000396000f3fe608060405234801561001057600080fd5b50600436106101215760003560e01c806372f7caa2116100ad578063dfbac66d11610071578063dfbac66d146102ea578063e3161ddd14610306578063e5eb7ae814610310578063f2fde38b1461032c578063fd6ecc6e1461034857610121565b806372f7caa2146102565780638a64b8bf146102745780638da5cb5b14610292578063a9f8d181146102b0578063b6b55f25146102ce57610121565b806341275358116100f457806341275358146101d4578063443ddfd9146101f257806348083bba1461021057806367f718a91461022e578063715018a61461024c57610121565b8063085c25f614610126578063150b7a02146101565780631959a002146101865780632e1a7d4d146101b8575b600080fd5b610140600480360381019061013b9190611524565b610366565b60405161014d91906119c6565b60405180910390f35b610170600480360381019061016b9190611576565b6103f8565b60405161017d91906118f5565b60405180910390f35b6101a0600480360381019061019b9190611524565b61040d565b6040516101af939291906119e1565b60405180910390f35b6101d260048036038101906101cd9190611671565b610437565b005b6101dc6107e7565b6040516101e99190611858565b60405180910390f35b6101fa61080d565b60405161020791906119c6565b60405180910390f35b610218610813565b604051610225919061192b565b60405180910390f35b610236610839565b60405161024391906118d3565b60405180910390f35b6102546109da565b005b61025e610a62565b60405161026b91906119c6565b60405180910390f35b61027c610a68565b60405161028991906119c6565b60405180910390f35b61029a610a6e565b6040516102a7919061183d565b60405180910390f35b6102b8610a97565b6040516102c591906119c6565b60405180910390f35b6102e860048036038101906102e39190611671565b610a9d565b005b61030460048036038101906102ff9190611648565b610fd6565b005b61030e611096565b005b61032a6004803603810190610325919061161f565b611128565b005b61034660048036038101906103419190611524565b6111e8565b005b6103506112e0565b60405161035d9190611910565b60405180910390f35b600080600560008473ffffffffffffffffffffffffffffffffffffffff1673ffffffffffffffffffffffffffffffffffffffff16815260200190815260200160002090506103f081600301546103e264e8d4a510006103d4600754866000015461130690919063ffffffff16565b61131c90919063ffffffff16565b61133290919063ffffffff16565b915050919050565b600063150b7a0260e01b905095945050505050565b60056020528060005260406000206000915090508060000154908060010154908060030154905083565b600060056000610445611348565b73ffffffffffffffffffffffffffffffffffffffff1673ffffffffffffffffffffffffffffffffffffffff168152602001908152602001600020905080600201600083815260200190815260200160002060009054906101000a900460ff166104e3576040517f08c379a00000000000000000000000000000000000000000000000000000000081526004016104da906119a6565b60405180910390fd5b6104eb611096565b60006104fd6104f8611348565b610366565b9050600260009054906101000a900473ffffffffffffffffffffffffffffffffffffffff1673ffffffffffffffffffffffffffffffffffffffff1663a9059cbb610545611348565b836040518363ffffffff1660e01b81526004016105639291906118aa565b602060405180830381600087803b15801561057d57600080fd5b505af1158015610591573d6000803e3d6000fd5b505050506040513d601f19601f820116820180604052508101906105b591906115f6565b506105ce6001836001015461133290919063ffffffff16565b826001018190555081600201600084815260200190815260200160002060006101000a81549060ff02191690556106bf600360009054906101000a900473ffffffffffffffffffffffffffffffffffffffff1673ffffffffffffffffffffffffffffffffffffffff16635e3d9df1856040518263ffffffff1660e01b815260040161065991906119c6565b60206040518083038186803b15801561067157600080fd5b505afa158015610685573d6000803e3d6000fd5b505050506040513d601f19601f820116820180604052508101906106a9919061169a565b60ff16836000015461133290919063ffffffff16565b82600001819055506106f764e8d4a510006106e9600754856000015461130690919063ffffffff16565b61131c90919063ffffffff16565b8260030181905550600360009054906101000a900473ffffffffffffffffffffffffffffffffffffffff1673ffffffffffffffffffffffffffffffffffffffff166342842e0e30610746611348565b866040518463ffffffff1660e01b815260040161076593929190611873565b600060405180830381600087803b15801561077f57600080fd5b505af1158015610793573d6000803e3d6000fd5b50505050826107a0611348565b73ffffffffffffffffffffffffffffffffffffffff167f884edad9ce6fa2440d8a54cc123490eb96d2768479d49ff9c7366125a942436460405160405180910390a3505050565b600660009054906101000a900473ffffffffffffffffffffffffffffffffffffffff1681565b60075481565b600260009054906101000a900473ffffffffffffffffffffffffffffffffffffffff1681565b60606000806005600061084a611348565b73ffffffffffffffffffffffffffffffffffffffff1673ffffffffffffffffffffffffffffffffffffffff16815260200190815260200160002090506000816001015467ffffffffffffffff8111156108cc577f4e487b7100000000000000000000000000000000000000000000000000000000600052604160045260246000fd5b6040519080825280602002602001820160405280156108fa5781602001602082028036833780820191505090505b50905060005b7fffffffffffffffffffffffffffffffffffffffffffffffffffffffffffffffff8110156109d05782600101548410610938576109d0565b82600201600082815260200190815260200160002060009054906101000a900460ff16156109bd578082858151811061099a577f4e487b7100000000000000000000000000000000000000000000000000000000600052603260045260246000fd5b6020026020010181815250506109ba60018561135090919063ffffffff16565b93505b80806109c890611ca3565b915050610900565b5080935050505090565b6109e2611348565b73ffffffffffffffffffffffffffffffffffffffff16610a00610a6e565b73ffffffffffffffffffffffffffffffffffffffff1614610a56576040517f08c379a0000000000000000000000000000000000000000000000000000000008152600401610a4d90611986565b60405180910390fd5b610a606000611366565b565b60085481565b60045481565b60008060009054906101000a900473ffffffffffffffffffffffffffffffffffffffff16905090565b60095481565b610aa5611348565b73ffffffffffffffffffffffffffffffffffffffff16600360009054906101000a900473ffffffffffffffffffffffffffffffffffffffff1673ffffffffffffffffffffffffffffffffffffffff16636352211e836040518263ffffffff1660e01b8152600401610b1691906119c6565b60206040518083038186803b158015610b2e57600080fd5b505afa158015610b42573d6000803e3d6000fd5b505050506040513d601f19601f82011682018060405250810190610b66919061154d565b73ffffffffffffffffffffffffffffffffffffffff1614610bbc576040517f08c379a0000000000000000000000000000000000000000000000000000000008152600401610bb390611966565b60405180910390fd5b610bc4611096565b600060056000610bd2611348565b73ffffffffffffffffffffffffffffffffffffffff1673ffffffffffffffffffffffffffffffffffffffff1681526020019081526020016000209050600081600001541115610ce8576000610c2d610c28611348565b610366565b9050600260009054906101000a900473ffffffffffffffffffffffffffffffffffffffff1673ffffffffffffffffffffffffffffffffffffffff1663a9059cbb610c75611348565b836040518363ffffffff1660e01b8152600401610c939291906118aa565b602060405180830381600087803b158015610cad57600080fd5b505af1158015610cc1573d6000803e3d6000fd5b505050506040513d601f19601f82011682018060405250810190610ce591906115f6565b50505b600360009054906101000a900473ffffffffffffffffffffffffffffffffffffffff1673ffffffffffffffffffffffffffffffffffffffff166342842e0e610d2e611348565b30856040518463ffffffff1660e01b8152600401610d4e93929190611873565b600060405180830381600087803b158015610d6857600080fd5b505af1158015610d7c573d6000803e3d6000fd5b50505050610d986001826001015461135090919063ffffffff16565b8160010181905550600181600201600084815260200190815260200160002060006101000a81548160ff021916908315150217905550610e92600360009054906101000a900473ffffffffffffffffffffffffffffffffffffffff1673ffffffffffffffffffffffffffffffffffffffff16635e3d9df1846040518263ffffffff1660e01b8152600401610e2c91906119c6565b60206040518083038186803b158015610e4457600080fd5b505afa158015610e58573d6000803e3d6000fd5b505050506040513d601f19601f82011682018060405250810190610e7c919061169a565b60ff16826000015461135090919063ffffffff16565b8160000181905550610eca64e8d4a51000610ebc600754846000015461130690919063ffffffff16565b61131c90919063ffffffff16565b816003018190555081610edb611348565b73ffffffffffffffffffffffffffffffffffffffff167f90890809c654f11d6e72a28fa60149770a0d11ec6c92319d6ceb2bb0a4ea1a15600360009054906101000a900473ffffffffffffffffffffffffffffffffffffffff1673ffffffffffffffffffffffffffffffffffffffff16635e3d9df1866040518263ffffffff1660e01b8152600401610f6d91906119c6565b60206040518083038186803b158015610f8557600080fd5b505afa158015610f99573d6000803e3d6000fd5b505050506040513d601f19601f82011682018060405250810190610fbd919061169a565b604051610fca9190611a18565b60405180910390a35050565b610fde611348565b73ffffffffffffffffffffffffffffffffffffffff16610ffc610a6e565b73ffffffffffffffffffffffffffffffffffffffff1614611052576040517f08c379a000000000000000000000000000000000000000000000000000000000815260040161104990611986565b60405180910390fd5b80600260006101000a81548173ffffffffffffffffffffffffffffffffffffffff021916908373ffffffffffffffffffffffffffffffffffffffff16021790555050565b600060085414156110ad5743600981905550611126565b60006110bb6009544361142a565b905060006110d46004548361130690919063ffffffff16565b90506111166111056008546110f764e8d4a510008561130690919063ffffffff16565b61131c90919063ffffffff16565b60075461135090919063ffffffff16565b6007819055504360098190555050505b565b611130611348565b73ffffffffffffffffffffffffffffffffffffffff1661114e610a6e565b73ffffffffffffffffffffffffffffffffffffffff16146111a4576040517f08c379a000000000000000000000000000000000000000000000000000000000815260040161119b90611986565b60405180910390fd5b80600360006101000a81548173ffffffffffffffffffffffffffffffffffffffff021916908373ffffffffffffffffffffffffffffffffffffffff16021790555050565b6111f0611348565b73ffffffffffffffffffffffffffffffffffffffff1661120e610a6e565b73ffffffffffffffffffffffffffffffffffffffff1614611264576040517f08c379a000000000000000000000000000000000000000000000000000000000815260040161125b90611986565b60405180910390fd5b600073ffffffffffffffffffffffffffffffffffffffff168173ffffffffffffffffffffffffffffffffffffffff1614156112d4576040517f08c379a00000000000000000000000000000000000000000000000000000000081526004016112cb90611946565b60405180910390fd5b6112dd81611366565b50565b600360009054906101000a900473ffffffffffffffffffffffffffffffffffffffff1681565b600081836113149190611b04565b905092915050565b6000818361132a9190611ad3565b905092915050565b600081836113409190611b5e565b905092915050565b600033905090565b6000818361135e9190611a7d565b905092915050565b60008060009054906101000a900473ffffffffffffffffffffffffffffffffffffffff169050816000806101000a81548173ffffffffffffffffffffffffffffffffffffffff021916908373ffffffffffffffffffffffffffffffffffffffff1602179055508173ffffffffffffffffffffffffffffffffffffffff168173ffffffffffffffffffffffffffffffffffffffff167f8be0079c531659141344cd1fd0a4f28419497f9722a3daafe3b4186f6b6457e060405160405180910390a35050565b600061143f838361133290919063ffffffff16565b905092915050565b60008135905061145681611e14565b92915050565b60008151905061146b81611e14565b92915050565b60008151905061148081611e2b565b92915050565b60008083601f84011261149857600080fd5b8235905067ffffffffffffffff8111156114b157600080fd5b6020830191508360018202830111156114c957600080fd5b9250929050565b6000813590506114df81611e42565b92915050565b6000813590506114f481611e59565b92915050565b60008135905061150981611e70565b92915050565b60008151905061151e81611e87565b92915050565b60006020828403121561153657600080fd5b600061154484828501611447565b91505092915050565b60006020828403121561155f57600080fd5b600061156d8482850161145c565b91505092915050565b60008060008060006080868803121561158e57600080fd5b600061159c88828901611447565b95505060206115ad88828901611447565b94505060406115be888289016114fa565b935050606086013567ffffffffffffffff8111156115db57600080fd5b6115e788828901611486565b92509250509295509295909350565b60006020828403121561160857600080fd5b600061161684828501611471565b91505092915050565b60006020828403121561163157600080fd5b600061163f848285016114d0565b91505092915050565b60006020828403121561165a57600080fd5b6000611668848285016114e5565b91505092915050565b60006020828403121561168357600080fd5b6000611691848285016114fa565b91505092915050565b6000602082840312156116ac57600080fd5b60006116ba8482850161150f565b91505092915050565b60006116cf8383611810565b60208301905092915050565b6116e481611ba4565b82525050565b6116f381611b92565b82525050565b600061170482611a43565b61170e8185611a5b565b935061171983611a33565b8060005b8381101561174a57815161173188826116c3565b975061173c83611a4e565b92505060018101905061171d565b5085935050505092915050565b61176081611bc2565b82525050565b61176f81611c49565b82525050565b61177e81611c6d565b82525050565b6000611791602683611a6c565b915061179c82611d4a565b604082019050919050565b60006117b4601883611a6c565b91506117bf82611d99565b602082019050919050565b60006117d7602083611a6c565b91506117e282611dc2565b602082019050919050565b60006117fa601283611a6c565b915061180582611deb565b602082019050919050565b61181981611c32565b82525050565b61182881611c32565b82525050565b61183781611c91565b82525050565b600060208201905061185260008301846116ea565b92915050565b600060208201905061186d60008301846116db565b92915050565b600060608201905061188860008301866116ea565b61189560208301856116ea565b6118a2604083018461181f565b949350505050565b60006040820190506118bf60008301856116ea565b6118cc602083018461181f565b9392505050565b600060208201905081810360008301526118ed81846116f9565b905092915050565b600060208201905061190a6000830184611757565b92915050565b60006020820190506119256000830184611766565b92915050565b60006020820190506119406000830184611775565b92915050565b6000602082019050818103600083015261195f81611784565b9050919050565b6000602082019050818103600083015261197f816117a7565b9050919050565b6000602082019050818103600083015261199f816117ca565b9050919050565b600060208201905081810360008301526119bf816117ed565b9050919050565b60006020820190506119db600083018461181f565b92915050565b60006060820190506119f6600083018661181f565b611a03602083018561181f565b611a10604083018461181f565b949350505050565b6000602082019050611a2d600083018461182e565b92915050565b6000819050602082019050919050565b600081519050919050565b6000602082019050919050565b600082825260208201905092915050565b600082825260208201905092915050565b6000611a8882611c32565b9150611a9383611c32565b9250827fffffffffffffffffffffffffffffffffffffffffffffffffffffffffffffffff03821115611ac857611ac7611cec565b5b828201905092915050565b6000611ade82611c32565b9150611ae983611c32565b925082611af957611af8611d1b565b5b828204905092915050565b6000611b0f82611c32565b9150611b1a83611c32565b9250817fffffffffffffffffffffffffffffffffffffffffffffffffffffffffffffffff0483118215151615611b5357611b52611cec565b5b828202905092915050565b6000611b6982611c32565b9150611b7483611c32565b925082821015611b8757611b86611cec565b5b828203905092915050565b6000611b9d82611c12565b9050919050565b6000611baf82611c12565b9050919050565b60008115159050919050565b60007fffffffff0000000000000000000000000000000000000000000000000000000082169050919050565b6000611bf982611b92565b9050919050565b6000611c0b82611b92565b9050919050565b600073ffffffffffffffffffffffffffffffffffffffff82169050919050565b6000819050919050565b600060ff82169050919050565b6000611c5482611c5b565b9050919050565b6000611c6682611c12565b9050919050565b6000611c7882611c7f565b9050919050565b6000611c8a82611c12565b9050919050565b6000611c9c82611c3c565b9050919050565b6000611cae82611c32565b91507fffffffffffffffffffffffffffffffffffffffffffffffffffffffffffffffff821415611ce157611ce0611cec565b5b600182019050919050565b7f4e487b7100000000000000000000000000000000000000000000000000000000600052601160045260246000fd5b7f4e487b7100000000000000000000000000000000000000000000000000000000600052601260045260246000fd5b7f4f776e61626c653a206e6577206f776e657220697320746865207a65726f206160008201527f6464726573730000000000000000000000000000000000000000000000000000602082015250565b7f4465706f7369743a206e6f74206f776e696e67206974656d0000000000000000600082015250565b7f4f776e61626c653a2063616c6c6572206973206e6f7420746865206f776e6572600082015250565b7f57697468647261773a206e6f7420676f6f640000000000000000000000000000600082015250565b611e1d81611b92565b8114611e2857600080fd5b50565b611e3481611bb6565b8114611e3f57600080fd5b50565b611e4b81611bee565b8114611e5657600080fd5b50565b611e6281611c00565b8114611e6d57600080fd5b50565b611e7981611c32565b8114611e8457600080fd5b50565b611e9081611c3c565b8114611e9b57600080fd5b5056fea264697066735822122049d20c631410d2d522efc73a0b7705f01e1394915d4ef5bcbf15b46bfe9649c864736f6c63430008040033",
  "linkReferences": {},
  "deployedLinkReferences": {}
}