{
  "_format": "hh-sol-artifact-1",
  "contractName": "LootStash",
  "sourceName": "contracts/LootStash.sol",
  "abi": [
    {
      "inputs": [
        {
          "internalType": "contract PebbleToken",
          "name": "_pbl",
          "type": "address"
        },
        {
          "internalType": "contract DatapointLoot",
          "name": "_pNFT",
          "type": "address"
        },
        {
          "internalType": "uint256",
          "name": "_pblPerBlock",
          "type": "uint256"
        },
        {
          "internalType": "address payable",
          "name": "_feeAddress",
          "type": "address"
        }
      ],
      "stateMutability": "nonpayable",
      "type": "constructor"
    },
    {
      "anonymous": false,
      "inputs": [
        {
          "indexed": true,
          "internalType": "address",
          "name": "user",
          "type": "address"
        },
        {
          "indexed": true,
          "internalType": "uint256",
          "name": "tokenId",
          "type": "uint256"
        },
        {
          "indexed": false,
          "internalType": "uint256",
          "name": "digPower",
          "type": "uint256"
        }
      ],
      "name": "Deposit",
      "type": "event"
    },
    {
      "anonymous": false,
      "inputs": [
        {
          "indexed": true,
          "internalType": "address",
          "name": "previousOwner",
          "type": "address"
        },
        {
          "indexed": true,
          "internalType": "address",
          "name": "newOwner",
          "type": "address"
        }
      ],
      "name": "OwnershipTransferred",
      "type": "event"
    },
    {
      "anonymous": false,
      "inputs": [
        {
          "indexed": true,
          "internalType": "address",
          "name": "user",
          "type": "address"
        },
        {
          "indexed": true,
          "internalType": "uint256",
          "name": "tokenId",
          "type": "uint256"
        }
      ],
      "name": "Withdraw",
      "type": "event"
    },
    {
      "inputs": [],
      "name": "accPblPerHashPowerUnit",
      "outputs": [
        {
          "internalType": "uint256",
          "name": "",
          "type": "uint256"
        }
      ],
      "stateMutability": "view",
      "type": "function"
    },
    {
      "inputs": [],
      "name": "collect",
      "outputs": [],
      "stateMutability": "nonpayable",
      "type": "function"
    },
    {
      "inputs": [
        {
          "internalType": "uint256",
          "name": "_tokenId",
          "type": "uint256"
        }
      ],
      "name": "deposit",
      "outputs": [],
      "stateMutability": "nonpayable",
      "type": "function"
    },
    {
      "inputs": [],
      "name": "feeAddress",
      "outputs": [
        {
          "internalType": "address payable",
          "name": "",
          "type": "address"
        }
      ],
      "stateMutability": "view",
      "type": "function"
    },
    {
      "inputs": [],
      "name": "getTokenIds",
      "outputs": [
        {
          "internalType": "uint256[]",
          "name": "",
          "type": "uint256[]"
        }
      ],
      "stateMutability": "view",
      "type": "function"
    },
    {
      "inputs": [],
      "name": "lastRewardBlock",
      "outputs": [
        {
          "internalType": "uint256",
          "name": "",
          "type": "uint256"
        }
      ],
      "stateMutability": "view",
      "type": "function"
    },
    {
      "inputs": [
        {
          "internalType": "address",
          "name": "",
          "type": "address"
        },
        {
          "internalType": "address",
          "name": "",
          "type": "address"
        },
        {
          "internalType": "uint256",
          "name": "",
          "type": "uint256"
        },
        {
          "internalType": "bytes",
          "name": "",
          "type": "bytes"
        }
      ],
      "name": "onERC721Received",
      "outputs": [
        {
          "internalType": "bytes4",
          "name": "",
          "type": "bytes4"
        }
      ],
      "stateMutability": "pure",
      "type": "function"
    },
    {
      "inputs": [],
      "name": "owner",
      "outputs": [
        {
          "internalType": "address",
          "name": "",
          "type": "address"
        }
      ],
      "stateMutability": "view",
      "type": "function"
    },
    {
      "inputs": [],
      "name": "pNFT",
      "outputs": [
        {
          "internalType": "contract DatapointLoot",
          "name": "",
          "type": "address"
        }
      ],
      "stateMutability": "view",
      "type": "function"
    },
    {
      "inputs": [],
      "name": "pbl",
      "outputs": [
        {
          "internalType": "contract PebbleToken",
          "name": "",
          "type": "address"
        }
      ],
      "stateMutability": "view",
      "type": "function"
    },
    {
      "inputs": [],
      "name": "pblPerBlock",
      "outputs": [
        {
          "internalType": "uint256",
          "name": "",
          "type": "uint256"
        }
      ],
      "stateMutability": "view",
      "type": "function"
    },
    {
      "inputs": [
        {
          "internalType": "address",
          "name": "_user",
          "type": "address"
        }
      ],
      "name": "pendingPbl",
      "outputs": [
        {
          "internalType": "uint256",
          "name": "pending",
          "type": "uint256"
        }
      ],
      "stateMutability": "view",
      "type": "function"
    },
    {
      "inputs": [],
      "name": "renounceOwnership",
      "outputs": [],
      "stateMutability": "nonpayable",
      "type": "function"
    },
    {
      "inputs": [
        {
          "internalType": "uint256",
          "name": "_pblPerBlock",
          "type": "uint256"
        }
      ],
      "name": "setPoolUpdateReward",
      "outputs": [],
      "stateMutability": "nonpayable",
      "type": "function"
    },
    {
      "inputs": [],
      "name": "totalHashPower",
      "outputs": [
        {
          "internalType": "uint256",
          "name": "",
          "type": "uint256"
        }
      ],
      "stateMutability": "view",
      "type": "function"
    },
    {
      "inputs": [
        {
          "internalType": "address",
          "name": "newOwner",
          "type": "address"
        }
      ],
      "name": "transferOwnership",
      "outputs": [],
      "stateMutability": "nonpayable",
      "type": "function"
    },
    {
      "inputs": [
        {
          "internalType": "contract DatapointLoot",
          "name": "_pNFT",
          "type": "address"
        }
      ],
      "name": "updateNftAddress",
      "outputs": [],
      "stateMutability": "nonpayable",
      "type": "function"
    },
    {
      "inputs": [
        {
          "internalType": "contract PebbleToken",
          "name": "_pbl",
          "type": "address"
        }
      ],
      "name": "updatePBL",
      "outputs": [],
      "stateMutability": "nonpayable",
      "type": "function"
    },
    {
      "inputs": [
        {
          "internalType": "uint256",
          "name": "_pblPerBlock",
          "type": "uint256"
        }
      ],
      "name": "updatePblPerBlock",
      "outputs": [],
      "stateMutability": "nonpayable",
      "type": "function"
    },
    {
      "inputs": [],
      "name": "updatePool",
      "outputs": [],
      "stateMutability": "nonpayable",
      "type": "function"
    },
    {
      "inputs": [],
      "name": "updateRewardPblPerBlock",
      "outputs": [
        {
          "internalType": "uint256",
          "name": "",
          "type": "uint256"
        }
      ],
      "stateMutability": "view",
      "type": "function"
    },
    {
      "inputs": [
        {
          "internalType": "address",
          "name": "",
          "type": "address"
        }
      ],
      "name": "userInfo",
      "outputs": [
        {
          "internalType": "uint256",
          "name": "hashPower",
          "type": "uint256"
        },
        {
          "internalType": "uint256",
          "name": "numOfTokens",
          "type": "uint256"
        },
        {
          "internalType": "uint256",
          "name": "rewardDebt",
          "type": "uint256"
        }
      ],
      "stateMutability": "view",
      "type": "function"
    },
    {
      "inputs": [
        {
          "internalType": "uint256",
          "name": "_tokenId",
          "type": "uint256"
        }
      ],
      "name": "withdraw",
      "outputs": [],
      "stateMutability": "nonpayable",
      "type": "function"
    }
  ],
  "bytecode": "0x60806040523480156200001157600080fd5b50604051620029343803806200293483398181016040528101906200003791906200027c565b620000576200004b6200015460201b60201c565b6200015c60201b60201c565b6001808190555083600260006101000a81548173ffffffffffffffffffffffffffffffffffffffff021916908373ffffffffffffffffffffffffffffffffffffffff16021790555082600360006101000a81548173ffffffffffffffffffffffffffffffffffffffff021916908373ffffffffffffffffffffffffffffffffffffffff16021790555081600481905550633b9aca0060058190555080600760006101000a81548173ffffffffffffffffffffffffffffffffffffffff021916908373ffffffffffffffffffffffffffffffffffffffff1602179055506000600881905550600060098190555043600a8190555050505050620003ca565b600033905090565b60008060009054906101000a900473ffffffffffffffffffffffffffffffffffffffff169050816000806101000a81548173ffffffffffffffffffffffffffffffffffffffff021916908373ffffffffffffffffffffffffffffffffffffffff1602179055508173ffffffffffffffffffffffffffffffffffffffff168173ffffffffffffffffffffffffffffffffffffffff167f8be0079c531659141344cd1fd0a4f28419497f9722a3daafe3b4186f6b6457e060405160405180910390a35050565b600081519050620002318162000362565b92915050565b60008151905062000248816200037c565b92915050565b6000815190506200025f8162000396565b92915050565b6000815190506200027681620003b0565b92915050565b600080600080608085870312156200029357600080fd5b6000620002a3878288016200024e565b9450506020620002b68782880162000237565b9350506040620002c98782880162000265565b9250506060620002dc8782880162000220565b91505092959194509250565b6000620002f58262000338565b9050919050565b6000620003098262000338565b9050919050565b60006200031d82620002e8565b9050919050565b60006200033182620002e8565b9050919050565b600073ffffffffffffffffffffffffffffffffffffffff82169050919050565b6000819050919050565b6200036d81620002fc565b81146200037957600080fd5b50565b620003878162000310565b81146200039357600080fd5b50565b620003a18162000324565b8114620003ad57600080fd5b50565b620003bb8162000358565b8114620003c757600080fd5b50565b61255a80620003da6000396000f3fe608060405234801561001057600080fd5b506004361061014d5760003560e01c80638da5cb5b116100c3578063e3161ddd1161007c578063e3161ddd1461036c578063e522538114610376578063e5eb7ae814610380578063ebe1088b1461039c578063f2fde38b146103b8578063fd6ecc6e146103d45761014d565b80638da5cb5b146102be578063a29ee161146102dc578063a9f8d181146102fa578063b6b55f2514610318578063da36fe7814610334578063dfbac66d146103505761014d565b8063443ddfd911610115578063443ddfd91461021e57806348083bba1461023c57806367f718a91461025a578063715018a61461027857806372f7caa2146102825780638a64b8bf146102a05761014d565b8063085c25f614610152578063150b7a02146101825780631959a002146101b25780632e1a7d4d146101e45780634127535814610200575b600080fd5b61016c60048036038101906101679190611aa9565b6103f2565b6040516101799190611ffa565b60405180910390f35b61019c60048036038101906101979190611afb565b610484565b6040516101a99190611ee9565b60405180910390f35b6101cc60048036038101906101c79190611aa9565b610499565b6040516101db93929190612015565b60405180910390f35b6101fe60048036038101906101f99190611bf6565b6104c3565b005b610208610895565b6040516102159190611e4c565b60405180910390f35b6102266108bb565b6040516102339190611ffa565b60405180910390f35b6102446108c1565b6040516102519190611f1f565b60405180910390f35b6102626108e7565b60405161026f9190611ec7565b60405180910390f35b610280610a88565b005b61028a610b10565b6040516102979190611ffa565b60405180910390f35b6102a8610b16565b6040516102b59190611ffa565b60405180910390f35b6102c6610b1c565b6040516102d39190611e31565b60405180910390f35b6102e4610b45565b6040516102f19190611ffa565b60405180910390f35b610302610b4b565b60405161030f9190611ffa565b60405180910390f35b610332600480360381019061032d9190611bf6565b610b51565b005b61034e60048036038101906103499190611bf6565b6110ac565b005b61036a60048036038101906103659190611bcd565b611132565b005b6103746111f2565b005b61037e6112a9565b005b61039a60048036038101906103959190611ba4565b6113f0565b005b6103b660048036038101906103b19190611bf6565b6114b0565b005b6103d260048036038101906103cd9190611aa9565b611536565b005b6103dc61162e565b6040516103e99190611f04565b60405180910390f35b600080600660008473ffffffffffffffffffffffffffffffffffffffff1673ffffffffffffffffffffffffffffffffffffffff168152602001908152602001600020905061047c816003015461046e64e8d4a51000610460600854866000015461165490919063ffffffff16565b61166a90919063ffffffff16565b61168090919063ffffffff16565b915050919050565b600063150b7a0260e01b905095945050505050565b60066020528060005260406000206000915090508060000154908060010154908060030154905083565b6000600660006104d1611696565b73ffffffffffffffffffffffffffffffffffffffff1673ffffffffffffffffffffffffffffffffffffffff168152602001908152602001600020905080600201600083815260200190815260200160002060009054906101000a900460ff1661056f576040517f08c379a000000000000000000000000000000000000000000000000000000000815260040161056690611fba565b60405180910390fd5b6105776111f2565b6000610589610584611696565b6103f2565b905061059c610596611696565b8261169e565b6105b46001836001015461168090919063ffffffff16565b826001018190555081600201600084815260200190815260200160002060006101000a81549060ff02191690556106a5600360009054906101000a900473ffffffffffffffffffffffffffffffffffffffff1673ffffffffffffffffffffffffffffffffffffffff16635e3d9df1856040518263ffffffff1660e01b815260040161063f9190611ffa565b60206040518083038186803b15801561065757600080fd5b505afa15801561066b573d6000803e3d6000fd5b505050506040513d601f19601f8201168201806040525081019061068f9190611c48565b60ff16836000015461168090919063ffffffff16565b82600001819055506106dd64e8d4a510006106cf600854856000015461165490919063ffffffff16565b61166a90919063ffffffff16565b82600301819055506107a7600360009054906101000a900473ffffffffffffffffffffffffffffffffffffffff1673ffffffffffffffffffffffffffffffffffffffff16635e3d9df1856040518263ffffffff1660e01b81526004016107439190611ffa565b60206040518083038186803b15801561075b57600080fd5b505afa15801561076f573d6000803e3d6000fd5b505050506040513d601f19601f820116820180604052508101906107939190611c48565b60ff1660095461168090919063ffffffff16565b600981905550600360009054906101000a900473ffffffffffffffffffffffffffffffffffffffff1673ffffffffffffffffffffffffffffffffffffffff166342842e0e306107f4611696565b866040518463ffffffff1660e01b815260040161081393929190611e67565b600060405180830381600087803b15801561082d57600080fd5b505af1158015610841573d6000803e3d6000fd5b505050508261084e611696565b73ffffffffffffffffffffffffffffffffffffffff167f884edad9ce6fa2440d8a54cc123490eb96d2768479d49ff9c7366125a942436460405160405180910390a3505050565b600760009054906101000a900473ffffffffffffffffffffffffffffffffffffffff1681565b60085481565b600260009054906101000a900473ffffffffffffffffffffffffffffffffffffffff1681565b6060600080600660006108f8611696565b73ffffffffffffffffffffffffffffffffffffffff1673ffffffffffffffffffffffffffffffffffffffff16815260200190815260200160002090506000816001015467ffffffffffffffff81111561097a577f4e487b7100000000000000000000000000000000000000000000000000000000600052604160045260246000fd5b6040519080825280602002602001820160405280156109a85781602001602082028036833780820191505090505b50905060005b7fffffffffffffffffffffffffffffffffffffffffffffffffffffffffffffffff811015610a7e57826001015484106109e657610a7e565b82600201600082815260200190815260200160002060009054906101000a900460ff1615610a6b5780828581518110610a48577f4e487b7100000000000000000000000000000000000000000000000000000000600052603260045260246000fd5b602002602001018181525050610a686001856118c090919063ffffffff16565b93505b8080610a76906122d7565b9150506109ae565b5080935050505090565b610a90611696565b73ffffffffffffffffffffffffffffffffffffffff16610aae610b1c565b73ffffffffffffffffffffffffffffffffffffffff1614610b04576040517f08c379a0000000000000000000000000000000000000000000000000000000008152600401610afb90611f9a565b60405180910390fd5b610b0e60006118d6565b565b60095481565b60045481565b60008060009054906101000a900473ffffffffffffffffffffffffffffffffffffffff16905090565b60055481565b600a5481565b610b59611696565b73ffffffffffffffffffffffffffffffffffffffff16600360009054906101000a900473ffffffffffffffffffffffffffffffffffffffff1673ffffffffffffffffffffffffffffffffffffffff16636352211e836040518263ffffffff1660e01b8152600401610bca9190611ffa565b60206040518083038186803b158015610be257600080fd5b505afa158015610bf6573d6000803e3d6000fd5b505050506040513d601f19601f82011682018060405250810190610c1a9190611ad2565b73ffffffffffffffffffffffffffffffffffffffff1614610c70576040517f08c379a0000000000000000000000000000000000000000000000000000000008152600401610c6790611f5a565b60405180910390fd5b610c786111f2565b600060066000610c86611696565b73ffffffffffffffffffffffffffffffffffffffff1673ffffffffffffffffffffffffffffffffffffffff1681526020019081526020016000209050600081600001541115610cf6576000610ce1610cdc611696565b6103f2565b9050610cf4610cee611696565b8261169e565b505b600360009054906101000a900473ffffffffffffffffffffffffffffffffffffffff1673ffffffffffffffffffffffffffffffffffffffff166342842e0e610d3c611696565b30856040518463ffffffff1660e01b8152600401610d5c93929190611e67565b600060405180830381600087803b158015610d7657600080fd5b505af1158015610d8a573d6000803e3d6000fd5b50505050610e50600360009054906101000a900473ffffffffffffffffffffffffffffffffffffffff1673ffffffffffffffffffffffffffffffffffffffff16635e3d9df1846040518263ffffffff1660e01b8152600401610dec9190611ffa565b60206040518083038186803b158015610e0457600080fd5b505afa158015610e18573d6000803e3d6000fd5b505050506040513d601f19601f82011682018060405250810190610e3c9190611c48565b60ff166009546118c090919063ffffffff16565b600981905550610e6e600182600101546118c090919063ffffffff16565b8160010181905550600181600201600084815260200190815260200160002060006101000a81548160ff021916908315150217905550610f68600360009054906101000a900473ffffffffffffffffffffffffffffffffffffffff1673ffffffffffffffffffffffffffffffffffffffff16635e3d9df1846040518263ffffffff1660e01b8152600401610f029190611ffa565b60206040518083038186803b158015610f1a57600080fd5b505afa158015610f2e573d6000803e3d6000fd5b505050506040513d601f19601f82011682018060405250810190610f529190611c48565b60ff1682600001546118c090919063ffffffff16565b8160000181905550610fa064e8d4a51000610f92600854846000015461165490919063ffffffff16565b61166a90919063ffffffff16565b816003018190555081610fb1611696565b73ffffffffffffffffffffffffffffffffffffffff167f90890809c654f11d6e72a28fa60149770a0d11ec6c92319d6ceb2bb0a4ea1a15600360009054906101000a900473ffffffffffffffffffffffffffffffffffffffff1673ffffffffffffffffffffffffffffffffffffffff16635e3d9df1866040518263ffffffff1660e01b81526004016110439190611ffa565b60206040518083038186803b15801561105b57600080fd5b505afa15801561106f573d6000803e3d6000fd5b505050506040513d601f19601f820116820180604052508101906110939190611c48565b6040516110a0919061204c565b60405180910390a35050565b6110b4611696565b73ffffffffffffffffffffffffffffffffffffffff166110d2610b1c565b73ffffffffffffffffffffffffffffffffffffffff1614611128576040517f08c379a000000000000000000000000000000000000000000000000000000000815260040161111f90611f9a565b60405180910390fd5b8060048190555050565b61113a611696565b73ffffffffffffffffffffffffffffffffffffffff16611158610b1c565b73ffffffffffffffffffffffffffffffffffffffff16146111ae576040517f08c379a00000000000000000000000000000000000000000000000000000000081526004016111a590611f9a565b60405180910390fd5b80600260006101000a81548173ffffffffffffffffffffffffffffffffffffffff021916908373ffffffffffffffffffffffffffffffffffffffff16021790555050565b600060095414156112095743600a819055506112a7565b6000611217600a544361199a565b905061123e611224611696565b6112396005548461165490919063ffffffff16565b61169e565b60006112556004548361165490919063ffffffff16565b905061129761128660095461127864e8d4a510008561165490919063ffffffff16565b61166a90919063ffffffff16565b6008546118c090919063ffffffff16565b60088190555043600a8190555050505b565b600260015414156112ef576040517f08c379a00000000000000000000000000000000000000000000000000000000081526004016112e690611fda565b60405180910390fd5b6002600181905550600060066000611305611696565b73ffffffffffffffffffffffffffffffffffffffff1673ffffffffffffffffffffffffffffffffffffffff16815260200190815260200160002090506000816000015411611388576040517f08c379a000000000000000000000000000000000000000000000000000000000815260040161137f90611f7a565b60405180910390fd5b600061139a611395611696565b6103f2565b90506113cc64e8d4a510006113be600854856000015461165490919063ffffffff16565b61166a90919063ffffffff16565b82600301819055506113e56113df611696565b8261169e565b505060018081905550565b6113f8611696565b73ffffffffffffffffffffffffffffffffffffffff16611416610b1c565b73ffffffffffffffffffffffffffffffffffffffff161461146c576040517f08c379a000000000000000000000000000000000000000000000000000000000815260040161146390611f9a565b60405180910390fd5b80600360006101000a81548173ffffffffffffffffffffffffffffffffffffffff021916908373ffffffffffffffffffffffffffffffffffffffff16021790555050565b6114b8611696565b73ffffffffffffffffffffffffffffffffffffffff166114d6610b1c565b73ffffffffffffffffffffffffffffffffffffffff161461152c576040517f08c379a000000000000000000000000000000000000000000000000000000000815260040161152390611f9a565b60405180910390fd5b8060058190555050565b61153e611696565b73ffffffffffffffffffffffffffffffffffffffff1661155c610b1c565b73ffffffffffffffffffffffffffffffffffffffff16146115b2576040517f08c379a00000000000000000000000000000000000000000000000000000000081526004016115a990611f9a565b60405180910390fd5b600073ffffffffffffffffffffffffffffffffffffffff168173ffffffffffffffffffffffffffffffffffffffff161415611622576040517f08c379a000000000000000000000000000000000000000000000000000000000815260040161161990611f3a565b60405180910390fd5b61162b816118d6565b50565b600360009054906101000a900473ffffffffffffffffffffffffffffffffffffffff1681565b600081836116629190612138565b905092915050565b600081836116789190612107565b905092915050565b6000818361168e9190612192565b905092915050565b600033905090565b6000600260009054906101000a900473ffffffffffffffffffffffffffffffffffffffff1673ffffffffffffffffffffffffffffffffffffffff166370a08231306040518263ffffffff1660e01b81526004016116fb9190611e31565b60206040518083038186803b15801561171357600080fd5b505afa158015611727573d6000803e3d6000fd5b505050506040513d601f19601f8201168201806040525081019061174b9190611c1f565b90508082111561180a57600260009054906101000a900473ffffffffffffffffffffffffffffffffffffffff1673ffffffffffffffffffffffffffffffffffffffff1663a9059cbb84836040518363ffffffff1660e01b81526004016117b2929190611e9e565b602060405180830381600087803b1580156117cc57600080fd5b505af11580156117e0573d6000803e3d6000fd5b505050506040513d601f19601f820116820180604052508101906118049190611b7b565b506118bb565b600260009054906101000a900473ffffffffffffffffffffffffffffffffffffffff1673ffffffffffffffffffffffffffffffffffffffff1663a9059cbb84846040518363ffffffff1660e01b8152600401611867929190611e9e565b602060405180830381600087803b15801561188157600080fd5b505af1158015611895573d6000803e3d6000fd5b505050506040513d601f19601f820116820180604052508101906118b99190611b7b565b505b505050565b600081836118ce91906120b1565b905092915050565b60008060009054906101000a900473ffffffffffffffffffffffffffffffffffffffff169050816000806101000a81548173ffffffffffffffffffffffffffffffffffffffff021916908373ffffffffffffffffffffffffffffffffffffffff1602179055508173ffffffffffffffffffffffffffffffffffffffff168173ffffffffffffffffffffffffffffffffffffffff167f8be0079c531659141344cd1fd0a4f28419497f9722a3daafe3b4186f6b6457e060405160405180910390a35050565b60006119af838361168090919063ffffffff16565b905092915050565b6000813590506119c68161249a565b92915050565b6000815190506119db8161249a565b92915050565b6000815190506119f0816124b1565b92915050565b60008083601f840112611a0857600080fd5b8235905067ffffffffffffffff811115611a2157600080fd5b602083019150836001820283011115611a3957600080fd5b9250929050565b600081359050611a4f816124c8565b92915050565b600081359050611a64816124df565b92915050565b600081359050611a79816124f6565b92915050565b600081519050611a8e816124f6565b92915050565b600081519050611aa38161250d565b92915050565b600060208284031215611abb57600080fd5b6000611ac9848285016119b7565b91505092915050565b600060208284031215611ae457600080fd5b6000611af2848285016119cc565b91505092915050565b600080600080600060808688031215611b1357600080fd5b6000611b21888289016119b7565b9550506020611b32888289016119b7565b9450506040611b4388828901611a6a565b935050606086013567ffffffffffffffff811115611b6057600080fd5b611b6c888289016119f6565b92509250509295509295909350565b600060208284031215611b8d57600080fd5b6000611b9b848285016119e1565b91505092915050565b600060208284031215611bb657600080fd5b6000611bc484828501611a40565b91505092915050565b600060208284031215611bdf57600080fd5b6000611bed84828501611a55565b91505092915050565b600060208284031215611c0857600080fd5b6000611c1684828501611a6a565b91505092915050565b600060208284031215611c3157600080fd5b6000611c3f84828501611a7f565b91505092915050565b600060208284031215611c5a57600080fd5b6000611c6884828501611a94565b91505092915050565b6000611c7d8383611e04565b60208301905092915050565b611c92816121d8565b82525050565b611ca1816121c6565b82525050565b6000611cb282612077565b611cbc818561208f565b9350611cc783612067565b8060005b83811015611cf8578151611cdf8882611c71565b9750611cea83612082565b925050600181019050611ccb565b5085935050505092915050565b611d0e816121f6565b82525050565b611d1d8161227d565b82525050565b611d2c816122a1565b82525050565b6000611d3f6026836120a0565b9150611d4a8261237e565b604082019050919050565b6000611d626018836120a0565b9150611d6d826123cd565b602082019050919050565b6000611d856011836120a0565b9150611d90826123f6565b602082019050919050565b6000611da86020836120a0565b9150611db38261241f565b602082019050919050565b6000611dcb6012836120a0565b9150611dd682612448565b602082019050919050565b6000611dee601f836120a0565b9150611df982612471565b602082019050919050565b611e0d81612266565b82525050565b611e1c81612266565b82525050565b611e2b816122c5565b82525050565b6000602082019050611e466000830184611c98565b92915050565b6000602082019050611e616000830184611c89565b92915050565b6000606082019050611e7c6000830186611c98565b611e896020830185611c98565b611e966040830184611e13565b949350505050565b6000604082019050611eb36000830185611c98565b611ec06020830184611e13565b9392505050565b60006020820190508181036000830152611ee18184611ca7565b905092915050565b6000602082019050611efe6000830184611d05565b92915050565b6000602082019050611f196000830184611d14565b92915050565b6000602082019050611f346000830184611d23565b92915050565b60006020820190508181036000830152611f5381611d32565b9050919050565b60006020820190508181036000830152611f7381611d55565b9050919050565b60006020820190508181036000830152611f9381611d78565b9050919050565b60006020820190508181036000830152611fb381611d9b565b9050919050565b60006020820190508181036000830152611fd381611dbe565b9050919050565b60006020820190508181036000830152611ff381611de1565b9050919050565b600060208201905061200f6000830184611e13565b92915050565b600060608201905061202a6000830186611e13565b6120376020830185611e13565b6120446040830184611e13565b949350505050565b60006020820190506120616000830184611e22565b92915050565b6000819050602082019050919050565b600081519050919050565b6000602082019050919050565b600082825260208201905092915050565b600082825260208201905092915050565b60006120bc82612266565b91506120c783612266565b9250827fffffffffffffffffffffffffffffffffffffffffffffffffffffffffffffffff038211156120fc576120fb612320565b5b828201905092915050565b600061211282612266565b915061211d83612266565b92508261212d5761212c61234f565b5b828204905092915050565b600061214382612266565b915061214e83612266565b9250817fffffffffffffffffffffffffffffffffffffffffffffffffffffffffffffffff048311821515161561218757612186612320565b5b828202905092915050565b600061219d82612266565b91506121a883612266565b9250828210156121bb576121ba612320565b5b828203905092915050565b60006121d182612246565b9050919050565b60006121e382612246565b9050919050565b60008115159050919050565b60007fffffffff0000000000000000000000000000000000000000000000000000000082169050919050565b600061222d826121c6565b9050919050565b600061223f826121c6565b9050919050565b600073ffffffffffffffffffffffffffffffffffffffff82169050919050565b6000819050919050565b600060ff82169050919050565b60006122888261228f565b9050919050565b600061229a82612246565b9050919050565b60006122ac826122b3565b9050919050565b60006122be82612246565b9050919050565b60006122d082612270565b9050919050565b60006122e282612266565b91507fffffffffffffffffffffffffffffffffffffffffffffffffffffffffffffffff82141561231557612314612320565b5b600182019050919050565b7f4e487b7100000000000000000000000000000000000000000000000000000000600052601160045260246000fd5b7f4e487b7100000000000000000000000000000000000000000000000000000000600052601260045260246000fd5b7f4f776e61626c653a206e6577206f776e657220697320746865207a65726f206160008201527f6464726573730000000000000000000000000000000000000000000000000000602082015250565b7f4465706f7369743a206e6f74206f776e696e67206974656d0000000000000000600082015250565b7f436f6c6c6563743a206e6f7420676f6f64000000000000000000000000000000600082015250565b7f4f776e61626c653a2063616c6c6572206973206e6f7420746865206f776e6572600082015250565b7f57697468647261773a206e6f7420676f6f640000000000000000000000000000600082015250565b7f5265656e7472616e637947756172643a207265656e7472616e742063616c6c00600082015250565b6124a3816121c6565b81146124ae57600080fd5b50565b6124ba816121ea565b81146124c557600080fd5b50565b6124d181612222565b81146124dc57600080fd5b50565b6124e881612234565b81146124f357600080fd5b50565b6124ff81612266565b811461250a57600080fd5b50565b61251681612270565b811461252157600080fd5b5056fea2646970667358221220aa74ed9c844484d4119c30f044c3d0e1ab469e74718ed2c3b19b8724e872833864736f6c63430008040033",
  "linkReferences": {},
  "deployedLinkReferences": {}
}