{
  "_format": "hh-sol-artifact-1",
  "contractName": "LootStash",
  "sourceName": "contracts/LootStash.sol",
  "abi": [
    {
      "inputs": [
        {
          "internalType": "contract PebbleToken",
          "name": "_pbl",
          "type": "address"
        },
        {
          "internalType": "contract DatapointLoot",
          "name": "_pNFT",
          "type": "address"
        },
        {
          "internalType": "uint256",
          "name": "_pblPerBlock",
          "type": "uint256"
        },
        {
          "internalType": "address payable",
          "name": "_feeAddress",
          "type": "address"
        }
      ],
      "stateMutability": "nonpayable",
      "type": "constructor"
    },
    {
      "anonymous": false,
      "inputs": [
        {
          "indexed": true,
          "internalType": "address",
          "name": "user",
          "type": "address"
        },
        {
          "indexed": true,
          "internalType": "uint256",
          "name": "tokenId",
          "type": "uint256"
        },
        {
          "indexed": false,
          "internalType": "uint256",
          "name": "digPower",
          "type": "uint256"
        }
      ],
      "name": "Deposit",
      "type": "event"
    },
    {
      "anonymous": false,
      "inputs": [
        {
          "indexed": true,
          "internalType": "address",
          "name": "previousOwner",
          "type": "address"
        },
        {
          "indexed": true,
          "internalType": "address",
          "name": "newOwner",
          "type": "address"
        }
      ],
      "name": "OwnershipTransferred",
      "type": "event"
    },
    {
      "anonymous": false,
      "inputs": [
        {
          "indexed": true,
          "internalType": "address",
          "name": "user",
          "type": "address"
        },
        {
          "indexed": true,
          "internalType": "uint256",
          "name": "tokenId",
          "type": "uint256"
        }
      ],
      "name": "Withdraw",
      "type": "event"
    },
    {
      "inputs": [],
      "name": "accPblPerHashPowerUnit",
      "outputs": [
        {
          "internalType": "uint256",
          "name": "",
          "type": "uint256"
        }
      ],
      "stateMutability": "view",
      "type": "function"
    },
    {
      "inputs": [],
      "name": "collect",
      "outputs": [],
      "stateMutability": "nonpayable",
      "type": "function"
    },
    {
      "inputs": [
        {
          "internalType": "uint256",
          "name": "_tokenId",
          "type": "uint256"
        }
      ],
      "name": "deposit",
      "outputs": [],
      "stateMutability": "nonpayable",
      "type": "function"
    },
    {
      "inputs": [],
      "name": "feeAddress",
      "outputs": [
        {
          "internalType": "address payable",
          "name": "",
          "type": "address"
        }
      ],
      "stateMutability": "view",
      "type": "function"
    },
    {
      "inputs": [],
      "name": "getTokenIds",
      "outputs": [
        {
          "internalType": "uint256[]",
          "name": "",
          "type": "uint256[]"
        }
      ],
      "stateMutability": "view",
      "type": "function"
    },
    {
      "inputs": [],
      "name": "lastRewardBlock",
      "outputs": [
        {
          "internalType": "uint256",
          "name": "",
          "type": "uint256"
        }
      ],
      "stateMutability": "view",
      "type": "function"
    },
    {
      "inputs": [
        {
          "internalType": "address",
          "name": "",
          "type": "address"
        },
        {
          "internalType": "address",
          "name": "",
          "type": "address"
        },
        {
          "internalType": "uint256",
          "name": "",
          "type": "uint256"
        },
        {
          "internalType": "bytes",
          "name": "",
          "type": "bytes"
        }
      ],
      "name": "onERC721Received",
      "outputs": [
        {
          "internalType": "bytes4",
          "name": "",
          "type": "bytes4"
        }
      ],
      "stateMutability": "pure",
      "type": "function"
    },
    {
      "inputs": [],
      "name": "owner",
      "outputs": [
        {
          "internalType": "address",
          "name": "",
          "type": "address"
        }
      ],
      "stateMutability": "view",
      "type": "function"
    },
    {
      "inputs": [],
      "name": "pNFT",
      "outputs": [
        {
          "internalType": "contract DatapointLoot",
          "name": "",
          "type": "address"
        }
      ],
      "stateMutability": "view",
      "type": "function"
    },
    {
      "inputs": [],
      "name": "pbl",
      "outputs": [
        {
          "internalType": "contract PebbleToken",
          "name": "",
          "type": "address"
        }
      ],
      "stateMutability": "view",
      "type": "function"
    },
    {
      "inputs": [],
      "name": "pblPerBlock",
      "outputs": [
        {
          "internalType": "uint256",
          "name": "",
          "type": "uint256"
        }
      ],
      "stateMutability": "view",
      "type": "function"
    },
    {
      "inputs": [
        {
          "internalType": "address",
          "name": "_user",
          "type": "address"
        }
      ],
      "name": "pendingPbl",
      "outputs": [
        {
          "internalType": "uint256",
          "name": "pending",
          "type": "uint256"
        }
      ],
      "stateMutability": "view",
      "type": "function"
    },
    {
      "inputs": [],
      "name": "renounceOwnership",
      "outputs": [],
      "stateMutability": "nonpayable",
      "type": "function"
    },
    {
      "inputs": [
        {
          "internalType": "uint256",
          "name": "_pblPerBlock",
          "type": "uint256"
        }
      ],
      "name": "setPoolUpdateReward",
      "outputs": [],
      "stateMutability": "nonpayable",
      "type": "function"
    },
    {
      "inputs": [],
      "name": "totalHashPower",
      "outputs": [
        {
          "internalType": "uint256",
          "name": "",
          "type": "uint256"
        }
      ],
      "stateMutability": "view",
      "type": "function"
    },
    {
      "inputs": [
        {
          "internalType": "address",
          "name": "newOwner",
          "type": "address"
        }
      ],
      "name": "transferOwnership",
      "outputs": [],
      "stateMutability": "nonpayable",
      "type": "function"
    },
    {
      "inputs": [
        {
          "internalType": "contract DatapointLoot",
          "name": "_pNFT",
          "type": "address"
        }
      ],
      "name": "updateNftAddress",
      "outputs": [],
      "stateMutability": "nonpayable",
      "type": "function"
    },
    {
      "inputs": [
        {
          "internalType": "contract PebbleToken",
          "name": "_pbl",
          "type": "address"
        }
      ],
      "name": "updatePBL",
      "outputs": [],
      "stateMutability": "nonpayable",
      "type": "function"
    },
    {
      "inputs": [
        {
          "internalType": "uint256",
          "name": "_pblPerBlock",
          "type": "uint256"
        }
      ],
      "name": "updatePblPerBlock",
      "outputs": [],
      "stateMutability": "nonpayable",
      "type": "function"
    },
    {
      "inputs": [],
      "name": "updatePool",
      "outputs": [],
      "stateMutability": "nonpayable",
      "type": "function"
    },
    {
      "inputs": [],
      "name": "updateRewardPblPerBlock",
      "outputs": [
        {
          "internalType": "uint256",
          "name": "",
          "type": "uint256"
        }
      ],
      "stateMutability": "view",
      "type": "function"
    },
    {
      "inputs": [
        {
          "internalType": "address",
          "name": "",
          "type": "address"
        }
      ],
      "name": "userInfo",
      "outputs": [
        {
          "internalType": "uint256",
          "name": "hashPower",
          "type": "uint256"
        },
        {
          "internalType": "uint256",
          "name": "numOfTokens",
          "type": "uint256"
        },
        {
          "internalType": "uint256",
          "name": "rewardDebt",
          "type": "uint256"
        }
      ],
      "stateMutability": "view",
      "type": "function"
    },
    {
      "inputs": [
        {
          "internalType": "uint256",
          "name": "_tokenId",
          "type": "uint256"
        }
      ],
      "name": "withdraw",
      "outputs": [],
      "stateMutability": "nonpayable",
      "type": "function"
    }
  ],
  "bytecode": "0x60806040523480156200001157600080fd5b506040516200298c3803806200298c83398181016040528101906200003791906200027c565b620000576200004b6200015460201b60201c565b6200015c60201b60201c565b6001808190555083600260006101000a81548173ffffffffffffffffffffffffffffffffffffffff021916908373ffffffffffffffffffffffffffffffffffffffff16021790555082600360006101000a81548173ffffffffffffffffffffffffffffffffffffffff021916908373ffffffffffffffffffffffffffffffffffffffff16021790555081600481905550633b9aca0060058190555080600760006101000a81548173ffffffffffffffffffffffffffffffffffffffff021916908373ffffffffffffffffffffffffffffffffffffffff1602179055506000600881905550600060098190555043600a8190555050505050620003ca565b600033905090565b60008060009054906101000a900473ffffffffffffffffffffffffffffffffffffffff169050816000806101000a81548173ffffffffffffffffffffffffffffffffffffffff021916908373ffffffffffffffffffffffffffffffffffffffff1602179055508173ffffffffffffffffffffffffffffffffffffffff168173ffffffffffffffffffffffffffffffffffffffff167f8be0079c531659141344cd1fd0a4f28419497f9722a3daafe3b4186f6b6457e060405160405180910390a35050565b600081519050620002318162000362565b92915050565b60008151905062000248816200037c565b92915050565b6000815190506200025f8162000396565b92915050565b6000815190506200027681620003b0565b92915050565b600080600080608085870312156200029357600080fd5b6000620002a3878288016200024e565b9450506020620002b68782880162000237565b9350506040620002c98782880162000265565b9250506060620002dc8782880162000220565b91505092959194509250565b6000620002f58262000338565b9050919050565b6000620003098262000338565b9050919050565b60006200031d82620002e8565b9050919050565b60006200033182620002e8565b9050919050565b600073ffffffffffffffffffffffffffffffffffffffff82169050919050565b6000819050919050565b6200036d81620002fc565b81146200037957600080fd5b50565b620003878162000310565b81146200039357600080fd5b50565b620003a18162000324565b8114620003ad57600080fd5b50565b620003bb8162000358565b8114620003c757600080fd5b50565b6125b280620003da6000396000f3fe608060405234801561001057600080fd5b506004361061014d5760003560e01c80638da5cb5b116100c3578063e3161ddd1161007c578063e3161ddd1461036c578063e522538114610376578063e5eb7ae814610380578063ebe1088b1461039c578063f2fde38b146103b8578063fd6ecc6e146103d45761014d565b80638da5cb5b146102be578063a29ee161146102dc578063a9f8d181146102fa578063b6b55f2514610318578063da36fe7814610334578063dfbac66d146103505761014d565b8063443ddfd911610115578063443ddfd91461021e57806348083bba1461023c57806367f718a91461025a578063715018a61461027857806372f7caa2146102825780638a64b8bf146102a05761014d565b8063085c25f614610152578063150b7a02146101825780631959a002146101b25780632e1a7d4d146101e45780634127535814610200575b600080fd5b61016c60048036038101906101679190611b29565b6103f2565b604051610179919061206c565b60405180910390f35b61019c60048036038101906101979190611b7b565b610484565b6040516101a99190611f40565b60405180910390f35b6101cc60048036038101906101c79190611b29565b610499565b6040516101db93929190612087565b60405180910390f35b6101fe60048036038101906101f99190611c9f565b6104c3565b005b61020861093d565b6040516102159190611ea3565b60405180910390f35b610226610963565b604051610233919061206c565b60405180910390f35b610244610969565b6040516102519190611f76565b60405180910390f35b61026261098f565b60405161026f9190611f1e565b60405180910390f35b610280610b30565b005b61028a610bb8565b604051610297919061206c565b60405180910390f35b6102a8610bbe565b6040516102b5919061206c565b60405180910390f35b6102c6610bc4565b6040516102d39190611e88565b60405180910390f35b6102e4610bed565b6040516102f1919061206c565b60405180910390f35b610302610bf3565b60405161030f919061206c565b60405180910390f35b610332600480360381019061032d9190611c9f565b610bf9565b005b61034e60048036038101906103499190611c9f565b6111fc565b005b61036a60048036038101906103659190611c4d565b611282565b005b610374611342565b005b61037e611428565b005b61039a60048036038101906103959190611c24565b611615565b005b6103b660048036038101906103b19190611c9f565b6116d5565b005b6103d260048036038101906103cd9190611b29565b61175b565b005b6103dc611853565b6040516103e99190611f5b565b60405180910390f35b600080600660008473ffffffffffffffffffffffffffffffffffffffff1673ffffffffffffffffffffffffffffffffffffffff168152602001908152602001600020905061047c816003015461046e64e8d4a51000610460600854866000015461187990919063ffffffff16565b61188f90919063ffffffff16565b6118a590919063ffffffff16565b915050919050565b600063150b7a0260e01b905095945050505050565b60066020528060005260406000206000915090508060000154908060010154908060030154905083565b6000600660006104d16118bb565b73ffffffffffffffffffffffffffffffffffffffff1673ffffffffffffffffffffffffffffffffffffffff168152602001908152602001600020905080600201600083815260200190815260200160002060009054906101000a900460ff1661056f576040517f08c379a000000000000000000000000000000000000000000000000000000000815260040161056690612011565b60405180910390fd5b6105776118c3565b60006105896105846118bb565b6103f2565b9050600260009054906101000a900473ffffffffffffffffffffffffffffffffffffffff1673ffffffffffffffffffffffffffffffffffffffff1663a9059cbb6105d16118bb565b836040518363ffffffff1660e01b81526004016105ef929190611ef5565b602060405180830381600087803b15801561060957600080fd5b505af115801561061d573d6000803e3d6000fd5b505050506040513d601f19601f820116820180604052508101906106419190611bfb565b5061065a600183600101546118a590919063ffffffff16565b826001018190555081600201600084815260200190815260200160002060006101000a81549060ff021916905561074c600360009054906101000a900473ffffffffffffffffffffffffffffffffffffffff1673ffffffffffffffffffffffffffffffffffffffff16635e3d9df1856040518263ffffffff1660e01b81526004016106e5919061206c565b60206040518083038186803b1580156106fd57600080fd5b505afa158015610711573d6000803e3d6000fd5b505050506040513d601f19601f820116820180604052508101906107359190611c76565b61ffff1683600001546118a590919063ffffffff16565b826000018190555061078464e8d4a51000610776600854856000015461187990919063ffffffff16565b61188f90919063ffffffff16565b826003018190555061084f600360009054906101000a900473ffffffffffffffffffffffffffffffffffffffff1673ffffffffffffffffffffffffffffffffffffffff16635e3d9df1856040518263ffffffff1660e01b81526004016107ea919061206c565b60206040518083038186803b15801561080257600080fd5b505afa158015610816573d6000803e3d6000fd5b505050506040513d601f19601f8201168201806040525081019061083a9190611c76565b61ffff166009546118a590919063ffffffff16565b600981905550600360009054906101000a900473ffffffffffffffffffffffffffffffffffffffff1673ffffffffffffffffffffffffffffffffffffffff166342842e0e3061089c6118bb565b866040518463ffffffff1660e01b81526004016108bb93929190611ebe565b600060405180830381600087803b1580156108d557600080fd5b505af11580156108e9573d6000803e3d6000fd5b50505050826108f66118bb565b73ffffffffffffffffffffffffffffffffffffffff167f884edad9ce6fa2440d8a54cc123490eb96d2768479d49ff9c7366125a942436460405160405180910390a3505050565b600760009054906101000a900473ffffffffffffffffffffffffffffffffffffffff1681565b60085481565b600260009054906101000a900473ffffffffffffffffffffffffffffffffffffffff1681565b6060600080600660006109a06118bb565b73ffffffffffffffffffffffffffffffffffffffff1673ffffffffffffffffffffffffffffffffffffffff16815260200190815260200160002090506000816001015467ffffffffffffffff811115610a22577f4e487b7100000000000000000000000000000000000000000000000000000000600052604160045260246000fd5b604051908082528060200260200182016040528015610a505781602001602082028036833780820191505090505b50905060005b7fffffffffffffffffffffffffffffffffffffffffffffffffffffffffffffffff811015610b265782600101548410610a8e57610b26565b82600201600082815260200190815260200160002060009054906101000a900460ff1615610b135780828581518110610af0577f4e487b7100000000000000000000000000000000000000000000000000000000600052603260045260246000fd5b602002602001018181525050610b1060018561195590919063ffffffff16565b93505b8080610b1e9061232f565b915050610a56565b5080935050505090565b610b386118bb565b73ffffffffffffffffffffffffffffffffffffffff16610b56610bc4565b73ffffffffffffffffffffffffffffffffffffffff1614610bac576040517f08c379a0000000000000000000000000000000000000000000000000000000008152600401610ba390611ff1565b60405180910390fd5b610bb6600061196b565b565b60095481565b60045481565b60008060009054906101000a900473ffffffffffffffffffffffffffffffffffffffff16905090565b60055481565b600a5481565b610c016118bb565b73ffffffffffffffffffffffffffffffffffffffff16600360009054906101000a900473ffffffffffffffffffffffffffffffffffffffff1673ffffffffffffffffffffffffffffffffffffffff16636352211e836040518263ffffffff1660e01b8152600401610c72919061206c565b60206040518083038186803b158015610c8a57600080fd5b505afa158015610c9e573d6000803e3d6000fd5b505050506040513d601f19601f82011682018060405250810190610cc29190611b52565b73ffffffffffffffffffffffffffffffffffffffff1614610d18576040517f08c379a0000000000000000000000000000000000000000000000000000000008152600401610d0f90611fb1565b60405180910390fd5b610d206118c3565b600060066000610d2e6118bb565b73ffffffffffffffffffffffffffffffffffffffff1673ffffffffffffffffffffffffffffffffffffffff1681526020019081526020016000209050600081600001541115610e44576000610d89610d846118bb565b6103f2565b9050600260009054906101000a900473ffffffffffffffffffffffffffffffffffffffff1673ffffffffffffffffffffffffffffffffffffffff1663a9059cbb610dd16118bb565b836040518363ffffffff1660e01b8152600401610def929190611ef5565b602060405180830381600087803b158015610e0957600080fd5b505af1158015610e1d573d6000803e3d6000fd5b505050506040513d601f19601f82011682018060405250810190610e419190611bfb565b50505b600360009054906101000a900473ffffffffffffffffffffffffffffffffffffffff1673ffffffffffffffffffffffffffffffffffffffff166342842e0e610e8a6118bb565b30856040518463ffffffff1660e01b8152600401610eaa93929190611ebe565b600060405180830381600087803b158015610ec457600080fd5b505af1158015610ed8573d6000803e3d6000fd5b50505050610f9f600360009054906101000a900473ffffffffffffffffffffffffffffffffffffffff1673ffffffffffffffffffffffffffffffffffffffff16635e3d9df1846040518263ffffffff1660e01b8152600401610f3a919061206c565b60206040518083038186803b158015610f5257600080fd5b505afa158015610f66573d6000803e3d6000fd5b505050506040513d601f19601f82011682018060405250810190610f8a9190611c76565b61ffff1660095461195590919063ffffffff16565b600981905550610fbd6001826001015461195590919063ffffffff16565b8160010181905550600181600201600084815260200190815260200160002060006101000a81548160ff0219169083151502179055506110b8600360009054906101000a900473ffffffffffffffffffffffffffffffffffffffff1673ffffffffffffffffffffffffffffffffffffffff16635e3d9df1846040518263ffffffff1660e01b8152600401611051919061206c565b60206040518083038186803b15801561106957600080fd5b505afa15801561107d573d6000803e3d6000fd5b505050506040513d601f19601f820116820180604052508101906110a19190611c76565b61ffff16826000015461195590919063ffffffff16565b81600001819055506110f064e8d4a510006110e2600854846000015461187990919063ffffffff16565b61188f90919063ffffffff16565b8160030181905550816111016118bb565b73ffffffffffffffffffffffffffffffffffffffff167f90890809c654f11d6e72a28fa60149770a0d11ec6c92319d6ceb2bb0a4ea1a15600360009054906101000a900473ffffffffffffffffffffffffffffffffffffffff1673ffffffffffffffffffffffffffffffffffffffff16635e3d9df1866040518263ffffffff1660e01b8152600401611193919061206c565b60206040518083038186803b1580156111ab57600080fd5b505afa1580156111bf573d6000803e3d6000fd5b505050506040513d601f19601f820116820180604052508101906111e39190611c76565b6040516111f09190612051565b60405180910390a35050565b6112046118bb565b73ffffffffffffffffffffffffffffffffffffffff16611222610bc4565b73ffffffffffffffffffffffffffffffffffffffff1614611278576040517f08c379a000000000000000000000000000000000000000000000000000000000815260040161126f90611ff1565b60405180910390fd5b8060048190555050565b61128a6118bb565b73ffffffffffffffffffffffffffffffffffffffff166112a8610bc4565b73ffffffffffffffffffffffffffffffffffffffff16146112fe576040517f08c379a00000000000000000000000000000000000000000000000000000000081526004016112f590611ff1565b60405180910390fd5b80600260006101000a81548173ffffffffffffffffffffffffffffffffffffffff021916908373ffffffffffffffffffffffffffffffffffffffff16021790555050565b6000611350600a5443611a2f565b905061135a6118c3565b600260009054906101000a900473ffffffffffffffffffffffffffffffffffffffff1673ffffffffffffffffffffffffffffffffffffffff1663a9059cbb6113a06118bb565b6113b56005548561187990919063ffffffff16565b6040518363ffffffff1660e01b81526004016113d2929190611ef5565b602060405180830381600087803b1580156113ec57600080fd5b505af1158015611400573d6000803e3d6000fd5b505050506040513d601f19601f820116820180604052508101906114249190611bfb565b5050565b6002600154141561146e576040517f08c379a000000000000000000000000000000000000000000000000000000000815260040161146590612031565b60405180910390fd5b60026001819055506000600660006114846118bb565b73ffffffffffffffffffffffffffffffffffffffff1673ffffffffffffffffffffffffffffffffffffffff16815260200190815260200160002090506000816000015411611507576040517f08c379a00000000000000000000000000000000000000000000000000000000081526004016114fe90611fd1565b60405180910390fd5b60006115196115146118bb565b6103f2565b905061154b64e8d4a5100061153d600854856000015461187990919063ffffffff16565b61188f90919063ffffffff16565b8260030181905550600260009054906101000a900473ffffffffffffffffffffffffffffffffffffffff1673ffffffffffffffffffffffffffffffffffffffff1663a9059cbb6115996118bb565b836040518363ffffffff1660e01b81526004016115b7929190611ef5565b602060405180830381600087803b1580156115d157600080fd5b505af11580156115e5573d6000803e3d6000fd5b505050506040513d601f19601f820116820180604052508101906116099190611bfb565b50505060018081905550565b61161d6118bb565b73ffffffffffffffffffffffffffffffffffffffff1661163b610bc4565b73ffffffffffffffffffffffffffffffffffffffff1614611691576040517f08c379a000000000000000000000000000000000000000000000000000000000815260040161168890611ff1565b60405180910390fd5b80600360006101000a81548173ffffffffffffffffffffffffffffffffffffffff021916908373ffffffffffffffffffffffffffffffffffffffff16021790555050565b6116dd6118bb565b73ffffffffffffffffffffffffffffffffffffffff166116fb610bc4565b73ffffffffffffffffffffffffffffffffffffffff1614611751576040517f08c379a000000000000000000000000000000000000000000000000000000000815260040161174890611ff1565b60405180910390fd5b8060058190555050565b6117636118bb565b73ffffffffffffffffffffffffffffffffffffffff16611781610bc4565b73ffffffffffffffffffffffffffffffffffffffff16146117d7576040517f08c379a00000000000000000000000000000000000000000000000000000000081526004016117ce90611ff1565b60405180910390fd5b600073ffffffffffffffffffffffffffffffffffffffff168173ffffffffffffffffffffffffffffffffffffffff161415611847576040517f08c379a000000000000000000000000000000000000000000000000000000000815260040161183e90611f91565b60405180910390fd5b6118508161196b565b50565b600360009054906101000a900473ffffffffffffffffffffffffffffffffffffffff1681565b60008183611887919061218f565b905092915050565b6000818361189d919061215e565b905092915050565b600081836118b391906121e9565b905092915050565b600033905090565b600060095414156118da5743600a81905550611953565b60006118e8600a5443611a2f565b905060006119016004548361187990919063ffffffff16565b905061194361193260095461192464e8d4a510008561187990919063ffffffff16565b61188f90919063ffffffff16565b60085461195590919063ffffffff16565b60088190555043600a8190555050505b565b600081836119639190612108565b905092915050565b60008060009054906101000a900473ffffffffffffffffffffffffffffffffffffffff169050816000806101000a81548173ffffffffffffffffffffffffffffffffffffffff021916908373ffffffffffffffffffffffffffffffffffffffff1602179055508173ffffffffffffffffffffffffffffffffffffffff168173ffffffffffffffffffffffffffffffffffffffff167f8be0079c531659141344cd1fd0a4f28419497f9722a3daafe3b4186f6b6457e060405160405180910390a35050565b6000611a4483836118a590919063ffffffff16565b905092915050565b600081359050611a5b816124f2565b92915050565b600081519050611a70816124f2565b92915050565b600081519050611a8581612509565b92915050565b60008083601f840112611a9d57600080fd5b8235905067ffffffffffffffff811115611ab657600080fd5b602083019150836001820283011115611ace57600080fd5b9250929050565b600081359050611ae481612520565b92915050565b600081359050611af981612537565b92915050565b600081519050611b0e8161254e565b92915050565b600081359050611b2381612565565b92915050565b600060208284031215611b3b57600080fd5b6000611b4984828501611a4c565b91505092915050565b600060208284031215611b6457600080fd5b6000611b7284828501611a61565b91505092915050565b600080600080600060808688031215611b9357600080fd5b6000611ba188828901611a4c565b9550506020611bb288828901611a4c565b9450506040611bc388828901611b14565b935050606086013567ffffffffffffffff811115611be057600080fd5b611bec88828901611a8b565b92509250509295509295909350565b600060208284031215611c0d57600080fd5b6000611c1b84828501611a76565b91505092915050565b600060208284031215611c3657600080fd5b6000611c4484828501611ad5565b91505092915050565b600060208284031215611c5f57600080fd5b6000611c6d84828501611aea565b91505092915050565b600060208284031215611c8857600080fd5b6000611c9684828501611aff565b91505092915050565b600060208284031215611cb157600080fd5b6000611cbf84828501611b14565b91505092915050565b6000611cd48383611e6a565b60208301905092915050565b611ce98161222f565b82525050565b611cf88161221d565b82525050565b6000611d09826120ce565b611d1381856120e6565b9350611d1e836120be565b8060005b83811015611d4f578151611d368882611cc8565b9750611d41836120d9565b925050600181019050611d22565b5085935050505092915050565b611d658161224d565b82525050565b611d74816122d5565b82525050565b611d83816122f9565b82525050565b6000611d966026836120f7565b9150611da1826123d6565b604082019050919050565b6000611db96018836120f7565b9150611dc482612425565b602082019050919050565b6000611ddc6011836120f7565b9150611de78261244e565b602082019050919050565b6000611dff6020836120f7565b9150611e0a82612477565b602082019050919050565b6000611e226012836120f7565b9150611e2d826124a0565b602082019050919050565b6000611e45601f836120f7565b9150611e50826124c9565b602082019050919050565b611e648161231d565b82525050565b611e73816122cb565b82525050565b611e82816122cb565b82525050565b6000602082019050611e9d6000830184611cef565b92915050565b6000602082019050611eb86000830184611ce0565b92915050565b6000606082019050611ed36000830186611cef565b611ee06020830185611cef565b611eed6040830184611e79565b949350505050565b6000604082019050611f0a6000830185611cef565b611f176020830184611e79565b9392505050565b60006020820190508181036000830152611f388184611cfe565b905092915050565b6000602082019050611f556000830184611d5c565b92915050565b6000602082019050611f706000830184611d6b565b92915050565b6000602082019050611f8b6000830184611d7a565b92915050565b60006020820190508181036000830152611faa81611d89565b9050919050565b60006020820190508181036000830152611fca81611dac565b9050919050565b60006020820190508181036000830152611fea81611dcf565b9050919050565b6000602082019050818103600083015261200a81611df2565b9050919050565b6000602082019050818103600083015261202a81611e15565b9050919050565b6000602082019050818103600083015261204a81611e38565b9050919050565b60006020820190506120666000830184611e5b565b92915050565b60006020820190506120816000830184611e79565b92915050565b600060608201905061209c6000830186611e79565b6120a96020830185611e79565b6120b66040830184611e79565b949350505050565b6000819050602082019050919050565b600081519050919050565b6000602082019050919050565b600082825260208201905092915050565b600082825260208201905092915050565b6000612113826122cb565b915061211e836122cb565b9250827fffffffffffffffffffffffffffffffffffffffffffffffffffffffffffffffff0382111561215357612152612378565b5b828201905092915050565b6000612169826122cb565b9150612174836122cb565b925082612184576121836123a7565b5b828204905092915050565b600061219a826122cb565b91506121a5836122cb565b9250817fffffffffffffffffffffffffffffffffffffffffffffffffffffffffffffffff04831182151516156121de576121dd612378565b5b828202905092915050565b60006121f4826122cb565b91506121ff836122cb565b92508282101561221257612211612378565b5b828203905092915050565b6000612228826122ab565b9050919050565b600061223a826122ab565b9050919050565b60008115159050919050565b60007fffffffff0000000000000000000000000000000000000000000000000000000082169050919050565b60006122848261221d565b9050919050565b60006122968261221d565b9050919050565b600061ffff82169050919050565b600073ffffffffffffffffffffffffffffffffffffffff82169050919050565b6000819050919050565b60006122e0826122e7565b9050919050565b60006122f2826122ab565b9050919050565b60006123048261230b565b9050919050565b6000612316826122ab565b9050919050565b60006123288261229d565b9050919050565b600061233a826122cb565b91507fffffffffffffffffffffffffffffffffffffffffffffffffffffffffffffffff82141561236d5761236c612378565b5b600182019050919050565b7f4e487b7100000000000000000000000000000000000000000000000000000000600052601160045260246000fd5b7f4e487b7100000000000000000000000000000000000000000000000000000000600052601260045260246000fd5b7f4f776e61626c653a206e6577206f776e657220697320746865207a65726f206160008201527f6464726573730000000000000000000000000000000000000000000000000000602082015250565b7f4465706f7369743a206e6f74206f776e696e67206974656d0000000000000000600082015250565b7f436f6c6c6563743a206e6f7420676f6f64000000000000000000000000000000600082015250565b7f4f776e61626c653a2063616c6c6572206973206e6f7420746865206f776e6572600082015250565b7f57697468647261773a206e6f7420676f6f640000000000000000000000000000600082015250565b7f5265656e7472616e637947756172643a207265656e7472616e742063616c6c00600082015250565b6124fb8161221d565b811461250657600080fd5b50565b61251281612241565b811461251d57600080fd5b50565b61252981612279565b811461253457600080fd5b50565b6125408161228b565b811461254b57600080fd5b50565b6125578161229d565b811461256257600080fd5b50565b61256e816122cb565b811461257957600080fd5b5056fea2646970667358221220c56a8cf65fee9da37ed9da2f60172015edc3d17beeda3df067e187ee18089a8964736f6c63430008040033",
  "linkReferences": {},
  "deployedLinkReferences": {}
}