{
  "_format": "hh-sol-artifact-1",
  "contractName": "LootStash",
  "sourceName": "contracts/LootStash.sol",
  "abi": [
    {
      "inputs": [
        {
          "internalType": "contract PebbleToken",
          "name": "_pbl",
          "type": "address"
        },
        {
          "internalType": "contract DatapointLoot",
          "name": "_pNFT",
          "type": "address"
        },
        {
          "internalType": "uint256",
          "name": "_pblPerBlock",
          "type": "uint256"
        },
        {
          "internalType": "address payable",
          "name": "_feeAddress",
          "type": "address"
        }
      ],
      "stateMutability": "nonpayable",
      "type": "constructor"
    },
    {
      "anonymous": false,
      "inputs": [
        {
          "indexed": true,
          "internalType": "address",
          "name": "user",
          "type": "address"
        },
        {
          "indexed": true,
          "internalType": "uint256",
          "name": "tokenId",
          "type": "uint256"
        },
        {
          "indexed": false,
          "internalType": "uint256",
          "name": "digPower",
          "type": "uint256"
        }
      ],
      "name": "Deposit",
      "type": "event"
    },
    {
      "anonymous": false,
      "inputs": [
        {
          "indexed": true,
          "internalType": "address",
          "name": "previousOwner",
          "type": "address"
        },
        {
          "indexed": true,
          "internalType": "address",
          "name": "newOwner",
          "type": "address"
        }
      ],
      "name": "OwnershipTransferred",
      "type": "event"
    },
    {
      "anonymous": false,
      "inputs": [
        {
          "indexed": true,
          "internalType": "address",
          "name": "user",
          "type": "address"
        },
        {
          "indexed": true,
          "internalType": "uint256",
          "name": "tokenId",
          "type": "uint256"
        }
      ],
      "name": "Withdraw",
      "type": "event"
    },
    {
      "inputs": [],
      "name": "accPblPerHashPowerUnit",
      "outputs": [
        {
          "internalType": "uint256",
          "name": "",
          "type": "uint256"
        }
      ],
      "stateMutability": "view",
      "type": "function"
    },
    {
      "inputs": [
        {
          "internalType": "uint256",
          "name": "_tokenId",
          "type": "uint256"
        }
      ],
      "name": "deposit",
      "outputs": [],
      "stateMutability": "nonpayable",
      "type": "function"
    },
    {
      "inputs": [],
      "name": "feeAddress",
      "outputs": [
        {
          "internalType": "address payable",
          "name": "",
          "type": "address"
        }
      ],
      "stateMutability": "view",
      "type": "function"
    },
    {
      "inputs": [],
      "name": "getTokenIds",
      "outputs": [
        {
          "internalType": "uint256[]",
          "name": "",
          "type": "uint256[]"
        }
      ],
      "stateMutability": "view",
      "type": "function"
    },
    {
      "inputs": [],
      "name": "lastRewardBlock",
      "outputs": [
        {
          "internalType": "uint256",
          "name": "",
          "type": "uint256"
        }
      ],
      "stateMutability": "view",
      "type": "function"
    },
    {
      "inputs": [
        {
          "internalType": "address",
          "name": "",
          "type": "address"
        },
        {
          "internalType": "address",
          "name": "",
          "type": "address"
        },
        {
          "internalType": "uint256",
          "name": "",
          "type": "uint256"
        },
        {
          "internalType": "bytes",
          "name": "",
          "type": "bytes"
        }
      ],
      "name": "onERC721Received",
      "outputs": [
        {
          "internalType": "bytes4",
          "name": "",
          "type": "bytes4"
        }
      ],
      "stateMutability": "pure",
      "type": "function"
    },
    {
      "inputs": [],
      "name": "owner",
      "outputs": [
        {
          "internalType": "address",
          "name": "",
          "type": "address"
        }
      ],
      "stateMutability": "view",
      "type": "function"
    },
    {
      "inputs": [],
      "name": "pNFT",
      "outputs": [
        {
          "internalType": "contract DatapointLoot",
          "name": "",
          "type": "address"
        }
      ],
      "stateMutability": "view",
      "type": "function"
    },
    {
      "inputs": [],
      "name": "pbl",
      "outputs": [
        {
          "internalType": "contract PebbleToken",
          "name": "",
          "type": "address"
        }
      ],
      "stateMutability": "view",
      "type": "function"
    },
    {
      "inputs": [],
      "name": "pblPerBlock",
      "outputs": [
        {
          "internalType": "uint256",
          "name": "",
          "type": "uint256"
        }
      ],
      "stateMutability": "view",
      "type": "function"
    },
    {
      "inputs": [
        {
          "internalType": "address",
          "name": "_user",
          "type": "address"
        }
      ],
      "name": "pendingPbl",
      "outputs": [
        {
          "internalType": "uint256",
          "name": "pending",
          "type": "uint256"
        }
      ],
      "stateMutability": "view",
      "type": "function"
    },
    {
      "inputs": [],
      "name": "renounceOwnership",
      "outputs": [],
      "stateMutability": "nonpayable",
      "type": "function"
    },
    {
      "inputs": [],
      "name": "totalHashPower",
      "outputs": [
        {
          "internalType": "uint256",
          "name": "",
          "type": "uint256"
        }
      ],
      "stateMutability": "view",
      "type": "function"
    },
    {
      "inputs": [
        {
          "internalType": "address",
          "name": "newOwner",
          "type": "address"
        }
      ],
      "name": "transferOwnership",
      "outputs": [],
      "stateMutability": "nonpayable",
      "type": "function"
    },
    {
      "inputs": [
        {
          "internalType": "contract DatapointLoot",
          "name": "_pNFT",
          "type": "address"
        }
      ],
      "name": "updateNftAddress",
      "outputs": [],
      "stateMutability": "nonpayable",
      "type": "function"
    },
    {
      "inputs": [
        {
          "internalType": "contract PebbleToken",
          "name": "_pbl",
          "type": "address"
        }
      ],
      "name": "updatePBL",
      "outputs": [],
      "stateMutability": "nonpayable",
      "type": "function"
    },
    {
      "inputs": [],
      "name": "updatePool",
      "outputs": [],
      "stateMutability": "nonpayable",
      "type": "function"
    },
    {
      "inputs": [
        {
          "internalType": "address",
          "name": "",
          "type": "address"
        }
      ],
      "name": "userInfo",
      "outputs": [
        {
          "internalType": "uint256",
          "name": "hashPower",
          "type": "uint256"
        },
        {
          "internalType": "uint256",
          "name": "numOfTokens",
          "type": "uint256"
        },
        {
          "internalType": "uint256",
          "name": "rewardDebt",
          "type": "uint256"
        }
      ],
      "stateMutability": "view",
      "type": "function"
    },
    {
      "inputs": [
        {
          "internalType": "uint256",
          "name": "_tokenId",
          "type": "uint256"
        }
      ],
      "name": "withdraw",
      "outputs": [],
      "stateMutability": "nonpayable",
      "type": "function"
    }
  ],
  "bytecode": "0x60806040523480156200001157600080fd5b506040516200243338038062002433833981810160405281019062000037919062000271565b620000576200004b6200014960201b60201c565b6200015160201b60201c565b6001808190555083600260006101000a81548173ffffffffffffffffffffffffffffffffffffffff021916908373ffffffffffffffffffffffffffffffffffffffff16021790555082600360006101000a81548173ffffffffffffffffffffffffffffffffffffffff021916908373ffffffffffffffffffffffffffffffffffffffff1602179055508160048190555080600660006101000a81548173ffffffffffffffffffffffffffffffffffffffff021916908373ffffffffffffffffffffffffffffffffffffffff160217905550600060078190555060006008819055504360098190555050505050620003bf565b600033905090565b60008060009054906101000a900473ffffffffffffffffffffffffffffffffffffffff169050816000806101000a81548173ffffffffffffffffffffffffffffffffffffffff021916908373ffffffffffffffffffffffffffffffffffffffff1602179055508173ffffffffffffffffffffffffffffffffffffffff168173ffffffffffffffffffffffffffffffffffffffff167f8be0079c531659141344cd1fd0a4f28419497f9722a3daafe3b4186f6b6457e060405160405180910390a35050565b600081519050620002268162000357565b92915050565b6000815190506200023d8162000371565b92915050565b60008151905062000254816200038b565b92915050565b6000815190506200026b81620003a5565b92915050565b600080600080608085870312156200028857600080fd5b6000620002988782880162000243565b9450506020620002ab878288016200022c565b9350506040620002be878288016200025a565b9250506060620002d18782880162000215565b91505092959194509250565b6000620002ea826200032d565b9050919050565b6000620002fe826200032d565b9050919050565b60006200031282620002dd565b9050919050565b60006200032682620002dd565b9050919050565b600073ffffffffffffffffffffffffffffffffffffffff82169050919050565b6000819050919050565b6200036281620002f1565b81146200036e57600080fd5b50565b6200037c8162000305565b81146200038857600080fd5b50565b620003968162000319565b8114620003a257600080fd5b50565b620003b0816200034d565b8114620003bc57600080fd5b50565b61206480620003cf6000396000f3fe608060405234801561001057600080fd5b50600436106101215760003560e01c806372f7caa2116100ad578063dfbac66d11610071578063dfbac66d146102ea578063e3161ddd14610306578063e5eb7ae814610310578063f2fde38b1461032c578063fd6ecc6e1461034857610121565b806372f7caa2146102565780638a64b8bf146102745780638da5cb5b14610292578063a9f8d181146102b0578063b6b55f25146102ce57610121565b806341275358116100f457806341275358146101d4578063443ddfd9146101f257806348083bba1461021057806367f718a91461022e578063715018a61461024c57610121565b8063085c25f614610126578063150b7a02146101565780631959a002146101865780632e1a7d4d146101b8575b600080fd5b610140600480360381019061013b91906116b4565b610366565b60405161014d9190611b56565b60405180910390f35b610170600480360381019061016b9190611706565b6103f8565b60405161017d9190611a85565b60405180910390f35b6101a0600480360381019061019b91906116b4565b61040d565b6040516101af93929190611b71565b60405180910390f35b6101d260048036038101906101cd9190611801565b610437565b005b6101dc6108af565b6040516101e991906119e8565b60405180910390f35b6101fa6108d5565b6040516102079190611b56565b60405180910390f35b6102186108db565b6040516102259190611abb565b60405180910390f35b610236610901565b6040516102439190611a63565b60405180910390f35b610254610aa2565b005b61025e610b2a565b60405161026b9190611b56565b60405180910390f35b61027c610b30565b6040516102899190611b56565b60405180910390f35b61029a610b36565b6040516102a791906119cd565b60405180910390f35b6102b8610b5f565b6040516102c59190611b56565b60405180910390f35b6102e860048036038101906102e39190611801565b610b65565b005b61030460048036038101906102ff91906117d8565b611166565b005b61030e611226565b005b61032a600480360381019061032591906117af565b6112b8565b005b610346600480360381019061034191906116b4565b611378565b005b610350611470565b60405161035d9190611aa0565b60405180910390f35b600080600560008473ffffffffffffffffffffffffffffffffffffffff1673ffffffffffffffffffffffffffffffffffffffff16815260200190815260200160002090506103f081600301546103e264e8d4a510006103d4600754866000015461149690919063ffffffff16565b6114ac90919063ffffffff16565b6114c290919063ffffffff16565b915050919050565b600063150b7a0260e01b905095945050505050565b60056020528060005260406000206000915090508060000154908060010154908060030154905083565b6000600560006104456114d8565b73ffffffffffffffffffffffffffffffffffffffff1673ffffffffffffffffffffffffffffffffffffffff168152602001908152602001600020905080600201600083815260200190815260200160002060009054906101000a900460ff166104e3576040517f08c379a00000000000000000000000000000000000000000000000000000000081526004016104da90611b36565b60405180910390fd5b6104eb611226565b60006104fd6104f86114d8565b610366565b9050600260009054906101000a900473ffffffffffffffffffffffffffffffffffffffff1673ffffffffffffffffffffffffffffffffffffffff1663a9059cbb6105456114d8565b836040518363ffffffff1660e01b8152600401610563929190611a3a565b602060405180830381600087803b15801561057d57600080fd5b505af1158015610591573d6000803e3d6000fd5b505050506040513d601f19601f820116820180604052508101906105b59190611786565b506105ce600183600101546114c290919063ffffffff16565b826001018190555081600201600084815260200190815260200160002060006101000a81549060ff02191690556106bf600360009054906101000a900473ffffffffffffffffffffffffffffffffffffffff1673ffffffffffffffffffffffffffffffffffffffff16635e3d9df1856040518263ffffffff1660e01b81526004016106599190611b56565b60206040518083038186803b15801561067157600080fd5b505afa158015610685573d6000803e3d6000fd5b505050506040513d601f19601f820116820180604052508101906106a9919061182a565b60ff1683600001546114c290919063ffffffff16565b82600001819055506106f764e8d4a510006106e9600754856000015461149690919063ffffffff16565b6114ac90919063ffffffff16565b82600301819055506107c1600360009054906101000a900473ffffffffffffffffffffffffffffffffffffffff1673ffffffffffffffffffffffffffffffffffffffff16635e3d9df1856040518263ffffffff1660e01b815260040161075d9190611b56565b60206040518083038186803b15801561077557600080fd5b505afa158015610789573d6000803e3d6000fd5b505050506040513d601f19601f820116820180604052508101906107ad919061182a565b60ff166008546114c290919063ffffffff16565b600881905550600360009054906101000a900473ffffffffffffffffffffffffffffffffffffffff1673ffffffffffffffffffffffffffffffffffffffff166342842e0e3061080e6114d8565b866040518463ffffffff1660e01b815260040161082d93929190611a03565b600060405180830381600087803b15801561084757600080fd5b505af115801561085b573d6000803e3d6000fd5b50505050826108686114d8565b73ffffffffffffffffffffffffffffffffffffffff167f884edad9ce6fa2440d8a54cc123490eb96d2768479d49ff9c7366125a942436460405160405180910390a3505050565b600660009054906101000a900473ffffffffffffffffffffffffffffffffffffffff1681565b60075481565b600260009054906101000a900473ffffffffffffffffffffffffffffffffffffffff1681565b6060600080600560006109126114d8565b73ffffffffffffffffffffffffffffffffffffffff1673ffffffffffffffffffffffffffffffffffffffff16815260200190815260200160002090506000816001015467ffffffffffffffff811115610994577f4e487b7100000000000000000000000000000000000000000000000000000000600052604160045260246000fd5b6040519080825280602002602001820160405280156109c25781602001602082028036833780820191505090505b50905060005b7fffffffffffffffffffffffffffffffffffffffffffffffffffffffffffffffff811015610a985782600101548410610a0057610a98565b82600201600082815260200190815260200160002060009054906101000a900460ff1615610a855780828581518110610a62577f4e487b7100000000000000000000000000000000000000000000000000000000600052603260045260246000fd5b602002602001018181525050610a826001856114e090919063ffffffff16565b93505b8080610a9090611e33565b9150506109c8565b5080935050505090565b610aaa6114d8565b73ffffffffffffffffffffffffffffffffffffffff16610ac8610b36565b73ffffffffffffffffffffffffffffffffffffffff1614610b1e576040517f08c379a0000000000000000000000000000000000000000000000000000000008152600401610b1590611b16565b60405180910390fd5b610b2860006114f6565b565b60085481565b60045481565b60008060009054906101000a900473ffffffffffffffffffffffffffffffffffffffff16905090565b60095481565b610b6d6114d8565b73ffffffffffffffffffffffffffffffffffffffff16600360009054906101000a900473ffffffffffffffffffffffffffffffffffffffff1673ffffffffffffffffffffffffffffffffffffffff16636352211e836040518263ffffffff1660e01b8152600401610bde9190611b56565b60206040518083038186803b158015610bf657600080fd5b505afa158015610c0a573d6000803e3d6000fd5b505050506040513d601f19601f82011682018060405250810190610c2e91906116dd565b73ffffffffffffffffffffffffffffffffffffffff1614610c84576040517f08c379a0000000000000000000000000000000000000000000000000000000008152600401610c7b90611af6565b60405180910390fd5b610c8c611226565b600060056000610c9a6114d8565b73ffffffffffffffffffffffffffffffffffffffff1673ffffffffffffffffffffffffffffffffffffffff1681526020019081526020016000209050600081600001541115610db0576000610cf5610cf06114d8565b610366565b9050600260009054906101000a900473ffffffffffffffffffffffffffffffffffffffff1673ffffffffffffffffffffffffffffffffffffffff1663a9059cbb610d3d6114d8565b836040518363ffffffff1660e01b8152600401610d5b929190611a3a565b602060405180830381600087803b158015610d7557600080fd5b505af1158015610d89573d6000803e3d6000fd5b505050506040513d601f19601f82011682018060405250810190610dad9190611786565b50505b600360009054906101000a900473ffffffffffffffffffffffffffffffffffffffff1673ffffffffffffffffffffffffffffffffffffffff166342842e0e610df66114d8565b30856040518463ffffffff1660e01b8152600401610e1693929190611a03565b600060405180830381600087803b158015610e3057600080fd5b505af1158015610e44573d6000803e3d6000fd5b50505050610f0a600360009054906101000a900473ffffffffffffffffffffffffffffffffffffffff1673ffffffffffffffffffffffffffffffffffffffff16635e3d9df1846040518263ffffffff1660e01b8152600401610ea69190611b56565b60206040518083038186803b158015610ebe57600080fd5b505afa158015610ed2573d6000803e3d6000fd5b505050506040513d601f19601f82011682018060405250810190610ef6919061182a565b60ff166008546114e090919063ffffffff16565b600881905550610f28600182600101546114e090919063ffffffff16565b8160010181905550600181600201600084815260200190815260200160002060006101000a81548160ff021916908315150217905550611022600360009054906101000a900473ffffffffffffffffffffffffffffffffffffffff1673ffffffffffffffffffffffffffffffffffffffff16635e3d9df1846040518263ffffffff1660e01b8152600401610fbc9190611b56565b60206040518083038186803b158015610fd457600080fd5b505afa158015610fe8573d6000803e3d6000fd5b505050506040513d601f19601f8201168201806040525081019061100c919061182a565b60ff1682600001546114e090919063ffffffff16565b816000018190555061105a64e8d4a5100061104c600754846000015461149690919063ffffffff16565b6114ac90919063ffffffff16565b81600301819055508161106b6114d8565b73ffffffffffffffffffffffffffffffffffffffff167f90890809c654f11d6e72a28fa60149770a0d11ec6c92319d6ceb2bb0a4ea1a15600360009054906101000a900473ffffffffffffffffffffffffffffffffffffffff1673ffffffffffffffffffffffffffffffffffffffff16635e3d9df1866040518263ffffffff1660e01b81526004016110fd9190611b56565b60206040518083038186803b15801561111557600080fd5b505afa158015611129573d6000803e3d6000fd5b505050506040513d601f19601f8201168201806040525081019061114d919061182a565b60405161115a9190611ba8565b60405180910390a35050565b61116e6114d8565b73ffffffffffffffffffffffffffffffffffffffff1661118c610b36565b73ffffffffffffffffffffffffffffffffffffffff16146111e2576040517f08c379a00000000000000000000000000000000000000000000000000000000081526004016111d990611b16565b60405180910390fd5b80600260006101000a81548173ffffffffffffffffffffffffffffffffffffffff021916908373ffffffffffffffffffffffffffffffffffffffff16021790555050565b6000600854141561123d57436009819055506112b6565b600061124b600954436115ba565b905060006112646004548361149690919063ffffffff16565b90506112a661129560085461128764e8d4a510008561149690919063ffffffff16565b6114ac90919063ffffffff16565b6007546114e090919063ffffffff16565b6007819055504360098190555050505b565b6112c06114d8565b73ffffffffffffffffffffffffffffffffffffffff166112de610b36565b73ffffffffffffffffffffffffffffffffffffffff1614611334576040517f08c379a000000000000000000000000000000000000000000000000000000000815260040161132b90611b16565b60405180910390fd5b80600360006101000a81548173ffffffffffffffffffffffffffffffffffffffff021916908373ffffffffffffffffffffffffffffffffffffffff16021790555050565b6113806114d8565b73ffffffffffffffffffffffffffffffffffffffff1661139e610b36565b73ffffffffffffffffffffffffffffffffffffffff16146113f4576040517f08c379a00000000000000000000000000000000000000000000000000000000081526004016113eb90611b16565b60405180910390fd5b600073ffffffffffffffffffffffffffffffffffffffff168173ffffffffffffffffffffffffffffffffffffffff161415611464576040517f08c379a000000000000000000000000000000000000000000000000000000000815260040161145b90611ad6565b60405180910390fd5b61146d816114f6565b50565b600360009054906101000a900473ffffffffffffffffffffffffffffffffffffffff1681565b600081836114a49190611c94565b905092915050565b600081836114ba9190611c63565b905092915050565b600081836114d09190611cee565b905092915050565b600033905090565b600081836114ee9190611c0d565b905092915050565b60008060009054906101000a900473ffffffffffffffffffffffffffffffffffffffff169050816000806101000a81548173ffffffffffffffffffffffffffffffffffffffff021916908373ffffffffffffffffffffffffffffffffffffffff1602179055508173ffffffffffffffffffffffffffffffffffffffff168173ffffffffffffffffffffffffffffffffffffffff167f8be0079c531659141344cd1fd0a4f28419497f9722a3daafe3b4186f6b6457e060405160405180910390a35050565b60006115cf83836114c290919063ffffffff16565b905092915050565b6000813590506115e681611fa4565b92915050565b6000815190506115fb81611fa4565b92915050565b60008151905061161081611fbb565b92915050565b60008083601f84011261162857600080fd5b8235905067ffffffffffffffff81111561164157600080fd5b60208301915083600182028301111561165957600080fd5b9250929050565b60008135905061166f81611fd2565b92915050565b60008135905061168481611fe9565b92915050565b60008135905061169981612000565b92915050565b6000815190506116ae81612017565b92915050565b6000602082840312156116c657600080fd5b60006116d4848285016115d7565b91505092915050565b6000602082840312156116ef57600080fd5b60006116fd848285016115ec565b91505092915050565b60008060008060006080868803121561171e57600080fd5b600061172c888289016115d7565b955050602061173d888289016115d7565b945050604061174e8882890161168a565b935050606086013567ffffffffffffffff81111561176b57600080fd5b61177788828901611616565b92509250509295509295909350565b60006020828403121561179857600080fd5b60006117a684828501611601565b91505092915050565b6000602082840312156117c157600080fd5b60006117cf84828501611660565b91505092915050565b6000602082840312156117ea57600080fd5b60006117f884828501611675565b91505092915050565b60006020828403121561181357600080fd5b60006118218482850161168a565b91505092915050565b60006020828403121561183c57600080fd5b600061184a8482850161169f565b91505092915050565b600061185f83836119a0565b60208301905092915050565b61187481611d34565b82525050565b61188381611d22565b82525050565b600061189482611bd3565b61189e8185611beb565b93506118a983611bc3565b8060005b838110156118da5781516118c18882611853565b97506118cc83611bde565b9250506001810190506118ad565b5085935050505092915050565b6118f081611d52565b82525050565b6118ff81611dd9565b82525050565b61190e81611dfd565b82525050565b6000611921602683611bfc565b915061192c82611eda565b604082019050919050565b6000611944601883611bfc565b915061194f82611f29565b602082019050919050565b6000611967602083611bfc565b915061197282611f52565b602082019050919050565b600061198a601283611bfc565b915061199582611f7b565b602082019050919050565b6119a981611dc2565b82525050565b6119b881611dc2565b82525050565b6119c781611e21565b82525050565b60006020820190506119e2600083018461187a565b92915050565b60006020820190506119fd600083018461186b565b92915050565b6000606082019050611a18600083018661187a565b611a25602083018561187a565b611a3260408301846119af565b949350505050565b6000604082019050611a4f600083018561187a565b611a5c60208301846119af565b9392505050565b60006020820190508181036000830152611a7d8184611889565b905092915050565b6000602082019050611a9a60008301846118e7565b92915050565b6000602082019050611ab560008301846118f6565b92915050565b6000602082019050611ad06000830184611905565b92915050565b60006020820190508181036000830152611aef81611914565b9050919050565b60006020820190508181036000830152611b0f81611937565b9050919050565b60006020820190508181036000830152611b2f8161195a565b9050919050565b60006020820190508181036000830152611b4f8161197d565b9050919050565b6000602082019050611b6b60008301846119af565b92915050565b6000606082019050611b8660008301866119af565b611b9360208301856119af565b611ba060408301846119af565b949350505050565b6000602082019050611bbd60008301846119be565b92915050565b6000819050602082019050919050565b600081519050919050565b6000602082019050919050565b600082825260208201905092915050565b600082825260208201905092915050565b6000611c1882611dc2565b9150611c2383611dc2565b9250827fffffffffffffffffffffffffffffffffffffffffffffffffffffffffffffffff03821115611c5857611c57611e7c565b5b828201905092915050565b6000611c6e82611dc2565b9150611c7983611dc2565b925082611c8957611c88611eab565b5b828204905092915050565b6000611c9f82611dc2565b9150611caa83611dc2565b9250817fffffffffffffffffffffffffffffffffffffffffffffffffffffffffffffffff0483118215151615611ce357611ce2611e7c565b5b828202905092915050565b6000611cf982611dc2565b9150611d0483611dc2565b925082821015611d1757611d16611e7c565b5b828203905092915050565b6000611d2d82611da2565b9050919050565b6000611d3f82611da2565b9050919050565b60008115159050919050565b60007fffffffff0000000000000000000000000000000000000000000000000000000082169050919050565b6000611d8982611d22565b9050919050565b6000611d9b82611d22565b9050919050565b600073ffffffffffffffffffffffffffffffffffffffff82169050919050565b6000819050919050565b600060ff82169050919050565b6000611de482611deb565b9050919050565b6000611df682611da2565b9050919050565b6000611e0882611e0f565b9050919050565b6000611e1a82611da2565b9050919050565b6000611e2c82611dcc565b9050919050565b6000611e3e82611dc2565b91507fffffffffffffffffffffffffffffffffffffffffffffffffffffffffffffffff821415611e7157611e70611e7c565b5b600182019050919050565b7f4e487b7100000000000000000000000000000000000000000000000000000000600052601160045260246000fd5b7f4e487b7100000000000000000000000000000000000000000000000000000000600052601260045260246000fd5b7f4f776e61626c653a206e6577206f776e657220697320746865207a65726f206160008201527f6464726573730000000000000000000000000000000000000000000000000000602082015250565b7f4465706f7369743a206e6f74206f776e696e67206974656d0000000000000000600082015250565b7f4f776e61626c653a2063616c6c6572206973206e6f7420746865206f776e6572600082015250565b7f57697468647261773a206e6f7420676f6f640000000000000000000000000000600082015250565b611fad81611d22565b8114611fb857600080fd5b50565b611fc481611d46565b8114611fcf57600080fd5b50565b611fdb81611d7e565b8114611fe657600080fd5b50565b611ff281611d90565b8114611ffd57600080fd5b50565b61200981611dc2565b811461201457600080fd5b50565b61202081611dcc565b811461202b57600080fd5b5056fea2646970667358221220185e3746a9fb9e1eb0a4960fe22fc275391056320e057efd6fd416a6ce9b9ff164736f6c63430008040033",
  "linkReferences": {},
  "deployedLinkReferences": {}
}