{
  "_format": "hh-sol-artifact-1",
  "contractName": "DatapointLoot",
  "sourceName": "contracts/DatapointLoot.sol",
  "abi": [
    {
      "inputs": [
        {
          "internalType": "contract PebbleToken",
          "name": "_pbl",
          "type": "address"
        },
        {
          "internalType": "address payable",
          "name": "_feeReceipient",
          "type": "address"
        }
      ],
      "stateMutability": "nonpayable",
      "type": "constructor"
    },
    {
      "anonymous": false,
      "inputs": [
        {
          "indexed": true,
          "internalType": "address",
          "name": "owner",
          "type": "address"
        },
        {
          "indexed": true,
          "internalType": "address",
          "name": "approved",
          "type": "address"
        },
        {
          "indexed": true,
          "internalType": "uint256",
          "name": "tokenId",
          "type": "uint256"
        }
      ],
      "name": "Approval",
      "type": "event"
    },
    {
      "anonymous": false,
      "inputs": [
        {
          "indexed": true,
          "internalType": "address",
          "name": "owner",
          "type": "address"
        },
        {
          "indexed": true,
          "internalType": "address",
          "name": "operator",
          "type": "address"
        },
        {
          "indexed": false,
          "internalType": "bool",
          "name": "approved",
          "type": "bool"
        }
      ],
      "name": "ApprovalForAll",
      "type": "event"
    },
    {
      "anonymous": false,
      "inputs": [
        {
          "indexed": true,
          "internalType": "address",
          "name": "previousOwner",
          "type": "address"
        },
        {
          "indexed": true,
          "internalType": "address",
          "name": "newOwner",
          "type": "address"
        }
      ],
      "name": "OwnershipTransferred",
      "type": "event"
    },
    {
      "anonymous": false,
      "inputs": [
        {
          "indexed": true,
          "internalType": "address",
          "name": "to",
          "type": "address"
        },
        {
          "indexed": true,
          "internalType": "uint256",
          "name": "tokenId",
          "type": "uint256"
        }
      ],
      "name": "TokenMinted",
      "type": "event"
    },
    {
      "anonymous": false,
      "inputs": [
        {
          "indexed": true,
          "internalType": "address",
          "name": "from",
          "type": "address"
        },
        {
          "indexed": true,
          "internalType": "address",
          "name": "to",
          "type": "address"
        },
        {
          "indexed": true,
          "internalType": "uint256",
          "name": "tokenId",
          "type": "uint256"
        }
      ],
      "name": "Transfer",
      "type": "event"
    },
    {
      "inputs": [
        {
          "internalType": "address",
          "name": "to",
          "type": "address"
        },
        {
          "internalType": "uint256",
          "name": "tokenId",
          "type": "uint256"
        }
      ],
      "name": "approve",
      "outputs": [],
      "stateMutability": "nonpayable",
      "type": "function"
    },
    {
      "inputs": [
        {
          "internalType": "address",
          "name": "owner",
          "type": "address"
        }
      ],
      "name": "balanceOf",
      "outputs": [
        {
          "internalType": "uint256",
          "name": "",
          "type": "uint256"
        }
      ],
      "stateMutability": "view",
      "type": "function"
    },
    {
      "inputs": [],
      "name": "burnMultiplier",
      "outputs": [
        {
          "internalType": "uint256",
          "name": "",
          "type": "uint256"
        }
      ],
      "stateMutability": "view",
      "type": "function"
    },
    {
      "inputs": [
        {
          "components": [
            {
              "internalType": "string",
              "name": "snr",
              "type": "string"
            },
            {
              "internalType": "string",
              "name": "vbat",
              "type": "string"
            },
            {
              "internalType": "string",
              "name": "latitude",
              "type": "string"
            },
            {
              "internalType": "string",
              "name": "longitude",
              "type": "string"
            },
            {
              "internalType": "string",
              "name": "gasResistance",
              "type": "string"
            },
            {
              "internalType": "string",
              "name": "temperature",
              "type": "string"
            },
            {
              "internalType": "string",
              "name": "pressure",
              "type": "string"
            },
            {
              "internalType": "string",
              "name": "humidity",
              "type": "string"
            },
            {
              "internalType": "string",
              "name": "light",
              "type": "string"
            },
            {
              "internalType": "string",
              "name": "gyroscope",
              "type": "string"
            },
            {
              "internalType": "string",
              "name": "accelerometer",
              "type": "string"
            },
            {
              "internalType": "string",
              "name": "timestamp",
              "type": "string"
            }
          ],
          "internalType": "struct DatapointLoot.DataPoint",
          "name": "dataPoint",
          "type": "tuple"
        }
      ],
      "name": "calculateHashPower",
      "outputs": [
        {
          "internalType": "uint16",
          "name": "hashPower",
          "type": "uint16"
        }
      ],
      "stateMutability": "pure",
      "type": "function"
    },
    {
      "inputs": [
        {
          "internalType": "uint256",
          "name": "tokenId",
          "type": "uint256"
        }
      ],
      "name": "getApproved",
      "outputs": [
        {
          "internalType": "address",
          "name": "",
          "type": "address"
        }
      ],
      "stateMutability": "view",
      "type": "function"
    },
    {
      "inputs": [
        {
          "internalType": "address",
          "name": "owner",
          "type": "address"
        },
        {
          "internalType": "address",
          "name": "operator",
          "type": "address"
        }
      ],
      "name": "isApprovedForAll",
      "outputs": [
        {
          "internalType": "bool",
          "name": "",
          "type": "bool"
        }
      ],
      "stateMutability": "view",
      "type": "function"
    },
    {
      "inputs": [],
      "name": "name",
      "outputs": [
        {
          "internalType": "string",
          "name": "",
          "type": "string"
        }
      ],
      "stateMutability": "view",
      "type": "function"
    },
    {
      "inputs": [],
      "name": "owner",
      "outputs": [
        {
          "internalType": "address",
          "name": "",
          "type": "address"
        }
      ],
      "stateMutability": "view",
      "type": "function"
    },
    {
      "inputs": [
        {
          "internalType": "uint256",
          "name": "tokenId",
          "type": "uint256"
        }
      ],
      "name": "ownerOf",
      "outputs": [
        {
          "internalType": "address",
          "name": "",
          "type": "address"
        }
      ],
      "stateMutability": "view",
      "type": "function"
    },
    {
      "inputs": [],
      "name": "pbl",
      "outputs": [
        {
          "internalType": "contract PebbleToken",
          "name": "",
          "type": "address"
        }
      ],
      "stateMutability": "view",
      "type": "function"
    },
    {
      "inputs": [],
      "name": "renounceOwnership",
      "outputs": [],
      "stateMutability": "nonpayable",
      "type": "function"
    },
    {
      "inputs": [
        {
          "internalType": "address",
          "name": "to",
          "type": "address"
        },
        {
          "components": [
            {
              "internalType": "string",
              "name": "snr",
              "type": "string"
            },
            {
              "internalType": "string",
              "name": "vbat",
              "type": "string"
            },
            {
              "internalType": "string",
              "name": "latitude",
              "type": "string"
            },
            {
              "internalType": "string",
              "name": "longitude",
              "type": "string"
            },
            {
              "internalType": "string",
              "name": "gasResistance",
              "type": "string"
            },
            {
              "internalType": "string",
              "name": "temperature",
              "type": "string"
            },
            {
              "internalType": "string",
              "name": "pressure",
              "type": "string"
            },
            {
              "internalType": "string",
              "name": "humidity",
              "type": "string"
            },
            {
              "internalType": "string",
              "name": "light",
              "type": "string"
            },
            {
              "internalType": "string",
              "name": "gyroscope",
              "type": "string"
            },
            {
              "internalType": "string",
              "name": "accelerometer",
              "type": "string"
            },
            {
              "internalType": "string",
              "name": "timestamp",
              "type": "string"
            }
          ],
          "internalType": "struct DatapointLoot.DataPoint",
          "name": "dataPoint",
          "type": "tuple"
        }
      ],
      "name": "safeMint",
      "outputs": [],
      "stateMutability": "nonpayable",
      "type": "function"
    },
    {
      "inputs": [
        {
          "internalType": "address",
          "name": "from",
          "type": "address"
        },
        {
          "internalType": "address",
          "name": "to",
          "type": "address"
        },
        {
          "internalType": "uint256",
          "name": "tokenId",
          "type": "uint256"
        }
      ],
      "name": "safeTransferFrom",
      "outputs": [],
      "stateMutability": "nonpayable",
      "type": "function"
    },
    {
      "inputs": [
        {
          "internalType": "address",
          "name": "from",
          "type": "address"
        },
        {
          "internalType": "address",
          "name": "to",
          "type": "address"
        },
        {
          "internalType": "uint256",
          "name": "tokenId",
          "type": "uint256"
        },
        {
          "internalType": "bytes",
          "name": "_data",
          "type": "bytes"
        }
      ],
      "name": "safeTransferFrom",
      "outputs": [],
      "stateMutability": "nonpayable",
      "type": "function"
    },
    {
      "inputs": [
        {
          "internalType": "address",
          "name": "operator",
          "type": "address"
        },
        {
          "internalType": "bool",
          "name": "approved",
          "type": "bool"
        }
      ],
      "name": "setApprovalForAll",
      "outputs": [],
      "stateMutability": "nonpayable",
      "type": "function"
    },
    {
      "inputs": [
        {
          "internalType": "bytes4",
          "name": "interfaceId",
          "type": "bytes4"
        }
      ],
      "name": "supportsInterface",
      "outputs": [
        {
          "internalType": "bool",
          "name": "",
          "type": "bool"
        }
      ],
      "stateMutability": "view",
      "type": "function"
    },
    {
      "inputs": [],
      "name": "symbol",
      "outputs": [
        {
          "internalType": "string",
          "name": "",
          "type": "string"
        }
      ],
      "stateMutability": "view",
      "type": "function"
    },
    {
      "inputs": [
        {
          "internalType": "uint256",
          "name": "index",
          "type": "uint256"
        }
      ],
      "name": "tokenByIndex",
      "outputs": [
        {
          "internalType": "uint256",
          "name": "",
          "type": "uint256"
        }
      ],
      "stateMutability": "view",
      "type": "function"
    },
    {
      "inputs": [
        {
          "internalType": "address",
          "name": "owner",
          "type": "address"
        },
        {
          "internalType": "uint256",
          "name": "index",
          "type": "uint256"
        }
      ],
      "name": "tokenOfOwnerByIndex",
      "outputs": [
        {
          "internalType": "uint256",
          "name": "",
          "type": "uint256"
        }
      ],
      "stateMutability": "view",
      "type": "function"
    },
    {
      "inputs": [
        {
          "internalType": "uint256",
          "name": "",
          "type": "uint256"
        }
      ],
      "name": "tokenToDataPoint",
      "outputs": [
        {
          "internalType": "string",
          "name": "snr",
          "type": "string"
        },
        {
          "internalType": "string",
          "name": "vbat",
          "type": "string"
        },
        {
          "internalType": "string",
          "name": "latitude",
          "type": "string"
        },
        {
          "internalType": "string",
          "name": "longitude",
          "type": "string"
        },
        {
          "internalType": "string",
          "name": "gasResistance",
          "type": "string"
        },
        {
          "internalType": "string",
          "name": "temperature",
          "type": "string"
        },
        {
          "internalType": "string",
          "name": "pressure",
          "type": "string"
        },
        {
          "internalType": "string",
          "name": "humidity",
          "type": "string"
        },
        {
          "internalType": "string",
          "name": "light",
          "type": "string"
        },
        {
          "internalType": "string",
          "name": "gyroscope",
          "type": "string"
        },
        {
          "internalType": "string",
          "name": "accelerometer",
          "type": "string"
        },
        {
          "internalType": "string",
          "name": "timestamp",
          "type": "string"
        }
      ],
      "stateMutability": "view",
      "type": "function"
    },
    {
      "inputs": [
        {
          "internalType": "uint256",
          "name": "",
          "type": "uint256"
        }
      ],
      "name": "tokenToHashPower",
      "outputs": [
        {
          "internalType": "uint16",
          "name": "",
          "type": "uint16"
        }
      ],
      "stateMutability": "view",
      "type": "function"
    },
    {
      "inputs": [
        {
          "internalType": "uint256",
          "name": "tokenId",
          "type": "uint256"
        }
      ],
      "name": "tokenURI",
      "outputs": [
        {
          "internalType": "string",
          "name": "",
          "type": "string"
        }
      ],
      "stateMutability": "view",
      "type": "function"
    },
    {
      "inputs": [],
      "name": "totalSupply",
      "outputs": [
        {
          "internalType": "uint256",
          "name": "",
          "type": "uint256"
        }
      ],
      "stateMutability": "view",
      "type": "function"
    },
    {
      "inputs": [
        {
          "internalType": "address",
          "name": "from",
          "type": "address"
        },
        {
          "internalType": "address",
          "name": "to",
          "type": "address"
        },
        {
          "internalType": "uint256",
          "name": "tokenId",
          "type": "uint256"
        }
      ],
      "name": "transferFrom",
      "outputs": [],
      "stateMutability": "nonpayable",
      "type": "function"
    },
    {
      "inputs": [
        {
          "internalType": "address",
          "name": "newOwner",
          "type": "address"
        }
      ],
      "name": "transferOwnership",
      "outputs": [],
      "stateMutability": "nonpayable",
      "type": "function"
    },
    {
      "inputs": [
        {
          "internalType": "uint256",
          "name": "_burnMultiplier",
          "type": "uint256"
        }
      ],
      "name": "updateBurnMultiplier",
      "outputs": [],
      "stateMutability": "nonpayable",
      "type": "function"
    },
    {
      "inputs": [
        {
          "internalType": "address payable",
          "name": "_feeReceipient",
          "type": "address"
        }
      ],
      "name": "updateFeeReceipient",
      "outputs": [],
      "stateMutability": "nonpayable",
      "type": "function"
    }
  ],
  "bytecode": "0x60806040523480156200001157600080fd5b50604051620062f4380380620062f483398181016040528101906200003791906200033c565b6040518060400160405280600e81526020017f44617461706f696e74204c6f6f740000000000000000000000000000000000008152506040518060400160405280600381526020017f444c5400000000000000000000000000000000000000000000000000000000008152508160009080519060200190620000bb9291906200025e565b508060019080519060200190620000d49291906200025e565b505050620000f7620000eb6200019060201b60201c565b6200019860201b60201c565b81600b60006101000a81548173ffffffffffffffffffffffffffffffffffffffff021916908373ffffffffffffffffffffffffffffffffffffffff160217905550670de0b6b3a7640000600c8190555080600d60006101000a81548173ffffffffffffffffffffffffffffffffffffffff021916908373ffffffffffffffffffffffffffffffffffffffff160217905550505062000472565b600033905090565b6000600a60009054906101000a900473ffffffffffffffffffffffffffffffffffffffff16905081600a60006101000a81548173ffffffffffffffffffffffffffffffffffffffff021916908373ffffffffffffffffffffffffffffffffffffffff1602179055508173ffffffffffffffffffffffffffffffffffffffff168173ffffffffffffffffffffffffffffffffffffffff167f8be0079c531659141344cd1fd0a4f28419497f9722a3daafe3b4186f6b6457e060405160405180910390a35050565b8280546200026c90620003d9565b90600052602060002090601f016020900481019282620002905760008555620002dc565b82601f10620002ab57805160ff1916838001178555620002dc565b82800160010185558215620002dc579182015b82811115620002db578251825591602001919060010190620002be565b5b509050620002eb9190620002ef565b5090565b5b808211156200030a576000816000905550600101620002f0565b5090565b6000815190506200031f816200043e565b92915050565b600081519050620003368162000458565b92915050565b600080604083850312156200035057600080fd5b6000620003608582860162000325565b925050602062000373858286016200030e565b9150509250929050565b60006200038a82620003b9565b9050919050565b60006200039e82620003b9565b9050919050565b6000620003b2826200037d565b9050919050565b600073ffffffffffffffffffffffffffffffffffffffff82169050919050565b60006002820490506001821680620003f257607f821691505b602082108114156200040957620004086200040f565b5b50919050565b7f4e487b7100000000000000000000000000000000000000000000000000000000600052602260045260246000fd5b620004498162000391565b81146200045557600080fd5b50565b6200046381620003a5565b81146200046f57600080fd5b50565b615e7280620004826000396000f3fe608060405234801561001057600080fd5b50600436106101a95760003560e01c80635e3d9df1116100f957806395d89b4111610097578063b88d4fde11610071578063b88d4fde146104eb578063c87b56dd14610507578063e985e9c514610537578063f2fde38b14610567576101a9565b806395d89b4114610495578063a22cb465146104b3578063a9278a99146104cf576101a9565b80636b791f58116100d35780636b791f581461040d57806370a082311461043d578063715018a61461046d5780638da5cb5b14610477576101a9565b80635e3d9df1146103915780636352211e146103c157806369468c37146103f1576101a9565b806323b872dd1161016657806342842e0e1161014057806342842e0e1461030b57806348083bba146103275780634f6ccce7146103455780635c42690a14610375576101a9565b806323b872dd146102a15780632f745c59146102bd5780633939a897146102ed576101a9565b806301ffc9a7146101ae57806305ad0f98146101de57806306fdde0314610219578063081812fc14610237578063095ea7b31461026757806318160ddd14610283575b600080fd5b6101c860048036038101906101c39190613bad565b610583565b6040516101d5919061478d565b60405180910390f35b6101f860048036038101906101f39190613c40565b610595565b6040516102109c9b9a999897969594939291906147e5565b60405180910390f35b610221610c55565b60405161022e91906147c3565b60405180910390f35b610251600480360381019061024c9190613c40565b610ce7565b60405161025e919061469d565b60405180910390f35b610281600480360381019061027c9190613b48565b610d6c565b005b61028b610e84565b6040516102989190614b4e565b60405180910390f35b6102bb60048036038101906102b691906139ee565b610e91565b005b6102d760048036038101906102d29190613b48565b610ef1565b6040516102e49190614b4e565b60405180910390f35b6102f5610f96565b6040516103029190614b4e565b60405180910390f35b610325600480360381019061032091906139ee565b610f9c565b005b61032f610fbc565b60405161033c91906147a8565b60405180910390f35b61035f600480360381019061035a9190613c40565b610fe2565b60405161036c9190614b4e565b60405180910390f35b61038f600480360381019061038a9190613989565b611079565b005b6103ab60048036038101906103a69190613c40565b611139565b6040516103b89190614b33565b60405180910390f35b6103db60048036038101906103d69190613c40565b61115a565b6040516103e8919061469d565b60405180910390f35b61040b60048036038101906104069190613af4565b61120c565b005b61042760048036038101906104229190613bff565b6116e6565b6040516104349190614b33565b60405180910390f35b61045760048036038101906104529190613960565b61191d565b6040516104649190614b4e565b60405180910390f35b6104756119d5565b005b61047f611a5d565b60405161048c919061469d565b60405180910390f35b61049d611a87565b6040516104aa91906147c3565b60405180910390f35b6104cd60048036038101906104c89190613ab8565b611b19565b005b6104e960048036038101906104e49190613c40565b611c9a565b005b61050560048036038101906105009190613a3d565b611d20565b005b610521600480360381019061051c9190613c40565b611d82565b60405161052e91906147c3565b60405180910390f35b610551600480360381019061054c91906139b2565b611fc9565b60405161055e919061478d565b60405180910390f35b610581600480360381019061057c9190613960565b61205d565b005b600061058e82612155565b9050919050565b600e6020528060005260406000206000915090508060000180546105b890614e9f565b80601f01602080910402602001604051908101604052809291908181526020018280546105e490614e9f565b80156106315780601f1061060657610100808354040283529160200191610631565b820191906000526020600020905b81548152906001019060200180831161061457829003601f168201915b50505050509080600101805461064690614e9f565b80601f016020809104026020016040519081016040528092919081815260200182805461067290614e9f565b80156106bf5780601f10610694576101008083540402835291602001916106bf565b820191906000526020600020905b8154815290600101906020018083116106a257829003601f168201915b5050505050908060020180546106d490614e9f565b80601f016020809104026020016040519081016040528092919081815260200182805461070090614e9f565b801561074d5780601f106107225761010080835404028352916020019161074d565b820191906000526020600020905b81548152906001019060200180831161073057829003601f168201915b50505050509080600301805461076290614e9f565b80601f016020809104026020016040519081016040528092919081815260200182805461078e90614e9f565b80156107db5780601f106107b0576101008083540402835291602001916107db565b820191906000526020600020905b8154815290600101906020018083116107be57829003601f168201915b5050505050908060040180546107f090614e9f565b80601f016020809104026020016040519081016040528092919081815260200182805461081c90614e9f565b80156108695780601f1061083e57610100808354040283529160200191610869565b820191906000526020600020905b81548152906001019060200180831161084c57829003601f168201915b50505050509080600501805461087e90614e9f565b80601f01602080910402602001604051908101604052809291908181526020018280546108aa90614e9f565b80156108f75780601f106108cc576101008083540402835291602001916108f7565b820191906000526020600020905b8154815290600101906020018083116108da57829003601f168201915b50505050509080600601805461090c90614e9f565b80601f016020809104026020016040519081016040528092919081815260200182805461093890614e9f565b80156109855780601f1061095a57610100808354040283529160200191610985565b820191906000526020600020905b81548152906001019060200180831161096857829003601f168201915b50505050509080600701805461099a90614e9f565b80601f01602080910402602001604051908101604052809291908181526020018280546109c690614e9f565b8015610a135780601f106109e857610100808354040283529160200191610a13565b820191906000526020600020905b8154815290600101906020018083116109f657829003601f168201915b505050505090806008018054610a2890614e9f565b80601f0160208091040260200160405190810160405280929190818152602001828054610a5490614e9f565b8015610aa15780601f10610a7657610100808354040283529160200191610aa1565b820191906000526020600020905b815481529060010190602001808311610a8457829003601f168201915b505050505090806009018054610ab690614e9f565b80601f0160208091040260200160405190810160405280929190818152602001828054610ae290614e9f565b8015610b2f5780601f10610b0457610100808354040283529160200191610b2f565b820191906000526020600020905b815481529060010190602001808311610b1257829003601f168201915b50505050509080600a018054610b4490614e9f565b80601f0160208091040260200160405190810160405280929190818152602001828054610b7090614e9f565b8015610bbd5780601f10610b9257610100808354040283529160200191610bbd565b820191906000526020600020905b815481529060010190602001808311610ba057829003601f168201915b50505050509080600b018054610bd290614e9f565b80601f0160208091040260200160405190810160405280929190818152602001828054610bfe90614e9f565b8015610c4b5780601f10610c2057610100808354040283529160200191610c4b565b820191906000526020600020905b815481529060010190602001808311610c2e57829003601f168201915b505050505090508c565b606060008054610c6490614e9f565b80601f0160208091040260200160405190810160405280929190818152602001828054610c9090614e9f565b8015610cdd5780601f10610cb257610100808354040283529160200191610cdd565b820191906000526020600020905b815481529060010190602001808311610cc057829003601f168201915b5050505050905090565b6000610cf2826121cf565b610d31576040517f08c379a0000000000000000000000000000000000000000000000000000000008152600401610d2890614a73565b60405180910390fd5b6004600083815260200190815260200160002060009054906101000a900473ffffffffffffffffffffffffffffffffffffffff169050919050565b6000610d778261115a565b90508073ffffffffffffffffffffffffffffffffffffffff168373ffffffffffffffffffffffffffffffffffffffff161415610de8576040517f08c379a0000000000000000000000000000000000000000000000000000000008152600401610ddf90614ad3565b60405180910390fd5b8073ffffffffffffffffffffffffffffffffffffffff16610e0761223b565b73ffffffffffffffffffffffffffffffffffffffff161480610e365750610e3581610e3061223b565b611fc9565b5b610e75576040517f08c379a0000000000000000000000000000000000000000000000000000000008152600401610e6c906149f3565b60405180910390fd5b610e7f8383612243565b505050565b6000600880549050905090565b610ea2610e9c61223b565b826122fc565b610ee1576040517f08c379a0000000000000000000000000000000000000000000000000000000008152600401610ed890614af3565b60405180910390fd5b610eec8383836123da565b505050565b6000610efc8361191d565b8210610f3d576040517f08c379a0000000000000000000000000000000000000000000000000000000008152600401610f34906148f3565b60405180910390fd5b600660008473ffffffffffffffffffffffffffffffffffffffff1673ffffffffffffffffffffffffffffffffffffffff168152602001908152602001600020600083815260200190815260200160002054905092915050565b600c5481565b610fb783838360405180602001604052806000815250611d20565b505050565b600b60009054906101000a900473ffffffffffffffffffffffffffffffffffffffff1681565b6000610fec610e84565b821061102d576040517f08c379a000000000000000000000000000000000000000000000000000000000815260040161102490614b13565b60405180910390fd5b60088281548110611067577f4e487b7100000000000000000000000000000000000000000000000000000000600052603260045260246000fd5b90600052602060002001549050919050565b61108161223b565b73ffffffffffffffffffffffffffffffffffffffff1661109f611a5d565b73ffffffffffffffffffffffffffffffffffffffff16146110f5576040517f08c379a00000000000000000000000000000000000000000000000000000000081526004016110ec90614a93565b60405180910390fd5b80600d60006101000a81548173ffffffffffffffffffffffffffffffffffffffff021916908373ffffffffffffffffffffffffffffffffffffffff16021790555050565b600f6020528060005260406000206000915054906101000a900461ffff1681565b6000806002600084815260200190815260200160002060009054906101000a900473ffffffffffffffffffffffffffffffffffffffff169050600073ffffffffffffffffffffffffffffffffffffffff168173ffffffffffffffffffffffffffffffffffffffff161415611203576040517f08c379a00000000000000000000000000000000000000000000000000000000081526004016111fa90614a33565b60405180910390fd5b80915050919050565b6000611217826116e6565b90506000611234600c548361ffff1661263690919063ffffffff16565b9050611251670de0b6b3a76400008261264c90919063ffffffff16565b600b60009054906101000a900473ffffffffffffffffffffffffffffffffffffffff1673ffffffffffffffffffffffffffffffffffffffff1663dd62ed3e61129761223b565b306040518363ffffffff1660e01b81526004016112b59291906146b8565b60206040518083038186803b1580156112cd57600080fd5b505afa1580156112e1573d6000803e3d6000fd5b505050506040513d601f19601f820116820180604052508101906113059190613c69565b1015611346576040517f08c379a000000000000000000000000000000000000000000000000000000000815260040161133d90614973565b60405180910390fd5b600b60009054906101000a900473ffffffffffffffffffffffffffffffffffffffff1673ffffffffffffffffffffffffffffffffffffffff166379cc679061138c61223b565b836040518363ffffffff1660e01b81526004016113aa929190614764565b600060405180830381600087803b1580156113c457600080fd5b505af11580156113d8573d6000803e3d6000fd5b50505050600b60009054906101000a900473ffffffffffffffffffffffffffffffffffffffff1673ffffffffffffffffffffffffffffffffffffffff166323b872dd61142261223b565b600d60009054906101000a900473ffffffffffffffffffffffffffffffffffffffff16670de0b6b3a76400006040518463ffffffff1660e01b815260040161146c939291906146e1565b602060405180830381600087803b15801561148657600080fd5b505af115801561149a573d6000803e3d6000fd5b505050506040513d601f19601f820116820180604052508101906114be9190613b84565b506114d2846114cd6010612662565b612670565b82600e60006114e16010612662565b8152602001908152602001600020600082015181600001908051906020019061150b929190613507565b506020820151816001019080519060200190611528929190613507565b506040820151816002019080519060200190611545929190613507565b506060820151816003019080519060200190611562929190613507565b50608082015181600401908051906020019061157f929190613507565b5060a082015181600501908051906020019061159c929190613507565b5060c08201518160060190805190602001906115b9929190613507565b5060e08201518160070190805190602001906115d6929190613507565b506101008201518160080190805190602001906115f4929190613507565b50610120820151816009019080519060200190611612929190613507565b5061014082015181600a019080519060200190611630929190613507565b5061016082015181600b01908051906020019061164e929190613507565b5090505081600f60006116616010612662565b815260200190815260200160002060006101000a81548161ffff021916908361ffff1602179055506116936010612662565b8473ffffffffffffffffffffffffffffffffffffffff167fb9144c96c86541f6fa89c9f2f02495cccf4b08cd6643e26d34ee00aa586558a860405160405180910390a36116e0601061268e565b50505050565b600080826000015183602001518460400151856060015186608001518760a001518860c001518960e001518a61010001518b61012001518c61014001518d61016001516040516020016117449c9b9a999897969594939291906143ba565b604051602081830303815290604052805190602001209050600061177e633b9aca008360e01c63ffffffff166126a490919063ffffffff16565b141561178e576102009150611917565b60006117b06305f5e1008360e01c63ffffffff166126a490919063ffffffff16565b14156117c0576101009150611916565b60006117e1629896808360e01c63ffffffff166126a490919063ffffffff16565b14156117f05760809150611915565b6000611811620f42408360e01c63ffffffff166126a490919063ffffffff16565b14156118205760409150611914565b6000611841620186a08360e01c63ffffffff166126a490919063ffffffff16565b14156118505760209150611913565b60006118706127108360e01c63ffffffff166126a490919063ffffffff16565b141561187f5760109150611912565b600061189f6103e88360e01c63ffffffff166126a490919063ffffffff16565b14156118ae5760089150611911565b60006118cd60648360e01c63ffffffff166126a490919063ffffffff16565b14156118dc5760049150611910565b60006118fb600a8360e01c63ffffffff166126a490919063ffffffff16565b141561190a576002915061190f565b600191505b5b5b5b5b5b5b5b5b50919050565b60008073ffffffffffffffffffffffffffffffffffffffff168273ffffffffffffffffffffffffffffffffffffffff16141561198e576040517f08c379a000000000000000000000000000000000000000000000000000000000815260040161198590614a13565b60405180910390fd5b600360008373ffffffffffffffffffffffffffffffffffffffff1673ffffffffffffffffffffffffffffffffffffffff168152602001908152602001600020549050919050565b6119dd61223b565b73ffffffffffffffffffffffffffffffffffffffff166119fb611a5d565b73ffffffffffffffffffffffffffffffffffffffff1614611a51576040517f08c379a0000000000000000000000000000000000000000000000000000000008152600401611a4890614a93565b60405180910390fd5b611a5b60006126ba565b565b6000600a60009054906101000a900473ffffffffffffffffffffffffffffffffffffffff16905090565b606060018054611a9690614e9f565b80601f0160208091040260200160405190810160405280929190818152602001828054611ac290614e9f565b8015611b0f5780601f10611ae457610100808354040283529160200191611b0f565b820191906000526020600020905b815481529060010190602001808311611af257829003601f168201915b5050505050905090565b611b2161223b565b73ffffffffffffffffffffffffffffffffffffffff168273ffffffffffffffffffffffffffffffffffffffff161415611b8f576040517f08c379a0000000000000000000000000000000000000000000000000000000008152600401611b86906149b3565b60405180910390fd5b8060056000611b9c61223b565b73ffffffffffffffffffffffffffffffffffffffff1673ffffffffffffffffffffffffffffffffffffffff16815260200190815260200160002060008473ffffffffffffffffffffffffffffffffffffffff1673ffffffffffffffffffffffffffffffffffffffff16815260200190815260200160002060006101000a81548160ff0219169083151502179055508173ffffffffffffffffffffffffffffffffffffffff16611c4961223b565b73ffffffffffffffffffffffffffffffffffffffff167f17307eab39ab6107e8899845ad3d59bd9653f200f220920489ca2b5937696c3183604051611c8e919061478d565b60405180910390a35050565b611ca261223b565b73ffffffffffffffffffffffffffffffffffffffff16611cc0611a5d565b73ffffffffffffffffffffffffffffffffffffffff1614611d16576040517f08c379a0000000000000000000000000000000000000000000000000000000008152600401611d0d90614a93565b60405180910390fd5b80600c8190555050565b611d31611d2b61223b565b836122fc565b611d70576040517f08c379a0000000000000000000000000000000000000000000000000000000008152600401611d6790614af3565b60405180910390fd5b611d7c84848484612780565b50505050565b60606000611d8f836127dc565b600e6000858152602001908152602001600020600001600e6000868152602001908152602001600020600101600e6000878152602001908152602001600020600201600e6000888152602001908152602001600020600301600e6000898152602001908152602001600020600401600e60008a8152602001908152602001600020600501600e60008b8152602001908152602001600020600601604051602001611e4098979695949392919061451c565b604051602081830303815290604052905080600e6000858152602001908152602001600020600701600e6000868152602001908152602001600020600801600e6000878152602001908152602001600020600901600e6000888152602001908152602001600020600a01600e6000898152602001908152602001600020600b01611eee600f60008b815260200190815260200160002060009054906101000a900461ffff1661ffff166127dc565b604051602001611f049796959493929190614460565b60405160208183030381529060405290506000611f20846127dc565b604051602001611f309190614670565b60405160208183030381529060405290506000604051602001611f5290614507565b60405160208183030381529060405290506000611f998383611f7387612989565b604051602001611f85939291906145f1565b604051602081830303815290604052612989565b905080604051602001611fac919061464e565b604051602081830303815290604052935083945050505050919050565b6000600560008473ffffffffffffffffffffffffffffffffffffffff1673ffffffffffffffffffffffffffffffffffffffff16815260200190815260200160002060008373ffffffffffffffffffffffffffffffffffffffff1673ffffffffffffffffffffffffffffffffffffffff16815260200190815260200160002060009054906101000a900460ff16905092915050565b61206561223b565b73ffffffffffffffffffffffffffffffffffffffff16612083611a5d565b73ffffffffffffffffffffffffffffffffffffffff16146120d9576040517f08c379a00000000000000000000000000000000000000000000000000000000081526004016120d090614a93565b60405180910390fd5b600073ffffffffffffffffffffffffffffffffffffffff168173ffffffffffffffffffffffffffffffffffffffff161415612149576040517f08c379a000000000000000000000000000000000000000000000000000000000815260040161214090614933565b60405180910390fd5b612152816126ba565b50565b60007f780e9d63000000000000000000000000000000000000000000000000000000007bffffffffffffffffffffffffffffffffffffffffffffffffffffffff1916827bffffffffffffffffffffffffffffffffffffffffffffffffffffffff191614806121c857506121c782612b47565b5b9050919050565b60008073ffffffffffffffffffffffffffffffffffffffff166002600084815260200190815260200160002060009054906101000a900473ffffffffffffffffffffffffffffffffffffffff1673ffffffffffffffffffffffffffffffffffffffff1614159050919050565b600033905090565b816004600083815260200190815260200160002060006101000a81548173ffffffffffffffffffffffffffffffffffffffff021916908373ffffffffffffffffffffffffffffffffffffffff160217905550808273ffffffffffffffffffffffffffffffffffffffff166122b68361115a565b73ffffffffffffffffffffffffffffffffffffffff167f8c5be1e5ebec7d5bd14f71427d1e84f3dd0314c0f7b2291e5b200ac8c7c3b92560405160405180910390a45050565b6000612307826121cf565b612346576040517f08c379a000000000000000000000000000000000000000000000000000000000815260040161233d906149d3565b60405180910390fd5b60006123518361115a565b90508073ffffffffffffffffffffffffffffffffffffffff168473ffffffffffffffffffffffffffffffffffffffff1614806123c057508373ffffffffffffffffffffffffffffffffffffffff166123a884610ce7565b73ffffffffffffffffffffffffffffffffffffffff16145b806123d157506123d08185611fc9565b5b91505092915050565b8273ffffffffffffffffffffffffffffffffffffffff166123fa8261115a565b73ffffffffffffffffffffffffffffffffffffffff1614612450576040517f08c379a000000000000000000000000000000000000000000000000000000000815260040161244790614ab3565b60405180910390fd5b600073ffffffffffffffffffffffffffffffffffffffff168273ffffffffffffffffffffffffffffffffffffffff1614156124c0576040517f08c379a00000000000000000000000000000000000000000000000000000000081526004016124b790614993565b60405180910390fd5b6124cb838383612c29565b6124d6600082612243565b6001600360008573ffffffffffffffffffffffffffffffffffffffff1673ffffffffffffffffffffffffffffffffffffffff16815260200190815260200160002060008282546125269190614d29565b925050819055506001600360008473ffffffffffffffffffffffffffffffffffffffff1673ffffffffffffffffffffffffffffffffffffffff168152602001908152602001600020600082825461257d9190614c48565b92505081905550816002600083815260200190815260200160002060006101000a81548173ffffffffffffffffffffffffffffffffffffffff021916908373ffffffffffffffffffffffffffffffffffffffff160217905550808273ffffffffffffffffffffffffffffffffffffffff168473ffffffffffffffffffffffffffffffffffffffff167fddf252ad1be2c89b69c2b068fc378daa952ba7f163c4a11628f55a4df523b3ef60405160405180910390a4505050565b600081836126449190614ccf565b905092915050565b6000818361265a9190614c48565b905092915050565b600081600001549050919050565b61268a828260405180602001604052806000815250612c39565b5050565b6001816000016000828254019250508190555050565b600081836126b29190614f4b565b905092915050565b6000600a60009054906101000a900473ffffffffffffffffffffffffffffffffffffffff16905081600a60006101000a81548173ffffffffffffffffffffffffffffffffffffffff021916908373ffffffffffffffffffffffffffffffffffffffff1602179055508173ffffffffffffffffffffffffffffffffffffffff168173ffffffffffffffffffffffffffffffffffffffff167f8be0079c531659141344cd1fd0a4f28419497f9722a3daafe3b4186f6b6457e060405160405180910390a35050565b61278b8484846123da565b61279784848484612c94565b6127d6576040517f08c379a00000000000000000000000000000000000000000000000000000000081526004016127cd90614913565b60405180910390fd5b50505050565b60606000821415612824576040518060400160405280600181526020017f30000000000000000000000000000000000000000000000000000000000000008152509050612984565b600082905060005b6000821461285657808061283f90614f02565b915050600a8261284f9190614c9e565b915061282c565b60008167ffffffffffffffff811115612898577f4e487b7100000000000000000000000000000000000000000000000000000000600052604160045260246000fd5b6040519080825280601f01601f1916602001820160405280156128ca5781602001600182028036833780820191505090505b5090505b6000851461297d576001826128e39190614d29565b9150600a856128f29190614f4b565b60306128fe9190614c48565b60f81b81838151811061293a577f4e487b7100000000000000000000000000000000000000000000000000000000600052603260045260246000fd5b60200101907effffffffffffffffffffffffffffffffffffffffffffffffffffffffffffff1916908160001a905350600a856129769190614c9e565b94506128ce565b8093505050505b919050565b606060008251905060008114156129b25760405180602001604052806000815250915050612b42565b600060036002836129c39190614c48565b6129cd9190614c9e565b60046129d99190614ccf565b905060006020826129ea9190614c48565b67ffffffffffffffff811115612a29577f4e487b7100000000000000000000000000000000000000000000000000000000600052604160045260246000fd5b6040519080825280601f01601f191660200182016040528015612a5b5781602001600182028036833780820191505090505b5090506000604051806060016040528060408152602001615dfd604091399050600181016020830160005b86811015612aff5760038101905062ffffff818a015116603f8160121c168401518060081b905060ff603f83600c1c1686015116810190508060081b905060ff603f8360061c1686015116810190508060081b905060ff603f831686015116810190508060e01b90508084526004840193505050612a86565b506003860660018114612b195760028114612b2957612b34565b613d3d60f01b6002830352612b34565b603d60f81b60018303525b508484525050819450505050505b919050565b60007f80ac58cd000000000000000000000000000000000000000000000000000000007bffffffffffffffffffffffffffffffffffffffffffffffffffffffff1916827bffffffffffffffffffffffffffffffffffffffffffffffffffffffff19161480612c1257507f5b5e139f000000000000000000000000000000000000000000000000000000007bffffffffffffffffffffffffffffffffffffffffffffffffffffffff1916827bffffffffffffffffffffffffffffffffffffffffffffffffffffffff1916145b80612c225750612c2182612e2b565b5b9050919050565b612c34838383612e95565b505050565b612c438383612fa9565b612c506000848484612c94565b612c8f576040517f08c379a0000000000000000000000000000000000000000000000000000000008152600401612c8690614913565b60405180910390fd5b505050565b6000612cb58473ffffffffffffffffffffffffffffffffffffffff16613177565b15612e1e578373ffffffffffffffffffffffffffffffffffffffff1663150b7a02612cde61223b565b8786866040518563ffffffff1660e01b8152600401612d009493929190614718565b602060405180830381600087803b158015612d1a57600080fd5b505af1925050508015612d4b57506040513d601f19601f82011682018060405250810190612d489190613bd6565b60015b612dce573d8060008114612d7b576040519150601f19603f3d011682016040523d82523d6000602084013e612d80565b606091505b50600081511415612dc6576040517f08c379a0000000000000000000000000000000000000000000000000000000008152600401612dbd90614913565b60405180910390fd5b805181602001fd5b63150b7a0260e01b7bffffffffffffffffffffffffffffffffffffffffffffffffffffffff1916817bffffffffffffffffffffffffffffffffffffffffffffffffffffffff191614915050612e23565b600190505b949350505050565b60007f01ffc9a7000000000000000000000000000000000000000000000000000000007bffffffffffffffffffffffffffffffffffffffffffffffffffffffff1916827bffffffffffffffffffffffffffffffffffffffffffffffffffffffff1916149050919050565b612ea083838361318a565b600073ffffffffffffffffffffffffffffffffffffffff168373ffffffffffffffffffffffffffffffffffffffff161415612ee357612ede8161318f565b612f22565b8173ffffffffffffffffffffffffffffffffffffffff168373ffffffffffffffffffffffffffffffffffffffff1614612f2157612f2083826131d8565b5b5b600073ffffffffffffffffffffffffffffffffffffffff168273ffffffffffffffffffffffffffffffffffffffff161415612f6557612f6081613345565b612fa4565b8273ffffffffffffffffffffffffffffffffffffffff168273ffffffffffffffffffffffffffffffffffffffff1614612fa357612fa28282613488565b5b5b505050565b600073ffffffffffffffffffffffffffffffffffffffff168273ffffffffffffffffffffffffffffffffffffffff161415613019576040517f08c379a000000000000000000000000000000000000000000000000000000000815260040161301090614a53565b60405180910390fd5b613022816121cf565b15613062576040517f08c379a000000000000000000000000000000000000000000000000000000000815260040161305990614953565b60405180910390fd5b61306e60008383612c29565b6001600360008473ffffffffffffffffffffffffffffffffffffffff1673ffffffffffffffffffffffffffffffffffffffff16815260200190815260200160002060008282546130be9190614c48565b92505081905550816002600083815260200190815260200160002060006101000a81548173ffffffffffffffffffffffffffffffffffffffff021916908373ffffffffffffffffffffffffffffffffffffffff160217905550808273ffffffffffffffffffffffffffffffffffffffff16600073ffffffffffffffffffffffffffffffffffffffff167fddf252ad1be2c89b69c2b068fc378daa952ba7f163c4a11628f55a4df523b3ef60405160405180910390a45050565b600080823b905060008111915050919050565b505050565b6008805490506009600083815260200190815260200160002081905550600881908060018154018082558091505060019003906000526020600020016000909190919091505550565b600060016131e58461191d565b6131ef9190614d29565b90506000600760008481526020019081526020016000205490508181146132d4576000600660008673ffffffffffffffffffffffffffffffffffffffff1673ffffffffffffffffffffffffffffffffffffffff168152602001908152602001600020600084815260200190815260200160002054905080600660008773ffffffffffffffffffffffffffffffffffffffff1673ffffffffffffffffffffffffffffffffffffffff168152602001908152602001600020600084815260200190815260200160002081905550816007600083815260200190815260200160002081905550505b6007600084815260200190815260200160002060009055600660008573ffffffffffffffffffffffffffffffffffffffff1673ffffffffffffffffffffffffffffffffffffffff16815260200190815260200160002060008381526020019081526020016000206000905550505050565b600060016008805490506133599190614d29565b90506000600960008481526020019081526020016000205490506000600883815481106133af577f4e487b7100000000000000000000000000000000000000000000000000000000600052603260045260246000fd5b9060005260206000200154905080600883815481106133f7577f4e487b7100000000000000000000000000000000000000000000000000000000600052603260045260246000fd5b90600052602060002001819055508160096000838152602001908152602001600020819055506009600085815260200190815260200160002060009055600880548061346c577f4e487b7100000000000000000000000000000000000000000000000000000000600052603160045260246000fd5b6001900381819060005260206000200160009055905550505050565b60006134938361191d565b905081600660008573ffffffffffffffffffffffffffffffffffffffff1673ffffffffffffffffffffffffffffffffffffffff168152602001908152602001600020600083815260200190815260200160002081905550806007600084815260200190815260200160002081905550505050565b82805461351390614e9f565b90600052602060002090601f016020900481019282613535576000855561357c565b82601f1061354e57805160ff191683800117855561357c565b8280016001018555821561357c579182015b8281111561357b578251825591602001919060010190613560565b5b509050613589919061358d565b5090565b5b808211156135a657600081600090555060010161358e565b5090565b60006135bd6135b884614b8e565b614b69565b9050828152602081018484840111156135d557600080fd5b6135e0848285614e5d565b509392505050565b60006135fb6135f684614bbf565b614b69565b90508281526020810184848401111561361357600080fd5b61361e848285614e5d565b509392505050565b60008135905061363581615d89565b92915050565b60008135905061364a81615da0565b92915050565b60008135905061365f81615db7565b92915050565b60008151905061367481615db7565b92915050565b60008135905061368981615dce565b92915050565b60008151905061369e81615dce565b92915050565b600082601f8301126136b557600080fd5b81356136c58482602086016135aa565b91505092915050565b600082601f8301126136df57600080fd5b81356136ef8482602086016135e8565b91505092915050565b6000610180828403121561370b57600080fd5b613716610180614b69565b9050600082013567ffffffffffffffff81111561373257600080fd5b61373e848285016136ce565b600083015250602082013567ffffffffffffffff81111561375e57600080fd5b61376a848285016136ce565b602083015250604082013567ffffffffffffffff81111561378a57600080fd5b613796848285016136ce565b604083015250606082013567ffffffffffffffff8111156137b657600080fd5b6137c2848285016136ce565b606083015250608082013567ffffffffffffffff8111156137e257600080fd5b6137ee848285016136ce565b60808301525060a082013567ffffffffffffffff81111561380e57600080fd5b61381a848285016136ce565b60a08301525060c082013567ffffffffffffffff81111561383a57600080fd5b613846848285016136ce565b60c08301525060e082013567ffffffffffffffff81111561386657600080fd5b613872848285016136ce565b60e08301525061010082013567ffffffffffffffff81111561389357600080fd5b61389f848285016136ce565b6101008301525061012082013567ffffffffffffffff8111156138c157600080fd5b6138cd848285016136ce565b6101208301525061014082013567ffffffffffffffff8111156138ef57600080fd5b6138fb848285016136ce565b6101408301525061016082013567ffffffffffffffff81111561391d57600080fd5b613929848285016136ce565b6101608301525092915050565b60008135905061394581615de5565b92915050565b60008151905061395a81615de5565b92915050565b60006020828403121561397257600080fd5b600061398084828501613626565b91505092915050565b60006020828403121561399b57600080fd5b60006139a98482850161363b565b91505092915050565b600080604083850312156139c557600080fd5b60006139d385828601613626565b92505060206139e485828601613626565b9150509250929050565b600080600060608486031215613a0357600080fd5b6000613a1186828701613626565b9350506020613a2286828701613626565b9250506040613a3386828701613936565b9150509250925092565b60008060008060808587031215613a5357600080fd5b6000613a6187828801613626565b9450506020613a7287828801613626565b9350506040613a8387828801613936565b925050606085013567ffffffffffffffff811115613aa057600080fd5b613aac878288016136a4565b91505092959194509250565b60008060408385031215613acb57600080fd5b6000613ad985828601613626565b9250506020613aea85828601613650565b9150509250929050565b60008060408385031215613b0757600080fd5b6000613b1585828601613626565b925050602083013567ffffffffffffffff811115613b3257600080fd5b613b3e858286016136f8565b9150509250929050565b60008060408385031215613b5b57600080fd5b6000613b6985828601613626565b9250506020613b7a85828601613936565b9150509250929050565b600060208284031215613b9657600080fd5b6000613ba484828501613665565b91505092915050565b600060208284031215613bbf57600080fd5b6000613bcd8482850161367a565b91505092915050565b600060208284031215613be857600080fd5b6000613bf68482850161368f565b91505092915050565b600060208284031215613c1157600080fd5b600082013567ffffffffffffffff811115613c2b57600080fd5b613c37848285016136f8565b91505092915050565b600060208284031215613c5257600080fd5b6000613c6084828501613936565b91505092915050565b600060208284031215613c7b57600080fd5b6000613c898482850161394b565b91505092915050565b613c9b81614df1565b82525050565b613caa81614d5d565b82525050565b613cb981614d81565b82525050565b6000613cca82614c05565b613cd48185614c1b565b9350613ce4818560208601614e6c565b613ced81615038565b840191505092915050565b613d0181614e03565b82525050565b613d1081614e27565b82525050565b6000613d2182614c10565b613d2b8185614c2c565b9350613d3b818560208601614e6c565b613d4481615038565b840191505092915050565b6000613d5a82614c10565b613d648185614c3d565b9350613d74818560208601614e6c565b80840191505092915050565b60008154613d8d81614e9f565b613d978186614c3d565b94506001821660008114613db25760018114613dc357613df6565b60ff19831686528186019350613df6565b613dcc85614bf0565b60005b83811015613dee57815481890152600182019150602081019050613dcf565b838801955050505b50505092915050565b6000613e0c602b83614c2c565b9150613e1782615049565b604082019050919050565b6000613e2f603283614c2c565b9150613e3a82615098565b604082019050919050565b6000613e52602e83614c3d565b9150613e5d826150e7565b602e82019050919050565b6000613e75603983614c3d565b9150613e8082615136565b603982019050919050565b6000613e98603483614c3d565b9150613ea382615185565b603482019050919050565b6000613ebb602683614c2c565b9150613ec6826151d4565b604082019050919050565b6000613ede601c83614c2c565b9150613ee982615223565b602082019050919050565b6000613f01602583614c3d565b9150613f0c8261524c565b602582019050919050565b6000613f2460f583614c3d565b9150613f2f8261529b565b60f582019050919050565b6000613f47603883614c3d565b9150613f52826153ce565b603882019050919050565b6000613f6a602d83614c2c565b9150613f758261541d565b604082019050919050565b6000613f8d600183614c3d565b9150613f988261546c565b600182019050919050565b6000613fb161010d83614c3d565b9150613fbc82615495565b61010d82019050919050565b6000613fd5602483614c2c565b9150613fe0826155ef565b604082019050919050565b6000613ff8601983614c2c565b91506140038261563e565b602082019050919050565b600061401b603283614c3d565b915061402682615667565b603282019050919050565b600061403e603483614c3d565b9150614049826156b6565b603482019050919050565b6000614061602c83614c2c565b915061406c82615705565b604082019050919050565b6000614084603383614c3d565b915061408f82615754565b603382019050919050565b60006140a7603883614c2c565b91506140b2826157a3565b604082019050919050565b60006140ca600183614c3d565b91506140d5826157f2565b600182019050919050565b60006140ed602a83614c2c565b91506140f88261581b565b604082019050919050565b6000614110602983614c2c565b915061411b8261586a565b604082019050919050565b6000614133603483614c3d565b915061413e826158b9565b603482019050919050565b6000614156605b83614c3d565b915061416182615908565b605b82019050919050565b6000614179600283614c3d565b91506141848261597d565b600282019050919050565b600061419c602083614c2c565b91506141a7826159a6565b602082019050919050565b60006141bf602d83614c3d565b91506141ca826159cf565b602d82019050919050565b60006141e2602c83614c2c565b91506141ed82615a1e565b604082019050919050565b6000614205602083614c2c565b915061421082615a6d565b602082019050919050565b6000614228602983614c2c565b915061423382615a96565b604082019050919050565b600061424b600183614c3d565b915061425682615ae5565b600182019050919050565b600061426e602183614c2c565b915061427982615b0e565b604082019050919050565b6000614291601d83614c3d565b915061429c82615b5d565b601d82019050919050565b60006142b4603183614c2c565b91506142bf82615b86565b604082019050919050565b60006142d7603083614c3d565b91506142e282615bd5565b603082019050919050565b60006142fa602c83614c2c565b915061430582615c24565b604082019050919050565b600061431d603883614c3d565b915061432882615c73565b603882019050919050565b6000614340603383614c3d565b915061434b82615cc2565b603382019050919050565b6000614363601983614c3d565b915061436e82615d11565b601982019050919050565b6000614386603683614c3d565b915061439182615d3a565b603682019050919050565b6143a581614db9565b82525050565b6143b481614de7565b82525050565b60006143c6828f613d4f565b91506143d2828e613d4f565b91506143de828d613d4f565b91506143ea828c613d4f565b91506143f6828b613d4f565b9150614402828a613d4f565b915061440e8289613d4f565b915061441a8288613d4f565b91506144268287613d4f565b91506144328286613d4f565b915061443e8285613d4f565b915061444a8284613d4f565b91508190509d9c50505050505050505050505050565b600061446c828a613d4f565b91506144788289613d80565b9150614483826142ca565b915061448f8288613d80565b915061449a82614031565b91506144a68287613d80565b91506144b182614310565b91506144bd8286613d80565b91506144c882613e8b565b91506144d48285613d80565b91506144df82613f3a565b91506144eb8284613d4f565b91506144f682614149565b915081905098975050505050505050565b600061451282613f17565b9150819050919050565b600061452782613fa3565b9150614533828b613d4f565b915061453e826141b2565b915061454a828a613d80565b915061455582613e45565b91506145618289613d80565b915061456c8261400e565b91506145788288613d80565b915061458382614126565b915061458f8287613d80565b915061459a82613e68565b91506145a68286613d80565b91506145b182614379565b91506145bd8285613d80565b91506145c882614333565b91506145d48284613d80565b91506145df82614077565b91508190509998505050505050505050565b60006145fc8261423e565b91506146088286613d4f565b915061461382613f80565b915061461f8285613d4f565b915061462a82613ef4565b91506146368284613d4f565b91506146418261416c565b9150819050949350505050565b600061465982614284565b91506146658284613d4f565b915081905092915050565b600061467b82614356565b91506146878284613d4f565b9150614692826140bd565b915081905092915050565b60006020820190506146b26000830184613ca1565b92915050565b60006040820190506146cd6000830185613ca1565b6146da6020830184613ca1565b9392505050565b60006060820190506146f66000830186613ca1565b6147036020830185613c92565b6147106040830184613d07565b949350505050565b600060808201905061472d6000830187613ca1565b61473a6020830186613ca1565b61474760408301856143ab565b81810360608301526147598184613cbf565b905095945050505050565b60006040820190506147796000830185613ca1565b61478660208301846143ab565b9392505050565b60006020820190506147a26000830184613cb0565b92915050565b60006020820190506147bd6000830184613cf8565b92915050565b600060208201905081810360008301526147dd8184613d16565b905092915050565b6000610180820190508181036000830152614800818f613d16565b90508181036020830152614814818e613d16565b90508181036040830152614828818d613d16565b9050818103606083015261483c818c613d16565b90508181036080830152614850818b613d16565b905081810360a0830152614864818a613d16565b905081810360c08301526148788189613d16565b905081810360e083015261488c8188613d16565b90508181036101008301526148a18187613d16565b90508181036101208301526148b68186613d16565b90508181036101408301526148cb8185613d16565b90508181036101608301526148e08184613d16565b90509d9c50505050505050505050505050565b6000602082019050818103600083015261490c81613dff565b9050919050565b6000602082019050818103600083015261492c81613e22565b9050919050565b6000602082019050818103600083015261494c81613eae565b9050919050565b6000602082019050818103600083015261496c81613ed1565b9050919050565b6000602082019050818103600083015261498c81613f5d565b9050919050565b600060208201905081810360008301526149ac81613fc8565b9050919050565b600060208201905081810360008301526149cc81613feb565b9050919050565b600060208201905081810360008301526149ec81614054565b9050919050565b60006020820190508181036000830152614a0c8161409a565b9050919050565b60006020820190508181036000830152614a2c816140e0565b9050919050565b60006020820190508181036000830152614a4c81614103565b9050919050565b60006020820190508181036000830152614a6c8161418f565b9050919050565b60006020820190508181036000830152614a8c816141d5565b9050919050565b60006020820190508181036000830152614aac816141f8565b9050919050565b60006020820190508181036000830152614acc8161421b565b9050919050565b60006020820190508181036000830152614aec81614261565b9050919050565b60006020820190508181036000830152614b0c816142a7565b9050919050565b60006020820190508181036000830152614b2c816142ed565b9050919050565b6000602082019050614b48600083018461439c565b92915050565b6000602082019050614b6360008301846143ab565b92915050565b6000614b73614b84565b9050614b7f8282614ed1565b919050565b6000604051905090565b600067ffffffffffffffff821115614ba957614ba8615009565b5b614bb282615038565b9050602081019050919050565b600067ffffffffffffffff821115614bda57614bd9615009565b5b614be382615038565b9050602081019050919050565b60008190508160005260206000209050919050565b600081519050919050565b600081519050919050565b600082825260208201905092915050565b600082825260208201905092915050565b600081905092915050565b6000614c5382614de7565b9150614c5e83614de7565b9250827fffffffffffffffffffffffffffffffffffffffffffffffffffffffffffffffff03821115614c9357614c92614f7c565b5b828201905092915050565b6000614ca982614de7565b9150614cb483614de7565b925082614cc457614cc3614fab565b5b828204905092915050565b6000614cda82614de7565b9150614ce583614de7565b9250817fffffffffffffffffffffffffffffffffffffffffffffffffffffffffffffffff0483118215151615614d1e57614d1d614f7c565b5b828202905092915050565b6000614d3482614de7565b9150614d3f83614de7565b925082821015614d5257614d51614f7c565b5b828203905092915050565b6000614d6882614dc7565b9050919050565b6000614d7a82614dc7565b9050919050565b60008115159050919050565b60007fffffffff0000000000000000000000000000000000000000000000000000000082169050919050565b600061ffff82169050919050565b600073ffffffffffffffffffffffffffffffffffffffff82169050919050565b6000819050919050565b6000614dfc82614e39565b9050919050565b6000614e0e82614e15565b9050919050565b6000614e2082614dc7565b9050919050565b6000614e3282614de7565b9050919050565b6000614e4482614e4b565b9050919050565b6000614e5682614dc7565b9050919050565b82818337600083830152505050565b60005b83811015614e8a578082015181840152602081019050614e6f565b83811115614e99576000848401525b50505050565b60006002820490506001821680614eb757607f821691505b60208210811415614ecb57614eca614fda565b5b50919050565b614eda82615038565b810181811067ffffffffffffffff82111715614ef957614ef8615009565b5b80604052505050565b6000614f0d82614de7565b91507fffffffffffffffffffffffffffffffffffffffffffffffffffffffffffffffff821415614f4057614f3f614f7c565b5b600182019050919050565b6000614f5682614de7565b9150614f6183614de7565b925082614f7157614f70614fab565b5b828206905092915050565b7f4e487b7100000000000000000000000000000000000000000000000000000000600052601160045260246000fd5b7f4e487b7100000000000000000000000000000000000000000000000000000000600052601260045260246000fd5b7f4e487b7100000000000000000000000000000000000000000000000000000000600052602260045260246000fd5b7f4e487b7100000000000000000000000000000000000000000000000000000000600052604160045260246000fd5b6000601f19601f8301169050919050565b7f455243373231456e756d657261626c653a206f776e657220696e646578206f7560008201527f74206f6620626f756e6473000000000000000000000000000000000000000000602082015250565b7f4552433732313a207472616e7366657220746f206e6f6e20455243373231526560008201527f63656976657220696d706c656d656e7465720000000000000000000000000000602082015250565b7f3c2f746578743e3c7465787420783d2231302220793d2236302220636c61737360008201527f3d2262617365223e766261743a20000000000000000000000000000000000000602082015250565b7f3c2f746578743e3c7465787420783d2231302220793d223132302220636c617360008201527f733d2262617365223e67617320726573697374616e63653a2000000000000000602082015250565b7f3c2f746578743e3c7465787420783d2231302220793d223236302220636c617360008201527f733d2262617365223e74696d657374616d703a20000000000000000000000000602082015250565b7f4f776e61626c653a206e6577206f776e657220697320746865207a65726f206160008201527f6464726573730000000000000000000000000000000000000000000000000000602082015250565b7f4552433732313a20746f6b656e20616c7265616479206d696e74656400000000600082015250565b7f2c22696d616765223a2022646174613a696d6167652f7376672b786d6c3b626160008201527f736536342c000000000000000000000000000000000000000000000000000000602082015250565b7f226465736372697074696f6e223a202244617461706f696e74204c6f6f74206960008201527f73206120766572696669656420616e642074727573746564207265616c20776f60208201527f726c642064617461706f696e742073746f726564206f6e20636861696e2e205360408201527f746174732c20696d616765732c20616e64206f746865722066756e6374696f6e60608201527f616c6974792061726520696e74656e74696f6e616c6c79206f6d69747465642060808201527f666f72206f746865727320746f20696e746572707265742e204665656c20667260a08201527f656520746f2075736520506562626c652064617461706f696e74204c6f6f742060c08201527f696e20616e792077617920796f752077616e742e22000000000000000000000060e082015250565b7f3c2f746578743e3c7465787420783d2231302220793d223238302220636c617360008201527f733d2262617365223e64696767696e6720706f7765723a200000000000000000602082015250565b7f4d696e74696e673a20696e73756666696369656e742062616c616e636520666f60008201527f72206d696e74696e67204e465400000000000000000000000000000000000000602082015250565b7f2c00000000000000000000000000000000000000000000000000000000000000600082015250565b7f3c73766720786d6c6e733d22687474703a2f2f7777772e77332e6f72672f323060008201527f30302f73766722207072657365727665417370656374526174696f3d22784d6960208201527f6e594d696e206d656574222076696577426f783d22302030203335302033353060408201527f223e3c7374796c653e2e62617365207b2066696c6c3a2077686974653b20666f60608201527f6e742d66616d696c793a2073657269663b20666f6e742d73697a653a2031347060808201527f783b207d3c2f7374796c653e3c726563742077696474683d223130302522206860a08201527f65696768743d2231303025222066696c6c3d22626c61636b22202f3e3c74657860c08201527f7420783d2231302220793d2232302220636c6173733d2262617365223e44617460e08201527f61706f696e74204c6f6f7420230000000000000000000000000000000000000061010082015250565b7f4552433732313a207472616e7366657220746f20746865207a65726f2061646460008201527f7265737300000000000000000000000000000000000000000000000000000000602082015250565b7f4552433732313a20617070726f766520746f2063616c6c657200000000000000600082015250565b7f3c2f746578743e3c7465787420783d2231302220793d2238302220636c61737360008201527f3d2262617365223e6c617469747564653a200000000000000000000000000000602082015250565b7f3c2f746578743e3c7465787420783d2231302220793d223232302220636c617360008201527f733d2262617365223e6779726f73636f70653a20000000000000000000000000602082015250565b7f4552433732313a206f70657261746f7220717565727920666f72206e6f6e657860008201527f697374656e7420746f6b656e0000000000000000000000000000000000000000602082015250565b7f3c2f746578743e3c7465787420783d2231302220793d223138302220636c617360008201527f733d2262617365223e68756d69646974793a2000000000000000000000000000602082015250565b7f4552433732313a20617070726f76652063616c6c6572206973206e6f74206f7760008201527f6e6572206e6f7220617070726f76656420666f7220616c6c0000000000000000602082015250565b7f2200000000000000000000000000000000000000000000000000000000000000600082015250565b7f4552433732313a2062616c616e636520717565727920666f7220746865207a6560008201527f726f206164647265737300000000000000000000000000000000000000000000602082015250565b7f4552433732313a206f776e657220717565727920666f72206e6f6e657869737460008201527f656e7420746f6b656e0000000000000000000000000000000000000000000000602082015250565b7f3c2f746578743e3c7465787420783d2231302220793d223130302220636c617360008201527f733d2262617365223e6c6f6e6769747564653a20000000000000000000000000602082015250565b7f3c2f746578743e3c7465787420783d2231302220793d223330302220636c617360008201527f733d2262617365223e6d7367206f726967696e20616e6420696e74656772697460208201527f79206172652076657269666965643c2f746578743e3c2f7376673e0000000000604082015250565b7f227d000000000000000000000000000000000000000000000000000000000000600082015250565b7f4552433732313a206d696e7420746f20746865207a65726f2061646472657373600082015250565b7f3c2f746578743e3c7465787420783d2231302220793d2234302220636c61737360008201527f3d2262617365223e736e723a2000000000000000000000000000000000000000602082015250565b7f4552433732313a20617070726f76656420717565727920666f72206e6f6e657860008201527f697374656e7420746f6b656e0000000000000000000000000000000000000000602082015250565b7f4f776e61626c653a2063616c6c6572206973206e6f7420746865206f776e6572600082015250565b7f4552433732313a207472616e73666572206f6620746f6b656e2074686174206960008201527f73206e6f74206f776e0000000000000000000000000000000000000000000000602082015250565b7f7b00000000000000000000000000000000000000000000000000000000000000600082015250565b7f4552433732313a20617070726f76616c20746f2063757272656e74206f776e6560008201527f7200000000000000000000000000000000000000000000000000000000000000602082015250565b7f646174613a6170706c69636174696f6e2f6a736f6e3b6261736536342c000000600082015250565b7f4552433732313a207472616e736665722063616c6c6572206973206e6f74206f60008201527f776e6572206e6f7220617070726f766564000000000000000000000000000000602082015250565b7f3c2f746578743e3c7465787420783d2231302220793d223230302220636c617360008201527f733d2262617365223e6c696768743a2000000000000000000000000000000000602082015250565b7f455243373231456e756d657261626c653a20676c6f62616c20696e646578206f60008201527f7574206f6620626f756e64730000000000000000000000000000000000000000602082015250565b7f3c2f746578743e3c7465787420783d2231302220793d223234302220636c617360008201527f733d2262617365223e616363656c65726f6d657465723a200000000000000000602082015250565b7f3c2f746578743e3c7465787420783d2231302220793d223136302220636c617360008201527f733d2262617365223e70726573737572653a2000000000000000000000000000602082015250565b7f226e616d65223a202244617461706f696e74204c6f6f74202300000000000000600082015250565b7f3c2f746578743e3c7465787420783d2231302220793d223134302220636c617360008201527f733d2262617365223e74656d70657261747572653a2000000000000000000000602082015250565b615d9281614d5d565b8114615d9d57600080fd5b50565b615da981614d6f565b8114615db457600080fd5b50565b615dc081614d81565b8114615dcb57600080fd5b50565b615dd781614d8d565b8114615de257600080fd5b50565b615dee81614de7565b8114615df957600080fd5b5056fe4142434445464748494a4b4c4d4e4f505152535455565758595a6162636465666768696a6b6c6d6e6f707172737475767778797a303132333435363738392b2fa2646970667358221220c7bec05e1f413ef5c781dbff662485ba3d771f9992907990ed5718e71ad0430864736f6c63430008040033",
  "linkReferences": {},
  "deployedLinkReferences": {}
}