{
  "_format": "hh-sol-artifact-1",
  "contractName": "DatapointLoot",
  "sourceName": "contracts/DatapointLoot.sol",
  "abi": [
    {
      "inputs": [
        {
          "internalType": "contract PebbleToken",
          "name": "_pbl",
          "type": "address"
        },
        {
          "internalType": "uint256",
          "name": "_burnMultiplier",
          "type": "uint256"
        },
        {
          "internalType": "address payable",
          "name": "_feeReceipient",
          "type": "address"
        }
      ],
      "stateMutability": "nonpayable",
      "type": "constructor"
    },
    {
      "anonymous": false,
      "inputs": [
        {
          "indexed": true,
          "internalType": "address",
          "name": "owner",
          "type": "address"
        },
        {
          "indexed": true,
          "internalType": "address",
          "name": "approved",
          "type": "address"
        },
        {
          "indexed": true,
          "internalType": "uint256",
          "name": "tokenId",
          "type": "uint256"
        }
      ],
      "name": "Approval",
      "type": "event"
    },
    {
      "anonymous": false,
      "inputs": [
        {
          "indexed": true,
          "internalType": "address",
          "name": "owner",
          "type": "address"
        },
        {
          "indexed": true,
          "internalType": "address",
          "name": "operator",
          "type": "address"
        },
        {
          "indexed": false,
          "internalType": "bool",
          "name": "approved",
          "type": "bool"
        }
      ],
      "name": "ApprovalForAll",
      "type": "event"
    },
    {
      "anonymous": false,
      "inputs": [
        {
          "indexed": true,
          "internalType": "address",
          "name": "previousOwner",
          "type": "address"
        },
        {
          "indexed": true,
          "internalType": "address",
          "name": "newOwner",
          "type": "address"
        }
      ],
      "name": "OwnershipTransferred",
      "type": "event"
    },
    {
      "anonymous": false,
      "inputs": [
        {
          "indexed": true,
          "internalType": "address",
          "name": "to",
          "type": "address"
        },
        {
          "indexed": true,
          "internalType": "uint256",
          "name": "tokenId",
          "type": "uint256"
        }
      ],
      "name": "TokenMinted",
      "type": "event"
    },
    {
      "anonymous": false,
      "inputs": [
        {
          "indexed": true,
          "internalType": "address",
          "name": "from",
          "type": "address"
        },
        {
          "indexed": true,
          "internalType": "address",
          "name": "to",
          "type": "address"
        },
        {
          "indexed": true,
          "internalType": "uint256",
          "name": "tokenId",
          "type": "uint256"
        }
      ],
      "name": "Transfer",
      "type": "event"
    },
    {
      "inputs": [
        {
          "internalType": "address",
          "name": "to",
          "type": "address"
        },
        {
          "internalType": "uint256",
          "name": "tokenId",
          "type": "uint256"
        }
      ],
      "name": "approve",
      "outputs": [],
      "stateMutability": "nonpayable",
      "type": "function"
    },
    {
      "inputs": [
        {
          "internalType": "address",
          "name": "owner",
          "type": "address"
        }
      ],
      "name": "balanceOf",
      "outputs": [
        {
          "internalType": "uint256",
          "name": "",
          "type": "uint256"
        }
      ],
      "stateMutability": "view",
      "type": "function"
    },
    {
      "inputs": [],
      "name": "burnMultiplier",
      "outputs": [
        {
          "internalType": "uint256",
          "name": "",
          "type": "uint256"
        }
      ],
      "stateMutability": "view",
      "type": "function"
    },
    {
      "inputs": [
        {
          "internalType": "uint256",
          "name": "tokenId",
          "type": "uint256"
        }
      ],
      "name": "getApproved",
      "outputs": [
        {
          "internalType": "address",
          "name": "",
          "type": "address"
        }
      ],
      "stateMutability": "view",
      "type": "function"
    },
    {
      "inputs": [
        {
          "internalType": "address",
          "name": "owner",
          "type": "address"
        },
        {
          "internalType": "address",
          "name": "operator",
          "type": "address"
        }
      ],
      "name": "isApprovedForAll",
      "outputs": [
        {
          "internalType": "bool",
          "name": "",
          "type": "bool"
        }
      ],
      "stateMutability": "view",
      "type": "function"
    },
    {
      "inputs": [],
      "name": "name",
      "outputs": [
        {
          "internalType": "string",
          "name": "",
          "type": "string"
        }
      ],
      "stateMutability": "view",
      "type": "function"
    },
    {
      "inputs": [],
      "name": "owner",
      "outputs": [
        {
          "internalType": "address",
          "name": "",
          "type": "address"
        }
      ],
      "stateMutability": "view",
      "type": "function"
    },
    {
      "inputs": [
        {
          "internalType": "uint256",
          "name": "tokenId",
          "type": "uint256"
        }
      ],
      "name": "ownerOf",
      "outputs": [
        {
          "internalType": "address",
          "name": "",
          "type": "address"
        }
      ],
      "stateMutability": "view",
      "type": "function"
    },
    {
      "inputs": [],
      "name": "pbl",
      "outputs": [
        {
          "internalType": "contract PebbleToken",
          "name": "",
          "type": "address"
        }
      ],
      "stateMutability": "view",
      "type": "function"
    },
    {
      "inputs": [],
      "name": "renounceOwnership",
      "outputs": [],
      "stateMutability": "nonpayable",
      "type": "function"
    },
    {
      "inputs": [
        {
          "internalType": "address",
          "name": "to",
          "type": "address"
        },
        {
          "components": [
            {
              "internalType": "string",
              "name": "snr",
              "type": "string"
            },
            {
              "internalType": "string",
              "name": "vbat",
              "type": "string"
            },
            {
              "internalType": "string",
              "name": "latitude",
              "type": "string"
            },
            {
              "internalType": "string",
              "name": "longitude",
              "type": "string"
            },
            {
              "internalType": "string",
              "name": "gasResistance",
              "type": "string"
            },
            {
              "internalType": "string",
              "name": "temperature",
              "type": "string"
            },
            {
              "internalType": "string",
              "name": "pressure",
              "type": "string"
            },
            {
              "internalType": "string",
              "name": "humidity",
              "type": "string"
            },
            {
              "internalType": "string",
              "name": "light",
              "type": "string"
            },
            {
              "internalType": "string",
              "name": "gyroscope",
              "type": "string"
            },
            {
              "internalType": "string",
              "name": "accelerometer",
              "type": "string"
            },
            {
              "internalType": "string",
              "name": "timestamp",
              "type": "string"
            }
          ],
          "internalType": "struct DatapointLoot.DataPoint",
          "name": "dataPoint",
          "type": "tuple"
        }
      ],
      "name": "safeMint",
      "outputs": [],
      "stateMutability": "nonpayable",
      "type": "function"
    },
    {
      "inputs": [
        {
          "internalType": "address",
          "name": "from",
          "type": "address"
        },
        {
          "internalType": "address",
          "name": "to",
          "type": "address"
        },
        {
          "internalType": "uint256",
          "name": "tokenId",
          "type": "uint256"
        }
      ],
      "name": "safeTransferFrom",
      "outputs": [],
      "stateMutability": "nonpayable",
      "type": "function"
    },
    {
      "inputs": [
        {
          "internalType": "address",
          "name": "from",
          "type": "address"
        },
        {
          "internalType": "address",
          "name": "to",
          "type": "address"
        },
        {
          "internalType": "uint256",
          "name": "tokenId",
          "type": "uint256"
        },
        {
          "internalType": "bytes",
          "name": "_data",
          "type": "bytes"
        }
      ],
      "name": "safeTransferFrom",
      "outputs": [],
      "stateMutability": "nonpayable",
      "type": "function"
    },
    {
      "inputs": [
        {
          "internalType": "address",
          "name": "operator",
          "type": "address"
        },
        {
          "internalType": "bool",
          "name": "approved",
          "type": "bool"
        }
      ],
      "name": "setApprovalForAll",
      "outputs": [],
      "stateMutability": "nonpayable",
      "type": "function"
    },
    {
      "inputs": [
        {
          "internalType": "bytes4",
          "name": "interfaceId",
          "type": "bytes4"
        }
      ],
      "name": "supportsInterface",
      "outputs": [
        {
          "internalType": "bool",
          "name": "",
          "type": "bool"
        }
      ],
      "stateMutability": "view",
      "type": "function"
    },
    {
      "inputs": [],
      "name": "symbol",
      "outputs": [
        {
          "internalType": "string",
          "name": "",
          "type": "string"
        }
      ],
      "stateMutability": "view",
      "type": "function"
    },
    {
      "inputs": [
        {
          "internalType": "uint256",
          "name": "index",
          "type": "uint256"
        }
      ],
      "name": "tokenByIndex",
      "outputs": [
        {
          "internalType": "uint256",
          "name": "",
          "type": "uint256"
        }
      ],
      "stateMutability": "view",
      "type": "function"
    },
    {
      "inputs": [
        {
          "internalType": "address",
          "name": "owner",
          "type": "address"
        },
        {
          "internalType": "uint256",
          "name": "index",
          "type": "uint256"
        }
      ],
      "name": "tokenOfOwnerByIndex",
      "outputs": [
        {
          "internalType": "uint256",
          "name": "",
          "type": "uint256"
        }
      ],
      "stateMutability": "view",
      "type": "function"
    },
    {
      "inputs": [
        {
          "internalType": "uint256",
          "name": "",
          "type": "uint256"
        }
      ],
      "name": "tokenToDataPoint",
      "outputs": [
        {
          "internalType": "string",
          "name": "snr",
          "type": "string"
        },
        {
          "internalType": "string",
          "name": "vbat",
          "type": "string"
        },
        {
          "internalType": "string",
          "name": "latitude",
          "type": "string"
        },
        {
          "internalType": "string",
          "name": "longitude",
          "type": "string"
        },
        {
          "internalType": "string",
          "name": "gasResistance",
          "type": "string"
        },
        {
          "internalType": "string",
          "name": "temperature",
          "type": "string"
        },
        {
          "internalType": "string",
          "name": "pressure",
          "type": "string"
        },
        {
          "internalType": "string",
          "name": "humidity",
          "type": "string"
        },
        {
          "internalType": "string",
          "name": "light",
          "type": "string"
        },
        {
          "internalType": "string",
          "name": "gyroscope",
          "type": "string"
        },
        {
          "internalType": "string",
          "name": "accelerometer",
          "type": "string"
        },
        {
          "internalType": "string",
          "name": "timestamp",
          "type": "string"
        }
      ],
      "stateMutability": "view",
      "type": "function"
    },
    {
      "inputs": [
        {
          "internalType": "uint256",
          "name": "",
          "type": "uint256"
        }
      ],
      "name": "tokenToHashPower",
      "outputs": [
        {
          "internalType": "uint8",
          "name": "",
          "type": "uint8"
        }
      ],
      "stateMutability": "view",
      "type": "function"
    },
    {
      "inputs": [
        {
          "internalType": "uint256",
          "name": "tokenId",
          "type": "uint256"
        }
      ],
      "name": "tokenURI",
      "outputs": [
        {
          "internalType": "string",
          "name": "",
          "type": "string"
        }
      ],
      "stateMutability": "view",
      "type": "function"
    },
    {
      "inputs": [],
      "name": "totalSupply",
      "outputs": [
        {
          "internalType": "uint256",
          "name": "",
          "type": "uint256"
        }
      ],
      "stateMutability": "view",
      "type": "function"
    },
    {
      "inputs": [
        {
          "internalType": "address",
          "name": "from",
          "type": "address"
        },
        {
          "internalType": "address",
          "name": "to",
          "type": "address"
        },
        {
          "internalType": "uint256",
          "name": "tokenId",
          "type": "uint256"
        }
      ],
      "name": "transferFrom",
      "outputs": [],
      "stateMutability": "nonpayable",
      "type": "function"
    },
    {
      "inputs": [
        {
          "internalType": "address",
          "name": "newOwner",
          "type": "address"
        }
      ],
      "name": "transferOwnership",
      "outputs": [],
      "stateMutability": "nonpayable",
      "type": "function"
    },
    {
      "inputs": [
        {
          "internalType": "uint256",
          "name": "_burnMultiplier",
          "type": "uint256"
        }
      ],
      "name": "updateBurnMultiplier",
      "outputs": [],
      "stateMutability": "nonpayable",
      "type": "function"
    },
    {
      "inputs": [
        {
          "internalType": "address payable",
          "name": "_feeReceipient",
          "type": "address"
        }
      ],
      "name": "updateFeeReceipient",
      "outputs": [],
      "stateMutability": "nonpayable",
      "type": "function"
    }
  ],
  "bytecode": "0x60806040523480156200001157600080fd5b50604051620061603803806200616083398181016040528101906200003791906200034c565b6040518060400160405280600e81526020017f44617461706f696e74204c6f6f740000000000000000000000000000000000008152506040518060400160405280600381526020017f444c5400000000000000000000000000000000000000000000000000000000008152508160009080519060200190620000bb92919062000257565b508060019080519060200190620000d492919062000257565b505050620000f7620000eb6200018960201b60201c565b6200019160201b60201c565b82600b60006101000a81548173ffffffffffffffffffffffffffffffffffffffff021916908373ffffffffffffffffffffffffffffffffffffffff16021790555081600c8190555080600d60006101000a81548173ffffffffffffffffffffffffffffffffffffffff021916908373ffffffffffffffffffffffffffffffffffffffff160217905550505050620004bb565b600033905090565b6000600a60009054906101000a900473ffffffffffffffffffffffffffffffffffffffff16905081600a60006101000a81548173ffffffffffffffffffffffffffffffffffffffff021916908373ffffffffffffffffffffffffffffffffffffffff1602179055508173ffffffffffffffffffffffffffffffffffffffff168173ffffffffffffffffffffffffffffffffffffffff167f8be0079c531659141344cd1fd0a4f28419497f9722a3daafe3b4186f6b6457e060405160405180910390a35050565b828054620002659062000408565b90600052602060002090601f016020900481019282620002895760008555620002d5565b82601f10620002a457805160ff1916838001178555620002d5565b82800160010185558215620002d5579182015b82811115620002d4578251825591602001919060010190620002b7565b5b509050620002e49190620002e8565b5090565b5b8082111562000303576000816000905550600101620002e9565b5090565b60008151905062000318816200046d565b92915050565b6000815190506200032f8162000487565b92915050565b6000815190506200034681620004a1565b92915050565b6000806000606084860312156200036257600080fd5b600062000372868287016200031e565b9350506020620003858682870162000335565b9250506040620003988682870162000307565b9150509250925092565b6000620003af82620003de565b9050919050565b6000620003c382620003de565b9050919050565b6000620003d782620003a2565b9050919050565b600073ffffffffffffffffffffffffffffffffffffffff82169050919050565b6000819050919050565b600060028204905060018216806200042157607f821691505b602082108114156200043857620004376200043e565b5b50919050565b7f4e487b7100000000000000000000000000000000000000000000000000000000600052602260045260246000fd5b6200047881620003b6565b81146200048457600080fd5b50565b6200049281620003ca565b81146200049e57600080fd5b50565b620004ac81620003fe565b8114620004b857600080fd5b50565b615c9580620004cb6000396000f3fe608060405234801561001057600080fd5b506004361061018e5760003560e01c80635e3d9df1116100de57806395d89b4111610097578063b88d4fde11610071578063b88d4fde146104a0578063c87b56dd146104bc578063e985e9c5146104ec578063f2fde38b1461051c5761018e565b806395d89b411461044a578063a22cb46514610468578063a9278a99146104845761018e565b80635e3d9df1146103765780636352211e146103a657806369468c37146103d657806370a08231146103f2578063715018a6146104225780638da5cb5b1461042c5761018e565b806323b872dd1161014b57806342842e0e1161012557806342842e0e146102f057806348083bba1461030c5780634f6ccce71461032a5780635c42690a1461035a5761018e565b806323b872dd146102865780632f745c59146102a25780633939a897146102d25761018e565b806301ffc9a71461019357806305ad0f98146101c357806306fdde03146101fe578063081812fc1461021c578063095ea7b31461024c57806318160ddd14610268575b600080fd5b6101ad60048036038101906101a89190613a3b565b610538565b6040516101ba91906145b1565b60405180910390f35b6101dd60048036038101906101d89190613a8d565b61054a565b6040516101f59c9b9a99989796959493929190614609565b60405180910390f35b610206610c0a565b60405161021391906145e7565b60405180910390f35b61023660048036038101906102319190613a8d565b610c9c565b60405161024391906144ea565b60405180910390f35b610266600480360381019061026191906139d6565b610d21565b005b610270610e39565b60405161027d9190614957565b60405180910390f35b6102a0600480360381019061029b919061387c565b610e46565b005b6102bc60048036038101906102b791906139d6565b610ea6565b6040516102c99190614957565b60405180910390f35b6102da610f4b565b6040516102e79190614957565b60405180910390f35b61030a6004803603810190610305919061387c565b610f51565b005b610314610f71565b60405161032191906145cc565b60405180910390f35b610344600480360381019061033f9190613a8d565b610f97565b6040516103519190614957565b60405180910390f35b610374600480360381019061036f9190613817565b61102e565b005b610390600480360381019061038b9190613a8d565b6110ee565b60405161039d9190614972565b60405180910390f35b6103c060048036038101906103bb9190613a8d565b61110e565b6040516103cd91906144ea565b60405180910390f35b6103f060048036038101906103eb9190613982565b6111c0565b005b61040c600480360381019061040791906137ee565b611681565b6040516104199190614957565b60405180910390f35b61042a611739565b005b6104346117c1565b60405161044191906144ea565b60405180910390f35b6104526117eb565b60405161045f91906145e7565b60405180910390f35b610482600480360381019061047d9190613946565b61187d565b005b61049e60048036038101906104999190613a8d565b6119fe565b005b6104ba60048036038101906104b591906138cb565b611a84565b005b6104d660048036038101906104d19190613a8d565b611ae6565b6040516104e391906145e7565b60405180910390f35b61050660048036038101906105019190613840565b611d2b565b60405161051391906145b1565b60405180910390f35b610536600480360381019061053191906137ee565b611dbf565b005b600061054382611eb7565b9050919050565b600e60205280600052604060002060009150905080600001805461056d90614cc2565b80601f016020809104026020016040519081016040528092919081815260200182805461059990614cc2565b80156105e65780601f106105bb576101008083540402835291602001916105e6565b820191906000526020600020905b8154815290600101906020018083116105c957829003601f168201915b5050505050908060010180546105fb90614cc2565b80601f016020809104026020016040519081016040528092919081815260200182805461062790614cc2565b80156106745780601f1061064957610100808354040283529160200191610674565b820191906000526020600020905b81548152906001019060200180831161065757829003601f168201915b50505050509080600201805461068990614cc2565b80601f01602080910402602001604051908101604052809291908181526020018280546106b590614cc2565b80156107025780601f106106d757610100808354040283529160200191610702565b820191906000526020600020905b8154815290600101906020018083116106e557829003601f168201915b50505050509080600301805461071790614cc2565b80601f016020809104026020016040519081016040528092919081815260200182805461074390614cc2565b80156107905780601f1061076557610100808354040283529160200191610790565b820191906000526020600020905b81548152906001019060200180831161077357829003601f168201915b5050505050908060040180546107a590614cc2565b80601f01602080910402602001604051908101604052809291908181526020018280546107d190614cc2565b801561081e5780601f106107f35761010080835404028352916020019161081e565b820191906000526020600020905b81548152906001019060200180831161080157829003601f168201915b50505050509080600501805461083390614cc2565b80601f016020809104026020016040519081016040528092919081815260200182805461085f90614cc2565b80156108ac5780601f10610881576101008083540402835291602001916108ac565b820191906000526020600020905b81548152906001019060200180831161088f57829003601f168201915b5050505050908060060180546108c190614cc2565b80601f01602080910402602001604051908101604052809291908181526020018280546108ed90614cc2565b801561093a5780601f1061090f5761010080835404028352916020019161093a565b820191906000526020600020905b81548152906001019060200180831161091d57829003601f168201915b50505050509080600701805461094f90614cc2565b80601f016020809104026020016040519081016040528092919081815260200182805461097b90614cc2565b80156109c85780601f1061099d576101008083540402835291602001916109c8565b820191906000526020600020905b8154815290600101906020018083116109ab57829003601f168201915b5050505050908060080180546109dd90614cc2565b80601f0160208091040260200160405190810160405280929190818152602001828054610a0990614cc2565b8015610a565780601f10610a2b57610100808354040283529160200191610a56565b820191906000526020600020905b815481529060010190602001808311610a3957829003601f168201915b505050505090806009018054610a6b90614cc2565b80601f0160208091040260200160405190810160405280929190818152602001828054610a9790614cc2565b8015610ae45780601f10610ab957610100808354040283529160200191610ae4565b820191906000526020600020905b815481529060010190602001808311610ac757829003601f168201915b50505050509080600a018054610af990614cc2565b80601f0160208091040260200160405190810160405280929190818152602001828054610b2590614cc2565b8015610b725780601f10610b4757610100808354040283529160200191610b72565b820191906000526020600020905b815481529060010190602001808311610b5557829003601f168201915b50505050509080600b018054610b8790614cc2565b80601f0160208091040260200160405190810160405280929190818152602001828054610bb390614cc2565b8015610c005780601f10610bd557610100808354040283529160200191610c00565b820191906000526020600020905b815481529060010190602001808311610be357829003601f168201915b505050505090508c565b606060008054610c1990614cc2565b80601f0160208091040260200160405190810160405280929190818152602001828054610c4590614cc2565b8015610c925780601f10610c6757610100808354040283529160200191610c92565b820191906000526020600020905b815481529060010190602001808311610c7557829003601f168201915b5050505050905090565b6000610ca782611f31565b610ce6576040517f08c379a0000000000000000000000000000000000000000000000000000000008152600401610cdd90614897565b60405180910390fd5b6004600083815260200190815260200160002060009054906101000a900473ffffffffffffffffffffffffffffffffffffffff169050919050565b6000610d2c8261110e565b90508073ffffffffffffffffffffffffffffffffffffffff168373ffffffffffffffffffffffffffffffffffffffff161415610d9d576040517f08c379a0000000000000000000000000000000000000000000000000000000008152600401610d94906148f7565b60405180910390fd5b8073ffffffffffffffffffffffffffffffffffffffff16610dbc611f9d565b73ffffffffffffffffffffffffffffffffffffffff161480610deb5750610dea81610de5611f9d565b611d2b565b5b610e2a576040517f08c379a0000000000000000000000000000000000000000000000000000000008152600401610e2190614817565b60405180910390fd5b610e348383611fa5565b505050565b6000600880549050905090565b610e57610e51611f9d565b8261205e565b610e96576040517f08c379a0000000000000000000000000000000000000000000000000000000008152600401610e8d90614917565b60405180910390fd5b610ea183838361213c565b505050565b6000610eb183611681565b8210610ef2576040517f08c379a0000000000000000000000000000000000000000000000000000000008152600401610ee990614717565b60405180910390fd5b600660008473ffffffffffffffffffffffffffffffffffffffff1673ffffffffffffffffffffffffffffffffffffffff168152602001908152602001600020600083815260200190815260200160002054905092915050565b600c5481565b610f6c83838360405180602001604052806000815250611a84565b505050565b600b60009054906101000a900473ffffffffffffffffffffffffffffffffffffffff1681565b6000610fa1610e39565b8210610fe2576040517f08c379a0000000000000000000000000000000000000000000000000000000008152600401610fd990614937565b60405180910390fd5b6008828154811061101c577f4e487b7100000000000000000000000000000000000000000000000000000000600052603260045260246000fd5b90600052602060002001549050919050565b611036611f9d565b73ffffffffffffffffffffffffffffffffffffffff166110546117c1565b73ffffffffffffffffffffffffffffffffffffffff16146110aa576040517f08c379a00000000000000000000000000000000000000000000000000000000081526004016110a1906148b7565b60405180910390fd5b80600d60006101000a81548173ffffffffffffffffffffffffffffffffffffffff021916908373ffffffffffffffffffffffffffffffffffffffff16021790555050565b600f6020528060005260406000206000915054906101000a900460ff1681565b6000806002600084815260200190815260200160002060009054906101000a900473ffffffffffffffffffffffffffffffffffffffff169050600073ffffffffffffffffffffffffffffffffffffffff168173ffffffffffffffffffffffffffffffffffffffff1614156111b7576040517f08c379a00000000000000000000000000000000000000000000000000000000081526004016111ae90614857565b60405180910390fd5b80915050919050565b60006111cb82612398565b905060006111e7600c548360ff166124da90919063ffffffff16565b90508160ff16816111f89190614a6c565b600b60009054906101000a900473ffffffffffffffffffffffffffffffffffffffff1673ffffffffffffffffffffffffffffffffffffffff166370a0823161123e611f9d565b6040518263ffffffff1660e01b815260040161125a91906144ea565b60206040518083038186803b15801561127257600080fd5b505afa158015611286573d6000803e3d6000fd5b505050506040513d601f19601f820116820180604052508101906112aa9190613ab6565b10156112eb576040517f08c379a00000000000000000000000000000000000000000000000000000000081526004016112e290614797565b60405180910390fd5b600b60009054906101000a900473ffffffffffffffffffffffffffffffffffffffff1673ffffffffffffffffffffffffffffffffffffffff166379cc6790611331611f9d565b836040518363ffffffff1660e01b815260040161134f929190614588565b600060405180830381600087803b15801561136957600080fd5b505af115801561137d573d6000803e3d6000fd5b50505050600b60009054906101000a900473ffffffffffffffffffffffffffffffffffffffff1673ffffffffffffffffffffffffffffffffffffffff166323b872dd6113c7611f9d565b600d60009054906101000a900473ffffffffffffffffffffffffffffffffffffffff16856040518463ffffffff1660e01b815260040161140993929190614505565b602060405180830381600087803b15801561142357600080fd5b505af1158015611437573d6000803e3d6000fd5b505050506040513d601f19601f8201168201806040525081019061145b9190613a12565b5061146f8461146a60106124f0565b6124fe565b82600e600061147e60106124f0565b815260200190815260200160002060008201518160000190805190602001906114a8929190613395565b5060208201518160010190805190602001906114c5929190613395565b5060408201518160020190805190602001906114e2929190613395565b5060608201518160030190805190602001906114ff929190613395565b50608082015181600401908051906020019061151c929190613395565b5060a0820151816005019080519060200190611539929190613395565b5060c0820151816006019080519060200190611556929190613395565b5060e0820151816007019080519060200190611573929190613395565b50610100820151816008019080519060200190611591929190613395565b506101208201518160090190805190602001906115af929190613395565b5061014082015181600a0190805190602001906115cd929190613395565b5061016082015181600b0190805190602001906115eb929190613395565b5090505081600f60006115fe60106124f0565b815260200190815260200160002060006101000a81548160ff021916908360ff16021790555061162e60106124f0565b8473ffffffffffffffffffffffffffffffffffffffff167fb9144c96c86541f6fa89c9f2f02495cccf4b08cd6643e26d34ee00aa586558a860405160405180910390a361167b601061251c565b50505050565b60008073ffffffffffffffffffffffffffffffffffffffff168273ffffffffffffffffffffffffffffffffffffffff1614156116f2576040517f08c379a00000000000000000000000000000000000000000000000000000000081526004016116e990614837565b60405180910390fd5b600360008373ffffffffffffffffffffffffffffffffffffffff1673ffffffffffffffffffffffffffffffffffffffff168152602001908152602001600020549050919050565b611741611f9d565b73ffffffffffffffffffffffffffffffffffffffff1661175f6117c1565b73ffffffffffffffffffffffffffffffffffffffff16146117b5576040517f08c379a00000000000000000000000000000000000000000000000000000000081526004016117ac906148b7565b60405180910390fd5b6117bf6000612532565b565b6000600a60009054906101000a900473ffffffffffffffffffffffffffffffffffffffff16905090565b6060600180546117fa90614cc2565b80601f016020809104026020016040519081016040528092919081815260200182805461182690614cc2565b80156118735780601f1061184857610100808354040283529160200191611873565b820191906000526020600020905b81548152906001019060200180831161185657829003601f168201915b5050505050905090565b611885611f9d565b73ffffffffffffffffffffffffffffffffffffffff168273ffffffffffffffffffffffffffffffffffffffff1614156118f3576040517f08c379a00000000000000000000000000000000000000000000000000000000081526004016118ea906147d7565b60405180910390fd5b8060056000611900611f9d565b73ffffffffffffffffffffffffffffffffffffffff1673ffffffffffffffffffffffffffffffffffffffff16815260200190815260200160002060008473ffffffffffffffffffffffffffffffffffffffff1673ffffffffffffffffffffffffffffffffffffffff16815260200190815260200160002060006101000a81548160ff0219169083151502179055508173ffffffffffffffffffffffffffffffffffffffff166119ad611f9d565b73ffffffffffffffffffffffffffffffffffffffff167f17307eab39ab6107e8899845ad3d59bd9653f200f220920489ca2b5937696c31836040516119f291906145b1565b60405180910390a35050565b611a06611f9d565b73ffffffffffffffffffffffffffffffffffffffff16611a246117c1565b73ffffffffffffffffffffffffffffffffffffffff1614611a7a576040517f08c379a0000000000000000000000000000000000000000000000000000000008152600401611a71906148b7565b60405180910390fd5b80600c8190555050565b611a95611a8f611f9d565b8361205e565b611ad4576040517f08c379a0000000000000000000000000000000000000000000000000000000008152600401611acb90614917565b60405180910390fd5b611ae0848484846125f8565b50505050565b60606000611af383612654565b600e6000858152602001908152602001600020600001600e6000868152602001908152602001600020600101600e6000878152602001908152602001600020600201600e6000888152602001908152602001600020600301600e6000898152602001908152602001600020600401600e60008a8152602001908152602001600020600501600e60008b8152602001908152602001600020600601604051602001611ba4989796959493929190614369565b604051602081830303815290604052905080600e6000858152602001908152602001600020600701600e6000868152602001908152602001600020600801600e6000878152602001908152602001600020600901600e6000888152602001908152602001600020600a01600e6000898152602001908152602001600020600b01611c50600f60008b815260200190815260200160002060009054906101000a900460ff1660ff16612654565b604051602001611c6697969594939291906142ad565b60405160208183030381529060405290506000611c8284612654565b604051602001611c9291906144bd565b60405160208183030381529060405290506000604051602001611cb490614354565b60405160208183030381529060405290506000611cfb8383611cd587612801565b604051602001611ce79392919061443e565b604051602081830303815290604052612801565b905080604051602001611d0e919061449b565b604051602081830303815290604052935083945050505050919050565b6000600560008473ffffffffffffffffffffffffffffffffffffffff1673ffffffffffffffffffffffffffffffffffffffff16815260200190815260200160002060008373ffffffffffffffffffffffffffffffffffffffff1673ffffffffffffffffffffffffffffffffffffffff16815260200190815260200160002060009054906101000a900460ff16905092915050565b611dc7611f9d565b73ffffffffffffffffffffffffffffffffffffffff16611de56117c1565b73ffffffffffffffffffffffffffffffffffffffff1614611e3b576040517f08c379a0000000000000000000000000000000000000000000000000000000008152600401611e32906148b7565b60405180910390fd5b600073ffffffffffffffffffffffffffffffffffffffff168173ffffffffffffffffffffffffffffffffffffffff161415611eab576040517f08c379a0000000000000000000000000000000000000000000000000000000008152600401611ea290614757565b60405180910390fd5b611eb481612532565b50565b60007f780e9d63000000000000000000000000000000000000000000000000000000007bffffffffffffffffffffffffffffffffffffffffffffffffffffffff1916827bffffffffffffffffffffffffffffffffffffffffffffffffffffffff19161480611f2a5750611f29826129bf565b5b9050919050565b60008073ffffffffffffffffffffffffffffffffffffffff166002600084815260200190815260200160002060009054906101000a900473ffffffffffffffffffffffffffffffffffffffff1673ffffffffffffffffffffffffffffffffffffffff1614159050919050565b600033905090565b816004600083815260200190815260200160002060006101000a81548173ffffffffffffffffffffffffffffffffffffffff021916908373ffffffffffffffffffffffffffffffffffffffff160217905550808273ffffffffffffffffffffffffffffffffffffffff166120188361110e565b73ffffffffffffffffffffffffffffffffffffffff167f8c5be1e5ebec7d5bd14f71427d1e84f3dd0314c0f7b2291e5b200ac8c7c3b92560405160405180910390a45050565b600061206982611f31565b6120a8576040517f08c379a000000000000000000000000000000000000000000000000000000000815260040161209f906147f7565b60405180910390fd5b60006120b38361110e565b90508073ffffffffffffffffffffffffffffffffffffffff168473ffffffffffffffffffffffffffffffffffffffff16148061212257508373ffffffffffffffffffffffffffffffffffffffff1661210a84610c9c565b73ffffffffffffffffffffffffffffffffffffffff16145b8061213357506121328185611d2b565b5b91505092915050565b8273ffffffffffffffffffffffffffffffffffffffff1661215c8261110e565b73ffffffffffffffffffffffffffffffffffffffff16146121b2576040517f08c379a00000000000000000000000000000000000000000000000000000000081526004016121a9906148d7565b60405180910390fd5b600073ffffffffffffffffffffffffffffffffffffffff168273ffffffffffffffffffffffffffffffffffffffff161415612222576040517f08c379a0000000000000000000000000000000000000000000000000000000008152600401612219906147b7565b60405180910390fd5b61222d838383612aa1565b612238600082611fa5565b6001600360008573ffffffffffffffffffffffffffffffffffffffff1673ffffffffffffffffffffffffffffffffffffffff16815260200190815260200160002060008282546122889190614b4d565b925050819055506001600360008473ffffffffffffffffffffffffffffffffffffffff1673ffffffffffffffffffffffffffffffffffffffff16815260200190815260200160002060008282546122df9190614a6c565b92505081905550816002600083815260200190815260200160002060006101000a81548173ffffffffffffffffffffffffffffffffffffffff021916908373ffffffffffffffffffffffffffffffffffffffff160217905550808273ffffffffffffffffffffffffffffffffffffffff168473ffffffffffffffffffffffffffffffffffffffff167fddf252ad1be2c89b69c2b068fc378daa952ba7f163c4a11628f55a4df523b3ef60405160405180910390a4505050565b600080826000015183602001518460400151856060015186608001518760a001518860c001518960e001518a61010001518b61012001518c61014001518d61016001516040516020016123f69c9b9a99989796959493929190614207565b6040516020818303038152906040528051906020012090506000612430633b9aca008360e01c63ffffffff16612ab190919063ffffffff16565b141561243f57601091506124d4565b6000612460620f42408360e01c63ffffffff16612ab190919063ffffffff16565b141561246f57600891506124d3565b600061248f6103e88360e01c63ffffffff16612ab190919063ffffffff16565b141561249e57600491506124d2565b60006124bd600a8360e01c63ffffffff16612ab190919063ffffffff16565b14156124cc57600291506124d1565b600191505b5b5b5b50919050565b600081836124e89190614af3565b905092915050565b600081600001549050919050565b612518828260405180602001604052806000815250612ac7565b5050565b6001816000016000828254019250508190555050565b6000600a60009054906101000a900473ffffffffffffffffffffffffffffffffffffffff16905081600a60006101000a81548173ffffffffffffffffffffffffffffffffffffffff021916908373ffffffffffffffffffffffffffffffffffffffff1602179055508173ffffffffffffffffffffffffffffffffffffffff168173ffffffffffffffffffffffffffffffffffffffff167f8be0079c531659141344cd1fd0a4f28419497f9722a3daafe3b4186f6b6457e060405160405180910390a35050565b61260384848461213c565b61260f84848484612b22565b61264e576040517f08c379a000000000000000000000000000000000000000000000000000000000815260040161264590614737565b60405180910390fd5b50505050565b6060600082141561269c576040518060400160405280600181526020017f300000000000000000000000000000000000000000000000000000000000000081525090506127fc565b600082905060005b600082146126ce5780806126b790614d25565b915050600a826126c79190614ac2565b91506126a4565b60008167ffffffffffffffff811115612710577f4e487b7100000000000000000000000000000000000000000000000000000000600052604160045260246000fd5b6040519080825280601f01601f1916602001820160405280156127425781602001600182028036833780820191505090505b5090505b600085146127f55760018261275b9190614b4d565b9150600a8561276a9190614d6e565b60306127769190614a6c565b60f81b8183815181106127b2577f4e487b7100000000000000000000000000000000000000000000000000000000600052603260045260246000fd5b60200101907effffffffffffffffffffffffffffffffffffffffffffffffffffffffffffff1916908160001a905350600a856127ee9190614ac2565b9450612746565b8093505050505b919050565b6060600082519050600081141561282a57604051806020016040528060008152509150506129ba565b6000600360028361283b9190614a6c565b6128459190614ac2565b60046128519190614af3565b905060006020826128629190614a6c565b67ffffffffffffffff8111156128a1577f4e487b7100000000000000000000000000000000000000000000000000000000600052604160045260246000fd5b6040519080825280601f01601f1916602001820160405280156128d35781602001600182028036833780820191505090505b5090506000604051806060016040528060408152602001615c20604091399050600181016020830160005b868110156129775760038101905062ffffff818a015116603f8160121c168401518060081b905060ff603f83600c1c1686015116810190508060081b905060ff603f8360061c1686015116810190508060081b905060ff603f831686015116810190508060e01b905080845260048401935050506128fe565b50600386066001811461299157600281146129a1576129ac565b613d3d60f01b60028303526129ac565b603d60f81b60018303525b508484525050819450505050505b919050565b60007f80ac58cd000000000000000000000000000000000000000000000000000000007bffffffffffffffffffffffffffffffffffffffffffffffffffffffff1916827bffffffffffffffffffffffffffffffffffffffffffffffffffffffff19161480612a8a57507f5b5e139f000000000000000000000000000000000000000000000000000000007bffffffffffffffffffffffffffffffffffffffffffffffffffffffff1916827bffffffffffffffffffffffffffffffffffffffffffffffffffffffff1916145b80612a9a5750612a9982612cb9565b5b9050919050565b612aac838383612d23565b505050565b60008183612abf9190614d6e565b905092915050565b612ad18383612e37565b612ade6000848484612b22565b612b1d576040517f08c379a0000000000000000000000000000000000000000000000000000000008152600401612b1490614737565b60405180910390fd5b505050565b6000612b438473ffffffffffffffffffffffffffffffffffffffff16613005565b15612cac578373ffffffffffffffffffffffffffffffffffffffff1663150b7a02612b6c611f9d565b8786866040518563ffffffff1660e01b8152600401612b8e949392919061453c565b602060405180830381600087803b158015612ba857600080fd5b505af1925050508015612bd957506040513d601f19601f82011682018060405250810190612bd69190613a64565b60015b612c5c573d8060008114612c09576040519150601f19603f3d011682016040523d82523d6000602084013e612c0e565b606091505b50600081511415612c54576040517f08c379a0000000000000000000000000000000000000000000000000000000008152600401612c4b90614737565b60405180910390fd5b805181602001fd5b63150b7a0260e01b7bffffffffffffffffffffffffffffffffffffffffffffffffffffffff1916817bffffffffffffffffffffffffffffffffffffffffffffffffffffffff191614915050612cb1565b600190505b949350505050565b60007f01ffc9a7000000000000000000000000000000000000000000000000000000007bffffffffffffffffffffffffffffffffffffffffffffffffffffffff1916827bffffffffffffffffffffffffffffffffffffffffffffffffffffffff1916149050919050565b612d2e838383613018565b600073ffffffffffffffffffffffffffffffffffffffff168373ffffffffffffffffffffffffffffffffffffffff161415612d7157612d6c8161301d565b612db0565b8173ffffffffffffffffffffffffffffffffffffffff168373ffffffffffffffffffffffffffffffffffffffff1614612daf57612dae8382613066565b5b5b600073ffffffffffffffffffffffffffffffffffffffff168273ffffffffffffffffffffffffffffffffffffffff161415612df357612dee816131d3565b612e32565b8273ffffffffffffffffffffffffffffffffffffffff168273ffffffffffffffffffffffffffffffffffffffff1614612e3157612e308282613316565b5b5b505050565b600073ffffffffffffffffffffffffffffffffffffffff168273ffffffffffffffffffffffffffffffffffffffff161415612ea7576040517f08c379a0000000000000000000000000000000000000000000000000000000008152600401612e9e90614877565b60405180910390fd5b612eb081611f31565b15612ef0576040517f08c379a0000000000000000000000000000000000000000000000000000000008152600401612ee790614777565b60405180910390fd5b612efc60008383612aa1565b6001600360008473ffffffffffffffffffffffffffffffffffffffff1673ffffffffffffffffffffffffffffffffffffffff1681526020019081526020016000206000828254612f4c9190614a6c565b92505081905550816002600083815260200190815260200160002060006101000a81548173ffffffffffffffffffffffffffffffffffffffff021916908373ffffffffffffffffffffffffffffffffffffffff160217905550808273ffffffffffffffffffffffffffffffffffffffff16600073ffffffffffffffffffffffffffffffffffffffff167fddf252ad1be2c89b69c2b068fc378daa952ba7f163c4a11628f55a4df523b3ef60405160405180910390a45050565b600080823b905060008111915050919050565b505050565b6008805490506009600083815260200190815260200160002081905550600881908060018154018082558091505060019003906000526020600020016000909190919091505550565b6000600161307384611681565b61307d9190614b4d565b9050600060076000848152602001908152602001600020549050818114613162576000600660008673ffffffffffffffffffffffffffffffffffffffff1673ffffffffffffffffffffffffffffffffffffffff168152602001908152602001600020600084815260200190815260200160002054905080600660008773ffffffffffffffffffffffffffffffffffffffff1673ffffffffffffffffffffffffffffffffffffffff168152602001908152602001600020600084815260200190815260200160002081905550816007600083815260200190815260200160002081905550505b6007600084815260200190815260200160002060009055600660008573ffffffffffffffffffffffffffffffffffffffff1673ffffffffffffffffffffffffffffffffffffffff16815260200190815260200160002060008381526020019081526020016000206000905550505050565b600060016008805490506131e79190614b4d565b905060006009600084815260200190815260200160002054905060006008838154811061323d577f4e487b7100000000000000000000000000000000000000000000000000000000600052603260045260246000fd5b906000526020600020015490508060088381548110613285577f4e487b7100000000000000000000000000000000000000000000000000000000600052603260045260246000fd5b9060005260206000200181905550816009600083815260200190815260200160002081905550600960008581526020019081526020016000206000905560088054806132fa577f4e487b7100000000000000000000000000000000000000000000000000000000600052603160045260246000fd5b6001900381819060005260206000200160009055905550505050565b600061332183611681565b905081600660008573ffffffffffffffffffffffffffffffffffffffff1673ffffffffffffffffffffffffffffffffffffffff168152602001908152602001600020600083815260200190815260200160002081905550806007600084815260200190815260200160002081905550505050565b8280546133a190614cc2565b90600052602060002090601f0160209004810192826133c3576000855561340a565b82601f106133dc57805160ff191683800117855561340a565b8280016001018555821561340a579182015b828111156134095782518255916020019190600101906133ee565b5b509050613417919061341b565b5090565b5b8082111561343457600081600090555060010161341c565b5090565b600061344b613446846149b2565b61498d565b90508281526020810184848401111561346357600080fd5b61346e848285614c80565b509392505050565b6000613489613484846149e3565b61498d565b9050828152602081018484840111156134a157600080fd5b6134ac848285614c80565b509392505050565b6000813590506134c381615bac565b92915050565b6000813590506134d881615bc3565b92915050565b6000813590506134ed81615bda565b92915050565b60008151905061350281615bda565b92915050565b60008135905061351781615bf1565b92915050565b60008151905061352c81615bf1565b92915050565b600082601f83011261354357600080fd5b8135613553848260208601613438565b91505092915050565b600082601f83011261356d57600080fd5b813561357d848260208601613476565b91505092915050565b6000610180828403121561359957600080fd5b6135a461018061498d565b9050600082013567ffffffffffffffff8111156135c057600080fd5b6135cc8482850161355c565b600083015250602082013567ffffffffffffffff8111156135ec57600080fd5b6135f88482850161355c565b602083015250604082013567ffffffffffffffff81111561361857600080fd5b6136248482850161355c565b604083015250606082013567ffffffffffffffff81111561364457600080fd5b6136508482850161355c565b606083015250608082013567ffffffffffffffff81111561367057600080fd5b61367c8482850161355c565b60808301525060a082013567ffffffffffffffff81111561369c57600080fd5b6136a88482850161355c565b60a08301525060c082013567ffffffffffffffff8111156136c857600080fd5b6136d48482850161355c565b60c08301525060e082013567ffffffffffffffff8111156136f457600080fd5b6137008482850161355c565b60e08301525061010082013567ffffffffffffffff81111561372157600080fd5b61372d8482850161355c565b6101008301525061012082013567ffffffffffffffff81111561374f57600080fd5b61375b8482850161355c565b6101208301525061014082013567ffffffffffffffff81111561377d57600080fd5b6137898482850161355c565b6101408301525061016082013567ffffffffffffffff8111156137ab57600080fd5b6137b78482850161355c565b6101608301525092915050565b6000813590506137d381615c08565b92915050565b6000815190506137e881615c08565b92915050565b60006020828403121561380057600080fd5b600061380e848285016134b4565b91505092915050565b60006020828403121561382957600080fd5b6000613837848285016134c9565b91505092915050565b6000806040838503121561385357600080fd5b6000613861858286016134b4565b9250506020613872858286016134b4565b9150509250929050565b60008060006060848603121561389157600080fd5b600061389f868287016134b4565b93505060206138b0868287016134b4565b92505060406138c1868287016137c4565b9150509250925092565b600080600080608085870312156138e157600080fd5b60006138ef878288016134b4565b9450506020613900878288016134b4565b9350506040613911878288016137c4565b925050606085013567ffffffffffffffff81111561392e57600080fd5b61393a87828801613532565b91505092959194509250565b6000806040838503121561395957600080fd5b6000613967858286016134b4565b9250506020613978858286016134de565b9150509250929050565b6000806040838503121561399557600080fd5b60006139a3858286016134b4565b925050602083013567ffffffffffffffff8111156139c057600080fd5b6139cc85828601613586565b9150509250929050565b600080604083850312156139e957600080fd5b60006139f7858286016134b4565b9250506020613a08858286016137c4565b9150509250929050565b600060208284031215613a2457600080fd5b6000613a32848285016134f3565b91505092915050565b600060208284031215613a4d57600080fd5b6000613a5b84828501613508565b91505092915050565b600060208284031215613a7657600080fd5b6000613a848482850161351d565b91505092915050565b600060208284031215613a9f57600080fd5b6000613aad848285016137c4565b91505092915050565b600060208284031215613ac857600080fd5b6000613ad6848285016137d9565b91505092915050565b613ae881614c14565b82525050565b613af781614b81565b82525050565b613b0681614ba5565b82525050565b6000613b1782614a29565b613b218185614a3f565b9350613b31818560208601614c8f565b613b3a81614e5b565b840191505092915050565b613b4e81614c26565b82525050565b6000613b5f82614a34565b613b698185614a50565b9350613b79818560208601614c8f565b613b8281614e5b565b840191505092915050565b6000613b9882614a34565b613ba28185614a61565b9350613bb2818560208601614c8f565b80840191505092915050565b60008154613bcb81614cc2565b613bd58186614a61565b94506001821660008114613bf05760018114613c0157613c34565b60ff19831686528186019350613c34565b613c0a85614a14565b60005b83811015613c2c57815481890152600182019150602081019050613c0d565b838801955050505b50505092915050565b6000613c4a602b83614a50565b9150613c5582614e6c565b604082019050919050565b6000613c6d603283614a50565b9150613c7882614ebb565b604082019050919050565b6000613c90602e83614a61565b9150613c9b82614f0a565b602e82019050919050565b6000613cb3603983614a61565b9150613cbe82614f59565b603982019050919050565b6000613cd6603483614a61565b9150613ce182614fa8565b603482019050919050565b6000613cf9602683614a50565b9150613d0482614ff7565b604082019050919050565b6000613d1c601c83614a50565b9150613d2782615046565b602082019050919050565b6000613d3f602583614a61565b9150613d4a8261506f565b602582019050919050565b6000613d6260f583614a61565b9150613d6d826150be565b60f582019050919050565b6000613d85603883614a61565b9150613d90826151f1565b603882019050919050565b6000613da8602d83614a50565b9150613db382615240565b604082019050919050565b6000613dcb600183614a61565b9150613dd68261528f565b600182019050919050565b6000613def61010d83614a61565b9150613dfa826152b8565b61010d82019050919050565b6000613e13602483614a50565b9150613e1e82615412565b604082019050919050565b6000613e36601983614a50565b9150613e4182615461565b602082019050919050565b6000613e59603283614a61565b9150613e648261548a565b603282019050919050565b6000613e7c603483614a61565b9150613e87826154d9565b603482019050919050565b6000613e9f602c83614a50565b9150613eaa82615528565b604082019050919050565b6000613ec2603383614a61565b9150613ecd82615577565b603382019050919050565b6000613ee5603883614a50565b9150613ef0826155c6565b604082019050919050565b6000613f08600183614a61565b9150613f1382615615565b600182019050919050565b6000613f2b602a83614a50565b9150613f368261563e565b604082019050919050565b6000613f4e602983614a50565b9150613f598261568d565b604082019050919050565b6000613f71603483614a61565b9150613f7c826156dc565b603482019050919050565b6000613f94605b83614a61565b9150613f9f8261572b565b605b82019050919050565b6000613fb7600283614a61565b9150613fc2826157a0565b600282019050919050565b6000613fda602083614a50565b9150613fe5826157c9565b602082019050919050565b6000613ffd602d83614a61565b9150614008826157f2565b602d82019050919050565b6000614020602c83614a50565b915061402b82615841565b604082019050919050565b6000614043602083614a50565b915061404e82615890565b602082019050919050565b6000614066602983614a50565b9150614071826158b9565b604082019050919050565b6000614089600183614a61565b915061409482615908565b600182019050919050565b60006140ac602183614a50565b91506140b782615931565b604082019050919050565b60006140cf601d83614a61565b91506140da82615980565b601d82019050919050565b60006140f2603183614a50565b91506140fd826159a9565b604082019050919050565b6000614115603083614a61565b9150614120826159f8565b603082019050919050565b6000614138602c83614a50565b915061414382615a47565b604082019050919050565b600061415b603883614a61565b915061416682615a96565b603882019050919050565b600061417e603383614a61565b915061418982615ae5565b603382019050919050565b60006141a1601983614a61565b91506141ac82615b34565b601982019050919050565b60006141c4603683614a61565b91506141cf82615b5d565b603682019050919050565b6141e381614bfd565b82525050565b6141f281614c6e565b82525050565b61420181614c07565b82525050565b6000614213828f613b8d565b915061421f828e613b8d565b915061422b828d613b8d565b9150614237828c613b8d565b9150614243828b613b8d565b915061424f828a613b8d565b915061425b8289613b8d565b91506142678288613b8d565b91506142738287613b8d565b915061427f8286613b8d565b915061428b8285613b8d565b91506142978284613b8d565b91508190509d9c50505050505050505050505050565b60006142b9828a613b8d565b91506142c58289613bbe565b91506142d082614108565b91506142dc8288613bbe565b91506142e782613e6f565b91506142f38287613bbe565b91506142fe8261414e565b915061430a8286613bbe565b915061431582613cc9565b91506143218285613bbe565b915061432c82613d78565b91506143388284613b8d565b915061434382613f87565b915081905098975050505050505050565b600061435f82613d55565b9150819050919050565b600061437482613de1565b9150614380828b613b8d565b915061438b82613ff0565b9150614397828a613bbe565b91506143a282613c83565b91506143ae8289613bbe565b91506143b982613e4c565b91506143c58288613bbe565b91506143d082613f64565b91506143dc8287613bbe565b91506143e782613ca6565b91506143f38286613bbe565b91506143fe826141b7565b915061440a8285613bbe565b915061441582614171565b91506144218284613bbe565b915061442c82613eb5565b91508190509998505050505050505050565b60006144498261407c565b91506144558286613b8d565b915061446082613dbe565b915061446c8285613b8d565b915061447782613d32565b91506144838284613b8d565b915061448e82613faa565b9150819050949350505050565b60006144a6826140c2565b91506144b28284613b8d565b915081905092915050565b60006144c882614194565b91506144d48284613b8d565b91506144df82613efb565b915081905092915050565b60006020820190506144ff6000830184613aee565b92915050565b600060608201905061451a6000830186613aee565b6145276020830185613adf565b61453460408301846141e9565b949350505050565b60006080820190506145516000830187613aee565b61455e6020830186613aee565b61456b60408301856141da565b818103606083015261457d8184613b0c565b905095945050505050565b600060408201905061459d6000830185613aee565b6145aa60208301846141da565b9392505050565b60006020820190506145c66000830184613afd565b92915050565b60006020820190506145e16000830184613b45565b92915050565b600060208201905081810360008301526146018184613b54565b905092915050565b6000610180820190508181036000830152614624818f613b54565b90508181036020830152614638818e613b54565b9050818103604083015261464c818d613b54565b90508181036060830152614660818c613b54565b90508181036080830152614674818b613b54565b905081810360a0830152614688818a613b54565b905081810360c083015261469c8189613b54565b905081810360e08301526146b08188613b54565b90508181036101008301526146c58187613b54565b90508181036101208301526146da8186613b54565b90508181036101408301526146ef8185613b54565b90508181036101608301526147048184613b54565b90509d9c50505050505050505050505050565b6000602082019050818103600083015261473081613c3d565b9050919050565b6000602082019050818103600083015261475081613c60565b9050919050565b6000602082019050818103600083015261477081613cec565b9050919050565b6000602082019050818103600083015261479081613d0f565b9050919050565b600060208201905081810360008301526147b081613d9b565b9050919050565b600060208201905081810360008301526147d081613e06565b9050919050565b600060208201905081810360008301526147f081613e29565b9050919050565b6000602082019050818103600083015261481081613e92565b9050919050565b6000602082019050818103600083015261483081613ed8565b9050919050565b6000602082019050818103600083015261485081613f1e565b9050919050565b6000602082019050818103600083015261487081613f41565b9050919050565b6000602082019050818103600083015261489081613fcd565b9050919050565b600060208201905081810360008301526148b081614013565b9050919050565b600060208201905081810360008301526148d081614036565b9050919050565b600060208201905081810360008301526148f081614059565b9050919050565b600060208201905081810360008301526149108161409f565b9050919050565b60006020820190508181036000830152614930816140e5565b9050919050565b600060208201905081810360008301526149508161412b565b9050919050565b600060208201905061496c60008301846141da565b92915050565b600060208201905061498760008301846141f8565b92915050565b60006149976149a8565b90506149a38282614cf4565b919050565b6000604051905090565b600067ffffffffffffffff8211156149cd576149cc614e2c565b5b6149d682614e5b565b9050602081019050919050565b600067ffffffffffffffff8211156149fe576149fd614e2c565b5b614a0782614e5b565b9050602081019050919050565b60008190508160005260206000209050919050565b600081519050919050565b600081519050919050565b600082825260208201905092915050565b600082825260208201905092915050565b600081905092915050565b6000614a7782614bfd565b9150614a8283614bfd565b9250827fffffffffffffffffffffffffffffffffffffffffffffffffffffffffffffffff03821115614ab757614ab6614d9f565b5b828201905092915050565b6000614acd82614bfd565b9150614ad883614bfd565b925082614ae857614ae7614dce565b5b828204905092915050565b6000614afe82614bfd565b9150614b0983614bfd565b9250817fffffffffffffffffffffffffffffffffffffffffffffffffffffffffffffffff0483118215151615614b4257614b41614d9f565b5b828202905092915050565b6000614b5882614bfd565b9150614b6383614bfd565b925082821015614b7657614b75614d9f565b5b828203905092915050565b6000614b8c82614bdd565b9050919050565b6000614b9e82614bdd565b9050919050565b60008115159050919050565b60007fffffffff0000000000000000000000000000000000000000000000000000000082169050919050565b600073ffffffffffffffffffffffffffffffffffffffff82169050919050565b6000819050919050565b600060ff82169050919050565b6000614c1f82614c4a565b9050919050565b6000614c3182614c38565b9050919050565b6000614c4382614bdd565b9050919050565b6000614c5582614c5c565b9050919050565b6000614c6782614bdd565b9050919050565b6000614c7982614c07565b9050919050565b82818337600083830152505050565b60005b83811015614cad578082015181840152602081019050614c92565b83811115614cbc576000848401525b50505050565b60006002820490506001821680614cda57607f821691505b60208210811415614cee57614ced614dfd565b5b50919050565b614cfd82614e5b565b810181811067ffffffffffffffff82111715614d1c57614d1b614e2c565b5b80604052505050565b6000614d3082614bfd565b91507fffffffffffffffffffffffffffffffffffffffffffffffffffffffffffffffff821415614d6357614d62614d9f565b5b600182019050919050565b6000614d7982614bfd565b9150614d8483614bfd565b925082614d9457614d93614dce565b5b828206905092915050565b7f4e487b7100000000000000000000000000000000000000000000000000000000600052601160045260246000fd5b7f4e487b7100000000000000000000000000000000000000000000000000000000600052601260045260246000fd5b7f4e487b7100000000000000000000000000000000000000000000000000000000600052602260045260246000fd5b7f4e487b7100000000000000000000000000000000000000000000000000000000600052604160045260246000fd5b6000601f19601f8301169050919050565b7f455243373231456e756d657261626c653a206f776e657220696e646578206f7560008201527f74206f6620626f756e6473000000000000000000000000000000000000000000602082015250565b7f4552433732313a207472616e7366657220746f206e6f6e20455243373231526560008201527f63656976657220696d706c656d656e7465720000000000000000000000000000602082015250565b7f3c2f746578743e3c7465787420783d2231302220793d2236302220636c61737360008201527f3d2262617365223e766261743a20000000000000000000000000000000000000602082015250565b7f3c2f746578743e3c7465787420783d2231302220793d223132302220636c617360008201527f733d2262617365223e67617320726573697374616e63653a2000000000000000602082015250565b7f3c2f746578743e3c7465787420783d2231302220793d223236302220636c617360008201527f733d2262617365223e74696d657374616d703a20000000000000000000000000602082015250565b7f4f776e61626c653a206e6577206f776e657220697320746865207a65726f206160008201527f6464726573730000000000000000000000000000000000000000000000000000602082015250565b7f4552433732313a20746f6b656e20616c7265616479206d696e74656400000000600082015250565b7f2c22696d616765223a2022646174613a696d6167652f7376672b786d6c3b626160008201527f736536342c000000000000000000000000000000000000000000000000000000602082015250565b7f226465736372697074696f6e223a202244617461706f696e74204c6f6f74206960008201527f73206120766572696669656420616e642074727573746564207265616c20776f60208201527f726c642064617461706f696e742073746f726564206f6e20636861696e2e205360408201527f746174732c20696d616765732c20616e64206f746865722066756e6374696f6e60608201527f616c6974792061726520696e74656e74696f6e616c6c79206f6d69747465642060808201527f666f72206f746865727320746f20696e746572707265742e204665656c20667260a08201527f656520746f2075736520506562626c652064617461706f696e74204c6f6f742060c08201527f696e20616e792077617920796f752077616e742e22000000000000000000000060e082015250565b7f3c2f746578743e3c7465787420783d2231302220793d223238302220636c617360008201527f733d2262617365223e64696767696e6720706f7765723a200000000000000000602082015250565b7f4d696e74696e673a20696e73756666696369656e742062616c616e636520666f60008201527f72206d696e74696e67204e465400000000000000000000000000000000000000602082015250565b7f2c00000000000000000000000000000000000000000000000000000000000000600082015250565b7f3c73766720786d6c6e733d22687474703a2f2f7777772e77332e6f72672f323060008201527f30302f73766722207072657365727665417370656374526174696f3d22784d6960208201527f6e594d696e206d656574222076696577426f783d22302030203335302033353060408201527f223e3c7374796c653e2e62617365207b2066696c6c3a2077686974653b20666f60608201527f6e742d66616d696c793a2073657269663b20666f6e742d73697a653a2031347060808201527f783b207d3c2f7374796c653e3c726563742077696474683d223130302522206860a08201527f65696768743d2231303025222066696c6c3d22626c61636b22202f3e3c74657860c08201527f7420783d2231302220793d2232302220636c6173733d2262617365223e44617460e08201527f61706f696e74204c6f6f7420230000000000000000000000000000000000000061010082015250565b7f4552433732313a207472616e7366657220746f20746865207a65726f2061646460008201527f7265737300000000000000000000000000000000000000000000000000000000602082015250565b7f4552433732313a20617070726f766520746f2063616c6c657200000000000000600082015250565b7f3c2f746578743e3c7465787420783d2231302220793d2238302220636c61737360008201527f3d2262617365223e6c617469747564653a200000000000000000000000000000602082015250565b7f3c2f746578743e3c7465787420783d2231302220793d223232302220636c617360008201527f733d2262617365223e6779726f73636f70653a20000000000000000000000000602082015250565b7f4552433732313a206f70657261746f7220717565727920666f72206e6f6e657860008201527f697374656e7420746f6b656e0000000000000000000000000000000000000000602082015250565b7f3c2f746578743e3c7465787420783d2231302220793d223138302220636c617360008201527f733d2262617365223e68756d69646974793a2000000000000000000000000000602082015250565b7f4552433732313a20617070726f76652063616c6c6572206973206e6f74206f7760008201527f6e6572206e6f7220617070726f76656420666f7220616c6c0000000000000000602082015250565b7f2200000000000000000000000000000000000000000000000000000000000000600082015250565b7f4552433732313a2062616c616e636520717565727920666f7220746865207a6560008201527f726f206164647265737300000000000000000000000000000000000000000000602082015250565b7f4552433732313a206f776e657220717565727920666f72206e6f6e657869737460008201527f656e7420746f6b656e0000000000000000000000000000000000000000000000602082015250565b7f3c2f746578743e3c7465787420783d2231302220793d223130302220636c617360008201527f733d2262617365223e6c6f6e6769747564653a20000000000000000000000000602082015250565b7f3c2f746578743e3c7465787420783d2231302220793d223330302220636c617360008201527f733d2262617365223e6d7367206f726967696e20616e6420696e74656772697460208201527f79206172652076657269666965643c2f746578743e3c2f7376673e0000000000604082015250565b7f227d000000000000000000000000000000000000000000000000000000000000600082015250565b7f4552433732313a206d696e7420746f20746865207a65726f2061646472657373600082015250565b7f3c2f746578743e3c7465787420783d2231302220793d2234302220636c61737360008201527f3d2262617365223e736e723a2000000000000000000000000000000000000000602082015250565b7f4552433732313a20617070726f76656420717565727920666f72206e6f6e657860008201527f697374656e7420746f6b656e0000000000000000000000000000000000000000602082015250565b7f4f776e61626c653a2063616c6c6572206973206e6f7420746865206f776e6572600082015250565b7f4552433732313a207472616e73666572206f6620746f6b656e2074686174206960008201527f73206e6f74206f776e0000000000000000000000000000000000000000000000602082015250565b7f7b00000000000000000000000000000000000000000000000000000000000000600082015250565b7f4552433732313a20617070726f76616c20746f2063757272656e74206f776e6560008201527f7200000000000000000000000000000000000000000000000000000000000000602082015250565b7f646174613a6170706c69636174696f6e2f6a736f6e3b6261736536342c000000600082015250565b7f4552433732313a207472616e736665722063616c6c6572206973206e6f74206f60008201527f776e6572206e6f7220617070726f766564000000000000000000000000000000602082015250565b7f3c2f746578743e3c7465787420783d2231302220793d223230302220636c617360008201527f733d2262617365223e6c696768743a2000000000000000000000000000000000602082015250565b7f455243373231456e756d657261626c653a20676c6f62616c20696e646578206f60008201527f7574206f6620626f756e64730000000000000000000000000000000000000000602082015250565b7f3c2f746578743e3c7465787420783d2231302220793d223234302220636c617360008201527f733d2262617365223e616363656c65726f6d657465723a200000000000000000602082015250565b7f3c2f746578743e3c7465787420783d2231302220793d223136302220636c617360008201527f733d2262617365223e70726573737572653a2000000000000000000000000000602082015250565b7f226e616d65223a202244617461706f696e74204c6f6f74202300000000000000600082015250565b7f3c2f746578743e3c7465787420783d2231302220793d223134302220636c617360008201527f733d2262617365223e74656d70657261747572653a2000000000000000000000602082015250565b615bb581614b81565b8114615bc057600080fd5b50565b615bcc81614b93565b8114615bd757600080fd5b50565b615be381614ba5565b8114615bee57600080fd5b50565b615bfa81614bb1565b8114615c0557600080fd5b50565b615c1181614bfd565b8114615c1c57600080fd5b5056fe4142434445464748494a4b4c4d4e4f505152535455565758595a6162636465666768696a6b6c6d6e6f707172737475767778797a303132333435363738392b2fa2646970667358221220494cbe31cf129c6529d80c8f229b6f8afd8ccb30c0dc1726e054819c89c9d7b264736f6c63430008040033",
  "linkReferences": {},
  "deployedLinkReferences": {}
}