{
  "_format": "hh-sol-artifact-1",
  "contractName": "DatapointLoot",
  "sourceName": "contracts/DatapointLoot.sol",
  "abi": [
    {
      "inputs": [
        {
          "internalType": "contract PebbleToken",
          "name": "_pbl",
          "type": "address"
        },
        {
          "internalType": "uint256",
          "name": "_burnMultiplier",
          "type": "uint256"
        },
        {
          "internalType": "address payable",
          "name": "_feeReceipient",
          "type": "address"
        }
      ],
      "stateMutability": "nonpayable",
      "type": "constructor"
    },
    {
      "anonymous": false,
      "inputs": [
        {
          "indexed": true,
          "internalType": "address",
          "name": "owner",
          "type": "address"
        },
        {
          "indexed": true,
          "internalType": "address",
          "name": "approved",
          "type": "address"
        },
        {
          "indexed": true,
          "internalType": "uint256",
          "name": "tokenId",
          "type": "uint256"
        }
      ],
      "name": "Approval",
      "type": "event"
    },
    {
      "anonymous": false,
      "inputs": [
        {
          "indexed": true,
          "internalType": "address",
          "name": "owner",
          "type": "address"
        },
        {
          "indexed": true,
          "internalType": "address",
          "name": "operator",
          "type": "address"
        },
        {
          "indexed": false,
          "internalType": "bool",
          "name": "approved",
          "type": "bool"
        }
      ],
      "name": "ApprovalForAll",
      "type": "event"
    },
    {
      "anonymous": false,
      "inputs": [
        {
          "indexed": true,
          "internalType": "address",
          "name": "previousOwner",
          "type": "address"
        },
        {
          "indexed": true,
          "internalType": "address",
          "name": "newOwner",
          "type": "address"
        }
      ],
      "name": "OwnershipTransferred",
      "type": "event"
    },
    {
      "anonymous": false,
      "inputs": [
        {
          "indexed": true,
          "internalType": "address",
          "name": "to",
          "type": "address"
        },
        {
          "indexed": true,
          "internalType": "uint256",
          "name": "tokenId",
          "type": "uint256"
        }
      ],
      "name": "TokenMinted",
      "type": "event"
    },
    {
      "anonymous": false,
      "inputs": [
        {
          "indexed": true,
          "internalType": "address",
          "name": "from",
          "type": "address"
        },
        {
          "indexed": true,
          "internalType": "address",
          "name": "to",
          "type": "address"
        },
        {
          "indexed": true,
          "internalType": "uint256",
          "name": "tokenId",
          "type": "uint256"
        }
      ],
      "name": "Transfer",
      "type": "event"
    },
    {
      "inputs": [
        {
          "internalType": "address",
          "name": "to",
          "type": "address"
        },
        {
          "internalType": "uint256",
          "name": "tokenId",
          "type": "uint256"
        }
      ],
      "name": "approve",
      "outputs": [],
      "stateMutability": "nonpayable",
      "type": "function"
    },
    {
      "inputs": [
        {
          "internalType": "address",
          "name": "owner",
          "type": "address"
        }
      ],
      "name": "balanceOf",
      "outputs": [
        {
          "internalType": "uint256",
          "name": "",
          "type": "uint256"
        }
      ],
      "stateMutability": "view",
      "type": "function"
    },
    {
      "inputs": [],
      "name": "burnMultiplier",
      "outputs": [
        {
          "internalType": "uint256",
          "name": "",
          "type": "uint256"
        }
      ],
      "stateMutability": "view",
      "type": "function"
    },
    {
      "inputs": [
        {
          "components": [
            {
              "internalType": "string",
              "name": "snr",
              "type": "string"
            },
            {
              "internalType": "string",
              "name": "vbat",
              "type": "string"
            },
            {
              "internalType": "string",
              "name": "latitude",
              "type": "string"
            },
            {
              "internalType": "string",
              "name": "longitude",
              "type": "string"
            },
            {
              "internalType": "string",
              "name": "gasResistance",
              "type": "string"
            },
            {
              "internalType": "string",
              "name": "temperature",
              "type": "string"
            },
            {
              "internalType": "string",
              "name": "pressure",
              "type": "string"
            },
            {
              "internalType": "string",
              "name": "humidity",
              "type": "string"
            },
            {
              "internalType": "string",
              "name": "light",
              "type": "string"
            },
            {
              "internalType": "string",
              "name": "gyroscope",
              "type": "string"
            },
            {
              "internalType": "string",
              "name": "accelerometer",
              "type": "string"
            },
            {
              "internalType": "string",
              "name": "timestamp",
              "type": "string"
            }
          ],
          "internalType": "struct DatapointLoot.DataPoint",
          "name": "dataPoint",
          "type": "tuple"
        }
      ],
      "name": "calculateHashPower",
      "outputs": [
        {
          "internalType": "uint8",
          "name": "hashPower",
          "type": "uint8"
        }
      ],
      "stateMutability": "pure",
      "type": "function"
    },
    {
      "inputs": [
        {
          "internalType": "uint256",
          "name": "tokenId",
          "type": "uint256"
        }
      ],
      "name": "getApproved",
      "outputs": [
        {
          "internalType": "address",
          "name": "",
          "type": "address"
        }
      ],
      "stateMutability": "view",
      "type": "function"
    },
    {
      "inputs": [
        {
          "internalType": "address",
          "name": "owner",
          "type": "address"
        },
        {
          "internalType": "address",
          "name": "operator",
          "type": "address"
        }
      ],
      "name": "isApprovedForAll",
      "outputs": [
        {
          "internalType": "bool",
          "name": "",
          "type": "bool"
        }
      ],
      "stateMutability": "view",
      "type": "function"
    },
    {
      "inputs": [],
      "name": "name",
      "outputs": [
        {
          "internalType": "string",
          "name": "",
          "type": "string"
        }
      ],
      "stateMutability": "view",
      "type": "function"
    },
    {
      "inputs": [],
      "name": "owner",
      "outputs": [
        {
          "internalType": "address",
          "name": "",
          "type": "address"
        }
      ],
      "stateMutability": "view",
      "type": "function"
    },
    {
      "inputs": [
        {
          "internalType": "uint256",
          "name": "tokenId",
          "type": "uint256"
        }
      ],
      "name": "ownerOf",
      "outputs": [
        {
          "internalType": "address",
          "name": "",
          "type": "address"
        }
      ],
      "stateMutability": "view",
      "type": "function"
    },
    {
      "inputs": [],
      "name": "pbl",
      "outputs": [
        {
          "internalType": "contract PebbleToken",
          "name": "",
          "type": "address"
        }
      ],
      "stateMutability": "view",
      "type": "function"
    },
    {
      "inputs": [],
      "name": "renounceOwnership",
      "outputs": [],
      "stateMutability": "nonpayable",
      "type": "function"
    },
    {
      "inputs": [
        {
          "internalType": "address",
          "name": "to",
          "type": "address"
        },
        {
          "components": [
            {
              "internalType": "string",
              "name": "snr",
              "type": "string"
            },
            {
              "internalType": "string",
              "name": "vbat",
              "type": "string"
            },
            {
              "internalType": "string",
              "name": "latitude",
              "type": "string"
            },
            {
              "internalType": "string",
              "name": "longitude",
              "type": "string"
            },
            {
              "internalType": "string",
              "name": "gasResistance",
              "type": "string"
            },
            {
              "internalType": "string",
              "name": "temperature",
              "type": "string"
            },
            {
              "internalType": "string",
              "name": "pressure",
              "type": "string"
            },
            {
              "internalType": "string",
              "name": "humidity",
              "type": "string"
            },
            {
              "internalType": "string",
              "name": "light",
              "type": "string"
            },
            {
              "internalType": "string",
              "name": "gyroscope",
              "type": "string"
            },
            {
              "internalType": "string",
              "name": "accelerometer",
              "type": "string"
            },
            {
              "internalType": "string",
              "name": "timestamp",
              "type": "string"
            }
          ],
          "internalType": "struct DatapointLoot.DataPoint",
          "name": "dataPoint",
          "type": "tuple"
        }
      ],
      "name": "safeMint",
      "outputs": [],
      "stateMutability": "nonpayable",
      "type": "function"
    },
    {
      "inputs": [
        {
          "internalType": "address",
          "name": "from",
          "type": "address"
        },
        {
          "internalType": "address",
          "name": "to",
          "type": "address"
        },
        {
          "internalType": "uint256",
          "name": "tokenId",
          "type": "uint256"
        }
      ],
      "name": "safeTransferFrom",
      "outputs": [],
      "stateMutability": "nonpayable",
      "type": "function"
    },
    {
      "inputs": [
        {
          "internalType": "address",
          "name": "from",
          "type": "address"
        },
        {
          "internalType": "address",
          "name": "to",
          "type": "address"
        },
        {
          "internalType": "uint256",
          "name": "tokenId",
          "type": "uint256"
        },
        {
          "internalType": "bytes",
          "name": "_data",
          "type": "bytes"
        }
      ],
      "name": "safeTransferFrom",
      "outputs": [],
      "stateMutability": "nonpayable",
      "type": "function"
    },
    {
      "inputs": [
        {
          "internalType": "address",
          "name": "operator",
          "type": "address"
        },
        {
          "internalType": "bool",
          "name": "approved",
          "type": "bool"
        }
      ],
      "name": "setApprovalForAll",
      "outputs": [],
      "stateMutability": "nonpayable",
      "type": "function"
    },
    {
      "inputs": [
        {
          "internalType": "bytes4",
          "name": "interfaceId",
          "type": "bytes4"
        }
      ],
      "name": "supportsInterface",
      "outputs": [
        {
          "internalType": "bool",
          "name": "",
          "type": "bool"
        }
      ],
      "stateMutability": "view",
      "type": "function"
    },
    {
      "inputs": [],
      "name": "symbol",
      "outputs": [
        {
          "internalType": "string",
          "name": "",
          "type": "string"
        }
      ],
      "stateMutability": "view",
      "type": "function"
    },
    {
      "inputs": [
        {
          "internalType": "uint256",
          "name": "index",
          "type": "uint256"
        }
      ],
      "name": "tokenByIndex",
      "outputs": [
        {
          "internalType": "uint256",
          "name": "",
          "type": "uint256"
        }
      ],
      "stateMutability": "view",
      "type": "function"
    },
    {
      "inputs": [
        {
          "internalType": "address",
          "name": "owner",
          "type": "address"
        },
        {
          "internalType": "uint256",
          "name": "index",
          "type": "uint256"
        }
      ],
      "name": "tokenOfOwnerByIndex",
      "outputs": [
        {
          "internalType": "uint256",
          "name": "",
          "type": "uint256"
        }
      ],
      "stateMutability": "view",
      "type": "function"
    },
    {
      "inputs": [
        {
          "internalType": "uint256",
          "name": "",
          "type": "uint256"
        }
      ],
      "name": "tokenToDataPoint",
      "outputs": [
        {
          "internalType": "string",
          "name": "snr",
          "type": "string"
        },
        {
          "internalType": "string",
          "name": "vbat",
          "type": "string"
        },
        {
          "internalType": "string",
          "name": "latitude",
          "type": "string"
        },
        {
          "internalType": "string",
          "name": "longitude",
          "type": "string"
        },
        {
          "internalType": "string",
          "name": "gasResistance",
          "type": "string"
        },
        {
          "internalType": "string",
          "name": "temperature",
          "type": "string"
        },
        {
          "internalType": "string",
          "name": "pressure",
          "type": "string"
        },
        {
          "internalType": "string",
          "name": "humidity",
          "type": "string"
        },
        {
          "internalType": "string",
          "name": "light",
          "type": "string"
        },
        {
          "internalType": "string",
          "name": "gyroscope",
          "type": "string"
        },
        {
          "internalType": "string",
          "name": "accelerometer",
          "type": "string"
        },
        {
          "internalType": "string",
          "name": "timestamp",
          "type": "string"
        }
      ],
      "stateMutability": "view",
      "type": "function"
    },
    {
      "inputs": [
        {
          "internalType": "uint256",
          "name": "",
          "type": "uint256"
        }
      ],
      "name": "tokenToHashPower",
      "outputs": [
        {
          "internalType": "uint8",
          "name": "",
          "type": "uint8"
        }
      ],
      "stateMutability": "view",
      "type": "function"
    },
    {
      "inputs": [
        {
          "internalType": "uint256",
          "name": "tokenId",
          "type": "uint256"
        }
      ],
      "name": "tokenURI",
      "outputs": [
        {
          "internalType": "string",
          "name": "",
          "type": "string"
        }
      ],
      "stateMutability": "view",
      "type": "function"
    },
    {
      "inputs": [],
      "name": "totalSupply",
      "outputs": [
        {
          "internalType": "uint256",
          "name": "",
          "type": "uint256"
        }
      ],
      "stateMutability": "view",
      "type": "function"
    },
    {
      "inputs": [
        {
          "internalType": "address",
          "name": "from",
          "type": "address"
        },
        {
          "internalType": "address",
          "name": "to",
          "type": "address"
        },
        {
          "internalType": "uint256",
          "name": "tokenId",
          "type": "uint256"
        }
      ],
      "name": "transferFrom",
      "outputs": [],
      "stateMutability": "nonpayable",
      "type": "function"
    },
    {
      "inputs": [
        {
          "internalType": "address",
          "name": "newOwner",
          "type": "address"
        }
      ],
      "name": "transferOwnership",
      "outputs": [],
      "stateMutability": "nonpayable",
      "type": "function"
    },
    {
      "inputs": [
        {
          "internalType": "uint256",
          "name": "_burnMultiplier",
          "type": "uint256"
        }
      ],
      "name": "updateBurnMultiplier",
      "outputs": [],
      "stateMutability": "nonpayable",
      "type": "function"
    },
    {
      "inputs": [
        {
          "internalType": "address payable",
          "name": "_feeReceipient",
          "type": "address"
        }
      ],
      "name": "updateFeeReceipient",
      "outputs": [],
      "stateMutability": "nonpayable",
      "type": "function"
    }
  ],
  "bytecode": "0x60806040523480156200001157600080fd5b50604051620061ec380380620061ec83398181016040528101906200003791906200034c565b6040518060400160405280600e81526020017f44617461706f696e74204c6f6f740000000000000000000000000000000000008152506040518060400160405280600381526020017f444c5400000000000000000000000000000000000000000000000000000000008152508160009080519060200190620000bb92919062000257565b508060019080519060200190620000d492919062000257565b505050620000f7620000eb6200018960201b60201c565b6200019160201b60201c565b82600b60006101000a81548173ffffffffffffffffffffffffffffffffffffffff021916908373ffffffffffffffffffffffffffffffffffffffff16021790555081600c8190555080600d60006101000a81548173ffffffffffffffffffffffffffffffffffffffff021916908373ffffffffffffffffffffffffffffffffffffffff160217905550505050620004bb565b600033905090565b6000600a60009054906101000a900473ffffffffffffffffffffffffffffffffffffffff16905081600a60006101000a81548173ffffffffffffffffffffffffffffffffffffffff021916908373ffffffffffffffffffffffffffffffffffffffff1602179055508173ffffffffffffffffffffffffffffffffffffffff168173ffffffffffffffffffffffffffffffffffffffff167f8be0079c531659141344cd1fd0a4f28419497f9722a3daafe3b4186f6b6457e060405160405180910390a35050565b828054620002659062000408565b90600052602060002090601f016020900481019282620002895760008555620002d5565b82601f10620002a457805160ff1916838001178555620002d5565b82800160010185558215620002d5579182015b82811115620002d4578251825591602001919060010190620002b7565b5b509050620002e49190620002e8565b5090565b5b8082111562000303576000816000905550600101620002e9565b5090565b60008151905062000318816200046d565b92915050565b6000815190506200032f8162000487565b92915050565b6000815190506200034681620004a1565b92915050565b6000806000606084860312156200036257600080fd5b600062000372868287016200031e565b9350506020620003858682870162000335565b9250506040620003988682870162000307565b9150509250925092565b6000620003af82620003de565b9050919050565b6000620003c382620003de565b9050919050565b6000620003d782620003a2565b9050919050565b600073ffffffffffffffffffffffffffffffffffffffff82169050919050565b6000819050919050565b600060028204905060018216806200042157607f821691505b602082108114156200043857620004376200043e565b5b50919050565b7f4e487b7100000000000000000000000000000000000000000000000000000000600052602260045260246000fd5b6200047881620003b6565b81146200048457600080fd5b50565b6200049281620003ca565b81146200049e57600080fd5b50565b620004ac81620003fe565b8114620004b857600080fd5b50565b615d2180620004cb6000396000f3fe608060405234801561001057600080fd5b50600436106101a95760003560e01c80635e3d9df1116100f957806395d89b4111610097578063b88d4fde11610071578063b88d4fde146104eb578063c87b56dd14610507578063e985e9c514610537578063f2fde38b14610567576101a9565b806395d89b4114610495578063a22cb465146104b3578063a9278a99146104cf576101a9565b80636b791f58116100d35780636b791f581461040d57806370a082311461043d578063715018a61461046d5780638da5cb5b14610477576101a9565b80635e3d9df1146103915780636352211e146103c157806369468c37146103f1576101a9565b806323b872dd1161016657806342842e0e1161014057806342842e0e1461030b57806348083bba146103275780634f6ccce7146103455780635c42690a14610375576101a9565b806323b872dd146102a15780632f745c59146102bd5780633939a897146102ed576101a9565b806301ffc9a7146101ae57806305ad0f98146101de57806306fdde0314610219578063081812fc14610237578063095ea7b31461026757806318160ddd14610283575b600080fd5b6101c860048036038101906101c39190613a86565b610583565b6040516101d5919061463d565b60405180910390f35b6101f860048036038101906101f39190613b19565b610595565b6040516102109c9b9a99989796959493929190614695565b60405180910390f35b610221610c55565b60405161022e9190614673565b60405180910390f35b610251600480360381019061024c9190613b19565b610ce7565b60405161025e9190614576565b60405180910390f35b610281600480360381019061027c9190613a21565b610d6c565b005b61028b610e84565b60405161029891906149e3565b60405180910390f35b6102bb60048036038101906102b691906138c7565b610e91565b005b6102d760048036038101906102d29190613a21565b610ef1565b6040516102e491906149e3565b60405180910390f35b6102f5610f96565b60405161030291906149e3565b60405180910390f35b610325600480360381019061032091906138c7565b610f9c565b005b61032f610fbc565b60405161033c9190614658565b60405180910390f35b61035f600480360381019061035a9190613b19565b610fe2565b60405161036c91906149e3565b60405180910390f35b61038f600480360381019061038a9190613862565b611079565b005b6103ab60048036038101906103a69190613b19565b611139565b6040516103b891906149fe565b60405180910390f35b6103db60048036038101906103d69190613b19565b611159565b6040516103e89190614576565b60405180910390f35b61040b600480360381019061040691906139cd565b61120b565b005b61042760048036038101906104229190613ad8565b6116cc565b60405161043491906149fe565b60405180910390f35b61045760048036038101906104529190613839565b61180e565b60405161046491906149e3565b60405180910390f35b6104756118c6565b005b61047f61194e565b60405161048c9190614576565b60405180910390f35b61049d611978565b6040516104aa9190614673565b60405180910390f35b6104cd60048036038101906104c89190613991565b611a0a565b005b6104e960048036038101906104e49190613b19565b611b8b565b005b61050560048036038101906105009190613916565b611c11565b005b610521600480360381019061051c9190613b19565b611c73565b60405161052e9190614673565b60405180910390f35b610551600480360381019061054c919061388b565b611eb8565b60405161055e919061463d565b60405180910390f35b610581600480360381019061057c9190613839565b611f4c565b005b600061058e82612044565b9050919050565b600e6020528060005260406000206000915090508060000180546105b890614d4e565b80601f01602080910402602001604051908101604052809291908181526020018280546105e490614d4e565b80156106315780601f1061060657610100808354040283529160200191610631565b820191906000526020600020905b81548152906001019060200180831161061457829003601f168201915b50505050509080600101805461064690614d4e565b80601f016020809104026020016040519081016040528092919081815260200182805461067290614d4e565b80156106bf5780601f10610694576101008083540402835291602001916106bf565b820191906000526020600020905b8154815290600101906020018083116106a257829003601f168201915b5050505050908060020180546106d490614d4e565b80601f016020809104026020016040519081016040528092919081815260200182805461070090614d4e565b801561074d5780601f106107225761010080835404028352916020019161074d565b820191906000526020600020905b81548152906001019060200180831161073057829003601f168201915b50505050509080600301805461076290614d4e565b80601f016020809104026020016040519081016040528092919081815260200182805461078e90614d4e565b80156107db5780601f106107b0576101008083540402835291602001916107db565b820191906000526020600020905b8154815290600101906020018083116107be57829003601f168201915b5050505050908060040180546107f090614d4e565b80601f016020809104026020016040519081016040528092919081815260200182805461081c90614d4e565b80156108695780601f1061083e57610100808354040283529160200191610869565b820191906000526020600020905b81548152906001019060200180831161084c57829003601f168201915b50505050509080600501805461087e90614d4e565b80601f01602080910402602001604051908101604052809291908181526020018280546108aa90614d4e565b80156108f75780601f106108cc576101008083540402835291602001916108f7565b820191906000526020600020905b8154815290600101906020018083116108da57829003601f168201915b50505050509080600601805461090c90614d4e565b80601f016020809104026020016040519081016040528092919081815260200182805461093890614d4e565b80156109855780601f1061095a57610100808354040283529160200191610985565b820191906000526020600020905b81548152906001019060200180831161096857829003601f168201915b50505050509080600701805461099a90614d4e565b80601f01602080910402602001604051908101604052809291908181526020018280546109c690614d4e565b8015610a135780601f106109e857610100808354040283529160200191610a13565b820191906000526020600020905b8154815290600101906020018083116109f657829003601f168201915b505050505090806008018054610a2890614d4e565b80601f0160208091040260200160405190810160405280929190818152602001828054610a5490614d4e565b8015610aa15780601f10610a7657610100808354040283529160200191610aa1565b820191906000526020600020905b815481529060010190602001808311610a8457829003601f168201915b505050505090806009018054610ab690614d4e565b80601f0160208091040260200160405190810160405280929190818152602001828054610ae290614d4e565b8015610b2f5780601f10610b0457610100808354040283529160200191610b2f565b820191906000526020600020905b815481529060010190602001808311610b1257829003601f168201915b50505050509080600a018054610b4490614d4e565b80601f0160208091040260200160405190810160405280929190818152602001828054610b7090614d4e565b8015610bbd5780601f10610b9257610100808354040283529160200191610bbd565b820191906000526020600020905b815481529060010190602001808311610ba057829003601f168201915b50505050509080600b018054610bd290614d4e565b80601f0160208091040260200160405190810160405280929190818152602001828054610bfe90614d4e565b8015610c4b5780601f10610c2057610100808354040283529160200191610c4b565b820191906000526020600020905b815481529060010190602001808311610c2e57829003601f168201915b505050505090508c565b606060008054610c6490614d4e565b80601f0160208091040260200160405190810160405280929190818152602001828054610c9090614d4e565b8015610cdd5780601f10610cb257610100808354040283529160200191610cdd565b820191906000526020600020905b815481529060010190602001808311610cc057829003601f168201915b5050505050905090565b6000610cf2826120be565b610d31576040517f08c379a0000000000000000000000000000000000000000000000000000000008152600401610d2890614923565b60405180910390fd5b6004600083815260200190815260200160002060009054906101000a900473ffffffffffffffffffffffffffffffffffffffff169050919050565b6000610d7782611159565b90508073ffffffffffffffffffffffffffffffffffffffff168373ffffffffffffffffffffffffffffffffffffffff161415610de8576040517f08c379a0000000000000000000000000000000000000000000000000000000008152600401610ddf90614983565b60405180910390fd5b8073ffffffffffffffffffffffffffffffffffffffff16610e0761212a565b73ffffffffffffffffffffffffffffffffffffffff161480610e365750610e3581610e3061212a565b611eb8565b5b610e75576040517f08c379a0000000000000000000000000000000000000000000000000000000008152600401610e6c906148a3565b60405180910390fd5b610e7f8383612132565b505050565b6000600880549050905090565b610ea2610e9c61212a565b826121eb565b610ee1576040517f08c379a0000000000000000000000000000000000000000000000000000000008152600401610ed8906149a3565b60405180910390fd5b610eec8383836122c9565b505050565b6000610efc8361180e565b8210610f3d576040517f08c379a0000000000000000000000000000000000000000000000000000000008152600401610f34906147a3565b60405180910390fd5b600660008473ffffffffffffffffffffffffffffffffffffffff1673ffffffffffffffffffffffffffffffffffffffff168152602001908152602001600020600083815260200190815260200160002054905092915050565b600c5481565b610fb783838360405180602001604052806000815250611c11565b505050565b600b60009054906101000a900473ffffffffffffffffffffffffffffffffffffffff1681565b6000610fec610e84565b821061102d576040517f08c379a0000000000000000000000000000000000000000000000000000000008152600401611024906149c3565b60405180910390fd5b60088281548110611067577f4e487b7100000000000000000000000000000000000000000000000000000000600052603260045260246000fd5b90600052602060002001549050919050565b61108161212a565b73ffffffffffffffffffffffffffffffffffffffff1661109f61194e565b73ffffffffffffffffffffffffffffffffffffffff16146110f5576040517f08c379a00000000000000000000000000000000000000000000000000000000081526004016110ec90614943565b60405180910390fd5b80600d60006101000a81548173ffffffffffffffffffffffffffffffffffffffff021916908373ffffffffffffffffffffffffffffffffffffffff16021790555050565b600f6020528060005260406000206000915054906101000a900460ff1681565b6000806002600084815260200190815260200160002060009054906101000a900473ffffffffffffffffffffffffffffffffffffffff169050600073ffffffffffffffffffffffffffffffffffffffff168173ffffffffffffffffffffffffffffffffffffffff161415611202576040517f08c379a00000000000000000000000000000000000000000000000000000000081526004016111f9906148e3565b60405180910390fd5b80915050919050565b6000611216826116cc565b90506000611232600c548360ff1661252590919063ffffffff16565b90508160ff16816112439190614af8565b600b60009054906101000a900473ffffffffffffffffffffffffffffffffffffffff1673ffffffffffffffffffffffffffffffffffffffff166370a0823161128961212a565b6040518263ffffffff1660e01b81526004016112a59190614576565b60206040518083038186803b1580156112bd57600080fd5b505afa1580156112d1573d6000803e3d6000fd5b505050506040513d601f19601f820116820180604052508101906112f59190613b42565b1015611336576040517f08c379a000000000000000000000000000000000000000000000000000000000815260040161132d90614823565b60405180910390fd5b600b60009054906101000a900473ffffffffffffffffffffffffffffffffffffffff1673ffffffffffffffffffffffffffffffffffffffff166379cc679061137c61212a565b836040518363ffffffff1660e01b815260040161139a929190614614565b600060405180830381600087803b1580156113b457600080fd5b505af11580156113c8573d6000803e3d6000fd5b50505050600b60009054906101000a900473ffffffffffffffffffffffffffffffffffffffff1673ffffffffffffffffffffffffffffffffffffffff166323b872dd61141261212a565b600d60009054906101000a900473ffffffffffffffffffffffffffffffffffffffff16856040518463ffffffff1660e01b815260040161145493929190614591565b602060405180830381600087803b15801561146e57600080fd5b505af1158015611482573d6000803e3d6000fd5b505050506040513d601f19601f820116820180604052508101906114a69190613a5d565b506114ba846114b5601061253b565b612549565b82600e60006114c9601061253b565b815260200190815260200160002060008201518160000190805190602001906114f39291906133e0565b5060208201518160010190805190602001906115109291906133e0565b50604082015181600201908051906020019061152d9291906133e0565b50606082015181600301908051906020019061154a9291906133e0565b5060808201518160040190805190602001906115679291906133e0565b5060a08201518160050190805190602001906115849291906133e0565b5060c08201518160060190805190602001906115a19291906133e0565b5060e08201518160070190805190602001906115be9291906133e0565b506101008201518160080190805190602001906115dc9291906133e0565b506101208201518160090190805190602001906115fa9291906133e0565b5061014082015181600a0190805190602001906116189291906133e0565b5061016082015181600b0190805190602001906116369291906133e0565b5090505081600f6000611649601061253b565b815260200190815260200160002060006101000a81548160ff021916908360ff160217905550611679601061253b565b8473ffffffffffffffffffffffffffffffffffffffff167fb9144c96c86541f6fa89c9f2f02495cccf4b08cd6643e26d34ee00aa586558a860405160405180910390a36116c66010612567565b50505050565b600080826000015183602001518460400151856060015186608001518760a001518860c001518960e001518a61010001518b61012001518c61014001518d610160015160405160200161172a9c9b9a99989796959493929190614293565b6040516020818303038152906040528051906020012090506000611764633b9aca008360e01c63ffffffff1661257d90919063ffffffff16565b14156117735760109150611808565b6000611794620f42408360e01c63ffffffff1661257d90919063ffffffff16565b14156117a35760089150611807565b60006117c36103e88360e01c63ffffffff1661257d90919063ffffffff16565b14156117d25760049150611806565b60006117f1600a8360e01c63ffffffff1661257d90919063ffffffff16565b14156118005760029150611805565b600191505b5b5b5b50919050565b60008073ffffffffffffffffffffffffffffffffffffffff168273ffffffffffffffffffffffffffffffffffffffff16141561187f576040517f08c379a0000000000000000000000000000000000000000000000000000000008152600401611876906148c3565b60405180910390fd5b600360008373ffffffffffffffffffffffffffffffffffffffff1673ffffffffffffffffffffffffffffffffffffffff168152602001908152602001600020549050919050565b6118ce61212a565b73ffffffffffffffffffffffffffffffffffffffff166118ec61194e565b73ffffffffffffffffffffffffffffffffffffffff1614611942576040517f08c379a000000000000000000000000000000000000000000000000000000000815260040161193990614943565b60405180910390fd5b61194c6000612593565b565b6000600a60009054906101000a900473ffffffffffffffffffffffffffffffffffffffff16905090565b60606001805461198790614d4e565b80601f01602080910402602001604051908101604052809291908181526020018280546119b390614d4e565b8015611a005780601f106119d557610100808354040283529160200191611a00565b820191906000526020600020905b8154815290600101906020018083116119e357829003601f168201915b5050505050905090565b611a1261212a565b73ffffffffffffffffffffffffffffffffffffffff168273ffffffffffffffffffffffffffffffffffffffff161415611a80576040517f08c379a0000000000000000000000000000000000000000000000000000000008152600401611a7790614863565b60405180910390fd5b8060056000611a8d61212a565b73ffffffffffffffffffffffffffffffffffffffff1673ffffffffffffffffffffffffffffffffffffffff16815260200190815260200160002060008473ffffffffffffffffffffffffffffffffffffffff1673ffffffffffffffffffffffffffffffffffffffff16815260200190815260200160002060006101000a81548160ff0219169083151502179055508173ffffffffffffffffffffffffffffffffffffffff16611b3a61212a565b73ffffffffffffffffffffffffffffffffffffffff167f17307eab39ab6107e8899845ad3d59bd9653f200f220920489ca2b5937696c3183604051611b7f919061463d565b60405180910390a35050565b611b9361212a565b73ffffffffffffffffffffffffffffffffffffffff16611bb161194e565b73ffffffffffffffffffffffffffffffffffffffff1614611c07576040517f08c379a0000000000000000000000000000000000000000000000000000000008152600401611bfe90614943565b60405180910390fd5b80600c8190555050565b611c22611c1c61212a565b836121eb565b611c61576040517f08c379a0000000000000000000000000000000000000000000000000000000008152600401611c58906149a3565b60405180910390fd5b611c6d84848484612659565b50505050565b60606000611c80836126b5565b600e6000858152602001908152602001600020600001600e6000868152602001908152602001600020600101600e6000878152602001908152602001600020600201600e6000888152602001908152602001600020600301600e6000898152602001908152602001600020600401600e60008a8152602001908152602001600020600501600e60008b8152602001908152602001600020600601604051602001611d319897969594939291906143f5565b604051602081830303815290604052905080600e6000858152602001908152602001600020600701600e6000868152602001908152602001600020600801600e6000878152602001908152602001600020600901600e6000888152602001908152602001600020600a01600e6000898152602001908152602001600020600b01611ddd600f60008b815260200190815260200160002060009054906101000a900460ff1660ff166126b5565b604051602001611df39796959493929190614339565b60405160208183030381529060405290506000611e0f846126b5565b604051602001611e1f9190614549565b60405160208183030381529060405290506000604051602001611e41906143e0565b60405160208183030381529060405290506000611e888383611e6287612862565b604051602001611e74939291906144ca565b604051602081830303815290604052612862565b905080604051602001611e9b9190614527565b604051602081830303815290604052935083945050505050919050565b6000600560008473ffffffffffffffffffffffffffffffffffffffff1673ffffffffffffffffffffffffffffffffffffffff16815260200190815260200160002060008373ffffffffffffffffffffffffffffffffffffffff1673ffffffffffffffffffffffffffffffffffffffff16815260200190815260200160002060009054906101000a900460ff16905092915050565b611f5461212a565b73ffffffffffffffffffffffffffffffffffffffff16611f7261194e565b73ffffffffffffffffffffffffffffffffffffffff1614611fc8576040517f08c379a0000000000000000000000000000000000000000000000000000000008152600401611fbf90614943565b60405180910390fd5b600073ffffffffffffffffffffffffffffffffffffffff168173ffffffffffffffffffffffffffffffffffffffff161415612038576040517f08c379a000000000000000000000000000000000000000000000000000000000815260040161202f906147e3565b60405180910390fd5b61204181612593565b50565b60007f780e9d63000000000000000000000000000000000000000000000000000000007bffffffffffffffffffffffffffffffffffffffffffffffffffffffff1916827bffffffffffffffffffffffffffffffffffffffffffffffffffffffff191614806120b757506120b682612a20565b5b9050919050565b60008073ffffffffffffffffffffffffffffffffffffffff166002600084815260200190815260200160002060009054906101000a900473ffffffffffffffffffffffffffffffffffffffff1673ffffffffffffffffffffffffffffffffffffffff1614159050919050565b600033905090565b816004600083815260200190815260200160002060006101000a81548173ffffffffffffffffffffffffffffffffffffffff021916908373ffffffffffffffffffffffffffffffffffffffff160217905550808273ffffffffffffffffffffffffffffffffffffffff166121a583611159565b73ffffffffffffffffffffffffffffffffffffffff167f8c5be1e5ebec7d5bd14f71427d1e84f3dd0314c0f7b2291e5b200ac8c7c3b92560405160405180910390a45050565b60006121f6826120be565b612235576040517f08c379a000000000000000000000000000000000000000000000000000000000815260040161222c90614883565b60405180910390fd5b600061224083611159565b90508073ffffffffffffffffffffffffffffffffffffffff168473ffffffffffffffffffffffffffffffffffffffff1614806122af57508373ffffffffffffffffffffffffffffffffffffffff1661229784610ce7565b73ffffffffffffffffffffffffffffffffffffffff16145b806122c057506122bf8185611eb8565b5b91505092915050565b8273ffffffffffffffffffffffffffffffffffffffff166122e982611159565b73ffffffffffffffffffffffffffffffffffffffff161461233f576040517f08c379a000000000000000000000000000000000000000000000000000000000815260040161233690614963565b60405180910390fd5b600073ffffffffffffffffffffffffffffffffffffffff168273ffffffffffffffffffffffffffffffffffffffff1614156123af576040517f08c379a00000000000000000000000000000000000000000000000000000000081526004016123a690614843565b60405180910390fd5b6123ba838383612b02565b6123c5600082612132565b6001600360008573ffffffffffffffffffffffffffffffffffffffff1673ffffffffffffffffffffffffffffffffffffffff16815260200190815260200160002060008282546124159190614bd9565b925050819055506001600360008473ffffffffffffffffffffffffffffffffffffffff1673ffffffffffffffffffffffffffffffffffffffff168152602001908152602001600020600082825461246c9190614af8565b92505081905550816002600083815260200190815260200160002060006101000a81548173ffffffffffffffffffffffffffffffffffffffff021916908373ffffffffffffffffffffffffffffffffffffffff160217905550808273ffffffffffffffffffffffffffffffffffffffff168473ffffffffffffffffffffffffffffffffffffffff167fddf252ad1be2c89b69c2b068fc378daa952ba7f163c4a11628f55a4df523b3ef60405160405180910390a4505050565b600081836125339190614b7f565b905092915050565b600081600001549050919050565b612563828260405180602001604052806000815250612b12565b5050565b6001816000016000828254019250508190555050565b6000818361258b9190614dfa565b905092915050565b6000600a60009054906101000a900473ffffffffffffffffffffffffffffffffffffffff16905081600a60006101000a81548173ffffffffffffffffffffffffffffffffffffffff021916908373ffffffffffffffffffffffffffffffffffffffff1602179055508173ffffffffffffffffffffffffffffffffffffffff168173ffffffffffffffffffffffffffffffffffffffff167f8be0079c531659141344cd1fd0a4f28419497f9722a3daafe3b4186f6b6457e060405160405180910390a35050565b6126648484846122c9565b61267084848484612b6d565b6126af576040517f08c379a00000000000000000000000000000000000000000000000000000000081526004016126a6906147c3565b60405180910390fd5b50505050565b606060008214156126fd576040518060400160405280600181526020017f3000000000000000000000000000000000000000000000000000000000000000815250905061285d565b600082905060005b6000821461272f57808061271890614db1565b915050600a826127289190614b4e565b9150612705565b60008167ffffffffffffffff811115612771577f4e487b7100000000000000000000000000000000000000000000000000000000600052604160045260246000fd5b6040519080825280601f01601f1916602001820160405280156127a35781602001600182028036833780820191505090505b5090505b60008514612856576001826127bc9190614bd9565b9150600a856127cb9190614dfa565b60306127d79190614af8565b60f81b818381518110612813577f4e487b7100000000000000000000000000000000000000000000000000000000600052603260045260246000fd5b60200101907effffffffffffffffffffffffffffffffffffffffffffffffffffffffffffff1916908160001a905350600a8561284f9190614b4e565b94506127a7565b8093505050505b919050565b6060600082519050600081141561288b5760405180602001604052806000815250915050612a1b565b6000600360028361289c9190614af8565b6128a69190614b4e565b60046128b29190614b7f565b905060006020826128c39190614af8565b67ffffffffffffffff811115612902577f4e487b7100000000000000000000000000000000000000000000000000000000600052604160045260246000fd5b6040519080825280601f01601f1916602001820160405280156129345781602001600182028036833780820191505090505b5090506000604051806060016040528060408152602001615cac604091399050600181016020830160005b868110156129d85760038101905062ffffff818a015116603f8160121c168401518060081b905060ff603f83600c1c1686015116810190508060081b905060ff603f8360061c1686015116810190508060081b905060ff603f831686015116810190508060e01b9050808452600484019350505061295f565b5060038606600181146129f25760028114612a0257612a0d565b613d3d60f01b6002830352612a0d565b603d60f81b60018303525b508484525050819450505050505b919050565b60007f80ac58cd000000000000000000000000000000000000000000000000000000007bffffffffffffffffffffffffffffffffffffffffffffffffffffffff1916827bffffffffffffffffffffffffffffffffffffffffffffffffffffffff19161480612aeb57507f5b5e139f000000000000000000000000000000000000000000000000000000007bffffffffffffffffffffffffffffffffffffffffffffffffffffffff1916827bffffffffffffffffffffffffffffffffffffffffffffffffffffffff1916145b80612afb5750612afa82612d04565b5b9050919050565b612b0d838383612d6e565b505050565b612b1c8383612e82565b612b296000848484612b6d565b612b68576040517f08c379a0000000000000000000000000000000000000000000000000000000008152600401612b5f906147c3565b60405180910390fd5b505050565b6000612b8e8473ffffffffffffffffffffffffffffffffffffffff16613050565b15612cf7578373ffffffffffffffffffffffffffffffffffffffff1663150b7a02612bb761212a565b8786866040518563ffffffff1660e01b8152600401612bd994939291906145c8565b602060405180830381600087803b158015612bf357600080fd5b505af1925050508015612c2457506040513d601f19601f82011682018060405250810190612c219190613aaf565b60015b612ca7573d8060008114612c54576040519150601f19603f3d011682016040523d82523d6000602084013e612c59565b606091505b50600081511415612c9f576040517f08c379a0000000000000000000000000000000000000000000000000000000008152600401612c96906147c3565b60405180910390fd5b805181602001fd5b63150b7a0260e01b7bffffffffffffffffffffffffffffffffffffffffffffffffffffffff1916817bffffffffffffffffffffffffffffffffffffffffffffffffffffffff191614915050612cfc565b600190505b949350505050565b60007f01ffc9a7000000000000000000000000000000000000000000000000000000007bffffffffffffffffffffffffffffffffffffffffffffffffffffffff1916827bffffffffffffffffffffffffffffffffffffffffffffffffffffffff1916149050919050565b612d79838383613063565b600073ffffffffffffffffffffffffffffffffffffffff168373ffffffffffffffffffffffffffffffffffffffff161415612dbc57612db781613068565b612dfb565b8173ffffffffffffffffffffffffffffffffffffffff168373ffffffffffffffffffffffffffffffffffffffff1614612dfa57612df983826130b1565b5b5b600073ffffffffffffffffffffffffffffffffffffffff168273ffffffffffffffffffffffffffffffffffffffff161415612e3e57612e398161321e565b612e7d565b8273ffffffffffffffffffffffffffffffffffffffff168273ffffffffffffffffffffffffffffffffffffffff1614612e7c57612e7b8282613361565b5b5b505050565b600073ffffffffffffffffffffffffffffffffffffffff168273ffffffffffffffffffffffffffffffffffffffff161415612ef2576040517f08c379a0000000000000000000000000000000000000000000000000000000008152600401612ee990614903565b60405180910390fd5b612efb816120be565b15612f3b576040517f08c379a0000000000000000000000000000000000000000000000000000000008152600401612f3290614803565b60405180910390fd5b612f4760008383612b02565b6001600360008473ffffffffffffffffffffffffffffffffffffffff1673ffffffffffffffffffffffffffffffffffffffff1681526020019081526020016000206000828254612f979190614af8565b92505081905550816002600083815260200190815260200160002060006101000a81548173ffffffffffffffffffffffffffffffffffffffff021916908373ffffffffffffffffffffffffffffffffffffffff160217905550808273ffffffffffffffffffffffffffffffffffffffff16600073ffffffffffffffffffffffffffffffffffffffff167fddf252ad1be2c89b69c2b068fc378daa952ba7f163c4a11628f55a4df523b3ef60405160405180910390a45050565b600080823b905060008111915050919050565b505050565b6008805490506009600083815260200190815260200160002081905550600881908060018154018082558091505060019003906000526020600020016000909190919091505550565b600060016130be8461180e565b6130c89190614bd9565b90506000600760008481526020019081526020016000205490508181146131ad576000600660008673ffffffffffffffffffffffffffffffffffffffff1673ffffffffffffffffffffffffffffffffffffffff168152602001908152602001600020600084815260200190815260200160002054905080600660008773ffffffffffffffffffffffffffffffffffffffff1673ffffffffffffffffffffffffffffffffffffffff168152602001908152602001600020600084815260200190815260200160002081905550816007600083815260200190815260200160002081905550505b6007600084815260200190815260200160002060009055600660008573ffffffffffffffffffffffffffffffffffffffff1673ffffffffffffffffffffffffffffffffffffffff16815260200190815260200160002060008381526020019081526020016000206000905550505050565b600060016008805490506132329190614bd9565b9050600060096000848152602001908152602001600020549050600060088381548110613288577f4e487b7100000000000000000000000000000000000000000000000000000000600052603260045260246000fd5b9060005260206000200154905080600883815481106132d0577f4e487b7100000000000000000000000000000000000000000000000000000000600052603260045260246000fd5b906000526020600020018190555081600960008381526020019081526020016000208190555060096000858152602001908152602001600020600090556008805480613345577f4e487b7100000000000000000000000000000000000000000000000000000000600052603160045260246000fd5b6001900381819060005260206000200160009055905550505050565b600061336c8361180e565b905081600660008573ffffffffffffffffffffffffffffffffffffffff1673ffffffffffffffffffffffffffffffffffffffff168152602001908152602001600020600083815260200190815260200160002081905550806007600084815260200190815260200160002081905550505050565b8280546133ec90614d4e565b90600052602060002090601f01602090048101928261340e5760008555613455565b82601f1061342757805160ff1916838001178555613455565b82800160010185558215613455579182015b82811115613454578251825591602001919060010190613439565b5b5090506134629190613466565b5090565b5b8082111561347f576000816000905550600101613467565b5090565b600061349661349184614a3e565b614a19565b9050828152602081018484840111156134ae57600080fd5b6134b9848285614d0c565b509392505050565b60006134d46134cf84614a6f565b614a19565b9050828152602081018484840111156134ec57600080fd5b6134f7848285614d0c565b509392505050565b60008135905061350e81615c38565b92915050565b60008135905061352381615c4f565b92915050565b60008135905061353881615c66565b92915050565b60008151905061354d81615c66565b92915050565b60008135905061356281615c7d565b92915050565b60008151905061357781615c7d565b92915050565b600082601f83011261358e57600080fd5b813561359e848260208601613483565b91505092915050565b600082601f8301126135b857600080fd5b81356135c88482602086016134c1565b91505092915050565b600061018082840312156135e457600080fd5b6135ef610180614a19565b9050600082013567ffffffffffffffff81111561360b57600080fd5b613617848285016135a7565b600083015250602082013567ffffffffffffffff81111561363757600080fd5b613643848285016135a7565b602083015250604082013567ffffffffffffffff81111561366357600080fd5b61366f848285016135a7565b604083015250606082013567ffffffffffffffff81111561368f57600080fd5b61369b848285016135a7565b606083015250608082013567ffffffffffffffff8111156136bb57600080fd5b6136c7848285016135a7565b60808301525060a082013567ffffffffffffffff8111156136e757600080fd5b6136f3848285016135a7565b60a08301525060c082013567ffffffffffffffff81111561371357600080fd5b61371f848285016135a7565b60c08301525060e082013567ffffffffffffffff81111561373f57600080fd5b61374b848285016135a7565b60e08301525061010082013567ffffffffffffffff81111561376c57600080fd5b613778848285016135a7565b6101008301525061012082013567ffffffffffffffff81111561379a57600080fd5b6137a6848285016135a7565b6101208301525061014082013567ffffffffffffffff8111156137c857600080fd5b6137d4848285016135a7565b6101408301525061016082013567ffffffffffffffff8111156137f657600080fd5b613802848285016135a7565b6101608301525092915050565b60008135905061381e81615c94565b92915050565b60008151905061383381615c94565b92915050565b60006020828403121561384b57600080fd5b6000613859848285016134ff565b91505092915050565b60006020828403121561387457600080fd5b600061388284828501613514565b91505092915050565b6000806040838503121561389e57600080fd5b60006138ac858286016134ff565b92505060206138bd858286016134ff565b9150509250929050565b6000806000606084860312156138dc57600080fd5b60006138ea868287016134ff565b93505060206138fb868287016134ff565b925050604061390c8682870161380f565b9150509250925092565b6000806000806080858703121561392c57600080fd5b600061393a878288016134ff565b945050602061394b878288016134ff565b935050604061395c8782880161380f565b925050606085013567ffffffffffffffff81111561397957600080fd5b6139858782880161357d565b91505092959194509250565b600080604083850312156139a457600080fd5b60006139b2858286016134ff565b92505060206139c385828601613529565b9150509250929050565b600080604083850312156139e057600080fd5b60006139ee858286016134ff565b925050602083013567ffffffffffffffff811115613a0b57600080fd5b613a17858286016135d1565b9150509250929050565b60008060408385031215613a3457600080fd5b6000613a42858286016134ff565b9250506020613a538582860161380f565b9150509250929050565b600060208284031215613a6f57600080fd5b6000613a7d8482850161353e565b91505092915050565b600060208284031215613a9857600080fd5b6000613aa684828501613553565b91505092915050565b600060208284031215613ac157600080fd5b6000613acf84828501613568565b91505092915050565b600060208284031215613aea57600080fd5b600082013567ffffffffffffffff811115613b0457600080fd5b613b10848285016135d1565b91505092915050565b600060208284031215613b2b57600080fd5b6000613b398482850161380f565b91505092915050565b600060208284031215613b5457600080fd5b6000613b6284828501613824565b91505092915050565b613b7481614ca0565b82525050565b613b8381614c0d565b82525050565b613b9281614c31565b82525050565b6000613ba382614ab5565b613bad8185614acb565b9350613bbd818560208601614d1b565b613bc681614ee7565b840191505092915050565b613bda81614cb2565b82525050565b6000613beb82614ac0565b613bf58185614adc565b9350613c05818560208601614d1b565b613c0e81614ee7565b840191505092915050565b6000613c2482614ac0565b613c2e8185614aed565b9350613c3e818560208601614d1b565b80840191505092915050565b60008154613c5781614d4e565b613c618186614aed565b94506001821660008114613c7c5760018114613c8d57613cc0565b60ff19831686528186019350613cc0565b613c9685614aa0565b60005b83811015613cb857815481890152600182019150602081019050613c99565b838801955050505b50505092915050565b6000613cd6602b83614adc565b9150613ce182614ef8565b604082019050919050565b6000613cf9603283614adc565b9150613d0482614f47565b604082019050919050565b6000613d1c602e83614aed565b9150613d2782614f96565b602e82019050919050565b6000613d3f603983614aed565b9150613d4a82614fe5565b603982019050919050565b6000613d62603483614aed565b9150613d6d82615034565b603482019050919050565b6000613d85602683614adc565b9150613d9082615083565b604082019050919050565b6000613da8601c83614adc565b9150613db3826150d2565b602082019050919050565b6000613dcb602583614aed565b9150613dd6826150fb565b602582019050919050565b6000613dee60f583614aed565b9150613df98261514a565b60f582019050919050565b6000613e11603883614aed565b9150613e1c8261527d565b603882019050919050565b6000613e34602d83614adc565b9150613e3f826152cc565b604082019050919050565b6000613e57600183614aed565b9150613e628261531b565b600182019050919050565b6000613e7b61010d83614aed565b9150613e8682615344565b61010d82019050919050565b6000613e9f602483614adc565b9150613eaa8261549e565b604082019050919050565b6000613ec2601983614adc565b9150613ecd826154ed565b602082019050919050565b6000613ee5603283614aed565b9150613ef082615516565b603282019050919050565b6000613f08603483614aed565b9150613f1382615565565b603482019050919050565b6000613f2b602c83614adc565b9150613f36826155b4565b604082019050919050565b6000613f4e603383614aed565b9150613f5982615603565b603382019050919050565b6000613f71603883614adc565b9150613f7c82615652565b604082019050919050565b6000613f94600183614aed565b9150613f9f826156a1565b600182019050919050565b6000613fb7602a83614adc565b9150613fc2826156ca565b604082019050919050565b6000613fda602983614adc565b9150613fe582615719565b604082019050919050565b6000613ffd603483614aed565b915061400882615768565b603482019050919050565b6000614020605b83614aed565b915061402b826157b7565b605b82019050919050565b6000614043600283614aed565b915061404e8261582c565b600282019050919050565b6000614066602083614adc565b915061407182615855565b602082019050919050565b6000614089602d83614aed565b91506140948261587e565b602d82019050919050565b60006140ac602c83614adc565b91506140b7826158cd565b604082019050919050565b60006140cf602083614adc565b91506140da8261591c565b602082019050919050565b60006140f2602983614adc565b91506140fd82615945565b604082019050919050565b6000614115600183614aed565b915061412082615994565b600182019050919050565b6000614138602183614adc565b9150614143826159bd565b604082019050919050565b600061415b601d83614aed565b915061416682615a0c565b601d82019050919050565b600061417e603183614adc565b915061418982615a35565b604082019050919050565b60006141a1603083614aed565b91506141ac82615a84565b603082019050919050565b60006141c4602c83614adc565b91506141cf82615ad3565b604082019050919050565b60006141e7603883614aed565b91506141f282615b22565b603882019050919050565b600061420a603383614aed565b915061421582615b71565b603382019050919050565b600061422d601983614aed565b915061423882615bc0565b601982019050919050565b6000614250603683614aed565b915061425b82615be9565b603682019050919050565b61426f81614c89565b82525050565b61427e81614cfa565b82525050565b61428d81614c93565b82525050565b600061429f828f613c19565b91506142ab828e613c19565b91506142b7828d613c19565b91506142c3828c613c19565b91506142cf828b613c19565b91506142db828a613c19565b91506142e78289613c19565b91506142f38288613c19565b91506142ff8287613c19565b915061430b8286613c19565b91506143178285613c19565b91506143238284613c19565b91508190509d9c50505050505050505050505050565b6000614345828a613c19565b91506143518289613c4a565b915061435c82614194565b91506143688288613c4a565b915061437382613efb565b915061437f8287613c4a565b915061438a826141da565b91506143968286613c4a565b91506143a182613d55565b91506143ad8285613c4a565b91506143b882613e04565b91506143c48284613c19565b91506143cf82614013565b915081905098975050505050505050565b60006143eb82613de1565b9150819050919050565b600061440082613e6d565b915061440c828b613c19565b91506144178261407c565b9150614423828a613c4a565b915061442e82613d0f565b915061443a8289613c4a565b915061444582613ed8565b91506144518288613c4a565b915061445c82613ff0565b91506144688287613c4a565b915061447382613d32565b915061447f8286613c4a565b915061448a82614243565b91506144968285613c4a565b91506144a1826141fd565b91506144ad8284613c4a565b91506144b882613f41565b91508190509998505050505050505050565b60006144d582614108565b91506144e18286613c19565b91506144ec82613e4a565b91506144f88285613c19565b915061450382613dbe565b915061450f8284613c19565b915061451a82614036565b9150819050949350505050565b60006145328261414e565b915061453e8284613c19565b915081905092915050565b600061455482614220565b91506145608284613c19565b915061456b82613f87565b915081905092915050565b600060208201905061458b6000830184613b7a565b92915050565b60006060820190506145a66000830186613b7a565b6145b36020830185613b6b565b6145c06040830184614275565b949350505050565b60006080820190506145dd6000830187613b7a565b6145ea6020830186613b7a565b6145f76040830185614266565b81810360608301526146098184613b98565b905095945050505050565b60006040820190506146296000830185613b7a565b6146366020830184614266565b9392505050565b60006020820190506146526000830184613b89565b92915050565b600060208201905061466d6000830184613bd1565b92915050565b6000602082019050818103600083015261468d8184613be0565b905092915050565b60006101808201905081810360008301526146b0818f613be0565b905081810360208301526146c4818e613be0565b905081810360408301526146d8818d613be0565b905081810360608301526146ec818c613be0565b90508181036080830152614700818b613be0565b905081810360a0830152614714818a613be0565b905081810360c08301526147288189613be0565b905081810360e083015261473c8188613be0565b90508181036101008301526147518187613be0565b90508181036101208301526147668186613be0565b905081810361014083015261477b8185613be0565b90508181036101608301526147908184613be0565b90509d9c50505050505050505050505050565b600060208201905081810360008301526147bc81613cc9565b9050919050565b600060208201905081810360008301526147dc81613cec565b9050919050565b600060208201905081810360008301526147fc81613d78565b9050919050565b6000602082019050818103600083015261481c81613d9b565b9050919050565b6000602082019050818103600083015261483c81613e27565b9050919050565b6000602082019050818103600083015261485c81613e92565b9050919050565b6000602082019050818103600083015261487c81613eb5565b9050919050565b6000602082019050818103600083015261489c81613f1e565b9050919050565b600060208201905081810360008301526148bc81613f64565b9050919050565b600060208201905081810360008301526148dc81613faa565b9050919050565b600060208201905081810360008301526148fc81613fcd565b9050919050565b6000602082019050818103600083015261491c81614059565b9050919050565b6000602082019050818103600083015261493c8161409f565b9050919050565b6000602082019050818103600083015261495c816140c2565b9050919050565b6000602082019050818103600083015261497c816140e5565b9050919050565b6000602082019050818103600083015261499c8161412b565b9050919050565b600060208201905081810360008301526149bc81614171565b9050919050565b600060208201905081810360008301526149dc816141b7565b9050919050565b60006020820190506149f86000830184614266565b92915050565b6000602082019050614a136000830184614284565b92915050565b6000614a23614a34565b9050614a2f8282614d80565b919050565b6000604051905090565b600067ffffffffffffffff821115614a5957614a58614eb8565b5b614a6282614ee7565b9050602081019050919050565b600067ffffffffffffffff821115614a8a57614a89614eb8565b5b614a9382614ee7565b9050602081019050919050565b60008190508160005260206000209050919050565b600081519050919050565b600081519050919050565b600082825260208201905092915050565b600082825260208201905092915050565b600081905092915050565b6000614b0382614c89565b9150614b0e83614c89565b9250827fffffffffffffffffffffffffffffffffffffffffffffffffffffffffffffffff03821115614b4357614b42614e2b565b5b828201905092915050565b6000614b5982614c89565b9150614b6483614c89565b925082614b7457614b73614e5a565b5b828204905092915050565b6000614b8a82614c89565b9150614b9583614c89565b9250817fffffffffffffffffffffffffffffffffffffffffffffffffffffffffffffffff0483118215151615614bce57614bcd614e2b565b5b828202905092915050565b6000614be482614c89565b9150614bef83614c89565b925082821015614c0257614c01614e2b565b5b828203905092915050565b6000614c1882614c69565b9050919050565b6000614c2a82614c69565b9050919050565b60008115159050919050565b60007fffffffff0000000000000000000000000000000000000000000000000000000082169050919050565b600073ffffffffffffffffffffffffffffffffffffffff82169050919050565b6000819050919050565b600060ff82169050919050565b6000614cab82614cd6565b9050919050565b6000614cbd82614cc4565b9050919050565b6000614ccf82614c69565b9050919050565b6000614ce182614ce8565b9050919050565b6000614cf382614c69565b9050919050565b6000614d0582614c93565b9050919050565b82818337600083830152505050565b60005b83811015614d39578082015181840152602081019050614d1e565b83811115614d48576000848401525b50505050565b60006002820490506001821680614d6657607f821691505b60208210811415614d7a57614d79614e89565b5b50919050565b614d8982614ee7565b810181811067ffffffffffffffff82111715614da857614da7614eb8565b5b80604052505050565b6000614dbc82614c89565b91507fffffffffffffffffffffffffffffffffffffffffffffffffffffffffffffffff821415614def57614dee614e2b565b5b600182019050919050565b6000614e0582614c89565b9150614e1083614c89565b925082614e2057614e1f614e5a565b5b828206905092915050565b7f4e487b7100000000000000000000000000000000000000000000000000000000600052601160045260246000fd5b7f4e487b7100000000000000000000000000000000000000000000000000000000600052601260045260246000fd5b7f4e487b7100000000000000000000000000000000000000000000000000000000600052602260045260246000fd5b7f4e487b7100000000000000000000000000000000000000000000000000000000600052604160045260246000fd5b6000601f19601f8301169050919050565b7f455243373231456e756d657261626c653a206f776e657220696e646578206f7560008201527f74206f6620626f756e6473000000000000000000000000000000000000000000602082015250565b7f4552433732313a207472616e7366657220746f206e6f6e20455243373231526560008201527f63656976657220696d706c656d656e7465720000000000000000000000000000602082015250565b7f3c2f746578743e3c7465787420783d2231302220793d2236302220636c61737360008201527f3d2262617365223e766261743a20000000000000000000000000000000000000602082015250565b7f3c2f746578743e3c7465787420783d2231302220793d223132302220636c617360008201527f733d2262617365223e67617320726573697374616e63653a2000000000000000602082015250565b7f3c2f746578743e3c7465787420783d2231302220793d223236302220636c617360008201527f733d2262617365223e74696d657374616d703a20000000000000000000000000602082015250565b7f4f776e61626c653a206e6577206f776e657220697320746865207a65726f206160008201527f6464726573730000000000000000000000000000000000000000000000000000602082015250565b7f4552433732313a20746f6b656e20616c7265616479206d696e74656400000000600082015250565b7f2c22696d616765223a2022646174613a696d6167652f7376672b786d6c3b626160008201527f736536342c000000000000000000000000000000000000000000000000000000602082015250565b7f226465736372697074696f6e223a202244617461706f696e74204c6f6f74206960008201527f73206120766572696669656420616e642074727573746564207265616c20776f60208201527f726c642064617461706f696e742073746f726564206f6e20636861696e2e205360408201527f746174732c20696d616765732c20616e64206f746865722066756e6374696f6e60608201527f616c6974792061726520696e74656e74696f6e616c6c79206f6d69747465642060808201527f666f72206f746865727320746f20696e746572707265742e204665656c20667260a08201527f656520746f2075736520506562626c652064617461706f696e74204c6f6f742060c08201527f696e20616e792077617920796f752077616e742e22000000000000000000000060e082015250565b7f3c2f746578743e3c7465787420783d2231302220793d223238302220636c617360008201527f733d2262617365223e64696767696e6720706f7765723a200000000000000000602082015250565b7f4d696e74696e673a20696e73756666696369656e742062616c616e636520666f60008201527f72206d696e74696e67204e465400000000000000000000000000000000000000602082015250565b7f2c00000000000000000000000000000000000000000000000000000000000000600082015250565b7f3c73766720786d6c6e733d22687474703a2f2f7777772e77332e6f72672f323060008201527f30302f73766722207072657365727665417370656374526174696f3d22784d6960208201527f6e594d696e206d656574222076696577426f783d22302030203335302033353060408201527f223e3c7374796c653e2e62617365207b2066696c6c3a2077686974653b20666f60608201527f6e742d66616d696c793a2073657269663b20666f6e742d73697a653a2031347060808201527f783b207d3c2f7374796c653e3c726563742077696474683d223130302522206860a08201527f65696768743d2231303025222066696c6c3d22626c61636b22202f3e3c74657860c08201527f7420783d2231302220793d2232302220636c6173733d2262617365223e44617460e08201527f61706f696e74204c6f6f7420230000000000000000000000000000000000000061010082015250565b7f4552433732313a207472616e7366657220746f20746865207a65726f2061646460008201527f7265737300000000000000000000000000000000000000000000000000000000602082015250565b7f4552433732313a20617070726f766520746f2063616c6c657200000000000000600082015250565b7f3c2f746578743e3c7465787420783d2231302220793d2238302220636c61737360008201527f3d2262617365223e6c617469747564653a200000000000000000000000000000602082015250565b7f3c2f746578743e3c7465787420783d2231302220793d223232302220636c617360008201527f733d2262617365223e6779726f73636f70653a20000000000000000000000000602082015250565b7f4552433732313a206f70657261746f7220717565727920666f72206e6f6e657860008201527f697374656e7420746f6b656e0000000000000000000000000000000000000000602082015250565b7f3c2f746578743e3c7465787420783d2231302220793d223138302220636c617360008201527f733d2262617365223e68756d69646974793a2000000000000000000000000000602082015250565b7f4552433732313a20617070726f76652063616c6c6572206973206e6f74206f7760008201527f6e6572206e6f7220617070726f76656420666f7220616c6c0000000000000000602082015250565b7f2200000000000000000000000000000000000000000000000000000000000000600082015250565b7f4552433732313a2062616c616e636520717565727920666f7220746865207a6560008201527f726f206164647265737300000000000000000000000000000000000000000000602082015250565b7f4552433732313a206f776e657220717565727920666f72206e6f6e657869737460008201527f656e7420746f6b656e0000000000000000000000000000000000000000000000602082015250565b7f3c2f746578743e3c7465787420783d2231302220793d223130302220636c617360008201527f733d2262617365223e6c6f6e6769747564653a20000000000000000000000000602082015250565b7f3c2f746578743e3c7465787420783d2231302220793d223330302220636c617360008201527f733d2262617365223e6d7367206f726967696e20616e6420696e74656772697460208201527f79206172652076657269666965643c2f746578743e3c2f7376673e0000000000604082015250565b7f227d000000000000000000000000000000000000000000000000000000000000600082015250565b7f4552433732313a206d696e7420746f20746865207a65726f2061646472657373600082015250565b7f3c2f746578743e3c7465787420783d2231302220793d2234302220636c61737360008201527f3d2262617365223e736e723a2000000000000000000000000000000000000000602082015250565b7f4552433732313a20617070726f76656420717565727920666f72206e6f6e657860008201527f697374656e7420746f6b656e0000000000000000000000000000000000000000602082015250565b7f4f776e61626c653a2063616c6c6572206973206e6f7420746865206f776e6572600082015250565b7f4552433732313a207472616e73666572206f6620746f6b656e2074686174206960008201527f73206e6f74206f776e0000000000000000000000000000000000000000000000602082015250565b7f7b00000000000000000000000000000000000000000000000000000000000000600082015250565b7f4552433732313a20617070726f76616c20746f2063757272656e74206f776e6560008201527f7200000000000000000000000000000000000000000000000000000000000000602082015250565b7f646174613a6170706c69636174696f6e2f6a736f6e3b6261736536342c000000600082015250565b7f4552433732313a207472616e736665722063616c6c6572206973206e6f74206f60008201527f776e6572206e6f7220617070726f766564000000000000000000000000000000602082015250565b7f3c2f746578743e3c7465787420783d2231302220793d223230302220636c617360008201527f733d2262617365223e6c696768743a2000000000000000000000000000000000602082015250565b7f455243373231456e756d657261626c653a20676c6f62616c20696e646578206f60008201527f7574206f6620626f756e64730000000000000000000000000000000000000000602082015250565b7f3c2f746578743e3c7465787420783d2231302220793d223234302220636c617360008201527f733d2262617365223e616363656c65726f6d657465723a200000000000000000602082015250565b7f3c2f746578743e3c7465787420783d2231302220793d223136302220636c617360008201527f733d2262617365223e70726573737572653a2000000000000000000000000000602082015250565b7f226e616d65223a202244617461706f696e74204c6f6f74202300000000000000600082015250565b7f3c2f746578743e3c7465787420783d2231302220793d223134302220636c617360008201527f733d2262617365223e74656d70657261747572653a2000000000000000000000602082015250565b615c4181614c0d565b8114615c4c57600080fd5b50565b615c5881614c1f565b8114615c6357600080fd5b50565b615c6f81614c31565b8114615c7a57600080fd5b50565b615c8681614c3d565b8114615c9157600080fd5b50565b615c9d81614c89565b8114615ca857600080fd5b5056fe4142434445464748494a4b4c4d4e4f505152535455565758595a6162636465666768696a6b6c6d6e6f707172737475767778797a303132333435363738392b2fa264697066735822122067f38b87aac429a980370dbeb1ec195e8d442f3818ac74ba1525f1156be0b50c64736f6c63430008040033",
  "linkReferences": {},
  "deployedLinkReferences": {}
}